{
	"SlotMachine.sol": {
		"SlotMachine": {
			"abi": [
				{
					"inputs": [],
					"stateMutability": "nonpayable",
					"type": "constructor"
				},
				{
					"anonymous": false,
					"inputs": [
						{
							"indexed": true,
							"internalType": "address",
							"name": "previousOwner",
							"type": "address"
						},
						{
							"indexed": true,
							"internalType": "address",
							"name": "newOwner",
							"type": "address"
						}
					],
					"name": "OwnershipTransferred",
					"type": "event"
				},
				{
					"anonymous": false,
					"inputs": [
						{
							"indexed": false,
							"internalType": "uint32",
							"name": "number",
							"type": "uint32"
						},
						{
							"indexed": false,
							"internalType": "uint32",
							"name": "winLineCount",
							"type": "uint32"
						},
						{
							"indexed": false,
							"internalType": "bool[]",
							"name": "winLines",
							"type": "bool[]"
						}
					],
					"name": "Spinned",
					"type": "event"
				},
				{
					"inputs": [
						{
							"internalType": "uint32",
							"name": "lineIndex",
							"type": "uint32"
						},
						{
							"components": [
								{
									"components": [
										{
											"internalType": "uint32[5]",
											"name": "slot",
											"type": "uint32[5]"
										}
									],
									"internalType": "struct SlotMachine.Line[3]",
									"name": "line",
									"type": "tuple[3]"
								}
							],
							"internalType": "struct SlotMachine.SpinResult",
							"name": "result",
							"type": "tuple"
						}
					],
					"name": "checkWinLine",
					"outputs": [
						{
							"internalType": "bool",
							"name": "",
							"type": "bool"
						}
					],
					"stateMutability": "view",
					"type": "function"
				},
				{
					"inputs": [],
					"name": "doSpin",
					"outputs": [
						{
							"internalType": "uint32",
							"name": "",
							"type": "uint32"
						},
						{
							"internalType": "uint32",
							"name": "",
							"type": "uint32"
						},
						{
							"internalType": "bool[]",
							"name": "",
							"type": "bool[]"
						}
					],
					"stateMutability": "nonpayable",
					"type": "function"
				},
				{
					"inputs": [
						{
							"internalType": "bytes32",
							"name": "_flushSeed",
							"type": "bytes32"
						}
					],
					"name": "flushRandom",
					"outputs": [],
					"stateMutability": "nonpayable",
					"type": "function"
				},
				{
					"inputs": [],
					"name": "getWinLines",
					"outputs": [
						{
							"internalType": "uint32[][]",
							"name": "",
							"type": "uint32[][]"
						}
					],
					"stateMutability": "view",
					"type": "function"
				},
				{
					"inputs": [],
					"name": "owner",
					"outputs": [
						{
							"internalType": "address",
							"name": "",
							"type": "address"
						}
					],
					"stateMutability": "view",
					"type": "function"
				},
				{
					"inputs": [],
					"name": "renounceOwnership",
					"outputs": [],
					"stateMutability": "nonpayable",
					"type": "function"
				},
				{
					"inputs": [
						{
							"internalType": "address",
							"name": "newOwner",
							"type": "address"
						}
					],
					"name": "transferOwnership",
					"outputs": [],
					"stateMutability": "nonpayable",
					"type": "function"
				}
			],
			"devdoc": {
				"kind": "dev",
				"methods": {
					"owner()": {
						"details": "Returns the address of the current owner."
					},
					"renounceOwnership()": {
						"details": "Leaves the contract without owner. It will not be possible to call `onlyOwner` functions anymore. Can only be called by the current owner. NOTE: Renouncing ownership will leave the contract without an owner, thereby removing any functionality that is only available to the owner."
					},
					"transferOwnership(address)": {
						"details": "Transfers ownership of the contract to a new account (`newOwner`). Can only be called by the current owner."
					}
				},
				"version": 1
			},
			"evm": {
				"assembly": "    /* \"SlotMachine.sol\":412:442  uint32 private _reelsCount = 5 */\n  0x02\n  dup1\n  sload\n  not(0xffffffff)\n  and\n    /* \"SlotMachine.sol\":441:442  5 */\n  0x05\n    /* \"SlotMachine.sol\":412:442  uint32 private _reelsCount = 5 */\n  swap1\n  dup2\n  or\n  swap1\n  swap2\n  sstore\n    /* \"SlotMachine.sol\":621:677  uint32[5] private _div1 = [100000, 10000, 1000, 100, 10] */\n  0x0120\n    /* \"SlotMachine.sol\":253:7302  contract SlotMachine is Ownable {... */\n  0x40\n    /* \"SlotMachine.sol\":621:677  uint32[5] private _div1 = [100000, 10000, 1000, 100, 10] */\n  mstore\n    /* \"SlotMachine.sol\":648:654  100000 */\n  0x0186a0\n    /* \"SlotMachine.sol\":253:7302  contract SlotMachine is Ownable {... */\n  0x80\n    /* \"SlotMachine.sol\":621:677  uint32[5] private _div1 = [100000, 10000, 1000, 100, 10] */\n  swap1\n  dup2\n  mstore\n    /* \"SlotMachine.sol\":656:661  10000 */\n  0x2710\n    /* \"SlotMachine.sol\":621:677  uint32[5] private _div1 = [100000, 10000, 1000, 100, 10] */\n  0xa0\n  mstore\n    /* \"SlotMachine.sol\":663:667  1000 */\n  0x03e8\n    /* \"SlotMachine.sol\":621:677  uint32[5] private _div1 = [100000, 10000, 1000, 100, 10] */\n  0xc0\n  mstore\n    /* \"SlotMachine.sol\":669:672  100 */\n  0x64\n    /* \"SlotMachine.sol\":621:677  uint32[5] private _div1 = [100000, 10000, 1000, 100, 10] */\n  0xe0\n  mstore\n    /* \"SlotMachine.sol\":674:676  10 */\n  0x0a\n    /* \"SlotMachine.sol\":412:442  uint32 private _reelsCount = 5 */\n  0x0100\n    /* \"SlotMachine.sol\":621:677  uint32[5] private _div1 = [100000, 10000, 1000, 100, 10] */\n  mstore\n  tag_1\n  swap2\n  0x04\n  swap2\n    /* \"SlotMachine.sol\":253:7302  contract SlotMachine is Ownable {... */\n  swap1\n    /* \"SlotMachine.sol\":621:677  uint32[5] private _div1 = [100000, 10000, 1000, 100, 10] */\n  tag_2\n  jump\t// in\ntag_1:\n  pop\n    /* \"SlotMachine.sol\":684:736  uint32[5] private _div2 = [10000, 1000, 100, 100, 1] */\n  0x40\n  dup1\n  mload\n  0xa0\n  dup2\n  add\n  dup3\n  mstore\n    /* \"SlotMachine.sol\":711:716  10000 */\n  0x2710\n    /* \"SlotMachine.sol\":684:736  uint32[5] private _div2 = [10000, 1000, 100, 100, 1] */\n  dup2\n  mstore\n    /* \"SlotMachine.sol\":718:722  1000 */\n  0x03e8\n    /* \"SlotMachine.sol\":684:736  uint32[5] private _div2 = [10000, 1000, 100, 100, 1] */\n  0x20\n  dup3\n  add\n  mstore\n    /* \"SlotMachine.sol\":724:727  100 */\n  0x64\n    /* \"SlotMachine.sol\":684:736  uint32[5] private _div2 = [10000, 1000, 100, 100, 1] */\n  swap2\n  dup2\n  add\n  dup3\n  swap1\n  mstore\n  0x60\n  dup2\n  add\n  swap2\n  swap1\n  swap2\n  mstore\n    /* \"SlotMachine.sol\":734:735  1 */\n  0x01\n    /* \"SlotMachine.sol\":684:736  uint32[5] private _div2 = [10000, 1000, 100, 100, 1] */\n  0x80\n  dup3\n  add\n  mstore\n  tag_3\n  swap1\n  0x05\n  swap1\n  dup2\n  tag_4\n  jump\t// in\ntag_3:\n  pop\n    /* \"SlotMachine.sol\":3185:3251  0x0000000000000000000000000000000000000000000000000000000000000000 */\n  0x00\n    /* \"SlotMachine.sol\":3157:3251  bytes32 private _prevSeed = 0x0000000000000000000000000000000000000000000000000000000000000000 */\n  0x07\n  dup2\n  swap1\n  sstore\n    /* \"SlotMachine.sol\":3258:3352  bytes32 private _curRS    = 0x0000000000000000000000000000000000000000000000000000000000000000 */\n  0x08\n  dup2\n  swap1\n  sstore\n    /* \"SlotMachine.sol\":3359:3453  bytes32 private _prevRS   = 0x0000000000000000000000000000000000000000000000000000000000000000 */\n  0x09\n  sstore\n    /* \"SlotMachine.sol\":2295:3149  constructor(... */\n  callvalue\n  dup1\n  iszero\n  tag_5\n  jumpi\n  0x00\n  dup1\n  revert\ntag_5:\n  pop\n    /* \"https://github.com/OpenZeppelin/openzeppelin-contracts/contracts/access/Ownable.sol\":936:968  _transferOwnership(_msgSender()) */\n  tag_9\n    /* \"https://github.com/OpenZeppelin/openzeppelin-contracts/contracts/utils/Context.sol\":719:729  msg.sender */\n  caller\n    /* \"https://github.com/OpenZeppelin/openzeppelin-contracts/contracts/access/Ownable.sol\":936:954  _transferOwnership */\n  tag_12\n    /* \"https://github.com/OpenZeppelin/openzeppelin-contracts/contracts/access/Ownable.sol\":936:968  _transferOwnership(_msgSender()) */\n  jump\t// in\ntag_9:\n    /* \"SlotMachine.sol\":2326:2356  winLines.push([1, 1, 1, 1, 1]) */\n  0x40\n  dup1\n  mload\n  0xa0\n  dup2\n  add\n  dup3\n  mstore\n    /* \"SlotMachine.sol\":2341:2342  1 */\n  0x01\n    /* \"SlotMachine.sol\":2326:2356  winLines.push([1, 1, 1, 1, 1]) */\n  dup1\n  dup3\n  mstore\n  0x20\n  dup3\n  add\n  dup2\n  swap1\n  mstore\n  swap2\n  dup2\n  add\n  dup3\n  swap1\n  mstore\n  0x60\n  dup2\n  add\n  dup3\n  swap1\n  mstore\n  0x80\n  dup2\n  add\n  dup3\n  swap1\n  mstore\n    /* \"SlotMachine.sol\":2326:2334  winLines */\n  0x06\n    /* \"SlotMachine.sol\":2326:2356  winLines.push([1, 1, 1, 1, 1]) */\n  dup1\n  sload\n  swap3\n  dup4\n  add\n  dup2\n  sstore\n  0x00\n  mstore\n  tag_15\n  swap2\n  0x00\n  dup1\n  mload\n  0x20\n  data_b868bdfa8727775661e4ccf117824a175a33f8703d728c04488fbfffcafda9f9\n  dup4\n  codecopy\n  dup2\n  mload\n  swap2\n  mstore\n  add\n  swap1\n  0x05\n  tag_16\n  jump\t// in\ntag_15:\n  pop\n    /* \"SlotMachine.sol\":2367:2397  winLines.push([0, 0, 0, 0, 0]) */\n  0x40\n  dup1\n  mload\n  0xa0\n  dup2\n  add\n  dup3\n  mstore\n  0x00\n  dup1\n  dup3\n  mstore\n  0x20\n  dup3\n  add\n  dup2\n  swap1\n  mstore\n  swap2\n  dup2\n  add\n  dup3\n  swap1\n  mstore\n  0x60\n  dup2\n  add\n  dup3\n  swap1\n  mstore\n  0x80\n  dup2\n  add\n  dup3\n  swap1\n  mstore\n    /* \"SlotMachine.sol\":2367:2375  winLines */\n  0x06\n    /* \"SlotMachine.sol\":2367:2397  winLines.push([0, 0, 0, 0, 0]) */\n  dup1\n  sload\n  0x01\n  dup2\n  add\n  dup3\n  sstore\n  swap3\n  mstore\n  tag_18\n  swap2\n  0x00\n  dup1\n  mload\n  0x20\n  data_b868bdfa8727775661e4ccf117824a175a33f8703d728c04488fbfffcafda9f9\n  dup4\n  codecopy\n  dup2\n  mload\n  swap2\n  mstore\n  add\n  swap1\n  0x05\n  tag_16\n  jump\t// in\ntag_18:\n  pop\n    /* \"SlotMachine.sol\":2408:2438  winLines.push([2, 2, 2, 2, 2]) */\n  0x40\n  dup1\n  mload\n  0xa0\n  dup2\n  add\n  dup3\n  mstore\n    /* \"SlotMachine.sol\":2423:2424  2 */\n  0x02\n    /* \"SlotMachine.sol\":2408:2438  winLines.push([2, 2, 2, 2, 2]) */\n  dup1\n  dup3\n  mstore\n  0x20\n  dup3\n  add\n  dup2\n  swap1\n  mstore\n  swap2\n  dup2\n  add\n  dup3\n  swap1\n  mstore\n  0x60\n  dup2\n  add\n  dup3\n  swap1\n  mstore\n  0x80\n  dup2\n  add\n  swap2\n  swap1\n  swap2\n  mstore\n    /* \"SlotMachine.sol\":2408:2416  winLines */\n  0x06\n    /* \"SlotMachine.sol\":2408:2438  winLines.push([2, 2, 2, 2, 2]) */\n  dup1\n  sload\n  0x01\n  dup2\n  add\n  dup3\n  sstore\n  0x00\n  swap2\n  swap1\n  swap2\n  mstore\n  tag_20\n  swap2\n  0x00\n  dup1\n  mload\n  0x20\n  data_b868bdfa8727775661e4ccf117824a175a33f8703d728c04488fbfffcafda9f9\n  dup4\n  codecopy\n  dup2\n  mload\n  swap2\n  mstore\n  swap1\n  swap2\n  add\n  swap1\n  0x05\n  tag_16\n  jump\t// in\ntag_20:\n  pop\n    /* \"SlotMachine.sol\":2451:2481  winLines.push([1, 1, 0, 1, 2]) */\n  0x40\n  dup1\n  mload\n  0xa0\n  dup2\n  add\n  dup3\n  mstore\n    /* \"SlotMachine.sol\":2466:2467  1 */\n  0x01\n    /* \"SlotMachine.sol\":2451:2481  winLines.push([1, 1, 0, 1, 2]) */\n  dup1\n  dup3\n  mstore\n  0x20\n  dup3\n  add\n  dup2\n  swap1\n  mstore\n  0x00\n  swap3\n  dup3\n  add\n  dup4\n  swap1\n  mstore\n  0x60\n  dup3\n  add\n  dup2\n  swap1\n  mstore\n    /* \"SlotMachine.sol\":2478:2479  2 */\n  0x02\n    /* \"SlotMachine.sol\":2451:2481  winLines.push([1, 1, 0, 1, 2]) */\n  0x80\n  dup4\n  add\n  mstore\n    /* \"SlotMachine.sol\":2451:2459  winLines */\n  0x06\n    /* \"SlotMachine.sol\":2451:2481  winLines.push([1, 1, 0, 1, 2]) */\n  dup1\n  sload\n  swap2\n  dup3\n  add\n  dup2\n  sstore\n  swap1\n  swap3\n  mstore\n  tag_22\n  swap2\n  0x00\n  dup1\n  mload\n  0x20\n  data_b868bdfa8727775661e4ccf117824a175a33f8703d728c04488fbfffcafda9f9\n  dup4\n  codecopy\n  dup2\n  mload\n  swap2\n  mstore\n  add\n  swap1\n  0x05\n  tag_16\n  jump\t// in\ntag_22:\n  pop\n    /* \"SlotMachine.sol\":2492:2522  winLines.push([1, 1, 2, 1, 0]) */\n  0x40\n  dup1\n  mload\n  0xa0\n  dup2\n  add\n  dup3\n  mstore\n    /* \"SlotMachine.sol\":2507:2508  1 */\n  0x01\n    /* \"SlotMachine.sol\":2492:2522  winLines.push([1, 1, 2, 1, 0]) */\n  dup1\n  dup3\n  mstore\n  0x20\n  dup3\n  add\n  dup2\n  swap1\n  mstore\n    /* \"SlotMachine.sol\":2513:2514  2 */\n  0x02\n    /* \"SlotMachine.sol\":2492:2522  winLines.push([1, 1, 2, 1, 0]) */\n  swap3\n  dup3\n  add\n  swap3\n  swap1\n  swap3\n  mstore\n  0x60\n  dup2\n  add\n  dup3\n  swap1\n  mstore\n  0x00\n  0x80\n  dup3\n  add\n  dup2\n  swap1\n  mstore\n    /* \"SlotMachine.sol\":2492:2500  winLines */\n  0x06\n    /* \"SlotMachine.sol\":2492:2522  winLines.push([1, 1, 2, 1, 0]) */\n  dup1\n  sload\n  swap4\n  dup5\n  add\n  dup2\n  sstore\n  swap1\n  mstore\n  tag_24\n  swap2\n  0x00\n  dup1\n  mload\n  0x20\n  data_b868bdfa8727775661e4ccf117824a175a33f8703d728c04488fbfffcafda9f9\n  dup4\n  codecopy\n  dup2\n  mload\n  swap2\n  mstore\n  add\n  swap1\n  0x05\n  tag_16\n  jump\t// in\ntag_24:\n  pop\n    /* \"SlotMachine.sol\":2533:2563  winLines.push([1, 0, 1, 2, 1]) */\n  0x40\n  dup1\n  mload\n  0xa0\n  dup2\n  add\n  dup3\n  mstore\n    /* \"SlotMachine.sol\":2548:2549  1 */\n  0x01\n    /* \"SlotMachine.sol\":2533:2563  winLines.push([1, 0, 1, 2, 1]) */\n  dup1\n  dup3\n  mstore\n  0x00\n  0x20\n  dup4\n  add\n  dup2\n  swap1\n  mstore\n  swap3\n  dup3\n  add\n  dup2\n  swap1\n  mstore\n    /* \"SlotMachine.sol\":2557:2558  2 */\n  0x02\n    /* \"SlotMachine.sol\":2533:2563  winLines.push([1, 0, 1, 2, 1]) */\n  0x60\n  dup4\n  add\n  mstore\n  0x80\n  dup3\n  add\n  dup2\n  swap1\n  mstore\n    /* \"SlotMachine.sol\":2533:2541  winLines */\n  0x06\n    /* \"SlotMachine.sol\":2533:2563  winLines.push([1, 0, 1, 2, 1]) */\n  dup1\n  sload\n  swap2\n  dup3\n  add\n  dup2\n  sstore\n  swap1\n  swap3\n  mstore\n  tag_26\n  swap2\n  0x00\n  dup1\n  mload\n  0x20\n  data_b868bdfa8727775661e4ccf117824a175a33f8703d728c04488fbfffcafda9f9\n  dup4\n  codecopy\n  dup2\n  mload\n  swap2\n  mstore\n  add\n  swap1\n  0x05\n  tag_16\n  jump\t// in\ntag_26:\n  pop\n    /* \"SlotMachine.sol\":2574:2604  winLines.push([1, 0, 1, 2, 2]) */\n  0x40\n  dup1\n  mload\n  0xa0\n  dup2\n  add\n  dup3\n  mstore\n    /* \"SlotMachine.sol\":2589:2590  1 */\n  0x01\n    /* \"SlotMachine.sol\":2574:2604  winLines.push([1, 0, 1, 2, 2]) */\n  dup1\n  dup3\n  mstore\n  0x00\n  0x20\n  dup4\n  add\n  dup2\n  swap1\n  mstore\n  swap3\n  dup3\n  add\n  dup2\n  swap1\n  mstore\n    /* \"SlotMachine.sol\":2598:2599  2 */\n  0x02\n    /* \"SlotMachine.sol\":2574:2604  winLines.push([1, 0, 1, 2, 2]) */\n  0x60\n  dup4\n  add\n  dup2\n  swap1\n  mstore\n  0x80\n  dup4\n  add\n  mstore\n    /* \"SlotMachine.sol\":2574:2582  winLines */\n  0x06\n    /* \"SlotMachine.sol\":2574:2604  winLines.push([1, 0, 1, 2, 2]) */\n  dup1\n  sload\n  swap2\n  dup3\n  add\n  dup2\n  sstore\n  swap1\n  swap3\n  mstore\n  tag_28\n  swap2\n  0x00\n  dup1\n  mload\n  0x20\n  data_b868bdfa8727775661e4ccf117824a175a33f8703d728c04488fbfffcafda9f9\n  dup4\n  codecopy\n  dup2\n  mload\n  swap2\n  mstore\n  add\n  swap1\n  0x05\n  tag_16\n  jump\t// in\ntag_28:\n  pop\n    /* \"SlotMachine.sol\":2615:2645  winLines.push([1, 0, 0, 1, 2]) */\n  0x40\n  dup1\n  mload\n  0xa0\n  dup2\n  add\n  dup3\n  mstore\n    /* \"SlotMachine.sol\":2630:2631  1 */\n  0x01\n    /* \"SlotMachine.sol\":2615:2645  winLines.push([1, 0, 0, 1, 2]) */\n  dup1\n  dup3\n  mstore\n  0x00\n  0x20\n  dup4\n  add\n  dup2\n  swap1\n  mstore\n  swap3\n  dup3\n  add\n  dup4\n  swap1\n  mstore\n  0x60\n  dup3\n  add\n  dup2\n  swap1\n  mstore\n    /* \"SlotMachine.sol\":2642:2643  2 */\n  0x02\n    /* \"SlotMachine.sol\":2615:2645  winLines.push([1, 0, 0, 1, 2]) */\n  0x80\n  dup4\n  add\n  mstore\n    /* \"SlotMachine.sol\":2615:2623  winLines */\n  0x06\n    /* \"SlotMachine.sol\":2615:2645  winLines.push([1, 0, 0, 1, 2]) */\n  dup1\n  sload\n  swap2\n  dup3\n  add\n  dup2\n  sstore\n  swap1\n  swap3\n  mstore\n  tag_30\n  swap2\n  0x00\n  dup1\n  mload\n  0x20\n  data_b868bdfa8727775661e4ccf117824a175a33f8703d728c04488fbfffcafda9f9\n  dup4\n  codecopy\n  dup2\n  mload\n  swap2\n  mstore\n  add\n  swap1\n  0x05\n  tag_16\n  jump\t// in\ntag_30:\n  pop\n    /* \"SlotMachine.sol\":2656:2686  winLines.push([1, 2, 1, 0, 1]) */\n  0x40\n  dup1\n  mload\n  0xa0\n  dup2\n  add\n  dup3\n  mstore\n    /* \"SlotMachine.sol\":2671:2672  1 */\n  0x01\n    /* \"SlotMachine.sol\":2656:2686  winLines.push([1, 2, 1, 0, 1]) */\n  dup1\n  dup3\n  mstore\n    /* \"SlotMachine.sol\":2674:2675  2 */\n  0x02\n    /* \"SlotMachine.sol\":2656:2686  winLines.push([1, 2, 1, 0, 1]) */\n  0x20\n  dup4\n  add\n  mstore\n  swap2\n  dup2\n  add\n  dup3\n  swap1\n  mstore\n  0x00\n  0x60\n  dup3\n  add\n  dup2\n  swap1\n  mstore\n  0x80\n  dup3\n  add\n  dup4\n  swap1\n  mstore\n    /* \"SlotMachine.sol\":2656:2664  winLines */\n  0x06\n    /* \"SlotMachine.sol\":2656:2686  winLines.push([1, 2, 1, 0, 1]) */\n  dup1\n  sload\n  swap4\n  dup5\n  add\n  dup2\n  sstore\n  swap1\n  mstore\n  tag_32\n  swap2\n  0x00\n  dup1\n  mload\n  0x20\n  data_b868bdfa8727775661e4ccf117824a175a33f8703d728c04488fbfffcafda9f9\n  dup4\n  codecopy\n  dup2\n  mload\n  swap2\n  mstore\n  add\n  swap1\n  0x05\n  tag_16\n  jump\t// in\ntag_32:\n  pop\n    /* \"SlotMachine.sol\":2697:2727  winLines.push([1, 2, 2, 1, 0]) */\n  0x40\n  dup1\n  mload\n  0xa0\n  dup2\n  add\n  dup3\n  mstore\n    /* \"SlotMachine.sol\":2712:2713  1 */\n  0x01\n    /* \"SlotMachine.sol\":2697:2727  winLines.push([1, 2, 2, 1, 0]) */\n  dup1\n  dup3\n  mstore\n    /* \"SlotMachine.sol\":2715:2716  2 */\n  0x02\n    /* \"SlotMachine.sol\":2697:2727  winLines.push([1, 2, 2, 1, 0]) */\n  0x20\n  dup4\n  add\n  dup2\n  swap1\n  mstore\n  swap3\n  dup3\n  add\n  swap3\n  swap1\n  swap3\n  mstore\n  0x60\n  dup2\n  add\n  dup3\n  swap1\n  mstore\n  0x00\n  0x80\n  dup3\n  add\n  dup2\n  swap1\n  mstore\n    /* \"SlotMachine.sol\":2697:2705  winLines */\n  0x06\n    /* \"SlotMachine.sol\":2697:2727  winLines.push([1, 2, 2, 1, 0]) */\n  dup1\n  sload\n  swap4\n  dup5\n  add\n  dup2\n  sstore\n  swap1\n  mstore\n  tag_34\n  swap2\n  0x00\n  dup1\n  mload\n  0x20\n  data_b868bdfa8727775661e4ccf117824a175a33f8703d728c04488fbfffcafda9f9\n  dup4\n  codecopy\n  dup2\n  mload\n  swap2\n  mstore\n  add\n  swap1\n  0x05\n  tag_16\n  jump\t// in\ntag_34:\n  pop\n    /* \"SlotMachine.sol\":2738:2768  winLines.push([1, 2, 1, 0, 0]) */\n  0x40\n  dup1\n  mload\n  0xa0\n  dup2\n  add\n  dup3\n  mstore\n    /* \"SlotMachine.sol\":2753:2754  1 */\n  0x01\n    /* \"SlotMachine.sol\":2738:2768  winLines.push([1, 2, 1, 0, 0]) */\n  dup1\n  dup3\n  mstore\n    /* \"SlotMachine.sol\":2756:2757  2 */\n  0x02\n    /* \"SlotMachine.sol\":2738:2768  winLines.push([1, 2, 1, 0, 0]) */\n  0x20\n  dup4\n  add\n  mstore\n  swap2\n  dup2\n  add\n  dup3\n  swap1\n  mstore\n  0x00\n  0x60\n  dup3\n  add\n  dup2\n  swap1\n  mstore\n  0x80\n  dup3\n  add\n  dup2\n  swap1\n  mstore\n    /* \"SlotMachine.sol\":2738:2746  winLines */\n  0x06\n    /* \"SlotMachine.sol\":2738:2768  winLines.push([1, 2, 1, 0, 0]) */\n  dup1\n  sload\n  swap4\n  dup5\n  add\n  dup2\n  sstore\n  swap1\n  mstore\n  tag_36\n  swap2\n  0x00\n  dup1\n  mload\n  0x20\n  data_b868bdfa8727775661e4ccf117824a175a33f8703d728c04488fbfffcafda9f9\n  dup4\n  codecopy\n  dup2\n  mload\n  swap2\n  mstore\n  add\n  swap1\n  0x05\n  tag_16\n  jump\t// in\ntag_36:\n  pop\n    /* \"SlotMachine.sol\":2781:2811  winLines.push([0, 1, 2, 1, 0]) */\n  0x40\n  dup1\n  mload\n  0xa0\n  dup2\n  add\n  dup3\n  mstore\n  0x00\n  dup1\n  dup3\n  mstore\n    /* \"SlotMachine.sol\":2799:2800  1 */\n  0x01\n    /* \"SlotMachine.sol\":2781:2811  winLines.push([0, 1, 2, 1, 0]) */\n  0x20\n  dup4\n  add\n  dup2\n  swap1\n  mstore\n    /* \"SlotMachine.sol\":2802:2803  2 */\n  0x02\n    /* \"SlotMachine.sol\":2781:2811  winLines.push([0, 1, 2, 1, 0]) */\n  swap4\n  dup4\n  add\n  swap4\n  swap1\n  swap4\n  mstore\n  0x60\n  dup3\n  add\n  dup4\n  swap1\n  mstore\n  0x80\n  dup3\n  add\n  dup2\n  swap1\n  mstore\n    /* \"SlotMachine.sol\":2781:2789  winLines */\n  0x06\n    /* \"SlotMachine.sol\":2781:2811  winLines.push([0, 1, 2, 1, 0]) */\n  dup1\n  sload\n  swap4\n  dup5\n  add\n  dup2\n  sstore\n  swap1\n  mstore\n  tag_38\n  swap2\n  0x00\n  dup1\n  mload\n  0x20\n  data_b868bdfa8727775661e4ccf117824a175a33f8703d728c04488fbfffcafda9f9\n  dup4\n  codecopy\n  dup2\n  mload\n  swap2\n  mstore\n  add\n  swap1\n  0x05\n  tag_16\n  jump\t// in\ntag_38:\n  pop\n    /* \"SlotMachine.sol\":2822:2852  winLines.push([0, 1, 1, 1, 2]) */\n  0x40\n  dup1\n  mload\n  0xa0\n  dup2\n  add\n  dup3\n  mstore\n  0x00\n  dup1\n  dup3\n  mstore\n    /* \"SlotMachine.sol\":2840:2841  1 */\n  0x01\n    /* \"SlotMachine.sol\":2822:2852  winLines.push([0, 1, 1, 1, 2]) */\n  0x20\n  dup4\n  add\n  dup2\n  swap1\n  mstore\n  swap3\n  dup3\n  add\n  dup4\n  swap1\n  mstore\n  0x60\n  dup3\n  add\n  dup4\n  swap1\n  mstore\n    /* \"SlotMachine.sol\":2849:2850  2 */\n  0x02\n    /* \"SlotMachine.sol\":2822:2852  winLines.push([0, 1, 1, 1, 2]) */\n  0x80\n  dup4\n  add\n  mstore\n    /* \"SlotMachine.sol\":2822:2830  winLines */\n  0x06\n    /* \"SlotMachine.sol\":2822:2852  winLines.push([0, 1, 1, 1, 2]) */\n  dup1\n  sload\n  swap4\n  dup5\n  add\n  dup2\n  sstore\n  swap1\n  mstore\n  tag_40\n  swap2\n  0x00\n  dup1\n  mload\n  0x20\n  data_b868bdfa8727775661e4ccf117824a175a33f8703d728c04488fbfffcafda9f9\n  dup4\n  codecopy\n  dup2\n  mload\n  swap2\n  mstore\n  add\n  swap1\n  0x05\n  tag_16\n  jump\t// in\ntag_40:\n  pop\n    /* \"SlotMachine.sol\":2863:2893  winLines.push([0, 0, 1, 2, 2]) */\n  0x40\n  dup1\n  mload\n  0xa0\n  dup2\n  add\n  dup3\n  mstore\n  0x00\n  dup1\n  dup3\n  mstore\n  0x20\n  dup3\n  add\n  dup2\n  swap1\n  mstore\n    /* \"SlotMachine.sol\":2884:2885  1 */\n  0x01\n    /* \"SlotMachine.sol\":2863:2893  winLines.push([0, 0, 1, 2, 2]) */\n  swap3\n  dup3\n  add\n  dup4\n  swap1\n  mstore\n    /* \"SlotMachine.sol\":2887:2888  2 */\n  0x02\n    /* \"SlotMachine.sol\":2863:2893  winLines.push([0, 0, 1, 2, 2]) */\n  0x60\n  dup4\n  add\n  dup2\n  swap1\n  mstore\n  0x80\n  dup4\n  add\n  mstore\n    /* \"SlotMachine.sol\":2863:2871  winLines */\n  0x06\n    /* \"SlotMachine.sol\":2863:2893  winLines.push([0, 0, 1, 2, 2]) */\n  dup1\n  sload\n  swap4\n  dup5\n  add\n  dup2\n  sstore\n  swap1\n  mstore\n  tag_42\n  swap2\n  0x00\n  dup1\n  mload\n  0x20\n  data_b868bdfa8727775661e4ccf117824a175a33f8703d728c04488fbfffcafda9f9\n  dup4\n  codecopy\n  dup2\n  mload\n  swap2\n  mstore\n  add\n  swap1\n  0x05\n  tag_16\n  jump\t// in\ntag_42:\n  pop\n    /* \"SlotMachine.sol\":2904:2934  winLines.push([0, 0, 1, 2, 1]) */\n  0x40\n  dup1\n  mload\n  0xa0\n  dup2\n  add\n  dup3\n  mstore\n  0x00\n  dup1\n  dup3\n  mstore\n  0x20\n  dup3\n  add\n  dup2\n  swap1\n  mstore\n    /* \"SlotMachine.sol\":2925:2926  1 */\n  0x01\n    /* \"SlotMachine.sol\":2904:2934  winLines.push([0, 0, 1, 2, 1]) */\n  swap3\n  dup3\n  add\n  dup4\n  swap1\n  mstore\n    /* \"SlotMachine.sol\":2928:2929  2 */\n  0x02\n    /* \"SlotMachine.sol\":2904:2934  winLines.push([0, 0, 1, 2, 1]) */\n  0x60\n  dup4\n  add\n  mstore\n  0x80\n  dup3\n  add\n  dup4\n  swap1\n  mstore\n    /* \"SlotMachine.sol\":2904:2912  winLines */\n  0x06\n    /* \"SlotMachine.sol\":2904:2934  winLines.push([0, 0, 1, 2, 1]) */\n  dup1\n  sload\n  swap4\n  dup5\n  add\n  dup2\n  sstore\n  swap1\n  mstore\n  tag_44\n  swap2\n  0x00\n  dup1\n  mload\n  0x20\n  data_b868bdfa8727775661e4ccf117824a175a33f8703d728c04488fbfffcafda9f9\n  dup4\n  codecopy\n  dup2\n  mload\n  swap2\n  mstore\n  add\n  swap1\n  0x05\n  tag_16\n  jump\t// in\ntag_44:\n  pop\n    /* \"SlotMachine.sol\":2945:2975  winLines.push([0, 0, 0, 1, 2]) */\n  0x40\n  dup1\n  mload\n  0xa0\n  dup2\n  add\n  dup3\n  mstore\n  0x00\n  dup1\n  dup3\n  mstore\n  0x20\n  dup3\n  add\n  dup2\n  swap1\n  mstore\n  swap2\n  dup2\n  add\n  dup3\n  swap1\n  mstore\n    /* \"SlotMachine.sol\":2969:2970  1 */\n  0x01\n    /* \"SlotMachine.sol\":2945:2975  winLines.push([0, 0, 0, 1, 2]) */\n  0x60\n  dup3\n  add\n  dup2\n  swap1\n  mstore\n    /* \"SlotMachine.sol\":2972:2973  2 */\n  0x02\n    /* \"SlotMachine.sol\":2945:2975  winLines.push([0, 0, 0, 1, 2]) */\n  0x80\n  dup4\n  add\n  mstore\n    /* \"SlotMachine.sol\":2945:2953  winLines */\n  0x06\n    /* \"SlotMachine.sol\":2945:2975  winLines.push([0, 0, 0, 1, 2]) */\n  dup1\n  sload\n  swap2\n  dup3\n  add\n  dup2\n  sstore\n  swap1\n  swap3\n  mstore\n  tag_46\n  swap2\n  0x00\n  dup1\n  mload\n  0x20\n  data_b868bdfa8727775661e4ccf117824a175a33f8703d728c04488fbfffcafda9f9\n  dup4\n  codecopy\n  dup2\n  mload\n  swap2\n  mstore\n  add\n  swap1\n  0x05\n  tag_16\n  jump\t// in\ntag_46:\n  pop\n    /* \"SlotMachine.sol\":2988:3018  winLines.push([2, 1, 0, 1, 2]) */\n  0x40\n  dup1\n  mload\n  0xa0\n  dup2\n  add\n  dup3\n  mstore\n    /* \"SlotMachine.sol\":3003:3004  2 */\n  0x02\n    /* \"SlotMachine.sol\":2988:3018  winLines.push([2, 1, 0, 1, 2]) */\n  dup1\n  dup3\n  mstore\n    /* \"SlotMachine.sol\":3006:3007  1 */\n  0x01\n    /* \"SlotMachine.sol\":2988:3018  winLines.push([2, 1, 0, 1, 2]) */\n  0x20\n  dup4\n  add\n  dup2\n  swap1\n  mstore\n  0x00\n  swap4\n  dup4\n  add\n  dup5\n  swap1\n  mstore\n  0x60\n  dup4\n  add\n  dup2\n  swap1\n  mstore\n  0x80\n  dup4\n  add\n  swap2\n  swap1\n  swap2\n  mstore\n    /* \"SlotMachine.sol\":2988:2996  winLines */\n  0x06\n    /* \"SlotMachine.sol\":2988:3018  winLines.push([2, 1, 0, 1, 2]) */\n  dup1\n  sload\n  swap2\n  dup3\n  add\n  dup2\n  sstore\n  swap1\n  swap3\n  mstore\n  tag_48\n  swap2\n  0x00\n  dup1\n  mload\n  0x20\n  data_b868bdfa8727775661e4ccf117824a175a33f8703d728c04488fbfffcafda9f9\n  dup4\n  codecopy\n  dup2\n  mload\n  swap2\n  mstore\n  add\n  swap1\n  0x05\n  tag_16\n  jump\t// in\ntag_48:\n  pop\n    /* \"SlotMachine.sol\":3029:3059  winLines.push([2, 1, 1, 1, 0]) */\n  0x40\n  dup1\n  mload\n  0xa0\n  dup2\n  add\n  dup3\n  mstore\n    /* \"SlotMachine.sol\":3044:3045  2 */\n  0x02\n    /* \"SlotMachine.sol\":3029:3059  winLines.push([2, 1, 1, 1, 0]) */\n  dup2\n  mstore\n    /* \"SlotMachine.sol\":3047:3048  1 */\n  0x01\n    /* \"SlotMachine.sol\":3029:3059  winLines.push([2, 1, 1, 1, 0]) */\n  0x20\n  dup3\n  add\n  dup2\n  swap1\n  mstore\n  swap2\n  dup2\n  add\n  dup3\n  swap1\n  mstore\n  0x60\n  dup2\n  add\n  dup3\n  swap1\n  mstore\n  0x00\n  0x80\n  dup3\n  add\n  dup2\n  swap1\n  mstore\n    /* \"SlotMachine.sol\":3029:3037  winLines */\n  0x06\n    /* \"SlotMachine.sol\":3029:3059  winLines.push([2, 1, 1, 1, 0]) */\n  dup1\n  sload\n  swap4\n  dup5\n  add\n  dup2\n  sstore\n  swap1\n  mstore\n  tag_50\n  swap2\n  0x00\n  dup1\n  mload\n  0x20\n  data_b868bdfa8727775661e4ccf117824a175a33f8703d728c04488fbfffcafda9f9\n  dup4\n  codecopy\n  dup2\n  mload\n  swap2\n  mstore\n  add\n  swap1\n  0x05\n  tag_16\n  jump\t// in\ntag_50:\n  pop\n    /* \"SlotMachine.sol\":3070:3100  winLines.push([2, 2, 1, 0, 0]) */\n  0x40\n  dup1\n  mload\n  0xa0\n  dup2\n  add\n  dup3\n  mstore\n    /* \"SlotMachine.sol\":3085:3086  2 */\n  0x02\n    /* \"SlotMachine.sol\":3070:3100  winLines.push([2, 2, 1, 0, 0]) */\n  dup1\n  dup3\n  mstore\n  0x20\n  dup3\n  add\n  mstore\n    /* \"SlotMachine.sol\":3091:3092  1 */\n  0x01\n    /* \"SlotMachine.sol\":3070:3100  winLines.push([2, 2, 1, 0, 0]) */\n  swap2\n  dup2\n  add\n  dup3\n  swap1\n  mstore\n  0x00\n  0x60\n  dup3\n  add\n  dup2\n  swap1\n  mstore\n  0x80\n  dup3\n  add\n  dup2\n  swap1\n  mstore\n    /* \"SlotMachine.sol\":3070:3078  winLines */\n  0x06\n    /* \"SlotMachine.sol\":3070:3100  winLines.push([2, 2, 1, 0, 0]) */\n  dup1\n  sload\n  swap4\n  dup5\n  add\n  dup2\n  sstore\n  swap1\n  mstore\n  tag_52\n  swap2\n  0x00\n  dup1\n  mload\n  0x20\n  data_b868bdfa8727775661e4ccf117824a175a33f8703d728c04488fbfffcafda9f9\n  dup4\n  codecopy\n  dup2\n  mload\n  swap2\n  mstore\n  add\n  swap1\n  0x05\n  tag_16\n  jump\t// in\ntag_52:\n  pop\n    /* \"SlotMachine.sol\":3111:3141  winLines.push([2, 2, 1, 0, 1]) */\n  0x40\n  dup1\n  mload\n  0xa0\n  dup2\n  add\n  dup3\n  mstore\n    /* \"SlotMachine.sol\":3126:3127  2 */\n  0x02\n    /* \"SlotMachine.sol\":3111:3141  winLines.push([2, 2, 1, 0, 1]) */\n  dup1\n  dup3\n  mstore\n  0x20\n  dup3\n  add\n  mstore\n    /* \"SlotMachine.sol\":3132:3133  1 */\n  0x01\n    /* \"SlotMachine.sol\":3111:3141  winLines.push([2, 2, 1, 0, 1]) */\n  swap2\n  dup2\n  add\n  dup3\n  swap1\n  mstore\n  0x00\n  0x60\n  dup3\n  add\n  dup2\n  swap1\n  mstore\n  0x80\n  dup3\n  add\n  dup4\n  swap1\n  mstore\n    /* \"SlotMachine.sol\":3111:3119  winLines */\n  0x06\n    /* \"SlotMachine.sol\":3111:3141  winLines.push([2, 2, 1, 0, 1]) */\n  dup1\n  sload\n  swap4\n  dup5\n  add\n  dup2\n  sstore\n  swap1\n  mstore\n  tag_54\n  swap2\n  0x00\n  dup1\n  mload\n  0x20\n  data_b868bdfa8727775661e4ccf117824a175a33f8703d728c04488fbfffcafda9f9\n  dup4\n  codecopy\n  dup2\n  mload\n  swap2\n  mstore\n  add\n  swap1\n  0x05\n  tag_16\n  jump\t// in\ntag_54:\n  pop\n    /* \"SlotMachine.sol\":253:7302  contract SlotMachine is Ownable {... */\n  jump(tag_55)\n    /* \"https://github.com/OpenZeppelin/openzeppelin-contracts/contracts/access/Ownable.sol\":2433:2620  function _transferOwnership(address newOwner) internal virtual {... */\ntag_12:\n    /* \"https://github.com/OpenZeppelin/openzeppelin-contracts/contracts/access/Ownable.sol\":2506:2522  address oldOwner */\n  0x00\n    /* \"https://github.com/OpenZeppelin/openzeppelin-contracts/contracts/access/Ownable.sol\":2525:2531  _owner */\n  dup1\n  sload\n  sub(shl(0xa0, 0x01), 0x01)\n    /* \"https://github.com/OpenZeppelin/openzeppelin-contracts/contracts/access/Ownable.sol\":2541:2558  _owner = newOwner */\n  dup4\n  dup2\n  and\n  not(sub(shl(0xa0, 0x01), 0x01))\n  dup4\n  and\n  dup2\n  or\n  dup5\n  sstore\n    /* \"https://github.com/OpenZeppelin/openzeppelin-contracts/contracts/access/Ownable.sol\":2573:2613  OwnershipTransferred(oldOwner, newOwner) */\n  mload(0x40)\n    /* \"https://github.com/OpenZeppelin/openzeppelin-contracts/contracts/access/Ownable.sol\":2525:2531  _owner */\n  swap2\n  swap1\n  swap3\n  and\n  swap3\n  dup4\n  swap2\n    /* \"https://github.com/OpenZeppelin/openzeppelin-contracts/contracts/access/Ownable.sol\":2573:2613  OwnershipTransferred(oldOwner, newOwner) */\n  0x8be0079c531659141344cd1fd0a4f28419497f9722a3daafe3b4186f6b6457e0\n  swap2\n    /* \"https://github.com/OpenZeppelin/openzeppelin-contracts/contracts/access/Ownable.sol\":2506:2522  address oldOwner */\n  swap1\n    /* \"https://github.com/OpenZeppelin/openzeppelin-contracts/contracts/access/Ownable.sol\":2573:2613  OwnershipTransferred(oldOwner, newOwner) */\n  log3\n    /* \"https://github.com/OpenZeppelin/openzeppelin-contracts/contracts/access/Ownable.sol\":2496:2620  {... */\n  pop\n    /* \"https://github.com/OpenZeppelin/openzeppelin-contracts/contracts/access/Ownable.sol\":2433:2620  function _transferOwnership(address newOwner) internal virtual {... */\n  pop\n  jump\t// out\n    /* \"SlotMachine.sol\":253:7302  contract SlotMachine is Ownable {... */\ntag_2:\n  0x01\n  dup4\n  add\n  swap2\n  dup4\n  swap1\n  dup3\n  iszero\n  tag_58\n  jumpi\n  swap2\n  0x20\n  mul\n  dup3\n  add\n  0x00\ntag_59:\n  dup4\n  dup3\n  gt\n  iszero\n  tag_60\n  jumpi\n  dup4\n  mload\n  dup4\n  dup3\n  0x0100\n  exp\n  dup2\n  sload\n  dup2\n  0xffffffff\n  mul\n  not\n  and\n  swap1\n  dup4\n  0xffffff\n  and\n  mul\n  or\n  swap1\n  sstore\n  pop\n  swap3\n  0x20\n  add\n  swap3\n  0x04\n  add\n  0x20\n  dup2\n  0x03\n  add\n  div\n  swap3\n  dup4\n  add\n  swap3\n  0x01\n  sub\n  mul\n  jump(tag_59)\ntag_60:\n  dup1\n  iszero\n  tag_61\n  jumpi\n  dup3\n  dup2\n  0x0100\n  exp\n  dup2\n  sload\n  swap1\n  0xffffffff\n  mul\n  not\n  and\n  swap1\n  sstore\n  0x04\n  add\n  0x20\n  dup2\n  0x03\n  add\n  div\n  swap3\n  dup4\n  add\n  swap3\n  0x01\n  sub\n  mul\n  jump(tag_60)\ntag_61:\n  pop\ntag_58:\n  pop\n  tag_62\n  swap3\n  swap2\n  pop\n  tag_63\n  jump\t// in\ntag_62:\n  pop\n  swap1\n  jump\t// out\ntag_4:\n  0x01\n  dup4\n  add\n  swap2\n  dup4\n  swap1\n  dup3\n  iszero\n  tag_58\n  jumpi\n  swap2\n  0x20\n  mul\n  dup3\n  add\n  0x00\ntag_65:\n  dup4\n  dup3\n  gt\n  iszero\n  tag_60\n  jumpi\n  dup4\n  mload\n  dup4\n  dup3\n  0x0100\n  exp\n  dup2\n  sload\n  dup2\n  0xffffffff\n  mul\n  not\n  and\n  swap1\n  dup4\n  0xffff\n  and\n  mul\n  or\n  swap1\n  sstore\n  pop\n  swap3\n  0x20\n  add\n  swap3\n  0x04\n  add\n  0x20\n  dup2\n  0x03\n  add\n  div\n  swap3\n  dup4\n  add\n  swap3\n  0x01\n  sub\n  mul\n  jump(tag_65)\ntag_16:\n  dup3\n  dup1\n  sload\n  dup3\n  dup3\n  sstore\n  swap1\n  0x00\n  mstore\n  keccak256(0x00, 0x20)\n  swap1\n  0x07\n  add\n  0x08\n  swap1\n  div\n  dup2\n  add\n  swap3\n  dup3\n  iszero\n  tag_58\n  jumpi\n  swap2\n  0x20\n  mul\n  dup3\n  add\n  0x00\ntag_70:\n  dup4\n  dup3\n  gt\n  iszero\n  tag_60\n  jumpi\n  dup4\n  mload\n  dup4\n  dup3\n  0x0100\n  exp\n  dup2\n  sload\n  dup2\n  0xffffffff\n  mul\n  not\n  and\n  swap1\n  dup4\n  0xff\n  and\n  mul\n  or\n  swap1\n  sstore\n  pop\n  swap3\n  0x20\n  add\n  swap3\n  0x04\n  add\n  0x20\n  dup2\n  0x03\n  add\n  div\n  swap3\n  dup4\n  add\n  swap3\n  0x01\n  sub\n  mul\n  jump(tag_70)\ntag_63:\ntag_74:\n  dup1\n  dup3\n  gt\n  iszero\n  tag_62\n  jumpi\n  0x00\n  dup2\n  sstore\n  0x01\n  add\n  jump(tag_74)\ntag_55:\n  dataSize(sub_0)\n  dup1\n  dataOffset(sub_0)\n  0x00\n  codecopy\n  0x00\n  return\nstop\ndata_b868bdfa8727775661e4ccf117824a175a33f8703d728c04488fbfffcafda9f9 f652222313e28459528d920b65115c16c04f3efc82aaedc97be59f3f377c0d3f\n\nsub_0: assembly {\n        /* \"SlotMachine.sol\":253:7302  contract SlotMachine is Ownable {... */\n      mstore(0x40, 0x80)\n      callvalue\n      dup1\n      iszero\n      tag_1\n      jumpi\n      0x00\n      dup1\n      revert\n    tag_1:\n      pop\n      jumpi(tag_2, lt(calldatasize, 0x04))\n      shr(0xe0, calldataload(0x00))\n      dup1\n      0x8da5cb5b\n      gt\n      tag_10\n      jumpi\n      dup1\n      0x8da5cb5b\n      eq\n      tag_6\n      jumpi\n      dup1\n      0xea42ff1f\n      eq\n      tag_7\n      jumpi\n      dup1\n      0xf2fde38b\n      eq\n      tag_8\n      jumpi\n      dup1\n      0xf7e944ee\n      eq\n      tag_9\n      jumpi\n      0x00\n      dup1\n      revert\n    tag_10:\n      dup1\n      0x367a917b\n      eq\n      tag_3\n      jumpi\n      dup1\n      0x4282cf54\n      eq\n      tag_4\n      jumpi\n      dup1\n      0x715018a6\n      eq\n      tag_5\n      jumpi\n    tag_2:\n      0x00\n      dup1\n      revert\n        /* \"SlotMachine.sol\":4818:7299  function doSpin(/*bytes32 _seed*/) public returns(uint32, uint32, bool[] memory) {... */\n    tag_3:\n      tag_11\n      tag_12\n      jump\t// in\n    tag_11:\n      mload(0x40)\n      tag_13\n      swap4\n      swap3\n      swap2\n      swap1\n      tag_14\n      jump\t// in\n    tag_13:\n      mload(0x40)\n      dup1\n      swap2\n      sub\n      swap1\n      return\n        /* \"SlotMachine.sol\":789:885  function getWinLines() public view returns(uint32[][] memory) {... */\n    tag_4:\n      tag_15\n      tag_16\n      jump\t// in\n    tag_15:\n      mload(0x40)\n      tag_13\n      swap2\n      swap1\n      tag_18\n      jump\t// in\n        /* \"https://github.com/OpenZeppelin/openzeppelin-contracts/contracts/access/Ownable.sol\":1831:1932  function renounceOwnership() public virtual onlyOwner {... */\n    tag_5:\n      tag_19\n      tag_20\n      jump\t// in\n    tag_19:\n      stop\n        /* \"https://github.com/OpenZeppelin/openzeppelin-contracts/contracts/access/Ownable.sol\":1201:1286  function owner() public view virtual returns (address) {... */\n    tag_6:\n        /* \"https://github.com/OpenZeppelin/openzeppelin-contracts/contracts/access/Ownable.sol\":1247:1254  address */\n      0x00\n        /* \"https://github.com/OpenZeppelin/openzeppelin-contracts/contracts/access/Ownable.sol\":1273:1279  _owner */\n      sload\n        /* \"https://github.com/OpenZeppelin/openzeppelin-contracts/contracts/access/Ownable.sol\":1201:1286  function owner() public view virtual returns (address) {... */\n      mload(0x40)\n      sub(shl(0xa0, 0x01), 0x01)\n        /* \"https://github.com/OpenZeppelin/openzeppelin-contracts/contracts/access/Ownable.sol\":1273:1279  _owner */\n      swap1\n      swap2\n      and\n        /* \"#utility.yul\":2305:2356   */\n      dup2\n      mstore\n        /* \"#utility.yul\":2293:2295   */\n      0x20\n        /* \"#utility.yul\":2278:2296   */\n      add\n        /* \"https://github.com/OpenZeppelin/openzeppelin-contracts/contracts/access/Ownable.sol\":1201:1286  function owner() public view virtual returns (address) {... */\n      tag_13\n        /* \"#utility.yul\":2159:2362   */\n      jump\n        /* \"SlotMachine.sol\":1040:2287  function checkWinLine(uint32 lineIndex, SpinResult memory result) public view returns(bool) {... */\n    tag_7:\n      tag_25\n      tag_26\n      calldatasize\n      0x04\n      tag_27\n      jump\t// in\n    tag_26:\n      tag_28\n      jump\t// in\n    tag_25:\n      mload(0x40)\n        /* \"#utility.yul\":5294:5308   */\n      swap1\n      iszero\n        /* \"#utility.yul\":5287:5309   */\n      iszero\n        /* \"#utility.yul\":5269:5310   */\n      dup2\n      mstore\n        /* \"#utility.yul\":5257:5259   */\n      0x20\n        /* \"#utility.yul\":5242:5260   */\n      add\n        /* \"SlotMachine.sol\":1040:2287  function checkWinLine(uint32 lineIndex, SpinResult memory result) public view returns(bool) {... */\n      tag_13\n        /* \"#utility.yul\":5129:5316   */\n      jump\n        /* \"https://github.com/OpenZeppelin/openzeppelin-contracts/contracts/access/Ownable.sol\":2081:2279  function transferOwnership(address newOwner) public virtual onlyOwner {... */\n    tag_8:\n      tag_19\n      tag_32\n      calldatasize\n      0x04\n      tag_33\n      jump\t// in\n    tag_32:\n      tag_34\n      jump\t// in\n        /* \"SlotMachine.sol\":3460:3825  function flushRandom(bytes32 _flushSeed) public onlyOwner {... */\n    tag_9:\n      tag_19\n      tag_36\n      calldatasize\n      0x04\n      tag_37\n      jump\t// in\n    tag_36:\n      tag_38\n      jump\t// in\n        /* \"SlotMachine.sol\":4818:7299  function doSpin(/*bytes32 _seed*/) public returns(uint32, uint32, bool[] memory) {... */\n    tag_12:\n        /* \"SlotMachine.sol\":4868:4874  uint32 */\n      0x00\n      dup1\n        /* \"SlotMachine.sol\":4884:4897  bool[] memory */\n      0x60\n        /* \"SlotMachine.sol\":4868:4874  uint32 */\n      dup2\n      dup1\n        /* \"SlotMachine.sol\":5024:5044  getRandomBase(_seed) */\n      tag_40\n        /* \"SlotMachine.sol\":4868:4874  uint32 */\n      dup2\n        /* \"SlotMachine.sol\":5024:5037  getRandomBase */\n      tag_41\n        /* \"SlotMachine.sol\":5024:5044  getRandomBase(_seed) */\n      jump\t// in\n    tag_40:\n        /* \"SlotMachine.sol\":5003:5044  uint256 randomness = getRandomBase(_seed) */\n      swap1\n      pop\n        /* \"SlotMachine.sol\":5055:5072  uint32 spinNumber */\n      0x00\n        /* \"SlotMachine.sol\":5092:5111  randomness % 100000 */\n      tag_42\n        /* \"SlotMachine.sol\":5105:5111  100000 */\n      0x0186a0\n        /* \"SlotMachine.sol\":5003:5044  uint256 randomness = getRandomBase(_seed) */\n      dup4\n        /* \"SlotMachine.sol\":5092:5111  randomness % 100000 */\n      tag_43\n      jump\t// in\n    tag_42:\n        /* \"SlotMachine.sol\":5082:5112  100000 + (randomness % 100000) */\n      tag_44\n      swap1\n        /* \"SlotMachine.sol\":5082:5088  100000 */\n      0x0186a0\n        /* \"SlotMachine.sol\":5082:5112  100000 + (randomness % 100000) */\n      tag_45\n      jump\t// in\n    tag_44:\n        /* \"SlotMachine.sol\":5055:5113  uint32 spinNumber = uint32(100000 + (randomness % 100000)) */\n      swap1\n      pop\n        /* \"SlotMachine.sol\":5136:5152  Line memory __l1 */\n      tag_46\n      tag_47\n      jump\t// in\n    tag_46:\n        /* \"SlotMachine.sol\":5163:5179  Line memory __l0 */\n      tag_48\n      tag_47\n      jump\t// in\n    tag_48:\n        /* \"SlotMachine.sol\":5190:5206  Line memory __l2 */\n      tag_49\n      tag_47\n      jump\t// in\n    tag_49:\n        /* \"SlotMachine.sol\":5242:5258  uint32 reelIndex */\n      0x00\n        /* \"SlotMachine.sol\":5237:5682  for (uint32 reelIndex = 0; reelIndex < _reelsCount; reelIndex++) {... */\n    tag_50:\n        /* \"SlotMachine.sol\":5276:5287  _reelsCount */\n      sload(0x02)\n      0xffffffff\n      swap1\n      dup2\n      and\n        /* \"SlotMachine.sol\":5264:5287  reelIndex < _reelsCount */\n      swap1\n      dup3\n      and\n      lt\n        /* \"SlotMachine.sol\":5237:5682  for (uint32 reelIndex = 0; reelIndex < _reelsCount; reelIndex++) {... */\n      iszero\n      tag_51\n      jumpi\n        /* \"SlotMachine.sol\":5317:5334  uint32 reelNumber */\n      0x00\n        /* \"SlotMachine.sol\":5371:5376  _div2 */\n      0x05\n        /* \"SlotMachine.sol\":5377:5386  reelIndex */\n      dup3\n        /* \"SlotMachine.sol\":5371:5387  _div2[reelIndex] */\n      0xffffffff\n      and\n      0x05\n      dup2\n      lt\n      tag_54\n      jumpi\n      tag_54\n      tag_55\n      jump\t// in\n    tag_54:\n      0x08\n      swap2\n      dup3\n      dup3\n      div\n      add\n      swap2\n      swap1\n      mod\n      0x04\n      mul\n      swap1\n      sload\n      swap1\n      0x0100\n      exp\n      swap1\n      div\n      0xffffffff\n      and\n        /* \"SlotMachine.sol\":5352:5357  _div1 */\n      0x04\n        /* \"SlotMachine.sol\":5358:5367  reelIndex */\n      dup4\n        /* \"SlotMachine.sol\":5352:5368  _div1[reelIndex] */\n      0xffffffff\n      and\n      0x05\n      dup2\n      lt\n      tag_58\n      jumpi\n      tag_58\n      tag_55\n      jump\t// in\n    tag_58:\n      0x08\n      swap2\n      dup3\n      dup3\n      div\n      add\n      swap2\n      swap1\n      mod\n      0x04\n      mul\n      swap1\n      sload\n      swap1\n      0x0100\n      exp\n      swap1\n      div\n      0xffffffff\n      and\n        /* \"SlotMachine.sol\":5339:5349  spinNumber */\n      dup8\n        /* \"SlotMachine.sol\":5339:5368  spinNumber % _div1[reelIndex] */\n      tag_60\n      swap2\n      swap1\n      tag_61\n      jump\t// in\n    tag_60:\n        /* \"SlotMachine.sol\":5339:5387  spinNumber % _div1[reelIndex] / _div2[reelIndex] */\n      tag_62\n      swap2\n      swap1\n      tag_63\n      jump\t// in\n    tag_62:\n        /* \"SlotMachine.sol\":5317:5388  uint32 reelNumber =  (spinNumber % _div1[reelIndex] / _div2[reelIndex]) */\n      swap1\n      pop\n        /* \"SlotMachine.sol\":5407:5417  reelNumber */\n      dup1\n        /* \"SlotMachine.sol\":5407:5422  reelNumber == 9 */\n      0xffffffff\n      and\n        /* \"SlotMachine.sol\":5421:5422  9 */\n      0x09\n        /* \"SlotMachine.sol\":5407:5422  reelNumber == 9 */\n      eq\n        /* \"SlotMachine.sol\":5403:5438  if (reelNumber == 9) reelNumber = 0 */\n      iszero\n      tag_64\n      jumpi\n      pop\n        /* \"SlotMachine.sol\":5437:5438  0 */\n      0x00\n        /* \"SlotMachine.sol\":5403:5438  if (reelNumber == 9) reelNumber = 0 */\n    tag_64:\n        /* \"SlotMachine.sol\":5467:5476  __l1.slot */\n      dup5\n      mload\n        /* \"SlotMachine.sol\":5490:5500  reelNumber */\n      dup2\n      swap1\n        /* \"SlotMachine.sol\":5467:5487  __l1.slot[reelIndex] */\n      0xffffffff\n      dup5\n      and\n      0x05\n      dup2\n      lt\n      tag_66\n      jumpi\n      tag_66\n      tag_55\n      jump\t// in\n    tag_66:\n        /* \"SlotMachine.sol\":5467:5500  __l1.slot[reelIndex] = reelNumber */\n      0xffffffff\n      swap3\n      dup4\n      and\n        /* \"SlotMachine.sol\":5467:5487  __l1.slot[reelIndex] */\n      0x20\n      swap2\n      swap1\n      swap2\n      mul\n      swap2\n      swap1\n      swap2\n      add\n        /* \"SlotMachine.sol\":5467:5500  __l1.slot[reelIndex] = reelNumber */\n      mstore\n        /* \"SlotMachine.sol\":5539:5554  reelNumber == 0 */\n      dup2\n      and\n      iszero\n        /* \"SlotMachine.sol\":5538:5578  (reelNumber == 0) ? 8 : (reelNumber - 1) */\n      tag_67\n      jumpi\n        /* \"SlotMachine.sol\":5563:5577  reelNumber - 1 */\n      tag_68\n        /* \"SlotMachine.sol\":5576:5577  1 */\n      0x01\n        /* \"SlotMachine.sol\":5563:5573  reelNumber */\n      dup3\n        /* \"SlotMachine.sol\":5563:5577  reelNumber - 1 */\n      tag_69\n      jump\t// in\n    tag_68:\n        /* \"SlotMachine.sol\":5538:5578  (reelNumber == 0) ? 8 : (reelNumber - 1) */\n      jump(tag_70)\n    tag_67:\n        /* \"SlotMachine.sol\":5558:5559  8 */\n      0x08\n        /* \"SlotMachine.sol\":5538:5578  (reelNumber == 0) ? 8 : (reelNumber - 1) */\n    tag_70:\n        /* \"SlotMachine.sol\":5515:5524  __l0.slot */\n      dup5\n      mload\n        /* \"SlotMachine.sol\":5515:5535  __l0.slot[reelIndex] */\n      0xffffffff\n      dup5\n      and\n      0x05\n      dup2\n      lt\n      tag_72\n      jumpi\n      tag_72\n      tag_55\n      jump\t// in\n    tag_72:\n      0x20\n      mul\n      add\n        /* \"SlotMachine.sol\":5515:5578  __l0.slot[reelIndex] = (reelNumber == 0) ? 8 : (reelNumber - 1) */\n      swap1\n      0xffffffff\n      and\n      swap1\n      dup2\n      0xffffffff\n      and\n      dup2\n      mstore\n      pop\n      pop\n        /* \"SlotMachine.sol\":5617:5627  reelNumber */\n      dup1\n        /* \"SlotMachine.sol\":5617:5632  reelNumber == 8 */\n      0xffffffff\n      and\n        /* \"SlotMachine.sol\":5631:5632  8 */\n      0x08\n        /* \"SlotMachine.sol\":5617:5632  reelNumber == 8 */\n      eq\n        /* \"SlotMachine.sol\":5616:5656  (reelNumber == 8) ? 0 : (reelNumber + 1) */\n      tag_73\n      jumpi\n        /* \"SlotMachine.sol\":5641:5655  reelNumber + 1 */\n      tag_74\n        /* \"SlotMachine.sol\":5641:5651  reelNumber */\n      dup2\n        /* \"SlotMachine.sol\":5654:5655  1 */\n      0x01\n        /* \"SlotMachine.sol\":5641:5655  reelNumber + 1 */\n      tag_75\n      jump\t// in\n    tag_74:\n        /* \"SlotMachine.sol\":5616:5656  (reelNumber == 8) ? 0 : (reelNumber + 1) */\n      jump(tag_76)\n    tag_73:\n        /* \"SlotMachine.sol\":5636:5637  0 */\n      0x00\n        /* \"SlotMachine.sol\":5616:5656  (reelNumber == 8) ? 0 : (reelNumber + 1) */\n    tag_76:\n        /* \"SlotMachine.sol\":5593:5602  __l2.slot */\n      dup4\n      mload\n        /* \"SlotMachine.sol\":5593:5613  __l2.slot[reelIndex] */\n      0xffffffff\n      dup5\n      and\n      0x05\n      dup2\n      lt\n      tag_78\n      jumpi\n      tag_78\n      tag_55\n      jump\t// in\n    tag_78:\n        /* \"SlotMachine.sol\":5593:5656  __l2.slot[reelIndex] = (reelNumber == 8) ? 0 : (reelNumber + 1) */\n      0xffffffff\n      swap1\n      swap3\n      and\n        /* \"SlotMachine.sol\":5593:5613  __l2.slot[reelIndex] */\n      0x20\n      swap3\n      swap1\n      swap3\n      mul\n      add\n        /* \"SlotMachine.sol\":5593:5656  __l2.slot[reelIndex] = (reelNumber == 8) ? 0 : (reelNumber + 1) */\n      mstore\n      pop\n        /* \"SlotMachine.sol\":5289:5300  reelIndex++ */\n      dup1\n      tag_79\n      dup2\n      tag_80\n      jump\t// in\n    tag_79:\n      swap2\n      pop\n      pop\n        /* \"SlotMachine.sol\":5237:5682  for (uint32 reelIndex = 0; reelIndex < _reelsCount; reelIndex++) {... */\n      jump(tag_50)\n    tag_51:\n      pop\n        /* \"SlotMachine.sol\":5853:5882  SpinResult memory _spinResult */\n      tag_81\n      tag_82\n      jump\t// in\n    tag_81:\n        /* \"SlotMachine.sol\":5893:5909  _spinResult.line */\n      dup1\n      mload\n        /* \"SlotMachine.sol\":5893:5912  _spinResult.line[1] */\n      0x20\n      add\n        /* \"SlotMachine.sol\":5893:5919  _spinResult.line[1] = __l1 */\n      dup5\n      swap1\n      mstore\n        /* \"SlotMachine.sol\":5930:5946  _spinResult.line */\n      dup1\n      mload\n        /* \"SlotMachine.sol\":5930:5956  _spinResult.line[0] = __l0 */\n      dup4\n      swap1\n      mstore\n        /* \"SlotMachine.sol\":5967:5983  _spinResult.line */\n      dup1\n      mload\n        /* \"SlotMachine.sol\":5967:5986  _spinResult.line[2] */\n      0x40\n      add\n        /* \"SlotMachine.sol\":5967:5993  _spinResult.line[2] = __l2 */\n      dup3\n      swap1\n      mstore\n        /* \"SlotMachine.sol\":6063:6071  winLines */\n      0x06\n        /* \"SlotMachine.sol\":6063:6078  winLines.length */\n      sload\n        /* \"SlotMachine.sol\":5930:5946  _spinResult.line */\n      0x00\n      swap1\n        /* \"SlotMachine.sol\":6052:6079  new bool[](winLines.length) */\n      0xffffffffffffffff\n      dup2\n      gt\n      iszero\n      tag_90\n      jumpi\n      tag_90\n      tag_91\n      jump\t// in\n    tag_90:\n      mload(0x40)\n      swap1\n      dup1\n      dup3\n      mstore\n      dup1\n      0x20\n      mul\n      0x20\n      add\n      dup3\n      add\n      0x40\n      mstore\n      dup1\n      iszero\n      tag_92\n      jumpi\n      dup2\n      0x20\n      add\n      0x20\n      dup3\n      mul\n      dup1\n      calldatasize\n      dup4\n      calldatacopy\n      add\n      swap1\n      pop\n    tag_92:\n      pop\n        /* \"SlotMachine.sol\":6024:6079  bool[] memory winnedLines = new bool[](winLines.length) */\n      swap1\n      pop\n        /* \"SlotMachine.sol\":6090:6109  uint32 winLineCount */\n      0x00\n        /* \"SlotMachine.sol\":6129:6143  uint32 winLine */\n      dup1\n        /* \"SlotMachine.sol\":6124:7171  for (uint32 winLine = 0; winLine < winLines.length; winLine++) {... */\n    tag_93:\n        /* \"SlotMachine.sol\":6159:6167  winLines */\n      0x06\n        /* \"SlotMachine.sol\":6159:6174  winLines.length */\n      sload\n        /* \"SlotMachine.sol\":6149:6174  winLine < winLines.length */\n      0xffffffff\n      dup3\n      and\n      lt\n        /* \"SlotMachine.sol\":6124:7171  for (uint32 winLine = 0; winLine < winLines.length; winLine++) {... */\n      iszero\n      tag_94\n      jumpi\n        /* \"SlotMachine.sol\":6339:6355  _spinResult.line */\n      dup4\n      mload\n        /* \"SlotMachine.sol\":6356:6364  winLines */\n      0x06\n        /* \"SlotMachine.sol\":6356:6373  winLines[winLine] */\n      dup1\n      sload\n      0xffffffff\n      dup5\n      and\n      swap1\n      dup2\n      lt\n      tag_97\n      jumpi\n      tag_97\n      tag_55\n      jump\t// in\n    tag_97:\n      swap1\n      0x00\n      mstore\n      keccak256(0x00, 0x20)\n      add\n        /* \"SlotMachine.sol\":6374:6375  1 */\n      0x01\n        /* \"SlotMachine.sol\":6356:6376  winLines[winLine][1] */\n      dup2\n      sload\n      dup2\n      lt\n      tag_100\n      jumpi\n      tag_100\n      tag_55\n      jump\t// in\n    tag_100:\n      0x00\n      swap2\n      dup3\n      mstore\n      0x20\n      swap1\n      swap2\n      keccak256\n      0x08\n      dup3\n      div\n      add\n      sload\n      0x07\n      swap1\n      swap2\n      and\n      0x04\n      mul\n      0x0100\n      exp\n      swap1\n      div\n      0xffffffff\n      and\n        /* \"SlotMachine.sol\":6339:6377  _spinResult.line[winLines[winLine][1]] */\n      0x03\n      dup2\n      lt\n      tag_103\n      jumpi\n      tag_103\n      tag_55\n      jump\t// in\n    tag_103:\n      0x20\n      mul\n      add\n      mload\n        /* \"SlotMachine.sol\":6339:6382  _spinResult.line[winLines[winLine][1]].slot */\n      mload\n        /* \"SlotMachine.sol\":6383:6384  1 */\n      0x01\n        /* \"SlotMachine.sol\":6339:6385  _spinResult.line[winLines[winLine][1]].slot[1] */\n      0x20\n      mul\n      add\n      mload\n        /* \"SlotMachine.sol\":6289:6385  _spinResult.line[winLines[winLine][0]].slot[0] == _spinResult.line[winLines[winLine][1]].slot[1] */\n      0xffffffff\n      and\n        /* \"SlotMachine.sol\":6289:6300  _spinResult */\n      dup5\n        /* \"SlotMachine.sol\":6289:6305  _spinResult.line */\n      0x00\n      add\n      mload\n        /* \"SlotMachine.sol\":6306:6314  winLines */\n      0x06\n        /* \"SlotMachine.sol\":6315:6322  winLine */\n      dup4\n        /* \"SlotMachine.sol\":6306:6323  winLines[winLine] */\n      0xffffffff\n      and\n      dup2\n      sload\n      dup2\n      lt\n      tag_107\n      jumpi\n      tag_107\n      tag_55\n      jump\t// in\n    tag_107:\n      swap1\n      0x00\n      mstore\n      keccak256(0x00, 0x20)\n      add\n        /* \"SlotMachine.sol\":6324:6325  0 */\n      0x00\n        /* \"SlotMachine.sol\":6306:6326  winLines[winLine][0] */\n      dup2\n      sload\n      dup2\n      lt\n      tag_110\n      jumpi\n      tag_110\n      tag_55\n      jump\t// in\n    tag_110:\n      0x00\n      swap2\n      dup3\n      mstore\n      0x20\n      swap1\n      swap2\n      keccak256\n      0x08\n      dup3\n      div\n      add\n      sload\n      0x07\n      swap1\n      swap2\n      and\n      0x04\n      mul\n      0x0100\n      exp\n      swap1\n      div\n      0xffffffff\n      and\n        /* \"SlotMachine.sol\":6289:6327  _spinResult.line[winLines[winLine][0]] */\n      0x03\n      dup2\n      lt\n      tag_113\n      jumpi\n      tag_113\n      tag_55\n      jump\t// in\n    tag_113:\n      0x20\n      mul\n      add\n      mload\n        /* \"SlotMachine.sol\":6289:6332  _spinResult.line[winLines[winLine][0]].slot */\n      mload\n        /* \"SlotMachine.sol\":6289:6335  _spinResult.line[winLines[winLine][0]].slot[0] */\n      mload\n        /* \"SlotMachine.sol\":6289:6385  _spinResult.line[winLines[winLine][0]].slot[0] == _spinResult.line[winLines[winLine][1]].slot[1] */\n      0xffffffff\n      and\n      eq\n        /* \"SlotMachine.sol\":6288:6584  (_spinResult.line[winLines[winLine][0]].slot[0] == _spinResult.line[winLines[winLine][1]].slot[1])... */\n      dup1\n      iszero\n      tag_116\n      jumpi\n      pop\n        /* \"SlotMachine.sol\":6537:6553  _spinResult.line */\n      dup4\n      mload\n        /* \"SlotMachine.sol\":6554:6562  winLines */\n      0x06\n        /* \"SlotMachine.sol\":6554:6571  winLines[winLine] */\n      dup1\n      sload\n      0xffffffff\n      dup5\n      and\n      swap1\n      dup2\n      lt\n      tag_118\n      jumpi\n      tag_118\n      tag_55\n      jump\t// in\n    tag_118:\n      swap1\n      0x00\n      mstore\n      keccak256(0x00, 0x20)\n      add\n        /* \"SlotMachine.sol\":6572:6573  2 */\n      0x02\n        /* \"SlotMachine.sol\":6554:6574  winLines[winLine][2] */\n      dup2\n      sload\n      dup2\n      lt\n      tag_121\n      jumpi\n      tag_121\n      tag_55\n      jump\t// in\n    tag_121:\n      0x00\n      swap2\n      dup3\n      mstore\n      0x20\n      swap1\n      swap2\n      keccak256\n      0x08\n      dup3\n      div\n      add\n      sload\n      0x07\n      swap1\n      swap2\n      and\n      0x04\n      mul\n      0x0100\n      exp\n      swap1\n      div\n      0xffffffff\n      and\n        /* \"SlotMachine.sol\":6537:6575  _spinResult.line[winLines[winLine][2]] */\n      0x03\n      dup2\n      lt\n      tag_124\n      jumpi\n      tag_124\n      tag_55\n      jump\t// in\n    tag_124:\n      0x20\n      mul\n      add\n      mload\n        /* \"SlotMachine.sol\":6537:6580  _spinResult.line[winLines[winLine][2]].slot */\n      mload\n        /* \"SlotMachine.sol\":6537:6583  _spinResult.line[winLines[winLine][2]].slot[2] */\n      0x40\n      add\n      mload\n        /* \"SlotMachine.sol\":6487:6503  _spinResult.line */\n      dup5\n      mload\n        /* \"SlotMachine.sol\":6504:6512  winLines */\n      0x06\n        /* \"SlotMachine.sol\":6504:6521  winLines[winLine] */\n      dup1\n      sload\n        /* \"SlotMachine.sol\":6487:6583  _spinResult.line[winLines[winLine][1]].slot[1] == _spinResult.line[winLines[winLine][2]].slot[2] */\n      0xffffffff\n      swap4\n      dup5\n      and\n      swap4\n        /* \"SlotMachine.sol\":6504:6521  winLines[winLine] */\n      dup6\n      and\n      swap1\n      dup2\n      lt\n      tag_128\n      jumpi\n      tag_128\n      tag_55\n      jump\t// in\n    tag_128:\n      swap1\n      0x00\n      mstore\n      keccak256(0x00, 0x20)\n      add\n        /* \"SlotMachine.sol\":6522:6523  1 */\n      0x01\n        /* \"SlotMachine.sol\":6504:6524  winLines[winLine][1] */\n      dup2\n      sload\n      dup2\n      lt\n      tag_131\n      jumpi\n      tag_131\n      tag_55\n      jump\t// in\n    tag_131:\n      0x00\n      swap2\n      dup3\n      mstore\n      0x20\n      swap1\n      swap2\n      keccak256\n      0x08\n      dup3\n      div\n      add\n      sload\n      0x07\n      swap1\n      swap2\n      and\n      0x04\n      mul\n      0x0100\n      exp\n      swap1\n      div\n      0xffffffff\n      and\n        /* \"SlotMachine.sol\":6487:6525  _spinResult.line[winLines[winLine][1]] */\n      0x03\n      dup2\n      lt\n      tag_134\n      jumpi\n      tag_134\n      tag_55\n      jump\t// in\n    tag_134:\n      0x20\n      mul\n      add\n      mload\n        /* \"SlotMachine.sol\":6487:6530  _spinResult.line[winLines[winLine][1]].slot */\n      mload\n        /* \"SlotMachine.sol\":6531:6532  1 */\n      0x01\n        /* \"SlotMachine.sol\":6487:6533  _spinResult.line[winLines[winLine][1]].slot[1] */\n      0x20\n      mul\n      add\n      mload\n        /* \"SlotMachine.sol\":6487:6583  _spinResult.line[winLines[winLine][1]].slot[1] == _spinResult.line[winLines[winLine][2]].slot[2] */\n      0xffffffff\n      and\n      eq\n        /* \"SlotMachine.sol\":6288:6584  (_spinResult.line[winLines[winLine][0]].slot[0] == _spinResult.line[winLines[winLine][1]].slot[1])... */\n    tag_116:\n        /* \"SlotMachine.sol\":6288:6782  (_spinResult.line[winLines[winLine][0]].slot[0] == _spinResult.line[winLines[winLine][1]].slot[1])... */\n      dup1\n      iszero\n      tag_137\n      jumpi\n      pop\n        /* \"SlotMachine.sol\":6735:6751  _spinResult.line */\n      dup4\n      mload\n        /* \"SlotMachine.sol\":6752:6760  winLines */\n      0x06\n        /* \"SlotMachine.sol\":6752:6769  winLines[winLine] */\n      dup1\n      sload\n      0xffffffff\n      dup5\n      and\n      swap1\n      dup2\n      lt\n      tag_139\n      jumpi\n      tag_139\n      tag_55\n      jump\t// in\n    tag_139:\n      swap1\n      0x00\n      mstore\n      keccak256(0x00, 0x20)\n      add\n        /* \"SlotMachine.sol\":6770:6771  3 */\n      0x03\n        /* \"SlotMachine.sol\":6752:6772  winLines[winLine][3] */\n      dup2\n      sload\n      dup2\n      lt\n      tag_142\n      jumpi\n      tag_142\n      tag_55\n      jump\t// in\n    tag_142:\n      0x00\n      swap2\n      dup3\n      mstore\n      0x20\n      swap1\n      swap2\n      keccak256\n      0x08\n      dup3\n      div\n      add\n      sload\n      0x07\n      swap1\n      swap2\n      and\n      0x04\n      mul\n      0x0100\n      exp\n      swap1\n      div\n      0xffffffff\n      and\n        /* \"SlotMachine.sol\":6735:6773  _spinResult.line[winLines[winLine][3]] */\n      0x03\n      dup2\n      lt\n      tag_145\n      jumpi\n      tag_145\n      tag_55\n      jump\t// in\n    tag_145:\n      0x20\n      mul\n      add\n      mload\n        /* \"SlotMachine.sol\":6735:6778  _spinResult.line[winLines[winLine][3]].slot */\n      mload\n        /* \"SlotMachine.sol\":6735:6781  _spinResult.line[winLines[winLine][3]].slot[3] */\n      0x60\n      add\n      mload\n        /* \"SlotMachine.sol\":6685:6701  _spinResult.line */\n      dup5\n      mload\n        /* \"SlotMachine.sol\":6702:6710  winLines */\n      0x06\n        /* \"SlotMachine.sol\":6702:6719  winLines[winLine] */\n      dup1\n      sload\n        /* \"SlotMachine.sol\":6685:6781  _spinResult.line[winLines[winLine][2]].slot[2] == _spinResult.line[winLines[winLine][3]].slot[3] */\n      0xffffffff\n      swap4\n      dup5\n      and\n      swap4\n        /* \"SlotMachine.sol\":6702:6719  winLines[winLine] */\n      dup6\n      and\n      swap1\n      dup2\n      lt\n      tag_149\n      jumpi\n      tag_149\n      tag_55\n      jump\t// in\n    tag_149:\n      swap1\n      0x00\n      mstore\n      keccak256(0x00, 0x20)\n      add\n        /* \"SlotMachine.sol\":6720:6721  2 */\n      0x02\n        /* \"SlotMachine.sol\":6702:6722  winLines[winLine][2] */\n      dup2\n      sload\n      dup2\n      lt\n      tag_152\n      jumpi\n      tag_152\n      tag_55\n      jump\t// in\n    tag_152:\n      0x00\n      swap2\n      dup3\n      mstore\n      0x20\n      swap1\n      swap2\n      keccak256\n      0x08\n      dup3\n      div\n      add\n      sload\n      0x07\n      swap1\n      swap2\n      and\n      0x04\n      mul\n      0x0100\n      exp\n      swap1\n      div\n      0xffffffff\n      and\n        /* \"SlotMachine.sol\":6685:6723  _spinResult.line[winLines[winLine][2]] */\n      0x03\n      dup2\n      lt\n      tag_155\n      jumpi\n      tag_155\n      tag_55\n      jump\t// in\n    tag_155:\n      0x20\n      mul\n      add\n      mload\n        /* \"SlotMachine.sol\":6685:6728  _spinResult.line[winLines[winLine][2]].slot */\n      mload\n        /* \"SlotMachine.sol\":6685:6731  _spinResult.line[winLines[winLine][2]].slot[2] */\n      0x40\n      add\n      mload\n        /* \"SlotMachine.sol\":6685:6781  _spinResult.line[winLines[winLine][2]].slot[2] == _spinResult.line[winLines[winLine][3]].slot[3] */\n      0xffffffff\n      and\n      eq\n        /* \"SlotMachine.sol\":6288:6782  (_spinResult.line[winLines[winLine][0]].slot[0] == _spinResult.line[winLines[winLine][1]].slot[1])... */\n    tag_137:\n        /* \"SlotMachine.sol\":6288:6980  (_spinResult.line[winLines[winLine][0]].slot[0] == _spinResult.line[winLines[winLine][1]].slot[1])... */\n      dup1\n      iszero\n      tag_158\n      jumpi\n      pop\n        /* \"SlotMachine.sol\":6933:6949  _spinResult.line */\n      dup4\n      mload\n        /* \"SlotMachine.sol\":6950:6958  winLines */\n      0x06\n        /* \"SlotMachine.sol\":6950:6967  winLines[winLine] */\n      dup1\n      sload\n      0xffffffff\n      dup5\n      and\n      swap1\n      dup2\n      lt\n      tag_160\n      jumpi\n      tag_160\n      tag_55\n      jump\t// in\n    tag_160:\n      swap1\n      0x00\n      mstore\n      keccak256(0x00, 0x20)\n      add\n        /* \"SlotMachine.sol\":6968:6969  4 */\n      0x04\n        /* \"SlotMachine.sol\":6950:6970  winLines[winLine][4] */\n      dup2\n      sload\n      dup2\n      lt\n      tag_163\n      jumpi\n      tag_163\n      tag_55\n      jump\t// in\n    tag_163:\n      0x00\n      swap2\n      dup3\n      mstore\n      0x20\n      swap1\n      swap2\n      keccak256\n      0x08\n      dup3\n      div\n      add\n      sload\n      0x07\n      swap1\n      swap2\n      and\n      0x04\n      mul\n      0x0100\n      exp\n      swap1\n      div\n      0xffffffff\n      and\n        /* \"SlotMachine.sol\":6933:6971  _spinResult.line[winLines[winLine][4]] */\n      0x03\n      dup2\n      lt\n      tag_166\n      jumpi\n      tag_166\n      tag_55\n      jump\t// in\n    tag_166:\n      0x20\n      mul\n      add\n      mload\n        /* \"SlotMachine.sol\":6933:6976  _spinResult.line[winLines[winLine][4]].slot */\n      mload\n        /* \"SlotMachine.sol\":6933:6979  _spinResult.line[winLines[winLine][4]].slot[4] */\n      0x80\n      add\n      mload\n        /* \"SlotMachine.sol\":6883:6899  _spinResult.line */\n      dup5\n      mload\n        /* \"SlotMachine.sol\":6900:6908  winLines */\n      0x06\n        /* \"SlotMachine.sol\":6900:6917  winLines[winLine] */\n      dup1\n      sload\n        /* \"SlotMachine.sol\":6883:6979  _spinResult.line[winLines[winLine][3]].slot[3] == _spinResult.line[winLines[winLine][4]].slot[4] */\n      0xffffffff\n      swap4\n      dup5\n      and\n      swap4\n        /* \"SlotMachine.sol\":6900:6917  winLines[winLine] */\n      dup6\n      and\n      swap1\n      dup2\n      lt\n      tag_170\n      jumpi\n      tag_170\n      tag_55\n      jump\t// in\n    tag_170:\n      swap1\n      0x00\n      mstore\n      keccak256(0x00, 0x20)\n      add\n        /* \"SlotMachine.sol\":6918:6919  3 */\n      0x03\n        /* \"SlotMachine.sol\":6900:6920  winLines[winLine][3] */\n      dup2\n      sload\n      dup2\n      lt\n      tag_173\n      jumpi\n      tag_173\n      tag_55\n      jump\t// in\n    tag_173:\n      0x00\n      swap2\n      dup3\n      mstore\n      0x20\n      swap1\n      swap2\n      keccak256\n      0x08\n      dup3\n      div\n      add\n      sload\n      0x07\n      swap1\n      swap2\n      and\n      0x04\n      mul\n      0x0100\n      exp\n      swap1\n      div\n      0xffffffff\n      and\n        /* \"SlotMachine.sol\":6883:6921  _spinResult.line[winLines[winLine][3]] */\n      0x03\n      dup2\n      lt\n      tag_176\n      jumpi\n      tag_176\n      tag_55\n      jump\t// in\n    tag_176:\n      0x20\n      mul\n      add\n      mload\n        /* \"SlotMachine.sol\":6883:6926  _spinResult.line[winLines[winLine][3]].slot */\n      mload\n        /* \"SlotMachine.sol\":6883:6929  _spinResult.line[winLines[winLine][3]].slot[3] */\n      0x60\n      add\n      mload\n        /* \"SlotMachine.sol\":6883:6979  _spinResult.line[winLines[winLine][3]].slot[3] == _spinResult.line[winLines[winLine][4]].slot[4] */\n      0xffffffff\n      and\n      eq\n        /* \"SlotMachine.sol\":6288:6980  (_spinResult.line[winLines[winLine][0]].slot[0] == _spinResult.line[winLines[winLine][1]].slot[1])... */\n    tag_158:\n        /* \"SlotMachine.sol\":6202:7160  if (                /* r0 */                                /* r1 */... */\n      iszero\n      tag_179\n      jumpi\n        /* \"SlotMachine.sol\":7015:7029  winLineCount++ */\n      dup2\n      tag_180\n      dup2\n      tag_80\n      jump\t// in\n    tag_180:\n      swap3\n      pop\n      pop\n        /* \"SlotMachine.sol\":7071:7075  true */\n      0x01\n        /* \"SlotMachine.sol\":7048:7059  winnedLines */\n      dup4\n        /* \"SlotMachine.sol\":7060:7067  winLine */\n      dup3\n        /* \"SlotMachine.sol\":7048:7068  winnedLines[winLine] */\n      0xffffffff\n      and\n      dup2\n      mload\n      dup2\n      lt\n      tag_182\n      jumpi\n      tag_182\n      tag_55\n      jump\t// in\n    tag_182:\n        /* \"SlotMachine.sol\":7048:7075  winnedLines[winLine] = true */\n      swap2\n      iszero\n      iszero\n        /* \"SlotMachine.sol\":7048:7068  winnedLines[winLine] */\n      0x20\n      swap3\n      dup4\n      mul\n      swap2\n      swap1\n      swap2\n      add\n      swap1\n      swap2\n      add\n        /* \"SlotMachine.sol\":7048:7075  winnedLines[winLine] = true */\n      mstore\n        /* \"SlotMachine.sol\":6202:7160  if (                /* r0 */                                /* r1 */... */\n      jump(tag_183)\n    tag_179:\n        /* \"SlotMachine.sol\":7139:7144  false */\n      0x00\n        /* \"SlotMachine.sol\":7116:7127  winnedLines */\n      dup4\n        /* \"SlotMachine.sol\":7128:7135  winLine */\n      dup3\n        /* \"SlotMachine.sol\":7116:7136  winnedLines[winLine] */\n      0xffffffff\n      and\n      dup2\n      mload\n      dup2\n      lt\n      tag_185\n      jumpi\n      tag_185\n      tag_55\n      jump\t// in\n    tag_185:\n        /* \"SlotMachine.sol\":7116:7144  winnedLines[winLine] = false */\n      swap2\n      iszero\n      iszero\n        /* \"SlotMachine.sol\":7116:7136  winnedLines[winLine] */\n      0x20\n      swap3\n      dup4\n      mul\n      swap2\n      swap1\n      swap2\n      add\n      swap1\n      swap2\n      add\n        /* \"SlotMachine.sol\":7116:7144  winnedLines[winLine] = false */\n      mstore\n        /* \"SlotMachine.sol\":6202:7160  if (                /* r0 */                                /* r1 */... */\n    tag_183:\n        /* \"SlotMachine.sol\":6176:6185  winLine++ */\n      dup1\n      tag_186\n      dup2\n      tag_80\n      jump\t// in\n    tag_186:\n      swap2\n      pop\n      pop\n        /* \"SlotMachine.sol\":6124:7171  for (uint32 winLine = 0; winLine < winLines.length; winLine++) {... */\n      jump(tag_93)\n    tag_94:\n      pop\n        /* \"SlotMachine.sol\":7188:7234  Spinned(spinNumber, winLineCount, winnedLines) */\n      0x036aae38c0461de63e32c1224e436463a66b9ee6560e320860083d7eafb65a77\n        /* \"SlotMachine.sol\":7196:7206  spinNumber */\n      dup8\n        /* \"SlotMachine.sol\":7208:7220  winLineCount */\n      dup3\n        /* \"SlotMachine.sol\":7222:7233  winnedLines */\n      dup5\n        /* \"SlotMachine.sol\":7188:7234  Spinned(spinNumber, winLineCount, winnedLines) */\n      mload(0x40)\n      tag_187\n      swap4\n      swap3\n      swap2\n      swap1\n      tag_14\n      jump\t// in\n    tag_187:\n      mload(0x40)\n      dup1\n      swap2\n      sub\n      swap1\n      log1\n        /* \"SlotMachine.sol\":7253:7263  spinNumber */\n      swap6\n      swap12\n        /* \"SlotMachine.sol\":7265:7277  winLineCount */\n      swap6\n      swap11\n      pop\n        /* \"SlotMachine.sol\":7279:7290  winnedLines */\n      swap9\n      pop\n        /* \"SlotMachine.sol\":4818:7299  function doSpin(/*bytes32 _seed*/) public returns(uint32, uint32, bool[] memory) {... */\n      swap4\n      swap7\n      pop\n      pop\n      pop\n      pop\n      pop\n      pop\n      pop\n      jump\t// out\n        /* \"SlotMachine.sol\":789:885  function getWinLines() public view returns(uint32[][] memory) {... */\n    tag_16:\n        /* \"SlotMachine.sol\":832:849  uint32[][] memory */\n      0x60\n        /* \"SlotMachine.sol\":869:877  winLines */\n      0x06\n        /* \"SlotMachine.sol\":862:877  return winLines */\n      dup1\n      sload\n      dup1\n      0x20\n      mul\n      0x20\n      add\n      mload(0x40)\n      swap1\n      dup2\n      add\n      0x40\n      mstore\n      dup1\n      swap3\n      swap2\n      swap1\n      dup2\n      dup2\n      mstore\n      0x20\n      add\n      0x00\n      swap1\n    tag_189:\n      dup3\n      dup3\n      lt\n      iszero\n      tag_190\n      jumpi\n      0x00\n      dup5\n      dup2\n      mstore\n      0x20\n      swap1\n      dup2\n      swap1\n      keccak256\n      dup4\n      add\n      dup1\n      sload\n      0x40\n      dup1\n      mload\n      dup3\n      dup6\n      mul\n      dup2\n      add\n      dup6\n      add\n      swap1\n      swap2\n      mstore\n      dup2\n      dup2\n      mstore\n      swap3\n      dup4\n      add\n      dup3\n      dup3\n      dup1\n      iszero\n      tag_192\n      jumpi\n      0x20\n      mul\n      dup3\n      add\n      swap2\n      swap1\n      0x00\n      mstore\n      keccak256(0x00, 0x20)\n      swap1\n      0x00\n      swap1\n    tag_193:\n      dup3\n      dup3\n      swap1\n      sload\n      swap1\n      0x0100\n      exp\n      swap1\n      div\n      0xffffffff\n      and\n      0xffffffff\n      and\n      dup2\n      mstore\n      0x20\n      add\n      swap1\n      0x04\n      add\n      swap1\n      0x20\n      dup3\n      0x03\n      add\n      div\n      swap3\n      dup4\n      add\n      swap3\n      0x01\n      sub\n      dup3\n      mul\n      swap2\n      pop\n      dup1\n      dup5\n      gt\n      tag_193\n      jumpi\n      swap1\n      pop\n    tag_192:\n      pop\n      pop\n      pop\n      pop\n      pop\n      dup2\n      mstore\n      0x20\n      add\n      swap1\n      0x01\n      add\n      swap1\n      jump(tag_189)\n    tag_190:\n      pop\n      pop\n      pop\n      pop\n      swap1\n      pop\n        /* \"SlotMachine.sol\":789:885  function getWinLines() public view returns(uint32[][] memory) {... */\n      swap1\n      jump\t// out\n        /* \"https://github.com/OpenZeppelin/openzeppelin-contracts/contracts/access/Ownable.sol\":1831:1932  function renounceOwnership() public virtual onlyOwner {... */\n    tag_20:\n        /* \"https://github.com/OpenZeppelin/openzeppelin-contracts/contracts/access/Ownable.sol\":1094:1107  _checkOwner() */\n      tag_195\n        /* \"https://github.com/OpenZeppelin/openzeppelin-contracts/contracts/access/Ownable.sol\":1094:1105  _checkOwner */\n      tag_196\n        /* \"https://github.com/OpenZeppelin/openzeppelin-contracts/contracts/access/Ownable.sol\":1094:1107  _checkOwner() */\n      jump\t// in\n    tag_195:\n        /* \"https://github.com/OpenZeppelin/openzeppelin-contracts/contracts/access/Ownable.sol\":1895:1925  _transferOwnership(address(0)) */\n      tag_198\n        /* \"https://github.com/OpenZeppelin/openzeppelin-contracts/contracts/access/Ownable.sol\":1922:1923  0 */\n      0x00\n        /* \"https://github.com/OpenZeppelin/openzeppelin-contracts/contracts/access/Ownable.sol\":1895:1913  _transferOwnership */\n      tag_199\n        /* \"https://github.com/OpenZeppelin/openzeppelin-contracts/contracts/access/Ownable.sol\":1895:1925  _transferOwnership(address(0)) */\n      jump\t// in\n    tag_198:\n        /* \"https://github.com/OpenZeppelin/openzeppelin-contracts/contracts/access/Ownable.sol\":1831:1932  function renounceOwnership() public virtual onlyOwner {... */\n      jump\t// out\n        /* \"SlotMachine.sol\":1040:2287  function checkWinLine(uint32 lineIndex, SpinResult memory result) public view returns(bool) {... */\n    tag_28:\n        /* \"SlotMachine.sol\":1126:1130  bool */\n      0x00\n        /* \"SlotMachine.sol\":1611:1617  result */\n      dup2\n        /* \"SlotMachine.sol\":1611:1622  result.line */\n      0x00\n      add\n      mload\n        /* \"SlotMachine.sol\":1623:1631  winLines */\n      0x06\n        /* \"SlotMachine.sol\":1632:1641  lineIndex */\n      dup5\n        /* \"SlotMachine.sol\":1623:1642  winLines[lineIndex] */\n      0xffffffff\n      and\n      dup2\n      sload\n      dup2\n      lt\n      tag_203\n      jumpi\n      tag_203\n      tag_55\n      jump\t// in\n    tag_203:\n      swap1\n      0x00\n      mstore\n      keccak256(0x00, 0x20)\n      add\n        /* \"SlotMachine.sol\":1643:1644  1 */\n      0x01\n        /* \"SlotMachine.sol\":1623:1645  winLines[lineIndex][1] */\n      dup2\n      sload\n      dup2\n      lt\n      tag_206\n      jumpi\n      tag_206\n      tag_55\n      jump\t// in\n    tag_206:\n      0x00\n      swap2\n      dup3\n      mstore\n      0x20\n      swap1\n      swap2\n      keccak256\n      0x08\n      dup3\n      div\n      add\n      sload\n      0x07\n      swap1\n      swap2\n      and\n      0x04\n      mul\n      0x0100\n      exp\n      swap1\n      div\n      0xffffffff\n      and\n        /* \"SlotMachine.sol\":1611:1646  result.line[winLines[lineIndex][1]] */\n      0x03\n      dup2\n      lt\n      tag_209\n      jumpi\n      tag_209\n      tag_55\n      jump\t// in\n    tag_209:\n      0x20\n      mul\n      add\n      mload\n        /* \"SlotMachine.sol\":1611:1651  result.line[winLines[lineIndex][1]].slot */\n      mload\n        /* \"SlotMachine.sol\":1652:1653  1 */\n      0x01\n        /* \"SlotMachine.sol\":1611:1654  result.line[winLines[lineIndex][1]].slot[1] */\n      0x20\n      mul\n      add\n      mload\n        /* \"SlotMachine.sol\":1564:1654  result.line[winLines[lineIndex][0]].slot[0] == result.line[winLines[lineIndex][1]].slot[1] */\n      0xffffffff\n      and\n        /* \"SlotMachine.sol\":1564:1570  result */\n      dup3\n        /* \"SlotMachine.sol\":1564:1575  result.line */\n      0x00\n      add\n      mload\n        /* \"SlotMachine.sol\":1576:1584  winLines */\n      0x06\n        /* \"SlotMachine.sol\":1585:1594  lineIndex */\n      dup6\n        /* \"SlotMachine.sol\":1576:1595  winLines[lineIndex] */\n      0xffffffff\n      and\n      dup2\n      sload\n      dup2\n      lt\n      tag_213\n      jumpi\n      tag_213\n      tag_55\n      jump\t// in\n    tag_213:\n      swap1\n      0x00\n      mstore\n      keccak256(0x00, 0x20)\n      add\n        /* \"SlotMachine.sol\":1596:1597  0 */\n      0x00\n        /* \"SlotMachine.sol\":1576:1598  winLines[lineIndex][0] */\n      dup2\n      sload\n      dup2\n      lt\n      tag_216\n      jumpi\n      tag_216\n      tag_55\n      jump\t// in\n    tag_216:\n      0x00\n      swap2\n      dup3\n      mstore\n      0x20\n      swap1\n      swap2\n      keccak256\n      0x08\n      dup3\n      div\n      add\n      sload\n      0x07\n      swap1\n      swap2\n      and\n      0x04\n      mul\n      0x0100\n      exp\n      swap1\n      div\n      0xffffffff\n      and\n        /* \"SlotMachine.sol\":1564:1599  result.line[winLines[lineIndex][0]] */\n      0x03\n      dup2\n      lt\n      tag_219\n      jumpi\n      tag_219\n      tag_55\n      jump\t// in\n    tag_219:\n      0x20\n      mul\n      add\n      mload\n        /* \"SlotMachine.sol\":1564:1604  result.line[winLines[lineIndex][0]].slot */\n      mload\n        /* \"SlotMachine.sol\":1564:1607  result.line[winLines[lineIndex][0]].slot[0] */\n      mload\n        /* \"SlotMachine.sol\":1564:1654  result.line[winLines[lineIndex][0]].slot[0] == result.line[winLines[lineIndex][1]].slot[1] */\n      0xffffffff\n      and\n      eq\n        /* \"SlotMachine.sol\":1563:1839  (result.line[winLines[lineIndex][0]].slot[0] == result.line[winLines[lineIndex][1]].slot[1])... */\n      dup1\n      iszero\n      tag_222\n      jumpi\n      pop\n        /* \"SlotMachine.sol\":1795:1806  result.line */\n      dup2\n      mload\n        /* \"SlotMachine.sol\":1807:1815  winLines */\n      0x06\n        /* \"SlotMachine.sol\":1807:1826  winLines[lineIndex] */\n      dup1\n      sload\n      0xffffffff\n      dup7\n      and\n      swap1\n      dup2\n      lt\n      tag_224\n      jumpi\n      tag_224\n      tag_55\n      jump\t// in\n    tag_224:\n      swap1\n      0x00\n      mstore\n      keccak256(0x00, 0x20)\n      add\n        /* \"SlotMachine.sol\":1827:1828  2 */\n      0x02\n        /* \"SlotMachine.sol\":1807:1829  winLines[lineIndex][2] */\n      dup2\n      sload\n      dup2\n      lt\n      tag_227\n      jumpi\n      tag_227\n      tag_55\n      jump\t// in\n    tag_227:\n      0x00\n      swap2\n      dup3\n      mstore\n      0x20\n      swap1\n      swap2\n      keccak256\n      0x08\n      dup3\n      div\n      add\n      sload\n      0x07\n      swap1\n      swap2\n      and\n      0x04\n      mul\n      0x0100\n      exp\n      swap1\n      div\n      0xffffffff\n      and\n        /* \"SlotMachine.sol\":1795:1830  result.line[winLines[lineIndex][2]] */\n      0x03\n      dup2\n      lt\n      tag_230\n      jumpi\n      tag_230\n      tag_55\n      jump\t// in\n    tag_230:\n      0x20\n      mul\n      add\n      mload\n        /* \"SlotMachine.sol\":1795:1835  result.line[winLines[lineIndex][2]].slot */\n      mload\n        /* \"SlotMachine.sol\":1795:1838  result.line[winLines[lineIndex][2]].slot[2] */\n      0x40\n      add\n      mload\n        /* \"SlotMachine.sol\":1748:1759  result.line */\n      dup3\n      mload\n        /* \"SlotMachine.sol\":1760:1768  winLines */\n      0x06\n        /* \"SlotMachine.sol\":1760:1779  winLines[lineIndex] */\n      dup1\n      sload\n        /* \"SlotMachine.sol\":1748:1838  result.line[winLines[lineIndex][1]].slot[1] == result.line[winLines[lineIndex][2]].slot[2] */\n      0xffffffff\n      swap4\n      dup5\n      and\n      swap4\n        /* \"SlotMachine.sol\":1760:1779  winLines[lineIndex] */\n      dup8\n      and\n      swap1\n      dup2\n      lt\n      tag_234\n      jumpi\n      tag_234\n      tag_55\n      jump\t// in\n    tag_234:\n      swap1\n      0x00\n      mstore\n      keccak256(0x00, 0x20)\n      add\n        /* \"SlotMachine.sol\":1780:1781  1 */\n      0x01\n        /* \"SlotMachine.sol\":1760:1782  winLines[lineIndex][1] */\n      dup2\n      sload\n      dup2\n      lt\n      tag_237\n      jumpi\n      tag_237\n      tag_55\n      jump\t// in\n    tag_237:\n      0x00\n      swap2\n      dup3\n      mstore\n      0x20\n      swap1\n      swap2\n      keccak256\n      0x08\n      dup3\n      div\n      add\n      sload\n      0x07\n      swap1\n      swap2\n      and\n      0x04\n      mul\n      0x0100\n      exp\n      swap1\n      div\n      0xffffffff\n      and\n        /* \"SlotMachine.sol\":1748:1783  result.line[winLines[lineIndex][1]] */\n      0x03\n      dup2\n      lt\n      tag_240\n      jumpi\n      tag_240\n      tag_55\n      jump\t// in\n    tag_240:\n      0x20\n      mul\n      add\n      mload\n        /* \"SlotMachine.sol\":1748:1788  result.line[winLines[lineIndex][1]].slot */\n      mload\n        /* \"SlotMachine.sol\":1789:1790  1 */\n      0x01\n        /* \"SlotMachine.sol\":1748:1791  result.line[winLines[lineIndex][1]].slot[1] */\n      0x20\n      mul\n      add\n      mload\n        /* \"SlotMachine.sol\":1748:1838  result.line[winLines[lineIndex][1]].slot[1] == result.line[winLines[lineIndex][2]].slot[2] */\n      0xffffffff\n      and\n      eq\n        /* \"SlotMachine.sol\":1563:1839  (result.line[winLines[lineIndex][0]].slot[0] == result.line[winLines[lineIndex][1]].slot[1])... */\n    tag_222:\n        /* \"SlotMachine.sol\":1563:2023  (result.line[winLines[lineIndex][0]].slot[0] == result.line[winLines[lineIndex][1]].slot[1])... */\n      dup1\n      iszero\n      tag_243\n      jumpi\n      pop\n        /* \"SlotMachine.sol\":1979:1990  result.line */\n      dup2\n      mload\n        /* \"SlotMachine.sol\":1991:1999  winLines */\n      0x06\n        /* \"SlotMachine.sol\":1991:2010  winLines[lineIndex] */\n      dup1\n      sload\n      0xffffffff\n      dup7\n      and\n      swap1\n      dup2\n      lt\n      tag_245\n      jumpi\n      tag_245\n      tag_55\n      jump\t// in\n    tag_245:\n      swap1\n      0x00\n      mstore\n      keccak256(0x00, 0x20)\n      add\n        /* \"SlotMachine.sol\":2011:2012  3 */\n      0x03\n        /* \"SlotMachine.sol\":1991:2013  winLines[lineIndex][3] */\n      dup2\n      sload\n      dup2\n      lt\n      tag_248\n      jumpi\n      tag_248\n      tag_55\n      jump\t// in\n    tag_248:\n      0x00\n      swap2\n      dup3\n      mstore\n      0x20\n      swap1\n      swap2\n      keccak256\n      0x08\n      dup3\n      div\n      add\n      sload\n      0x07\n      swap1\n      swap2\n      and\n      0x04\n      mul\n      0x0100\n      exp\n      swap1\n      div\n      0xffffffff\n      and\n        /* \"SlotMachine.sol\":1979:2014  result.line[winLines[lineIndex][3]] */\n      0x03\n      dup2\n      lt\n      tag_251\n      jumpi\n      tag_251\n      tag_55\n      jump\t// in\n    tag_251:\n      0x20\n      mul\n      add\n      mload\n        /* \"SlotMachine.sol\":1979:2019  result.line[winLines[lineIndex][3]].slot */\n      mload\n        /* \"SlotMachine.sol\":1979:2022  result.line[winLines[lineIndex][3]].slot[3] */\n      0x60\n      add\n      mload\n        /* \"SlotMachine.sol\":1932:1943  result.line */\n      dup3\n      mload\n        /* \"SlotMachine.sol\":1944:1952  winLines */\n      0x06\n        /* \"SlotMachine.sol\":1944:1963  winLines[lineIndex] */\n      dup1\n      sload\n        /* \"SlotMachine.sol\":1932:2022  result.line[winLines[lineIndex][2]].slot[2] == result.line[winLines[lineIndex][3]].slot[3] */\n      0xffffffff\n      swap4\n      dup5\n      and\n      swap4\n        /* \"SlotMachine.sol\":1944:1963  winLines[lineIndex] */\n      dup8\n      and\n      swap1\n      dup2\n      lt\n      tag_255\n      jumpi\n      tag_255\n      tag_55\n      jump\t// in\n    tag_255:\n      swap1\n      0x00\n      mstore\n      keccak256(0x00, 0x20)\n      add\n        /* \"SlotMachine.sol\":1964:1965  2 */\n      0x02\n        /* \"SlotMachine.sol\":1944:1966  winLines[lineIndex][2] */\n      dup2\n      sload\n      dup2\n      lt\n      tag_258\n      jumpi\n      tag_258\n      tag_55\n      jump\t// in\n    tag_258:\n      0x00\n      swap2\n      dup3\n      mstore\n      0x20\n      swap1\n      swap2\n      keccak256\n      0x08\n      dup3\n      div\n      add\n      sload\n      0x07\n      swap1\n      swap2\n      and\n      0x04\n      mul\n      0x0100\n      exp\n      swap1\n      div\n      0xffffffff\n      and\n        /* \"SlotMachine.sol\":1932:1967  result.line[winLines[lineIndex][2]] */\n      0x03\n      dup2\n      lt\n      tag_261\n      jumpi\n      tag_261\n      tag_55\n      jump\t// in\n    tag_261:\n      0x20\n      mul\n      add\n      mload\n        /* \"SlotMachine.sol\":1932:1972  result.line[winLines[lineIndex][2]].slot */\n      mload\n        /* \"SlotMachine.sol\":1932:1975  result.line[winLines[lineIndex][2]].slot[2] */\n      0x40\n      add\n      mload\n        /* \"SlotMachine.sol\":1932:2022  result.line[winLines[lineIndex][2]].slot[2] == result.line[winLines[lineIndex][3]].slot[3] */\n      0xffffffff\n      and\n      eq\n        /* \"SlotMachine.sol\":1563:2023  (result.line[winLines[lineIndex][0]].slot[0] == result.line[winLines[lineIndex][1]].slot[1])... */\n    tag_243:\n        /* \"SlotMachine.sol\":1563:2207  (result.line[winLines[lineIndex][0]].slot[0] == result.line[winLines[lineIndex][1]].slot[1])... */\n      dup1\n      iszero\n      tag_264\n      jumpi\n      pop\n        /* \"SlotMachine.sol\":2163:2174  result.line */\n      dup2\n      mload\n        /* \"SlotMachine.sol\":2175:2183  winLines */\n      0x06\n        /* \"SlotMachine.sol\":2175:2194  winLines[lineIndex] */\n      dup1\n      sload\n      0xffffffff\n      dup7\n      and\n      swap1\n      dup2\n      lt\n      tag_266\n      jumpi\n      tag_266\n      tag_55\n      jump\t// in\n    tag_266:\n      swap1\n      0x00\n      mstore\n      keccak256(0x00, 0x20)\n      add\n        /* \"SlotMachine.sol\":2195:2196  4 */\n      0x04\n        /* \"SlotMachine.sol\":2175:2197  winLines[lineIndex][4] */\n      dup2\n      sload\n      dup2\n      lt\n      tag_269\n      jumpi\n      tag_269\n      tag_55\n      jump\t// in\n    tag_269:\n      0x00\n      swap2\n      dup3\n      mstore\n      0x20\n      swap1\n      swap2\n      keccak256\n      0x08\n      dup3\n      div\n      add\n      sload\n      0x07\n      swap1\n      swap2\n      and\n      0x04\n      mul\n      0x0100\n      exp\n      swap1\n      div\n      0xffffffff\n      and\n        /* \"SlotMachine.sol\":2163:2198  result.line[winLines[lineIndex][4]] */\n      0x03\n      dup2\n      lt\n      tag_272\n      jumpi\n      tag_272\n      tag_55\n      jump\t// in\n    tag_272:\n      0x20\n      mul\n      add\n      mload\n        /* \"SlotMachine.sol\":2163:2203  result.line[winLines[lineIndex][4]].slot */\n      mload\n        /* \"SlotMachine.sol\":2163:2206  result.line[winLines[lineIndex][4]].slot[4] */\n      0x80\n      add\n      mload\n        /* \"SlotMachine.sol\":2116:2127  result.line */\n      dup3\n      mload\n        /* \"SlotMachine.sol\":2128:2136  winLines */\n      0x06\n        /* \"SlotMachine.sol\":2128:2147  winLines[lineIndex] */\n      dup1\n      sload\n        /* \"SlotMachine.sol\":2116:2206  result.line[winLines[lineIndex][3]].slot[3] == result.line[winLines[lineIndex][4]].slot[4] */\n      0xffffffff\n      swap4\n      dup5\n      and\n      swap4\n        /* \"SlotMachine.sol\":2128:2147  winLines[lineIndex] */\n      dup8\n      and\n      swap1\n      dup2\n      lt\n      tag_276\n      jumpi\n      tag_276\n      tag_55\n      jump\t// in\n    tag_276:\n      swap1\n      0x00\n      mstore\n      keccak256(0x00, 0x20)\n      add\n        /* \"SlotMachine.sol\":2148:2149  3 */\n      0x03\n        /* \"SlotMachine.sol\":2128:2150  winLines[lineIndex][3] */\n      dup2\n      sload\n      dup2\n      lt\n      tag_279\n      jumpi\n      tag_279\n      tag_55\n      jump\t// in\n    tag_279:\n      0x00\n      swap2\n      dup3\n      mstore\n      0x20\n      swap1\n      swap2\n      keccak256\n      0x08\n      dup3\n      div\n      add\n      sload\n      0x07\n      swap1\n      swap2\n      and\n      0x04\n      mul\n      0x0100\n      exp\n      swap1\n      div\n      0xffffffff\n      and\n        /* \"SlotMachine.sol\":2116:2151  result.line[winLines[lineIndex][3]] */\n      0x03\n      dup2\n      lt\n      tag_282\n      jumpi\n      tag_282\n      tag_55\n      jump\t// in\n    tag_282:\n      0x20\n      mul\n      add\n      mload\n        /* \"SlotMachine.sol\":2116:2156  result.line[winLines[lineIndex][3]].slot */\n      mload\n        /* \"SlotMachine.sol\":2116:2159  result.line[winLines[lineIndex][3]].slot[3] */\n      0x60\n      add\n      mload\n        /* \"SlotMachine.sol\":2116:2206  result.line[winLines[lineIndex][3]].slot[3] == result.line[winLines[lineIndex][4]].slot[4] */\n      0xffffffff\n      and\n      eq\n        /* \"SlotMachine.sol\":1563:2207  (result.line[winLines[lineIndex][0]].slot[0] == result.line[winLines[lineIndex][1]].slot[1])... */\n    tag_264:\n        /* \"SlotMachine.sol\":1481:2257  if (                /* r0 */                                /* r1 */... */\n      iszero\n      tag_285\n      jumpi\n      pop\n        /* \"SlotMachine.sol\":2241:2245  true */\n      0x01\n        /* \"SlotMachine.sol\":2234:2245  return true */\n      jump(tag_201)\n        /* \"SlotMachine.sol\":1481:2257  if (                /* r0 */                                /* r1 */... */\n    tag_285:\n      pop\n        /* \"SlotMachine.sol\":2274:2279  false */\n      0x00\n        /* \"SlotMachine.sol\":1040:2287  function checkWinLine(uint32 lineIndex, SpinResult memory result) public view returns(bool) {... */\n    tag_201:\n      swap3\n      swap2\n      pop\n      pop\n      jump\t// out\n        /* \"https://github.com/OpenZeppelin/openzeppelin-contracts/contracts/access/Ownable.sol\":2081:2279  function transferOwnership(address newOwner) public virtual onlyOwner {... */\n    tag_34:\n        /* \"https://github.com/OpenZeppelin/openzeppelin-contracts/contracts/access/Ownable.sol\":1094:1107  _checkOwner() */\n      tag_287\n        /* \"https://github.com/OpenZeppelin/openzeppelin-contracts/contracts/access/Ownable.sol\":1094:1105  _checkOwner */\n      tag_196\n        /* \"https://github.com/OpenZeppelin/openzeppelin-contracts/contracts/access/Ownable.sol\":1094:1107  _checkOwner() */\n      jump\t// in\n    tag_287:\n      sub(shl(0xa0, 0x01), 0x01)\n        /* \"https://github.com/OpenZeppelin/openzeppelin-contracts/contracts/access/Ownable.sol\":2169:2191  newOwner != address(0) */\n      dup2\n      and\n        /* \"https://github.com/OpenZeppelin/openzeppelin-contracts/contracts/access/Ownable.sol\":2161:2234  require(newOwner != address(0), \"Ownable: new owner is the zero address\") */\n      tag_289\n      jumpi\n      mload(0x40)\n      shl(0xe5, 0x461bcd)\n      dup2\n      mstore\n        /* \"#utility.yul\":7694:7696   */\n      0x20\n        /* \"https://github.com/OpenZeppelin/openzeppelin-contracts/contracts/access/Ownable.sol\":2161:2234  require(newOwner != address(0), \"Ownable: new owner is the zero address\") */\n      0x04\n      dup3\n      add\n        /* \"#utility.yul\":7676:7697   */\n      mstore\n        /* \"#utility.yul\":7733:7735   */\n      0x26\n        /* \"#utility.yul\":7713:7731   */\n      0x24\n      dup3\n      add\n        /* \"#utility.yul\":7706:7736   */\n      mstore\n        /* \"#utility.yul\":7772:7806   */\n      0x4f776e61626c653a206e6577206f776e657220697320746865207a65726f2061\n        /* \"#utility.yul\":7752:7770   */\n      0x44\n      dup3\n      add\n        /* \"#utility.yul\":7745:7807   */\n      mstore\n      shl(0xd0, 0x646472657373)\n        /* \"#utility.yul\":7823:7841   */\n      0x64\n      dup3\n      add\n        /* \"#utility.yul\":7816:7852   */\n      mstore\n        /* \"#utility.yul\":7869:7888   */\n      0x84\n      add\n        /* \"https://github.com/OpenZeppelin/openzeppelin-contracts/contracts/access/Ownable.sol\":2161:2234  require(newOwner != address(0), \"Ownable: new owner is the zero address\") */\n    tag_290:\n      mload(0x40)\n      dup1\n      swap2\n      sub\n      swap1\n      revert\n    tag_289:\n        /* \"https://github.com/OpenZeppelin/openzeppelin-contracts/contracts/access/Ownable.sol\":2244:2272  _transferOwnership(newOwner) */\n      tag_292\n        /* \"https://github.com/OpenZeppelin/openzeppelin-contracts/contracts/access/Ownable.sol\":2263:2271  newOwner */\n      dup2\n        /* \"https://github.com/OpenZeppelin/openzeppelin-contracts/contracts/access/Ownable.sol\":2244:2262  _transferOwnership */\n      tag_199\n        /* \"https://github.com/OpenZeppelin/openzeppelin-contracts/contracts/access/Ownable.sol\":2244:2272  _transferOwnership(newOwner) */\n      jump\t// in\n    tag_292:\n        /* \"https://github.com/OpenZeppelin/openzeppelin-contracts/contracts/access/Ownable.sol\":2081:2279  function transferOwnership(address newOwner) public virtual onlyOwner {... */\n      pop\n      jump\t// out\n        /* \"SlotMachine.sol\":3460:3825  function flushRandom(bytes32 _flushSeed) public onlyOwner {... */\n    tag_38:\n        /* \"https://github.com/OpenZeppelin/openzeppelin-contracts/contracts/access/Ownable.sol\":1094:1107  _checkOwner() */\n      tag_294\n        /* \"https://github.com/OpenZeppelin/openzeppelin-contracts/contracts/access/Ownable.sol\":1094:1105  _checkOwner */\n      tag_196\n        /* \"https://github.com/OpenZeppelin/openzeppelin-contracts/contracts/access/Ownable.sol\":1094:1107  _checkOwner() */\n      jump\t// in\n    tag_294:\n        /* \"SlotMachine.sol\":3529:3547  uint256 randomness */\n      0x00\n        /* \"SlotMachine.sol\":3599:3614  block.timestamp */\n      timestamp\n        /* \"SlotMachine.sol\":3629:3638  _prevSeed */\n      sload(0x07)\n        /* \"SlotMachine.sol\":3653:3660  _prevRS */\n      sload(0x09)\n        /* \"SlotMachine.sol\":3675:3681  _curRS */\n      sload(0x08)\n        /* \"SlotMachine.sol\":3696:3706  _flushSeed */\n      dup6\n        /* \"SlotMachine.sol\":3721:3738  _spinId.current() */\n      tag_296\n        /* \"SlotMachine.sol\":3721:3728  _spinId */\n      0x01\n        /* \"https://github.com/OpenZeppelin/openzeppelin-contracts/contracts/utils/Counters.sol\":918:932  counter._value */\n      sload\n      swap1\n        /* \"https://github.com/OpenZeppelin/openzeppelin-contracts/contracts/utils/Counters.sol\":827:939  function current(Counter storage counter) internal view returns (uint256) {... */\n      jump\n        /* \"SlotMachine.sol\":3721:3738  _spinId.current() */\n    tag_296:\n        /* \"SlotMachine.sol\":3568:3749  abi.encodePacked(... */\n      0x40\n      dup1\n      mload\n      0x20\n      dup2\n      add\n        /* \"#utility.yul\":8168:8187   */\n      swap8\n      swap1\n      swap8\n      mstore\n        /* \"#utility.yul\":8203:8215   */\n      dup7\n      add\n        /* \"#utility.yul\":8196:8224   */\n      swap5\n      swap1\n      swap5\n      mstore\n        /* \"#utility.yul\":8240:8252   */\n      0x60\n      dup6\n      add\n        /* \"#utility.yul\":8233:8261   */\n      swap3\n      swap1\n      swap3\n      mstore\n        /* \"#utility.yul\":8277:8289   */\n      0x80\n      dup5\n      add\n        /* \"#utility.yul\":8270:8298   */\n      mstore\n        /* \"#utility.yul\":8314:8327   */\n      0xa0\n      dup4\n      add\n        /* \"#utility.yul\":8307:8336   */\n      mstore\n        /* \"#utility.yul\":8352:8365   */\n      0xc0\n      dup3\n      add\n        /* \"#utility.yul\":8345:8374   */\n      mstore\n        /* \"#utility.yul\":8390:8403   */\n      0xe0\n      add\n        /* \"SlotMachine.sol\":3568:3749  abi.encodePacked(... */\n      0x40\n      dup1\n      mload\n      not(0x1f)\n      dup2\n      dup5\n      sub\n      add\n      dup2\n      mstore\n      swap2\n      swap1\n      mstore\n        /* \"SlotMachine.sol\":3558:3750  keccak256(abi.encodePacked(... */\n      dup1\n      mload\n        /* \"SlotMachine.sol\":3568:3749  abi.encodePacked(... */\n      0x20\n        /* \"SlotMachine.sol\":3558:3750  keccak256(abi.encodePacked(... */\n      swap1\n      swap2\n      add\n      keccak256\n        /* \"SlotMachine.sol\":3772:3778  _curRS */\n      0x08\n      dup1\n      sload\n        /* \"SlotMachine.sol\":3762:3769  _prevRS */\n      0x09\n        /* \"SlotMachine.sol\":3762:3778  _prevRS = _curRS */\n      sstore\n        /* \"SlotMachine.sol\":3789:3817  _curRS = bytes32(randomness) */\n      sstore\n      pop\n      pop\n        /* \"SlotMachine.sol\":3460:3825  function flushRandom(bytes32 _flushSeed) public onlyOwner {... */\n      jump\t// out\n        /* \"SlotMachine.sol\":3833:4393  function getRandomBase(bytes32 _seed) private returns (uint256) {... */\n    tag_41:\n        /* \"SlotMachine.sol\":3888:3895  uint256 */\n      0x00\n        /* \"SlotMachine.sol\":3908:3926  uint256 randomness */\n      dup1\n        /* \"SlotMachine.sol\":3978:3993  block.timestamp */\n      timestamp\n        /* \"SlotMachine.sol\":4008:4013  _seed */\n      dup4\n        /* \"SlotMachine.sol\":4028:4037  _prevSeed */\n      sload(0x07)\n        /* \"SlotMachine.sol\":4052:4058  _curRS */\n      sload(0x08)\n        /* \"SlotMachine.sol\":4073:4080  _prevRS */\n      sload(0x09)\n        /* \"SlotMachine.sol\":4105:4117  block.number */\n      number\n        /* \"SlotMachine.sol\":4095:4118  blockhash(block.number) */\n      blockhash\n        /* \"SlotMachine.sol\":4133:4147  block.coinbase */\n      coinbase\n        /* \"SlotMachine.sol\":4162:4178  block.difficulty */\n      difficulty\n        /* \"SlotMachine.sol\":4193:4207  block.gaslimit */\n      gaslimit\n        /* \"SlotMachine.sol\":4222:4233  tx.gasprice */\n      gasprice\n        /* \"SlotMachine.sol\":4248:4258  msg.sender */\n      caller\n        /* \"SlotMachine.sol\":4273:4282  gasleft() */\n      gas\n        /* \"SlotMachine.sol\":4297:4304  _spinId */\n      0x01\n        /* \"https://github.com/OpenZeppelin/openzeppelin-contracts/contracts/utils/Counters.sol\":918:932  counter._value */\n      sload\n        /* \"SlotMachine.sol\":3947:4325  abi.encodePacked(... */\n      0x40\n      dup1\n      mload\n      0x20\n      dup2\n      add\n        /* \"#utility.yul\":8898:8917   */\n      swap15\n      swap1\n      swap15\n      mstore\n        /* \"#utility.yul\":8933:8945   */\n      dup14\n      add\n        /* \"#utility.yul\":8926:8954   */\n      swap12\n      swap1\n      swap12\n      mstore\n        /* \"#utility.yul\":8970:8982   */\n      0x60\n      dup1\n      dup14\n      add\n        /* \"#utility.yul\":8963:8991   */\n      swap11\n      swap1\n      swap11\n      mstore\n        /* \"#utility.yul\":9007:9019   */\n      0x80\n      dup13\n      add\n        /* \"#utility.yul\":9000:9028   */\n      swap9\n      swap1\n      swap9\n      mstore\n        /* \"#utility.yul\":9044:9057   */\n      0xa0\n      dup12\n      add\n        /* \"#utility.yul\":9037:9066   */\n      swap7\n      swap1\n      swap7\n      mstore\n        /* \"#utility.yul\":9082:9095   */\n      0xc0\n      dup11\n      add\n        /* \"#utility.yul\":9075:9104   */\n      swap5\n      swap1\n      swap5\n      mstore\n      not(0xffffffffffffffffffffffff)\n        /* \"#utility.yul\":9189:9204   */\n      swap3\n      dup8\n      shl\n        /* \"#utility.yul\":9185:9209   */\n      dup4\n      and\n        /* \"#utility.yul\":9170:9183   */\n      0xe0\n      dup11\n      add\n        /* \"#utility.yul\":9163:9210   */\n      mstore\n        /* \"#utility.yul\":9226:9239   */\n      0xf4\n      dup10\n      add\n        /* \"#utility.yul\":9219:9248   */\n      swap2\n      swap1\n      swap2\n      mstore\n        /* \"#utility.yul\":9264:9277   */\n      0x0114\n      dup9\n      add\n        /* \"#utility.yul\":9257:9286   */\n      mstore\n        /* \"#utility.yul\":9302:9315   */\n      0x0134\n      dup8\n      add\n        /* \"#utility.yul\":9295:9324   */\n      swap2\n      swap1\n      swap2\n      mstore\n        /* \"#utility.yul\":9359:9375   */\n      swap3\n      shl\n        /* \"#utility.yul\":9355:9380   */\n      swap1\n      swap2\n      and\n        /* \"#utility.yul\":9340:9353   */\n      0x0154\n      dup5\n      add\n        /* \"#utility.yul\":9333:9381   */\n      mstore\n        /* \"#utility.yul\":9397:9410   */\n      0x0168\n      dup4\n      add\n        /* \"#utility.yul\":9390:9420   */\n      mstore\n        /* \"#utility.yul\":9436:9449   */\n      0x0188\n      dup3\n      add\n        /* \"#utility.yul\":9429:9459   */\n      mstore\n        /* \"#utility.yul\":9475:9488   */\n      0x01a8\n      add\n        /* \"SlotMachine.sol\":3947:4325  abi.encodePacked(... */\n      0x40\n      dup1\n      mload\n      not(0x1f)\n      dup2\n      dup5\n      sub\n      add\n      dup2\n      mstore\n      swap2\n      swap1\n      mstore\n        /* \"SlotMachine.sol\":3937:4326  keccak256(abi.encodePacked(... */\n      dup1\n      mload\n        /* \"SlotMachine.sol\":3947:4325  abi.encodePacked(... */\n      0x20\n        /* \"SlotMachine.sol\":3937:4326  keccak256(abi.encodePacked(... */\n      swap1\n      swap2\n      add\n      keccak256\n        /* \"SlotMachine.sol\":4340:4349  _prevSeed */\n      0x07\n        /* \"SlotMachine.sol\":4340:4357  _prevSeed = _seed */\n      swap4\n      swap1\n      swap4\n      sstore\n      pop\n        /* \"SlotMachine.sol\":3937:4326  keccak256(abi.encodePacked(... */\n      swap1\n      swap2\n        /* \"SlotMachine.sol\":3833:4393  function getRandomBase(bytes32 _seed) private returns (uint256) {... */\n      swap1\n      pop\n      jump\t// out\n        /* \"https://github.com/OpenZeppelin/openzeppelin-contracts/contracts/access/Ownable.sol\":1359:1489  function _checkOwner() internal view virtual {... */\n    tag_196:\n        /* \"https://github.com/OpenZeppelin/openzeppelin-contracts/contracts/access/Ownable.sol\":1247:1254  address */\n      0x00\n        /* \"https://github.com/OpenZeppelin/openzeppelin-contracts/contracts/access/Ownable.sol\":1273:1279  _owner */\n      sload\n      sub(shl(0xa0, 0x01), 0x01)\n      and\n        /* \"https://github.com/OpenZeppelin/openzeppelin-contracts/contracts/utils/Context.sol\":719:729  msg.sender */\n      caller\n        /* \"https://github.com/OpenZeppelin/openzeppelin-contracts/contracts/access/Ownable.sol\":1422:1445  owner() == _msgSender() */\n      eq\n        /* \"https://github.com/OpenZeppelin/openzeppelin-contracts/contracts/access/Ownable.sol\":1414:1482  require(owner() == _msgSender(), \"Ownable: caller is not the owner\") */\n      tag_198\n      jumpi\n      mload(0x40)\n      shl(0xe5, 0x461bcd)\n      dup2\n      mstore\n        /* \"#utility.yul\":9701:9703   */\n      0x20\n        /* \"https://github.com/OpenZeppelin/openzeppelin-contracts/contracts/access/Ownable.sol\":1414:1482  require(owner() == _msgSender(), \"Ownable: caller is not the owner\") */\n      0x04\n      dup3\n      add\n        /* \"#utility.yul\":9683:9704   */\n      dup2\n      swap1\n      mstore\n        /* \"#utility.yul\":9720:9738   */\n      0x24\n      dup3\n      add\n        /* \"#utility.yul\":9713:9743   */\n      mstore\n        /* \"#utility.yul\":9779:9813   */\n      0x4f776e61626c653a2063616c6c6572206973206e6f7420746865206f776e6572\n        /* \"#utility.yul\":9759:9777   */\n      0x44\n      dup3\n      add\n        /* \"#utility.yul\":9752:9814   */\n      mstore\n        /* \"#utility.yul\":9831:9849   */\n      0x64\n      add\n        /* \"https://github.com/OpenZeppelin/openzeppelin-contracts/contracts/access/Ownable.sol\":1414:1482  require(owner() == _msgSender(), \"Ownable: caller is not the owner\") */\n      tag_290\n        /* \"#utility.yul\":9499:9855   */\n      jump\n        /* \"https://github.com/OpenZeppelin/openzeppelin-contracts/contracts/access/Ownable.sol\":2433:2620  function _transferOwnership(address newOwner) internal virtual {... */\n    tag_199:\n        /* \"https://github.com/OpenZeppelin/openzeppelin-contracts/contracts/access/Ownable.sol\":2506:2522  address oldOwner */\n      0x00\n        /* \"https://github.com/OpenZeppelin/openzeppelin-contracts/contracts/access/Ownable.sol\":2525:2531  _owner */\n      dup1\n      sload\n      sub(shl(0xa0, 0x01), 0x01)\n        /* \"https://github.com/OpenZeppelin/openzeppelin-contracts/contracts/access/Ownable.sol\":2541:2558  _owner = newOwner */\n      dup4\n      dup2\n      and\n      not(sub(shl(0xa0, 0x01), 0x01))\n      dup4\n      and\n      dup2\n      or\n      dup5\n      sstore\n        /* \"https://github.com/OpenZeppelin/openzeppelin-contracts/contracts/access/Ownable.sol\":2573:2613  OwnershipTransferred(oldOwner, newOwner) */\n      mload(0x40)\n        /* \"https://github.com/OpenZeppelin/openzeppelin-contracts/contracts/access/Ownable.sol\":2525:2531  _owner */\n      swap2\n      swap1\n      swap3\n      and\n      swap3\n      dup4\n      swap2\n        /* \"https://github.com/OpenZeppelin/openzeppelin-contracts/contracts/access/Ownable.sol\":2573:2613  OwnershipTransferred(oldOwner, newOwner) */\n      0x8be0079c531659141344cd1fd0a4f28419497f9722a3daafe3b4186f6b6457e0\n      swap2\n        /* \"https://github.com/OpenZeppelin/openzeppelin-contracts/contracts/access/Ownable.sol\":2506:2522  address oldOwner */\n      swap1\n        /* \"https://github.com/OpenZeppelin/openzeppelin-contracts/contracts/access/Ownable.sol\":2573:2613  OwnershipTransferred(oldOwner, newOwner) */\n      log3\n        /* \"https://github.com/OpenZeppelin/openzeppelin-contracts/contracts/access/Ownable.sol\":2496:2620  {... */\n      pop\n        /* \"https://github.com/OpenZeppelin/openzeppelin-contracts/contracts/access/Ownable.sol\":2433:2620  function _transferOwnership(address newOwner) internal virtual {... */\n      pop\n      jump\t// out\n    tag_47:\n      mload(0x40)\n      dup1\n      0x20\n      add\n      0x40\n      mstore\n      dup1\n      tag_314\n      tag_315\n      jump\t// in\n    tag_314:\n      swap1\n      mstore\n      swap1\n      jump\t// out\n    tag_82:\n      mload(0x40)\n      dup1\n      0x20\n      add\n      0x40\n      mstore\n      dup1\n      tag_314\n      tag_317\n      jump\t// in\n    tag_315:\n      mload(0x40)\n      dup1\n      0xa0\n      add\n      0x40\n      mstore\n      dup1\n      0x05\n      swap1\n      0x20\n      dup3\n      mul\n      dup1\n      calldatasize\n      dup4\n      calldatacopy\n      pop\n      swap2\n      swap3\n      swap2\n      pop\n      pop\n      jump\t// out\n    tag_317:\n      mload(0x40)\n      dup1\n      0x60\n      add\n      0x40\n      mstore\n      dup1\n      0x03\n      swap1\n    tag_318:\n      tag_319\n      tag_47\n      jump\t// in\n    tag_319:\n      dup2\n      mstore\n      0x20\n      add\n      swap1\n      0x01\n      swap1\n      sub\n      swap1\n      dup2\n      tag_318\n      jumpi\n      swap1\n      pop\n      pop\n      swap1\n      jump\t// out\n        /* \"#utility.yul\":14:842   */\n    tag_14:\n        /* \"#utility.yul\":202:206   */\n      0x00\n        /* \"#utility.yul\":250:252   */\n      0x60\n        /* \"#utility.yul\":239:248   */\n      dup3\n        /* \"#utility.yul\":235:253   */\n      add\n        /* \"#utility.yul\":272:282   */\n      0xffffffff\n        /* \"#utility.yul\":321:323   */\n      dup1\n        /* \"#utility.yul\":313:319   */\n      dup8\n        /* \"#utility.yul\":309:324   */\n      and\n        /* \"#utility.yul\":298:307   */\n      dup5\n        /* \"#utility.yul\":291:325   */\n      mstore\n        /* \"#utility.yul\":344:346   */\n      0x20\n        /* \"#utility.yul\":394:396   */\n      dup2\n        /* \"#utility.yul\":386:392   */\n      dup8\n        /* \"#utility.yul\":382:397   */\n      and\n        /* \"#utility.yul\":377:379   */\n      dup2\n        /* \"#utility.yul\":366:375   */\n      dup7\n        /* \"#utility.yul\":362:380   */\n      add\n        /* \"#utility.yul\":355:398   */\n      mstore\n        /* \"#utility.yul\":434:436   */\n      0x60\n        /* \"#utility.yul\":429:431   */\n      0x40\n        /* \"#utility.yul\":418:427   */\n      dup7\n        /* \"#utility.yul\":414:432   */\n      add\n        /* \"#utility.yul\":407:437   */\n      mstore\n        /* \"#utility.yul\":457:463   */\n      dup3\n        /* \"#utility.yul\":446:463   */\n      swap2\n      pop\n        /* \"#utility.yul\":492:498   */\n      dup6\n        /* \"#utility.yul\":486:499   */\n      mload\n        /* \"#utility.yul\":523:529   */\n      dup1\n        /* \"#utility.yul\":515:521   */\n      dup5\n        /* \"#utility.yul\":508:530   */\n      mstore\n        /* \"#utility.yul\":561:564   */\n      0x80\n        /* \"#utility.yul\":550:559   */\n      dup7\n        /* \"#utility.yul\":546:565   */\n      add\n        /* \"#utility.yul\":539:565   */\n      swap3\n      pop\n        /* \"#utility.yul\":600:602   */\n      dup2\n        /* \"#utility.yul\":592:598   */\n      dup8\n        /* \"#utility.yul\":588:603   */\n      add\n        /* \"#utility.yul\":574:603   */\n      swap4\n      pop\n        /* \"#utility.yul\":621:622   */\n      0x00\n        /* \"#utility.yul\":631:816   */\n    tag_328:\n        /* \"#utility.yul\":645:651   */\n      dup2\n        /* \"#utility.yul\":642:643   */\n      dup2\n        /* \"#utility.yul\":639:652   */\n      lt\n        /* \"#utility.yul\":631:816   */\n      iszero\n      tag_330\n      jumpi\n        /* \"#utility.yul\":720:733   */\n      dup5\n      mload\n        /* \"#utility.yul\":713:734   */\n      iszero\n        /* \"#utility.yul\":706:735   */\n      iszero\n        /* \"#utility.yul\":694:736   */\n      dup5\n      mstore\n        /* \"#utility.yul\":791:806   */\n      swap4\n      dup3\n      add\n      swap4\n        /* \"#utility.yul\":756:768   */\n      swap3\n      dup3\n      add\n      swap3\n        /* \"#utility.yul\":667:668   */\n      0x01\n        /* \"#utility.yul\":660:669   */\n      add\n        /* \"#utility.yul\":631:816   */\n      jump(tag_328)\n    tag_330:\n      pop\n        /* \"#utility.yul\":833:836   */\n      swap2\n      swap9\n        /* \"#utility.yul\":14:842   */\n      swap8\n      pop\n      pop\n      pop\n      pop\n      pop\n      pop\n      pop\n      pop\n      jump\t// out\n        /* \"#utility.yul\":847:2154   */\n    tag_18:\n        /* \"#utility.yul\":1037:1041   */\n      0x00\n        /* \"#utility.yul\":1066:1068   */\n      0x20\n        /* \"#utility.yul\":1106:1108   */\n      dup1\n        /* \"#utility.yul\":1095:1104   */\n      dup4\n        /* \"#utility.yul\":1091:1109   */\n      add\n        /* \"#utility.yul\":1136:1138   */\n      dup2\n        /* \"#utility.yul\":1125:1134   */\n      dup5\n        /* \"#utility.yul\":1118:1139   */\n      mstore\n        /* \"#utility.yul\":1159:1165   */\n      dup1\n        /* \"#utility.yul\":1194:1200   */\n      dup6\n        /* \"#utility.yul\":1188:1201   */\n      mload\n        /* \"#utility.yul\":1225:1231   */\n      dup1\n        /* \"#utility.yul\":1217:1223   */\n      dup4\n        /* \"#utility.yul\":1210:1232   */\n      mstore\n        /* \"#utility.yul\":1263:1265   */\n      0x40\n        /* \"#utility.yul\":1252:1261   */\n      dup7\n        /* \"#utility.yul\":1248:1266   */\n      add\n        /* \"#utility.yul\":1241:1266   */\n      swap2\n      pop\n        /* \"#utility.yul\":1325:1327   */\n      0x40\n        /* \"#utility.yul\":1315:1321   */\n      dup2\n        /* \"#utility.yul\":1312:1313   */\n      0x05\n        /* \"#utility.yul\":1308:1322   */\n      shl\n        /* \"#utility.yul\":1297:1306   */\n      dup8\n        /* \"#utility.yul\":1293:1323   */\n      add\n        /* \"#utility.yul\":1289:1328   */\n      add\n        /* \"#utility.yul\":1275:1328   */\n      swap3\n      pop\n        /* \"#utility.yul\":1363:1365   */\n      dup4\n        /* \"#utility.yul\":1355:1361   */\n      dup8\n        /* \"#utility.yul\":1351:1366   */\n      add\n        /* \"#utility.yul\":1384:1385   */\n      0x00\n        /* \"#utility.yul\":1405:1406   */\n      dup1\n        /* \"#utility.yul\":1415:2125   */\n    tag_332:\n        /* \"#utility.yul\":1431:1437   */\n      dup4\n        /* \"#utility.yul\":1426:1429   */\n      dup2\n        /* \"#utility.yul\":1423:1438   */\n      lt\n        /* \"#utility.yul\":1415:2125   */\n      iszero\n      tag_334\n      jumpi\n        /* \"#utility.yul\":1500:1522   */\n      dup9\n      dup7\n      sub\n      not(0x3f)\n        /* \"#utility.yul\":1496:1532   */\n      add\n        /* \"#utility.yul\":1484:1533   */\n      dup6\n      mstore\n        /* \"#utility.yul\":1556:1569   */\n      dup3\n      mload\n        /* \"#utility.yul\":1630:1639   */\n      dup1\n      mload\n        /* \"#utility.yul\":1652:1676   */\n      dup1\n      dup9\n      mstore\n        /* \"#utility.yul\":1742:1753   */\n      swap1\n      dup9\n      add\n      swap1\n        /* \"#utility.yul\":1698:1713   */\n      dup9\n      dup9\n      add\n      swap1\n        /* \"#utility.yul\":1777:1778   */\n      dup5\n        /* \"#utility.yul\":1791:2017   */\n    tag_335:\n        /* \"#utility.yul\":1807:1815   */\n      dup2\n        /* \"#utility.yul\":1802:1805   */\n      dup2\n        /* \"#utility.yul\":1799:1816   */\n      lt\n        /* \"#utility.yul\":1791:2017   */\n      iszero\n      tag_337\n      jumpi\n        /* \"#utility.yul\":1888:1903   */\n      dup4\n      mload\n        /* \"#utility.yul\":1905:1915   */\n      0xffffffff\n        /* \"#utility.yul\":1884:1916   */\n      and\n        /* \"#utility.yul\":1870:1917   */\n      dup4\n      mstore\n        /* \"#utility.yul\":1986:2003   */\n      swap3\n      dup11\n      add\n      swap3\n        /* \"#utility.yul\":1943:1957   */\n      swap2\n      dup11\n      add\n      swap2\n        /* \"#utility.yul\":1835:1836   */\n      0x01\n        /* \"#utility.yul\":1826:1837   */\n      add\n        /* \"#utility.yul\":1791:2017   */\n      jump(tag_335)\n    tag_337:\n      pop\n        /* \"#utility.yul\":2040:2045   */\n      swap1\n      swap8\n      pop\n      pop\n      pop\n        /* \"#utility.yul\":2103:2115   */\n      swap4\n      dup7\n      add\n      swap4\n        /* \"#utility.yul\":2068:2083   */\n      swap2\n      dup7\n      add\n      swap2\n        /* \"#utility.yul\":1457:1458   */\n      0x01\n        /* \"#utility.yul\":1448:1459   */\n      add\n        /* \"#utility.yul\":1415:2125   */\n      jump(tag_332)\n    tag_334:\n      pop\n        /* \"#utility.yul\":2142:2148   */\n      swap4\n      swap9\n        /* \"#utility.yul\":847:2154   */\n      swap8\n      pop\n      pop\n      pop\n      pop\n      pop\n      pop\n      pop\n      pop\n      jump\t// out\n        /* \"#utility.yul\":2367:2530   */\n    tag_320:\n        /* \"#utility.yul\":2434:2454   */\n      dup1\n      calldataload\n        /* \"#utility.yul\":2494:2504   */\n      0xffffffff\n        /* \"#utility.yul\":2483:2505   */\n      dup2\n      and\n        /* \"#utility.yul\":2473:2506   */\n      dup2\n      eq\n        /* \"#utility.yul\":2463:2524   */\n      tag_340\n      jumpi\n        /* \"#utility.yul\":2520:2521   */\n      0x00\n        /* \"#utility.yul\":2517:2518   */\n      dup1\n        /* \"#utility.yul\":2510:2522   */\n      revert\n        /* \"#utility.yul\":2463:2524   */\n    tag_340:\n        /* \"#utility.yul\":2367:2530   */\n      swap2\n      swap1\n      pop\n      jump\t// out\n        /* \"#utility.yul\":2535:2662   */\n    tag_91:\n        /* \"#utility.yul\":2596:2606   */\n      0x4e487b71\n        /* \"#utility.yul\":2591:2594   */\n      0xe0\n        /* \"#utility.yul\":2587:2607   */\n      shl\n        /* \"#utility.yul\":2584:2585   */\n      0x00\n        /* \"#utility.yul\":2577:2608   */\n      mstore\n        /* \"#utility.yul\":2627:2631   */\n      0x41\n        /* \"#utility.yul\":2624:2625   */\n      0x04\n        /* \"#utility.yul\":2617:2632   */\n      mstore\n        /* \"#utility.yul\":2651:2655   */\n      0x24\n        /* \"#utility.yul\":2648:2649   */\n      0x00\n        /* \"#utility.yul\":2641:2656   */\n      revert\n        /* \"#utility.yul\":2667:2918   */\n    tag_321:\n        /* \"#utility.yul\":2739:2741   */\n      0x40\n        /* \"#utility.yul\":2733:2742   */\n      mload\n        /* \"#utility.yul\":2781:2783   */\n      0x20\n        /* \"#utility.yul\":2769:2784   */\n      dup2\n      add\n        /* \"#utility.yul\":2814:2832   */\n      0xffffffffffffffff\n        /* \"#utility.yul\":2799:2833   */\n      dup2\n      gt\n        /* \"#utility.yul\":2835:2857   */\n      dup3\n      dup3\n      lt\n        /* \"#utility.yul\":2796:2858   */\n      or\n        /* \"#utility.yul\":2793:2881   */\n      iszero\n      tag_344\n      jumpi\n        /* \"#utility.yul\":2861:2879   */\n      tag_344\n      tag_91\n      jump\t// in\n    tag_344:\n        /* \"#utility.yul\":2897:2899   */\n      0x40\n        /* \"#utility.yul\":2890:2912   */\n      mstore\n        /* \"#utility.yul\":2667:2918   */\n      swap1\n      jump\t// out\n        /* \"#utility.yul\":2923:3174   */\n    tag_322:\n        /* \"#utility.yul\":2995:2997   */\n      0x40\n        /* \"#utility.yul\":2989:2998   */\n      mload\n        /* \"#utility.yul\":3037:3039   */\n      0x60\n        /* \"#utility.yul\":3025:3040   */\n      dup2\n      add\n        /* \"#utility.yul\":3070:3088   */\n      0xffffffffffffffff\n        /* \"#utility.yul\":3055:3089   */\n      dup2\n      gt\n        /* \"#utility.yul\":3091:3113   */\n      dup3\n      dup3\n      lt\n        /* \"#utility.yul\":3052:3114   */\n      or\n        /* \"#utility.yul\":3049:3137   */\n      iszero\n      tag_344\n      jumpi\n        /* \"#utility.yul\":3117:3135   */\n      tag_344\n      tag_91\n      jump\t// in\n        /* \"#utility.yul\":3179:3427   */\n    tag_323:\n        /* \"#utility.yul\":3246:3248   */\n      0x40\n        /* \"#utility.yul\":3240:3249   */\n      mload\n        /* \"#utility.yul\":3288:3292   */\n      0xa0\n        /* \"#utility.yul\":3276:3293   */\n      dup2\n      add\n        /* \"#utility.yul\":3323:3341   */\n      0xffffffffffffffff\n        /* \"#utility.yul\":3308:3342   */\n      dup2\n      gt\n        /* \"#utility.yul\":3344:3366   */\n      dup3\n      dup3\n      lt\n        /* \"#utility.yul\":3305:3367   */\n      or\n        /* \"#utility.yul\":3302:3390   */\n      iszero\n      tag_344\n      jumpi\n        /* \"#utility.yul\":3370:3388   */\n      tag_344\n      tag_91\n      jump\t// in\n        /* \"#utility.yul\":3432:5124   */\n    tag_27:\n        /* \"#utility.yul\":3525:3531   */\n      0x00\n        /* \"#utility.yul\":3533:3539   */\n      dup1\n        /* \"#utility.yul\":3577:3586   */\n      dup3\n        /* \"#utility.yul\":3568:3575   */\n      dup5\n        /* \"#utility.yul\":3564:3587   */\n      sub\n        /* \"#utility.yul\":3606:3609   */\n      0x0200\n        /* \"#utility.yul\":3629:3631   */\n      dup1\n        /* \"#utility.yul\":3625:3627   */\n      dup3\n        /* \"#utility.yul\":3621:3632   */\n      slt\n        /* \"#utility.yul\":3618:3649   */\n      iszero\n      tag_352\n      jumpi\n        /* \"#utility.yul\":3645:3646   */\n      0x00\n        /* \"#utility.yul\":3642:3643   */\n      dup1\n        /* \"#utility.yul\":3635:3647   */\n      revert\n        /* \"#utility.yul\":3618:3649   */\n    tag_352:\n        /* \"#utility.yul\":3668:3696   */\n      tag_353\n        /* \"#utility.yul\":3686:3695   */\n      dup6\n        /* \"#utility.yul\":3668:3696   */\n      tag_320\n      jump\t// in\n    tag_353:\n        /* \"#utility.yul\":3658:3696   */\n      swap4\n      pop\n        /* \"#utility.yul\":3715:3717   */\n      0x20\n        /* \"#utility.yul\":3751:3757   */\n      0x01e0\n      not(0x1f)\n        /* \"#utility.yul\":3733:3749   */\n      dup5\n      add\n        /* \"#utility.yul\":3729:3758   */\n      slt\n        /* \"#utility.yul\":3726:3775   */\n      iszero\n      tag_354\n      jumpi\n        /* \"#utility.yul\":3771:3772   */\n      0x00\n        /* \"#utility.yul\":3768:3769   */\n      dup1\n        /* \"#utility.yul\":3761:3773   */\n      revert\n        /* \"#utility.yul\":3726:3775   */\n    tag_354:\n        /* \"#utility.yul\":3797:3819   */\n      tag_355\n      tag_321\n      jump\t// in\n    tag_355:\n        /* \"#utility.yul\":3784:3819   */\n      swap3\n      pop\n        /* \"#utility.yul\":3862:3869   */\n      dup7\n        /* \"#utility.yul\":3857:3859   */\n      0x3f\n        /* \"#utility.yul\":3846:3855   */\n      dup8\n        /* \"#utility.yul\":3842:3860   */\n      add\n        /* \"#utility.yul\":3838:3870   */\n      slt\n        /* \"#utility.yul\":3828:3888   */\n      tag_356\n      jumpi\n        /* \"#utility.yul\":3884:3885   */\n      0x00\n        /* \"#utility.yul\":3881:3882   */\n      dup1\n        /* \"#utility.yul\":3874:3886   */\n      revert\n        /* \"#utility.yul\":3828:3888   */\n    tag_356:\n        /* \"#utility.yul\":3908:3930   */\n      tag_357\n      tag_322\n      jump\t// in\n    tag_357:\n        /* \"#utility.yul\":3978:3996   */\n      swap2\n      dup7\n      add\n      swap2\n        /* \"#utility.yul\":3952:3955   */\n      dup1\n        /* \"#utility.yul\":4008:4027   */\n      dup9\n      dup5\n      gt\n        /* \"#utility.yul\":4005:4044   */\n      iszero\n      tag_358\n      jumpi\n        /* \"#utility.yul\":4040:4041   */\n      0x00\n        /* \"#utility.yul\":4037:4038   */\n      dup1\n        /* \"#utility.yul\":4030:4042   */\n      revert\n        /* \"#utility.yul\":4005:4044   */\n    tag_358:\n        /* \"#utility.yul\":4079:4081   */\n      dup3\n        /* \"#utility.yul\":4068:4077   */\n      dup9\n        /* \"#utility.yul\":4064:4082   */\n      add\n        /* \"#utility.yul\":4091:5065   */\n    tag_359:\n        /* \"#utility.yul\":4107:4113   */\n      dup5\n        /* \"#utility.yul\":4102:4105   */\n      dup2\n        /* \"#utility.yul\":4099:4114   */\n      lt\n        /* \"#utility.yul\":4091:5065   */\n      iszero\n      tag_361\n      jumpi\n        /* \"#utility.yul\":4173:4177   */\n      0xa0\n        /* \"#utility.yul\":4216:4218   */\n      dup1\n        /* \"#utility.yul\":4210:4213   */\n      dup3\n        /* \"#utility.yul\":4201:4208   */\n      dup13\n        /* \"#utility.yul\":4197:4214   */\n      sub\n        /* \"#utility.yul\":4193:4219   */\n      slt\n        /* \"#utility.yul\":4190:4306   */\n      iszero\n      tag_362\n      jumpi\n        /* \"#utility.yul\":4260:4261   */\n      0x00\n        /* \"#utility.yul\":4289:4291   */\n      dup1\n        /* \"#utility.yul\":4285:4287   */\n      dup2\n        /* \"#utility.yul\":4278:4292   */\n      revert\n        /* \"#utility.yul\":4190:4306   */\n    tag_362:\n        /* \"#utility.yul\":4334:4356   */\n      tag_363\n      tag_321\n      jump\t// in\n    tag_363:\n        /* \"#utility.yul\":4399:4406   */\n      dup12\n        /* \"#utility.yul\":4392:4396   */\n      0x1f\n        /* \"#utility.yul\":4387:4390   */\n      dup5\n        /* \"#utility.yul\":4383:4397   */\n      add\n        /* \"#utility.yul\":4379:4407   */\n      slt\n        /* \"#utility.yul\":4369:4495   */\n      tag_364\n      jumpi\n        /* \"#utility.yul\":4449:4450   */\n      0x00\n        /* \"#utility.yul\":4478:4480   */\n      dup1\n        /* \"#utility.yul\":4474:4476   */\n      dup2\n        /* \"#utility.yul\":4467:4481   */\n      revert\n        /* \"#utility.yul\":4369:4495   */\n    tag_364:\n        /* \"#utility.yul\":4521:4538   */\n      tag_365\n      tag_323\n      jump\t// in\n    tag_365:\n        /* \"#utility.yul\":4598:4610   */\n      swap2\n      dup4\n      add\n      swap2\n        /* \"#utility.yul\":4564:4569   */\n      dup1\n        /* \"#utility.yul\":4626:4647   */\n      dup14\n      dup5\n      gt\n        /* \"#utility.yul\":4623:4734   */\n      iszero\n      tag_366\n      jumpi\n        /* \"#utility.yul\":4688:4689   */\n      0x00\n        /* \"#utility.yul\":4717:4719   */\n      dup1\n        /* \"#utility.yul\":4713:4715   */\n      dup2\n        /* \"#utility.yul\":4706:4720   */\n      revert\n        /* \"#utility.yul\":4623:4734   */\n    tag_366:\n        /* \"#utility.yul\":4760:4763   */\n      dup5\n        /* \"#utility.yul\":4776:4955   */\n    tag_367:\n        /* \"#utility.yul\":4794:4802   */\n      dup5\n        /* \"#utility.yul\":4787:4792   */\n      dup2\n        /* \"#utility.yul\":4784:4803   */\n      lt\n        /* \"#utility.yul\":4776:4955   */\n      iszero\n      tag_369\n      jumpi\n        /* \"#utility.yul\":4876:4900   */\n      tag_370\n        /* \"#utility.yul\":4894:4899   */\n      dup2\n        /* \"#utility.yul\":4876:4900   */\n      tag_320\n      jump\t// in\n    tag_370:\n        /* \"#utility.yul\":4862:4901   */\n      dup4\n      mstore\n        /* \"#utility.yul\":4927:4941   */\n      swap2\n      dup9\n      add\n      swap2\n        /* \"#utility.yul\":4815:4829   */\n      dup9\n      add\n        /* \"#utility.yul\":4776:4955   */\n      jump(tag_367)\n    tag_369:\n      pop\n        /* \"#utility.yul\":4968:4990   */\n      dup3\n      mstore\n      pop\n        /* \"#utility.yul\":5003:5023   */\n      dup5\n      mstore\n      pop\n        /* \"#utility.yul\":5043:5055   */\n      swap2\n      dup4\n      add\n      swap2\n        /* \"#utility.yul\":4133:4137   */\n      0xa0\n        /* \"#utility.yul\":4124:4138   */\n      add\n        /* \"#utility.yul\":4091:5065   */\n      jump(tag_359)\n    tag_361:\n      pop\n        /* \"#utility.yul\":5074:5094   */\n      dup5\n      mstore\n      pop\n        /* \"#utility.yul\":3432:5124   */\n      swap4\n      swap7\n        /* \"#utility.yul\":5081:5086   */\n      swap2\n      swap6\n      pop\n        /* \"#utility.yul\":3432:5124   */\n      swap1\n      swap4\n      pop\n      pop\n      pop\n      pop\n      jump\t// out\n        /* \"#utility.yul\":5321:5607   */\n    tag_33:\n        /* \"#utility.yul\":5380:5386   */\n      0x00\n        /* \"#utility.yul\":5433:5435   */\n      0x20\n        /* \"#utility.yul\":5421:5430   */\n      dup3\n        /* \"#utility.yul\":5412:5419   */\n      dup5\n        /* \"#utility.yul\":5408:5431   */\n      sub\n        /* \"#utility.yul\":5404:5436   */\n      slt\n        /* \"#utility.yul\":5401:5453   */\n      iszero\n      tag_373\n      jumpi\n        /* \"#utility.yul\":5449:5450   */\n      0x00\n        /* \"#utility.yul\":5446:5447   */\n      dup1\n        /* \"#utility.yul\":5439:5451   */\n      revert\n        /* \"#utility.yul\":5401:5453   */\n    tag_373:\n        /* \"#utility.yul\":5475:5498   */\n      dup2\n      calldataload\n      sub(shl(0xa0, 0x01), 0x01)\n        /* \"#utility.yul\":5527:5558   */\n      dup2\n      and\n        /* \"#utility.yul\":5517:5559   */\n      dup2\n      eq\n        /* \"#utility.yul\":5507:5577   */\n      tag_374\n      jumpi\n        /* \"#utility.yul\":5573:5574   */\n      0x00\n        /* \"#utility.yul\":5570:5571   */\n      dup1\n        /* \"#utility.yul\":5563:5575   */\n      revert\n        /* \"#utility.yul\":5507:5577   */\n    tag_374:\n        /* \"#utility.yul\":5596:5601   */\n      swap4\n        /* \"#utility.yul\":5321:5607   */\n      swap3\n      pop\n      pop\n      pop\n      jump\t// out\n        /* \"#utility.yul\":5612:5792   */\n    tag_37:\n        /* \"#utility.yul\":5671:5677   */\n      0x00\n        /* \"#utility.yul\":5724:5726   */\n      0x20\n        /* \"#utility.yul\":5712:5721   */\n      dup3\n        /* \"#utility.yul\":5703:5710   */\n      dup5\n        /* \"#utility.yul\":5699:5722   */\n      sub\n        /* \"#utility.yul\":5695:5727   */\n      slt\n        /* \"#utility.yul\":5692:5744   */\n      iszero\n      tag_376\n      jumpi\n        /* \"#utility.yul\":5740:5741   */\n      0x00\n        /* \"#utility.yul\":5737:5738   */\n      dup1\n        /* \"#utility.yul\":5730:5742   */\n      revert\n        /* \"#utility.yul\":5692:5744   */\n    tag_376:\n      pop\n        /* \"#utility.yul\":5763:5786   */\n      calldataload\n      swap2\n        /* \"#utility.yul\":5612:5792   */\n      swap1\n      pop\n      jump\t// out\n        /* \"#utility.yul\":5797:5924   */\n    tag_324:\n        /* \"#utility.yul\":5858:5868   */\n      0x4e487b71\n        /* \"#utility.yul\":5853:5856   */\n      0xe0\n        /* \"#utility.yul\":5849:5869   */\n      shl\n        /* \"#utility.yul\":5846:5847   */\n      0x00\n        /* \"#utility.yul\":5839:5870   */\n      mstore\n        /* \"#utility.yul\":5889:5893   */\n      0x12\n        /* \"#utility.yul\":5886:5887   */\n      0x04\n        /* \"#utility.yul\":5879:5894   */\n      mstore\n        /* \"#utility.yul\":5913:5917   */\n      0x24\n        /* \"#utility.yul\":5910:5911   */\n      0x00\n        /* \"#utility.yul\":5903:5918   */\n      revert\n        /* \"#utility.yul\":5929:6041   */\n    tag_43:\n        /* \"#utility.yul\":5961:5962   */\n      0x00\n        /* \"#utility.yul\":5987:5988   */\n      dup3\n        /* \"#utility.yul\":5977:6012   */\n      tag_380\n      jumpi\n        /* \"#utility.yul\":5992:6010   */\n      tag_380\n      tag_324\n      jump\t// in\n    tag_380:\n      pop\n        /* \"#utility.yul\":6026:6035   */\n      mod\n      swap1\n        /* \"#utility.yul\":5929:6041   */\n      jump\t// out\n        /* \"#utility.yul\":6046:6173   */\n    tag_325:\n        /* \"#utility.yul\":6107:6117   */\n      0x4e487b71\n        /* \"#utility.yul\":6102:6105   */\n      0xe0\n        /* \"#utility.yul\":6098:6118   */\n      shl\n        /* \"#utility.yul\":6095:6096   */\n      0x00\n        /* \"#utility.yul\":6088:6119   */\n      mstore\n        /* \"#utility.yul\":6138:6142   */\n      0x11\n        /* \"#utility.yul\":6135:6136   */\n      0x04\n        /* \"#utility.yul\":6128:6143   */\n      mstore\n        /* \"#utility.yul\":6162:6166   */\n      0x24\n        /* \"#utility.yul\":6159:6160   */\n      0x00\n        /* \"#utility.yul\":6152:6167   */\n      revert\n        /* \"#utility.yul\":6178:6306   */\n    tag_45:\n        /* \"#utility.yul\":6218:6221   */\n      0x00\n        /* \"#utility.yul\":6249:6250   */\n      dup3\n        /* \"#utility.yul\":6245:6251   */\n      not\n        /* \"#utility.yul\":6242:6243   */\n      dup3\n        /* \"#utility.yul\":6239:6252   */\n      gt\n        /* \"#utility.yul\":6236:6275   */\n      iszero\n      tag_384\n      jumpi\n        /* \"#utility.yul\":6255:6273   */\n      tag_384\n      tag_325\n      jump\t// in\n    tag_384:\n      pop\n        /* \"#utility.yul\":6291:6300   */\n      add\n      swap1\n        /* \"#utility.yul\":6178:6306   */\n      jump\t// out\n        /* \"#utility.yul\":6311:6438   */\n    tag_55:\n        /* \"#utility.yul\":6372:6382   */\n      0x4e487b71\n        /* \"#utility.yul\":6367:6370   */\n      0xe0\n        /* \"#utility.yul\":6363:6383   */\n      shl\n        /* \"#utility.yul\":6360:6361   */\n      0x00\n        /* \"#utility.yul\":6353:6384   */\n      mstore\n        /* \"#utility.yul\":6403:6407   */\n      0x32\n        /* \"#utility.yul\":6400:6401   */\n      0x04\n        /* \"#utility.yul\":6393:6408   */\n      mstore\n        /* \"#utility.yul\":6427:6431   */\n      0x24\n        /* \"#utility.yul\":6424:6425   */\n      0x00\n        /* \"#utility.yul\":6417:6432   */\n      revert\n        /* \"#utility.yul\":6443:6626   */\n    tag_61:\n        /* \"#utility.yul\":6474:6475   */\n      0x00\n        /* \"#utility.yul\":6500:6510   */\n      0xffffffff\n        /* \"#utility.yul\":6537:6539   */\n      dup1\n        /* \"#utility.yul\":6534:6535   */\n      dup5\n        /* \"#utility.yul\":6530:6540   */\n      and\n        /* \"#utility.yul\":6559:6562   */\n      dup1\n        /* \"#utility.yul\":6549:6586   */\n      tag_388\n      jumpi\n        /* \"#utility.yul\":6566:6584   */\n      tag_388\n      tag_324\n      jump\t// in\n    tag_388:\n        /* \"#utility.yul\":6604:6614   */\n      swap3\n      and\n        /* \"#utility.yul\":6600:6620   */\n      swap2\n      swap1\n      swap2\n      mod\n      swap3\n        /* \"#utility.yul\":6443:6626   */\n      swap2\n      pop\n      pop\n      jump\t// out\n        /* \"#utility.yul\":6631:6822   */\n    tag_63:\n        /* \"#utility.yul\":6670:6671   */\n      0x00\n        /* \"#utility.yul\":6696:6706   */\n      0xffffffff\n        /* \"#utility.yul\":6733:6735   */\n      dup1\n        /* \"#utility.yul\":6730:6731   */\n      dup5\n        /* \"#utility.yul\":6726:6736   */\n      and\n        /* \"#utility.yul\":6755:6758   */\n      dup1\n        /* \"#utility.yul\":6745:6782   */\n      tag_391\n      jumpi\n        /* \"#utility.yul\":6762:6780   */\n      tag_391\n      tag_324\n      jump\t// in\n    tag_391:\n        /* \"#utility.yul\":6800:6810   */\n      swap3\n      and\n        /* \"#utility.yul\":6796:6816   */\n      swap2\n      swap1\n      swap2\n      div\n      swap3\n        /* \"#utility.yul\":6631:6822   */\n      swap2\n      pop\n      pop\n      jump\t// out\n        /* \"#utility.yul\":6827:7048   */\n    tag_69:\n        /* \"#utility.yul\":6866:6870   */\n      0x00\n        /* \"#utility.yul\":6895:6905   */\n      0xffffffff\n        /* \"#utility.yul\":6955:6965   */\n      dup4\n      dup2\n      and\n      swap1\n        /* \"#utility.yul\":6925:6935   */\n      dup4\n      and\n        /* \"#utility.yul\":6977:6989   */\n      dup2\n      dup2\n      lt\n        /* \"#utility.yul\":6974:7012   */\n      iszero\n      tag_394\n      jumpi\n        /* \"#utility.yul\":6992:7010   */\n      tag_394\n      tag_325\n      jump\t// in\n    tag_394:\n        /* \"#utility.yul\":7029:7042   */\n      sub\n      swap4\n        /* \"#utility.yul\":6827:7048   */\n      swap3\n      pop\n      pop\n      pop\n      jump\t// out\n        /* \"#utility.yul\":7053:7281   */\n    tag_75:\n        /* \"#utility.yul\":7092:7095   */\n      0x00\n        /* \"#utility.yul\":7120:7130   */\n      0xffffffff\n        /* \"#utility.yul\":7157:7159   */\n      dup1\n        /* \"#utility.yul\":7154:7155   */\n      dup4\n        /* \"#utility.yul\":7150:7160   */\n      and\n        /* \"#utility.yul\":7187:7189   */\n      dup2\n        /* \"#utility.yul\":7184:7185   */\n      dup6\n        /* \"#utility.yul\":7180:7190   */\n      and\n        /* \"#utility.yul\":7218:7221   */\n      dup1\n        /* \"#utility.yul\":7214:7216   */\n      dup4\n        /* \"#utility.yul\":7210:7222   */\n      sub\n        /* \"#utility.yul\":7205:7208   */\n      dup3\n        /* \"#utility.yul\":7202:7223   */\n      gt\n        /* \"#utility.yul\":7199:7246   */\n      iszero\n      tag_397\n      jumpi\n        /* \"#utility.yul\":7226:7244   */\n      tag_397\n      tag_325\n      jump\t// in\n    tag_397:\n        /* \"#utility.yul\":7262:7275   */\n      add\n      swap5\n        /* \"#utility.yul\":7053:7281   */\n      swap4\n      pop\n      pop\n      pop\n      pop\n      jump\t// out\n        /* \"#utility.yul\":7286:7487   */\n    tag_80:\n        /* \"#utility.yul\":7324:7327   */\n      0x00\n        /* \"#utility.yul\":7352:7362   */\n      0xffffffff\n        /* \"#utility.yul\":7397:7399   */\n      dup1\n        /* \"#utility.yul\":7390:7395   */\n      dup4\n        /* \"#utility.yul\":7386:7400   */\n      and\n        /* \"#utility.yul\":7424:7426   */\n      dup2\n        /* \"#utility.yul\":7415:7422   */\n      dup2\n        /* \"#utility.yul\":7412:7427   */\n      eq\n        /* \"#utility.yul\":7409:7450   */\n      iszero\n      tag_400\n      jumpi\n        /* \"#utility.yul\":7430:7448   */\n      tag_400\n      tag_325\n      jump\t// in\n    tag_400:\n        /* \"#utility.yul\":7479:7480   */\n      0x01\n        /* \"#utility.yul\":7466:7481   */\n      add\n      swap4\n        /* \"#utility.yul\":7286:7487   */\n      swap3\n      pop\n      pop\n      pop\n      jump\t// out\n\n    auxdata: 0xa2646970667358221220f836a1007157e5c60434127c691d13ce66e8653bd21383c4be1173ccdc0fbf5464736f6c634300080c0033\n}\n",
				"bytecode": {
					"linkReferences": {},
					"object": "6002805463ffffffff19166005908117909155610120604052620186a0608090815261271060a0526103e860c052606460e052600a61010052620000479160049190620007e7565b506040805160a08101825261271081526103e86020820152606491810182905260608101919091526001608082015262000085906005908162000889565b50600060078190556008819055600955348015620000a257600080fd5b50620000ae3362000797565b6040805160a0810182526001808252602082018190529181018290526060810182905260808101829052600680549283018155600052620001039160008051602062001d9283398151915201906005620008e4565b506040805160a0810182526000808252602082018190529181018290526060810182905260808101829052600680546001810182559252620001599160008051602062001d9283398151915201906005620008e4565b506040805160a08101825260028082526020820181905291810182905260608101829052608081019190915260068054600181018255600091909152620001b69160008051602062001d92833981519152909101906005620008e4565b506040805160a081018252600180825260208201819052600092820183905260608201819052600260808301526006805491820181559092526200020e9160008051602062001d9283398151915201906005620008e4565b506040805160a081018252600180825260208201819052600292820192909252606081018290526000608082018190526006805493840181559052620002689160008051602062001d9283398151915201906005620008e4565b506040805160a08101825260018082526000602083018190529282018190526002606083015260808201819052600680549182018155909252620002c09160008051602062001d9283398151915201906005620008e4565b506040805160a08101825260018082526000602083018190529282018190526002606083018190526080830152600680549182018155909252620003189160008051602062001d9283398151915201906005620008e4565b506040805160a08101825260018082526000602083018190529282018390526060820181905260026080830152600680549182018155909252620003709160008051602062001d9283398151915201906005620008e4565b506040805160a081018252600180825260026020830152918101829052600060608201819052608082018390526006805493840181559052620003c79160008051602062001d9283398151915201906005620008e4565b506040805160a081018252600180825260026020830181905292820192909252606081018290526000608082018190526006805493840181559052620004219160008051602062001d9283398151915201906005620008e4565b506040805160a081018252600180825260026020830152918101829052600060608201819052608082018190526006805493840181559052620004789160008051602062001d9283398151915201906005620008e4565b506040805160a081018252600080825260016020830181905260029383019390935260608201839052608082018190526006805493840181559052620004d29160008051602062001d9283398151915201906005620008e4565b506040805160a081018252600080825260016020830181905292820183905260608201839052600260808301526006805493840181559052620005299160008051602062001d9283398151915201906005620008e4565b506040805160a081018252600080825260208201819052600192820183905260026060830181905260808301526006805493840181559052620005809160008051602062001d9283398151915201906005620008e4565b506040805160a081018252600080825260208201819052600192820183905260026060830152608082018390526006805493840181559052620005d79160008051602062001d9283398151915201906005620008e4565b506040805160a081018252600080825260208201819052918101829052600160608201819052600260808301526006805491820181559092526200062f9160008051602062001d9283398151915201906005620008e4565b506040805160a081018252600280825260016020830181905260009383018490526060830181905260808301919091526006805491820181559092526200068a9160008051602062001d9283398151915201906005620008e4565b506040805160a08101825260028152600160208201819052918101829052606081018290526000608082018190526006805493840181559052620006e29160008051602062001d9283398151915201906005620008e4565b506040805160a081018252600280825260208201526001918101829052600060608201819052608082018190526006805493840181559052620007399160008051602062001d9283398151915201906005620008e4565b506040805160a081018252600280825260208201526001918101829052600060608201819052608082018390526006805493840181559052620007909160008051602062001d9283398151915201906005620008e4565b5062000968565b600080546001600160a01b038381166001600160a01b0319831681178455604051919092169283917f8be0079c531659141344cd1fd0a4f28419497f9722a3daafe3b4186f6b6457e09190a35050565b600183019183908215620008775791602002820160005b838211156200084357835183826101000a81548163ffffffff021916908362ffffff1602179055509260200192600401602081600301049283019260010302620007fe565b8015620008755782816101000a81549063ffffffff021916905560040160208160030104928301926001030262000843565b505b506200088592915062000951565b5090565b600183019183908215620008775791602002820160005b838211156200084357835183826101000a81548163ffffffff021916908361ffff1602179055509260200192600401602081600301049283019260010302620008a0565b82805482825590600052602060002090600701600890048101928215620008775791602002820160005b838211156200084357835183826101000a81548163ffffffff021916908360ff16021790555092602001926004016020816003010492830192600103026200090e565b5b8082111562000885576000815560010162000952565b61141a80620009786000396000f3fe608060405234801561001057600080fd5b506004361061007d5760003560e01c80638da5cb5b1161005b5780638da5cb5b146100c1578063ea42ff1f146100dc578063f2fde38b146100ff578063f7e944ee1461011257600080fd5b8063367a917b146100825780634282cf54146100a2578063715018a6146100b7575b600080fd5b61008a610125565b60405161009993929190610fe8565b60405180910390f35b6100aa610832565b604051610099919061104a565b6100bf6108f7565b005b6000546040516001600160a01b039091168152602001610099565b6100ef6100ea366004611178565b61090b565b6040519015158152602001610099565b6100bf61010d366004611276565b610d21565b6100bf6101203660046112a6565b610d9f565b6000806060818061013581610e0d565b90506000610146620186a0836112d5565b61015390620186a06112ff565b905061015d610f72565b610165610f72565b61016d610f72565b60005b60025463ffffffff90811690821610156102ef57600060058263ffffffff166005811061019f5761019f611317565b600891828204019190066004029054906101000a900463ffffffff1660048363ffffffff16600581106101d4576101d4611317565b600891828204019190066004029054906101000a900463ffffffff16876101fb919061132d565b6102059190611350565b90508063ffffffff166009141561021a575060005b8451819063ffffffff84166005811061023557610235611317565b63ffffffff928316602091909102919091015281161561025f5761025a600182611373565b610262565b60085b845163ffffffff84166005811061027b5761027b611317565b602002019063ffffffff16908163ffffffff16815250508063ffffffff166008146102b0576102ab816001611398565b6102b3565b60005b835163ffffffff8416600581106102cc576102cc611317565b63ffffffff909216602092909202015250806102e7816113c0565b915050610170565b506102f8610f8a565b80516020018490528051839052805160400182905260065460009067ffffffffffffffff81111561032b5761032b6110f3565b604051908082528060200260200182016040528015610354578160200160208202803683370190505b5090506000805b60065463ffffffff821610156107e45783516006805463ffffffff841690811061038757610387611317565b906000526020600020016001815481106103a3576103a3611317565b6000918252602090912060088204015460079091166004026101000a900463ffffffff16600381106103d7576103d7611317565b6020020151516001602002015163ffffffff16846000015160068363ffffffff168154811061040857610408611317565b9060005260206000200160008154811061042457610424611317565b6000918252602090912060088204015460079091166004026101000a900463ffffffff166003811061045857610458611317565b6020020151515163ffffffff16148015610568575083516006805463ffffffff841690811061048957610489611317565b906000526020600020016002815481106104a5576104a5611317565b6000918252602090912060088204015460079091166004026101000a900463ffffffff16600381106104d9576104d9611317565b6020020151516040015184516006805463ffffffff93841693851690811061050357610503611317565b9060005260206000200160018154811061051f5761051f611317565b6000918252602090912060088204015460079091166004026101000a900463ffffffff166003811061055357610553611317565b6020020151516001602002015163ffffffff16145b8015610667575083516006805463ffffffff841690811061058b5761058b611317565b906000526020600020016003815481106105a7576105a7611317565b6000918252602090912060088204015460079091166004026101000a900463ffffffff16600381106105db576105db611317565b6020020151516060015184516006805463ffffffff93841693851690811061060557610605611317565b9060005260206000200160028154811061062157610621611317565b6000918252602090912060088204015460079091166004026101000a900463ffffffff166003811061065557610655611317565b6020020151516040015163ffffffff16145b8015610766575083516006805463ffffffff841690811061068a5761068a611317565b906000526020600020016004815481106106a6576106a6611317565b6000918252602090912060088204015460079091166004026101000a900463ffffffff16600381106106da576106da611317565b6020020151516080015184516006805463ffffffff93841693851690811061070457610704611317565b9060005260206000200160038154811061072057610720611317565b6000918252602090912060088204015460079091166004026101000a900463ffffffff166003811061075457610754611317565b6020020151516060015163ffffffff16145b156107a75781610775816113c0565b9250506001838263ffffffff168151811061079257610792611317565b911515602092830291909101909101526107d2565b6000838263ffffffff16815181106107c1576107c1611317565b911515602092830291909101909101525b806107dc816113c0565b91505061035b565b507f036aae38c0461de63e32c1224e436463a66b9ee6560e320860083d7eafb65a7787828460405161081893929190610fe8565b60405180910390a1959b959a509850939650505050505050565b60606006805480602002602001604051908101604052809291908181526020016000905b828210156108ee576000848152602090819020830180546040805182850281018501909152818152928301828280156108da57602002820191906000526020600020906000905b82829054906101000a900463ffffffff1663ffffffff168152602001906004019060208260030104928301926001038202915080841161089d5790505b505050505081526020019060010190610856565b50505050905090565b6108ff610ec8565b6109096000610f22565b565b6000816000015160068463ffffffff168154811061092b5761092b611317565b9060005260206000200160018154811061094757610947611317565b6000918252602090912060088204015460079091166004026101000a900463ffffffff166003811061097b5761097b611317565b6020020151516001602002015163ffffffff16826000015160068563ffffffff16815481106109ac576109ac611317565b906000526020600020016000815481106109c8576109c8611317565b6000918252602090912060088204015460079091166004026101000a900463ffffffff16600381106109fc576109fc611317565b6020020151515163ffffffff16148015610b0c575081516006805463ffffffff8616908110610a2d57610a2d611317565b90600052602060002001600281548110610a4957610a49611317565b6000918252602090912060088204015460079091166004026101000a900463ffffffff1660038110610a7d57610a7d611317565b6020020151516040015182516006805463ffffffff938416938716908110610aa757610aa7611317565b90600052602060002001600181548110610ac357610ac3611317565b6000918252602090912060088204015460079091166004026101000a900463ffffffff1660038110610af757610af7611317565b6020020151516001602002015163ffffffff16145b8015610c0b575081516006805463ffffffff8616908110610b2f57610b2f611317565b90600052602060002001600381548110610b4b57610b4b611317565b6000918252602090912060088204015460079091166004026101000a900463ffffffff1660038110610b7f57610b7f611317565b6020020151516060015182516006805463ffffffff938416938716908110610ba957610ba9611317565b90600052602060002001600281548110610bc557610bc5611317565b6000918252602090912060088204015460079091166004026101000a900463ffffffff1660038110610bf957610bf9611317565b6020020151516040015163ffffffff16145b8015610d0a575081516006805463ffffffff8616908110610c2e57610c2e611317565b90600052602060002001600481548110610c4a57610c4a611317565b6000918252602090912060088204015460079091166004026101000a900463ffffffff1660038110610c7e57610c7e611317565b6020020151516080015182516006805463ffffffff938416938716908110610ca857610ca8611317565b90600052602060002001600381548110610cc457610cc4611317565b6000918252602090912060088204015460079091166004026101000a900463ffffffff1660038110610cf857610cf8611317565b6020020151516060015163ffffffff16145b15610d1757506001610d1b565b5060005b92915050565b610d29610ec8565b6001600160a01b038116610d935760405162461bcd60e51b815260206004820152602660248201527f4f776e61626c653a206e6577206f776e657220697320746865207a65726f206160448201526564647265737360d01b60648201526084015b60405180910390fd5b610d9c81610f22565b50565b610da7610ec8565b60004260075460095460085485610dbd60015490565b6040805160208101979097528601949094526060850192909252608084015260a083015260c082015260e00160408051601f19818403018152919052805160209091012060088054600955555050565b600080428360075460085460095443404144453a335a60015460408051602081019e909e528d019b909b526060808d019a909a5260808c019890985260a08b019690965260c08a01949094526bffffffffffffffffffffffff1992871b831660e08a015260f4890191909152610114880152610134870191909152921b9091166101548401526101688301526101888201526101a80160408051601f1981840301815291905280516020909101206007939093555090919050565b6000546001600160a01b031633146109095760405162461bcd60e51b815260206004820181905260248201527f4f776e61626c653a2063616c6c6572206973206e6f7420746865206f776e65726044820152606401610d8a565b600080546001600160a01b038381166001600160a01b0319831681178455604051919092169283917f8be0079c531659141344cd1fd0a4f28419497f9722a3daafe3b4186f6b6457e09190a35050565b6040518060200160405280610f85610f9d565b905290565b6040518060200160405280610f85610fbb565b6040518060a001604052806005906020820280368337509192915050565b60405180606001604052806003905b610fd2610f72565b815260200190600190039081610fca5790505090565b60006060820163ffffffff8087168452602081871681860152606060408601528291508551808452608086019250818701935060005b8181101561103c57845115158452938201939282019260010161101e565b509198975050505050505050565b6000602080830181845280855180835260408601915060408160051b87010192508387016000805b838110156110cc57888603603f19018552825180518088529088019088880190845b818110156110b657835163ffffffff168352928a0192918a0191600101611094565b5090975050509386019391860191600101611072565b509398975050505050505050565b803563ffffffff811681146110ee57600080fd5b919050565b634e487b7160e01b600052604160045260246000fd5b6040516020810167ffffffffffffffff8111828210171561112c5761112c6110f3565b60405290565b6040516060810167ffffffffffffffff8111828210171561112c5761112c6110f3565b60405160a0810167ffffffffffffffff8111828210171561112c5761112c6110f3565b6000808284036102008082121561118e57600080fd5b611197856110da565b935060206101e0601f19840112156111ae57600080fd5b6111b6611109565b925086603f8701126111c757600080fd5b6111cf611132565b9186019180888411156111e157600080fd5b8288015b848110156112655760a080828c0312156111ff5760008081fd5b611207611109565b8b601f8401126112175760008081fd5b61121f611155565b91830191808d8411156112325760008081fd5b845b8481101561125257611245816110da565b8352918801918801611234565b508252508452509183019160a0016111e5565b508452509396919550909350505050565b60006020828403121561128857600080fd5b81356001600160a01b038116811461129f57600080fd5b9392505050565b6000602082840312156112b857600080fd5b5035919050565b634e487b7160e01b600052601260045260246000fd5b6000826112e4576112e46112bf565b500690565b634e487b7160e01b600052601160045260246000fd5b60008219821115611312576113126112e9565b500190565b634e487b7160e01b600052603260045260246000fd5b600063ffffffff80841680611344576113446112bf565b92169190910692915050565b600063ffffffff80841680611367576113676112bf565b92169190910492915050565b600063ffffffff83811690831681811015611390576113906112e9565b039392505050565b600063ffffffff8083168185168083038211156113b7576113b76112e9565b01949350505050565b600063ffffffff808316818114156113da576113da6112e9565b600101939250505056fea2646970667358221220f836a1007157e5c60434127c691d13ce66e8653bd21383c4be1173ccdc0fbf5464736f6c634300080c0033f652222313e28459528d920b65115c16c04f3efc82aaedc97be59f3f377c0d3f",
					"opcodes": "PUSH1 0x2 DUP1 SLOAD PUSH4 0xFFFFFFFF NOT AND PUSH1 0x5 SWAP1 DUP2 OR SWAP1 SWAP2 SSTORE PUSH2 0x120 PUSH1 0x40 MSTORE PUSH3 0x186A0 PUSH1 0x80 SWAP1 DUP2 MSTORE PUSH2 0x2710 PUSH1 0xA0 MSTORE PUSH2 0x3E8 PUSH1 0xC0 MSTORE PUSH1 0x64 PUSH1 0xE0 MSTORE PUSH1 0xA PUSH2 0x100 MSTORE PUSH3 0x47 SWAP2 PUSH1 0x4 SWAP2 SWAP1 PUSH3 0x7E7 JUMP JUMPDEST POP PUSH1 0x40 DUP1 MLOAD PUSH1 0xA0 DUP2 ADD DUP3 MSTORE PUSH2 0x2710 DUP2 MSTORE PUSH2 0x3E8 PUSH1 0x20 DUP3 ADD MSTORE PUSH1 0x64 SWAP2 DUP2 ADD DUP3 SWAP1 MSTORE PUSH1 0x60 DUP2 ADD SWAP2 SWAP1 SWAP2 MSTORE PUSH1 0x1 PUSH1 0x80 DUP3 ADD MSTORE PUSH3 0x85 SWAP1 PUSH1 0x5 SWAP1 DUP2 PUSH3 0x889 JUMP JUMPDEST POP PUSH1 0x0 PUSH1 0x7 DUP2 SWAP1 SSTORE PUSH1 0x8 DUP2 SWAP1 SSTORE PUSH1 0x9 SSTORE CALLVALUE DUP1 ISZERO PUSH3 0xA2 JUMPI PUSH1 0x0 DUP1 REVERT JUMPDEST POP PUSH3 0xAE CALLER PUSH3 0x797 JUMP JUMPDEST PUSH1 0x40 DUP1 MLOAD PUSH1 0xA0 DUP2 ADD DUP3 MSTORE PUSH1 0x1 DUP1 DUP3 MSTORE PUSH1 0x20 DUP3 ADD DUP2 SWAP1 MSTORE SWAP2 DUP2 ADD DUP3 SWAP1 MSTORE PUSH1 0x60 DUP2 ADD DUP3 SWAP1 MSTORE PUSH1 0x80 DUP2 ADD DUP3 SWAP1 MSTORE PUSH1 0x6 DUP1 SLOAD SWAP3 DUP4 ADD DUP2 SSTORE PUSH1 0x0 MSTORE PUSH3 0x103 SWAP2 PUSH1 0x0 DUP1 MLOAD PUSH1 0x20 PUSH3 0x1D92 DUP4 CODECOPY DUP2 MLOAD SWAP2 MSTORE ADD SWAP1 PUSH1 0x5 PUSH3 0x8E4 JUMP JUMPDEST POP PUSH1 0x40 DUP1 MLOAD PUSH1 0xA0 DUP2 ADD DUP3 MSTORE PUSH1 0x0 DUP1 DUP3 MSTORE PUSH1 0x20 DUP3 ADD DUP2 SWAP1 MSTORE SWAP2 DUP2 ADD DUP3 SWAP1 MSTORE PUSH1 0x60 DUP2 ADD DUP3 SWAP1 MSTORE PUSH1 0x80 DUP2 ADD DUP3 SWAP1 MSTORE PUSH1 0x6 DUP1 SLOAD PUSH1 0x1 DUP2 ADD DUP3 SSTORE SWAP3 MSTORE PUSH3 0x159 SWAP2 PUSH1 0x0 DUP1 MLOAD PUSH1 0x20 PUSH3 0x1D92 DUP4 CODECOPY DUP2 MLOAD SWAP2 MSTORE ADD SWAP1 PUSH1 0x5 PUSH3 0x8E4 JUMP JUMPDEST POP PUSH1 0x40 DUP1 MLOAD PUSH1 0xA0 DUP2 ADD DUP3 MSTORE PUSH1 0x2 DUP1 DUP3 MSTORE PUSH1 0x20 DUP3 ADD DUP2 SWAP1 MSTORE SWAP2 DUP2 ADD DUP3 SWAP1 MSTORE PUSH1 0x60 DUP2 ADD DUP3 SWAP1 MSTORE PUSH1 0x80 DUP2 ADD SWAP2 SWAP1 SWAP2 MSTORE PUSH1 0x6 DUP1 SLOAD PUSH1 0x1 DUP2 ADD DUP3 SSTORE PUSH1 0x0 SWAP2 SWAP1 SWAP2 MSTORE PUSH3 0x1B6 SWAP2 PUSH1 0x0 DUP1 MLOAD PUSH1 0x20 PUSH3 0x1D92 DUP4 CODECOPY DUP2 MLOAD SWAP2 MSTORE SWAP1 SWAP2 ADD SWAP1 PUSH1 0x5 PUSH3 0x8E4 JUMP JUMPDEST POP PUSH1 0x40 DUP1 MLOAD PUSH1 0xA0 DUP2 ADD DUP3 MSTORE PUSH1 0x1 DUP1 DUP3 MSTORE PUSH1 0x20 DUP3 ADD DUP2 SWAP1 MSTORE PUSH1 0x0 SWAP3 DUP3 ADD DUP4 SWAP1 MSTORE PUSH1 0x60 DUP3 ADD DUP2 SWAP1 MSTORE PUSH1 0x2 PUSH1 0x80 DUP4 ADD MSTORE PUSH1 0x6 DUP1 SLOAD SWAP2 DUP3 ADD DUP2 SSTORE SWAP1 SWAP3 MSTORE PUSH3 0x20E SWAP2 PUSH1 0x0 DUP1 MLOAD PUSH1 0x20 PUSH3 0x1D92 DUP4 CODECOPY DUP2 MLOAD SWAP2 MSTORE ADD SWAP1 PUSH1 0x5 PUSH3 0x8E4 JUMP JUMPDEST POP PUSH1 0x40 DUP1 MLOAD PUSH1 0xA0 DUP2 ADD DUP3 MSTORE PUSH1 0x1 DUP1 DUP3 MSTORE PUSH1 0x20 DUP3 ADD DUP2 SWAP1 MSTORE PUSH1 0x2 SWAP3 DUP3 ADD SWAP3 SWAP1 SWAP3 MSTORE PUSH1 0x60 DUP2 ADD DUP3 SWAP1 MSTORE PUSH1 0x0 PUSH1 0x80 DUP3 ADD DUP2 SWAP1 MSTORE PUSH1 0x6 DUP1 SLOAD SWAP4 DUP5 ADD DUP2 SSTORE SWAP1 MSTORE PUSH3 0x268 SWAP2 PUSH1 0x0 DUP1 MLOAD PUSH1 0x20 PUSH3 0x1D92 DUP4 CODECOPY DUP2 MLOAD SWAP2 MSTORE ADD SWAP1 PUSH1 0x5 PUSH3 0x8E4 JUMP JUMPDEST POP PUSH1 0x40 DUP1 MLOAD PUSH1 0xA0 DUP2 ADD DUP3 MSTORE PUSH1 0x1 DUP1 DUP3 MSTORE PUSH1 0x0 PUSH1 0x20 DUP4 ADD DUP2 SWAP1 MSTORE SWAP3 DUP3 ADD DUP2 SWAP1 MSTORE PUSH1 0x2 PUSH1 0x60 DUP4 ADD MSTORE PUSH1 0x80 DUP3 ADD DUP2 SWAP1 MSTORE PUSH1 0x6 DUP1 SLOAD SWAP2 DUP3 ADD DUP2 SSTORE SWAP1 SWAP3 MSTORE PUSH3 0x2C0 SWAP2 PUSH1 0x0 DUP1 MLOAD PUSH1 0x20 PUSH3 0x1D92 DUP4 CODECOPY DUP2 MLOAD SWAP2 MSTORE ADD SWAP1 PUSH1 0x5 PUSH3 0x8E4 JUMP JUMPDEST POP PUSH1 0x40 DUP1 MLOAD PUSH1 0xA0 DUP2 ADD DUP3 MSTORE PUSH1 0x1 DUP1 DUP3 MSTORE PUSH1 0x0 PUSH1 0x20 DUP4 ADD DUP2 SWAP1 MSTORE SWAP3 DUP3 ADD DUP2 SWAP1 MSTORE PUSH1 0x2 PUSH1 0x60 DUP4 ADD DUP2 SWAP1 MSTORE PUSH1 0x80 DUP4 ADD MSTORE PUSH1 0x6 DUP1 SLOAD SWAP2 DUP3 ADD DUP2 SSTORE SWAP1 SWAP3 MSTORE PUSH3 0x318 SWAP2 PUSH1 0x0 DUP1 MLOAD PUSH1 0x20 PUSH3 0x1D92 DUP4 CODECOPY DUP2 MLOAD SWAP2 MSTORE ADD SWAP1 PUSH1 0x5 PUSH3 0x8E4 JUMP JUMPDEST POP PUSH1 0x40 DUP1 MLOAD PUSH1 0xA0 DUP2 ADD DUP3 MSTORE PUSH1 0x1 DUP1 DUP3 MSTORE PUSH1 0x0 PUSH1 0x20 DUP4 ADD DUP2 SWAP1 MSTORE SWAP3 DUP3 ADD DUP4 SWAP1 MSTORE PUSH1 0x60 DUP3 ADD DUP2 SWAP1 MSTORE PUSH1 0x2 PUSH1 0x80 DUP4 ADD MSTORE PUSH1 0x6 DUP1 SLOAD SWAP2 DUP3 ADD DUP2 SSTORE SWAP1 SWAP3 MSTORE PUSH3 0x370 SWAP2 PUSH1 0x0 DUP1 MLOAD PUSH1 0x20 PUSH3 0x1D92 DUP4 CODECOPY DUP2 MLOAD SWAP2 MSTORE ADD SWAP1 PUSH1 0x5 PUSH3 0x8E4 JUMP JUMPDEST POP PUSH1 0x40 DUP1 MLOAD PUSH1 0xA0 DUP2 ADD DUP3 MSTORE PUSH1 0x1 DUP1 DUP3 MSTORE PUSH1 0x2 PUSH1 0x20 DUP4 ADD MSTORE SWAP2 DUP2 ADD DUP3 SWAP1 MSTORE PUSH1 0x0 PUSH1 0x60 DUP3 ADD DUP2 SWAP1 MSTORE PUSH1 0x80 DUP3 ADD DUP4 SWAP1 MSTORE PUSH1 0x6 DUP1 SLOAD SWAP4 DUP5 ADD DUP2 SSTORE SWAP1 MSTORE PUSH3 0x3C7 SWAP2 PUSH1 0x0 DUP1 MLOAD PUSH1 0x20 PUSH3 0x1D92 DUP4 CODECOPY DUP2 MLOAD SWAP2 MSTORE ADD SWAP1 PUSH1 0x5 PUSH3 0x8E4 JUMP JUMPDEST POP PUSH1 0x40 DUP1 MLOAD PUSH1 0xA0 DUP2 ADD DUP3 MSTORE PUSH1 0x1 DUP1 DUP3 MSTORE PUSH1 0x2 PUSH1 0x20 DUP4 ADD DUP2 SWAP1 MSTORE SWAP3 DUP3 ADD SWAP3 SWAP1 SWAP3 MSTORE PUSH1 0x60 DUP2 ADD DUP3 SWAP1 MSTORE PUSH1 0x0 PUSH1 0x80 DUP3 ADD DUP2 SWAP1 MSTORE PUSH1 0x6 DUP1 SLOAD SWAP4 DUP5 ADD DUP2 SSTORE SWAP1 MSTORE PUSH3 0x421 SWAP2 PUSH1 0x0 DUP1 MLOAD PUSH1 0x20 PUSH3 0x1D92 DUP4 CODECOPY DUP2 MLOAD SWAP2 MSTORE ADD SWAP1 PUSH1 0x5 PUSH3 0x8E4 JUMP JUMPDEST POP PUSH1 0x40 DUP1 MLOAD PUSH1 0xA0 DUP2 ADD DUP3 MSTORE PUSH1 0x1 DUP1 DUP3 MSTORE PUSH1 0x2 PUSH1 0x20 DUP4 ADD MSTORE SWAP2 DUP2 ADD DUP3 SWAP1 MSTORE PUSH1 0x0 PUSH1 0x60 DUP3 ADD DUP2 SWAP1 MSTORE PUSH1 0x80 DUP3 ADD DUP2 SWAP1 MSTORE PUSH1 0x6 DUP1 SLOAD SWAP4 DUP5 ADD DUP2 SSTORE SWAP1 MSTORE PUSH3 0x478 SWAP2 PUSH1 0x0 DUP1 MLOAD PUSH1 0x20 PUSH3 0x1D92 DUP4 CODECOPY DUP2 MLOAD SWAP2 MSTORE ADD SWAP1 PUSH1 0x5 PUSH3 0x8E4 JUMP JUMPDEST POP PUSH1 0x40 DUP1 MLOAD PUSH1 0xA0 DUP2 ADD DUP3 MSTORE PUSH1 0x0 DUP1 DUP3 MSTORE PUSH1 0x1 PUSH1 0x20 DUP4 ADD DUP2 SWAP1 MSTORE PUSH1 0x2 SWAP4 DUP4 ADD SWAP4 SWAP1 SWAP4 MSTORE PUSH1 0x60 DUP3 ADD DUP4 SWAP1 MSTORE PUSH1 0x80 DUP3 ADD DUP2 SWAP1 MSTORE PUSH1 0x6 DUP1 SLOAD SWAP4 DUP5 ADD DUP2 SSTORE SWAP1 MSTORE PUSH3 0x4D2 SWAP2 PUSH1 0x0 DUP1 MLOAD PUSH1 0x20 PUSH3 0x1D92 DUP4 CODECOPY DUP2 MLOAD SWAP2 MSTORE ADD SWAP1 PUSH1 0x5 PUSH3 0x8E4 JUMP JUMPDEST POP PUSH1 0x40 DUP1 MLOAD PUSH1 0xA0 DUP2 ADD DUP3 MSTORE PUSH1 0x0 DUP1 DUP3 MSTORE PUSH1 0x1 PUSH1 0x20 DUP4 ADD DUP2 SWAP1 MSTORE SWAP3 DUP3 ADD DUP4 SWAP1 MSTORE PUSH1 0x60 DUP3 ADD DUP4 SWAP1 MSTORE PUSH1 0x2 PUSH1 0x80 DUP4 ADD MSTORE PUSH1 0x6 DUP1 SLOAD SWAP4 DUP5 ADD DUP2 SSTORE SWAP1 MSTORE PUSH3 0x529 SWAP2 PUSH1 0x0 DUP1 MLOAD PUSH1 0x20 PUSH3 0x1D92 DUP4 CODECOPY DUP2 MLOAD SWAP2 MSTORE ADD SWAP1 PUSH1 0x5 PUSH3 0x8E4 JUMP JUMPDEST POP PUSH1 0x40 DUP1 MLOAD PUSH1 0xA0 DUP2 ADD DUP3 MSTORE PUSH1 0x0 DUP1 DUP3 MSTORE PUSH1 0x20 DUP3 ADD DUP2 SWAP1 MSTORE PUSH1 0x1 SWAP3 DUP3 ADD DUP4 SWAP1 MSTORE PUSH1 0x2 PUSH1 0x60 DUP4 ADD DUP2 SWAP1 MSTORE PUSH1 0x80 DUP4 ADD MSTORE PUSH1 0x6 DUP1 SLOAD SWAP4 DUP5 ADD DUP2 SSTORE SWAP1 MSTORE PUSH3 0x580 SWAP2 PUSH1 0x0 DUP1 MLOAD PUSH1 0x20 PUSH3 0x1D92 DUP4 CODECOPY DUP2 MLOAD SWAP2 MSTORE ADD SWAP1 PUSH1 0x5 PUSH3 0x8E4 JUMP JUMPDEST POP PUSH1 0x40 DUP1 MLOAD PUSH1 0xA0 DUP2 ADD DUP3 MSTORE PUSH1 0x0 DUP1 DUP3 MSTORE PUSH1 0x20 DUP3 ADD DUP2 SWAP1 MSTORE PUSH1 0x1 SWAP3 DUP3 ADD DUP4 SWAP1 MSTORE PUSH1 0x2 PUSH1 0x60 DUP4 ADD MSTORE PUSH1 0x80 DUP3 ADD DUP4 SWAP1 MSTORE PUSH1 0x6 DUP1 SLOAD SWAP4 DUP5 ADD DUP2 SSTORE SWAP1 MSTORE PUSH3 0x5D7 SWAP2 PUSH1 0x0 DUP1 MLOAD PUSH1 0x20 PUSH3 0x1D92 DUP4 CODECOPY DUP2 MLOAD SWAP2 MSTORE ADD SWAP1 PUSH1 0x5 PUSH3 0x8E4 JUMP JUMPDEST POP PUSH1 0x40 DUP1 MLOAD PUSH1 0xA0 DUP2 ADD DUP3 MSTORE PUSH1 0x0 DUP1 DUP3 MSTORE PUSH1 0x20 DUP3 ADD DUP2 SWAP1 MSTORE SWAP2 DUP2 ADD DUP3 SWAP1 MSTORE PUSH1 0x1 PUSH1 0x60 DUP3 ADD DUP2 SWAP1 MSTORE PUSH1 0x2 PUSH1 0x80 DUP4 ADD MSTORE PUSH1 0x6 DUP1 SLOAD SWAP2 DUP3 ADD DUP2 SSTORE SWAP1 SWAP3 MSTORE PUSH3 0x62F SWAP2 PUSH1 0x0 DUP1 MLOAD PUSH1 0x20 PUSH3 0x1D92 DUP4 CODECOPY DUP2 MLOAD SWAP2 MSTORE ADD SWAP1 PUSH1 0x5 PUSH3 0x8E4 JUMP JUMPDEST POP PUSH1 0x40 DUP1 MLOAD PUSH1 0xA0 DUP2 ADD DUP3 MSTORE PUSH1 0x2 DUP1 DUP3 MSTORE PUSH1 0x1 PUSH1 0x20 DUP4 ADD DUP2 SWAP1 MSTORE PUSH1 0x0 SWAP4 DUP4 ADD DUP5 SWAP1 MSTORE PUSH1 0x60 DUP4 ADD DUP2 SWAP1 MSTORE PUSH1 0x80 DUP4 ADD SWAP2 SWAP1 SWAP2 MSTORE PUSH1 0x6 DUP1 SLOAD SWAP2 DUP3 ADD DUP2 SSTORE SWAP1 SWAP3 MSTORE PUSH3 0x68A SWAP2 PUSH1 0x0 DUP1 MLOAD PUSH1 0x20 PUSH3 0x1D92 DUP4 CODECOPY DUP2 MLOAD SWAP2 MSTORE ADD SWAP1 PUSH1 0x5 PUSH3 0x8E4 JUMP JUMPDEST POP PUSH1 0x40 DUP1 MLOAD PUSH1 0xA0 DUP2 ADD DUP3 MSTORE PUSH1 0x2 DUP2 MSTORE PUSH1 0x1 PUSH1 0x20 DUP3 ADD DUP2 SWAP1 MSTORE SWAP2 DUP2 ADD DUP3 SWAP1 MSTORE PUSH1 0x60 DUP2 ADD DUP3 SWAP1 MSTORE PUSH1 0x0 PUSH1 0x80 DUP3 ADD DUP2 SWAP1 MSTORE PUSH1 0x6 DUP1 SLOAD SWAP4 DUP5 ADD DUP2 SSTORE SWAP1 MSTORE PUSH3 0x6E2 SWAP2 PUSH1 0x0 DUP1 MLOAD PUSH1 0x20 PUSH3 0x1D92 DUP4 CODECOPY DUP2 MLOAD SWAP2 MSTORE ADD SWAP1 PUSH1 0x5 PUSH3 0x8E4 JUMP JUMPDEST POP PUSH1 0x40 DUP1 MLOAD PUSH1 0xA0 DUP2 ADD DUP3 MSTORE PUSH1 0x2 DUP1 DUP3 MSTORE PUSH1 0x20 DUP3 ADD MSTORE PUSH1 0x1 SWAP2 DUP2 ADD DUP3 SWAP1 MSTORE PUSH1 0x0 PUSH1 0x60 DUP3 ADD DUP2 SWAP1 MSTORE PUSH1 0x80 DUP3 ADD DUP2 SWAP1 MSTORE PUSH1 0x6 DUP1 SLOAD SWAP4 DUP5 ADD DUP2 SSTORE SWAP1 MSTORE PUSH3 0x739 SWAP2 PUSH1 0x0 DUP1 MLOAD PUSH1 0x20 PUSH3 0x1D92 DUP4 CODECOPY DUP2 MLOAD SWAP2 MSTORE ADD SWAP1 PUSH1 0x5 PUSH3 0x8E4 JUMP JUMPDEST POP PUSH1 0x40 DUP1 MLOAD PUSH1 0xA0 DUP2 ADD DUP3 MSTORE PUSH1 0x2 DUP1 DUP3 MSTORE PUSH1 0x20 DUP3 ADD MSTORE PUSH1 0x1 SWAP2 DUP2 ADD DUP3 SWAP1 MSTORE PUSH1 0x0 PUSH1 0x60 DUP3 ADD DUP2 SWAP1 MSTORE PUSH1 0x80 DUP3 ADD DUP4 SWAP1 MSTORE PUSH1 0x6 DUP1 SLOAD SWAP4 DUP5 ADD DUP2 SSTORE SWAP1 MSTORE PUSH3 0x790 SWAP2 PUSH1 0x0 DUP1 MLOAD PUSH1 0x20 PUSH3 0x1D92 DUP4 CODECOPY DUP2 MLOAD SWAP2 MSTORE ADD SWAP1 PUSH1 0x5 PUSH3 0x8E4 JUMP JUMPDEST POP PUSH3 0x968 JUMP JUMPDEST PUSH1 0x0 DUP1 SLOAD PUSH1 0x1 PUSH1 0x1 PUSH1 0xA0 SHL SUB DUP4 DUP2 AND PUSH1 0x1 PUSH1 0x1 PUSH1 0xA0 SHL SUB NOT DUP4 AND DUP2 OR DUP5 SSTORE PUSH1 0x40 MLOAD SWAP2 SWAP1 SWAP3 AND SWAP3 DUP4 SWAP2 PUSH32 0x8BE0079C531659141344CD1FD0A4F28419497F9722A3DAAFE3B4186F6B6457E0 SWAP2 SWAP1 LOG3 POP POP JUMP JUMPDEST PUSH1 0x1 DUP4 ADD SWAP2 DUP4 SWAP1 DUP3 ISZERO PUSH3 0x877 JUMPI SWAP2 PUSH1 0x20 MUL DUP3 ADD PUSH1 0x0 JUMPDEST DUP4 DUP3 GT ISZERO PUSH3 0x843 JUMPI DUP4 MLOAD DUP4 DUP3 PUSH2 0x100 EXP DUP2 SLOAD DUP2 PUSH4 0xFFFFFFFF MUL NOT AND SWAP1 DUP4 PUSH3 0xFFFFFF AND MUL OR SWAP1 SSTORE POP SWAP3 PUSH1 0x20 ADD SWAP3 PUSH1 0x4 ADD PUSH1 0x20 DUP2 PUSH1 0x3 ADD DIV SWAP3 DUP4 ADD SWAP3 PUSH1 0x1 SUB MUL PUSH3 0x7FE JUMP JUMPDEST DUP1 ISZERO PUSH3 0x875 JUMPI DUP3 DUP2 PUSH2 0x100 EXP DUP2 SLOAD SWAP1 PUSH4 0xFFFFFFFF MUL NOT AND SWAP1 SSTORE PUSH1 0x4 ADD PUSH1 0x20 DUP2 PUSH1 0x3 ADD DIV SWAP3 DUP4 ADD SWAP3 PUSH1 0x1 SUB MUL PUSH3 0x843 JUMP JUMPDEST POP JUMPDEST POP PUSH3 0x885 SWAP3 SWAP2 POP PUSH3 0x951 JUMP JUMPDEST POP SWAP1 JUMP JUMPDEST PUSH1 0x1 DUP4 ADD SWAP2 DUP4 SWAP1 DUP3 ISZERO PUSH3 0x877 JUMPI SWAP2 PUSH1 0x20 MUL DUP3 ADD PUSH1 0x0 JUMPDEST DUP4 DUP3 GT ISZERO PUSH3 0x843 JUMPI DUP4 MLOAD DUP4 DUP3 PUSH2 0x100 EXP DUP2 SLOAD DUP2 PUSH4 0xFFFFFFFF MUL NOT AND SWAP1 DUP4 PUSH2 0xFFFF AND MUL OR SWAP1 SSTORE POP SWAP3 PUSH1 0x20 ADD SWAP3 PUSH1 0x4 ADD PUSH1 0x20 DUP2 PUSH1 0x3 ADD DIV SWAP3 DUP4 ADD SWAP3 PUSH1 0x1 SUB MUL PUSH3 0x8A0 JUMP JUMPDEST DUP3 DUP1 SLOAD DUP3 DUP3 SSTORE SWAP1 PUSH1 0x0 MSTORE PUSH1 0x20 PUSH1 0x0 KECCAK256 SWAP1 PUSH1 0x7 ADD PUSH1 0x8 SWAP1 DIV DUP2 ADD SWAP3 DUP3 ISZERO PUSH3 0x877 JUMPI SWAP2 PUSH1 0x20 MUL DUP3 ADD PUSH1 0x0 JUMPDEST DUP4 DUP3 GT ISZERO PUSH3 0x843 JUMPI DUP4 MLOAD DUP4 DUP3 PUSH2 0x100 EXP DUP2 SLOAD DUP2 PUSH4 0xFFFFFFFF MUL NOT AND SWAP1 DUP4 PUSH1 0xFF AND MUL OR SWAP1 SSTORE POP SWAP3 PUSH1 0x20 ADD SWAP3 PUSH1 0x4 ADD PUSH1 0x20 DUP2 PUSH1 0x3 ADD DIV SWAP3 DUP4 ADD SWAP3 PUSH1 0x1 SUB MUL PUSH3 0x90E JUMP JUMPDEST JUMPDEST DUP1 DUP3 GT ISZERO PUSH3 0x885 JUMPI PUSH1 0x0 DUP2 SSTORE PUSH1 0x1 ADD PUSH3 0x952 JUMP JUMPDEST PUSH2 0x141A DUP1 PUSH3 0x978 PUSH1 0x0 CODECOPY PUSH1 0x0 RETURN INVALID PUSH1 0x80 PUSH1 0x40 MSTORE CALLVALUE DUP1 ISZERO PUSH2 0x10 JUMPI PUSH1 0x0 DUP1 REVERT JUMPDEST POP PUSH1 0x4 CALLDATASIZE LT PUSH2 0x7D JUMPI PUSH1 0x0 CALLDATALOAD PUSH1 0xE0 SHR DUP1 PUSH4 0x8DA5CB5B GT PUSH2 0x5B JUMPI DUP1 PUSH4 0x8DA5CB5B EQ PUSH2 0xC1 JUMPI DUP1 PUSH4 0xEA42FF1F EQ PUSH2 0xDC JUMPI DUP1 PUSH4 0xF2FDE38B EQ PUSH2 0xFF JUMPI DUP1 PUSH4 0xF7E944EE EQ PUSH2 0x112 JUMPI PUSH1 0x0 DUP1 REVERT JUMPDEST DUP1 PUSH4 0x367A917B EQ PUSH2 0x82 JUMPI DUP1 PUSH4 0x4282CF54 EQ PUSH2 0xA2 JUMPI DUP1 PUSH4 0x715018A6 EQ PUSH2 0xB7 JUMPI JUMPDEST PUSH1 0x0 DUP1 REVERT JUMPDEST PUSH2 0x8A PUSH2 0x125 JUMP JUMPDEST PUSH1 0x40 MLOAD PUSH2 0x99 SWAP4 SWAP3 SWAP2 SWAP1 PUSH2 0xFE8 JUMP JUMPDEST PUSH1 0x40 MLOAD DUP1 SWAP2 SUB SWAP1 RETURN JUMPDEST PUSH2 0xAA PUSH2 0x832 JUMP JUMPDEST PUSH1 0x40 MLOAD PUSH2 0x99 SWAP2 SWAP1 PUSH2 0x104A JUMP JUMPDEST PUSH2 0xBF PUSH2 0x8F7 JUMP JUMPDEST STOP JUMPDEST PUSH1 0x0 SLOAD PUSH1 0x40 MLOAD PUSH1 0x1 PUSH1 0x1 PUSH1 0xA0 SHL SUB SWAP1 SWAP2 AND DUP2 MSTORE PUSH1 0x20 ADD PUSH2 0x99 JUMP JUMPDEST PUSH2 0xEF PUSH2 0xEA CALLDATASIZE PUSH1 0x4 PUSH2 0x1178 JUMP JUMPDEST PUSH2 0x90B JUMP JUMPDEST PUSH1 0x40 MLOAD SWAP1 ISZERO ISZERO DUP2 MSTORE PUSH1 0x20 ADD PUSH2 0x99 JUMP JUMPDEST PUSH2 0xBF PUSH2 0x10D CALLDATASIZE PUSH1 0x4 PUSH2 0x1276 JUMP JUMPDEST PUSH2 0xD21 JUMP JUMPDEST PUSH2 0xBF PUSH2 0x120 CALLDATASIZE PUSH1 0x4 PUSH2 0x12A6 JUMP JUMPDEST PUSH2 0xD9F JUMP JUMPDEST PUSH1 0x0 DUP1 PUSH1 0x60 DUP2 DUP1 PUSH2 0x135 DUP2 PUSH2 0xE0D JUMP JUMPDEST SWAP1 POP PUSH1 0x0 PUSH2 0x146 PUSH3 0x186A0 DUP4 PUSH2 0x12D5 JUMP JUMPDEST PUSH2 0x153 SWAP1 PUSH3 0x186A0 PUSH2 0x12FF JUMP JUMPDEST SWAP1 POP PUSH2 0x15D PUSH2 0xF72 JUMP JUMPDEST PUSH2 0x165 PUSH2 0xF72 JUMP JUMPDEST PUSH2 0x16D PUSH2 0xF72 JUMP JUMPDEST PUSH1 0x0 JUMPDEST PUSH1 0x2 SLOAD PUSH4 0xFFFFFFFF SWAP1 DUP2 AND SWAP1 DUP3 AND LT ISZERO PUSH2 0x2EF JUMPI PUSH1 0x0 PUSH1 0x5 DUP3 PUSH4 0xFFFFFFFF AND PUSH1 0x5 DUP2 LT PUSH2 0x19F JUMPI PUSH2 0x19F PUSH2 0x1317 JUMP JUMPDEST PUSH1 0x8 SWAP2 DUP3 DUP3 DIV ADD SWAP2 SWAP1 MOD PUSH1 0x4 MUL SWAP1 SLOAD SWAP1 PUSH2 0x100 EXP SWAP1 DIV PUSH4 0xFFFFFFFF AND PUSH1 0x4 DUP4 PUSH4 0xFFFFFFFF AND PUSH1 0x5 DUP2 LT PUSH2 0x1D4 JUMPI PUSH2 0x1D4 PUSH2 0x1317 JUMP JUMPDEST PUSH1 0x8 SWAP2 DUP3 DUP3 DIV ADD SWAP2 SWAP1 MOD PUSH1 0x4 MUL SWAP1 SLOAD SWAP1 PUSH2 0x100 EXP SWAP1 DIV PUSH4 0xFFFFFFFF AND DUP8 PUSH2 0x1FB SWAP2 SWAP1 PUSH2 0x132D JUMP JUMPDEST PUSH2 0x205 SWAP2 SWAP1 PUSH2 0x1350 JUMP JUMPDEST SWAP1 POP DUP1 PUSH4 0xFFFFFFFF AND PUSH1 0x9 EQ ISZERO PUSH2 0x21A JUMPI POP PUSH1 0x0 JUMPDEST DUP5 MLOAD DUP2 SWAP1 PUSH4 0xFFFFFFFF DUP5 AND PUSH1 0x5 DUP2 LT PUSH2 0x235 JUMPI PUSH2 0x235 PUSH2 0x1317 JUMP JUMPDEST PUSH4 0xFFFFFFFF SWAP3 DUP4 AND PUSH1 0x20 SWAP2 SWAP1 SWAP2 MUL SWAP2 SWAP1 SWAP2 ADD MSTORE DUP2 AND ISZERO PUSH2 0x25F JUMPI PUSH2 0x25A PUSH1 0x1 DUP3 PUSH2 0x1373 JUMP JUMPDEST PUSH2 0x262 JUMP JUMPDEST PUSH1 0x8 JUMPDEST DUP5 MLOAD PUSH4 0xFFFFFFFF DUP5 AND PUSH1 0x5 DUP2 LT PUSH2 0x27B JUMPI PUSH2 0x27B PUSH2 0x1317 JUMP JUMPDEST PUSH1 0x20 MUL ADD SWAP1 PUSH4 0xFFFFFFFF AND SWAP1 DUP2 PUSH4 0xFFFFFFFF AND DUP2 MSTORE POP POP DUP1 PUSH4 0xFFFFFFFF AND PUSH1 0x8 EQ PUSH2 0x2B0 JUMPI PUSH2 0x2AB DUP2 PUSH1 0x1 PUSH2 0x1398 JUMP JUMPDEST PUSH2 0x2B3 JUMP JUMPDEST PUSH1 0x0 JUMPDEST DUP4 MLOAD PUSH4 0xFFFFFFFF DUP5 AND PUSH1 0x5 DUP2 LT PUSH2 0x2CC JUMPI PUSH2 0x2CC PUSH2 0x1317 JUMP JUMPDEST PUSH4 0xFFFFFFFF SWAP1 SWAP3 AND PUSH1 0x20 SWAP3 SWAP1 SWAP3 MUL ADD MSTORE POP DUP1 PUSH2 0x2E7 DUP2 PUSH2 0x13C0 JUMP JUMPDEST SWAP2 POP POP PUSH2 0x170 JUMP JUMPDEST POP PUSH2 0x2F8 PUSH2 0xF8A JUMP JUMPDEST DUP1 MLOAD PUSH1 0x20 ADD DUP5 SWAP1 MSTORE DUP1 MLOAD DUP4 SWAP1 MSTORE DUP1 MLOAD PUSH1 0x40 ADD DUP3 SWAP1 MSTORE PUSH1 0x6 SLOAD PUSH1 0x0 SWAP1 PUSH8 0xFFFFFFFFFFFFFFFF DUP2 GT ISZERO PUSH2 0x32B JUMPI PUSH2 0x32B PUSH2 0x10F3 JUMP JUMPDEST PUSH1 0x40 MLOAD SWAP1 DUP1 DUP3 MSTORE DUP1 PUSH1 0x20 MUL PUSH1 0x20 ADD DUP3 ADD PUSH1 0x40 MSTORE DUP1 ISZERO PUSH2 0x354 JUMPI DUP2 PUSH1 0x20 ADD PUSH1 0x20 DUP3 MUL DUP1 CALLDATASIZE DUP4 CALLDATACOPY ADD SWAP1 POP JUMPDEST POP SWAP1 POP PUSH1 0x0 DUP1 JUMPDEST PUSH1 0x6 SLOAD PUSH4 0xFFFFFFFF DUP3 AND LT ISZERO PUSH2 0x7E4 JUMPI DUP4 MLOAD PUSH1 0x6 DUP1 SLOAD PUSH4 0xFFFFFFFF DUP5 AND SWAP1 DUP2 LT PUSH2 0x387 JUMPI PUSH2 0x387 PUSH2 0x1317 JUMP JUMPDEST SWAP1 PUSH1 0x0 MSTORE PUSH1 0x20 PUSH1 0x0 KECCAK256 ADD PUSH1 0x1 DUP2 SLOAD DUP2 LT PUSH2 0x3A3 JUMPI PUSH2 0x3A3 PUSH2 0x1317 JUMP JUMPDEST PUSH1 0x0 SWAP2 DUP3 MSTORE PUSH1 0x20 SWAP1 SWAP2 KECCAK256 PUSH1 0x8 DUP3 DIV ADD SLOAD PUSH1 0x7 SWAP1 SWAP2 AND PUSH1 0x4 MUL PUSH2 0x100 EXP SWAP1 DIV PUSH4 0xFFFFFFFF AND PUSH1 0x3 DUP2 LT PUSH2 0x3D7 JUMPI PUSH2 0x3D7 PUSH2 0x1317 JUMP JUMPDEST PUSH1 0x20 MUL ADD MLOAD MLOAD PUSH1 0x1 PUSH1 0x20 MUL ADD MLOAD PUSH4 0xFFFFFFFF AND DUP5 PUSH1 0x0 ADD MLOAD PUSH1 0x6 DUP4 PUSH4 0xFFFFFFFF AND DUP2 SLOAD DUP2 LT PUSH2 0x408 JUMPI PUSH2 0x408 PUSH2 0x1317 JUMP JUMPDEST SWAP1 PUSH1 0x0 MSTORE PUSH1 0x20 PUSH1 0x0 KECCAK256 ADD PUSH1 0x0 DUP2 SLOAD DUP2 LT PUSH2 0x424 JUMPI PUSH2 0x424 PUSH2 0x1317 JUMP JUMPDEST PUSH1 0x0 SWAP2 DUP3 MSTORE PUSH1 0x20 SWAP1 SWAP2 KECCAK256 PUSH1 0x8 DUP3 DIV ADD SLOAD PUSH1 0x7 SWAP1 SWAP2 AND PUSH1 0x4 MUL PUSH2 0x100 EXP SWAP1 DIV PUSH4 0xFFFFFFFF AND PUSH1 0x3 DUP2 LT PUSH2 0x458 JUMPI PUSH2 0x458 PUSH2 0x1317 JUMP JUMPDEST PUSH1 0x20 MUL ADD MLOAD MLOAD MLOAD PUSH4 0xFFFFFFFF AND EQ DUP1 ISZERO PUSH2 0x568 JUMPI POP DUP4 MLOAD PUSH1 0x6 DUP1 SLOAD PUSH4 0xFFFFFFFF DUP5 AND SWAP1 DUP2 LT PUSH2 0x489 JUMPI PUSH2 0x489 PUSH2 0x1317 JUMP JUMPDEST SWAP1 PUSH1 0x0 MSTORE PUSH1 0x20 PUSH1 0x0 KECCAK256 ADD PUSH1 0x2 DUP2 SLOAD DUP2 LT PUSH2 0x4A5 JUMPI PUSH2 0x4A5 PUSH2 0x1317 JUMP JUMPDEST PUSH1 0x0 SWAP2 DUP3 MSTORE PUSH1 0x20 SWAP1 SWAP2 KECCAK256 PUSH1 0x8 DUP3 DIV ADD SLOAD PUSH1 0x7 SWAP1 SWAP2 AND PUSH1 0x4 MUL PUSH2 0x100 EXP SWAP1 DIV PUSH4 0xFFFFFFFF AND PUSH1 0x3 DUP2 LT PUSH2 0x4D9 JUMPI PUSH2 0x4D9 PUSH2 0x1317 JUMP JUMPDEST PUSH1 0x20 MUL ADD MLOAD MLOAD PUSH1 0x40 ADD MLOAD DUP5 MLOAD PUSH1 0x6 DUP1 SLOAD PUSH4 0xFFFFFFFF SWAP4 DUP5 AND SWAP4 DUP6 AND SWAP1 DUP2 LT PUSH2 0x503 JUMPI PUSH2 0x503 PUSH2 0x1317 JUMP JUMPDEST SWAP1 PUSH1 0x0 MSTORE PUSH1 0x20 PUSH1 0x0 KECCAK256 ADD PUSH1 0x1 DUP2 SLOAD DUP2 LT PUSH2 0x51F JUMPI PUSH2 0x51F PUSH2 0x1317 JUMP JUMPDEST PUSH1 0x0 SWAP2 DUP3 MSTORE PUSH1 0x20 SWAP1 SWAP2 KECCAK256 PUSH1 0x8 DUP3 DIV ADD SLOAD PUSH1 0x7 SWAP1 SWAP2 AND PUSH1 0x4 MUL PUSH2 0x100 EXP SWAP1 DIV PUSH4 0xFFFFFFFF AND PUSH1 0x3 DUP2 LT PUSH2 0x553 JUMPI PUSH2 0x553 PUSH2 0x1317 JUMP JUMPDEST PUSH1 0x20 MUL ADD MLOAD MLOAD PUSH1 0x1 PUSH1 0x20 MUL ADD MLOAD PUSH4 0xFFFFFFFF AND EQ JUMPDEST DUP1 ISZERO PUSH2 0x667 JUMPI POP DUP4 MLOAD PUSH1 0x6 DUP1 SLOAD PUSH4 0xFFFFFFFF DUP5 AND SWAP1 DUP2 LT PUSH2 0x58B JUMPI PUSH2 0x58B PUSH2 0x1317 JUMP JUMPDEST SWAP1 PUSH1 0x0 MSTORE PUSH1 0x20 PUSH1 0x0 KECCAK256 ADD PUSH1 0x3 DUP2 SLOAD DUP2 LT PUSH2 0x5A7 JUMPI PUSH2 0x5A7 PUSH2 0x1317 JUMP JUMPDEST PUSH1 0x0 SWAP2 DUP3 MSTORE PUSH1 0x20 SWAP1 SWAP2 KECCAK256 PUSH1 0x8 DUP3 DIV ADD SLOAD PUSH1 0x7 SWAP1 SWAP2 AND PUSH1 0x4 MUL PUSH2 0x100 EXP SWAP1 DIV PUSH4 0xFFFFFFFF AND PUSH1 0x3 DUP2 LT PUSH2 0x5DB JUMPI PUSH2 0x5DB PUSH2 0x1317 JUMP JUMPDEST PUSH1 0x20 MUL ADD MLOAD MLOAD PUSH1 0x60 ADD MLOAD DUP5 MLOAD PUSH1 0x6 DUP1 SLOAD PUSH4 0xFFFFFFFF SWAP4 DUP5 AND SWAP4 DUP6 AND SWAP1 DUP2 LT PUSH2 0x605 JUMPI PUSH2 0x605 PUSH2 0x1317 JUMP JUMPDEST SWAP1 PUSH1 0x0 MSTORE PUSH1 0x20 PUSH1 0x0 KECCAK256 ADD PUSH1 0x2 DUP2 SLOAD DUP2 LT PUSH2 0x621 JUMPI PUSH2 0x621 PUSH2 0x1317 JUMP JUMPDEST PUSH1 0x0 SWAP2 DUP3 MSTORE PUSH1 0x20 SWAP1 SWAP2 KECCAK256 PUSH1 0x8 DUP3 DIV ADD SLOAD PUSH1 0x7 SWAP1 SWAP2 AND PUSH1 0x4 MUL PUSH2 0x100 EXP SWAP1 DIV PUSH4 0xFFFFFFFF AND PUSH1 0x3 DUP2 LT PUSH2 0x655 JUMPI PUSH2 0x655 PUSH2 0x1317 JUMP JUMPDEST PUSH1 0x20 MUL ADD MLOAD MLOAD PUSH1 0x40 ADD MLOAD PUSH4 0xFFFFFFFF AND EQ JUMPDEST DUP1 ISZERO PUSH2 0x766 JUMPI POP DUP4 MLOAD PUSH1 0x6 DUP1 SLOAD PUSH4 0xFFFFFFFF DUP5 AND SWAP1 DUP2 LT PUSH2 0x68A JUMPI PUSH2 0x68A PUSH2 0x1317 JUMP JUMPDEST SWAP1 PUSH1 0x0 MSTORE PUSH1 0x20 PUSH1 0x0 KECCAK256 ADD PUSH1 0x4 DUP2 SLOAD DUP2 LT PUSH2 0x6A6 JUMPI PUSH2 0x6A6 PUSH2 0x1317 JUMP JUMPDEST PUSH1 0x0 SWAP2 DUP3 MSTORE PUSH1 0x20 SWAP1 SWAP2 KECCAK256 PUSH1 0x8 DUP3 DIV ADD SLOAD PUSH1 0x7 SWAP1 SWAP2 AND PUSH1 0x4 MUL PUSH2 0x100 EXP SWAP1 DIV PUSH4 0xFFFFFFFF AND PUSH1 0x3 DUP2 LT PUSH2 0x6DA JUMPI PUSH2 0x6DA PUSH2 0x1317 JUMP JUMPDEST PUSH1 0x20 MUL ADD MLOAD MLOAD PUSH1 0x80 ADD MLOAD DUP5 MLOAD PUSH1 0x6 DUP1 SLOAD PUSH4 0xFFFFFFFF SWAP4 DUP5 AND SWAP4 DUP6 AND SWAP1 DUP2 LT PUSH2 0x704 JUMPI PUSH2 0x704 PUSH2 0x1317 JUMP JUMPDEST SWAP1 PUSH1 0x0 MSTORE PUSH1 0x20 PUSH1 0x0 KECCAK256 ADD PUSH1 0x3 DUP2 SLOAD DUP2 LT PUSH2 0x720 JUMPI PUSH2 0x720 PUSH2 0x1317 JUMP JUMPDEST PUSH1 0x0 SWAP2 DUP3 MSTORE PUSH1 0x20 SWAP1 SWAP2 KECCAK256 PUSH1 0x8 DUP3 DIV ADD SLOAD PUSH1 0x7 SWAP1 SWAP2 AND PUSH1 0x4 MUL PUSH2 0x100 EXP SWAP1 DIV PUSH4 0xFFFFFFFF AND PUSH1 0x3 DUP2 LT PUSH2 0x754 JUMPI PUSH2 0x754 PUSH2 0x1317 JUMP JUMPDEST PUSH1 0x20 MUL ADD MLOAD MLOAD PUSH1 0x60 ADD MLOAD PUSH4 0xFFFFFFFF AND EQ JUMPDEST ISZERO PUSH2 0x7A7 JUMPI DUP2 PUSH2 0x775 DUP2 PUSH2 0x13C0 JUMP JUMPDEST SWAP3 POP POP PUSH1 0x1 DUP4 DUP3 PUSH4 0xFFFFFFFF AND DUP2 MLOAD DUP2 LT PUSH2 0x792 JUMPI PUSH2 0x792 PUSH2 0x1317 JUMP JUMPDEST SWAP2 ISZERO ISZERO PUSH1 0x20 SWAP3 DUP4 MUL SWAP2 SWAP1 SWAP2 ADD SWAP1 SWAP2 ADD MSTORE PUSH2 0x7D2 JUMP JUMPDEST PUSH1 0x0 DUP4 DUP3 PUSH4 0xFFFFFFFF AND DUP2 MLOAD DUP2 LT PUSH2 0x7C1 JUMPI PUSH2 0x7C1 PUSH2 0x1317 JUMP JUMPDEST SWAP2 ISZERO ISZERO PUSH1 0x20 SWAP3 DUP4 MUL SWAP2 SWAP1 SWAP2 ADD SWAP1 SWAP2 ADD MSTORE JUMPDEST DUP1 PUSH2 0x7DC DUP2 PUSH2 0x13C0 JUMP JUMPDEST SWAP2 POP POP PUSH2 0x35B JUMP JUMPDEST POP PUSH32 0x36AAE38C0461DE63E32C1224E436463A66B9EE6560E320860083D7EAFB65A77 DUP8 DUP3 DUP5 PUSH1 0x40 MLOAD PUSH2 0x818 SWAP4 SWAP3 SWAP2 SWAP1 PUSH2 0xFE8 JUMP JUMPDEST PUSH1 0x40 MLOAD DUP1 SWAP2 SUB SWAP1 LOG1 SWAP6 SWAP12 SWAP6 SWAP11 POP SWAP9 POP SWAP4 SWAP7 POP POP POP POP POP POP POP JUMP JUMPDEST PUSH1 0x60 PUSH1 0x6 DUP1 SLOAD DUP1 PUSH1 0x20 MUL PUSH1 0x20 ADD PUSH1 0x40 MLOAD SWAP1 DUP2 ADD PUSH1 0x40 MSTORE DUP1 SWAP3 SWAP2 SWAP1 DUP2 DUP2 MSTORE PUSH1 0x20 ADD PUSH1 0x0 SWAP1 JUMPDEST DUP3 DUP3 LT ISZERO PUSH2 0x8EE JUMPI PUSH1 0x0 DUP5 DUP2 MSTORE PUSH1 0x20 SWAP1 DUP2 SWAP1 KECCAK256 DUP4 ADD DUP1 SLOAD PUSH1 0x40 DUP1 MLOAD DUP3 DUP6 MUL DUP2 ADD DUP6 ADD SWAP1 SWAP2 MSTORE DUP2 DUP2 MSTORE SWAP3 DUP4 ADD DUP3 DUP3 DUP1 ISZERO PUSH2 0x8DA JUMPI PUSH1 0x20 MUL DUP3 ADD SWAP2 SWAP1 PUSH1 0x0 MSTORE PUSH1 0x20 PUSH1 0x0 KECCAK256 SWAP1 PUSH1 0x0 SWAP1 JUMPDEST DUP3 DUP3 SWAP1 SLOAD SWAP1 PUSH2 0x100 EXP SWAP1 DIV PUSH4 0xFFFFFFFF AND PUSH4 0xFFFFFFFF AND DUP2 MSTORE PUSH1 0x20 ADD SWAP1 PUSH1 0x4 ADD SWAP1 PUSH1 0x20 DUP3 PUSH1 0x3 ADD DIV SWAP3 DUP4 ADD SWAP3 PUSH1 0x1 SUB DUP3 MUL SWAP2 POP DUP1 DUP5 GT PUSH2 0x89D JUMPI SWAP1 POP JUMPDEST POP POP POP POP POP DUP2 MSTORE PUSH1 0x20 ADD SWAP1 PUSH1 0x1 ADD SWAP1 PUSH2 0x856 JUMP JUMPDEST POP POP POP POP SWAP1 POP SWAP1 JUMP JUMPDEST PUSH2 0x8FF PUSH2 0xEC8 JUMP JUMPDEST PUSH2 0x909 PUSH1 0x0 PUSH2 0xF22 JUMP JUMPDEST JUMP JUMPDEST PUSH1 0x0 DUP2 PUSH1 0x0 ADD MLOAD PUSH1 0x6 DUP5 PUSH4 0xFFFFFFFF AND DUP2 SLOAD DUP2 LT PUSH2 0x92B JUMPI PUSH2 0x92B PUSH2 0x1317 JUMP JUMPDEST SWAP1 PUSH1 0x0 MSTORE PUSH1 0x20 PUSH1 0x0 KECCAK256 ADD PUSH1 0x1 DUP2 SLOAD DUP2 LT PUSH2 0x947 JUMPI PUSH2 0x947 PUSH2 0x1317 JUMP JUMPDEST PUSH1 0x0 SWAP2 DUP3 MSTORE PUSH1 0x20 SWAP1 SWAP2 KECCAK256 PUSH1 0x8 DUP3 DIV ADD SLOAD PUSH1 0x7 SWAP1 SWAP2 AND PUSH1 0x4 MUL PUSH2 0x100 EXP SWAP1 DIV PUSH4 0xFFFFFFFF AND PUSH1 0x3 DUP2 LT PUSH2 0x97B JUMPI PUSH2 0x97B PUSH2 0x1317 JUMP JUMPDEST PUSH1 0x20 MUL ADD MLOAD MLOAD PUSH1 0x1 PUSH1 0x20 MUL ADD MLOAD PUSH4 0xFFFFFFFF AND DUP3 PUSH1 0x0 ADD MLOAD PUSH1 0x6 DUP6 PUSH4 0xFFFFFFFF AND DUP2 SLOAD DUP2 LT PUSH2 0x9AC JUMPI PUSH2 0x9AC PUSH2 0x1317 JUMP JUMPDEST SWAP1 PUSH1 0x0 MSTORE PUSH1 0x20 PUSH1 0x0 KECCAK256 ADD PUSH1 0x0 DUP2 SLOAD DUP2 LT PUSH2 0x9C8 JUMPI PUSH2 0x9C8 PUSH2 0x1317 JUMP JUMPDEST PUSH1 0x0 SWAP2 DUP3 MSTORE PUSH1 0x20 SWAP1 SWAP2 KECCAK256 PUSH1 0x8 DUP3 DIV ADD SLOAD PUSH1 0x7 SWAP1 SWAP2 AND PUSH1 0x4 MUL PUSH2 0x100 EXP SWAP1 DIV PUSH4 0xFFFFFFFF AND PUSH1 0x3 DUP2 LT PUSH2 0x9FC JUMPI PUSH2 0x9FC PUSH2 0x1317 JUMP JUMPDEST PUSH1 0x20 MUL ADD MLOAD MLOAD MLOAD PUSH4 0xFFFFFFFF AND EQ DUP1 ISZERO PUSH2 0xB0C JUMPI POP DUP2 MLOAD PUSH1 0x6 DUP1 SLOAD PUSH4 0xFFFFFFFF DUP7 AND SWAP1 DUP2 LT PUSH2 0xA2D JUMPI PUSH2 0xA2D PUSH2 0x1317 JUMP JUMPDEST SWAP1 PUSH1 0x0 MSTORE PUSH1 0x20 PUSH1 0x0 KECCAK256 ADD PUSH1 0x2 DUP2 SLOAD DUP2 LT PUSH2 0xA49 JUMPI PUSH2 0xA49 PUSH2 0x1317 JUMP JUMPDEST PUSH1 0x0 SWAP2 DUP3 MSTORE PUSH1 0x20 SWAP1 SWAP2 KECCAK256 PUSH1 0x8 DUP3 DIV ADD SLOAD PUSH1 0x7 SWAP1 SWAP2 AND PUSH1 0x4 MUL PUSH2 0x100 EXP SWAP1 DIV PUSH4 0xFFFFFFFF AND PUSH1 0x3 DUP2 LT PUSH2 0xA7D JUMPI PUSH2 0xA7D PUSH2 0x1317 JUMP JUMPDEST PUSH1 0x20 MUL ADD MLOAD MLOAD PUSH1 0x40 ADD MLOAD DUP3 MLOAD PUSH1 0x6 DUP1 SLOAD PUSH4 0xFFFFFFFF SWAP4 DUP5 AND SWAP4 DUP8 AND SWAP1 DUP2 LT PUSH2 0xAA7 JUMPI PUSH2 0xAA7 PUSH2 0x1317 JUMP JUMPDEST SWAP1 PUSH1 0x0 MSTORE PUSH1 0x20 PUSH1 0x0 KECCAK256 ADD PUSH1 0x1 DUP2 SLOAD DUP2 LT PUSH2 0xAC3 JUMPI PUSH2 0xAC3 PUSH2 0x1317 JUMP JUMPDEST PUSH1 0x0 SWAP2 DUP3 MSTORE PUSH1 0x20 SWAP1 SWAP2 KECCAK256 PUSH1 0x8 DUP3 DIV ADD SLOAD PUSH1 0x7 SWAP1 SWAP2 AND PUSH1 0x4 MUL PUSH2 0x100 EXP SWAP1 DIV PUSH4 0xFFFFFFFF AND PUSH1 0x3 DUP2 LT PUSH2 0xAF7 JUMPI PUSH2 0xAF7 PUSH2 0x1317 JUMP JUMPDEST PUSH1 0x20 MUL ADD MLOAD MLOAD PUSH1 0x1 PUSH1 0x20 MUL ADD MLOAD PUSH4 0xFFFFFFFF AND EQ JUMPDEST DUP1 ISZERO PUSH2 0xC0B JUMPI POP DUP2 MLOAD PUSH1 0x6 DUP1 SLOAD PUSH4 0xFFFFFFFF DUP7 AND SWAP1 DUP2 LT PUSH2 0xB2F JUMPI PUSH2 0xB2F PUSH2 0x1317 JUMP JUMPDEST SWAP1 PUSH1 0x0 MSTORE PUSH1 0x20 PUSH1 0x0 KECCAK256 ADD PUSH1 0x3 DUP2 SLOAD DUP2 LT PUSH2 0xB4B JUMPI PUSH2 0xB4B PUSH2 0x1317 JUMP JUMPDEST PUSH1 0x0 SWAP2 DUP3 MSTORE PUSH1 0x20 SWAP1 SWAP2 KECCAK256 PUSH1 0x8 DUP3 DIV ADD SLOAD PUSH1 0x7 SWAP1 SWAP2 AND PUSH1 0x4 MUL PUSH2 0x100 EXP SWAP1 DIV PUSH4 0xFFFFFFFF AND PUSH1 0x3 DUP2 LT PUSH2 0xB7F JUMPI PUSH2 0xB7F PUSH2 0x1317 JUMP JUMPDEST PUSH1 0x20 MUL ADD MLOAD MLOAD PUSH1 0x60 ADD MLOAD DUP3 MLOAD PUSH1 0x6 DUP1 SLOAD PUSH4 0xFFFFFFFF SWAP4 DUP5 AND SWAP4 DUP8 AND SWAP1 DUP2 LT PUSH2 0xBA9 JUMPI PUSH2 0xBA9 PUSH2 0x1317 JUMP JUMPDEST SWAP1 PUSH1 0x0 MSTORE PUSH1 0x20 PUSH1 0x0 KECCAK256 ADD PUSH1 0x2 DUP2 SLOAD DUP2 LT PUSH2 0xBC5 JUMPI PUSH2 0xBC5 PUSH2 0x1317 JUMP JUMPDEST PUSH1 0x0 SWAP2 DUP3 MSTORE PUSH1 0x20 SWAP1 SWAP2 KECCAK256 PUSH1 0x8 DUP3 DIV ADD SLOAD PUSH1 0x7 SWAP1 SWAP2 AND PUSH1 0x4 MUL PUSH2 0x100 EXP SWAP1 DIV PUSH4 0xFFFFFFFF AND PUSH1 0x3 DUP2 LT PUSH2 0xBF9 JUMPI PUSH2 0xBF9 PUSH2 0x1317 JUMP JUMPDEST PUSH1 0x20 MUL ADD MLOAD MLOAD PUSH1 0x40 ADD MLOAD PUSH4 0xFFFFFFFF AND EQ JUMPDEST DUP1 ISZERO PUSH2 0xD0A JUMPI POP DUP2 MLOAD PUSH1 0x6 DUP1 SLOAD PUSH4 0xFFFFFFFF DUP7 AND SWAP1 DUP2 LT PUSH2 0xC2E JUMPI PUSH2 0xC2E PUSH2 0x1317 JUMP JUMPDEST SWAP1 PUSH1 0x0 MSTORE PUSH1 0x20 PUSH1 0x0 KECCAK256 ADD PUSH1 0x4 DUP2 SLOAD DUP2 LT PUSH2 0xC4A JUMPI PUSH2 0xC4A PUSH2 0x1317 JUMP JUMPDEST PUSH1 0x0 SWAP2 DUP3 MSTORE PUSH1 0x20 SWAP1 SWAP2 KECCAK256 PUSH1 0x8 DUP3 DIV ADD SLOAD PUSH1 0x7 SWAP1 SWAP2 AND PUSH1 0x4 MUL PUSH2 0x100 EXP SWAP1 DIV PUSH4 0xFFFFFFFF AND PUSH1 0x3 DUP2 LT PUSH2 0xC7E JUMPI PUSH2 0xC7E PUSH2 0x1317 JUMP JUMPDEST PUSH1 0x20 MUL ADD MLOAD MLOAD PUSH1 0x80 ADD MLOAD DUP3 MLOAD PUSH1 0x6 DUP1 SLOAD PUSH4 0xFFFFFFFF SWAP4 DUP5 AND SWAP4 DUP8 AND SWAP1 DUP2 LT PUSH2 0xCA8 JUMPI PUSH2 0xCA8 PUSH2 0x1317 JUMP JUMPDEST SWAP1 PUSH1 0x0 MSTORE PUSH1 0x20 PUSH1 0x0 KECCAK256 ADD PUSH1 0x3 DUP2 SLOAD DUP2 LT PUSH2 0xCC4 JUMPI PUSH2 0xCC4 PUSH2 0x1317 JUMP JUMPDEST PUSH1 0x0 SWAP2 DUP3 MSTORE PUSH1 0x20 SWAP1 SWAP2 KECCAK256 PUSH1 0x8 DUP3 DIV ADD SLOAD PUSH1 0x7 SWAP1 SWAP2 AND PUSH1 0x4 MUL PUSH2 0x100 EXP SWAP1 DIV PUSH4 0xFFFFFFFF AND PUSH1 0x3 DUP2 LT PUSH2 0xCF8 JUMPI PUSH2 0xCF8 PUSH2 0x1317 JUMP JUMPDEST PUSH1 0x20 MUL ADD MLOAD MLOAD PUSH1 0x60 ADD MLOAD PUSH4 0xFFFFFFFF AND EQ JUMPDEST ISZERO PUSH2 0xD17 JUMPI POP PUSH1 0x1 PUSH2 0xD1B JUMP JUMPDEST POP PUSH1 0x0 JUMPDEST SWAP3 SWAP2 POP POP JUMP JUMPDEST PUSH2 0xD29 PUSH2 0xEC8 JUMP JUMPDEST PUSH1 0x1 PUSH1 0x1 PUSH1 0xA0 SHL SUB DUP2 AND PUSH2 0xD93 JUMPI PUSH1 0x40 MLOAD PUSH3 0x461BCD PUSH1 0xE5 SHL DUP2 MSTORE PUSH1 0x20 PUSH1 0x4 DUP3 ADD MSTORE PUSH1 0x26 PUSH1 0x24 DUP3 ADD MSTORE PUSH32 0x4F776E61626C653A206E6577206F776E657220697320746865207A65726F2061 PUSH1 0x44 DUP3 ADD MSTORE PUSH6 0x646472657373 PUSH1 0xD0 SHL PUSH1 0x64 DUP3 ADD MSTORE PUSH1 0x84 ADD JUMPDEST PUSH1 0x40 MLOAD DUP1 SWAP2 SUB SWAP1 REVERT JUMPDEST PUSH2 0xD9C DUP2 PUSH2 0xF22 JUMP JUMPDEST POP JUMP JUMPDEST PUSH2 0xDA7 PUSH2 0xEC8 JUMP JUMPDEST PUSH1 0x0 TIMESTAMP PUSH1 0x7 SLOAD PUSH1 0x9 SLOAD PUSH1 0x8 SLOAD DUP6 PUSH2 0xDBD PUSH1 0x1 SLOAD SWAP1 JUMP JUMPDEST PUSH1 0x40 DUP1 MLOAD PUSH1 0x20 DUP2 ADD SWAP8 SWAP1 SWAP8 MSTORE DUP7 ADD SWAP5 SWAP1 SWAP5 MSTORE PUSH1 0x60 DUP6 ADD SWAP3 SWAP1 SWAP3 MSTORE PUSH1 0x80 DUP5 ADD MSTORE PUSH1 0xA0 DUP4 ADD MSTORE PUSH1 0xC0 DUP3 ADD MSTORE PUSH1 0xE0 ADD PUSH1 0x40 DUP1 MLOAD PUSH1 0x1F NOT DUP2 DUP5 SUB ADD DUP2 MSTORE SWAP2 SWAP1 MSTORE DUP1 MLOAD PUSH1 0x20 SWAP1 SWAP2 ADD KECCAK256 PUSH1 0x8 DUP1 SLOAD PUSH1 0x9 SSTORE SSTORE POP POP JUMP JUMPDEST PUSH1 0x0 DUP1 TIMESTAMP DUP4 PUSH1 0x7 SLOAD PUSH1 0x8 SLOAD PUSH1 0x9 SLOAD NUMBER BLOCKHASH COINBASE DIFFICULTY GASLIMIT GASPRICE CALLER GAS PUSH1 0x1 SLOAD PUSH1 0x40 DUP1 MLOAD PUSH1 0x20 DUP2 ADD SWAP15 SWAP1 SWAP15 MSTORE DUP14 ADD SWAP12 SWAP1 SWAP12 MSTORE PUSH1 0x60 DUP1 DUP14 ADD SWAP11 SWAP1 SWAP11 MSTORE PUSH1 0x80 DUP13 ADD SWAP9 SWAP1 SWAP9 MSTORE PUSH1 0xA0 DUP12 ADD SWAP7 SWAP1 SWAP7 MSTORE PUSH1 0xC0 DUP11 ADD SWAP5 SWAP1 SWAP5 MSTORE PUSH12 0xFFFFFFFFFFFFFFFFFFFFFFFF NOT SWAP3 DUP8 SHL DUP4 AND PUSH1 0xE0 DUP11 ADD MSTORE PUSH1 0xF4 DUP10 ADD SWAP2 SWAP1 SWAP2 MSTORE PUSH2 0x114 DUP9 ADD MSTORE PUSH2 0x134 DUP8 ADD SWAP2 SWAP1 SWAP2 MSTORE SWAP3 SHL SWAP1 SWAP2 AND PUSH2 0x154 DUP5 ADD MSTORE PUSH2 0x168 DUP4 ADD MSTORE PUSH2 0x188 DUP3 ADD MSTORE PUSH2 0x1A8 ADD PUSH1 0x40 DUP1 MLOAD PUSH1 0x1F NOT DUP2 DUP5 SUB ADD DUP2 MSTORE SWAP2 SWAP1 MSTORE DUP1 MLOAD PUSH1 0x20 SWAP1 SWAP2 ADD KECCAK256 PUSH1 0x7 SWAP4 SWAP1 SWAP4 SSTORE POP SWAP1 SWAP2 SWAP1 POP JUMP JUMPDEST PUSH1 0x0 SLOAD PUSH1 0x1 PUSH1 0x1 PUSH1 0xA0 SHL SUB AND CALLER EQ PUSH2 0x909 JUMPI PUSH1 0x40 MLOAD PUSH3 0x461BCD PUSH1 0xE5 SHL DUP2 MSTORE PUSH1 0x20 PUSH1 0x4 DUP3 ADD DUP2 SWAP1 MSTORE PUSH1 0x24 DUP3 ADD MSTORE PUSH32 0x4F776E61626C653A2063616C6C6572206973206E6F7420746865206F776E6572 PUSH1 0x44 DUP3 ADD MSTORE PUSH1 0x64 ADD PUSH2 0xD8A JUMP JUMPDEST PUSH1 0x0 DUP1 SLOAD PUSH1 0x1 PUSH1 0x1 PUSH1 0xA0 SHL SUB DUP4 DUP2 AND PUSH1 0x1 PUSH1 0x1 PUSH1 0xA0 SHL SUB NOT DUP4 AND DUP2 OR DUP5 SSTORE PUSH1 0x40 MLOAD SWAP2 SWAP1 SWAP3 AND SWAP3 DUP4 SWAP2 PUSH32 0x8BE0079C531659141344CD1FD0A4F28419497F9722A3DAAFE3B4186F6B6457E0 SWAP2 SWAP1 LOG3 POP POP JUMP JUMPDEST PUSH1 0x40 MLOAD DUP1 PUSH1 0x20 ADD PUSH1 0x40 MSTORE DUP1 PUSH2 0xF85 PUSH2 0xF9D JUMP JUMPDEST SWAP1 MSTORE SWAP1 JUMP JUMPDEST PUSH1 0x40 MLOAD DUP1 PUSH1 0x20 ADD PUSH1 0x40 MSTORE DUP1 PUSH2 0xF85 PUSH2 0xFBB JUMP JUMPDEST PUSH1 0x40 MLOAD DUP1 PUSH1 0xA0 ADD PUSH1 0x40 MSTORE DUP1 PUSH1 0x5 SWAP1 PUSH1 0x20 DUP3 MUL DUP1 CALLDATASIZE DUP4 CALLDATACOPY POP SWAP2 SWAP3 SWAP2 POP POP JUMP JUMPDEST PUSH1 0x40 MLOAD DUP1 PUSH1 0x60 ADD PUSH1 0x40 MSTORE DUP1 PUSH1 0x3 SWAP1 JUMPDEST PUSH2 0xFD2 PUSH2 0xF72 JUMP JUMPDEST DUP2 MSTORE PUSH1 0x20 ADD SWAP1 PUSH1 0x1 SWAP1 SUB SWAP1 DUP2 PUSH2 0xFCA JUMPI SWAP1 POP POP SWAP1 JUMP JUMPDEST PUSH1 0x0 PUSH1 0x60 DUP3 ADD PUSH4 0xFFFFFFFF DUP1 DUP8 AND DUP5 MSTORE PUSH1 0x20 DUP2 DUP8 AND DUP2 DUP7 ADD MSTORE PUSH1 0x60 PUSH1 0x40 DUP7 ADD MSTORE DUP3 SWAP2 POP DUP6 MLOAD DUP1 DUP5 MSTORE PUSH1 0x80 DUP7 ADD SWAP3 POP DUP2 DUP8 ADD SWAP4 POP PUSH1 0x0 JUMPDEST DUP2 DUP2 LT ISZERO PUSH2 0x103C JUMPI DUP5 MLOAD ISZERO ISZERO DUP5 MSTORE SWAP4 DUP3 ADD SWAP4 SWAP3 DUP3 ADD SWAP3 PUSH1 0x1 ADD PUSH2 0x101E JUMP JUMPDEST POP SWAP2 SWAP9 SWAP8 POP POP POP POP POP POP POP POP JUMP JUMPDEST PUSH1 0x0 PUSH1 0x20 DUP1 DUP4 ADD DUP2 DUP5 MSTORE DUP1 DUP6 MLOAD DUP1 DUP4 MSTORE PUSH1 0x40 DUP7 ADD SWAP2 POP PUSH1 0x40 DUP2 PUSH1 0x5 SHL DUP8 ADD ADD SWAP3 POP DUP4 DUP8 ADD PUSH1 0x0 DUP1 JUMPDEST DUP4 DUP2 LT ISZERO PUSH2 0x10CC JUMPI DUP9 DUP7 SUB PUSH1 0x3F NOT ADD DUP6 MSTORE DUP3 MLOAD DUP1 MLOAD DUP1 DUP9 MSTORE SWAP1 DUP9 ADD SWAP1 DUP9 DUP9 ADD SWAP1 DUP5 JUMPDEST DUP2 DUP2 LT ISZERO PUSH2 0x10B6 JUMPI DUP4 MLOAD PUSH4 0xFFFFFFFF AND DUP4 MSTORE SWAP3 DUP11 ADD SWAP3 SWAP2 DUP11 ADD SWAP2 PUSH1 0x1 ADD PUSH2 0x1094 JUMP JUMPDEST POP SWAP1 SWAP8 POP POP POP SWAP4 DUP7 ADD SWAP4 SWAP2 DUP7 ADD SWAP2 PUSH1 0x1 ADD PUSH2 0x1072 JUMP JUMPDEST POP SWAP4 SWAP9 SWAP8 POP POP POP POP POP POP POP POP JUMP JUMPDEST DUP1 CALLDATALOAD PUSH4 0xFFFFFFFF DUP2 AND DUP2 EQ PUSH2 0x10EE JUMPI PUSH1 0x0 DUP1 REVERT JUMPDEST SWAP2 SWAP1 POP JUMP JUMPDEST PUSH4 0x4E487B71 PUSH1 0xE0 SHL PUSH1 0x0 MSTORE PUSH1 0x41 PUSH1 0x4 MSTORE PUSH1 0x24 PUSH1 0x0 REVERT JUMPDEST PUSH1 0x40 MLOAD PUSH1 0x20 DUP2 ADD PUSH8 0xFFFFFFFFFFFFFFFF DUP2 GT DUP3 DUP3 LT OR ISZERO PUSH2 0x112C JUMPI PUSH2 0x112C PUSH2 0x10F3 JUMP JUMPDEST PUSH1 0x40 MSTORE SWAP1 JUMP JUMPDEST PUSH1 0x40 MLOAD PUSH1 0x60 DUP2 ADD PUSH8 0xFFFFFFFFFFFFFFFF DUP2 GT DUP3 DUP3 LT OR ISZERO PUSH2 0x112C JUMPI PUSH2 0x112C PUSH2 0x10F3 JUMP JUMPDEST PUSH1 0x40 MLOAD PUSH1 0xA0 DUP2 ADD PUSH8 0xFFFFFFFFFFFFFFFF DUP2 GT DUP3 DUP3 LT OR ISZERO PUSH2 0x112C JUMPI PUSH2 0x112C PUSH2 0x10F3 JUMP JUMPDEST PUSH1 0x0 DUP1 DUP3 DUP5 SUB PUSH2 0x200 DUP1 DUP3 SLT ISZERO PUSH2 0x118E JUMPI PUSH1 0x0 DUP1 REVERT JUMPDEST PUSH2 0x1197 DUP6 PUSH2 0x10DA JUMP JUMPDEST SWAP4 POP PUSH1 0x20 PUSH2 0x1E0 PUSH1 0x1F NOT DUP5 ADD SLT ISZERO PUSH2 0x11AE JUMPI PUSH1 0x0 DUP1 REVERT JUMPDEST PUSH2 0x11B6 PUSH2 0x1109 JUMP JUMPDEST SWAP3 POP DUP7 PUSH1 0x3F DUP8 ADD SLT PUSH2 0x11C7 JUMPI PUSH1 0x0 DUP1 REVERT JUMPDEST PUSH2 0x11CF PUSH2 0x1132 JUMP JUMPDEST SWAP2 DUP7 ADD SWAP2 DUP1 DUP9 DUP5 GT ISZERO PUSH2 0x11E1 JUMPI PUSH1 0x0 DUP1 REVERT JUMPDEST DUP3 DUP9 ADD JUMPDEST DUP5 DUP2 LT ISZERO PUSH2 0x1265 JUMPI PUSH1 0xA0 DUP1 DUP3 DUP13 SUB SLT ISZERO PUSH2 0x11FF JUMPI PUSH1 0x0 DUP1 DUP2 REVERT JUMPDEST PUSH2 0x1207 PUSH2 0x1109 JUMP JUMPDEST DUP12 PUSH1 0x1F DUP5 ADD SLT PUSH2 0x1217 JUMPI PUSH1 0x0 DUP1 DUP2 REVERT JUMPDEST PUSH2 0x121F PUSH2 0x1155 JUMP JUMPDEST SWAP2 DUP4 ADD SWAP2 DUP1 DUP14 DUP5 GT ISZERO PUSH2 0x1232 JUMPI PUSH1 0x0 DUP1 DUP2 REVERT JUMPDEST DUP5 JUMPDEST DUP5 DUP2 LT ISZERO PUSH2 0x1252 JUMPI PUSH2 0x1245 DUP2 PUSH2 0x10DA JUMP JUMPDEST DUP4 MSTORE SWAP2 DUP9 ADD SWAP2 DUP9 ADD PUSH2 0x1234 JUMP JUMPDEST POP DUP3 MSTORE POP DUP5 MSTORE POP SWAP2 DUP4 ADD SWAP2 PUSH1 0xA0 ADD PUSH2 0x11E5 JUMP JUMPDEST POP DUP5 MSTORE POP SWAP4 SWAP7 SWAP2 SWAP6 POP SWAP1 SWAP4 POP POP POP POP JUMP JUMPDEST PUSH1 0x0 PUSH1 0x20 DUP3 DUP5 SUB SLT ISZERO PUSH2 0x1288 JUMPI PUSH1 0x0 DUP1 REVERT JUMPDEST DUP2 CALLDATALOAD PUSH1 0x1 PUSH1 0x1 PUSH1 0xA0 SHL SUB DUP2 AND DUP2 EQ PUSH2 0x129F JUMPI PUSH1 0x0 DUP1 REVERT JUMPDEST SWAP4 SWAP3 POP POP POP JUMP JUMPDEST PUSH1 0x0 PUSH1 0x20 DUP3 DUP5 SUB SLT ISZERO PUSH2 0x12B8 JUMPI PUSH1 0x0 DUP1 REVERT JUMPDEST POP CALLDATALOAD SWAP2 SWAP1 POP JUMP JUMPDEST PUSH4 0x4E487B71 PUSH1 0xE0 SHL PUSH1 0x0 MSTORE PUSH1 0x12 PUSH1 0x4 MSTORE PUSH1 0x24 PUSH1 0x0 REVERT JUMPDEST PUSH1 0x0 DUP3 PUSH2 0x12E4 JUMPI PUSH2 0x12E4 PUSH2 0x12BF JUMP JUMPDEST POP MOD SWAP1 JUMP JUMPDEST PUSH4 0x4E487B71 PUSH1 0xE0 SHL PUSH1 0x0 MSTORE PUSH1 0x11 PUSH1 0x4 MSTORE PUSH1 0x24 PUSH1 0x0 REVERT JUMPDEST PUSH1 0x0 DUP3 NOT DUP3 GT ISZERO PUSH2 0x1312 JUMPI PUSH2 0x1312 PUSH2 0x12E9 JUMP JUMPDEST POP ADD SWAP1 JUMP JUMPDEST PUSH4 0x4E487B71 PUSH1 0xE0 SHL PUSH1 0x0 MSTORE PUSH1 0x32 PUSH1 0x4 MSTORE PUSH1 0x24 PUSH1 0x0 REVERT JUMPDEST PUSH1 0x0 PUSH4 0xFFFFFFFF DUP1 DUP5 AND DUP1 PUSH2 0x1344 JUMPI PUSH2 0x1344 PUSH2 0x12BF JUMP JUMPDEST SWAP3 AND SWAP2 SWAP1 SWAP2 MOD SWAP3 SWAP2 POP POP JUMP JUMPDEST PUSH1 0x0 PUSH4 0xFFFFFFFF DUP1 DUP5 AND DUP1 PUSH2 0x1367 JUMPI PUSH2 0x1367 PUSH2 0x12BF JUMP JUMPDEST SWAP3 AND SWAP2 SWAP1 SWAP2 DIV SWAP3 SWAP2 POP POP JUMP JUMPDEST PUSH1 0x0 PUSH4 0xFFFFFFFF DUP4 DUP2 AND SWAP1 DUP4 AND DUP2 DUP2 LT ISZERO PUSH2 0x1390 JUMPI PUSH2 0x1390 PUSH2 0x12E9 JUMP JUMPDEST SUB SWAP4 SWAP3 POP POP POP JUMP JUMPDEST PUSH1 0x0 PUSH4 0xFFFFFFFF DUP1 DUP4 AND DUP2 DUP6 AND DUP1 DUP4 SUB DUP3 GT ISZERO PUSH2 0x13B7 JUMPI PUSH2 0x13B7 PUSH2 0x12E9 JUMP JUMPDEST ADD SWAP5 SWAP4 POP POP POP POP JUMP JUMPDEST PUSH1 0x0 PUSH4 0xFFFFFFFF DUP1 DUP4 AND DUP2 DUP2 EQ ISZERO PUSH2 0x13DA JUMPI PUSH2 0x13DA PUSH2 0x12E9 JUMP JUMPDEST PUSH1 0x1 ADD SWAP4 SWAP3 POP POP POP JUMP INVALID LOG2 PUSH5 0x6970667358 0x22 SLT KECCAK256 0xF8 CALLDATASIZE LOG1 STOP PUSH18 0x57E5C60434127C691D13CE66E8653BD21383 0xC4 0xBE GT PUSH20 0xCCDC0FBF5464736F6C634300080C0033F6522223 SGT 0xE2 DUP5 MSIZE MSTORE DUP14 SWAP3 SIGNEXTEND PUSH6 0x115C16C04F3E 0xFC DUP3 0xAA 0xED 0xC9 PUSH28 0xE59F3F377C0D3F000000000000000000000000000000000000000000 "
				},
				"gasEstimates": {
					"creation": {
						"codeDepositCost": "1029200",
						"executionCost": "infinite",
						"totalCost": "infinite"
					},
					"external": {
						"checkWinLine(uint32,((uint32[5])[3]))": "infinite",
						"doSpin()": "infinite",
						"flushRandom(bytes32)": "57460",
						"getWinLines()": "infinite",
						"owner()": "2301",
						"renounceOwnership()": "infinite",
						"transferOwnership(address)": "28342"
					},
					"internal": {
						"getRandom(bytes32,uint256)": "infinite",
						"getRandomBase(bytes32)": "infinite",
						"getWinLine(uint32)": "infinite"
					}
				},
				"methodIdentifiers": {
					"checkWinLine(uint32,((uint32[5])[3]))": "ea42ff1f",
					"doSpin()": "367a917b",
					"flushRandom(bytes32)": "f7e944ee",
					"getWinLines()": "4282cf54",
					"owner()": "8da5cb5b",
					"renounceOwnership()": "715018a6",
					"transferOwnership(address)": "f2fde38b"
				}
			},
			"storageLayout": {
				"storage": [
					{
						"astId": 873,
						"contract": "SlotMachine.sol:SlotMachine",
						"label": "_owner",
						"offset": 0,
						"slot": "0",
						"type": "t_address"
					},
					{
						"astId": 12,
						"contract": "SlotMachine.sol:SlotMachine",
						"label": "_spinId",
						"offset": 0,
						"slot": "1",
						"type": "t_struct(Counter)1006_storage"
					},
					{
						"astId": 15,
						"contract": "SlotMachine.sol:SlotMachine",
						"label": "_reelsCount",
						"offset": 0,
						"slot": "2",
						"type": "t_uint32"
					},
					{
						"astId": 19,
						"contract": "SlotMachine.sol:SlotMachine",
						"label": "_reelCalculator",
						"offset": 0,
						"slot": "3",
						"type": "t_mapping(t_uint32,t_uint32)"
					},
					{
						"astId": 40,
						"contract": "SlotMachine.sol:SlotMachine",
						"label": "_div1",
						"offset": 0,
						"slot": "4",
						"type": "t_array(t_uint32)5_storage"
					},
					{
						"astId": 50,
						"contract": "SlotMachine.sol:SlotMachine",
						"label": "_div2",
						"offset": 0,
						"slot": "5",
						"type": "t_array(t_uint32)5_storage"
					},
					{
						"astId": 54,
						"contract": "SlotMachine.sol:SlotMachine",
						"label": "winLines",
						"offset": 0,
						"slot": "6",
						"type": "t_array(t_array(t_uint32)dyn_storage)dyn_storage"
					},
					{
						"astId": 418,
						"contract": "SlotMachine.sol:SlotMachine",
						"label": "_prevSeed",
						"offset": 0,
						"slot": "7",
						"type": "t_bytes32"
					},
					{
						"astId": 421,
						"contract": "SlotMachine.sol:SlotMachine",
						"label": "_curRS",
						"offset": 0,
						"slot": "8",
						"type": "t_bytes32"
					},
					{
						"astId": 424,
						"contract": "SlotMachine.sol:SlotMachine",
						"label": "_prevRS",
						"offset": 0,
						"slot": "9",
						"type": "t_bytes32"
					}
				],
				"types": {
					"t_address": {
						"encoding": "inplace",
						"label": "address",
						"numberOfBytes": "20"
					},
					"t_array(t_array(t_uint32)dyn_storage)dyn_storage": {
						"base": "t_array(t_uint32)dyn_storage",
						"encoding": "dynamic_array",
						"label": "uint32[][]",
						"numberOfBytes": "32"
					},
					"t_array(t_uint32)5_storage": {
						"base": "t_uint32",
						"encoding": "inplace",
						"label": "uint32[5]",
						"numberOfBytes": "32"
					},
					"t_array(t_uint32)dyn_storage": {
						"base": "t_uint32",
						"encoding": "dynamic_array",
						"label": "uint32[]",
						"numberOfBytes": "32"
					},
					"t_bytes32": {
						"encoding": "inplace",
						"label": "bytes32",
						"numberOfBytes": "32"
					},
					"t_mapping(t_uint32,t_uint32)": {
						"encoding": "mapping",
						"key": "t_uint32",
						"label": "mapping(uint32 => uint32)",
						"numberOfBytes": "32",
						"value": "t_uint32"
					},
					"t_struct(Counter)1006_storage": {
						"encoding": "inplace",
						"label": "struct Counters.Counter",
						"members": [
							{
								"astId": 1005,
								"contract": "SlotMachine.sol:SlotMachine",
								"label": "_value",
								"offset": 0,
								"slot": "0",
								"type": "t_uint256"
							}
						],
						"numberOfBytes": "32"
					},
					"t_uint256": {
						"encoding": "inplace",
						"label": "uint256",
						"numberOfBytes": "32"
					},
					"t_uint32": {
						"encoding": "inplace",
						"label": "uint32",
						"numberOfBytes": "4"
					}
				}
			},
			"userdoc": {
				"kind": "user",
				"methods": {},
				"version": 1
			}
		}
	}
}