{
	"data": {
		"bytecode": {
			"linkReferences": {},
			"object": "6002805463ffffffff1916600590811782556001610300818152610320829052610340829052610360829052610380829052608090815260006103a08181526103c08290526103e082905261040082905261042082905260a0526104408581526104608690526104808690526104a08690526104c086905260c0526104e083815261050084905261052082905261054084905261056086905260e0526105808381526105a08490526105c08690526105e0849052610600829052610100526106208381526106408290526106608490526106808690526106a0849052610120526106c08381526106e0829052610700849052610720869052610740869052610140526107608381526107808290526107a08290526107c08490526107e086905261016052610800838152610820869052610840849052610860829052610880849052610180526108a08381526108c08690526108e08690526109008490526109208290526101a0526109408381526109608690526109808490526109a08290526109c08290526101c0526109e0818152610a00849052610a20869052610a40849052610a608290526101e052610a80818152610aa0849052610ac0849052610ae0849052610b0086905261020052610b20818152610b40829052610b60849052610b80869052610ba086905261022052610bc0818152610be0829052610c00849052610c20869052610c4084905261024052610c60818152610c80829052610ca0829052610cc0849052610ce086905261026052610d00858152610d20849052610d40829052610d60849052610d8086905261028052610da0858152610dc0849052610de0849052610e00849052610e208290526102a052610e40858152610e60869052610e80849052610ea0829052610ec08290526102c052610f80604052610ee0858152610f0095909552610f20839052610f4052610f60919091526102e092909252620002d1916014620005aa565b506040518061012001604052806040518060a001604052806000815260200160008152602001601481526020016050815260200160c881525081526020016040518060a0016040528060008152602001600081526020016028815260200161019081526020016107d081525081526020016040518060a001604052806000815260200160088152602001600f8152602001607881526020016101f481525081526020016040518060a0016040528060008152602001600281526020016008815260200160148152602001605081525081526020016040518060a0016040528060008152602001600081526020016008815260200160148152602001605081525081526020016040518060a001604052806000815260200160008152602001601481526020016050815260200160c881525081526020016040518060a0016040528060008152602001600081526020016008815260200160148152602001605081525081526020016040518060a0016040528060008152602001600081526020016014815260200160c881526020016103e881525081526020016040518060a0016040528060008152602001600081526020016002815260200160058152602001600f8152508152506007906009620004ab9291906200060b565b506040805160a081018252620186a0815261271060208201526103e89181019190915260646060820152600a6080820152620004ec9060349060056200064b565b506040805160a08101825261271081526103e8602082015260649181018290526060810191909152600160808201526200052b90603990600562000691565b506000603e819055603f8190556040553480156200054857600080fd5b5062000554336200055a565b62000777565b600080546001600160a01b038381166001600160a01b0319831681178455604051919092169283917f8be0079c531659141344cd1fd0a4f28419497f9722a3daafe3b4186f6b6457e09190a35050565b828054828255906000526020600020906005028101928215620005f9579160200282015b82811115620005f9578251620005e89083906005620006c8565b5091602001919060050190620005ce565b5062000607929150620006fe565b5090565b602d83019183908215620005f9579160200282015b82811115620005f95782516200063a90839060056200072f565b509160200191906005019062000620565b826005810192821562000683579160200282015b8281111562000683578251829062ffffff169055916020019190600101906200065f565b506200060792915062000760565b826005810192821562000683579160200282015b8281111562000683578251829061ffff16905591602001919060010190620006a5565b826005810192821562000683579160200282015b8281111562000683578251829060ff16905591602001919060010190620006dc565b80821115620006075760008082556001820181905560028201819055600382018190556004820155600501620006fe565b826005810192821562000683579160200282015b828111156200068357825182559160200191906001019062000743565b5b8082111562000607576000815560010162000761565b610d8f80620007876000396000f3fe608060405234801561001057600080fd5b50600436106100935760003560e01c80638da5cb5b116100665780638da5cb5b14610117578063b7013dc114610132578063dc8275e414610150578063f2fde38b14610163578063f7e944ee1461017657600080fd5b806317adaa031461009857806322526328146100e55780634282cf54146100fa578063715018a61461010f575b600080fd5b6100ab6100a6366004610b19565b610189565b604080519687526001600160a01b039095166020870152938501929092526060840152608083015260a082015260c0015b60405180910390f35b6100f86100f3366004610b43565b6101e7565b005b61010261020e565b6040516100dc9190610b5c565b6100f861028c565b6000546040516001600160a01b0390911681526020016100dc565b336000908152600460205260409020546040519081526020016100dc565b6100f861015e366004610bc6565b6102a0565b6100f8610171366004610be8565b61062a565b6100f8610184366004610b43565b6106a3565b600660205281600052604060002081815481106101a557600080fd5b60009182526020909120600b9091020180546001820154600283015460038401546004850154600a909501549396506001600160a01b03909216945092909186565b3360009081526004602052604081208054839290610206908490610c20565b909155505050565b60606005805480602002602001604051908101604052809291908181526020016000905b82821015610283576000848152602090206040805160a08101918290529160058581029091019182845b81548152602001906001019080831161025c57505050505081526020019060010190610232565b50505050905090565b610294610715565b61029e600061076f565b565b60006102ad826001610c20565b6102b79084610c38565b336000908152600460205260409020549091508111156103145760405162461bcd60e51b815260206004820152601360248201527210985b185b98d9481b9bdd08195b9bdd59da1d606a1b60448201526064015b60405180910390fd5b60055482106103565760405162461bcd60e51b815260206004820152600e60248201526d546f6f206d616e79206c696e657360901b604482015260640161030b565b610364600180546001019055565b600061036f60015490565b905060008060001b9050600060405180606001604052806040518060a0016040528060088152602001600881526020016008815260200160088152602001600881525081526020016040518060a0016040528060008152602001600081526020016000815260200160008152602001600081525081526020016040518060a0016040528060018152602001600181526020016001815260200160018152602001600181525081525090506000806000610426610a8b565b61042e610a8b565b6000805b8b8110156104bb57600080610447838b6107bf565b90925090506104568f83610c38565b91506104628285610c20565b93508186846014811061047757610477610c57565b60200201528085846014811061048f5761048f610c57565b6020020152878211156104a6578298508197508096505b505080806104b390610c6d565b915050610432565b503360009081526004602052604090205481906104d9908c90610c88565b6104e39190610c20565b336000818152600460209081526040808320949094556006815290839020835160e0810185528d8152918201929092529182018e9052426060830152608082018d90529060a081018960016020908102919091015182529081018490528254600180820185556000948552938290208351600b909202019081559082015192810180546001600160a01b0319166001600160a01b039094169390931790925560408101516002830155606081015160038301556080810151600483015560a08101519091906105b89060058084019190610aaa565b5060c09190910151600a909101557f6c98c6ad5e22111183c867670bead07208dbd3aba882d6bd87adbbbdb645d59a338d6105f48e6001610c20565b60208b01516040516106149493929187918a908a908f908f908f90610cc8565b60405180910390a1505050505050505050505050565b610632610715565b6001600160a01b0381166106975760405162461bcd60e51b815260206004820152602660248201527f4f776e61626c653a206e6577206f776e657220697320746865207a65726f206160448201526564647265737360d01b606482015260840161030b565b6106a08161076f565b50565b6106ab610715565b600042603e54604054603f54856106c160015490565b6040805160208101979097528601949094526060850192909252608084015260a083015260c082015260e00160408051601f198184030181529181528151602090920191909120603f805490925590555050565b6000546001600160a01b0316331461029e5760405162461bcd60e51b815260206004820181905260248201527f4f776e61626c653a2063616c6c6572206973206e6f7420746865206f776e6572604482015260640161030b565b600080546001600160a01b038381166001600160a01b0319831681178455604051919092169283917f8be0079c531659141344cd1fd0a4f28419497f9722a3daafe3b4186f6b6457e09190a35050565b600080808080805b600581101561085e5760018760058a815481106107e6576107e6610c57565b9060005260206000209060050201836005811061080557610805610c57565b01546003811061081757610817610c57565b6020020151826005811061082d5761082d610c57565b60200201511461083f5780925061085e565b8361084981610c6d565b9450508061085681610c6d565b9150506107c7565b5060008311801561088d57506000600c610879600186610c88565b6005811061088957610889610c57565b0154115b156108c3576000600c6108a1600186610c88565b600581106108b1576108b1610c57565b0154955060019450610a849350505050565b85600588815481106108d7576108d7610c57565b906000526020600020906005020183600581106108f6576108f6610c57565b01546003811061090857610908610c57565b6020020151826005811061091e5761091e610c57565b602002015190506000610932836001610c20565b90505b6005811015610a3857818760058a8154811061095357610953610c57565b9060005260206000209060050201836005811061097257610972610c57565b01546003811061098457610984610c57565b6020020151826005811061099a5761099a610c57565b60200201511480610a0a575060018760058a815481106109bc576109bc610c57565b906000526020600020906005020183600581106109db576109db610c57565b0154600381106109ed576109ed610c57565b60200201518260058110610a0357610a03610c57565b6020020151145b15610a215783610a1981610c6d565b945050610a26565b610a38565b80610a3081610c6d565b915050610935565b508215610a7957600060078260098110610a5457610a54610c57565b600502018460058110610a6957610a69610c57565b01549550909350610a8492505050565b600080945094505050505b9250929050565b6040518061028001604052806014906020820280368337509192915050565b8260058101928215610ad8579160200282015b82811115610ad8578251825591602001919060010190610abd565b50610ae4929150610ae8565b5090565b5b80821115610ae45760008155600101610ae9565b80356001600160a01b0381168114610b1457600080fd5b919050565b60008060408385031215610b2c57600080fd5b610b3583610afd565b946020939093013593505050565b600060208284031215610b5557600080fd5b5035919050565b602080825282518282018190526000919084820190604085019084805b82811015610bb957845184835b6005811015610ba357825182529188019190880190600101610b86565b5050509385019360a09390930192600101610b79565b5091979650505050505050565b60008060408385031215610bd957600080fd5b50508035926020909101359150565b600060208284031215610bfa57600080fd5b610c0382610afd565b9392505050565b634e487b7160e01b600052601160045260246000fd5b60008219821115610c3357610c33610c0a565b500190565b6000816000190483118215151615610c5257610c52610c0a565b500290565b634e487b7160e01b600052603260045260246000fd5b6000600019821415610c8157610c81610c0a565b5060010190565b600082821015610c9a57610c9a610c0a565b500390565b8060005b6014811015610cc2578151845260209384019390910190600101610ca3565b50505050565b6001600160a01b038b16815260208082018b9052604082018a905260608201899052610680820190608083018960005b6005811015610d1557815183529183019190830190600101610cf8565b50505050610d27610120830188610c9f565b610d356103a0830187610c9f565b8461062083015283610640830152826106608301529b9a505050505050505050505056fea264697066735822122039655e7498c78a46a7270b4daf4e1971946e560c653acf030dce3404acbdf0e164736f6c634300080c0033",
			"opcodes": "PUSH1 0x2 DUP1 SLOAD PUSH4 0xFFFFFFFF NOT AND PUSH1 0x5 SWAP1 DUP2 OR DUP3 SSTORE PUSH1 0x1 PUSH2 0x300 DUP2 DUP2 MSTORE PUSH2 0x320 DUP3 SWAP1 MSTORE PUSH2 0x340 DUP3 SWAP1 MSTORE PUSH2 0x360 DUP3 SWAP1 MSTORE PUSH2 0x380 DUP3 SWAP1 MSTORE PUSH1 0x80 SWAP1 DUP2 MSTORE PUSH1 0x0 PUSH2 0x3A0 DUP2 DUP2 MSTORE PUSH2 0x3C0 DUP3 SWAP1 MSTORE PUSH2 0x3E0 DUP3 SWAP1 MSTORE PUSH2 0x400 DUP3 SWAP1 MSTORE PUSH2 0x420 DUP3 SWAP1 MSTORE PUSH1 0xA0 MSTORE PUSH2 0x440 DUP6 DUP2 MSTORE PUSH2 0x460 DUP7 SWAP1 MSTORE PUSH2 0x480 DUP7 SWAP1 MSTORE PUSH2 0x4A0 DUP7 SWAP1 MSTORE PUSH2 0x4C0 DUP7 SWAP1 MSTORE PUSH1 0xC0 MSTORE PUSH2 0x4E0 DUP4 DUP2 MSTORE PUSH2 0x500 DUP5 SWAP1 MSTORE PUSH2 0x520 DUP3 SWAP1 MSTORE PUSH2 0x540 DUP5 SWAP1 MSTORE PUSH2 0x560 DUP7 SWAP1 MSTORE PUSH1 0xE0 MSTORE PUSH2 0x580 DUP4 DUP2 MSTORE PUSH2 0x5A0 DUP5 SWAP1 MSTORE PUSH2 0x5C0 DUP7 SWAP1 MSTORE PUSH2 0x5E0 DUP5 SWAP1 MSTORE PUSH2 0x600 DUP3 SWAP1 MSTORE PUSH2 0x100 MSTORE PUSH2 0x620 DUP4 DUP2 MSTORE PUSH2 0x640 DUP3 SWAP1 MSTORE PUSH2 0x660 DUP5 SWAP1 MSTORE PUSH2 0x680 DUP7 SWAP1 MSTORE PUSH2 0x6A0 DUP5 SWAP1 MSTORE PUSH2 0x120 MSTORE PUSH2 0x6C0 DUP4 DUP2 MSTORE PUSH2 0x6E0 DUP3 SWAP1 MSTORE PUSH2 0x700 DUP5 SWAP1 MSTORE PUSH2 0x720 DUP7 SWAP1 MSTORE PUSH2 0x740 DUP7 SWAP1 MSTORE PUSH2 0x140 MSTORE PUSH2 0x760 DUP4 DUP2 MSTORE PUSH2 0x780 DUP3 SWAP1 MSTORE PUSH2 0x7A0 DUP3 SWAP1 MSTORE PUSH2 0x7C0 DUP5 SWAP1 MSTORE PUSH2 0x7E0 DUP7 SWAP1 MSTORE PUSH2 0x160 MSTORE PUSH2 0x800 DUP4 DUP2 MSTORE PUSH2 0x820 DUP7 SWAP1 MSTORE PUSH2 0x840 DUP5 SWAP1 MSTORE PUSH2 0x860 DUP3 SWAP1 MSTORE PUSH2 0x880 DUP5 SWAP1 MSTORE PUSH2 0x180 MSTORE PUSH2 0x8A0 DUP4 DUP2 MSTORE PUSH2 0x8C0 DUP7 SWAP1 MSTORE PUSH2 0x8E0 DUP7 SWAP1 MSTORE PUSH2 0x900 DUP5 SWAP1 MSTORE PUSH2 0x920 DUP3 SWAP1 MSTORE PUSH2 0x1A0 MSTORE PUSH2 0x940 DUP4 DUP2 MSTORE PUSH2 0x960 DUP7 SWAP1 MSTORE PUSH2 0x980 DUP5 SWAP1 MSTORE PUSH2 0x9A0 DUP3 SWAP1 MSTORE PUSH2 0x9C0 DUP3 SWAP1 MSTORE PUSH2 0x1C0 MSTORE PUSH2 0x9E0 DUP2 DUP2 MSTORE PUSH2 0xA00 DUP5 SWAP1 MSTORE PUSH2 0xA20 DUP7 SWAP1 MSTORE PUSH2 0xA40 DUP5 SWAP1 MSTORE PUSH2 0xA60 DUP3 SWAP1 MSTORE PUSH2 0x1E0 MSTORE PUSH2 0xA80 DUP2 DUP2 MSTORE PUSH2 0xAA0 DUP5 SWAP1 MSTORE PUSH2 0xAC0 DUP5 SWAP1 MSTORE PUSH2 0xAE0 DUP5 SWAP1 MSTORE PUSH2 0xB00 DUP7 SWAP1 MSTORE PUSH2 0x200 MSTORE PUSH2 0xB20 DUP2 DUP2 MSTORE PUSH2 0xB40 DUP3 SWAP1 MSTORE PUSH2 0xB60 DUP5 SWAP1 MSTORE PUSH2 0xB80 DUP7 SWAP1 MSTORE PUSH2 0xBA0 DUP7 SWAP1 MSTORE PUSH2 0x220 MSTORE PUSH2 0xBC0 DUP2 DUP2 MSTORE PUSH2 0xBE0 DUP3 SWAP1 MSTORE PUSH2 0xC00 DUP5 SWAP1 MSTORE PUSH2 0xC20 DUP7 SWAP1 MSTORE PUSH2 0xC40 DUP5 SWAP1 MSTORE PUSH2 0x240 MSTORE PUSH2 0xC60 DUP2 DUP2 MSTORE PUSH2 0xC80 DUP3 SWAP1 MSTORE PUSH2 0xCA0 DUP3 SWAP1 MSTORE PUSH2 0xCC0 DUP5 SWAP1 MSTORE PUSH2 0xCE0 DUP7 SWAP1 MSTORE PUSH2 0x260 MSTORE PUSH2 0xD00 DUP6 DUP2 MSTORE PUSH2 0xD20 DUP5 SWAP1 MSTORE PUSH2 0xD40 DUP3 SWAP1 MSTORE PUSH2 0xD60 DUP5 SWAP1 MSTORE PUSH2 0xD80 DUP7 SWAP1 MSTORE PUSH2 0x280 MSTORE PUSH2 0xDA0 DUP6 DUP2 MSTORE PUSH2 0xDC0 DUP5 SWAP1 MSTORE PUSH2 0xDE0 DUP5 SWAP1 MSTORE PUSH2 0xE00 DUP5 SWAP1 MSTORE PUSH2 0xE20 DUP3 SWAP1 MSTORE PUSH2 0x2A0 MSTORE PUSH2 0xE40 DUP6 DUP2 MSTORE PUSH2 0xE60 DUP7 SWAP1 MSTORE PUSH2 0xE80 DUP5 SWAP1 MSTORE PUSH2 0xEA0 DUP3 SWAP1 MSTORE PUSH2 0xEC0 DUP3 SWAP1 MSTORE PUSH2 0x2C0 MSTORE PUSH2 0xF80 PUSH1 0x40 MSTORE PUSH2 0xEE0 DUP6 DUP2 MSTORE PUSH2 0xF00 SWAP6 SWAP1 SWAP6 MSTORE PUSH2 0xF20 DUP4 SWAP1 MSTORE PUSH2 0xF40 MSTORE PUSH2 0xF60 SWAP2 SWAP1 SWAP2 MSTORE PUSH2 0x2E0 SWAP3 SWAP1 SWAP3 MSTORE PUSH3 0x2D1 SWAP2 PUSH1 0x14 PUSH3 0x5AA JUMP JUMPDEST POP PUSH1 0x40 MLOAD DUP1 PUSH2 0x120 ADD PUSH1 0x40 MSTORE DUP1 PUSH1 0x40 MLOAD DUP1 PUSH1 0xA0 ADD PUSH1 0x40 MSTORE DUP1 PUSH1 0x0 DUP2 MSTORE PUSH1 0x20 ADD PUSH1 0x0 DUP2 MSTORE PUSH1 0x20 ADD PUSH1 0x14 DUP2 MSTORE PUSH1 0x20 ADD PUSH1 0x50 DUP2 MSTORE PUSH1 0x20 ADD PUSH1 0xC8 DUP2 MSTORE POP DUP2 MSTORE PUSH1 0x20 ADD PUSH1 0x40 MLOAD DUP1 PUSH1 0xA0 ADD PUSH1 0x40 MSTORE DUP1 PUSH1 0x0 DUP2 MSTORE PUSH1 0x20 ADD PUSH1 0x0 DUP2 MSTORE PUSH1 0x20 ADD PUSH1 0x28 DUP2 MSTORE PUSH1 0x20 ADD PUSH2 0x190 DUP2 MSTORE PUSH1 0x20 ADD PUSH2 0x7D0 DUP2 MSTORE POP DUP2 MSTORE PUSH1 0x20 ADD PUSH1 0x40 MLOAD DUP1 PUSH1 0xA0 ADD PUSH1 0x40 MSTORE DUP1 PUSH1 0x0 DUP2 MSTORE PUSH1 0x20 ADD PUSH1 0x8 DUP2 MSTORE PUSH1 0x20 ADD PUSH1 0xF DUP2 MSTORE PUSH1 0x20 ADD PUSH1 0x78 DUP2 MSTORE PUSH1 0x20 ADD PUSH2 0x1F4 DUP2 MSTORE POP DUP2 MSTORE PUSH1 0x20 ADD PUSH1 0x40 MLOAD DUP1 PUSH1 0xA0 ADD PUSH1 0x40 MSTORE DUP1 PUSH1 0x0 DUP2 MSTORE PUSH1 0x20 ADD PUSH1 0x2 DUP2 MSTORE PUSH1 0x20 ADD PUSH1 0x8 DUP2 MSTORE PUSH1 0x20 ADD PUSH1 0x14 DUP2 MSTORE PUSH1 0x20 ADD PUSH1 0x50 DUP2 MSTORE POP DUP2 MSTORE PUSH1 0x20 ADD PUSH1 0x40 MLOAD DUP1 PUSH1 0xA0 ADD PUSH1 0x40 MSTORE DUP1 PUSH1 0x0 DUP2 MSTORE PUSH1 0x20 ADD PUSH1 0x0 DUP2 MSTORE PUSH1 0x20 ADD PUSH1 0x8 DUP2 MSTORE PUSH1 0x20 ADD PUSH1 0x14 DUP2 MSTORE PUSH1 0x20 ADD PUSH1 0x50 DUP2 MSTORE POP DUP2 MSTORE PUSH1 0x20 ADD PUSH1 0x40 MLOAD DUP1 PUSH1 0xA0 ADD PUSH1 0x40 MSTORE DUP1 PUSH1 0x0 DUP2 MSTORE PUSH1 0x20 ADD PUSH1 0x0 DUP2 MSTORE PUSH1 0x20 ADD PUSH1 0x14 DUP2 MSTORE PUSH1 0x20 ADD PUSH1 0x50 DUP2 MSTORE PUSH1 0x20 ADD PUSH1 0xC8 DUP2 MSTORE POP DUP2 MSTORE PUSH1 0x20 ADD PUSH1 0x40 MLOAD DUP1 PUSH1 0xA0 ADD PUSH1 0x40 MSTORE DUP1 PUSH1 0x0 DUP2 MSTORE PUSH1 0x20 ADD PUSH1 0x0 DUP2 MSTORE PUSH1 0x20 ADD PUSH1 0x8 DUP2 MSTORE PUSH1 0x20 ADD PUSH1 0x14 DUP2 MSTORE PUSH1 0x20 ADD PUSH1 0x50 DUP2 MSTORE POP DUP2 MSTORE PUSH1 0x20 ADD PUSH1 0x40 MLOAD DUP1 PUSH1 0xA0 ADD PUSH1 0x40 MSTORE DUP1 PUSH1 0x0 DUP2 MSTORE PUSH1 0x20 ADD PUSH1 0x0 DUP2 MSTORE PUSH1 0x20 ADD PUSH1 0x14 DUP2 MSTORE PUSH1 0x20 ADD PUSH1 0xC8 DUP2 MSTORE PUSH1 0x20 ADD PUSH2 0x3E8 DUP2 MSTORE POP DUP2 MSTORE PUSH1 0x20 ADD PUSH1 0x40 MLOAD DUP1 PUSH1 0xA0 ADD PUSH1 0x40 MSTORE DUP1 PUSH1 0x0 DUP2 MSTORE PUSH1 0x20 ADD PUSH1 0x0 DUP2 MSTORE PUSH1 0x20 ADD PUSH1 0x2 DUP2 MSTORE PUSH1 0x20 ADD PUSH1 0x5 DUP2 MSTORE PUSH1 0x20 ADD PUSH1 0xF DUP2 MSTORE POP DUP2 MSTORE POP PUSH1 0x7 SWAP1 PUSH1 0x9 PUSH3 0x4AB SWAP3 SWAP2 SWAP1 PUSH3 0x60B JUMP JUMPDEST POP PUSH1 0x40 DUP1 MLOAD PUSH1 0xA0 DUP2 ADD DUP3 MSTORE PUSH3 0x186A0 DUP2 MSTORE PUSH2 0x2710 PUSH1 0x20 DUP3 ADD MSTORE PUSH2 0x3E8 SWAP2 DUP2 ADD SWAP2 SWAP1 SWAP2 MSTORE PUSH1 0x64 PUSH1 0x60 DUP3 ADD MSTORE PUSH1 0xA PUSH1 0x80 DUP3 ADD MSTORE PUSH3 0x4EC SWAP1 PUSH1 0x34 SWAP1 PUSH1 0x5 PUSH3 0x64B JUMP JUMPDEST POP PUSH1 0x40 DUP1 MLOAD PUSH1 0xA0 DUP2 ADD DUP3 MSTORE PUSH2 0x2710 DUP2 MSTORE PUSH2 0x3E8 PUSH1 0x20 DUP3 ADD MSTORE PUSH1 0x64 SWAP2 DUP2 ADD DUP3 SWAP1 MSTORE PUSH1 0x60 DUP2 ADD SWAP2 SWAP1 SWAP2 MSTORE PUSH1 0x1 PUSH1 0x80 DUP3 ADD MSTORE PUSH3 0x52B SWAP1 PUSH1 0x39 SWAP1 PUSH1 0x5 PUSH3 0x691 JUMP JUMPDEST POP PUSH1 0x0 PUSH1 0x3E DUP2 SWAP1 SSTORE PUSH1 0x3F DUP2 SWAP1 SSTORE PUSH1 0x40 SSTORE CALLVALUE DUP1 ISZERO PUSH3 0x548 JUMPI PUSH1 0x0 DUP1 REVERT JUMPDEST POP PUSH3 0x554 CALLER PUSH3 0x55A JUMP JUMPDEST PUSH3 0x777 JUMP JUMPDEST PUSH1 0x0 DUP1 SLOAD PUSH1 0x1 PUSH1 0x1 PUSH1 0xA0 SHL SUB DUP4 DUP2 AND PUSH1 0x1 PUSH1 0x1 PUSH1 0xA0 SHL SUB NOT DUP4 AND DUP2 OR DUP5 SSTORE PUSH1 0x40 MLOAD SWAP2 SWAP1 SWAP3 AND SWAP3 DUP4 SWAP2 PUSH32 0x8BE0079C531659141344CD1FD0A4F28419497F9722A3DAAFE3B4186F6B6457E0 SWAP2 SWAP1 LOG3 POP POP JUMP JUMPDEST DUP3 DUP1 SLOAD DUP3 DUP3 SSTORE SWAP1 PUSH1 0x0 MSTORE PUSH1 0x20 PUSH1 0x0 KECCAK256 SWAP1 PUSH1 0x5 MUL DUP2 ADD SWAP3 DUP3 ISZERO PUSH3 0x5F9 JUMPI SWAP2 PUSH1 0x20 MUL DUP3 ADD JUMPDEST DUP3 DUP2 GT ISZERO PUSH3 0x5F9 JUMPI DUP3 MLOAD PUSH3 0x5E8 SWAP1 DUP4 SWAP1 PUSH1 0x5 PUSH3 0x6C8 JUMP JUMPDEST POP SWAP2 PUSH1 0x20 ADD SWAP2 SWAP1 PUSH1 0x5 ADD SWAP1 PUSH3 0x5CE JUMP JUMPDEST POP PUSH3 0x607 SWAP3 SWAP2 POP PUSH3 0x6FE JUMP JUMPDEST POP SWAP1 JUMP JUMPDEST PUSH1 0x2D DUP4 ADD SWAP2 DUP4 SWAP1 DUP3 ISZERO PUSH3 0x5F9 JUMPI SWAP2 PUSH1 0x20 MUL DUP3 ADD JUMPDEST DUP3 DUP2 GT ISZERO PUSH3 0x5F9 JUMPI DUP3 MLOAD PUSH3 0x63A SWAP1 DUP4 SWAP1 PUSH1 0x5 PUSH3 0x72F JUMP JUMPDEST POP SWAP2 PUSH1 0x20 ADD SWAP2 SWAP1 PUSH1 0x5 ADD SWAP1 PUSH3 0x620 JUMP JUMPDEST DUP3 PUSH1 0x5 DUP2 ADD SWAP3 DUP3 ISZERO PUSH3 0x683 JUMPI SWAP2 PUSH1 0x20 MUL DUP3 ADD JUMPDEST DUP3 DUP2 GT ISZERO PUSH3 0x683 JUMPI DUP3 MLOAD DUP3 SWAP1 PUSH3 0xFFFFFF AND SWAP1 SSTORE SWAP2 PUSH1 0x20 ADD SWAP2 SWAP1 PUSH1 0x1 ADD SWAP1 PUSH3 0x65F JUMP JUMPDEST POP PUSH3 0x607 SWAP3 SWAP2 POP PUSH3 0x760 JUMP JUMPDEST DUP3 PUSH1 0x5 DUP2 ADD SWAP3 DUP3 ISZERO PUSH3 0x683 JUMPI SWAP2 PUSH1 0x20 MUL DUP3 ADD JUMPDEST DUP3 DUP2 GT ISZERO PUSH3 0x683 JUMPI DUP3 MLOAD DUP3 SWAP1 PUSH2 0xFFFF AND SWAP1 SSTORE SWAP2 PUSH1 0x20 ADD SWAP2 SWAP1 PUSH1 0x1 ADD SWAP1 PUSH3 0x6A5 JUMP JUMPDEST DUP3 PUSH1 0x5 DUP2 ADD SWAP3 DUP3 ISZERO PUSH3 0x683 JUMPI SWAP2 PUSH1 0x20 MUL DUP3 ADD JUMPDEST DUP3 DUP2 GT ISZERO PUSH3 0x683 JUMPI DUP3 MLOAD DUP3 SWAP1 PUSH1 0xFF AND SWAP1 SSTORE SWAP2 PUSH1 0x20 ADD SWAP2 SWAP1 PUSH1 0x1 ADD SWAP1 PUSH3 0x6DC JUMP JUMPDEST DUP1 DUP3 GT ISZERO PUSH3 0x607 JUMPI PUSH1 0x0 DUP1 DUP3 SSTORE PUSH1 0x1 DUP3 ADD DUP2 SWAP1 SSTORE PUSH1 0x2 DUP3 ADD DUP2 SWAP1 SSTORE PUSH1 0x3 DUP3 ADD DUP2 SWAP1 SSTORE PUSH1 0x4 DUP3 ADD SSTORE PUSH1 0x5 ADD PUSH3 0x6FE JUMP JUMPDEST DUP3 PUSH1 0x5 DUP2 ADD SWAP3 DUP3 ISZERO PUSH3 0x683 JUMPI SWAP2 PUSH1 0x20 MUL DUP3 ADD JUMPDEST DUP3 DUP2 GT ISZERO PUSH3 0x683 JUMPI DUP3 MLOAD DUP3 SSTORE SWAP2 PUSH1 0x20 ADD SWAP2 SWAP1 PUSH1 0x1 ADD SWAP1 PUSH3 0x743 JUMP JUMPDEST JUMPDEST DUP1 DUP3 GT ISZERO PUSH3 0x607 JUMPI PUSH1 0x0 DUP2 SSTORE PUSH1 0x1 ADD PUSH3 0x761 JUMP JUMPDEST PUSH2 0xD8F DUP1 PUSH3 0x787 PUSH1 0x0 CODECOPY PUSH1 0x0 RETURN INVALID PUSH1 0x80 PUSH1 0x40 MSTORE CALLVALUE DUP1 ISZERO PUSH2 0x10 JUMPI PUSH1 0x0 DUP1 REVERT JUMPDEST POP PUSH1 0x4 CALLDATASIZE LT PUSH2 0x93 JUMPI PUSH1 0x0 CALLDATALOAD PUSH1 0xE0 SHR DUP1 PUSH4 0x8DA5CB5B GT PUSH2 0x66 JUMPI DUP1 PUSH4 0x8DA5CB5B EQ PUSH2 0x117 JUMPI DUP1 PUSH4 0xB7013DC1 EQ PUSH2 0x132 JUMPI DUP1 PUSH4 0xDC8275E4 EQ PUSH2 0x150 JUMPI DUP1 PUSH4 0xF2FDE38B EQ PUSH2 0x163 JUMPI DUP1 PUSH4 0xF7E944EE EQ PUSH2 0x176 JUMPI PUSH1 0x0 DUP1 REVERT JUMPDEST DUP1 PUSH4 0x17ADAA03 EQ PUSH2 0x98 JUMPI DUP1 PUSH4 0x22526328 EQ PUSH2 0xE5 JUMPI DUP1 PUSH4 0x4282CF54 EQ PUSH2 0xFA JUMPI DUP1 PUSH4 0x715018A6 EQ PUSH2 0x10F JUMPI JUMPDEST PUSH1 0x0 DUP1 REVERT JUMPDEST PUSH2 0xAB PUSH2 0xA6 CALLDATASIZE PUSH1 0x4 PUSH2 0xB19 JUMP JUMPDEST PUSH2 0x189 JUMP JUMPDEST PUSH1 0x40 DUP1 MLOAD SWAP7 DUP8 MSTORE PUSH1 0x1 PUSH1 0x1 PUSH1 0xA0 SHL SUB SWAP1 SWAP6 AND PUSH1 0x20 DUP8 ADD MSTORE SWAP4 DUP6 ADD SWAP3 SWAP1 SWAP3 MSTORE PUSH1 0x60 DUP5 ADD MSTORE PUSH1 0x80 DUP4 ADD MSTORE PUSH1 0xA0 DUP3 ADD MSTORE PUSH1 0xC0 ADD JUMPDEST PUSH1 0x40 MLOAD DUP1 SWAP2 SUB SWAP1 RETURN JUMPDEST PUSH2 0xF8 PUSH2 0xF3 CALLDATASIZE PUSH1 0x4 PUSH2 0xB43 JUMP JUMPDEST PUSH2 0x1E7 JUMP JUMPDEST STOP JUMPDEST PUSH2 0x102 PUSH2 0x20E JUMP JUMPDEST PUSH1 0x40 MLOAD PUSH2 0xDC SWAP2 SWAP1 PUSH2 0xB5C JUMP JUMPDEST PUSH2 0xF8 PUSH2 0x28C JUMP JUMPDEST PUSH1 0x0 SLOAD PUSH1 0x40 MLOAD PUSH1 0x1 PUSH1 0x1 PUSH1 0xA0 SHL SUB SWAP1 SWAP2 AND DUP2 MSTORE PUSH1 0x20 ADD PUSH2 0xDC JUMP JUMPDEST CALLER PUSH1 0x0 SWAP1 DUP2 MSTORE PUSH1 0x4 PUSH1 0x20 MSTORE PUSH1 0x40 SWAP1 KECCAK256 SLOAD PUSH1 0x40 MLOAD SWAP1 DUP2 MSTORE PUSH1 0x20 ADD PUSH2 0xDC JUMP JUMPDEST PUSH2 0xF8 PUSH2 0x15E CALLDATASIZE PUSH1 0x4 PUSH2 0xBC6 JUMP JUMPDEST PUSH2 0x2A0 JUMP JUMPDEST PUSH2 0xF8 PUSH2 0x171 CALLDATASIZE PUSH1 0x4 PUSH2 0xBE8 JUMP JUMPDEST PUSH2 0x62A JUMP JUMPDEST PUSH2 0xF8 PUSH2 0x184 CALLDATASIZE PUSH1 0x4 PUSH2 0xB43 JUMP JUMPDEST PUSH2 0x6A3 JUMP JUMPDEST PUSH1 0x6 PUSH1 0x20 MSTORE DUP2 PUSH1 0x0 MSTORE PUSH1 0x40 PUSH1 0x0 KECCAK256 DUP2 DUP2 SLOAD DUP2 LT PUSH2 0x1A5 JUMPI PUSH1 0x0 DUP1 REVERT JUMPDEST PUSH1 0x0 SWAP2 DUP3 MSTORE PUSH1 0x20 SWAP1 SWAP2 KECCAK256 PUSH1 0xB SWAP1 SWAP2 MUL ADD DUP1 SLOAD PUSH1 0x1 DUP3 ADD SLOAD PUSH1 0x2 DUP4 ADD SLOAD PUSH1 0x3 DUP5 ADD SLOAD PUSH1 0x4 DUP6 ADD SLOAD PUSH1 0xA SWAP1 SWAP6 ADD SLOAD SWAP4 SWAP7 POP PUSH1 0x1 PUSH1 0x1 PUSH1 0xA0 SHL SUB SWAP1 SWAP3 AND SWAP5 POP SWAP3 SWAP1 SWAP2 DUP7 JUMP JUMPDEST CALLER PUSH1 0x0 SWAP1 DUP2 MSTORE PUSH1 0x4 PUSH1 0x20 MSTORE PUSH1 0x40 DUP2 KECCAK256 DUP1 SLOAD DUP4 SWAP3 SWAP1 PUSH2 0x206 SWAP1 DUP5 SWAP1 PUSH2 0xC20 JUMP JUMPDEST SWAP1 SWAP2 SSTORE POP POP POP JUMP JUMPDEST PUSH1 0x60 PUSH1 0x5 DUP1 SLOAD DUP1 PUSH1 0x20 MUL PUSH1 0x20 ADD PUSH1 0x40 MLOAD SWAP1 DUP2 ADD PUSH1 0x40 MSTORE DUP1 SWAP3 SWAP2 SWAP1 DUP2 DUP2 MSTORE PUSH1 0x20 ADD PUSH1 0x0 SWAP1 JUMPDEST DUP3 DUP3 LT ISZERO PUSH2 0x283 JUMPI PUSH1 0x0 DUP5 DUP2 MSTORE PUSH1 0x20 SWAP1 KECCAK256 PUSH1 0x40 DUP1 MLOAD PUSH1 0xA0 DUP2 ADD SWAP2 DUP3 SWAP1 MSTORE SWAP2 PUSH1 0x5 DUP6 DUP2 MUL SWAP1 SWAP2 ADD SWAP2 DUP3 DUP5 JUMPDEST DUP2 SLOAD DUP2 MSTORE PUSH1 0x20 ADD SWAP1 PUSH1 0x1 ADD SWAP1 DUP1 DUP4 GT PUSH2 0x25C JUMPI POP POP POP POP POP DUP2 MSTORE PUSH1 0x20 ADD SWAP1 PUSH1 0x1 ADD SWAP1 PUSH2 0x232 JUMP JUMPDEST POP POP POP POP SWAP1 POP SWAP1 JUMP JUMPDEST PUSH2 0x294 PUSH2 0x715 JUMP JUMPDEST PUSH2 0x29E PUSH1 0x0 PUSH2 0x76F JUMP JUMPDEST JUMP JUMPDEST PUSH1 0x0 PUSH2 0x2AD DUP3 PUSH1 0x1 PUSH2 0xC20 JUMP JUMPDEST PUSH2 0x2B7 SWAP1 DUP5 PUSH2 0xC38 JUMP JUMPDEST CALLER PUSH1 0x0 SWAP1 DUP2 MSTORE PUSH1 0x4 PUSH1 0x20 MSTORE PUSH1 0x40 SWAP1 KECCAK256 SLOAD SWAP1 SWAP2 POP DUP2 GT ISZERO PUSH2 0x314 JUMPI PUSH1 0x40 MLOAD PUSH3 0x461BCD PUSH1 0xE5 SHL DUP2 MSTORE PUSH1 0x20 PUSH1 0x4 DUP3 ADD MSTORE PUSH1 0x13 PUSH1 0x24 DUP3 ADD MSTORE PUSH19 0x10985B185B98D9481B9BDD08195B9BDD59DA1D PUSH1 0x6A SHL PUSH1 0x44 DUP3 ADD MSTORE PUSH1 0x64 ADD JUMPDEST PUSH1 0x40 MLOAD DUP1 SWAP2 SUB SWAP1 REVERT JUMPDEST PUSH1 0x5 SLOAD DUP3 LT PUSH2 0x356 JUMPI PUSH1 0x40 MLOAD PUSH3 0x461BCD PUSH1 0xE5 SHL DUP2 MSTORE PUSH1 0x20 PUSH1 0x4 DUP3 ADD MSTORE PUSH1 0xE PUSH1 0x24 DUP3 ADD MSTORE PUSH14 0x546F6F206D616E79206C696E6573 PUSH1 0x90 SHL PUSH1 0x44 DUP3 ADD MSTORE PUSH1 0x64 ADD PUSH2 0x30B JUMP JUMPDEST PUSH2 0x364 PUSH1 0x1 DUP1 SLOAD PUSH1 0x1 ADD SWAP1 SSTORE JUMP JUMPDEST PUSH1 0x0 PUSH2 0x36F PUSH1 0x1 SLOAD SWAP1 JUMP JUMPDEST SWAP1 POP PUSH1 0x0 DUP1 PUSH1 0x0 SHL SWAP1 POP PUSH1 0x0 PUSH1 0x40 MLOAD DUP1 PUSH1 0x60 ADD PUSH1 0x40 MSTORE DUP1 PUSH1 0x40 MLOAD DUP1 PUSH1 0xA0 ADD PUSH1 0x40 MSTORE DUP1 PUSH1 0x8 DUP2 MSTORE PUSH1 0x20 ADD PUSH1 0x8 DUP2 MSTORE PUSH1 0x20 ADD PUSH1 0x8 DUP2 MSTORE PUSH1 0x20 ADD PUSH1 0x8 DUP2 MSTORE PUSH1 0x20 ADD PUSH1 0x8 DUP2 MSTORE POP DUP2 MSTORE PUSH1 0x20 ADD PUSH1 0x40 MLOAD DUP1 PUSH1 0xA0 ADD PUSH1 0x40 MSTORE DUP1 PUSH1 0x0 DUP2 MSTORE PUSH1 0x20 ADD PUSH1 0x0 DUP2 MSTORE PUSH1 0x20 ADD PUSH1 0x0 DUP2 MSTORE PUSH1 0x20 ADD PUSH1 0x0 DUP2 MSTORE PUSH1 0x20 ADD PUSH1 0x0 DUP2 MSTORE POP DUP2 MSTORE PUSH1 0x20 ADD PUSH1 0x40 MLOAD DUP1 PUSH1 0xA0 ADD PUSH1 0x40 MSTORE DUP1 PUSH1 0x1 DUP2 MSTORE PUSH1 0x20 ADD PUSH1 0x1 DUP2 MSTORE PUSH1 0x20 ADD PUSH1 0x1 DUP2 MSTORE PUSH1 0x20 ADD PUSH1 0x1 DUP2 MSTORE PUSH1 0x20 ADD PUSH1 0x1 DUP2 MSTORE POP DUP2 MSTORE POP SWAP1 POP PUSH1 0x0 DUP1 PUSH1 0x0 PUSH2 0x426 PUSH2 0xA8B JUMP JUMPDEST PUSH2 0x42E PUSH2 0xA8B JUMP JUMPDEST PUSH1 0x0 DUP1 JUMPDEST DUP12 DUP2 LT ISZERO PUSH2 0x4BB JUMPI PUSH1 0x0 DUP1 PUSH2 0x447 DUP4 DUP12 PUSH2 0x7BF JUMP JUMPDEST SWAP1 SWAP3 POP SWAP1 POP PUSH2 0x456 DUP16 DUP4 PUSH2 0xC38 JUMP JUMPDEST SWAP2 POP PUSH2 0x462 DUP3 DUP6 PUSH2 0xC20 JUMP JUMPDEST SWAP4 POP DUP2 DUP7 DUP5 PUSH1 0x14 DUP2 LT PUSH2 0x477 JUMPI PUSH2 0x477 PUSH2 0xC57 JUMP JUMPDEST PUSH1 0x20 MUL ADD MSTORE DUP1 DUP6 DUP5 PUSH1 0x14 DUP2 LT PUSH2 0x48F JUMPI PUSH2 0x48F PUSH2 0xC57 JUMP JUMPDEST PUSH1 0x20 MUL ADD MSTORE DUP8 DUP3 GT ISZERO PUSH2 0x4A6 JUMPI DUP3 SWAP9 POP DUP2 SWAP8 POP DUP1 SWAP7 POP JUMPDEST POP POP DUP1 DUP1 PUSH2 0x4B3 SWAP1 PUSH2 0xC6D JUMP JUMPDEST SWAP2 POP POP PUSH2 0x432 JUMP JUMPDEST POP CALLER PUSH1 0x0 SWAP1 DUP2 MSTORE PUSH1 0x4 PUSH1 0x20 MSTORE PUSH1 0x40 SWAP1 KECCAK256 SLOAD DUP2 SWAP1 PUSH2 0x4D9 SWAP1 DUP13 SWAP1 PUSH2 0xC88 JUMP JUMPDEST PUSH2 0x4E3 SWAP2 SWAP1 PUSH2 0xC20 JUMP JUMPDEST CALLER PUSH1 0x0 DUP2 DUP2 MSTORE PUSH1 0x4 PUSH1 0x20 SWAP1 DUP2 MSTORE PUSH1 0x40 DUP1 DUP4 KECCAK256 SWAP5 SWAP1 SWAP5 SSTORE PUSH1 0x6 DUP2 MSTORE SWAP1 DUP4 SWAP1 KECCAK256 DUP4 MLOAD PUSH1 0xE0 DUP2 ADD DUP6 MSTORE DUP14 DUP2 MSTORE SWAP2 DUP3 ADD SWAP3 SWAP1 SWAP3 MSTORE SWAP2 DUP3 ADD DUP15 SWAP1 MSTORE TIMESTAMP PUSH1 0x60 DUP4 ADD MSTORE PUSH1 0x80 DUP3 ADD DUP14 SWAP1 MSTORE SWAP1 PUSH1 0xA0 DUP2 ADD DUP10 PUSH1 0x1 PUSH1 0x20 SWAP1 DUP2 MUL SWAP2 SWAP1 SWAP2 ADD MLOAD DUP3 MSTORE SWAP1 DUP2 ADD DUP5 SWAP1 MSTORE DUP3 SLOAD PUSH1 0x1 DUP1 DUP3 ADD DUP6 SSTORE PUSH1 0x0 SWAP5 DUP6 MSTORE SWAP4 DUP3 SWAP1 KECCAK256 DUP4 MLOAD PUSH1 0xB SWAP1 SWAP3 MUL ADD SWAP1 DUP2 SSTORE SWAP1 DUP3 ADD MLOAD SWAP3 DUP2 ADD DUP1 SLOAD PUSH1 0x1 PUSH1 0x1 PUSH1 0xA0 SHL SUB NOT AND PUSH1 0x1 PUSH1 0x1 PUSH1 0xA0 SHL SUB SWAP1 SWAP5 AND SWAP4 SWAP1 SWAP4 OR SWAP1 SWAP3 SSTORE PUSH1 0x40 DUP2 ADD MLOAD PUSH1 0x2 DUP4 ADD SSTORE PUSH1 0x60 DUP2 ADD MLOAD PUSH1 0x3 DUP4 ADD SSTORE PUSH1 0x80 DUP2 ADD MLOAD PUSH1 0x4 DUP4 ADD SSTORE PUSH1 0xA0 DUP2 ADD MLOAD SWAP1 SWAP2 SWAP1 PUSH2 0x5B8 SWAP1 PUSH1 0x5 DUP1 DUP5 ADD SWAP2 SWAP1 PUSH2 0xAAA JUMP JUMPDEST POP PUSH1 0xC0 SWAP2 SWAP1 SWAP2 ADD MLOAD PUSH1 0xA SWAP1 SWAP2 ADD SSTORE PUSH32 0x6C98C6AD5E22111183C867670BEAD07208DBD3ABA882D6BD87ADBBBDB645D59A CALLER DUP14 PUSH2 0x5F4 DUP15 PUSH1 0x1 PUSH2 0xC20 JUMP JUMPDEST PUSH1 0x20 DUP12 ADD MLOAD PUSH1 0x40 MLOAD PUSH2 0x614 SWAP5 SWAP4 SWAP3 SWAP2 DUP8 SWAP2 DUP11 SWAP1 DUP11 SWAP1 DUP16 SWAP1 DUP16 SWAP1 DUP16 SWAP1 PUSH2 0xCC8 JUMP JUMPDEST PUSH1 0x40 MLOAD DUP1 SWAP2 SUB SWAP1 LOG1 POP POP POP POP POP POP POP POP POP POP POP POP JUMP JUMPDEST PUSH2 0x632 PUSH2 0x715 JUMP JUMPDEST PUSH1 0x1 PUSH1 0x1 PUSH1 0xA0 SHL SUB DUP2 AND PUSH2 0x697 JUMPI PUSH1 0x40 MLOAD PUSH3 0x461BCD PUSH1 0xE5 SHL DUP2 MSTORE PUSH1 0x20 PUSH1 0x4 DUP3 ADD MSTORE PUSH1 0x26 PUSH1 0x24 DUP3 ADD MSTORE PUSH32 0x4F776E61626C653A206E6577206F776E657220697320746865207A65726F2061 PUSH1 0x44 DUP3 ADD MSTORE PUSH6 0x646472657373 PUSH1 0xD0 SHL PUSH1 0x64 DUP3 ADD MSTORE PUSH1 0x84 ADD PUSH2 0x30B JUMP JUMPDEST PUSH2 0x6A0 DUP2 PUSH2 0x76F JUMP JUMPDEST POP JUMP JUMPDEST PUSH2 0x6AB PUSH2 0x715 JUMP JUMPDEST PUSH1 0x0 TIMESTAMP PUSH1 0x3E SLOAD PUSH1 0x40 SLOAD PUSH1 0x3F SLOAD DUP6 PUSH2 0x6C1 PUSH1 0x1 SLOAD SWAP1 JUMP JUMPDEST PUSH1 0x40 DUP1 MLOAD PUSH1 0x20 DUP2 ADD SWAP8 SWAP1 SWAP8 MSTORE DUP7 ADD SWAP5 SWAP1 SWAP5 MSTORE PUSH1 0x60 DUP6 ADD SWAP3 SWAP1 SWAP3 MSTORE PUSH1 0x80 DUP5 ADD MSTORE PUSH1 0xA0 DUP4 ADD MSTORE PUSH1 0xC0 DUP3 ADD MSTORE PUSH1 0xE0 ADD PUSH1 0x40 DUP1 MLOAD PUSH1 0x1F NOT DUP2 DUP5 SUB ADD DUP2 MSTORE SWAP2 DUP2 MSTORE DUP2 MLOAD PUSH1 0x20 SWAP1 SWAP3 ADD SWAP2 SWAP1 SWAP2 KECCAK256 PUSH1 0x3F DUP1 SLOAD SWAP1 SWAP3 SSTORE SWAP1 SSTORE POP POP JUMP JUMPDEST PUSH1 0x0 SLOAD PUSH1 0x1 PUSH1 0x1 PUSH1 0xA0 SHL SUB AND CALLER EQ PUSH2 0x29E JUMPI PUSH1 0x40 MLOAD PUSH3 0x461BCD PUSH1 0xE5 SHL DUP2 MSTORE PUSH1 0x20 PUSH1 0x4 DUP3 ADD DUP2 SWAP1 MSTORE PUSH1 0x24 DUP3 ADD MSTORE PUSH32 0x4F776E61626C653A2063616C6C6572206973206E6F7420746865206F776E6572 PUSH1 0x44 DUP3 ADD MSTORE PUSH1 0x64 ADD PUSH2 0x30B JUMP JUMPDEST PUSH1 0x0 DUP1 SLOAD PUSH1 0x1 PUSH1 0x1 PUSH1 0xA0 SHL SUB DUP4 DUP2 AND PUSH1 0x1 PUSH1 0x1 PUSH1 0xA0 SHL SUB NOT DUP4 AND DUP2 OR DUP5 SSTORE PUSH1 0x40 MLOAD SWAP2 SWAP1 SWAP3 AND SWAP3 DUP4 SWAP2 PUSH32 0x8BE0079C531659141344CD1FD0A4F28419497F9722A3DAAFE3B4186F6B6457E0 SWAP2 SWAP1 LOG3 POP POP JUMP JUMPDEST PUSH1 0x0 DUP1 DUP1 DUP1 DUP1 DUP1 JUMPDEST PUSH1 0x5 DUP2 LT ISZERO PUSH2 0x85E JUMPI PUSH1 0x1 DUP8 PUSH1 0x5 DUP11 DUP2 SLOAD DUP2 LT PUSH2 0x7E6 JUMPI PUSH2 0x7E6 PUSH2 0xC57 JUMP JUMPDEST SWAP1 PUSH1 0x0 MSTORE PUSH1 0x20 PUSH1 0x0 KECCAK256 SWAP1 PUSH1 0x5 MUL ADD DUP4 PUSH1 0x5 DUP2 LT PUSH2 0x805 JUMPI PUSH2 0x805 PUSH2 0xC57 JUMP JUMPDEST ADD SLOAD PUSH1 0x3 DUP2 LT PUSH2 0x817 JUMPI PUSH2 0x817 PUSH2 0xC57 JUMP JUMPDEST PUSH1 0x20 MUL ADD MLOAD DUP3 PUSH1 0x5 DUP2 LT PUSH2 0x82D JUMPI PUSH2 0x82D PUSH2 0xC57 JUMP JUMPDEST PUSH1 0x20 MUL ADD MLOAD EQ PUSH2 0x83F JUMPI DUP1 SWAP3 POP PUSH2 0x85E JUMP JUMPDEST DUP4 PUSH2 0x849 DUP2 PUSH2 0xC6D JUMP JUMPDEST SWAP5 POP POP DUP1 PUSH2 0x856 DUP2 PUSH2 0xC6D JUMP JUMPDEST SWAP2 POP POP PUSH2 0x7C7 JUMP JUMPDEST POP PUSH1 0x0 DUP4 GT DUP1 ISZERO PUSH2 0x88D JUMPI POP PUSH1 0x0 PUSH1 0xC PUSH2 0x879 PUSH1 0x1 DUP7 PUSH2 0xC88 JUMP JUMPDEST PUSH1 0x5 DUP2 LT PUSH2 0x889 JUMPI PUSH2 0x889 PUSH2 0xC57 JUMP JUMPDEST ADD SLOAD GT JUMPDEST ISZERO PUSH2 0x8C3 JUMPI PUSH1 0x0 PUSH1 0xC PUSH2 0x8A1 PUSH1 0x1 DUP7 PUSH2 0xC88 JUMP JUMPDEST PUSH1 0x5 DUP2 LT PUSH2 0x8B1 JUMPI PUSH2 0x8B1 PUSH2 0xC57 JUMP JUMPDEST ADD SLOAD SWAP6 POP PUSH1 0x1 SWAP5 POP PUSH2 0xA84 SWAP4 POP POP POP POP JUMP JUMPDEST DUP6 PUSH1 0x5 DUP9 DUP2 SLOAD DUP2 LT PUSH2 0x8D7 JUMPI PUSH2 0x8D7 PUSH2 0xC57 JUMP JUMPDEST SWAP1 PUSH1 0x0 MSTORE PUSH1 0x20 PUSH1 0x0 KECCAK256 SWAP1 PUSH1 0x5 MUL ADD DUP4 PUSH1 0x5 DUP2 LT PUSH2 0x8F6 JUMPI PUSH2 0x8F6 PUSH2 0xC57 JUMP JUMPDEST ADD SLOAD PUSH1 0x3 DUP2 LT PUSH2 0x908 JUMPI PUSH2 0x908 PUSH2 0xC57 JUMP JUMPDEST PUSH1 0x20 MUL ADD MLOAD DUP3 PUSH1 0x5 DUP2 LT PUSH2 0x91E JUMPI PUSH2 0x91E PUSH2 0xC57 JUMP JUMPDEST PUSH1 0x20 MUL ADD MLOAD SWAP1 POP PUSH1 0x0 PUSH2 0x932 DUP4 PUSH1 0x1 PUSH2 0xC20 JUMP JUMPDEST SWAP1 POP JUMPDEST PUSH1 0x5 DUP2 LT ISZERO PUSH2 0xA38 JUMPI DUP2 DUP8 PUSH1 0x5 DUP11 DUP2 SLOAD DUP2 LT PUSH2 0x953 JUMPI PUSH2 0x953 PUSH2 0xC57 JUMP JUMPDEST SWAP1 PUSH1 0x0 MSTORE PUSH1 0x20 PUSH1 0x0 KECCAK256 SWAP1 PUSH1 0x5 MUL ADD DUP4 PUSH1 0x5 DUP2 LT PUSH2 0x972 JUMPI PUSH2 0x972 PUSH2 0xC57 JUMP JUMPDEST ADD SLOAD PUSH1 0x3 DUP2 LT PUSH2 0x984 JUMPI PUSH2 0x984 PUSH2 0xC57 JUMP JUMPDEST PUSH1 0x20 MUL ADD MLOAD DUP3 PUSH1 0x5 DUP2 LT PUSH2 0x99A JUMPI PUSH2 0x99A PUSH2 0xC57 JUMP JUMPDEST PUSH1 0x20 MUL ADD MLOAD EQ DUP1 PUSH2 0xA0A JUMPI POP PUSH1 0x1 DUP8 PUSH1 0x5 DUP11 DUP2 SLOAD DUP2 LT PUSH2 0x9BC JUMPI PUSH2 0x9BC PUSH2 0xC57 JUMP JUMPDEST SWAP1 PUSH1 0x0 MSTORE PUSH1 0x20 PUSH1 0x0 KECCAK256 SWAP1 PUSH1 0x5 MUL ADD DUP4 PUSH1 0x5 DUP2 LT PUSH2 0x9DB JUMPI PUSH2 0x9DB PUSH2 0xC57 JUMP JUMPDEST ADD SLOAD PUSH1 0x3 DUP2 LT PUSH2 0x9ED JUMPI PUSH2 0x9ED PUSH2 0xC57 JUMP JUMPDEST PUSH1 0x20 MUL ADD MLOAD DUP3 PUSH1 0x5 DUP2 LT PUSH2 0xA03 JUMPI PUSH2 0xA03 PUSH2 0xC57 JUMP JUMPDEST PUSH1 0x20 MUL ADD MLOAD EQ JUMPDEST ISZERO PUSH2 0xA21 JUMPI DUP4 PUSH2 0xA19 DUP2 PUSH2 0xC6D JUMP JUMPDEST SWAP5 POP POP PUSH2 0xA26 JUMP JUMPDEST PUSH2 0xA38 JUMP JUMPDEST DUP1 PUSH2 0xA30 DUP2 PUSH2 0xC6D JUMP JUMPDEST SWAP2 POP POP PUSH2 0x935 JUMP JUMPDEST POP DUP3 ISZERO PUSH2 0xA79 JUMPI PUSH1 0x0 PUSH1 0x7 DUP3 PUSH1 0x9 DUP2 LT PUSH2 0xA54 JUMPI PUSH2 0xA54 PUSH2 0xC57 JUMP JUMPDEST PUSH1 0x5 MUL ADD DUP5 PUSH1 0x5 DUP2 LT PUSH2 0xA69 JUMPI PUSH2 0xA69 PUSH2 0xC57 JUMP JUMPDEST ADD SLOAD SWAP6 POP SWAP1 SWAP4 POP PUSH2 0xA84 SWAP3 POP POP POP JUMP JUMPDEST PUSH1 0x0 DUP1 SWAP5 POP SWAP5 POP POP POP POP JUMPDEST SWAP3 POP SWAP3 SWAP1 POP JUMP JUMPDEST PUSH1 0x40 MLOAD DUP1 PUSH2 0x280 ADD PUSH1 0x40 MSTORE DUP1 PUSH1 0x14 SWAP1 PUSH1 0x20 DUP3 MUL DUP1 CALLDATASIZE DUP4 CALLDATACOPY POP SWAP2 SWAP3 SWAP2 POP POP JUMP JUMPDEST DUP3 PUSH1 0x5 DUP2 ADD SWAP3 DUP3 ISZERO PUSH2 0xAD8 JUMPI SWAP2 PUSH1 0x20 MUL DUP3 ADD JUMPDEST DUP3 DUP2 GT ISZERO PUSH2 0xAD8 JUMPI DUP3 MLOAD DUP3 SSTORE SWAP2 PUSH1 0x20 ADD SWAP2 SWAP1 PUSH1 0x1 ADD SWAP1 PUSH2 0xABD JUMP JUMPDEST POP PUSH2 0xAE4 SWAP3 SWAP2 POP PUSH2 0xAE8 JUMP JUMPDEST POP SWAP1 JUMP JUMPDEST JUMPDEST DUP1 DUP3 GT ISZERO PUSH2 0xAE4 JUMPI PUSH1 0x0 DUP2 SSTORE PUSH1 0x1 ADD PUSH2 0xAE9 JUMP JUMPDEST DUP1 CALLDATALOAD PUSH1 0x1 PUSH1 0x1 PUSH1 0xA0 SHL SUB DUP2 AND DUP2 EQ PUSH2 0xB14 JUMPI PUSH1 0x0 DUP1 REVERT JUMPDEST SWAP2 SWAP1 POP JUMP JUMPDEST PUSH1 0x0 DUP1 PUSH1 0x40 DUP4 DUP6 SUB SLT ISZERO PUSH2 0xB2C JUMPI PUSH1 0x0 DUP1 REVERT JUMPDEST PUSH2 0xB35 DUP4 PUSH2 0xAFD JUMP JUMPDEST SWAP5 PUSH1 0x20 SWAP4 SWAP1 SWAP4 ADD CALLDATALOAD SWAP4 POP POP POP JUMP JUMPDEST PUSH1 0x0 PUSH1 0x20 DUP3 DUP5 SUB SLT ISZERO PUSH2 0xB55 JUMPI PUSH1 0x0 DUP1 REVERT JUMPDEST POP CALLDATALOAD SWAP2 SWAP1 POP JUMP JUMPDEST PUSH1 0x20 DUP1 DUP3 MSTORE DUP3 MLOAD DUP3 DUP3 ADD DUP2 SWAP1 MSTORE PUSH1 0x0 SWAP2 SWAP1 DUP5 DUP3 ADD SWAP1 PUSH1 0x40 DUP6 ADD SWAP1 DUP5 DUP1 JUMPDEST DUP3 DUP2 LT ISZERO PUSH2 0xBB9 JUMPI DUP5 MLOAD DUP5 DUP4 JUMPDEST PUSH1 0x5 DUP2 LT ISZERO PUSH2 0xBA3 JUMPI DUP3 MLOAD DUP3 MSTORE SWAP2 DUP9 ADD SWAP2 SWAP1 DUP9 ADD SWAP1 PUSH1 0x1 ADD PUSH2 0xB86 JUMP JUMPDEST POP POP POP SWAP4 DUP6 ADD SWAP4 PUSH1 0xA0 SWAP4 SWAP1 SWAP4 ADD SWAP3 PUSH1 0x1 ADD PUSH2 0xB79 JUMP JUMPDEST POP SWAP2 SWAP8 SWAP7 POP POP POP POP POP POP POP JUMP JUMPDEST PUSH1 0x0 DUP1 PUSH1 0x40 DUP4 DUP6 SUB SLT ISZERO PUSH2 0xBD9 JUMPI PUSH1 0x0 DUP1 REVERT JUMPDEST POP POP DUP1 CALLDATALOAD SWAP3 PUSH1 0x20 SWAP1 SWAP2 ADD CALLDATALOAD SWAP2 POP JUMP JUMPDEST PUSH1 0x0 PUSH1 0x20 DUP3 DUP5 SUB SLT ISZERO PUSH2 0xBFA JUMPI PUSH1 0x0 DUP1 REVERT JUMPDEST PUSH2 0xC03 DUP3 PUSH2 0xAFD JUMP JUMPDEST SWAP4 SWAP3 POP POP POP JUMP JUMPDEST PUSH4 0x4E487B71 PUSH1 0xE0 SHL PUSH1 0x0 MSTORE PUSH1 0x11 PUSH1 0x4 MSTORE PUSH1 0x24 PUSH1 0x0 REVERT JUMPDEST PUSH1 0x0 DUP3 NOT DUP3 GT ISZERO PUSH2 0xC33 JUMPI PUSH2 0xC33 PUSH2 0xC0A JUMP JUMPDEST POP ADD SWAP1 JUMP JUMPDEST PUSH1 0x0 DUP2 PUSH1 0x0 NOT DIV DUP4 GT DUP3 ISZERO ISZERO AND ISZERO PUSH2 0xC52 JUMPI PUSH2 0xC52 PUSH2 0xC0A JUMP JUMPDEST POP MUL SWAP1 JUMP JUMPDEST PUSH4 0x4E487B71 PUSH1 0xE0 SHL PUSH1 0x0 MSTORE PUSH1 0x32 PUSH1 0x4 MSTORE PUSH1 0x24 PUSH1 0x0 REVERT JUMPDEST PUSH1 0x0 PUSH1 0x0 NOT DUP3 EQ ISZERO PUSH2 0xC81 JUMPI PUSH2 0xC81 PUSH2 0xC0A JUMP JUMPDEST POP PUSH1 0x1 ADD SWAP1 JUMP JUMPDEST PUSH1 0x0 DUP3 DUP3 LT ISZERO PUSH2 0xC9A JUMPI PUSH2 0xC9A PUSH2 0xC0A JUMP JUMPDEST POP SUB SWAP1 JUMP JUMPDEST DUP1 PUSH1 0x0 JUMPDEST PUSH1 0x14 DUP2 LT ISZERO PUSH2 0xCC2 JUMPI DUP2 MLOAD DUP5 MSTORE PUSH1 0x20 SWAP4 DUP5 ADD SWAP4 SWAP1 SWAP2 ADD SWAP1 PUSH1 0x1 ADD PUSH2 0xCA3 JUMP JUMPDEST POP POP POP POP JUMP JUMPDEST PUSH1 0x1 PUSH1 0x1 PUSH1 0xA0 SHL SUB DUP12 AND DUP2 MSTORE PUSH1 0x20 DUP1 DUP3 ADD DUP12 SWAP1 MSTORE PUSH1 0x40 DUP3 ADD DUP11 SWAP1 MSTORE PUSH1 0x60 DUP3 ADD DUP10 SWAP1 MSTORE PUSH2 0x680 DUP3 ADD SWAP1 PUSH1 0x80 DUP4 ADD DUP10 PUSH1 0x0 JUMPDEST PUSH1 0x5 DUP2 LT ISZERO PUSH2 0xD15 JUMPI DUP2 MLOAD DUP4 MSTORE SWAP2 DUP4 ADD SWAP2 SWAP1 DUP4 ADD SWAP1 PUSH1 0x1 ADD PUSH2 0xCF8 JUMP JUMPDEST POP POP POP POP PUSH2 0xD27 PUSH2 0x120 DUP4 ADD DUP9 PUSH2 0xC9F JUMP JUMPDEST PUSH2 0xD35 PUSH2 0x3A0 DUP4 ADD DUP8 PUSH2 0xC9F JUMP JUMPDEST DUP5 PUSH2 0x620 DUP4 ADD MSTORE DUP4 PUSH2 0x640 DUP4 ADD MSTORE DUP3 PUSH2 0x660 DUP4 ADD MSTORE SWAP12 SWAP11 POP POP POP POP POP POP POP POP POP POP POP JUMP INVALID LOG2 PUSH5 0x6970667358 0x22 SLT KECCAK256 CODECOPY PUSH6 0x5E7498C78A46 0xA7 0x27 SIGNEXTEND 0x4D 0xAF 0x4E NOT PUSH18 0x946E560C653ACF030DCE3404ACBDF0E16473 PUSH16 0x6C634300080C00330000000000000000 "
		},
		"gasEstimates": {
			"creation": {
				"codeDepositCost": "694200",
				"executionCost": "infinite",
				"totalCost": "infinite"
			},
			"external": {
				"addUserBalance(uint256)": "24612",
				"doSpin(uint256,uint256)": "infinite",
				"flushRandom(bytes32)": "57497",
				"getUserBalance()": "2370",
				"getWinLines()": "infinite",
				"owner()": "2301",
				"playerSpins(address,uint256)": "15447",
				"renounceOwnership()": "infinite",
				"transferOwnership(address)": "28399"
			},
			"internal": {
				"checkLine(uint256,uint256[5] memory[3] memory)": "infinite",
				"getRandom(bytes32,uint256)": "infinite",
				"getRandomBase(bytes32)": "infinite",
				"getWinLine(uint32)": "infinite",
				"spinReels(bytes32)": "infinite"
			}
		},
		"methodIdentifiers": {
			"addUserBalance(uint256)": "22526328",
			"doSpin(uint256,uint256)": "dc8275e4",
			"flushRandom(bytes32)": "f7e944ee",
			"getUserBalance()": "b7013dc1",
			"getWinLines()": "4282cf54",
			"owner()": "8da5cb5b",
			"playerSpins(address,uint256)": "17adaa03",
			"renounceOwnership()": "715018a6",
			"transferOwnership(address)": "f2fde38b"
		}
	},
	"abi": [
		{
			"inputs": [],
			"stateMutability": "nonpayable",
			"type": "constructor"
		},
		{
			"anonymous": false,
			"inputs": [
				{
					"indexed": false,
					"internalType": "string",
					"name": "desc",
					"type": "string"
				},
				{
					"indexed": false,
					"internalType": "uint256[5]",
					"name": "value",
					"type": "uint256[5]"
				}
			],
			"name": "LogLine",
			"type": "event"
		},
		{
			"anonymous": false,
			"inputs": [
				{
					"indexed": false,
					"internalType": "string",
					"name": "desc",
					"type": "string"
				},
				{
					"indexed": false,
					"internalType": "uint256[5][3]",
					"name": "value",
					"type": "uint256[5][3]"
				}
			],
			"name": "LogSlots",
			"type": "event"
		},
		{
			"anonymous": false,
			"inputs": [
				{
					"indexed": false,
					"internalType": "string",
					"name": "message",
					"type": "string"
				}
			],
			"name": "LogString",
			"type": "event"
		},
		{
			"anonymous": false,
			"inputs": [
				{
					"indexed": false,
					"internalType": "string",
					"name": "desc",
					"type": "string"
				},
				{
					"indexed": false,
					"internalType": "uint256",
					"name": "value",
					"type": "uint256"
				}
			],
			"name": "LogUint256",
			"type": "event"
		},
		{
			"anonymous": false,
			"inputs": [
				{
					"indexed": false,
					"internalType": "string",
					"name": "desc",
					"type": "string"
				},
				{
					"indexed": false,
					"internalType": "uint256[]",
					"name": "value",
					"type": "uint256[]"
				}
			],
			"name": "LogUint256Array",
			"type": "event"
		},
		{
			"anonymous": false,
			"inputs": [
				{
					"indexed": true,
					"internalType": "address",
					"name": "previousOwner",
					"type": "address"
				},
				{
					"indexed": true,
					"internalType": "address",
					"name": "newOwner",
					"type": "address"
				}
			],
			"name": "OwnershipTransferred",
			"type": "event"
		},
		{
			"anonymous": false,
			"inputs": [
				{
					"indexed": false,
					"internalType": "address",
					"name": "user",
					"type": "address"
				},
				{
					"indexed": false,
					"internalType": "uint256",
					"name": "bet",
					"type": "uint256"
				},
				{
					"indexed": false,
					"internalType": "uint256",
					"name": "lines",
					"type": "uint256"
				},
				{
					"indexed": false,
					"internalType": "uint256",
					"name": "winAmount",
					"type": "uint256"
				},
				{
					"indexed": false,
					"internalType": "uint256[5]",
					"name": "slots",
					"type": "uint256[5]"
				},
				{
					"indexed": false,
					"internalType": "uint256[20]",
					"name": "spinWinLines",
					"type": "uint256[20]"
				},
				{
					"indexed": false,
					"internalType": "uint256[20]",
					"name": "spinWinSlots",
					"type": "uint256[20]"
				},
				{
					"indexed": false,
					"internalType": "uint256",
					"name": "maxLine",
					"type": "uint256"
				},
				{
					"indexed": false,
					"internalType": "uint256",
					"name": "maxLineWin",
					"type": "uint256"
				},
				{
					"indexed": false,
					"internalType": "uint256",
					"name": "maxWinSlot",
					"type": "uint256"
				}
			],
			"name": "ReelsSpinned",
			"type": "event"
		},
		{
			"inputs": [
				{
					"internalType": "uint256",
					"name": "bets",
					"type": "uint256"
				}
			],
			"name": "addUserBalance",
			"outputs": [],
			"stateMutability": "nonpayable",
			"type": "function"
		},
		{
			"inputs": [
				{
					"internalType": "uint256",
					"name": "bet",
					"type": "uint256"
				},
				{
					"internalType": "uint256",
					"name": "lineCount",
					"type": "uint256"
				}
			],
			"name": "doSpin",
			"outputs": [],
			"stateMutability": "nonpayable",
			"type": "function"
		},
		{
			"inputs": [
				{
					"internalType": "bytes32",
					"name": "_flushSeed",
					"type": "bytes32"
				}
			],
			"name": "flushRandom",
			"outputs": [],
			"stateMutability": "nonpayable",
			"type": "function"
		},
		{
			"inputs": [],
			"name": "getUserBalance",
			"outputs": [
				{
					"internalType": "uint256",
					"name": "",
					"type": "uint256"
				}
			],
			"stateMutability": "view",
			"type": "function"
		},
		{
			"inputs": [],
			"name": "getWinLines",
			"outputs": [
				{
					"internalType": "uint256[5][]",
					"name": "",
					"type": "uint256[5][]"
				}
			],
			"stateMutability": "view",
			"type": "function"
		},
		{
			"inputs": [],
			"name": "owner",
			"outputs": [
				{
					"internalType": "address",
					"name": "",
					"type": "address"
				}
			],
			"stateMutability": "view",
			"type": "function"
		},
		{
			"inputs": [
				{
					"internalType": "address",
					"name": "",
					"type": "address"
				},
				{
					"internalType": "uint256",
					"name": "",
					"type": "uint256"
				}
			],
			"name": "playerSpins",
			"outputs": [
				{
					"internalType": "uint256",
					"name": "spinId",
					"type": "uint256"
				},
				{
					"internalType": "address",
					"name": "player",
					"type": "address"
				},
				{
					"internalType": "uint256",
					"name": "bet",
					"type": "uint256"
				},
				{
					"internalType": "uint256",
					"name": "utx",
					"type": "uint256"
				},
				{
					"internalType": "uint256",
					"name": "lines",
					"type": "uint256"
				},
				{
					"internalType": "uint256",
					"name": "winAmount",
					"type": "uint256"
				}
			],
			"stateMutability": "view",
			"type": "function"
		},
		{
			"inputs": [],
			"name": "renounceOwnership",
			"outputs": [],
			"stateMutability": "nonpayable",
			"type": "function"
		},
		{
			"inputs": [
				{
					"internalType": "address",
					"name": "newOwner",
					"type": "address"
				}
			],
			"name": "transferOwnership",
			"outputs": [],
			"stateMutability": "nonpayable",
			"type": "function"
		}
	]
}