{
	"data": {
		"bytecode": {
			"linkReferences": {},
			"object": "6002805463ffffffff191660051781556001610300818152610320829052610340829052610360829052610380829052608090815260006103a08181526103c08290526103e082905261040082905261042082905260a0526104408481526104608590526104808590526104a08590526104c085905260c0526104e083815261050084905261052082905261054084905261056085905260e0526105808381526105a08490526105c08590526105e0849052610600829052610100526106208381526106408290526106608490526106808590526106a0849052610120526106c08381526106e0829052610700849052610720859052610740859052610140526107608381526107808290526107a08290526107c08490526107e085905261016052610800838152610820859052610840849052610860829052610880849052610180526108a08381526108c08590526108e08590526109008490526109208290526101a0526109408381526109608590526109808490526109a08290526109c08290526101c0526109e0818152610a00849052610a20859052610a40849052610a608290526101e052610a80818152610aa0849052610ac0849052610ae0849052610b0085905261020052610b20818152610b40829052610b60849052610b80859052610ba085905261022052610bc0818152610be0829052610c00849052610c20859052610c4084905261024052610c60818152610c80829052610ca0829052610cc0849052610ce085905261026052610d00848152610d20849052610d40829052610d60849052610d8085905261028052610da0848152610dc0849052610de0849052610e00849052610e208290526102a052610e40848152610e60859052610e80849052610ea0829052610ec08290526102c052610f80604052610ee0848152610f0094909452610f20839052610f4052610f60919091526102e091909152620002d2906006906014620005ab565b506040518061012001604052806040518060a001604052806000815260200160008152602001601481526020016050815260200160c881525081526020016040518060a0016040528060008152602001600081526020016028815260200161019081526020016107d081525081526020016040518060a001604052806000815260200160088152602001600f8152602001607881526020016101f481525081526020016040518060a0016040528060008152602001600281526020016008815260200160148152602001605081525081526020016040518060a0016040528060008152602001600081526020016008815260200160148152602001605081525081526020016040518060a001604052806000815260200160008152602001601481526020016050815260200160c881525081526020016040518060a0016040528060008152602001600081526020016008815260200160148152602001605081525081526020016040518060a0016040528060008152602001600081526020016014815260200160c881526020016103e881525081526020016040518060a0016040528060008152602001600081526020016002815260200160058152602001600f8152508152506008906009620004ac92919062000609565b506040805160a081018252620186a0815261271060208201526103e89181019190915260646060820152600a6080820152620004ed90603590600562000657565b506040805160a08101825261271081526103e8602082015260649181018290526060810191909152600160808201526200052c90603a9060056200069d565b506000603f81905560408190556041553480156200054957600080fd5b5062000555336200055b565b620007d4565b600080546001600160a01b038381166001600160a01b0319831681178455604051919092169283917f8be0079c531659141344cd1fd0a4f28419497f9722a3daafe3b4186f6b6457e09190a35050565b828054828255906000526020600020908101928215620005f7579160200282015b82811115620005f7578251620005e69083906005620006d4565b5091602001919060010190620005cc565b506200060592915062000717565b5090565b602d8301918390821562000649579160200282015b828111156200064957825162000638908390600562000738565b50916020019190600501906200061e565b506200060592915062000769565b82600581019282156200068f579160200282015b828111156200068f578251829062ffffff169055916020019190600101906200066b565b50620006059291506200079a565b82600581019282156200068f579160200282015b828111156200068f578251829061ffff16905591602001919060010190620006b1565b8280548282559060005260206000209081019282156200068f579160200282015b828111156200068f578251829060ff16905591602001919060010190620006f5565b80821115620006055760006200072e8282620007b1565b5060010162000717565b82600581019282156200068f579160200282015b828111156200068f5782518255916020019190600101906200074c565b8082111562000605576000808255600182018190556002820181905560038201819055600482015560050162000769565b5b808211156200060557600081556001016200079b565b5080546000825590600052602060002090810190620007d191906200079a565b50565b610f8d80620007e46000396000f3fe608060405234801561001057600080fd5b506004361061009e5760003560e01c80638da5cb5b116100665780638da5cb5b14610141578063b7013dc11461015c578063dc8275e41461017a578063f2fde38b1461018d578063f7e944ee146101a057600080fd5b806317adaa03146100a357806322526328146100fa5780634282cf541461010f578063696155c514610124578063715018a614610139575b600080fd5b6100b66100b1366004610ce9565b6101b3565b604080516001600160a01b0390981688526020880196909652948601939093526060850191909152608084015260a083015260c082015260e0015b60405180910390f35b61010d610108366004610d13565b610217565b005b61011761023e565b6040516100f19190610d2c565b61012c6102d7565b6040516100f19190610ddf565b61010d61031e565b6000546040516001600160a01b0390911681526020016100f1565b336000908152600560205260409020546040519081526020016100f1565b61010d610188366004610df3565b610332565b61010d61019b366004610e15565b61072e565b61010d6101ae366004610d13565b6107a7565b600760205281600052604060002081815481106101cf57600080fd5b60009182526020909120600c9091020180546001820154600283015460038401546009850154600a860154600b909601546001600160a01b0390951697509295509093909287565b3360009081526005602052604081208054839290610236908490610e4d565b909155505050565b60606006805480602002602001604051908101604052809291908181526020016000905b828210156102ce576000848152602090819020830180546040805182850281018501909152818152928301828280156102ba57602002820191906000526020600020905b8154815260200190600101908083116102a6575b505050505081526020019060010190610262565b50505050905090565b6102df610c5c565b3360009081526004602052604090819020815160a08101928390529160059082845b815481526020019060010190808311610301575050505050905090565b610326610817565b6103306000610871565b565b3360009081526005602052604081205461034d908490610e65565b101561038a5760405162461bcd60e51b815260206004820152600760248201526642616c616e636560c81b60448201526064015b60405180910390fd5b60065481106103cc5760405162461bcd60e51b815260206004820152600e60248201526d546f6f206d616e79206c696e657360901b6044820152606401610381565b6000806103d8816108c1565b905060006103e9620186a083610e92565b6103f690620186a0610e4d565b9050600080600060405180606001604052806040518060a0016040528060008152602001600081526020016000815260200160008152602001600081525081526020016040518060a00160405280603a60006005811061045857610458610ea6565b015460355461046d9063ffffffff8b16610e92565b6104779190610ebc565b8152603b546036546020909201916104959063ffffffff8b16610e92565b61049f9190610ebc565b8152603c546037546020909201916104bd9063ffffffff8b16610e92565b6104c79190610ebc565b8152603d546038546020909201916104e59063ffffffff8b16610e92565b6104ef9190610ebc565b8152603e5460395460209092019161050d9063ffffffff8b16610e92565b6105179190610ebc565b81525081526020016040518060a001604052806000815260200160008152602001600081526020016000815260200160008152508152509050600092505b60025463ffffffff16831015610626576020810151836005811061057b5761057b610ea6565b60200201519150816009141561059057600091505b6020810151829084600581106105a8576105a8610ea6565b602002015281156105c3576105be600183610e65565b6105c6565b60085b815184600581106105d9576105d9610ea6565b6020020152600882146105f6576105f1826001610e4d565b6105f9565b60005b6040820151846005811061060f5761060f610ea6565b60200201528261061e81610ed0565b935050610555565b60208082015133600090815260049092526040909120610647916005610c7a565b506000806000805b8a81101561069c57600080610664838861097c565b90925090506106738e83610eeb565b915084821115610687578295508194508093505b5050808061069490610ed0565b91505061064f565b503360009081526005602052604090205482906106ba908d90610e65565b6106c49190610e4d565b336000818152600560205260409020919091557f41f50a8e20a73dc4dcc4c458be93228cccc9030ae3158caa2eeeed5b5dc36fa9908c8c87600160200201518787876040516107199796959493929190610f0a565b60405180910390a15050505050505050505050565b610736610817565b6001600160a01b03811661079b5760405162461bcd60e51b815260206004820152602660248201527f4f776e61626c653a206e6577206f776e657220697320746865207a65726f206160448201526564647265737360d01b6064820152608401610381565b6107a481610871565b50565b6107af610817565b600042603f54604154604054856107c560015490565b6040805160208101979097528601949094526060850192909252608084015260a083015260c082015260e00160408051601f198184030181529181528151602090920191909120815460415590555050565b6000546001600160a01b031633146103305760405162461bcd60e51b815260206004820181905260248201527f4f776e61626c653a2063616c6c6572206973206e6f7420746865206f776e65726044820152606401610381565b600080546001600160a01b038381166001600160a01b0319831681178455604051919092169283917f8be0079c531659141344cd1fd0a4f28419497f9722a3daafe3b4186f6b6457e09190a35050565b6000804283603f5460405460415443404144453a335a60015460408051602081019e909e528d019b909b526060808d019a909a5260808c019890985260a08b019690965260c08a01949094526bffffffffffffffffffffffff1992871b831660e08a015260f4890191909152610114880152610134870191909152921b9091166101548401526101688301526101888201526101a80160408051601f198184030181529190528051602090910120603f939093555090919050565b600080808080805b6005811015610a205760018760068a815481106109a3576109a3610ea6565b9060005260206000200183815481106109be576109be610ea6565b9060005260206000200154600381106109d9576109d9610ea6565b602002015182600581106109ef576109ef610ea6565b602002015114610a0157809250610a20565b83610a0b81610ed0565b94505080610a1881610ed0565b915050610984565b50600083118015610a4f57506000600d610a3b600186610e65565b60058110610a4b57610a4b610ea6565b0154115b15610a85576000600d610a63600186610e65565b60058110610a7357610a73610ea6565b0154955060019450610c559350505050565b8560068881548110610a9957610a99610ea6565b906000526020600020018381548110610ab457610ab4610ea6565b906000526020600020015460038110610acf57610acf610ea6565b60200201518260058110610ae557610ae5610ea6565b602002015190506000610af9836001610e4d565b90505b6005811015610c0957818760068a81548110610b1a57610b1a610ea6565b906000526020600020018381548110610b3557610b35610ea6565b906000526020600020015460038110610b5057610b50610ea6565b60200201518260058110610b6657610b66610ea6565b60200201511480610bdb575060018760068a81548110610b8857610b88610ea6565b906000526020600020018381548110610ba357610ba3610ea6565b906000526020600020015460038110610bbe57610bbe610ea6565b60200201518260058110610bd457610bd4610ea6565b6020020151145b15610bf25783610bea81610ed0565b945050610bf7565b610c09565b80610c0181610ed0565b915050610afc565b508215610c4a57600060088260098110610c2557610c25610ea6565b600502018460058110610c3a57610c3a610ea6565b01549550909350610c5592505050565b600080945094505050505b9250929050565b6040518060a001604052806005906020820280368337509192915050565b8260058101928215610ca8579160200282015b82811115610ca8578251825591602001919060010190610c8d565b50610cb4929150610cb8565b5090565b5b80821115610cb45760008155600101610cb9565b80356001600160a01b0381168114610ce457600080fd5b919050565b60008060408385031215610cfc57600080fd5b610d0583610ccd565b946020939093013593505050565b600060208284031215610d2557600080fd5b5035919050565b6000602080830181845280855180835260408601915060408160051b87010192508387016000805b83811015610da857888603603f19018552825180518088529088019088880190845b81811015610d925783518352928a0192918a0191600101610d76565b5090975050509386019391860191600101610d54565b509398975050505050505050565b8060005b6005811015610dd9578151845260209384019390910190600101610dba565b50505050565b60a08101610ded8284610db6565b92915050565b60008060408385031215610e0657600080fd5b50508035926020909101359150565b600060208284031215610e2757600080fd5b610e3082610ccd565b9392505050565b634e487b7160e01b600052601160045260246000fd5b60008219821115610e6057610e60610e37565b500190565b600082821015610e7757610e77610e37565b500390565b634e487b7160e01b600052601260045260246000fd5b600082610ea157610ea1610e7c565b500690565b634e487b7160e01b600052603260045260246000fd5b600082610ecb57610ecb610e7c565b500490565b6000600019821415610ee457610ee4610e37565b5060010190565b6000816000190483118215151615610f0557610f05610e37565b500290565b6001600160a01b038816815260208101879052604081018690526101608101610f366060830187610db6565b8461010083015283610120830152826101408301529897505050505050505056fea2646970667358221220f16889e74307d3b2749bbf4caa451553c3fbfef59e9c017e9504a5bfacb54ebb64736f6c634300080c0033",
			"opcodes": "PUSH1 0x2 DUP1 SLOAD PUSH4 0xFFFFFFFF NOT AND PUSH1 0x5 OR DUP2 SSTORE PUSH1 0x1 PUSH2 0x300 DUP2 DUP2 MSTORE PUSH2 0x320 DUP3 SWAP1 MSTORE PUSH2 0x340 DUP3 SWAP1 MSTORE PUSH2 0x360 DUP3 SWAP1 MSTORE PUSH2 0x380 DUP3 SWAP1 MSTORE PUSH1 0x80 SWAP1 DUP2 MSTORE PUSH1 0x0 PUSH2 0x3A0 DUP2 DUP2 MSTORE PUSH2 0x3C0 DUP3 SWAP1 MSTORE PUSH2 0x3E0 DUP3 SWAP1 MSTORE PUSH2 0x400 DUP3 SWAP1 MSTORE PUSH2 0x420 DUP3 SWAP1 MSTORE PUSH1 0xA0 MSTORE PUSH2 0x440 DUP5 DUP2 MSTORE PUSH2 0x460 DUP6 SWAP1 MSTORE PUSH2 0x480 DUP6 SWAP1 MSTORE PUSH2 0x4A0 DUP6 SWAP1 MSTORE PUSH2 0x4C0 DUP6 SWAP1 MSTORE PUSH1 0xC0 MSTORE PUSH2 0x4E0 DUP4 DUP2 MSTORE PUSH2 0x500 DUP5 SWAP1 MSTORE PUSH2 0x520 DUP3 SWAP1 MSTORE PUSH2 0x540 DUP5 SWAP1 MSTORE PUSH2 0x560 DUP6 SWAP1 MSTORE PUSH1 0xE0 MSTORE PUSH2 0x580 DUP4 DUP2 MSTORE PUSH2 0x5A0 DUP5 SWAP1 MSTORE PUSH2 0x5C0 DUP6 SWAP1 MSTORE PUSH2 0x5E0 DUP5 SWAP1 MSTORE PUSH2 0x600 DUP3 SWAP1 MSTORE PUSH2 0x100 MSTORE PUSH2 0x620 DUP4 DUP2 MSTORE PUSH2 0x640 DUP3 SWAP1 MSTORE PUSH2 0x660 DUP5 SWAP1 MSTORE PUSH2 0x680 DUP6 SWAP1 MSTORE PUSH2 0x6A0 DUP5 SWAP1 MSTORE PUSH2 0x120 MSTORE PUSH2 0x6C0 DUP4 DUP2 MSTORE PUSH2 0x6E0 DUP3 SWAP1 MSTORE PUSH2 0x700 DUP5 SWAP1 MSTORE PUSH2 0x720 DUP6 SWAP1 MSTORE PUSH2 0x740 DUP6 SWAP1 MSTORE PUSH2 0x140 MSTORE PUSH2 0x760 DUP4 DUP2 MSTORE PUSH2 0x780 DUP3 SWAP1 MSTORE PUSH2 0x7A0 DUP3 SWAP1 MSTORE PUSH2 0x7C0 DUP5 SWAP1 MSTORE PUSH2 0x7E0 DUP6 SWAP1 MSTORE PUSH2 0x160 MSTORE PUSH2 0x800 DUP4 DUP2 MSTORE PUSH2 0x820 DUP6 SWAP1 MSTORE PUSH2 0x840 DUP5 SWAP1 MSTORE PUSH2 0x860 DUP3 SWAP1 MSTORE PUSH2 0x880 DUP5 SWAP1 MSTORE PUSH2 0x180 MSTORE PUSH2 0x8A0 DUP4 DUP2 MSTORE PUSH2 0x8C0 DUP6 SWAP1 MSTORE PUSH2 0x8E0 DUP6 SWAP1 MSTORE PUSH2 0x900 DUP5 SWAP1 MSTORE PUSH2 0x920 DUP3 SWAP1 MSTORE PUSH2 0x1A0 MSTORE PUSH2 0x940 DUP4 DUP2 MSTORE PUSH2 0x960 DUP6 SWAP1 MSTORE PUSH2 0x980 DUP5 SWAP1 MSTORE PUSH2 0x9A0 DUP3 SWAP1 MSTORE PUSH2 0x9C0 DUP3 SWAP1 MSTORE PUSH2 0x1C0 MSTORE PUSH2 0x9E0 DUP2 DUP2 MSTORE PUSH2 0xA00 DUP5 SWAP1 MSTORE PUSH2 0xA20 DUP6 SWAP1 MSTORE PUSH2 0xA40 DUP5 SWAP1 MSTORE PUSH2 0xA60 DUP3 SWAP1 MSTORE PUSH2 0x1E0 MSTORE PUSH2 0xA80 DUP2 DUP2 MSTORE PUSH2 0xAA0 DUP5 SWAP1 MSTORE PUSH2 0xAC0 DUP5 SWAP1 MSTORE PUSH2 0xAE0 DUP5 SWAP1 MSTORE PUSH2 0xB00 DUP6 SWAP1 MSTORE PUSH2 0x200 MSTORE PUSH2 0xB20 DUP2 DUP2 MSTORE PUSH2 0xB40 DUP3 SWAP1 MSTORE PUSH2 0xB60 DUP5 SWAP1 MSTORE PUSH2 0xB80 DUP6 SWAP1 MSTORE PUSH2 0xBA0 DUP6 SWAP1 MSTORE PUSH2 0x220 MSTORE PUSH2 0xBC0 DUP2 DUP2 MSTORE PUSH2 0xBE0 DUP3 SWAP1 MSTORE PUSH2 0xC00 DUP5 SWAP1 MSTORE PUSH2 0xC20 DUP6 SWAP1 MSTORE PUSH2 0xC40 DUP5 SWAP1 MSTORE PUSH2 0x240 MSTORE PUSH2 0xC60 DUP2 DUP2 MSTORE PUSH2 0xC80 DUP3 SWAP1 MSTORE PUSH2 0xCA0 DUP3 SWAP1 MSTORE PUSH2 0xCC0 DUP5 SWAP1 MSTORE PUSH2 0xCE0 DUP6 SWAP1 MSTORE PUSH2 0x260 MSTORE PUSH2 0xD00 DUP5 DUP2 MSTORE PUSH2 0xD20 DUP5 SWAP1 MSTORE PUSH2 0xD40 DUP3 SWAP1 MSTORE PUSH2 0xD60 DUP5 SWAP1 MSTORE PUSH2 0xD80 DUP6 SWAP1 MSTORE PUSH2 0x280 MSTORE PUSH2 0xDA0 DUP5 DUP2 MSTORE PUSH2 0xDC0 DUP5 SWAP1 MSTORE PUSH2 0xDE0 DUP5 SWAP1 MSTORE PUSH2 0xE00 DUP5 SWAP1 MSTORE PUSH2 0xE20 DUP3 SWAP1 MSTORE PUSH2 0x2A0 MSTORE PUSH2 0xE40 DUP5 DUP2 MSTORE PUSH2 0xE60 DUP6 SWAP1 MSTORE PUSH2 0xE80 DUP5 SWAP1 MSTORE PUSH2 0xEA0 DUP3 SWAP1 MSTORE PUSH2 0xEC0 DUP3 SWAP1 MSTORE PUSH2 0x2C0 MSTORE PUSH2 0xF80 PUSH1 0x40 MSTORE PUSH2 0xEE0 DUP5 DUP2 MSTORE PUSH2 0xF00 SWAP5 SWAP1 SWAP5 MSTORE PUSH2 0xF20 DUP4 SWAP1 MSTORE PUSH2 0xF40 MSTORE PUSH2 0xF60 SWAP2 SWAP1 SWAP2 MSTORE PUSH2 0x2E0 SWAP2 SWAP1 SWAP2 MSTORE PUSH3 0x2D2 SWAP1 PUSH1 0x6 SWAP1 PUSH1 0x14 PUSH3 0x5AB JUMP JUMPDEST POP PUSH1 0x40 MLOAD DUP1 PUSH2 0x120 ADD PUSH1 0x40 MSTORE DUP1 PUSH1 0x40 MLOAD DUP1 PUSH1 0xA0 ADD PUSH1 0x40 MSTORE DUP1 PUSH1 0x0 DUP2 MSTORE PUSH1 0x20 ADD PUSH1 0x0 DUP2 MSTORE PUSH1 0x20 ADD PUSH1 0x14 DUP2 MSTORE PUSH1 0x20 ADD PUSH1 0x50 DUP2 MSTORE PUSH1 0x20 ADD PUSH1 0xC8 DUP2 MSTORE POP DUP2 MSTORE PUSH1 0x20 ADD PUSH1 0x40 MLOAD DUP1 PUSH1 0xA0 ADD PUSH1 0x40 MSTORE DUP1 PUSH1 0x0 DUP2 MSTORE PUSH1 0x20 ADD PUSH1 0x0 DUP2 MSTORE PUSH1 0x20 ADD PUSH1 0x28 DUP2 MSTORE PUSH1 0x20 ADD PUSH2 0x190 DUP2 MSTORE PUSH1 0x20 ADD PUSH2 0x7D0 DUP2 MSTORE POP DUP2 MSTORE PUSH1 0x20 ADD PUSH1 0x40 MLOAD DUP1 PUSH1 0xA0 ADD PUSH1 0x40 MSTORE DUP1 PUSH1 0x0 DUP2 MSTORE PUSH1 0x20 ADD PUSH1 0x8 DUP2 MSTORE PUSH1 0x20 ADD PUSH1 0xF DUP2 MSTORE PUSH1 0x20 ADD PUSH1 0x78 DUP2 MSTORE PUSH1 0x20 ADD PUSH2 0x1F4 DUP2 MSTORE POP DUP2 MSTORE PUSH1 0x20 ADD PUSH1 0x40 MLOAD DUP1 PUSH1 0xA0 ADD PUSH1 0x40 MSTORE DUP1 PUSH1 0x0 DUP2 MSTORE PUSH1 0x20 ADD PUSH1 0x2 DUP2 MSTORE PUSH1 0x20 ADD PUSH1 0x8 DUP2 MSTORE PUSH1 0x20 ADD PUSH1 0x14 DUP2 MSTORE PUSH1 0x20 ADD PUSH1 0x50 DUP2 MSTORE POP DUP2 MSTORE PUSH1 0x20 ADD PUSH1 0x40 MLOAD DUP1 PUSH1 0xA0 ADD PUSH1 0x40 MSTORE DUP1 PUSH1 0x0 DUP2 MSTORE PUSH1 0x20 ADD PUSH1 0x0 DUP2 MSTORE PUSH1 0x20 ADD PUSH1 0x8 DUP2 MSTORE PUSH1 0x20 ADD PUSH1 0x14 DUP2 MSTORE PUSH1 0x20 ADD PUSH1 0x50 DUP2 MSTORE POP DUP2 MSTORE PUSH1 0x20 ADD PUSH1 0x40 MLOAD DUP1 PUSH1 0xA0 ADD PUSH1 0x40 MSTORE DUP1 PUSH1 0x0 DUP2 MSTORE PUSH1 0x20 ADD PUSH1 0x0 DUP2 MSTORE PUSH1 0x20 ADD PUSH1 0x14 DUP2 MSTORE PUSH1 0x20 ADD PUSH1 0x50 DUP2 MSTORE PUSH1 0x20 ADD PUSH1 0xC8 DUP2 MSTORE POP DUP2 MSTORE PUSH1 0x20 ADD PUSH1 0x40 MLOAD DUP1 PUSH1 0xA0 ADD PUSH1 0x40 MSTORE DUP1 PUSH1 0x0 DUP2 MSTORE PUSH1 0x20 ADD PUSH1 0x0 DUP2 MSTORE PUSH1 0x20 ADD PUSH1 0x8 DUP2 MSTORE PUSH1 0x20 ADD PUSH1 0x14 DUP2 MSTORE PUSH1 0x20 ADD PUSH1 0x50 DUP2 MSTORE POP DUP2 MSTORE PUSH1 0x20 ADD PUSH1 0x40 MLOAD DUP1 PUSH1 0xA0 ADD PUSH1 0x40 MSTORE DUP1 PUSH1 0x0 DUP2 MSTORE PUSH1 0x20 ADD PUSH1 0x0 DUP2 MSTORE PUSH1 0x20 ADD PUSH1 0x14 DUP2 MSTORE PUSH1 0x20 ADD PUSH1 0xC8 DUP2 MSTORE PUSH1 0x20 ADD PUSH2 0x3E8 DUP2 MSTORE POP DUP2 MSTORE PUSH1 0x20 ADD PUSH1 0x40 MLOAD DUP1 PUSH1 0xA0 ADD PUSH1 0x40 MSTORE DUP1 PUSH1 0x0 DUP2 MSTORE PUSH1 0x20 ADD PUSH1 0x0 DUP2 MSTORE PUSH1 0x20 ADD PUSH1 0x2 DUP2 MSTORE PUSH1 0x20 ADD PUSH1 0x5 DUP2 MSTORE PUSH1 0x20 ADD PUSH1 0xF DUP2 MSTORE POP DUP2 MSTORE POP PUSH1 0x8 SWAP1 PUSH1 0x9 PUSH3 0x4AC SWAP3 SWAP2 SWAP1 PUSH3 0x609 JUMP JUMPDEST POP PUSH1 0x40 DUP1 MLOAD PUSH1 0xA0 DUP2 ADD DUP3 MSTORE PUSH3 0x186A0 DUP2 MSTORE PUSH2 0x2710 PUSH1 0x20 DUP3 ADD MSTORE PUSH2 0x3E8 SWAP2 DUP2 ADD SWAP2 SWAP1 SWAP2 MSTORE PUSH1 0x64 PUSH1 0x60 DUP3 ADD MSTORE PUSH1 0xA PUSH1 0x80 DUP3 ADD MSTORE PUSH3 0x4ED SWAP1 PUSH1 0x35 SWAP1 PUSH1 0x5 PUSH3 0x657 JUMP JUMPDEST POP PUSH1 0x40 DUP1 MLOAD PUSH1 0xA0 DUP2 ADD DUP3 MSTORE PUSH2 0x2710 DUP2 MSTORE PUSH2 0x3E8 PUSH1 0x20 DUP3 ADD MSTORE PUSH1 0x64 SWAP2 DUP2 ADD DUP3 SWAP1 MSTORE PUSH1 0x60 DUP2 ADD SWAP2 SWAP1 SWAP2 MSTORE PUSH1 0x1 PUSH1 0x80 DUP3 ADD MSTORE PUSH3 0x52C SWAP1 PUSH1 0x3A SWAP1 PUSH1 0x5 PUSH3 0x69D JUMP JUMPDEST POP PUSH1 0x0 PUSH1 0x3F DUP2 SWAP1 SSTORE PUSH1 0x40 DUP2 SWAP1 SSTORE PUSH1 0x41 SSTORE CALLVALUE DUP1 ISZERO PUSH3 0x549 JUMPI PUSH1 0x0 DUP1 REVERT JUMPDEST POP PUSH3 0x555 CALLER PUSH3 0x55B JUMP JUMPDEST PUSH3 0x7D4 JUMP JUMPDEST PUSH1 0x0 DUP1 SLOAD PUSH1 0x1 PUSH1 0x1 PUSH1 0xA0 SHL SUB DUP4 DUP2 AND PUSH1 0x1 PUSH1 0x1 PUSH1 0xA0 SHL SUB NOT DUP4 AND DUP2 OR DUP5 SSTORE PUSH1 0x40 MLOAD SWAP2 SWAP1 SWAP3 AND SWAP3 DUP4 SWAP2 PUSH32 0x8BE0079C531659141344CD1FD0A4F28419497F9722A3DAAFE3B4186F6B6457E0 SWAP2 SWAP1 LOG3 POP POP JUMP JUMPDEST DUP3 DUP1 SLOAD DUP3 DUP3 SSTORE SWAP1 PUSH1 0x0 MSTORE PUSH1 0x20 PUSH1 0x0 KECCAK256 SWAP1 DUP2 ADD SWAP3 DUP3 ISZERO PUSH3 0x5F7 JUMPI SWAP2 PUSH1 0x20 MUL DUP3 ADD JUMPDEST DUP3 DUP2 GT ISZERO PUSH3 0x5F7 JUMPI DUP3 MLOAD PUSH3 0x5E6 SWAP1 DUP4 SWAP1 PUSH1 0x5 PUSH3 0x6D4 JUMP JUMPDEST POP SWAP2 PUSH1 0x20 ADD SWAP2 SWAP1 PUSH1 0x1 ADD SWAP1 PUSH3 0x5CC JUMP JUMPDEST POP PUSH3 0x605 SWAP3 SWAP2 POP PUSH3 0x717 JUMP JUMPDEST POP SWAP1 JUMP JUMPDEST PUSH1 0x2D DUP4 ADD SWAP2 DUP4 SWAP1 DUP3 ISZERO PUSH3 0x649 JUMPI SWAP2 PUSH1 0x20 MUL DUP3 ADD JUMPDEST DUP3 DUP2 GT ISZERO PUSH3 0x649 JUMPI DUP3 MLOAD PUSH3 0x638 SWAP1 DUP4 SWAP1 PUSH1 0x5 PUSH3 0x738 JUMP JUMPDEST POP SWAP2 PUSH1 0x20 ADD SWAP2 SWAP1 PUSH1 0x5 ADD SWAP1 PUSH3 0x61E JUMP JUMPDEST POP PUSH3 0x605 SWAP3 SWAP2 POP PUSH3 0x769 JUMP JUMPDEST DUP3 PUSH1 0x5 DUP2 ADD SWAP3 DUP3 ISZERO PUSH3 0x68F JUMPI SWAP2 PUSH1 0x20 MUL DUP3 ADD JUMPDEST DUP3 DUP2 GT ISZERO PUSH3 0x68F JUMPI DUP3 MLOAD DUP3 SWAP1 PUSH3 0xFFFFFF AND SWAP1 SSTORE SWAP2 PUSH1 0x20 ADD SWAP2 SWAP1 PUSH1 0x1 ADD SWAP1 PUSH3 0x66B JUMP JUMPDEST POP PUSH3 0x605 SWAP3 SWAP2 POP PUSH3 0x79A JUMP JUMPDEST DUP3 PUSH1 0x5 DUP2 ADD SWAP3 DUP3 ISZERO PUSH3 0x68F JUMPI SWAP2 PUSH1 0x20 MUL DUP3 ADD JUMPDEST DUP3 DUP2 GT ISZERO PUSH3 0x68F JUMPI DUP3 MLOAD DUP3 SWAP1 PUSH2 0xFFFF AND SWAP1 SSTORE SWAP2 PUSH1 0x20 ADD SWAP2 SWAP1 PUSH1 0x1 ADD SWAP1 PUSH3 0x6B1 JUMP JUMPDEST DUP3 DUP1 SLOAD DUP3 DUP3 SSTORE SWAP1 PUSH1 0x0 MSTORE PUSH1 0x20 PUSH1 0x0 KECCAK256 SWAP1 DUP2 ADD SWAP3 DUP3 ISZERO PUSH3 0x68F JUMPI SWAP2 PUSH1 0x20 MUL DUP3 ADD JUMPDEST DUP3 DUP2 GT ISZERO PUSH3 0x68F JUMPI DUP3 MLOAD DUP3 SWAP1 PUSH1 0xFF AND SWAP1 SSTORE SWAP2 PUSH1 0x20 ADD SWAP2 SWAP1 PUSH1 0x1 ADD SWAP1 PUSH3 0x6F5 JUMP JUMPDEST DUP1 DUP3 GT ISZERO PUSH3 0x605 JUMPI PUSH1 0x0 PUSH3 0x72E DUP3 DUP3 PUSH3 0x7B1 JUMP JUMPDEST POP PUSH1 0x1 ADD PUSH3 0x717 JUMP JUMPDEST DUP3 PUSH1 0x5 DUP2 ADD SWAP3 DUP3 ISZERO PUSH3 0x68F JUMPI SWAP2 PUSH1 0x20 MUL DUP3 ADD JUMPDEST DUP3 DUP2 GT ISZERO PUSH3 0x68F JUMPI DUP3 MLOAD DUP3 SSTORE SWAP2 PUSH1 0x20 ADD SWAP2 SWAP1 PUSH1 0x1 ADD SWAP1 PUSH3 0x74C JUMP JUMPDEST DUP1 DUP3 GT ISZERO PUSH3 0x605 JUMPI PUSH1 0x0 DUP1 DUP3 SSTORE PUSH1 0x1 DUP3 ADD DUP2 SWAP1 SSTORE PUSH1 0x2 DUP3 ADD DUP2 SWAP1 SSTORE PUSH1 0x3 DUP3 ADD DUP2 SWAP1 SSTORE PUSH1 0x4 DUP3 ADD SSTORE PUSH1 0x5 ADD PUSH3 0x769 JUMP JUMPDEST JUMPDEST DUP1 DUP3 GT ISZERO PUSH3 0x605 JUMPI PUSH1 0x0 DUP2 SSTORE PUSH1 0x1 ADD PUSH3 0x79B JUMP JUMPDEST POP DUP1 SLOAD PUSH1 0x0 DUP3 SSTORE SWAP1 PUSH1 0x0 MSTORE PUSH1 0x20 PUSH1 0x0 KECCAK256 SWAP1 DUP2 ADD SWAP1 PUSH3 0x7D1 SWAP2 SWAP1 PUSH3 0x79A JUMP JUMPDEST POP JUMP JUMPDEST PUSH2 0xF8D DUP1 PUSH3 0x7E4 PUSH1 0x0 CODECOPY PUSH1 0x0 RETURN INVALID PUSH1 0x80 PUSH1 0x40 MSTORE CALLVALUE DUP1 ISZERO PUSH2 0x10 JUMPI PUSH1 0x0 DUP1 REVERT JUMPDEST POP PUSH1 0x4 CALLDATASIZE LT PUSH2 0x9E JUMPI PUSH1 0x0 CALLDATALOAD PUSH1 0xE0 SHR DUP1 PUSH4 0x8DA5CB5B GT PUSH2 0x66 JUMPI DUP1 PUSH4 0x8DA5CB5B EQ PUSH2 0x141 JUMPI DUP1 PUSH4 0xB7013DC1 EQ PUSH2 0x15C JUMPI DUP1 PUSH4 0xDC8275E4 EQ PUSH2 0x17A JUMPI DUP1 PUSH4 0xF2FDE38B EQ PUSH2 0x18D JUMPI DUP1 PUSH4 0xF7E944EE EQ PUSH2 0x1A0 JUMPI PUSH1 0x0 DUP1 REVERT JUMPDEST DUP1 PUSH4 0x17ADAA03 EQ PUSH2 0xA3 JUMPI DUP1 PUSH4 0x22526328 EQ PUSH2 0xFA JUMPI DUP1 PUSH4 0x4282CF54 EQ PUSH2 0x10F JUMPI DUP1 PUSH4 0x696155C5 EQ PUSH2 0x124 JUMPI DUP1 PUSH4 0x715018A6 EQ PUSH2 0x139 JUMPI JUMPDEST PUSH1 0x0 DUP1 REVERT JUMPDEST PUSH2 0xB6 PUSH2 0xB1 CALLDATASIZE PUSH1 0x4 PUSH2 0xCE9 JUMP JUMPDEST PUSH2 0x1B3 JUMP JUMPDEST PUSH1 0x40 DUP1 MLOAD PUSH1 0x1 PUSH1 0x1 PUSH1 0xA0 SHL SUB SWAP1 SWAP9 AND DUP9 MSTORE PUSH1 0x20 DUP9 ADD SWAP7 SWAP1 SWAP7 MSTORE SWAP5 DUP7 ADD SWAP4 SWAP1 SWAP4 MSTORE PUSH1 0x60 DUP6 ADD SWAP2 SWAP1 SWAP2 MSTORE PUSH1 0x80 DUP5 ADD MSTORE PUSH1 0xA0 DUP4 ADD MSTORE PUSH1 0xC0 DUP3 ADD MSTORE PUSH1 0xE0 ADD JUMPDEST PUSH1 0x40 MLOAD DUP1 SWAP2 SUB SWAP1 RETURN JUMPDEST PUSH2 0x10D PUSH2 0x108 CALLDATASIZE PUSH1 0x4 PUSH2 0xD13 JUMP JUMPDEST PUSH2 0x217 JUMP JUMPDEST STOP JUMPDEST PUSH2 0x117 PUSH2 0x23E JUMP JUMPDEST PUSH1 0x40 MLOAD PUSH2 0xF1 SWAP2 SWAP1 PUSH2 0xD2C JUMP JUMPDEST PUSH2 0x12C PUSH2 0x2D7 JUMP JUMPDEST PUSH1 0x40 MLOAD PUSH2 0xF1 SWAP2 SWAP1 PUSH2 0xDDF JUMP JUMPDEST PUSH2 0x10D PUSH2 0x31E JUMP JUMPDEST PUSH1 0x0 SLOAD PUSH1 0x40 MLOAD PUSH1 0x1 PUSH1 0x1 PUSH1 0xA0 SHL SUB SWAP1 SWAP2 AND DUP2 MSTORE PUSH1 0x20 ADD PUSH2 0xF1 JUMP JUMPDEST CALLER PUSH1 0x0 SWAP1 DUP2 MSTORE PUSH1 0x5 PUSH1 0x20 MSTORE PUSH1 0x40 SWAP1 KECCAK256 SLOAD PUSH1 0x40 MLOAD SWAP1 DUP2 MSTORE PUSH1 0x20 ADD PUSH2 0xF1 JUMP JUMPDEST PUSH2 0x10D PUSH2 0x188 CALLDATASIZE PUSH1 0x4 PUSH2 0xDF3 JUMP JUMPDEST PUSH2 0x332 JUMP JUMPDEST PUSH2 0x10D PUSH2 0x19B CALLDATASIZE PUSH1 0x4 PUSH2 0xE15 JUMP JUMPDEST PUSH2 0x72E JUMP JUMPDEST PUSH2 0x10D PUSH2 0x1AE CALLDATASIZE PUSH1 0x4 PUSH2 0xD13 JUMP JUMPDEST PUSH2 0x7A7 JUMP JUMPDEST PUSH1 0x7 PUSH1 0x20 MSTORE DUP2 PUSH1 0x0 MSTORE PUSH1 0x40 PUSH1 0x0 KECCAK256 DUP2 DUP2 SLOAD DUP2 LT PUSH2 0x1CF JUMPI PUSH1 0x0 DUP1 REVERT JUMPDEST PUSH1 0x0 SWAP2 DUP3 MSTORE PUSH1 0x20 SWAP1 SWAP2 KECCAK256 PUSH1 0xC SWAP1 SWAP2 MUL ADD DUP1 SLOAD PUSH1 0x1 DUP3 ADD SLOAD PUSH1 0x2 DUP4 ADD SLOAD PUSH1 0x3 DUP5 ADD SLOAD PUSH1 0x9 DUP6 ADD SLOAD PUSH1 0xA DUP7 ADD SLOAD PUSH1 0xB SWAP1 SWAP7 ADD SLOAD PUSH1 0x1 PUSH1 0x1 PUSH1 0xA0 SHL SUB SWAP1 SWAP6 AND SWAP8 POP SWAP3 SWAP6 POP SWAP1 SWAP4 SWAP1 SWAP3 DUP8 JUMP JUMPDEST CALLER PUSH1 0x0 SWAP1 DUP2 MSTORE PUSH1 0x5 PUSH1 0x20 MSTORE PUSH1 0x40 DUP2 KECCAK256 DUP1 SLOAD DUP4 SWAP3 SWAP1 PUSH2 0x236 SWAP1 DUP5 SWAP1 PUSH2 0xE4D JUMP JUMPDEST SWAP1 SWAP2 SSTORE POP POP POP JUMP JUMPDEST PUSH1 0x60 PUSH1 0x6 DUP1 SLOAD DUP1 PUSH1 0x20 MUL PUSH1 0x20 ADD PUSH1 0x40 MLOAD SWAP1 DUP2 ADD PUSH1 0x40 MSTORE DUP1 SWAP3 SWAP2 SWAP1 DUP2 DUP2 MSTORE PUSH1 0x20 ADD PUSH1 0x0 SWAP1 JUMPDEST DUP3 DUP3 LT ISZERO PUSH2 0x2CE JUMPI PUSH1 0x0 DUP5 DUP2 MSTORE PUSH1 0x20 SWAP1 DUP2 SWAP1 KECCAK256 DUP4 ADD DUP1 SLOAD PUSH1 0x40 DUP1 MLOAD DUP3 DUP6 MUL DUP2 ADD DUP6 ADD SWAP1 SWAP2 MSTORE DUP2 DUP2 MSTORE SWAP3 DUP4 ADD DUP3 DUP3 DUP1 ISZERO PUSH2 0x2BA JUMPI PUSH1 0x20 MUL DUP3 ADD SWAP2 SWAP1 PUSH1 0x0 MSTORE PUSH1 0x20 PUSH1 0x0 KECCAK256 SWAP1 JUMPDEST DUP2 SLOAD DUP2 MSTORE PUSH1 0x20 ADD SWAP1 PUSH1 0x1 ADD SWAP1 DUP1 DUP4 GT PUSH2 0x2A6 JUMPI JUMPDEST POP POP POP POP POP DUP2 MSTORE PUSH1 0x20 ADD SWAP1 PUSH1 0x1 ADD SWAP1 PUSH2 0x262 JUMP JUMPDEST POP POP POP POP SWAP1 POP SWAP1 JUMP JUMPDEST PUSH2 0x2DF PUSH2 0xC5C JUMP JUMPDEST CALLER PUSH1 0x0 SWAP1 DUP2 MSTORE PUSH1 0x4 PUSH1 0x20 MSTORE PUSH1 0x40 SWAP1 DUP2 SWAP1 KECCAK256 DUP2 MLOAD PUSH1 0xA0 DUP2 ADD SWAP3 DUP4 SWAP1 MSTORE SWAP2 PUSH1 0x5 SWAP1 DUP3 DUP5 JUMPDEST DUP2 SLOAD DUP2 MSTORE PUSH1 0x20 ADD SWAP1 PUSH1 0x1 ADD SWAP1 DUP1 DUP4 GT PUSH2 0x301 JUMPI POP POP POP POP POP SWAP1 POP SWAP1 JUMP JUMPDEST PUSH2 0x326 PUSH2 0x817 JUMP JUMPDEST PUSH2 0x330 PUSH1 0x0 PUSH2 0x871 JUMP JUMPDEST JUMP JUMPDEST CALLER PUSH1 0x0 SWAP1 DUP2 MSTORE PUSH1 0x5 PUSH1 0x20 MSTORE PUSH1 0x40 DUP2 KECCAK256 SLOAD PUSH2 0x34D SWAP1 DUP5 SWAP1 PUSH2 0xE65 JUMP JUMPDEST LT ISZERO PUSH2 0x38A JUMPI PUSH1 0x40 MLOAD PUSH3 0x461BCD PUSH1 0xE5 SHL DUP2 MSTORE PUSH1 0x20 PUSH1 0x4 DUP3 ADD MSTORE PUSH1 0x7 PUSH1 0x24 DUP3 ADD MSTORE PUSH7 0x42616C616E6365 PUSH1 0xC8 SHL PUSH1 0x44 DUP3 ADD MSTORE PUSH1 0x64 ADD JUMPDEST PUSH1 0x40 MLOAD DUP1 SWAP2 SUB SWAP1 REVERT JUMPDEST PUSH1 0x6 SLOAD DUP2 LT PUSH2 0x3CC JUMPI PUSH1 0x40 MLOAD PUSH3 0x461BCD PUSH1 0xE5 SHL DUP2 MSTORE PUSH1 0x20 PUSH1 0x4 DUP3 ADD MSTORE PUSH1 0xE PUSH1 0x24 DUP3 ADD MSTORE PUSH14 0x546F6F206D616E79206C696E6573 PUSH1 0x90 SHL PUSH1 0x44 DUP3 ADD MSTORE PUSH1 0x64 ADD PUSH2 0x381 JUMP JUMPDEST PUSH1 0x0 DUP1 PUSH2 0x3D8 DUP2 PUSH2 0x8C1 JUMP JUMPDEST SWAP1 POP PUSH1 0x0 PUSH2 0x3E9 PUSH3 0x186A0 DUP4 PUSH2 0xE92 JUMP JUMPDEST PUSH2 0x3F6 SWAP1 PUSH3 0x186A0 PUSH2 0xE4D JUMP JUMPDEST SWAP1 POP PUSH1 0x0 DUP1 PUSH1 0x0 PUSH1 0x40 MLOAD DUP1 PUSH1 0x60 ADD PUSH1 0x40 MSTORE DUP1 PUSH1 0x40 MLOAD DUP1 PUSH1 0xA0 ADD PUSH1 0x40 MSTORE DUP1 PUSH1 0x0 DUP2 MSTORE PUSH1 0x20 ADD PUSH1 0x0 DUP2 MSTORE PUSH1 0x20 ADD PUSH1 0x0 DUP2 MSTORE PUSH1 0x20 ADD PUSH1 0x0 DUP2 MSTORE PUSH1 0x20 ADD PUSH1 0x0 DUP2 MSTORE POP DUP2 MSTORE PUSH1 0x20 ADD PUSH1 0x40 MLOAD DUP1 PUSH1 0xA0 ADD PUSH1 0x40 MSTORE DUP1 PUSH1 0x3A PUSH1 0x0 PUSH1 0x5 DUP2 LT PUSH2 0x458 JUMPI PUSH2 0x458 PUSH2 0xEA6 JUMP JUMPDEST ADD SLOAD PUSH1 0x35 SLOAD PUSH2 0x46D SWAP1 PUSH4 0xFFFFFFFF DUP12 AND PUSH2 0xE92 JUMP JUMPDEST PUSH2 0x477 SWAP2 SWAP1 PUSH2 0xEBC JUMP JUMPDEST DUP2 MSTORE PUSH1 0x3B SLOAD PUSH1 0x36 SLOAD PUSH1 0x20 SWAP1 SWAP3 ADD SWAP2 PUSH2 0x495 SWAP1 PUSH4 0xFFFFFFFF DUP12 AND PUSH2 0xE92 JUMP JUMPDEST PUSH2 0x49F SWAP2 SWAP1 PUSH2 0xEBC JUMP JUMPDEST DUP2 MSTORE PUSH1 0x3C SLOAD PUSH1 0x37 SLOAD PUSH1 0x20 SWAP1 SWAP3 ADD SWAP2 PUSH2 0x4BD SWAP1 PUSH4 0xFFFFFFFF DUP12 AND PUSH2 0xE92 JUMP JUMPDEST PUSH2 0x4C7 SWAP2 SWAP1 PUSH2 0xEBC JUMP JUMPDEST DUP2 MSTORE PUSH1 0x3D SLOAD PUSH1 0x38 SLOAD PUSH1 0x20 SWAP1 SWAP3 ADD SWAP2 PUSH2 0x4E5 SWAP1 PUSH4 0xFFFFFFFF DUP12 AND PUSH2 0xE92 JUMP JUMPDEST PUSH2 0x4EF SWAP2 SWAP1 PUSH2 0xEBC JUMP JUMPDEST DUP2 MSTORE PUSH1 0x3E SLOAD PUSH1 0x39 SLOAD PUSH1 0x20 SWAP1 SWAP3 ADD SWAP2 PUSH2 0x50D SWAP1 PUSH4 0xFFFFFFFF DUP12 AND PUSH2 0xE92 JUMP JUMPDEST PUSH2 0x517 SWAP2 SWAP1 PUSH2 0xEBC JUMP JUMPDEST DUP2 MSTORE POP DUP2 MSTORE PUSH1 0x20 ADD PUSH1 0x40 MLOAD DUP1 PUSH1 0xA0 ADD PUSH1 0x40 MSTORE DUP1 PUSH1 0x0 DUP2 MSTORE PUSH1 0x20 ADD PUSH1 0x0 DUP2 MSTORE PUSH1 0x20 ADD PUSH1 0x0 DUP2 MSTORE PUSH1 0x20 ADD PUSH1 0x0 DUP2 MSTORE PUSH1 0x20 ADD PUSH1 0x0 DUP2 MSTORE POP DUP2 MSTORE POP SWAP1 POP PUSH1 0x0 SWAP3 POP JUMPDEST PUSH1 0x2 SLOAD PUSH4 0xFFFFFFFF AND DUP4 LT ISZERO PUSH2 0x626 JUMPI PUSH1 0x20 DUP2 ADD MLOAD DUP4 PUSH1 0x5 DUP2 LT PUSH2 0x57B JUMPI PUSH2 0x57B PUSH2 0xEA6 JUMP JUMPDEST PUSH1 0x20 MUL ADD MLOAD SWAP2 POP DUP2 PUSH1 0x9 EQ ISZERO PUSH2 0x590 JUMPI PUSH1 0x0 SWAP2 POP JUMPDEST PUSH1 0x20 DUP2 ADD MLOAD DUP3 SWAP1 DUP5 PUSH1 0x5 DUP2 LT PUSH2 0x5A8 JUMPI PUSH2 0x5A8 PUSH2 0xEA6 JUMP JUMPDEST PUSH1 0x20 MUL ADD MSTORE DUP2 ISZERO PUSH2 0x5C3 JUMPI PUSH2 0x5BE PUSH1 0x1 DUP4 PUSH2 0xE65 JUMP JUMPDEST PUSH2 0x5C6 JUMP JUMPDEST PUSH1 0x8 JUMPDEST DUP2 MLOAD DUP5 PUSH1 0x5 DUP2 LT PUSH2 0x5D9 JUMPI PUSH2 0x5D9 PUSH2 0xEA6 JUMP JUMPDEST PUSH1 0x20 MUL ADD MSTORE PUSH1 0x8 DUP3 EQ PUSH2 0x5F6 JUMPI PUSH2 0x5F1 DUP3 PUSH1 0x1 PUSH2 0xE4D JUMP JUMPDEST PUSH2 0x5F9 JUMP JUMPDEST PUSH1 0x0 JUMPDEST PUSH1 0x40 DUP3 ADD MLOAD DUP5 PUSH1 0x5 DUP2 LT PUSH2 0x60F JUMPI PUSH2 0x60F PUSH2 0xEA6 JUMP JUMPDEST PUSH1 0x20 MUL ADD MSTORE DUP3 PUSH2 0x61E DUP2 PUSH2 0xED0 JUMP JUMPDEST SWAP4 POP POP PUSH2 0x555 JUMP JUMPDEST PUSH1 0x20 DUP1 DUP3 ADD MLOAD CALLER PUSH1 0x0 SWAP1 DUP2 MSTORE PUSH1 0x4 SWAP1 SWAP3 MSTORE PUSH1 0x40 SWAP1 SWAP2 KECCAK256 PUSH2 0x647 SWAP2 PUSH1 0x5 PUSH2 0xC7A JUMP JUMPDEST POP PUSH1 0x0 DUP1 PUSH1 0x0 DUP1 JUMPDEST DUP11 DUP2 LT ISZERO PUSH2 0x69C JUMPI PUSH1 0x0 DUP1 PUSH2 0x664 DUP4 DUP9 PUSH2 0x97C JUMP JUMPDEST SWAP1 SWAP3 POP SWAP1 POP PUSH2 0x673 DUP15 DUP4 PUSH2 0xEEB JUMP JUMPDEST SWAP2 POP DUP5 DUP3 GT ISZERO PUSH2 0x687 JUMPI DUP3 SWAP6 POP DUP2 SWAP5 POP DUP1 SWAP4 POP JUMPDEST POP POP DUP1 DUP1 PUSH2 0x694 SWAP1 PUSH2 0xED0 JUMP JUMPDEST SWAP2 POP POP PUSH2 0x64F JUMP JUMPDEST POP CALLER PUSH1 0x0 SWAP1 DUP2 MSTORE PUSH1 0x5 PUSH1 0x20 MSTORE PUSH1 0x40 SWAP1 KECCAK256 SLOAD DUP3 SWAP1 PUSH2 0x6BA SWAP1 DUP14 SWAP1 PUSH2 0xE65 JUMP JUMPDEST PUSH2 0x6C4 SWAP2 SWAP1 PUSH2 0xE4D JUMP JUMPDEST CALLER PUSH1 0x0 DUP2 DUP2 MSTORE PUSH1 0x5 PUSH1 0x20 MSTORE PUSH1 0x40 SWAP1 KECCAK256 SWAP2 SWAP1 SWAP2 SSTORE PUSH32 0x41F50A8E20A73DC4DCC4C458BE93228CCCC9030AE3158CAA2EEEED5B5DC36FA9 SWAP1 DUP13 DUP13 DUP8 PUSH1 0x1 PUSH1 0x20 MUL ADD MLOAD DUP8 DUP8 DUP8 PUSH1 0x40 MLOAD PUSH2 0x719 SWAP8 SWAP7 SWAP6 SWAP5 SWAP4 SWAP3 SWAP2 SWAP1 PUSH2 0xF0A JUMP JUMPDEST PUSH1 0x40 MLOAD DUP1 SWAP2 SUB SWAP1 LOG1 POP POP POP POP POP POP POP POP POP POP POP JUMP JUMPDEST PUSH2 0x736 PUSH2 0x817 JUMP JUMPDEST PUSH1 0x1 PUSH1 0x1 PUSH1 0xA0 SHL SUB DUP2 AND PUSH2 0x79B JUMPI PUSH1 0x40 MLOAD PUSH3 0x461BCD PUSH1 0xE5 SHL DUP2 MSTORE PUSH1 0x20 PUSH1 0x4 DUP3 ADD MSTORE PUSH1 0x26 PUSH1 0x24 DUP3 ADD MSTORE PUSH32 0x4F776E61626C653A206E6577206F776E657220697320746865207A65726F2061 PUSH1 0x44 DUP3 ADD MSTORE PUSH6 0x646472657373 PUSH1 0xD0 SHL PUSH1 0x64 DUP3 ADD MSTORE PUSH1 0x84 ADD PUSH2 0x381 JUMP JUMPDEST PUSH2 0x7A4 DUP2 PUSH2 0x871 JUMP JUMPDEST POP JUMP JUMPDEST PUSH2 0x7AF PUSH2 0x817 JUMP JUMPDEST PUSH1 0x0 TIMESTAMP PUSH1 0x3F SLOAD PUSH1 0x41 SLOAD PUSH1 0x40 SLOAD DUP6 PUSH2 0x7C5 PUSH1 0x1 SLOAD SWAP1 JUMP JUMPDEST PUSH1 0x40 DUP1 MLOAD PUSH1 0x20 DUP2 ADD SWAP8 SWAP1 SWAP8 MSTORE DUP7 ADD SWAP5 SWAP1 SWAP5 MSTORE PUSH1 0x60 DUP6 ADD SWAP3 SWAP1 SWAP3 MSTORE PUSH1 0x80 DUP5 ADD MSTORE PUSH1 0xA0 DUP4 ADD MSTORE PUSH1 0xC0 DUP3 ADD MSTORE PUSH1 0xE0 ADD PUSH1 0x40 DUP1 MLOAD PUSH1 0x1F NOT DUP2 DUP5 SUB ADD DUP2 MSTORE SWAP2 DUP2 MSTORE DUP2 MLOAD PUSH1 0x20 SWAP1 SWAP3 ADD SWAP2 SWAP1 SWAP2 KECCAK256 DUP2 SLOAD PUSH1 0x41 SSTORE SWAP1 SSTORE POP POP JUMP JUMPDEST PUSH1 0x0 SLOAD PUSH1 0x1 PUSH1 0x1 PUSH1 0xA0 SHL SUB AND CALLER EQ PUSH2 0x330 JUMPI PUSH1 0x40 MLOAD PUSH3 0x461BCD PUSH1 0xE5 SHL DUP2 MSTORE PUSH1 0x20 PUSH1 0x4 DUP3 ADD DUP2 SWAP1 MSTORE PUSH1 0x24 DUP3 ADD MSTORE PUSH32 0x4F776E61626C653A2063616C6C6572206973206E6F7420746865206F776E6572 PUSH1 0x44 DUP3 ADD MSTORE PUSH1 0x64 ADD PUSH2 0x381 JUMP JUMPDEST PUSH1 0x0 DUP1 SLOAD PUSH1 0x1 PUSH1 0x1 PUSH1 0xA0 SHL SUB DUP4 DUP2 AND PUSH1 0x1 PUSH1 0x1 PUSH1 0xA0 SHL SUB NOT DUP4 AND DUP2 OR DUP5 SSTORE PUSH1 0x40 MLOAD SWAP2 SWAP1 SWAP3 AND SWAP3 DUP4 SWAP2 PUSH32 0x8BE0079C531659141344CD1FD0A4F28419497F9722A3DAAFE3B4186F6B6457E0 SWAP2 SWAP1 LOG3 POP POP JUMP JUMPDEST PUSH1 0x0 DUP1 TIMESTAMP DUP4 PUSH1 0x3F SLOAD PUSH1 0x40 SLOAD PUSH1 0x41 SLOAD NUMBER BLOCKHASH COINBASE DIFFICULTY GASLIMIT GASPRICE CALLER GAS PUSH1 0x1 SLOAD PUSH1 0x40 DUP1 MLOAD PUSH1 0x20 DUP2 ADD SWAP15 SWAP1 SWAP15 MSTORE DUP14 ADD SWAP12 SWAP1 SWAP12 MSTORE PUSH1 0x60 DUP1 DUP14 ADD SWAP11 SWAP1 SWAP11 MSTORE PUSH1 0x80 DUP13 ADD SWAP9 SWAP1 SWAP9 MSTORE PUSH1 0xA0 DUP12 ADD SWAP7 SWAP1 SWAP7 MSTORE PUSH1 0xC0 DUP11 ADD SWAP5 SWAP1 SWAP5 MSTORE PUSH12 0xFFFFFFFFFFFFFFFFFFFFFFFF NOT SWAP3 DUP8 SHL DUP4 AND PUSH1 0xE0 DUP11 ADD MSTORE PUSH1 0xF4 DUP10 ADD SWAP2 SWAP1 SWAP2 MSTORE PUSH2 0x114 DUP9 ADD MSTORE PUSH2 0x134 DUP8 ADD SWAP2 SWAP1 SWAP2 MSTORE SWAP3 SHL SWAP1 SWAP2 AND PUSH2 0x154 DUP5 ADD MSTORE PUSH2 0x168 DUP4 ADD MSTORE PUSH2 0x188 DUP3 ADD MSTORE PUSH2 0x1A8 ADD PUSH1 0x40 DUP1 MLOAD PUSH1 0x1F NOT DUP2 DUP5 SUB ADD DUP2 MSTORE SWAP2 SWAP1 MSTORE DUP1 MLOAD PUSH1 0x20 SWAP1 SWAP2 ADD KECCAK256 PUSH1 0x3F SWAP4 SWAP1 SWAP4 SSTORE POP SWAP1 SWAP2 SWAP1 POP JUMP JUMPDEST PUSH1 0x0 DUP1 DUP1 DUP1 DUP1 DUP1 JUMPDEST PUSH1 0x5 DUP2 LT ISZERO PUSH2 0xA20 JUMPI PUSH1 0x1 DUP8 PUSH1 0x6 DUP11 DUP2 SLOAD DUP2 LT PUSH2 0x9A3 JUMPI PUSH2 0x9A3 PUSH2 0xEA6 JUMP JUMPDEST SWAP1 PUSH1 0x0 MSTORE PUSH1 0x20 PUSH1 0x0 KECCAK256 ADD DUP4 DUP2 SLOAD DUP2 LT PUSH2 0x9BE JUMPI PUSH2 0x9BE PUSH2 0xEA6 JUMP JUMPDEST SWAP1 PUSH1 0x0 MSTORE PUSH1 0x20 PUSH1 0x0 KECCAK256 ADD SLOAD PUSH1 0x3 DUP2 LT PUSH2 0x9D9 JUMPI PUSH2 0x9D9 PUSH2 0xEA6 JUMP JUMPDEST PUSH1 0x20 MUL ADD MLOAD DUP3 PUSH1 0x5 DUP2 LT PUSH2 0x9EF JUMPI PUSH2 0x9EF PUSH2 0xEA6 JUMP JUMPDEST PUSH1 0x20 MUL ADD MLOAD EQ PUSH2 0xA01 JUMPI DUP1 SWAP3 POP PUSH2 0xA20 JUMP JUMPDEST DUP4 PUSH2 0xA0B DUP2 PUSH2 0xED0 JUMP JUMPDEST SWAP5 POP POP DUP1 PUSH2 0xA18 DUP2 PUSH2 0xED0 JUMP JUMPDEST SWAP2 POP POP PUSH2 0x984 JUMP JUMPDEST POP PUSH1 0x0 DUP4 GT DUP1 ISZERO PUSH2 0xA4F JUMPI POP PUSH1 0x0 PUSH1 0xD PUSH2 0xA3B PUSH1 0x1 DUP7 PUSH2 0xE65 JUMP JUMPDEST PUSH1 0x5 DUP2 LT PUSH2 0xA4B JUMPI PUSH2 0xA4B PUSH2 0xEA6 JUMP JUMPDEST ADD SLOAD GT JUMPDEST ISZERO PUSH2 0xA85 JUMPI PUSH1 0x0 PUSH1 0xD PUSH2 0xA63 PUSH1 0x1 DUP7 PUSH2 0xE65 JUMP JUMPDEST PUSH1 0x5 DUP2 LT PUSH2 0xA73 JUMPI PUSH2 0xA73 PUSH2 0xEA6 JUMP JUMPDEST ADD SLOAD SWAP6 POP PUSH1 0x1 SWAP5 POP PUSH2 0xC55 SWAP4 POP POP POP POP JUMP JUMPDEST DUP6 PUSH1 0x6 DUP9 DUP2 SLOAD DUP2 LT PUSH2 0xA99 JUMPI PUSH2 0xA99 PUSH2 0xEA6 JUMP JUMPDEST SWAP1 PUSH1 0x0 MSTORE PUSH1 0x20 PUSH1 0x0 KECCAK256 ADD DUP4 DUP2 SLOAD DUP2 LT PUSH2 0xAB4 JUMPI PUSH2 0xAB4 PUSH2 0xEA6 JUMP JUMPDEST SWAP1 PUSH1 0x0 MSTORE PUSH1 0x20 PUSH1 0x0 KECCAK256 ADD SLOAD PUSH1 0x3 DUP2 LT PUSH2 0xACF JUMPI PUSH2 0xACF PUSH2 0xEA6 JUMP JUMPDEST PUSH1 0x20 MUL ADD MLOAD DUP3 PUSH1 0x5 DUP2 LT PUSH2 0xAE5 JUMPI PUSH2 0xAE5 PUSH2 0xEA6 JUMP JUMPDEST PUSH1 0x20 MUL ADD MLOAD SWAP1 POP PUSH1 0x0 PUSH2 0xAF9 DUP4 PUSH1 0x1 PUSH2 0xE4D JUMP JUMPDEST SWAP1 POP JUMPDEST PUSH1 0x5 DUP2 LT ISZERO PUSH2 0xC09 JUMPI DUP2 DUP8 PUSH1 0x6 DUP11 DUP2 SLOAD DUP2 LT PUSH2 0xB1A JUMPI PUSH2 0xB1A PUSH2 0xEA6 JUMP JUMPDEST SWAP1 PUSH1 0x0 MSTORE PUSH1 0x20 PUSH1 0x0 KECCAK256 ADD DUP4 DUP2 SLOAD DUP2 LT PUSH2 0xB35 JUMPI PUSH2 0xB35 PUSH2 0xEA6 JUMP JUMPDEST SWAP1 PUSH1 0x0 MSTORE PUSH1 0x20 PUSH1 0x0 KECCAK256 ADD SLOAD PUSH1 0x3 DUP2 LT PUSH2 0xB50 JUMPI PUSH2 0xB50 PUSH2 0xEA6 JUMP JUMPDEST PUSH1 0x20 MUL ADD MLOAD DUP3 PUSH1 0x5 DUP2 LT PUSH2 0xB66 JUMPI PUSH2 0xB66 PUSH2 0xEA6 JUMP JUMPDEST PUSH1 0x20 MUL ADD MLOAD EQ DUP1 PUSH2 0xBDB JUMPI POP PUSH1 0x1 DUP8 PUSH1 0x6 DUP11 DUP2 SLOAD DUP2 LT PUSH2 0xB88 JUMPI PUSH2 0xB88 PUSH2 0xEA6 JUMP JUMPDEST SWAP1 PUSH1 0x0 MSTORE PUSH1 0x20 PUSH1 0x0 KECCAK256 ADD DUP4 DUP2 SLOAD DUP2 LT PUSH2 0xBA3 JUMPI PUSH2 0xBA3 PUSH2 0xEA6 JUMP JUMPDEST SWAP1 PUSH1 0x0 MSTORE PUSH1 0x20 PUSH1 0x0 KECCAK256 ADD SLOAD PUSH1 0x3 DUP2 LT PUSH2 0xBBE JUMPI PUSH2 0xBBE PUSH2 0xEA6 JUMP JUMPDEST PUSH1 0x20 MUL ADD MLOAD DUP3 PUSH1 0x5 DUP2 LT PUSH2 0xBD4 JUMPI PUSH2 0xBD4 PUSH2 0xEA6 JUMP JUMPDEST PUSH1 0x20 MUL ADD MLOAD EQ JUMPDEST ISZERO PUSH2 0xBF2 JUMPI DUP4 PUSH2 0xBEA DUP2 PUSH2 0xED0 JUMP JUMPDEST SWAP5 POP POP PUSH2 0xBF7 JUMP JUMPDEST PUSH2 0xC09 JUMP JUMPDEST DUP1 PUSH2 0xC01 DUP2 PUSH2 0xED0 JUMP JUMPDEST SWAP2 POP POP PUSH2 0xAFC JUMP JUMPDEST POP DUP3 ISZERO PUSH2 0xC4A JUMPI PUSH1 0x0 PUSH1 0x8 DUP3 PUSH1 0x9 DUP2 LT PUSH2 0xC25 JUMPI PUSH2 0xC25 PUSH2 0xEA6 JUMP JUMPDEST PUSH1 0x5 MUL ADD DUP5 PUSH1 0x5 DUP2 LT PUSH2 0xC3A JUMPI PUSH2 0xC3A PUSH2 0xEA6 JUMP JUMPDEST ADD SLOAD SWAP6 POP SWAP1 SWAP4 POP PUSH2 0xC55 SWAP3 POP POP POP JUMP JUMPDEST PUSH1 0x0 DUP1 SWAP5 POP SWAP5 POP POP POP POP JUMPDEST SWAP3 POP SWAP3 SWAP1 POP JUMP JUMPDEST PUSH1 0x40 MLOAD DUP1 PUSH1 0xA0 ADD PUSH1 0x40 MSTORE DUP1 PUSH1 0x5 SWAP1 PUSH1 0x20 DUP3 MUL DUP1 CALLDATASIZE DUP4 CALLDATACOPY POP SWAP2 SWAP3 SWAP2 POP POP JUMP JUMPDEST DUP3 PUSH1 0x5 DUP2 ADD SWAP3 DUP3 ISZERO PUSH2 0xCA8 JUMPI SWAP2 PUSH1 0x20 MUL DUP3 ADD JUMPDEST DUP3 DUP2 GT ISZERO PUSH2 0xCA8 JUMPI DUP3 MLOAD DUP3 SSTORE SWAP2 PUSH1 0x20 ADD SWAP2 SWAP1 PUSH1 0x1 ADD SWAP1 PUSH2 0xC8D JUMP JUMPDEST POP PUSH2 0xCB4 SWAP3 SWAP2 POP PUSH2 0xCB8 JUMP JUMPDEST POP SWAP1 JUMP JUMPDEST JUMPDEST DUP1 DUP3 GT ISZERO PUSH2 0xCB4 JUMPI PUSH1 0x0 DUP2 SSTORE PUSH1 0x1 ADD PUSH2 0xCB9 JUMP JUMPDEST DUP1 CALLDATALOAD PUSH1 0x1 PUSH1 0x1 PUSH1 0xA0 SHL SUB DUP2 AND DUP2 EQ PUSH2 0xCE4 JUMPI PUSH1 0x0 DUP1 REVERT JUMPDEST SWAP2 SWAP1 POP JUMP JUMPDEST PUSH1 0x0 DUP1 PUSH1 0x40 DUP4 DUP6 SUB SLT ISZERO PUSH2 0xCFC JUMPI PUSH1 0x0 DUP1 REVERT JUMPDEST PUSH2 0xD05 DUP4 PUSH2 0xCCD JUMP JUMPDEST SWAP5 PUSH1 0x20 SWAP4 SWAP1 SWAP4 ADD CALLDATALOAD SWAP4 POP POP POP JUMP JUMPDEST PUSH1 0x0 PUSH1 0x20 DUP3 DUP5 SUB SLT ISZERO PUSH2 0xD25 JUMPI PUSH1 0x0 DUP1 REVERT JUMPDEST POP CALLDATALOAD SWAP2 SWAP1 POP JUMP JUMPDEST PUSH1 0x0 PUSH1 0x20 DUP1 DUP4 ADD DUP2 DUP5 MSTORE DUP1 DUP6 MLOAD DUP1 DUP4 MSTORE PUSH1 0x40 DUP7 ADD SWAP2 POP PUSH1 0x40 DUP2 PUSH1 0x5 SHL DUP8 ADD ADD SWAP3 POP DUP4 DUP8 ADD PUSH1 0x0 DUP1 JUMPDEST DUP4 DUP2 LT ISZERO PUSH2 0xDA8 JUMPI DUP9 DUP7 SUB PUSH1 0x3F NOT ADD DUP6 MSTORE DUP3 MLOAD DUP1 MLOAD DUP1 DUP9 MSTORE SWAP1 DUP9 ADD SWAP1 DUP9 DUP9 ADD SWAP1 DUP5 JUMPDEST DUP2 DUP2 LT ISZERO PUSH2 0xD92 JUMPI DUP4 MLOAD DUP4 MSTORE SWAP3 DUP11 ADD SWAP3 SWAP2 DUP11 ADD SWAP2 PUSH1 0x1 ADD PUSH2 0xD76 JUMP JUMPDEST POP SWAP1 SWAP8 POP POP POP SWAP4 DUP7 ADD SWAP4 SWAP2 DUP7 ADD SWAP2 PUSH1 0x1 ADD PUSH2 0xD54 JUMP JUMPDEST POP SWAP4 SWAP9 SWAP8 POP POP POP POP POP POP POP POP JUMP JUMPDEST DUP1 PUSH1 0x0 JUMPDEST PUSH1 0x5 DUP2 LT ISZERO PUSH2 0xDD9 JUMPI DUP2 MLOAD DUP5 MSTORE PUSH1 0x20 SWAP4 DUP5 ADD SWAP4 SWAP1 SWAP2 ADD SWAP1 PUSH1 0x1 ADD PUSH2 0xDBA JUMP JUMPDEST POP POP POP POP JUMP JUMPDEST PUSH1 0xA0 DUP2 ADD PUSH2 0xDED DUP3 DUP5 PUSH2 0xDB6 JUMP JUMPDEST SWAP3 SWAP2 POP POP JUMP JUMPDEST PUSH1 0x0 DUP1 PUSH1 0x40 DUP4 DUP6 SUB SLT ISZERO PUSH2 0xE06 JUMPI PUSH1 0x0 DUP1 REVERT JUMPDEST POP POP DUP1 CALLDATALOAD SWAP3 PUSH1 0x20 SWAP1 SWAP2 ADD CALLDATALOAD SWAP2 POP JUMP JUMPDEST PUSH1 0x0 PUSH1 0x20 DUP3 DUP5 SUB SLT ISZERO PUSH2 0xE27 JUMPI PUSH1 0x0 DUP1 REVERT JUMPDEST PUSH2 0xE30 DUP3 PUSH2 0xCCD JUMP JUMPDEST SWAP4 SWAP3 POP POP POP JUMP JUMPDEST PUSH4 0x4E487B71 PUSH1 0xE0 SHL PUSH1 0x0 MSTORE PUSH1 0x11 PUSH1 0x4 MSTORE PUSH1 0x24 PUSH1 0x0 REVERT JUMPDEST PUSH1 0x0 DUP3 NOT DUP3 GT ISZERO PUSH2 0xE60 JUMPI PUSH2 0xE60 PUSH2 0xE37 JUMP JUMPDEST POP ADD SWAP1 JUMP JUMPDEST PUSH1 0x0 DUP3 DUP3 LT ISZERO PUSH2 0xE77 JUMPI PUSH2 0xE77 PUSH2 0xE37 JUMP JUMPDEST POP SUB SWAP1 JUMP JUMPDEST PUSH4 0x4E487B71 PUSH1 0xE0 SHL PUSH1 0x0 MSTORE PUSH1 0x12 PUSH1 0x4 MSTORE PUSH1 0x24 PUSH1 0x0 REVERT JUMPDEST PUSH1 0x0 DUP3 PUSH2 0xEA1 JUMPI PUSH2 0xEA1 PUSH2 0xE7C JUMP JUMPDEST POP MOD SWAP1 JUMP JUMPDEST PUSH4 0x4E487B71 PUSH1 0xE0 SHL PUSH1 0x0 MSTORE PUSH1 0x32 PUSH1 0x4 MSTORE PUSH1 0x24 PUSH1 0x0 REVERT JUMPDEST PUSH1 0x0 DUP3 PUSH2 0xECB JUMPI PUSH2 0xECB PUSH2 0xE7C JUMP JUMPDEST POP DIV SWAP1 JUMP JUMPDEST PUSH1 0x0 PUSH1 0x0 NOT DUP3 EQ ISZERO PUSH2 0xEE4 JUMPI PUSH2 0xEE4 PUSH2 0xE37 JUMP JUMPDEST POP PUSH1 0x1 ADD SWAP1 JUMP JUMPDEST PUSH1 0x0 DUP2 PUSH1 0x0 NOT DIV DUP4 GT DUP3 ISZERO ISZERO AND ISZERO PUSH2 0xF05 JUMPI PUSH2 0xF05 PUSH2 0xE37 JUMP JUMPDEST POP MUL SWAP1 JUMP JUMPDEST PUSH1 0x1 PUSH1 0x1 PUSH1 0xA0 SHL SUB DUP9 AND DUP2 MSTORE PUSH1 0x20 DUP2 ADD DUP8 SWAP1 MSTORE PUSH1 0x40 DUP2 ADD DUP7 SWAP1 MSTORE PUSH2 0x160 DUP2 ADD PUSH2 0xF36 PUSH1 0x60 DUP4 ADD DUP8 PUSH2 0xDB6 JUMP JUMPDEST DUP5 PUSH2 0x100 DUP4 ADD MSTORE DUP4 PUSH2 0x120 DUP4 ADD MSTORE DUP3 PUSH2 0x140 DUP4 ADD MSTORE SWAP9 SWAP8 POP POP POP POP POP POP POP POP JUMP INVALID LOG2 PUSH5 0x6970667358 0x22 SLT KECCAK256 CALL PUSH9 0x89E74307D3B2749BBF 0x4C 0xAA GASLIMIT ISZERO MSTORE8 0xC3 0xFB INVALID CREATE2 SWAP15 SWAP13 ADD PUSH31 0x9504A5BFACB54EBB64736F6C634300080C0033000000000000000000000000 "
		},
		"gasEstimates": {
			"creation": {
				"codeDepositCost": "796200",
				"executionCost": "infinite",
				"totalCost": "infinite"
			},
			"external": {
				"addUserBalance(uint256)": "24612",
				"doSpin(uint256,uint256)": "infinite",
				"flushRandom(bytes32)": "57491",
				"getMySlots()": "infinite",
				"getUserBalance()": "2370",
				"getWinLines()": "infinite",
				"owner()": "2301",
				"playerSpins(address,uint256)": "17589",
				"renounceOwnership()": "infinite",
				"transferOwnership(address)": "28399"
			},
			"internal": {
				"checkLine(uint256,uint256[5] memory[3] memory)": "infinite",
				"getRandom(bytes32,uint256)": "infinite",
				"getRandomBase(bytes32)": "infinite",
				"getWinLine(uint32)": "infinite"
			}
		},
		"methodIdentifiers": {
			"addUserBalance(uint256)": "22526328",
			"doSpin(uint256,uint256)": "dc8275e4",
			"flushRandom(bytes32)": "f7e944ee",
			"getMySlots()": "696155c5",
			"getUserBalance()": "b7013dc1",
			"getWinLines()": "4282cf54",
			"owner()": "8da5cb5b",
			"playerSpins(address,uint256)": "17adaa03",
			"renounceOwnership()": "715018a6",
			"transferOwnership(address)": "f2fde38b"
		}
	},
	"abi": [
		{
			"inputs": [],
			"stateMutability": "nonpayable",
			"type": "constructor"
		},
		{
			"anonymous": false,
			"inputs": [
				{
					"indexed": true,
					"internalType": "address",
					"name": "previousOwner",
					"type": "address"
				},
				{
					"indexed": true,
					"internalType": "address",
					"name": "newOwner",
					"type": "address"
				}
			],
			"name": "OwnershipTransferred",
			"type": "event"
		},
		{
			"anonymous": false,
			"inputs": [
				{
					"indexed": false,
					"internalType": "address",
					"name": "user",
					"type": "address"
				},
				{
					"indexed": false,
					"internalType": "uint256",
					"name": "bet",
					"type": "uint256"
				},
				{
					"indexed": false,
					"internalType": "uint256",
					"name": "lines",
					"type": "uint256"
				},
				{
					"indexed": false,
					"internalType": "uint256[5]",
					"name": "slots",
					"type": "uint256[5]"
				},
				{
					"indexed": false,
					"internalType": "uint256",
					"name": "maxLine",
					"type": "uint256"
				},
				{
					"indexed": false,
					"internalType": "uint256",
					"name": "maxLineWin",
					"type": "uint256"
				},
				{
					"indexed": false,
					"internalType": "uint256",
					"name": "maxWinSlot",
					"type": "uint256"
				}
			],
			"name": "Spinned",
			"type": "event"
		},
		{
			"inputs": [
				{
					"internalType": "uint256",
					"name": "bets",
					"type": "uint256"
				}
			],
			"name": "addUserBalance",
			"outputs": [],
			"stateMutability": "nonpayable",
			"type": "function"
		},
		{
			"inputs": [
				{
					"internalType": "uint256",
					"name": "betAmount",
					"type": "uint256"
				},
				{
					"internalType": "uint256",
					"name": "lineCount",
					"type": "uint256"
				}
			],
			"name": "doSpin",
			"outputs": [],
			"stateMutability": "nonpayable",
			"type": "function"
		},
		{
			"inputs": [
				{
					"internalType": "bytes32",
					"name": "_flushSeed",
					"type": "bytes32"
				}
			],
			"name": "flushRandom",
			"outputs": [],
			"stateMutability": "nonpayable",
			"type": "function"
		},
		{
			"inputs": [],
			"name": "getMySlots",
			"outputs": [
				{
					"internalType": "uint256[5]",
					"name": "",
					"type": "uint256[5]"
				}
			],
			"stateMutability": "view",
			"type": "function"
		},
		{
			"inputs": [],
			"name": "getUserBalance",
			"outputs": [
				{
					"internalType": "uint256",
					"name": "",
					"type": "uint256"
				}
			],
			"stateMutability": "view",
			"type": "function"
		},
		{
			"inputs": [],
			"name": "getWinLines",
			"outputs": [
				{
					"internalType": "uint256[][]",
					"name": "",
					"type": "uint256[][]"
				}
			],
			"stateMutability": "view",
			"type": "function"
		},
		{
			"inputs": [],
			"name": "owner",
			"outputs": [
				{
					"internalType": "address",
					"name": "",
					"type": "address"
				}
			],
			"stateMutability": "view",
			"type": "function"
		},
		{
			"inputs": [
				{
					"internalType": "address",
					"name": "",
					"type": "address"
				},
				{
					"internalType": "uint256",
					"name": "",
					"type": "uint256"
				}
			],
			"name": "playerSpins",
			"outputs": [
				{
					"internalType": "address",
					"name": "player",
					"type": "address"
				},
				{
					"internalType": "uint256",
					"name": "bet",
					"type": "uint256"
				},
				{
					"internalType": "uint256",
					"name": "utx",
					"type": "uint256"
				},
				{
					"internalType": "uint256",
					"name": "lines",
					"type": "uint256"
				},
				{
					"internalType": "uint256",
					"name": "winLine",
					"type": "uint256"
				},
				{
					"internalType": "uint256",
					"name": "winAmount",
					"type": "uint256"
				},
				{
					"internalType": "uint256",
					"name": "winSlot",
					"type": "uint256"
				}
			],
			"stateMutability": "view",
			"type": "function"
		},
		{
			"inputs": [],
			"name": "renounceOwnership",
			"outputs": [],
			"stateMutability": "nonpayable",
			"type": "function"
		},
		{
			"inputs": [
				{
					"internalType": "address",
					"name": "newOwner",
					"type": "address"
				}
			],
			"name": "transferOwnership",
			"outputs": [],
			"stateMutability": "nonpayable",
			"type": "function"
		}
	]
}