{
	"data": {
		"bytecode": {
			"linkReferences": {},
			"object": "6002805463ffffffff19166005908117909155610120604052620186a0608090815261271060a0526103e860c052606460e052600a61010052620000479160049190620007e7565b506040805160a08101825261271081526103e86020820152606491810182905260608101919091526001608082015262000085906005908162000889565b50600060078190556008819055600955348015620000a257600080fd5b50620000ae3362000797565b6040805160a0810182526001808252602082018190529181018290526060810182905260808101829052600680549283018155600052620001039160008051602062001d9283398151915201906005620008e4565b506040805160a0810182526000808252602082018190529181018290526060810182905260808101829052600680546001810182559252620001599160008051602062001d9283398151915201906005620008e4565b506040805160a08101825260028082526020820181905291810182905260608101829052608081019190915260068054600181018255600091909152620001b69160008051602062001d92833981519152909101906005620008e4565b506040805160a081018252600180825260208201819052600092820183905260608201819052600260808301526006805491820181559092526200020e9160008051602062001d9283398151915201906005620008e4565b506040805160a081018252600180825260208201819052600292820192909252606081018290526000608082018190526006805493840181559052620002689160008051602062001d9283398151915201906005620008e4565b506040805160a08101825260018082526000602083018190529282018190526002606083015260808201819052600680549182018155909252620002c09160008051602062001d9283398151915201906005620008e4565b506040805160a08101825260018082526000602083018190529282018190526002606083018190526080830152600680549182018155909252620003189160008051602062001d9283398151915201906005620008e4565b506040805160a08101825260018082526000602083018190529282018390526060820181905260026080830152600680549182018155909252620003709160008051602062001d9283398151915201906005620008e4565b506040805160a081018252600180825260026020830152918101829052600060608201819052608082018390526006805493840181559052620003c79160008051602062001d9283398151915201906005620008e4565b506040805160a081018252600180825260026020830181905292820192909252606081018290526000608082018190526006805493840181559052620004219160008051602062001d9283398151915201906005620008e4565b506040805160a081018252600180825260026020830152918101829052600060608201819052608082018190526006805493840181559052620004789160008051602062001d9283398151915201906005620008e4565b506040805160a081018252600080825260016020830181905260029383019390935260608201839052608082018190526006805493840181559052620004d29160008051602062001d9283398151915201906005620008e4565b506040805160a081018252600080825260016020830181905292820183905260608201839052600260808301526006805493840181559052620005299160008051602062001d9283398151915201906005620008e4565b506040805160a081018252600080825260208201819052600192820183905260026060830181905260808301526006805493840181559052620005809160008051602062001d9283398151915201906005620008e4565b506040805160a081018252600080825260208201819052600192820183905260026060830152608082018390526006805493840181559052620005d79160008051602062001d9283398151915201906005620008e4565b506040805160a081018252600080825260208201819052918101829052600160608201819052600260808301526006805491820181559092526200062f9160008051602062001d9283398151915201906005620008e4565b506040805160a081018252600280825260016020830181905260009383018490526060830181905260808301919091526006805491820181559092526200068a9160008051602062001d9283398151915201906005620008e4565b506040805160a08101825260028152600160208201819052918101829052606081018290526000608082018190526006805493840181559052620006e29160008051602062001d9283398151915201906005620008e4565b506040805160a081018252600280825260208201526001918101829052600060608201819052608082018190526006805493840181559052620007399160008051602062001d9283398151915201906005620008e4565b506040805160a081018252600280825260208201526001918101829052600060608201819052608082018390526006805493840181559052620007909160008051602062001d9283398151915201906005620008e4565b5062000968565b600080546001600160a01b038381166001600160a01b0319831681178455604051919092169283917f8be0079c531659141344cd1fd0a4f28419497f9722a3daafe3b4186f6b6457e09190a35050565b600183019183908215620008775791602002820160005b838211156200084357835183826101000a81548163ffffffff021916908362ffffff1602179055509260200192600401602081600301049283019260010302620007fe565b8015620008755782816101000a81549063ffffffff021916905560040160208160030104928301926001030262000843565b505b506200088592915062000951565b5090565b600183019183908215620008775791602002820160005b838211156200084357835183826101000a81548163ffffffff021916908361ffff1602179055509260200192600401602081600301049283019260010302620008a0565b82805482825590600052602060002090600701600890048101928215620008775791602002820160005b838211156200084357835183826101000a81548163ffffffff021916908360ff16021790555092602001926004016020816003010492830192600103026200090e565b5b8082111562000885576000815560010162000952565b61141a80620009786000396000f3fe608060405234801561001057600080fd5b506004361061007d5760003560e01c80638da5cb5b1161005b5780638da5cb5b146100c1578063ea42ff1f146100dc578063f2fde38b146100ff578063f7e944ee1461011257600080fd5b8063367a917b146100825780634282cf54146100a2578063715018a6146100b7575b600080fd5b61008a610125565b60405161009993929190610fe8565b60405180910390f35b6100aa610832565b604051610099919061104a565b6100bf6108f7565b005b6000546040516001600160a01b039091168152602001610099565b6100ef6100ea366004611178565b61090b565b6040519015158152602001610099565b6100bf61010d366004611276565b610d21565b6100bf6101203660046112a6565b610d9f565b6000806060818061013581610e0d565b90506000610146620186a0836112d5565b61015390620186a06112ff565b905061015d610f72565b610165610f72565b61016d610f72565b60005b60025463ffffffff90811690821610156102ef57600060058263ffffffff166005811061019f5761019f611317565b600891828204019190066004029054906101000a900463ffffffff1660048363ffffffff16600581106101d4576101d4611317565b600891828204019190066004029054906101000a900463ffffffff16876101fb919061132d565b6102059190611350565b90508063ffffffff166009141561021a575060005b8451819063ffffffff84166005811061023557610235611317565b63ffffffff928316602091909102919091015281161561025f5761025a600182611373565b610262565b60085b845163ffffffff84166005811061027b5761027b611317565b602002019063ffffffff16908163ffffffff16815250508063ffffffff166008146102b0576102ab816001611398565b6102b3565b60005b835163ffffffff8416600581106102cc576102cc611317565b63ffffffff909216602092909202015250806102e7816113c0565b915050610170565b506102f8610f8a565b80516020018490528051839052805160400182905260065460009067ffffffffffffffff81111561032b5761032b6110f3565b604051908082528060200260200182016040528015610354578160200160208202803683370190505b5090506000805b60065463ffffffff821610156107e45783516006805463ffffffff841690811061038757610387611317565b906000526020600020016001815481106103a3576103a3611317565b6000918252602090912060088204015460079091166004026101000a900463ffffffff16600381106103d7576103d7611317565b6020020151516001602002015163ffffffff16846000015160068363ffffffff168154811061040857610408611317565b9060005260206000200160008154811061042457610424611317565b6000918252602090912060088204015460079091166004026101000a900463ffffffff166003811061045857610458611317565b6020020151515163ffffffff16148015610568575083516006805463ffffffff841690811061048957610489611317565b906000526020600020016002815481106104a5576104a5611317565b6000918252602090912060088204015460079091166004026101000a900463ffffffff16600381106104d9576104d9611317565b6020020151516040015184516006805463ffffffff93841693851690811061050357610503611317565b9060005260206000200160018154811061051f5761051f611317565b6000918252602090912060088204015460079091166004026101000a900463ffffffff166003811061055357610553611317565b6020020151516001602002015163ffffffff16145b8015610667575083516006805463ffffffff841690811061058b5761058b611317565b906000526020600020016003815481106105a7576105a7611317565b6000918252602090912060088204015460079091166004026101000a900463ffffffff16600381106105db576105db611317565b6020020151516060015184516006805463ffffffff93841693851690811061060557610605611317565b9060005260206000200160028154811061062157610621611317565b6000918252602090912060088204015460079091166004026101000a900463ffffffff166003811061065557610655611317565b6020020151516040015163ffffffff16145b8015610766575083516006805463ffffffff841690811061068a5761068a611317565b906000526020600020016004815481106106a6576106a6611317565b6000918252602090912060088204015460079091166004026101000a900463ffffffff16600381106106da576106da611317565b6020020151516080015184516006805463ffffffff93841693851690811061070457610704611317565b9060005260206000200160038154811061072057610720611317565b6000918252602090912060088204015460079091166004026101000a900463ffffffff166003811061075457610754611317565b6020020151516060015163ffffffff16145b156107a75781610775816113c0565b9250506001838263ffffffff168151811061079257610792611317565b911515602092830291909101909101526107d2565b6000838263ffffffff16815181106107c1576107c1611317565b911515602092830291909101909101525b806107dc816113c0565b91505061035b565b507f036aae38c0461de63e32c1224e436463a66b9ee6560e320860083d7eafb65a7787828460405161081893929190610fe8565b60405180910390a1959b959a509850939650505050505050565b60606006805480602002602001604051908101604052809291908181526020016000905b828210156108ee576000848152602090819020830180546040805182850281018501909152818152928301828280156108da57602002820191906000526020600020906000905b82829054906101000a900463ffffffff1663ffffffff168152602001906004019060208260030104928301926001038202915080841161089d5790505b505050505081526020019060010190610856565b50505050905090565b6108ff610ec8565b6109096000610f22565b565b6000816000015160068463ffffffff168154811061092b5761092b611317565b9060005260206000200160018154811061094757610947611317565b6000918252602090912060088204015460079091166004026101000a900463ffffffff166003811061097b5761097b611317565b6020020151516001602002015163ffffffff16826000015160068563ffffffff16815481106109ac576109ac611317565b906000526020600020016000815481106109c8576109c8611317565b6000918252602090912060088204015460079091166004026101000a900463ffffffff16600381106109fc576109fc611317565b6020020151515163ffffffff16148015610b0c575081516006805463ffffffff8616908110610a2d57610a2d611317565b90600052602060002001600281548110610a4957610a49611317565b6000918252602090912060088204015460079091166004026101000a900463ffffffff1660038110610a7d57610a7d611317565b6020020151516040015182516006805463ffffffff938416938716908110610aa757610aa7611317565b90600052602060002001600181548110610ac357610ac3611317565b6000918252602090912060088204015460079091166004026101000a900463ffffffff1660038110610af757610af7611317565b6020020151516001602002015163ffffffff16145b8015610c0b575081516006805463ffffffff8616908110610b2f57610b2f611317565b90600052602060002001600381548110610b4b57610b4b611317565b6000918252602090912060088204015460079091166004026101000a900463ffffffff1660038110610b7f57610b7f611317565b6020020151516060015182516006805463ffffffff938416938716908110610ba957610ba9611317565b90600052602060002001600281548110610bc557610bc5611317565b6000918252602090912060088204015460079091166004026101000a900463ffffffff1660038110610bf957610bf9611317565b6020020151516040015163ffffffff16145b8015610d0a575081516006805463ffffffff8616908110610c2e57610c2e611317565b90600052602060002001600481548110610c4a57610c4a611317565b6000918252602090912060088204015460079091166004026101000a900463ffffffff1660038110610c7e57610c7e611317565b6020020151516080015182516006805463ffffffff938416938716908110610ca857610ca8611317565b90600052602060002001600381548110610cc457610cc4611317565b6000918252602090912060088204015460079091166004026101000a900463ffffffff1660038110610cf857610cf8611317565b6020020151516060015163ffffffff16145b15610d1757506001610d1b565b5060005b92915050565b610d29610ec8565b6001600160a01b038116610d935760405162461bcd60e51b815260206004820152602660248201527f4f776e61626c653a206e6577206f776e657220697320746865207a65726f206160448201526564647265737360d01b60648201526084015b60405180910390fd5b610d9c81610f22565b50565b610da7610ec8565b60004260075460095460085485610dbd60015490565b6040805160208101979097528601949094526060850192909252608084015260a083015260c082015260e00160408051601f19818403018152919052805160209091012060088054600955555050565b600080428360075460085460095443404144453a335a60015460408051602081019e909e528d019b909b526060808d019a909a5260808c019890985260a08b019690965260c08a01949094526bffffffffffffffffffffffff1992871b831660e08a015260f4890191909152610114880152610134870191909152921b9091166101548401526101688301526101888201526101a80160408051601f1981840301815291905280516020909101206007939093555090919050565b6000546001600160a01b031633146109095760405162461bcd60e51b815260206004820181905260248201527f4f776e61626c653a2063616c6c6572206973206e6f7420746865206f776e65726044820152606401610d8a565b600080546001600160a01b038381166001600160a01b0319831681178455604051919092169283917f8be0079c531659141344cd1fd0a4f28419497f9722a3daafe3b4186f6b6457e09190a35050565b6040518060200160405280610f85610f9d565b905290565b6040518060200160405280610f85610fbb565b6040518060a001604052806005906020820280368337509192915050565b60405180606001604052806003905b610fd2610f72565b815260200190600190039081610fca5790505090565b60006060820163ffffffff8087168452602081871681860152606060408601528291508551808452608086019250818701935060005b8181101561103c57845115158452938201939282019260010161101e565b509198975050505050505050565b6000602080830181845280855180835260408601915060408160051b87010192508387016000805b838110156110cc57888603603f19018552825180518088529088019088880190845b818110156110b657835163ffffffff168352928a0192918a0191600101611094565b5090975050509386019391860191600101611072565b509398975050505050505050565b803563ffffffff811681146110ee57600080fd5b919050565b634e487b7160e01b600052604160045260246000fd5b6040516020810167ffffffffffffffff8111828210171561112c5761112c6110f3565b60405290565b6040516060810167ffffffffffffffff8111828210171561112c5761112c6110f3565b60405160a0810167ffffffffffffffff8111828210171561112c5761112c6110f3565b6000808284036102008082121561118e57600080fd5b611197856110da565b935060206101e0601f19840112156111ae57600080fd5b6111b6611109565b925086603f8701126111c757600080fd5b6111cf611132565b9186019180888411156111e157600080fd5b8288015b848110156112655760a080828c0312156111ff5760008081fd5b611207611109565b8b601f8401126112175760008081fd5b61121f611155565b91830191808d8411156112325760008081fd5b845b8481101561125257611245816110da565b8352918801918801611234565b508252508452509183019160a0016111e5565b508452509396919550909350505050565b60006020828403121561128857600080fd5b81356001600160a01b038116811461129f57600080fd5b9392505050565b6000602082840312156112b857600080fd5b5035919050565b634e487b7160e01b600052601260045260246000fd5b6000826112e4576112e46112bf565b500690565b634e487b7160e01b600052601160045260246000fd5b60008219821115611312576113126112e9565b500190565b634e487b7160e01b600052603260045260246000fd5b600063ffffffff80841680611344576113446112bf565b92169190910692915050565b600063ffffffff80841680611367576113676112bf565b92169190910492915050565b600063ffffffff83811690831681811015611390576113906112e9565b039392505050565b600063ffffffff8083168185168083038211156113b7576113b76112e9565b01949350505050565b600063ffffffff808316818114156113da576113da6112e9565b600101939250505056fea2646970667358221220f836a1007157e5c60434127c691d13ce66e8653bd21383c4be1173ccdc0fbf5464736f6c634300080c0033f652222313e28459528d920b65115c16c04f3efc82aaedc97be59f3f377c0d3f",
			"opcodes": "PUSH1 0x2 DUP1 SLOAD PUSH4 0xFFFFFFFF NOT AND PUSH1 0x5 SWAP1 DUP2 OR SWAP1 SWAP2 SSTORE PUSH2 0x120 PUSH1 0x40 MSTORE PUSH3 0x186A0 PUSH1 0x80 SWAP1 DUP2 MSTORE PUSH2 0x2710 PUSH1 0xA0 MSTORE PUSH2 0x3E8 PUSH1 0xC0 MSTORE PUSH1 0x64 PUSH1 0xE0 MSTORE PUSH1 0xA PUSH2 0x100 MSTORE PUSH3 0x47 SWAP2 PUSH1 0x4 SWAP2 SWAP1 PUSH3 0x7E7 JUMP JUMPDEST POP PUSH1 0x40 DUP1 MLOAD PUSH1 0xA0 DUP2 ADD DUP3 MSTORE PUSH2 0x2710 DUP2 MSTORE PUSH2 0x3E8 PUSH1 0x20 DUP3 ADD MSTORE PUSH1 0x64 SWAP2 DUP2 ADD DUP3 SWAP1 MSTORE PUSH1 0x60 DUP2 ADD SWAP2 SWAP1 SWAP2 MSTORE PUSH1 0x1 PUSH1 0x80 DUP3 ADD MSTORE PUSH3 0x85 SWAP1 PUSH1 0x5 SWAP1 DUP2 PUSH3 0x889 JUMP JUMPDEST POP PUSH1 0x0 PUSH1 0x7 DUP2 SWAP1 SSTORE PUSH1 0x8 DUP2 SWAP1 SSTORE PUSH1 0x9 SSTORE CALLVALUE DUP1 ISZERO PUSH3 0xA2 JUMPI PUSH1 0x0 DUP1 REVERT JUMPDEST POP PUSH3 0xAE CALLER PUSH3 0x797 JUMP JUMPDEST PUSH1 0x40 DUP1 MLOAD PUSH1 0xA0 DUP2 ADD DUP3 MSTORE PUSH1 0x1 DUP1 DUP3 MSTORE PUSH1 0x20 DUP3 ADD DUP2 SWAP1 MSTORE SWAP2 DUP2 ADD DUP3 SWAP1 MSTORE PUSH1 0x60 DUP2 ADD DUP3 SWAP1 MSTORE PUSH1 0x80 DUP2 ADD DUP3 SWAP1 MSTORE PUSH1 0x6 DUP1 SLOAD SWAP3 DUP4 ADD DUP2 SSTORE PUSH1 0x0 MSTORE PUSH3 0x103 SWAP2 PUSH1 0x0 DUP1 MLOAD PUSH1 0x20 PUSH3 0x1D92 DUP4 CODECOPY DUP2 MLOAD SWAP2 MSTORE ADD SWAP1 PUSH1 0x5 PUSH3 0x8E4 JUMP JUMPDEST POP PUSH1 0x40 DUP1 MLOAD PUSH1 0xA0 DUP2 ADD DUP3 MSTORE PUSH1 0x0 DUP1 DUP3 MSTORE PUSH1 0x20 DUP3 ADD DUP2 SWAP1 MSTORE SWAP2 DUP2 ADD DUP3 SWAP1 MSTORE PUSH1 0x60 DUP2 ADD DUP3 SWAP1 MSTORE PUSH1 0x80 DUP2 ADD DUP3 SWAP1 MSTORE PUSH1 0x6 DUP1 SLOAD PUSH1 0x1 DUP2 ADD DUP3 SSTORE SWAP3 MSTORE PUSH3 0x159 SWAP2 PUSH1 0x0 DUP1 MLOAD PUSH1 0x20 PUSH3 0x1D92 DUP4 CODECOPY DUP2 MLOAD SWAP2 MSTORE ADD SWAP1 PUSH1 0x5 PUSH3 0x8E4 JUMP JUMPDEST POP PUSH1 0x40 DUP1 MLOAD PUSH1 0xA0 DUP2 ADD DUP3 MSTORE PUSH1 0x2 DUP1 DUP3 MSTORE PUSH1 0x20 DUP3 ADD DUP2 SWAP1 MSTORE SWAP2 DUP2 ADD DUP3 SWAP1 MSTORE PUSH1 0x60 DUP2 ADD DUP3 SWAP1 MSTORE PUSH1 0x80 DUP2 ADD SWAP2 SWAP1 SWAP2 MSTORE PUSH1 0x6 DUP1 SLOAD PUSH1 0x1 DUP2 ADD DUP3 SSTORE PUSH1 0x0 SWAP2 SWAP1 SWAP2 MSTORE PUSH3 0x1B6 SWAP2 PUSH1 0x0 DUP1 MLOAD PUSH1 0x20 PUSH3 0x1D92 DUP4 CODECOPY DUP2 MLOAD SWAP2 MSTORE SWAP1 SWAP2 ADD SWAP1 PUSH1 0x5 PUSH3 0x8E4 JUMP JUMPDEST POP PUSH1 0x40 DUP1 MLOAD PUSH1 0xA0 DUP2 ADD DUP3 MSTORE PUSH1 0x1 DUP1 DUP3 MSTORE PUSH1 0x20 DUP3 ADD DUP2 SWAP1 MSTORE PUSH1 0x0 SWAP3 DUP3 ADD DUP4 SWAP1 MSTORE PUSH1 0x60 DUP3 ADD DUP2 SWAP1 MSTORE PUSH1 0x2 PUSH1 0x80 DUP4 ADD MSTORE PUSH1 0x6 DUP1 SLOAD SWAP2 DUP3 ADD DUP2 SSTORE SWAP1 SWAP3 MSTORE PUSH3 0x20E SWAP2 PUSH1 0x0 DUP1 MLOAD PUSH1 0x20 PUSH3 0x1D92 DUP4 CODECOPY DUP2 MLOAD SWAP2 MSTORE ADD SWAP1 PUSH1 0x5 PUSH3 0x8E4 JUMP JUMPDEST POP PUSH1 0x40 DUP1 MLOAD PUSH1 0xA0 DUP2 ADD DUP3 MSTORE PUSH1 0x1 DUP1 DUP3 MSTORE PUSH1 0x20 DUP3 ADD DUP2 SWAP1 MSTORE PUSH1 0x2 SWAP3 DUP3 ADD SWAP3 SWAP1 SWAP3 MSTORE PUSH1 0x60 DUP2 ADD DUP3 SWAP1 MSTORE PUSH1 0x0 PUSH1 0x80 DUP3 ADD DUP2 SWAP1 MSTORE PUSH1 0x6 DUP1 SLOAD SWAP4 DUP5 ADD DUP2 SSTORE SWAP1 MSTORE PUSH3 0x268 SWAP2 PUSH1 0x0 DUP1 MLOAD PUSH1 0x20 PUSH3 0x1D92 DUP4 CODECOPY DUP2 MLOAD SWAP2 MSTORE ADD SWAP1 PUSH1 0x5 PUSH3 0x8E4 JUMP JUMPDEST POP PUSH1 0x40 DUP1 MLOAD PUSH1 0xA0 DUP2 ADD DUP3 MSTORE PUSH1 0x1 DUP1 DUP3 MSTORE PUSH1 0x0 PUSH1 0x20 DUP4 ADD DUP2 SWAP1 MSTORE SWAP3 DUP3 ADD DUP2 SWAP1 MSTORE PUSH1 0x2 PUSH1 0x60 DUP4 ADD MSTORE PUSH1 0x80 DUP3 ADD DUP2 SWAP1 MSTORE PUSH1 0x6 DUP1 SLOAD SWAP2 DUP3 ADD DUP2 SSTORE SWAP1 SWAP3 MSTORE PUSH3 0x2C0 SWAP2 PUSH1 0x0 DUP1 MLOAD PUSH1 0x20 PUSH3 0x1D92 DUP4 CODECOPY DUP2 MLOAD SWAP2 MSTORE ADD SWAP1 PUSH1 0x5 PUSH3 0x8E4 JUMP JUMPDEST POP PUSH1 0x40 DUP1 MLOAD PUSH1 0xA0 DUP2 ADD DUP3 MSTORE PUSH1 0x1 DUP1 DUP3 MSTORE PUSH1 0x0 PUSH1 0x20 DUP4 ADD DUP2 SWAP1 MSTORE SWAP3 DUP3 ADD DUP2 SWAP1 MSTORE PUSH1 0x2 PUSH1 0x60 DUP4 ADD DUP2 SWAP1 MSTORE PUSH1 0x80 DUP4 ADD MSTORE PUSH1 0x6 DUP1 SLOAD SWAP2 DUP3 ADD DUP2 SSTORE SWAP1 SWAP3 MSTORE PUSH3 0x318 SWAP2 PUSH1 0x0 DUP1 MLOAD PUSH1 0x20 PUSH3 0x1D92 DUP4 CODECOPY DUP2 MLOAD SWAP2 MSTORE ADD SWAP1 PUSH1 0x5 PUSH3 0x8E4 JUMP JUMPDEST POP PUSH1 0x40 DUP1 MLOAD PUSH1 0xA0 DUP2 ADD DUP3 MSTORE PUSH1 0x1 DUP1 DUP3 MSTORE PUSH1 0x0 PUSH1 0x20 DUP4 ADD DUP2 SWAP1 MSTORE SWAP3 DUP3 ADD DUP4 SWAP1 MSTORE PUSH1 0x60 DUP3 ADD DUP2 SWAP1 MSTORE PUSH1 0x2 PUSH1 0x80 DUP4 ADD MSTORE PUSH1 0x6 DUP1 SLOAD SWAP2 DUP3 ADD DUP2 SSTORE SWAP1 SWAP3 MSTORE PUSH3 0x370 SWAP2 PUSH1 0x0 DUP1 MLOAD PUSH1 0x20 PUSH3 0x1D92 DUP4 CODECOPY DUP2 MLOAD SWAP2 MSTORE ADD SWAP1 PUSH1 0x5 PUSH3 0x8E4 JUMP JUMPDEST POP PUSH1 0x40 DUP1 MLOAD PUSH1 0xA0 DUP2 ADD DUP3 MSTORE PUSH1 0x1 DUP1 DUP3 MSTORE PUSH1 0x2 PUSH1 0x20 DUP4 ADD MSTORE SWAP2 DUP2 ADD DUP3 SWAP1 MSTORE PUSH1 0x0 PUSH1 0x60 DUP3 ADD DUP2 SWAP1 MSTORE PUSH1 0x80 DUP3 ADD DUP4 SWAP1 MSTORE PUSH1 0x6 DUP1 SLOAD SWAP4 DUP5 ADD DUP2 SSTORE SWAP1 MSTORE PUSH3 0x3C7 SWAP2 PUSH1 0x0 DUP1 MLOAD PUSH1 0x20 PUSH3 0x1D92 DUP4 CODECOPY DUP2 MLOAD SWAP2 MSTORE ADD SWAP1 PUSH1 0x5 PUSH3 0x8E4 JUMP JUMPDEST POP PUSH1 0x40 DUP1 MLOAD PUSH1 0xA0 DUP2 ADD DUP3 MSTORE PUSH1 0x1 DUP1 DUP3 MSTORE PUSH1 0x2 PUSH1 0x20 DUP4 ADD DUP2 SWAP1 MSTORE SWAP3 DUP3 ADD SWAP3 SWAP1 SWAP3 MSTORE PUSH1 0x60 DUP2 ADD DUP3 SWAP1 MSTORE PUSH1 0x0 PUSH1 0x80 DUP3 ADD DUP2 SWAP1 MSTORE PUSH1 0x6 DUP1 SLOAD SWAP4 DUP5 ADD DUP2 SSTORE SWAP1 MSTORE PUSH3 0x421 SWAP2 PUSH1 0x0 DUP1 MLOAD PUSH1 0x20 PUSH3 0x1D92 DUP4 CODECOPY DUP2 MLOAD SWAP2 MSTORE ADD SWAP1 PUSH1 0x5 PUSH3 0x8E4 JUMP JUMPDEST POP PUSH1 0x40 DUP1 MLOAD PUSH1 0xA0 DUP2 ADD DUP3 MSTORE PUSH1 0x1 DUP1 DUP3 MSTORE PUSH1 0x2 PUSH1 0x20 DUP4 ADD MSTORE SWAP2 DUP2 ADD DUP3 SWAP1 MSTORE PUSH1 0x0 PUSH1 0x60 DUP3 ADD DUP2 SWAP1 MSTORE PUSH1 0x80 DUP3 ADD DUP2 SWAP1 MSTORE PUSH1 0x6 DUP1 SLOAD SWAP4 DUP5 ADD DUP2 SSTORE SWAP1 MSTORE PUSH3 0x478 SWAP2 PUSH1 0x0 DUP1 MLOAD PUSH1 0x20 PUSH3 0x1D92 DUP4 CODECOPY DUP2 MLOAD SWAP2 MSTORE ADD SWAP1 PUSH1 0x5 PUSH3 0x8E4 JUMP JUMPDEST POP PUSH1 0x40 DUP1 MLOAD PUSH1 0xA0 DUP2 ADD DUP3 MSTORE PUSH1 0x0 DUP1 DUP3 MSTORE PUSH1 0x1 PUSH1 0x20 DUP4 ADD DUP2 SWAP1 MSTORE PUSH1 0x2 SWAP4 DUP4 ADD SWAP4 SWAP1 SWAP4 MSTORE PUSH1 0x60 DUP3 ADD DUP4 SWAP1 MSTORE PUSH1 0x80 DUP3 ADD DUP2 SWAP1 MSTORE PUSH1 0x6 DUP1 SLOAD SWAP4 DUP5 ADD DUP2 SSTORE SWAP1 MSTORE PUSH3 0x4D2 SWAP2 PUSH1 0x0 DUP1 MLOAD PUSH1 0x20 PUSH3 0x1D92 DUP4 CODECOPY DUP2 MLOAD SWAP2 MSTORE ADD SWAP1 PUSH1 0x5 PUSH3 0x8E4 JUMP JUMPDEST POP PUSH1 0x40 DUP1 MLOAD PUSH1 0xA0 DUP2 ADD DUP3 MSTORE PUSH1 0x0 DUP1 DUP3 MSTORE PUSH1 0x1 PUSH1 0x20 DUP4 ADD DUP2 SWAP1 MSTORE SWAP3 DUP3 ADD DUP4 SWAP1 MSTORE PUSH1 0x60 DUP3 ADD DUP4 SWAP1 MSTORE PUSH1 0x2 PUSH1 0x80 DUP4 ADD MSTORE PUSH1 0x6 DUP1 SLOAD SWAP4 DUP5 ADD DUP2 SSTORE SWAP1 MSTORE PUSH3 0x529 SWAP2 PUSH1 0x0 DUP1 MLOAD PUSH1 0x20 PUSH3 0x1D92 DUP4 CODECOPY DUP2 MLOAD SWAP2 MSTORE ADD SWAP1 PUSH1 0x5 PUSH3 0x8E4 JUMP JUMPDEST POP PUSH1 0x40 DUP1 MLOAD PUSH1 0xA0 DUP2 ADD DUP3 MSTORE PUSH1 0x0 DUP1 DUP3 MSTORE PUSH1 0x20 DUP3 ADD DUP2 SWAP1 MSTORE PUSH1 0x1 SWAP3 DUP3 ADD DUP4 SWAP1 MSTORE PUSH1 0x2 PUSH1 0x60 DUP4 ADD DUP2 SWAP1 MSTORE PUSH1 0x80 DUP4 ADD MSTORE PUSH1 0x6 DUP1 SLOAD SWAP4 DUP5 ADD DUP2 SSTORE SWAP1 MSTORE PUSH3 0x580 SWAP2 PUSH1 0x0 DUP1 MLOAD PUSH1 0x20 PUSH3 0x1D92 DUP4 CODECOPY DUP2 MLOAD SWAP2 MSTORE ADD SWAP1 PUSH1 0x5 PUSH3 0x8E4 JUMP JUMPDEST POP PUSH1 0x40 DUP1 MLOAD PUSH1 0xA0 DUP2 ADD DUP3 MSTORE PUSH1 0x0 DUP1 DUP3 MSTORE PUSH1 0x20 DUP3 ADD DUP2 SWAP1 MSTORE PUSH1 0x1 SWAP3 DUP3 ADD DUP4 SWAP1 MSTORE PUSH1 0x2 PUSH1 0x60 DUP4 ADD MSTORE PUSH1 0x80 DUP3 ADD DUP4 SWAP1 MSTORE PUSH1 0x6 DUP1 SLOAD SWAP4 DUP5 ADD DUP2 SSTORE SWAP1 MSTORE PUSH3 0x5D7 SWAP2 PUSH1 0x0 DUP1 MLOAD PUSH1 0x20 PUSH3 0x1D92 DUP4 CODECOPY DUP2 MLOAD SWAP2 MSTORE ADD SWAP1 PUSH1 0x5 PUSH3 0x8E4 JUMP JUMPDEST POP PUSH1 0x40 DUP1 MLOAD PUSH1 0xA0 DUP2 ADD DUP3 MSTORE PUSH1 0x0 DUP1 DUP3 MSTORE PUSH1 0x20 DUP3 ADD DUP2 SWAP1 MSTORE SWAP2 DUP2 ADD DUP3 SWAP1 MSTORE PUSH1 0x1 PUSH1 0x60 DUP3 ADD DUP2 SWAP1 MSTORE PUSH1 0x2 PUSH1 0x80 DUP4 ADD MSTORE PUSH1 0x6 DUP1 SLOAD SWAP2 DUP3 ADD DUP2 SSTORE SWAP1 SWAP3 MSTORE PUSH3 0x62F SWAP2 PUSH1 0x0 DUP1 MLOAD PUSH1 0x20 PUSH3 0x1D92 DUP4 CODECOPY DUP2 MLOAD SWAP2 MSTORE ADD SWAP1 PUSH1 0x5 PUSH3 0x8E4 JUMP JUMPDEST POP PUSH1 0x40 DUP1 MLOAD PUSH1 0xA0 DUP2 ADD DUP3 MSTORE PUSH1 0x2 DUP1 DUP3 MSTORE PUSH1 0x1 PUSH1 0x20 DUP4 ADD DUP2 SWAP1 MSTORE PUSH1 0x0 SWAP4 DUP4 ADD DUP5 SWAP1 MSTORE PUSH1 0x60 DUP4 ADD DUP2 SWAP1 MSTORE PUSH1 0x80 DUP4 ADD SWAP2 SWAP1 SWAP2 MSTORE PUSH1 0x6 DUP1 SLOAD SWAP2 DUP3 ADD DUP2 SSTORE SWAP1 SWAP3 MSTORE PUSH3 0x68A SWAP2 PUSH1 0x0 DUP1 MLOAD PUSH1 0x20 PUSH3 0x1D92 DUP4 CODECOPY DUP2 MLOAD SWAP2 MSTORE ADD SWAP1 PUSH1 0x5 PUSH3 0x8E4 JUMP JUMPDEST POP PUSH1 0x40 DUP1 MLOAD PUSH1 0xA0 DUP2 ADD DUP3 MSTORE PUSH1 0x2 DUP2 MSTORE PUSH1 0x1 PUSH1 0x20 DUP3 ADD DUP2 SWAP1 MSTORE SWAP2 DUP2 ADD DUP3 SWAP1 MSTORE PUSH1 0x60 DUP2 ADD DUP3 SWAP1 MSTORE PUSH1 0x0 PUSH1 0x80 DUP3 ADD DUP2 SWAP1 MSTORE PUSH1 0x6 DUP1 SLOAD SWAP4 DUP5 ADD DUP2 SSTORE SWAP1 MSTORE PUSH3 0x6E2 SWAP2 PUSH1 0x0 DUP1 MLOAD PUSH1 0x20 PUSH3 0x1D92 DUP4 CODECOPY DUP2 MLOAD SWAP2 MSTORE ADD SWAP1 PUSH1 0x5 PUSH3 0x8E4 JUMP JUMPDEST POP PUSH1 0x40 DUP1 MLOAD PUSH1 0xA0 DUP2 ADD DUP3 MSTORE PUSH1 0x2 DUP1 DUP3 MSTORE PUSH1 0x20 DUP3 ADD MSTORE PUSH1 0x1 SWAP2 DUP2 ADD DUP3 SWAP1 MSTORE PUSH1 0x0 PUSH1 0x60 DUP3 ADD DUP2 SWAP1 MSTORE PUSH1 0x80 DUP3 ADD DUP2 SWAP1 MSTORE PUSH1 0x6 DUP1 SLOAD SWAP4 DUP5 ADD DUP2 SSTORE SWAP1 MSTORE PUSH3 0x739 SWAP2 PUSH1 0x0 DUP1 MLOAD PUSH1 0x20 PUSH3 0x1D92 DUP4 CODECOPY DUP2 MLOAD SWAP2 MSTORE ADD SWAP1 PUSH1 0x5 PUSH3 0x8E4 JUMP JUMPDEST POP PUSH1 0x40 DUP1 MLOAD PUSH1 0xA0 DUP2 ADD DUP3 MSTORE PUSH1 0x2 DUP1 DUP3 MSTORE PUSH1 0x20 DUP3 ADD MSTORE PUSH1 0x1 SWAP2 DUP2 ADD DUP3 SWAP1 MSTORE PUSH1 0x0 PUSH1 0x60 DUP3 ADD DUP2 SWAP1 MSTORE PUSH1 0x80 DUP3 ADD DUP4 SWAP1 MSTORE PUSH1 0x6 DUP1 SLOAD SWAP4 DUP5 ADD DUP2 SSTORE SWAP1 MSTORE PUSH3 0x790 SWAP2 PUSH1 0x0 DUP1 MLOAD PUSH1 0x20 PUSH3 0x1D92 DUP4 CODECOPY DUP2 MLOAD SWAP2 MSTORE ADD SWAP1 PUSH1 0x5 PUSH3 0x8E4 JUMP JUMPDEST POP PUSH3 0x968 JUMP JUMPDEST PUSH1 0x0 DUP1 SLOAD PUSH1 0x1 PUSH1 0x1 PUSH1 0xA0 SHL SUB DUP4 DUP2 AND PUSH1 0x1 PUSH1 0x1 PUSH1 0xA0 SHL SUB NOT DUP4 AND DUP2 OR DUP5 SSTORE PUSH1 0x40 MLOAD SWAP2 SWAP1 SWAP3 AND SWAP3 DUP4 SWAP2 PUSH32 0x8BE0079C531659141344CD1FD0A4F28419497F9722A3DAAFE3B4186F6B6457E0 SWAP2 SWAP1 LOG3 POP POP JUMP JUMPDEST PUSH1 0x1 DUP4 ADD SWAP2 DUP4 SWAP1 DUP3 ISZERO PUSH3 0x877 JUMPI SWAP2 PUSH1 0x20 MUL DUP3 ADD PUSH1 0x0 JUMPDEST DUP4 DUP3 GT ISZERO PUSH3 0x843 JUMPI DUP4 MLOAD DUP4 DUP3 PUSH2 0x100 EXP DUP2 SLOAD DUP2 PUSH4 0xFFFFFFFF MUL NOT AND SWAP1 DUP4 PUSH3 0xFFFFFF AND MUL OR SWAP1 SSTORE POP SWAP3 PUSH1 0x20 ADD SWAP3 PUSH1 0x4 ADD PUSH1 0x20 DUP2 PUSH1 0x3 ADD DIV SWAP3 DUP4 ADD SWAP3 PUSH1 0x1 SUB MUL PUSH3 0x7FE JUMP JUMPDEST DUP1 ISZERO PUSH3 0x875 JUMPI DUP3 DUP2 PUSH2 0x100 EXP DUP2 SLOAD SWAP1 PUSH4 0xFFFFFFFF MUL NOT AND SWAP1 SSTORE PUSH1 0x4 ADD PUSH1 0x20 DUP2 PUSH1 0x3 ADD DIV SWAP3 DUP4 ADD SWAP3 PUSH1 0x1 SUB MUL PUSH3 0x843 JUMP JUMPDEST POP JUMPDEST POP PUSH3 0x885 SWAP3 SWAP2 POP PUSH3 0x951 JUMP JUMPDEST POP SWAP1 JUMP JUMPDEST PUSH1 0x1 DUP4 ADD SWAP2 DUP4 SWAP1 DUP3 ISZERO PUSH3 0x877 JUMPI SWAP2 PUSH1 0x20 MUL DUP3 ADD PUSH1 0x0 JUMPDEST DUP4 DUP3 GT ISZERO PUSH3 0x843 JUMPI DUP4 MLOAD DUP4 DUP3 PUSH2 0x100 EXP DUP2 SLOAD DUP2 PUSH4 0xFFFFFFFF MUL NOT AND SWAP1 DUP4 PUSH2 0xFFFF AND MUL OR SWAP1 SSTORE POP SWAP3 PUSH1 0x20 ADD SWAP3 PUSH1 0x4 ADD PUSH1 0x20 DUP2 PUSH1 0x3 ADD DIV SWAP3 DUP4 ADD SWAP3 PUSH1 0x1 SUB MUL PUSH3 0x8A0 JUMP JUMPDEST DUP3 DUP1 SLOAD DUP3 DUP3 SSTORE SWAP1 PUSH1 0x0 MSTORE PUSH1 0x20 PUSH1 0x0 KECCAK256 SWAP1 PUSH1 0x7 ADD PUSH1 0x8 SWAP1 DIV DUP2 ADD SWAP3 DUP3 ISZERO PUSH3 0x877 JUMPI SWAP2 PUSH1 0x20 MUL DUP3 ADD PUSH1 0x0 JUMPDEST DUP4 DUP3 GT ISZERO PUSH3 0x843 JUMPI DUP4 MLOAD DUP4 DUP3 PUSH2 0x100 EXP DUP2 SLOAD DUP2 PUSH4 0xFFFFFFFF MUL NOT AND SWAP1 DUP4 PUSH1 0xFF AND MUL OR SWAP1 SSTORE POP SWAP3 PUSH1 0x20 ADD SWAP3 PUSH1 0x4 ADD PUSH1 0x20 DUP2 PUSH1 0x3 ADD DIV SWAP3 DUP4 ADD SWAP3 PUSH1 0x1 SUB MUL PUSH3 0x90E JUMP JUMPDEST JUMPDEST DUP1 DUP3 GT ISZERO PUSH3 0x885 JUMPI PUSH1 0x0 DUP2 SSTORE PUSH1 0x1 ADD PUSH3 0x952 JUMP JUMPDEST PUSH2 0x141A DUP1 PUSH3 0x978 PUSH1 0x0 CODECOPY PUSH1 0x0 RETURN INVALID PUSH1 0x80 PUSH1 0x40 MSTORE CALLVALUE DUP1 ISZERO PUSH2 0x10 JUMPI PUSH1 0x0 DUP1 REVERT JUMPDEST POP PUSH1 0x4 CALLDATASIZE LT PUSH2 0x7D JUMPI PUSH1 0x0 CALLDATALOAD PUSH1 0xE0 SHR DUP1 PUSH4 0x8DA5CB5B GT PUSH2 0x5B JUMPI DUP1 PUSH4 0x8DA5CB5B EQ PUSH2 0xC1 JUMPI DUP1 PUSH4 0xEA42FF1F EQ PUSH2 0xDC JUMPI DUP1 PUSH4 0xF2FDE38B EQ PUSH2 0xFF JUMPI DUP1 PUSH4 0xF7E944EE EQ PUSH2 0x112 JUMPI PUSH1 0x0 DUP1 REVERT JUMPDEST DUP1 PUSH4 0x367A917B EQ PUSH2 0x82 JUMPI DUP1 PUSH4 0x4282CF54 EQ PUSH2 0xA2 JUMPI DUP1 PUSH4 0x715018A6 EQ PUSH2 0xB7 JUMPI JUMPDEST PUSH1 0x0 DUP1 REVERT JUMPDEST PUSH2 0x8A PUSH2 0x125 JUMP JUMPDEST PUSH1 0x40 MLOAD PUSH2 0x99 SWAP4 SWAP3 SWAP2 SWAP1 PUSH2 0xFE8 JUMP JUMPDEST PUSH1 0x40 MLOAD DUP1 SWAP2 SUB SWAP1 RETURN JUMPDEST PUSH2 0xAA PUSH2 0x832 JUMP JUMPDEST PUSH1 0x40 MLOAD PUSH2 0x99 SWAP2 SWAP1 PUSH2 0x104A JUMP JUMPDEST PUSH2 0xBF PUSH2 0x8F7 JUMP JUMPDEST STOP JUMPDEST PUSH1 0x0 SLOAD PUSH1 0x40 MLOAD PUSH1 0x1 PUSH1 0x1 PUSH1 0xA0 SHL SUB SWAP1 SWAP2 AND DUP2 MSTORE PUSH1 0x20 ADD PUSH2 0x99 JUMP JUMPDEST PUSH2 0xEF PUSH2 0xEA CALLDATASIZE PUSH1 0x4 PUSH2 0x1178 JUMP JUMPDEST PUSH2 0x90B JUMP JUMPDEST PUSH1 0x40 MLOAD SWAP1 ISZERO ISZERO DUP2 MSTORE PUSH1 0x20 ADD PUSH2 0x99 JUMP JUMPDEST PUSH2 0xBF PUSH2 0x10D CALLDATASIZE PUSH1 0x4 PUSH2 0x1276 JUMP JUMPDEST PUSH2 0xD21 JUMP JUMPDEST PUSH2 0xBF PUSH2 0x120 CALLDATASIZE PUSH1 0x4 PUSH2 0x12A6 JUMP JUMPDEST PUSH2 0xD9F JUMP JUMPDEST PUSH1 0x0 DUP1 PUSH1 0x60 DUP2 DUP1 PUSH2 0x135 DUP2 PUSH2 0xE0D JUMP JUMPDEST SWAP1 POP PUSH1 0x0 PUSH2 0x146 PUSH3 0x186A0 DUP4 PUSH2 0x12D5 JUMP JUMPDEST PUSH2 0x153 SWAP1 PUSH3 0x186A0 PUSH2 0x12FF JUMP JUMPDEST SWAP1 POP PUSH2 0x15D PUSH2 0xF72 JUMP JUMPDEST PUSH2 0x165 PUSH2 0xF72 JUMP JUMPDEST PUSH2 0x16D PUSH2 0xF72 JUMP JUMPDEST PUSH1 0x0 JUMPDEST PUSH1 0x2 SLOAD PUSH4 0xFFFFFFFF SWAP1 DUP2 AND SWAP1 DUP3 AND LT ISZERO PUSH2 0x2EF JUMPI PUSH1 0x0 PUSH1 0x5 DUP3 PUSH4 0xFFFFFFFF AND PUSH1 0x5 DUP2 LT PUSH2 0x19F JUMPI PUSH2 0x19F PUSH2 0x1317 JUMP JUMPDEST PUSH1 0x8 SWAP2 DUP3 DUP3 DIV ADD SWAP2 SWAP1 MOD PUSH1 0x4 MUL SWAP1 SLOAD SWAP1 PUSH2 0x100 EXP SWAP1 DIV PUSH4 0xFFFFFFFF AND PUSH1 0x4 DUP4 PUSH4 0xFFFFFFFF AND PUSH1 0x5 DUP2 LT PUSH2 0x1D4 JUMPI PUSH2 0x1D4 PUSH2 0x1317 JUMP JUMPDEST PUSH1 0x8 SWAP2 DUP3 DUP3 DIV ADD SWAP2 SWAP1 MOD PUSH1 0x4 MUL SWAP1 SLOAD SWAP1 PUSH2 0x100 EXP SWAP1 DIV PUSH4 0xFFFFFFFF AND DUP8 PUSH2 0x1FB SWAP2 SWAP1 PUSH2 0x132D JUMP JUMPDEST PUSH2 0x205 SWAP2 SWAP1 PUSH2 0x1350 JUMP JUMPDEST SWAP1 POP DUP1 PUSH4 0xFFFFFFFF AND PUSH1 0x9 EQ ISZERO PUSH2 0x21A JUMPI POP PUSH1 0x0 JUMPDEST DUP5 MLOAD DUP2 SWAP1 PUSH4 0xFFFFFFFF DUP5 AND PUSH1 0x5 DUP2 LT PUSH2 0x235 JUMPI PUSH2 0x235 PUSH2 0x1317 JUMP JUMPDEST PUSH4 0xFFFFFFFF SWAP3 DUP4 AND PUSH1 0x20 SWAP2 SWAP1 SWAP2 MUL SWAP2 SWAP1 SWAP2 ADD MSTORE DUP2 AND ISZERO PUSH2 0x25F JUMPI PUSH2 0x25A PUSH1 0x1 DUP3 PUSH2 0x1373 JUMP JUMPDEST PUSH2 0x262 JUMP JUMPDEST PUSH1 0x8 JUMPDEST DUP5 MLOAD PUSH4 0xFFFFFFFF DUP5 AND PUSH1 0x5 DUP2 LT PUSH2 0x27B JUMPI PUSH2 0x27B PUSH2 0x1317 JUMP JUMPDEST PUSH1 0x20 MUL ADD SWAP1 PUSH4 0xFFFFFFFF AND SWAP1 DUP2 PUSH4 0xFFFFFFFF AND DUP2 MSTORE POP POP DUP1 PUSH4 0xFFFFFFFF AND PUSH1 0x8 EQ PUSH2 0x2B0 JUMPI PUSH2 0x2AB DUP2 PUSH1 0x1 PUSH2 0x1398 JUMP JUMPDEST PUSH2 0x2B3 JUMP JUMPDEST PUSH1 0x0 JUMPDEST DUP4 MLOAD PUSH4 0xFFFFFFFF DUP5 AND PUSH1 0x5 DUP2 LT PUSH2 0x2CC JUMPI PUSH2 0x2CC PUSH2 0x1317 JUMP JUMPDEST PUSH4 0xFFFFFFFF SWAP1 SWAP3 AND PUSH1 0x20 SWAP3 SWAP1 SWAP3 MUL ADD MSTORE POP DUP1 PUSH2 0x2E7 DUP2 PUSH2 0x13C0 JUMP JUMPDEST SWAP2 POP POP PUSH2 0x170 JUMP JUMPDEST POP PUSH2 0x2F8 PUSH2 0xF8A JUMP JUMPDEST DUP1 MLOAD PUSH1 0x20 ADD DUP5 SWAP1 MSTORE DUP1 MLOAD DUP4 SWAP1 MSTORE DUP1 MLOAD PUSH1 0x40 ADD DUP3 SWAP1 MSTORE PUSH1 0x6 SLOAD PUSH1 0x0 SWAP1 PUSH8 0xFFFFFFFFFFFFFFFF DUP2 GT ISZERO PUSH2 0x32B JUMPI PUSH2 0x32B PUSH2 0x10F3 JUMP JUMPDEST PUSH1 0x40 MLOAD SWAP1 DUP1 DUP3 MSTORE DUP1 PUSH1 0x20 MUL PUSH1 0x20 ADD DUP3 ADD PUSH1 0x40 MSTORE DUP1 ISZERO PUSH2 0x354 JUMPI DUP2 PUSH1 0x20 ADD PUSH1 0x20 DUP3 MUL DUP1 CALLDATASIZE DUP4 CALLDATACOPY ADD SWAP1 POP JUMPDEST POP SWAP1 POP PUSH1 0x0 DUP1 JUMPDEST PUSH1 0x6 SLOAD PUSH4 0xFFFFFFFF DUP3 AND LT ISZERO PUSH2 0x7E4 JUMPI DUP4 MLOAD PUSH1 0x6 DUP1 SLOAD PUSH4 0xFFFFFFFF DUP5 AND SWAP1 DUP2 LT PUSH2 0x387 JUMPI PUSH2 0x387 PUSH2 0x1317 JUMP JUMPDEST SWAP1 PUSH1 0x0 MSTORE PUSH1 0x20 PUSH1 0x0 KECCAK256 ADD PUSH1 0x1 DUP2 SLOAD DUP2 LT PUSH2 0x3A3 JUMPI PUSH2 0x3A3 PUSH2 0x1317 JUMP JUMPDEST PUSH1 0x0 SWAP2 DUP3 MSTORE PUSH1 0x20 SWAP1 SWAP2 KECCAK256 PUSH1 0x8 DUP3 DIV ADD SLOAD PUSH1 0x7 SWAP1 SWAP2 AND PUSH1 0x4 MUL PUSH2 0x100 EXP SWAP1 DIV PUSH4 0xFFFFFFFF AND PUSH1 0x3 DUP2 LT PUSH2 0x3D7 JUMPI PUSH2 0x3D7 PUSH2 0x1317 JUMP JUMPDEST PUSH1 0x20 MUL ADD MLOAD MLOAD PUSH1 0x1 PUSH1 0x20 MUL ADD MLOAD PUSH4 0xFFFFFFFF AND DUP5 PUSH1 0x0 ADD MLOAD PUSH1 0x6 DUP4 PUSH4 0xFFFFFFFF AND DUP2 SLOAD DUP2 LT PUSH2 0x408 JUMPI PUSH2 0x408 PUSH2 0x1317 JUMP JUMPDEST SWAP1 PUSH1 0x0 MSTORE PUSH1 0x20 PUSH1 0x0 KECCAK256 ADD PUSH1 0x0 DUP2 SLOAD DUP2 LT PUSH2 0x424 JUMPI PUSH2 0x424 PUSH2 0x1317 JUMP JUMPDEST PUSH1 0x0 SWAP2 DUP3 MSTORE PUSH1 0x20 SWAP1 SWAP2 KECCAK256 PUSH1 0x8 DUP3 DIV ADD SLOAD PUSH1 0x7 SWAP1 SWAP2 AND PUSH1 0x4 MUL PUSH2 0x100 EXP SWAP1 DIV PUSH4 0xFFFFFFFF AND PUSH1 0x3 DUP2 LT PUSH2 0x458 JUMPI PUSH2 0x458 PUSH2 0x1317 JUMP JUMPDEST PUSH1 0x20 MUL ADD MLOAD MLOAD MLOAD PUSH4 0xFFFFFFFF AND EQ DUP1 ISZERO PUSH2 0x568 JUMPI POP DUP4 MLOAD PUSH1 0x6 DUP1 SLOAD PUSH4 0xFFFFFFFF DUP5 AND SWAP1 DUP2 LT PUSH2 0x489 JUMPI PUSH2 0x489 PUSH2 0x1317 JUMP JUMPDEST SWAP1 PUSH1 0x0 MSTORE PUSH1 0x20 PUSH1 0x0 KECCAK256 ADD PUSH1 0x2 DUP2 SLOAD DUP2 LT PUSH2 0x4A5 JUMPI PUSH2 0x4A5 PUSH2 0x1317 JUMP JUMPDEST PUSH1 0x0 SWAP2 DUP3 MSTORE PUSH1 0x20 SWAP1 SWAP2 KECCAK256 PUSH1 0x8 DUP3 DIV ADD SLOAD PUSH1 0x7 SWAP1 SWAP2 AND PUSH1 0x4 MUL PUSH2 0x100 EXP SWAP1 DIV PUSH4 0xFFFFFFFF AND PUSH1 0x3 DUP2 LT PUSH2 0x4D9 JUMPI PUSH2 0x4D9 PUSH2 0x1317 JUMP JUMPDEST PUSH1 0x20 MUL ADD MLOAD MLOAD PUSH1 0x40 ADD MLOAD DUP5 MLOAD PUSH1 0x6 DUP1 SLOAD PUSH4 0xFFFFFFFF SWAP4 DUP5 AND SWAP4 DUP6 AND SWAP1 DUP2 LT PUSH2 0x503 JUMPI PUSH2 0x503 PUSH2 0x1317 JUMP JUMPDEST SWAP1 PUSH1 0x0 MSTORE PUSH1 0x20 PUSH1 0x0 KECCAK256 ADD PUSH1 0x1 DUP2 SLOAD DUP2 LT PUSH2 0x51F JUMPI PUSH2 0x51F PUSH2 0x1317 JUMP JUMPDEST PUSH1 0x0 SWAP2 DUP3 MSTORE PUSH1 0x20 SWAP1 SWAP2 KECCAK256 PUSH1 0x8 DUP3 DIV ADD SLOAD PUSH1 0x7 SWAP1 SWAP2 AND PUSH1 0x4 MUL PUSH2 0x100 EXP SWAP1 DIV PUSH4 0xFFFFFFFF AND PUSH1 0x3 DUP2 LT PUSH2 0x553 JUMPI PUSH2 0x553 PUSH2 0x1317 JUMP JUMPDEST PUSH1 0x20 MUL ADD MLOAD MLOAD PUSH1 0x1 PUSH1 0x20 MUL ADD MLOAD PUSH4 0xFFFFFFFF AND EQ JUMPDEST DUP1 ISZERO PUSH2 0x667 JUMPI POP DUP4 MLOAD PUSH1 0x6 DUP1 SLOAD PUSH4 0xFFFFFFFF DUP5 AND SWAP1 DUP2 LT PUSH2 0x58B JUMPI PUSH2 0x58B PUSH2 0x1317 JUMP JUMPDEST SWAP1 PUSH1 0x0 MSTORE PUSH1 0x20 PUSH1 0x0 KECCAK256 ADD PUSH1 0x3 DUP2 SLOAD DUP2 LT PUSH2 0x5A7 JUMPI PUSH2 0x5A7 PUSH2 0x1317 JUMP JUMPDEST PUSH1 0x0 SWAP2 DUP3 MSTORE PUSH1 0x20 SWAP1 SWAP2 KECCAK256 PUSH1 0x8 DUP3 DIV ADD SLOAD PUSH1 0x7 SWAP1 SWAP2 AND PUSH1 0x4 MUL PUSH2 0x100 EXP SWAP1 DIV PUSH4 0xFFFFFFFF AND PUSH1 0x3 DUP2 LT PUSH2 0x5DB JUMPI PUSH2 0x5DB PUSH2 0x1317 JUMP JUMPDEST PUSH1 0x20 MUL ADD MLOAD MLOAD PUSH1 0x60 ADD MLOAD DUP5 MLOAD PUSH1 0x6 DUP1 SLOAD PUSH4 0xFFFFFFFF SWAP4 DUP5 AND SWAP4 DUP6 AND SWAP1 DUP2 LT PUSH2 0x605 JUMPI PUSH2 0x605 PUSH2 0x1317 JUMP JUMPDEST SWAP1 PUSH1 0x0 MSTORE PUSH1 0x20 PUSH1 0x0 KECCAK256 ADD PUSH1 0x2 DUP2 SLOAD DUP2 LT PUSH2 0x621 JUMPI PUSH2 0x621 PUSH2 0x1317 JUMP JUMPDEST PUSH1 0x0 SWAP2 DUP3 MSTORE PUSH1 0x20 SWAP1 SWAP2 KECCAK256 PUSH1 0x8 DUP3 DIV ADD SLOAD PUSH1 0x7 SWAP1 SWAP2 AND PUSH1 0x4 MUL PUSH2 0x100 EXP SWAP1 DIV PUSH4 0xFFFFFFFF AND PUSH1 0x3 DUP2 LT PUSH2 0x655 JUMPI PUSH2 0x655 PUSH2 0x1317 JUMP JUMPDEST PUSH1 0x20 MUL ADD MLOAD MLOAD PUSH1 0x40 ADD MLOAD PUSH4 0xFFFFFFFF AND EQ JUMPDEST DUP1 ISZERO PUSH2 0x766 JUMPI POP DUP4 MLOAD PUSH1 0x6 DUP1 SLOAD PUSH4 0xFFFFFFFF DUP5 AND SWAP1 DUP2 LT PUSH2 0x68A JUMPI PUSH2 0x68A PUSH2 0x1317 JUMP JUMPDEST SWAP1 PUSH1 0x0 MSTORE PUSH1 0x20 PUSH1 0x0 KECCAK256 ADD PUSH1 0x4 DUP2 SLOAD DUP2 LT PUSH2 0x6A6 JUMPI PUSH2 0x6A6 PUSH2 0x1317 JUMP JUMPDEST PUSH1 0x0 SWAP2 DUP3 MSTORE PUSH1 0x20 SWAP1 SWAP2 KECCAK256 PUSH1 0x8 DUP3 DIV ADD SLOAD PUSH1 0x7 SWAP1 SWAP2 AND PUSH1 0x4 MUL PUSH2 0x100 EXP SWAP1 DIV PUSH4 0xFFFFFFFF AND PUSH1 0x3 DUP2 LT PUSH2 0x6DA JUMPI PUSH2 0x6DA PUSH2 0x1317 JUMP JUMPDEST PUSH1 0x20 MUL ADD MLOAD MLOAD PUSH1 0x80 ADD MLOAD DUP5 MLOAD PUSH1 0x6 DUP1 SLOAD PUSH4 0xFFFFFFFF SWAP4 DUP5 AND SWAP4 DUP6 AND SWAP1 DUP2 LT PUSH2 0x704 JUMPI PUSH2 0x704 PUSH2 0x1317 JUMP JUMPDEST SWAP1 PUSH1 0x0 MSTORE PUSH1 0x20 PUSH1 0x0 KECCAK256 ADD PUSH1 0x3 DUP2 SLOAD DUP2 LT PUSH2 0x720 JUMPI PUSH2 0x720 PUSH2 0x1317 JUMP JUMPDEST PUSH1 0x0 SWAP2 DUP3 MSTORE PUSH1 0x20 SWAP1 SWAP2 KECCAK256 PUSH1 0x8 DUP3 DIV ADD SLOAD PUSH1 0x7 SWAP1 SWAP2 AND PUSH1 0x4 MUL PUSH2 0x100 EXP SWAP1 DIV PUSH4 0xFFFFFFFF AND PUSH1 0x3 DUP2 LT PUSH2 0x754 JUMPI PUSH2 0x754 PUSH2 0x1317 JUMP JUMPDEST PUSH1 0x20 MUL ADD MLOAD MLOAD PUSH1 0x60 ADD MLOAD PUSH4 0xFFFFFFFF AND EQ JUMPDEST ISZERO PUSH2 0x7A7 JUMPI DUP2 PUSH2 0x775 DUP2 PUSH2 0x13C0 JUMP JUMPDEST SWAP3 POP POP PUSH1 0x1 DUP4 DUP3 PUSH4 0xFFFFFFFF AND DUP2 MLOAD DUP2 LT PUSH2 0x792 JUMPI PUSH2 0x792 PUSH2 0x1317 JUMP JUMPDEST SWAP2 ISZERO ISZERO PUSH1 0x20 SWAP3 DUP4 MUL SWAP2 SWAP1 SWAP2 ADD SWAP1 SWAP2 ADD MSTORE PUSH2 0x7D2 JUMP JUMPDEST PUSH1 0x0 DUP4 DUP3 PUSH4 0xFFFFFFFF AND DUP2 MLOAD DUP2 LT PUSH2 0x7C1 JUMPI PUSH2 0x7C1 PUSH2 0x1317 JUMP JUMPDEST SWAP2 ISZERO ISZERO PUSH1 0x20 SWAP3 DUP4 MUL SWAP2 SWAP1 SWAP2 ADD SWAP1 SWAP2 ADD MSTORE JUMPDEST DUP1 PUSH2 0x7DC DUP2 PUSH2 0x13C0 JUMP JUMPDEST SWAP2 POP POP PUSH2 0x35B JUMP JUMPDEST POP PUSH32 0x36AAE38C0461DE63E32C1224E436463A66B9EE6560E320860083D7EAFB65A77 DUP8 DUP3 DUP5 PUSH1 0x40 MLOAD PUSH2 0x818 SWAP4 SWAP3 SWAP2 SWAP1 PUSH2 0xFE8 JUMP JUMPDEST PUSH1 0x40 MLOAD DUP1 SWAP2 SUB SWAP1 LOG1 SWAP6 SWAP12 SWAP6 SWAP11 POP SWAP9 POP SWAP4 SWAP7 POP POP POP POP POP POP POP JUMP JUMPDEST PUSH1 0x60 PUSH1 0x6 DUP1 SLOAD DUP1 PUSH1 0x20 MUL PUSH1 0x20 ADD PUSH1 0x40 MLOAD SWAP1 DUP2 ADD PUSH1 0x40 MSTORE DUP1 SWAP3 SWAP2 SWAP1 DUP2 DUP2 MSTORE PUSH1 0x20 ADD PUSH1 0x0 SWAP1 JUMPDEST DUP3 DUP3 LT ISZERO PUSH2 0x8EE JUMPI PUSH1 0x0 DUP5 DUP2 MSTORE PUSH1 0x20 SWAP1 DUP2 SWAP1 KECCAK256 DUP4 ADD DUP1 SLOAD PUSH1 0x40 DUP1 MLOAD DUP3 DUP6 MUL DUP2 ADD DUP6 ADD SWAP1 SWAP2 MSTORE DUP2 DUP2 MSTORE SWAP3 DUP4 ADD DUP3 DUP3 DUP1 ISZERO PUSH2 0x8DA JUMPI PUSH1 0x20 MUL DUP3 ADD SWAP2 SWAP1 PUSH1 0x0 MSTORE PUSH1 0x20 PUSH1 0x0 KECCAK256 SWAP1 PUSH1 0x0 SWAP1 JUMPDEST DUP3 DUP3 SWAP1 SLOAD SWAP1 PUSH2 0x100 EXP SWAP1 DIV PUSH4 0xFFFFFFFF AND PUSH4 0xFFFFFFFF AND DUP2 MSTORE PUSH1 0x20 ADD SWAP1 PUSH1 0x4 ADD SWAP1 PUSH1 0x20 DUP3 PUSH1 0x3 ADD DIV SWAP3 DUP4 ADD SWAP3 PUSH1 0x1 SUB DUP3 MUL SWAP2 POP DUP1 DUP5 GT PUSH2 0x89D JUMPI SWAP1 POP JUMPDEST POP POP POP POP POP DUP2 MSTORE PUSH1 0x20 ADD SWAP1 PUSH1 0x1 ADD SWAP1 PUSH2 0x856 JUMP JUMPDEST POP POP POP POP SWAP1 POP SWAP1 JUMP JUMPDEST PUSH2 0x8FF PUSH2 0xEC8 JUMP JUMPDEST PUSH2 0x909 PUSH1 0x0 PUSH2 0xF22 JUMP JUMPDEST JUMP JUMPDEST PUSH1 0x0 DUP2 PUSH1 0x0 ADD MLOAD PUSH1 0x6 DUP5 PUSH4 0xFFFFFFFF AND DUP2 SLOAD DUP2 LT PUSH2 0x92B JUMPI PUSH2 0x92B PUSH2 0x1317 JUMP JUMPDEST SWAP1 PUSH1 0x0 MSTORE PUSH1 0x20 PUSH1 0x0 KECCAK256 ADD PUSH1 0x1 DUP2 SLOAD DUP2 LT PUSH2 0x947 JUMPI PUSH2 0x947 PUSH2 0x1317 JUMP JUMPDEST PUSH1 0x0 SWAP2 DUP3 MSTORE PUSH1 0x20 SWAP1 SWAP2 KECCAK256 PUSH1 0x8 DUP3 DIV ADD SLOAD PUSH1 0x7 SWAP1 SWAP2 AND PUSH1 0x4 MUL PUSH2 0x100 EXP SWAP1 DIV PUSH4 0xFFFFFFFF AND PUSH1 0x3 DUP2 LT PUSH2 0x97B JUMPI PUSH2 0x97B PUSH2 0x1317 JUMP JUMPDEST PUSH1 0x20 MUL ADD MLOAD MLOAD PUSH1 0x1 PUSH1 0x20 MUL ADD MLOAD PUSH4 0xFFFFFFFF AND DUP3 PUSH1 0x0 ADD MLOAD PUSH1 0x6 DUP6 PUSH4 0xFFFFFFFF AND DUP2 SLOAD DUP2 LT PUSH2 0x9AC JUMPI PUSH2 0x9AC PUSH2 0x1317 JUMP JUMPDEST SWAP1 PUSH1 0x0 MSTORE PUSH1 0x20 PUSH1 0x0 KECCAK256 ADD PUSH1 0x0 DUP2 SLOAD DUP2 LT PUSH2 0x9C8 JUMPI PUSH2 0x9C8 PUSH2 0x1317 JUMP JUMPDEST PUSH1 0x0 SWAP2 DUP3 MSTORE PUSH1 0x20 SWAP1 SWAP2 KECCAK256 PUSH1 0x8 DUP3 DIV ADD SLOAD PUSH1 0x7 SWAP1 SWAP2 AND PUSH1 0x4 MUL PUSH2 0x100 EXP SWAP1 DIV PUSH4 0xFFFFFFFF AND PUSH1 0x3 DUP2 LT PUSH2 0x9FC JUMPI PUSH2 0x9FC PUSH2 0x1317 JUMP JUMPDEST PUSH1 0x20 MUL ADD MLOAD MLOAD MLOAD PUSH4 0xFFFFFFFF AND EQ DUP1 ISZERO PUSH2 0xB0C JUMPI POP DUP2 MLOAD PUSH1 0x6 DUP1 SLOAD PUSH4 0xFFFFFFFF DUP7 AND SWAP1 DUP2 LT PUSH2 0xA2D JUMPI PUSH2 0xA2D PUSH2 0x1317 JUMP JUMPDEST SWAP1 PUSH1 0x0 MSTORE PUSH1 0x20 PUSH1 0x0 KECCAK256 ADD PUSH1 0x2 DUP2 SLOAD DUP2 LT PUSH2 0xA49 JUMPI PUSH2 0xA49 PUSH2 0x1317 JUMP JUMPDEST PUSH1 0x0 SWAP2 DUP3 MSTORE PUSH1 0x20 SWAP1 SWAP2 KECCAK256 PUSH1 0x8 DUP3 DIV ADD SLOAD PUSH1 0x7 SWAP1 SWAP2 AND PUSH1 0x4 MUL PUSH2 0x100 EXP SWAP1 DIV PUSH4 0xFFFFFFFF AND PUSH1 0x3 DUP2 LT PUSH2 0xA7D JUMPI PUSH2 0xA7D PUSH2 0x1317 JUMP JUMPDEST PUSH1 0x20 MUL ADD MLOAD MLOAD PUSH1 0x40 ADD MLOAD DUP3 MLOAD PUSH1 0x6 DUP1 SLOAD PUSH4 0xFFFFFFFF SWAP4 DUP5 AND SWAP4 DUP8 AND SWAP1 DUP2 LT PUSH2 0xAA7 JUMPI PUSH2 0xAA7 PUSH2 0x1317 JUMP JUMPDEST SWAP1 PUSH1 0x0 MSTORE PUSH1 0x20 PUSH1 0x0 KECCAK256 ADD PUSH1 0x1 DUP2 SLOAD DUP2 LT PUSH2 0xAC3 JUMPI PUSH2 0xAC3 PUSH2 0x1317 JUMP JUMPDEST PUSH1 0x0 SWAP2 DUP3 MSTORE PUSH1 0x20 SWAP1 SWAP2 KECCAK256 PUSH1 0x8 DUP3 DIV ADD SLOAD PUSH1 0x7 SWAP1 SWAP2 AND PUSH1 0x4 MUL PUSH2 0x100 EXP SWAP1 DIV PUSH4 0xFFFFFFFF AND PUSH1 0x3 DUP2 LT PUSH2 0xAF7 JUMPI PUSH2 0xAF7 PUSH2 0x1317 JUMP JUMPDEST PUSH1 0x20 MUL ADD MLOAD MLOAD PUSH1 0x1 PUSH1 0x20 MUL ADD MLOAD PUSH4 0xFFFFFFFF AND EQ JUMPDEST DUP1 ISZERO PUSH2 0xC0B JUMPI POP DUP2 MLOAD PUSH1 0x6 DUP1 SLOAD PUSH4 0xFFFFFFFF DUP7 AND SWAP1 DUP2 LT PUSH2 0xB2F JUMPI PUSH2 0xB2F PUSH2 0x1317 JUMP JUMPDEST SWAP1 PUSH1 0x0 MSTORE PUSH1 0x20 PUSH1 0x0 KECCAK256 ADD PUSH1 0x3 DUP2 SLOAD DUP2 LT PUSH2 0xB4B JUMPI PUSH2 0xB4B PUSH2 0x1317 JUMP JUMPDEST PUSH1 0x0 SWAP2 DUP3 MSTORE PUSH1 0x20 SWAP1 SWAP2 KECCAK256 PUSH1 0x8 DUP3 DIV ADD SLOAD PUSH1 0x7 SWAP1 SWAP2 AND PUSH1 0x4 MUL PUSH2 0x100 EXP SWAP1 DIV PUSH4 0xFFFFFFFF AND PUSH1 0x3 DUP2 LT PUSH2 0xB7F JUMPI PUSH2 0xB7F PUSH2 0x1317 JUMP JUMPDEST PUSH1 0x20 MUL ADD MLOAD MLOAD PUSH1 0x60 ADD MLOAD DUP3 MLOAD PUSH1 0x6 DUP1 SLOAD PUSH4 0xFFFFFFFF SWAP4 DUP5 AND SWAP4 DUP8 AND SWAP1 DUP2 LT PUSH2 0xBA9 JUMPI PUSH2 0xBA9 PUSH2 0x1317 JUMP JUMPDEST SWAP1 PUSH1 0x0 MSTORE PUSH1 0x20 PUSH1 0x0 KECCAK256 ADD PUSH1 0x2 DUP2 SLOAD DUP2 LT PUSH2 0xBC5 JUMPI PUSH2 0xBC5 PUSH2 0x1317 JUMP JUMPDEST PUSH1 0x0 SWAP2 DUP3 MSTORE PUSH1 0x20 SWAP1 SWAP2 KECCAK256 PUSH1 0x8 DUP3 DIV ADD SLOAD PUSH1 0x7 SWAP1 SWAP2 AND PUSH1 0x4 MUL PUSH2 0x100 EXP SWAP1 DIV PUSH4 0xFFFFFFFF AND PUSH1 0x3 DUP2 LT PUSH2 0xBF9 JUMPI PUSH2 0xBF9 PUSH2 0x1317 JUMP JUMPDEST PUSH1 0x20 MUL ADD MLOAD MLOAD PUSH1 0x40 ADD MLOAD PUSH4 0xFFFFFFFF AND EQ JUMPDEST DUP1 ISZERO PUSH2 0xD0A JUMPI POP DUP2 MLOAD PUSH1 0x6 DUP1 SLOAD PUSH4 0xFFFFFFFF DUP7 AND SWAP1 DUP2 LT PUSH2 0xC2E JUMPI PUSH2 0xC2E PUSH2 0x1317 JUMP JUMPDEST SWAP1 PUSH1 0x0 MSTORE PUSH1 0x20 PUSH1 0x0 KECCAK256 ADD PUSH1 0x4 DUP2 SLOAD DUP2 LT PUSH2 0xC4A JUMPI PUSH2 0xC4A PUSH2 0x1317 JUMP JUMPDEST PUSH1 0x0 SWAP2 DUP3 MSTORE PUSH1 0x20 SWAP1 SWAP2 KECCAK256 PUSH1 0x8 DUP3 DIV ADD SLOAD PUSH1 0x7 SWAP1 SWAP2 AND PUSH1 0x4 MUL PUSH2 0x100 EXP SWAP1 DIV PUSH4 0xFFFFFFFF AND PUSH1 0x3 DUP2 LT PUSH2 0xC7E JUMPI PUSH2 0xC7E PUSH2 0x1317 JUMP JUMPDEST PUSH1 0x20 MUL ADD MLOAD MLOAD PUSH1 0x80 ADD MLOAD DUP3 MLOAD PUSH1 0x6 DUP1 SLOAD PUSH4 0xFFFFFFFF SWAP4 DUP5 AND SWAP4 DUP8 AND SWAP1 DUP2 LT PUSH2 0xCA8 JUMPI PUSH2 0xCA8 PUSH2 0x1317 JUMP JUMPDEST SWAP1 PUSH1 0x0 MSTORE PUSH1 0x20 PUSH1 0x0 KECCAK256 ADD PUSH1 0x3 DUP2 SLOAD DUP2 LT PUSH2 0xCC4 JUMPI PUSH2 0xCC4 PUSH2 0x1317 JUMP JUMPDEST PUSH1 0x0 SWAP2 DUP3 MSTORE PUSH1 0x20 SWAP1 SWAP2 KECCAK256 PUSH1 0x8 DUP3 DIV ADD SLOAD PUSH1 0x7 SWAP1 SWAP2 AND PUSH1 0x4 MUL PUSH2 0x100 EXP SWAP1 DIV PUSH4 0xFFFFFFFF AND PUSH1 0x3 DUP2 LT PUSH2 0xCF8 JUMPI PUSH2 0xCF8 PUSH2 0x1317 JUMP JUMPDEST PUSH1 0x20 MUL ADD MLOAD MLOAD PUSH1 0x60 ADD MLOAD PUSH4 0xFFFFFFFF AND EQ JUMPDEST ISZERO PUSH2 0xD17 JUMPI POP PUSH1 0x1 PUSH2 0xD1B JUMP JUMPDEST POP PUSH1 0x0 JUMPDEST SWAP3 SWAP2 POP POP JUMP JUMPDEST PUSH2 0xD29 PUSH2 0xEC8 JUMP JUMPDEST PUSH1 0x1 PUSH1 0x1 PUSH1 0xA0 SHL SUB DUP2 AND PUSH2 0xD93 JUMPI PUSH1 0x40 MLOAD PUSH3 0x461BCD PUSH1 0xE5 SHL DUP2 MSTORE PUSH1 0x20 PUSH1 0x4 DUP3 ADD MSTORE PUSH1 0x26 PUSH1 0x24 DUP3 ADD MSTORE PUSH32 0x4F776E61626C653A206E6577206F776E657220697320746865207A65726F2061 PUSH1 0x44 DUP3 ADD MSTORE PUSH6 0x646472657373 PUSH1 0xD0 SHL PUSH1 0x64 DUP3 ADD MSTORE PUSH1 0x84 ADD JUMPDEST PUSH1 0x40 MLOAD DUP1 SWAP2 SUB SWAP1 REVERT JUMPDEST PUSH2 0xD9C DUP2 PUSH2 0xF22 JUMP JUMPDEST POP JUMP JUMPDEST PUSH2 0xDA7 PUSH2 0xEC8 JUMP JUMPDEST PUSH1 0x0 TIMESTAMP PUSH1 0x7 SLOAD PUSH1 0x9 SLOAD PUSH1 0x8 SLOAD DUP6 PUSH2 0xDBD PUSH1 0x1 SLOAD SWAP1 JUMP JUMPDEST PUSH1 0x40 DUP1 MLOAD PUSH1 0x20 DUP2 ADD SWAP8 SWAP1 SWAP8 MSTORE DUP7 ADD SWAP5 SWAP1 SWAP5 MSTORE PUSH1 0x60 DUP6 ADD SWAP3 SWAP1 SWAP3 MSTORE PUSH1 0x80 DUP5 ADD MSTORE PUSH1 0xA0 DUP4 ADD MSTORE PUSH1 0xC0 DUP3 ADD MSTORE PUSH1 0xE0 ADD PUSH1 0x40 DUP1 MLOAD PUSH1 0x1F NOT DUP2 DUP5 SUB ADD DUP2 MSTORE SWAP2 SWAP1 MSTORE DUP1 MLOAD PUSH1 0x20 SWAP1 SWAP2 ADD KECCAK256 PUSH1 0x8 DUP1 SLOAD PUSH1 0x9 SSTORE SSTORE POP POP JUMP JUMPDEST PUSH1 0x0 DUP1 TIMESTAMP DUP4 PUSH1 0x7 SLOAD PUSH1 0x8 SLOAD PUSH1 0x9 SLOAD NUMBER BLOCKHASH COINBASE DIFFICULTY GASLIMIT GASPRICE CALLER GAS PUSH1 0x1 SLOAD PUSH1 0x40 DUP1 MLOAD PUSH1 0x20 DUP2 ADD SWAP15 SWAP1 SWAP15 MSTORE DUP14 ADD SWAP12 SWAP1 SWAP12 MSTORE PUSH1 0x60 DUP1 DUP14 ADD SWAP11 SWAP1 SWAP11 MSTORE PUSH1 0x80 DUP13 ADD SWAP9 SWAP1 SWAP9 MSTORE PUSH1 0xA0 DUP12 ADD SWAP7 SWAP1 SWAP7 MSTORE PUSH1 0xC0 DUP11 ADD SWAP5 SWAP1 SWAP5 MSTORE PUSH12 0xFFFFFFFFFFFFFFFFFFFFFFFF NOT SWAP3 DUP8 SHL DUP4 AND PUSH1 0xE0 DUP11 ADD MSTORE PUSH1 0xF4 DUP10 ADD SWAP2 SWAP1 SWAP2 MSTORE PUSH2 0x114 DUP9 ADD MSTORE PUSH2 0x134 DUP8 ADD SWAP2 SWAP1 SWAP2 MSTORE SWAP3 SHL SWAP1 SWAP2 AND PUSH2 0x154 DUP5 ADD MSTORE PUSH2 0x168 DUP4 ADD MSTORE PUSH2 0x188 DUP3 ADD MSTORE PUSH2 0x1A8 ADD PUSH1 0x40 DUP1 MLOAD PUSH1 0x1F NOT DUP2 DUP5 SUB ADD DUP2 MSTORE SWAP2 SWAP1 MSTORE DUP1 MLOAD PUSH1 0x20 SWAP1 SWAP2 ADD KECCAK256 PUSH1 0x7 SWAP4 SWAP1 SWAP4 SSTORE POP SWAP1 SWAP2 SWAP1 POP JUMP JUMPDEST PUSH1 0x0 SLOAD PUSH1 0x1 PUSH1 0x1 PUSH1 0xA0 SHL SUB AND CALLER EQ PUSH2 0x909 JUMPI PUSH1 0x40 MLOAD PUSH3 0x461BCD PUSH1 0xE5 SHL DUP2 MSTORE PUSH1 0x20 PUSH1 0x4 DUP3 ADD DUP2 SWAP1 MSTORE PUSH1 0x24 DUP3 ADD MSTORE PUSH32 0x4F776E61626C653A2063616C6C6572206973206E6F7420746865206F776E6572 PUSH1 0x44 DUP3 ADD MSTORE PUSH1 0x64 ADD PUSH2 0xD8A JUMP JUMPDEST PUSH1 0x0 DUP1 SLOAD PUSH1 0x1 PUSH1 0x1 PUSH1 0xA0 SHL SUB DUP4 DUP2 AND PUSH1 0x1 PUSH1 0x1 PUSH1 0xA0 SHL SUB NOT DUP4 AND DUP2 OR DUP5 SSTORE PUSH1 0x40 MLOAD SWAP2 SWAP1 SWAP3 AND SWAP3 DUP4 SWAP2 PUSH32 0x8BE0079C531659141344CD1FD0A4F28419497F9722A3DAAFE3B4186F6B6457E0 SWAP2 SWAP1 LOG3 POP POP JUMP JUMPDEST PUSH1 0x40 MLOAD DUP1 PUSH1 0x20 ADD PUSH1 0x40 MSTORE DUP1 PUSH2 0xF85 PUSH2 0xF9D JUMP JUMPDEST SWAP1 MSTORE SWAP1 JUMP JUMPDEST PUSH1 0x40 MLOAD DUP1 PUSH1 0x20 ADD PUSH1 0x40 MSTORE DUP1 PUSH2 0xF85 PUSH2 0xFBB JUMP JUMPDEST PUSH1 0x40 MLOAD DUP1 PUSH1 0xA0 ADD PUSH1 0x40 MSTORE DUP1 PUSH1 0x5 SWAP1 PUSH1 0x20 DUP3 MUL DUP1 CALLDATASIZE DUP4 CALLDATACOPY POP SWAP2 SWAP3 SWAP2 POP POP JUMP JUMPDEST PUSH1 0x40 MLOAD DUP1 PUSH1 0x60 ADD PUSH1 0x40 MSTORE DUP1 PUSH1 0x3 SWAP1 JUMPDEST PUSH2 0xFD2 PUSH2 0xF72 JUMP JUMPDEST DUP2 MSTORE PUSH1 0x20 ADD SWAP1 PUSH1 0x1 SWAP1 SUB SWAP1 DUP2 PUSH2 0xFCA JUMPI SWAP1 POP POP SWAP1 JUMP JUMPDEST PUSH1 0x0 PUSH1 0x60 DUP3 ADD PUSH4 0xFFFFFFFF DUP1 DUP8 AND DUP5 MSTORE PUSH1 0x20 DUP2 DUP8 AND DUP2 DUP7 ADD MSTORE PUSH1 0x60 PUSH1 0x40 DUP7 ADD MSTORE DUP3 SWAP2 POP DUP6 MLOAD DUP1 DUP5 MSTORE PUSH1 0x80 DUP7 ADD SWAP3 POP DUP2 DUP8 ADD SWAP4 POP PUSH1 0x0 JUMPDEST DUP2 DUP2 LT ISZERO PUSH2 0x103C JUMPI DUP5 MLOAD ISZERO ISZERO DUP5 MSTORE SWAP4 DUP3 ADD SWAP4 SWAP3 DUP3 ADD SWAP3 PUSH1 0x1 ADD PUSH2 0x101E JUMP JUMPDEST POP SWAP2 SWAP9 SWAP8 POP POP POP POP POP POP POP POP JUMP JUMPDEST PUSH1 0x0 PUSH1 0x20 DUP1 DUP4 ADD DUP2 DUP5 MSTORE DUP1 DUP6 MLOAD DUP1 DUP4 MSTORE PUSH1 0x40 DUP7 ADD SWAP2 POP PUSH1 0x40 DUP2 PUSH1 0x5 SHL DUP8 ADD ADD SWAP3 POP DUP4 DUP8 ADD PUSH1 0x0 DUP1 JUMPDEST DUP4 DUP2 LT ISZERO PUSH2 0x10CC JUMPI DUP9 DUP7 SUB PUSH1 0x3F NOT ADD DUP6 MSTORE DUP3 MLOAD DUP1 MLOAD DUP1 DUP9 MSTORE SWAP1 DUP9 ADD SWAP1 DUP9 DUP9 ADD SWAP1 DUP5 JUMPDEST DUP2 DUP2 LT ISZERO PUSH2 0x10B6 JUMPI DUP4 MLOAD PUSH4 0xFFFFFFFF AND DUP4 MSTORE SWAP3 DUP11 ADD SWAP3 SWAP2 DUP11 ADD SWAP2 PUSH1 0x1 ADD PUSH2 0x1094 JUMP JUMPDEST POP SWAP1 SWAP8 POP POP POP SWAP4 DUP7 ADD SWAP4 SWAP2 DUP7 ADD SWAP2 PUSH1 0x1 ADD PUSH2 0x1072 JUMP JUMPDEST POP SWAP4 SWAP9 SWAP8 POP POP POP POP POP POP POP POP JUMP JUMPDEST DUP1 CALLDATALOAD PUSH4 0xFFFFFFFF DUP2 AND DUP2 EQ PUSH2 0x10EE JUMPI PUSH1 0x0 DUP1 REVERT JUMPDEST SWAP2 SWAP1 POP JUMP JUMPDEST PUSH4 0x4E487B71 PUSH1 0xE0 SHL PUSH1 0x0 MSTORE PUSH1 0x41 PUSH1 0x4 MSTORE PUSH1 0x24 PUSH1 0x0 REVERT JUMPDEST PUSH1 0x40 MLOAD PUSH1 0x20 DUP2 ADD PUSH8 0xFFFFFFFFFFFFFFFF DUP2 GT DUP3 DUP3 LT OR ISZERO PUSH2 0x112C JUMPI PUSH2 0x112C PUSH2 0x10F3 JUMP JUMPDEST PUSH1 0x40 MSTORE SWAP1 JUMP JUMPDEST PUSH1 0x40 MLOAD PUSH1 0x60 DUP2 ADD PUSH8 0xFFFFFFFFFFFFFFFF DUP2 GT DUP3 DUP3 LT OR ISZERO PUSH2 0x112C JUMPI PUSH2 0x112C PUSH2 0x10F3 JUMP JUMPDEST PUSH1 0x40 MLOAD PUSH1 0xA0 DUP2 ADD PUSH8 0xFFFFFFFFFFFFFFFF DUP2 GT DUP3 DUP3 LT OR ISZERO PUSH2 0x112C JUMPI PUSH2 0x112C PUSH2 0x10F3 JUMP JUMPDEST PUSH1 0x0 DUP1 DUP3 DUP5 SUB PUSH2 0x200 DUP1 DUP3 SLT ISZERO PUSH2 0x118E JUMPI PUSH1 0x0 DUP1 REVERT JUMPDEST PUSH2 0x1197 DUP6 PUSH2 0x10DA JUMP JUMPDEST SWAP4 POP PUSH1 0x20 PUSH2 0x1E0 PUSH1 0x1F NOT DUP5 ADD SLT ISZERO PUSH2 0x11AE JUMPI PUSH1 0x0 DUP1 REVERT JUMPDEST PUSH2 0x11B6 PUSH2 0x1109 JUMP JUMPDEST SWAP3 POP DUP7 PUSH1 0x3F DUP8 ADD SLT PUSH2 0x11C7 JUMPI PUSH1 0x0 DUP1 REVERT JUMPDEST PUSH2 0x11CF PUSH2 0x1132 JUMP JUMPDEST SWAP2 DUP7 ADD SWAP2 DUP1 DUP9 DUP5 GT ISZERO PUSH2 0x11E1 JUMPI PUSH1 0x0 DUP1 REVERT JUMPDEST DUP3 DUP9 ADD JUMPDEST DUP5 DUP2 LT ISZERO PUSH2 0x1265 JUMPI PUSH1 0xA0 DUP1 DUP3 DUP13 SUB SLT ISZERO PUSH2 0x11FF JUMPI PUSH1 0x0 DUP1 DUP2 REVERT JUMPDEST PUSH2 0x1207 PUSH2 0x1109 JUMP JUMPDEST DUP12 PUSH1 0x1F DUP5 ADD SLT PUSH2 0x1217 JUMPI PUSH1 0x0 DUP1 DUP2 REVERT JUMPDEST PUSH2 0x121F PUSH2 0x1155 JUMP JUMPDEST SWAP2 DUP4 ADD SWAP2 DUP1 DUP14 DUP5 GT ISZERO PUSH2 0x1232 JUMPI PUSH1 0x0 DUP1 DUP2 REVERT JUMPDEST DUP5 JUMPDEST DUP5 DUP2 LT ISZERO PUSH2 0x1252 JUMPI PUSH2 0x1245 DUP2 PUSH2 0x10DA JUMP JUMPDEST DUP4 MSTORE SWAP2 DUP9 ADD SWAP2 DUP9 ADD PUSH2 0x1234 JUMP JUMPDEST POP DUP3 MSTORE POP DUP5 MSTORE POP SWAP2 DUP4 ADD SWAP2 PUSH1 0xA0 ADD PUSH2 0x11E5 JUMP JUMPDEST POP DUP5 MSTORE POP SWAP4 SWAP7 SWAP2 SWAP6 POP SWAP1 SWAP4 POP POP POP POP JUMP JUMPDEST PUSH1 0x0 PUSH1 0x20 DUP3 DUP5 SUB SLT ISZERO PUSH2 0x1288 JUMPI PUSH1 0x0 DUP1 REVERT JUMPDEST DUP2 CALLDATALOAD PUSH1 0x1 PUSH1 0x1 PUSH1 0xA0 SHL SUB DUP2 AND DUP2 EQ PUSH2 0x129F JUMPI PUSH1 0x0 DUP1 REVERT JUMPDEST SWAP4 SWAP3 POP POP POP JUMP JUMPDEST PUSH1 0x0 PUSH1 0x20 DUP3 DUP5 SUB SLT ISZERO PUSH2 0x12B8 JUMPI PUSH1 0x0 DUP1 REVERT JUMPDEST POP CALLDATALOAD SWAP2 SWAP1 POP JUMP JUMPDEST PUSH4 0x4E487B71 PUSH1 0xE0 SHL PUSH1 0x0 MSTORE PUSH1 0x12 PUSH1 0x4 MSTORE PUSH1 0x24 PUSH1 0x0 REVERT JUMPDEST PUSH1 0x0 DUP3 PUSH2 0x12E4 JUMPI PUSH2 0x12E4 PUSH2 0x12BF JUMP JUMPDEST POP MOD SWAP1 JUMP JUMPDEST PUSH4 0x4E487B71 PUSH1 0xE0 SHL PUSH1 0x0 MSTORE PUSH1 0x11 PUSH1 0x4 MSTORE PUSH1 0x24 PUSH1 0x0 REVERT JUMPDEST PUSH1 0x0 DUP3 NOT DUP3 GT ISZERO PUSH2 0x1312 JUMPI PUSH2 0x1312 PUSH2 0x12E9 JUMP JUMPDEST POP ADD SWAP1 JUMP JUMPDEST PUSH4 0x4E487B71 PUSH1 0xE0 SHL PUSH1 0x0 MSTORE PUSH1 0x32 PUSH1 0x4 MSTORE PUSH1 0x24 PUSH1 0x0 REVERT JUMPDEST PUSH1 0x0 PUSH4 0xFFFFFFFF DUP1 DUP5 AND DUP1 PUSH2 0x1344 JUMPI PUSH2 0x1344 PUSH2 0x12BF JUMP JUMPDEST SWAP3 AND SWAP2 SWAP1 SWAP2 MOD SWAP3 SWAP2 POP POP JUMP JUMPDEST PUSH1 0x0 PUSH4 0xFFFFFFFF DUP1 DUP5 AND DUP1 PUSH2 0x1367 JUMPI PUSH2 0x1367 PUSH2 0x12BF JUMP JUMPDEST SWAP3 AND SWAP2 SWAP1 SWAP2 DIV SWAP3 SWAP2 POP POP JUMP JUMPDEST PUSH1 0x0 PUSH4 0xFFFFFFFF DUP4 DUP2 AND SWAP1 DUP4 AND DUP2 DUP2 LT ISZERO PUSH2 0x1390 JUMPI PUSH2 0x1390 PUSH2 0x12E9 JUMP JUMPDEST SUB SWAP4 SWAP3 POP POP POP JUMP JUMPDEST PUSH1 0x0 PUSH4 0xFFFFFFFF DUP1 DUP4 AND DUP2 DUP6 AND DUP1 DUP4 SUB DUP3 GT ISZERO PUSH2 0x13B7 JUMPI PUSH2 0x13B7 PUSH2 0x12E9 JUMP JUMPDEST ADD SWAP5 SWAP4 POP POP POP POP JUMP JUMPDEST PUSH1 0x0 PUSH4 0xFFFFFFFF DUP1 DUP4 AND DUP2 DUP2 EQ ISZERO PUSH2 0x13DA JUMPI PUSH2 0x13DA PUSH2 0x12E9 JUMP JUMPDEST PUSH1 0x1 ADD SWAP4 SWAP3 POP POP POP JUMP INVALID LOG2 PUSH5 0x6970667358 0x22 SLT KECCAK256 0xF8 CALLDATASIZE LOG1 STOP PUSH18 0x57E5C60434127C691D13CE66E8653BD21383 0xC4 0xBE GT PUSH20 0xCCDC0FBF5464736F6C634300080C0033F6522223 SGT 0xE2 DUP5 MSIZE MSTORE DUP14 SWAP3 SIGNEXTEND PUSH6 0x115C16C04F3E 0xFC DUP3 0xAA 0xED 0xC9 PUSH28 0xE59F3F377C0D3F000000000000000000000000000000000000000000 "
		},
		"gasEstimates": {
			"creation": {
				"codeDepositCost": "1029200",
				"executionCost": "infinite",
				"totalCost": "infinite"
			},
			"external": {
				"checkWinLine(uint32,((uint32[5])[3]))": "infinite",
				"doSpin()": "infinite",
				"flushRandom(bytes32)": "57460",
				"getWinLines()": "infinite",
				"owner()": "2301",
				"renounceOwnership()": "infinite",
				"transferOwnership(address)": "28342"
			},
			"internal": {
				"getRandom(bytes32,uint256)": "infinite",
				"getRandomBase(bytes32)": "infinite",
				"getWinLine(uint32)": "infinite"
			}
		},
		"methodIdentifiers": {
			"checkWinLine(uint32,((uint32[5])[3]))": "ea42ff1f",
			"doSpin()": "367a917b",
			"flushRandom(bytes32)": "f7e944ee",
			"getWinLines()": "4282cf54",
			"owner()": "8da5cb5b",
			"renounceOwnership()": "715018a6",
			"transferOwnership(address)": "f2fde38b"
		}
	},
	"abi": [
		{
			"inputs": [],
			"stateMutability": "nonpayable",
			"type": "constructor"
		},
		{
			"anonymous": false,
			"inputs": [
				{
					"indexed": true,
					"internalType": "address",
					"name": "previousOwner",
					"type": "address"
				},
				{
					"indexed": true,
					"internalType": "address",
					"name": "newOwner",
					"type": "address"
				}
			],
			"name": "OwnershipTransferred",
			"type": "event"
		},
		{
			"anonymous": false,
			"inputs": [
				{
					"indexed": false,
					"internalType": "uint32",
					"name": "number",
					"type": "uint32"
				},
				{
					"indexed": false,
					"internalType": "uint32",
					"name": "winLineCount",
					"type": "uint32"
				},
				{
					"indexed": false,
					"internalType": "bool[]",
					"name": "winLines",
					"type": "bool[]"
				}
			],
			"name": "Spinned",
			"type": "event"
		},
		{
			"inputs": [
				{
					"internalType": "uint32",
					"name": "lineIndex",
					"type": "uint32"
				},
				{
					"components": [
						{
							"components": [
								{
									"internalType": "uint32[5]",
									"name": "slot",
									"type": "uint32[5]"
								}
							],
							"internalType": "struct SlotMachine.Line[3]",
							"name": "line",
							"type": "tuple[3]"
						}
					],
					"internalType": "struct SlotMachine.SpinResult",
					"name": "result",
					"type": "tuple"
				}
			],
			"name": "checkWinLine",
			"outputs": [
				{
					"internalType": "bool",
					"name": "",
					"type": "bool"
				}
			],
			"stateMutability": "view",
			"type": "function"
		},
		{
			"inputs": [],
			"name": "doSpin",
			"outputs": [
				{
					"internalType": "uint32",
					"name": "",
					"type": "uint32"
				},
				{
					"internalType": "uint32",
					"name": "",
					"type": "uint32"
				},
				{
					"internalType": "bool[]",
					"name": "",
					"type": "bool[]"
				}
			],
			"stateMutability": "nonpayable",
			"type": "function"
		},
		{
			"inputs": [
				{
					"internalType": "bytes32",
					"name": "_flushSeed",
					"type": "bytes32"
				}
			],
			"name": "flushRandom",
			"outputs": [],
			"stateMutability": "nonpayable",
			"type": "function"
		},
		{
			"inputs": [],
			"name": "getWinLines",
			"outputs": [
				{
					"internalType": "uint32[][]",
					"name": "",
					"type": "uint32[][]"
				}
			],
			"stateMutability": "view",
			"type": "function"
		},
		{
			"inputs": [],
			"name": "owner",
			"outputs": [
				{
					"internalType": "address",
					"name": "",
					"type": "address"
				}
			],
			"stateMutability": "view",
			"type": "function"
		},
		{
			"inputs": [],
			"name": "renounceOwnership",
			"outputs": [],
			"stateMutability": "nonpayable",
			"type": "function"
		},
		{
			"inputs": [
				{
					"internalType": "address",
					"name": "newOwner",
					"type": "address"
				}
			],
			"name": "transferOwnership",
			"outputs": [],
			"stateMutability": "nonpayable",
			"type": "function"
		}
	]
}