{
	"source/WeenusToken.sol": {
		"WeenusToken": {
			"abi": [
				{
					"constant": true,
					"inputs": [],
					"name": "name",
					"outputs": [
						{
							"name": "",
							"type": "string"
						}
					],
					"payable": false,
					"stateMutability": "view",
					"type": "function"
				},
				{
					"constant": false,
					"inputs": [
						{
							"name": "spender",
							"type": "address"
						},
						{
							"name": "tokens",
							"type": "uint256"
						}
					],
					"name": "approve",
					"outputs": [
						{
							"name": "success",
							"type": "bool"
						}
					],
					"payable": false,
					"stateMutability": "nonpayable",
					"type": "function"
				},
				{
					"constant": true,
					"inputs": [],
					"name": "totalSupply",
					"outputs": [
						{
							"name": "",
							"type": "uint256"
						}
					],
					"payable": false,
					"stateMutability": "view",
					"type": "function"
				},
				{
					"constant": false,
					"inputs": [
						{
							"name": "from",
							"type": "address"
						},
						{
							"name": "to",
							"type": "address"
						},
						{
							"name": "tokens",
							"type": "uint256"
						}
					],
					"name": "transferFrom",
					"outputs": [
						{
							"name": "success",
							"type": "bool"
						}
					],
					"payable": false,
					"stateMutability": "nonpayable",
					"type": "function"
				},
				{
					"constant": true,
					"inputs": [],
					"name": "decimals",
					"outputs": [
						{
							"name": "",
							"type": "uint8"
						}
					],
					"payable": false,
					"stateMutability": "view",
					"type": "function"
				},
				{
					"constant": true,
					"inputs": [
						{
							"name": "tokenOwner",
							"type": "address"
						}
					],
					"name": "balanceOf",
					"outputs": [
						{
							"name": "balance",
							"type": "uint256"
						}
					],
					"payable": false,
					"stateMutability": "view",
					"type": "function"
				},
				{
					"constant": false,
					"inputs": [],
					"name": "acceptOwnership",
					"outputs": [],
					"payable": false,
					"stateMutability": "nonpayable",
					"type": "function"
				},
				{
					"constant": true,
					"inputs": [],
					"name": "owner",
					"outputs": [
						{
							"name": "",
							"type": "address"
						}
					],
					"payable": false,
					"stateMutability": "view",
					"type": "function"
				},
				{
					"constant": true,
					"inputs": [],
					"name": "symbol",
					"outputs": [
						{
							"name": "",
							"type": "string"
						}
					],
					"payable": false,
					"stateMutability": "view",
					"type": "function"
				},
				{
					"constant": false,
					"inputs": [],
					"name": "drip",
					"outputs": [],
					"payable": false,
					"stateMutability": "nonpayable",
					"type": "function"
				},
				{
					"constant": false,
					"inputs": [
						{
							"name": "to",
							"type": "address"
						},
						{
							"name": "tokens",
							"type": "uint256"
						}
					],
					"name": "transfer",
					"outputs": [
						{
							"name": "success",
							"type": "bool"
						}
					],
					"payable": false,
					"stateMutability": "nonpayable",
					"type": "function"
				},
				{
					"constant": false,
					"inputs": [
						{
							"name": "spender",
							"type": "address"
						},
						{
							"name": "tokens",
							"type": "uint256"
						},
						{
							"name": "data",
							"type": "bytes"
						}
					],
					"name": "approveAndCall",
					"outputs": [
						{
							"name": "success",
							"type": "bool"
						}
					],
					"payable": false,
					"stateMutability": "nonpayable",
					"type": "function"
				},
				{
					"constant": true,
					"inputs": [],
					"name": "newOwner",
					"outputs": [
						{
							"name": "",
							"type": "address"
						}
					],
					"payable": false,
					"stateMutability": "view",
					"type": "function"
				},
				{
					"constant": false,
					"inputs": [
						{
							"name": "tokenAddress",
							"type": "address"
						},
						{
							"name": "tokens",
							"type": "uint256"
						}
					],
					"name": "transferAnyERC20Token",
					"outputs": [
						{
							"name": "success",
							"type": "bool"
						}
					],
					"payable": false,
					"stateMutability": "nonpayable",
					"type": "function"
				},
				{
					"constant": true,
					"inputs": [
						{
							"name": "tokenOwner",
							"type": "address"
						},
						{
							"name": "spender",
							"type": "address"
						}
					],
					"name": "allowance",
					"outputs": [
						{
							"name": "remaining",
							"type": "uint256"
						}
					],
					"payable": false,
					"stateMutability": "view",
					"type": "function"
				},
				{
					"constant": false,
					"inputs": [
						{
							"name": "_newOwner",
							"type": "address"
						}
					],
					"name": "transferOwnership",
					"outputs": [],
					"payable": false,
					"stateMutability": "nonpayable",
					"type": "function"
				},
				{
					"inputs": [],
					"payable": false,
					"stateMutability": "nonpayable",
					"type": "constructor"
				},
				{
					"payable": true,
					"stateMutability": "payable",
					"type": "fallback"
				},
				{
					"anonymous": false,
					"inputs": [
						{
							"indexed": true,
							"name": "_from",
							"type": "address"
						},
						{
							"indexed": true,
							"name": "_to",
							"type": "address"
						}
					],
					"name": "OwnershipTransferred",
					"type": "event"
				},
				{
					"anonymous": false,
					"inputs": [
						{
							"indexed": true,
							"name": "from",
							"type": "address"
						},
						{
							"indexed": true,
							"name": "to",
							"type": "address"
						},
						{
							"indexed": false,
							"name": "tokens",
							"type": "uint256"
						}
					],
					"name": "Transfer",
					"type": "event"
				},
				{
					"anonymous": false,
					"inputs": [
						{
							"indexed": true,
							"name": "tokenOwner",
							"type": "address"
						},
						{
							"indexed": true,
							"name": "spender",
							"type": "address"
						},
						{
							"indexed": false,
							"name": "tokens",
							"type": "uint256"
						}
					],
					"name": "Approval",
					"type": "event"
				}
			],
			"devdoc": {
				"methods": {}
			},
			"evm": {
				"assembly": "    /* \"source/WeenusToken.sol\":3807:6715  contract WeenusToken is ERC20Interface, Owned {\r... */\n  mstore(0x40, 0x80)\n    /* \"source/WeenusToken.sol\":4117:4425  constructor() public {\r... */\n  callvalue\n    /* \"--CODEGEN--\":8:17   */\n  dup1\n    /* \"--CODEGEN--\":5:7   */\n  iszero\n  tag_1\n  jumpi\n    /* \"--CODEGEN--\":30:31   */\n  0x00\n    /* \"--CODEGEN--\":27:28   */\n  dup1\n    /* \"--CODEGEN--\":20:32   */\n  revert\n    /* \"--CODEGEN--\":5:7   */\ntag_1:\n  pop\n    /* \"source/WeenusToken.sol\":3125:3130  owner */\n  0x00\n    /* \"source/WeenusToken.sol\":3125:3143  owner = msg.sender */\n  dup1\n  sload\n  not(sub(exp(0x02, 0xa0), 0x01))\n  and\n    /* \"source/WeenusToken.sol\":3133:3143  msg.sender */\n  caller\n    /* \"source/WeenusToken.sol\":3125:3143  owner = msg.sender */\n  or\n  swap1\n  sstore\n    /* \"source/WeenusToken.sol\":4149:4166  symbol = \"WEENUS\" */\n  0x40\n  dup1\n  mload\n  dup1\n  dup3\n  add\n  swap1\n  swap2\n  mstore\n  0x06\n  dup1\n  dup3\n  mstore\n  0x5745454e55530000000000000000000000000000000000000000000000000000\n  0x20\n  swap1\n  swap3\n  add\n  swap2\n  dup3\n  mstore\n  tag_6\n  swap2\n    /* \"source/WeenusToken.sol\":4149:4155  symbol */\n  0x02\n  swap2\n    /* \"source/WeenusToken.sol\":4149:4166  symbol = \"WEENUS\" */\n  tag_7\n  jump\t// in\ntag_6:\n  pop\n    /* \"source/WeenusToken.sol\":4177:4197  name = \"Weenus 💪\" */\n  0x40\n  dup1\n  mload\n  dup1\n  dup3\n  add\n  swap1\n  swap2\n  mstore\n  0x0b\n  dup1\n  dup3\n  mstore\n  0x5765656e757320f09f92aa000000000000000000000000000000000000000000\n  0x20\n  swap1\n  swap3\n  add\n  swap2\n  dup3\n  mstore\n  tag_8\n  swap2\n    /* \"source/WeenusToken.sol\":4177:4181  name */\n  0x03\n  swap2\n    /* \"source/WeenusToken.sol\":4177:4197  name = \"Weenus 💪\" */\n  tag_7\n  jump\t// in\ntag_8:\n  pop\n    /* \"source/WeenusToken.sol\":4208:4216  decimals */\n  0x04\n    /* \"source/WeenusToken.sol\":4208:4221  decimals = 18 */\n  dup1\n  sload\n    /* \"source/WeenusToken.sol\":4219:4221  18 */\n  0x12\n  not(0xff)\n    /* \"source/WeenusToken.sol\":4208:4221  decimals = 18 */\n  swap1\n  swap2\n  and\n  or\n  swap1\n  dup2\n  swap1\n  sstore\n  0xff\n    /* \"source/WeenusToken.sol\":4266:4274  decimals */\n  and\n    /* \"source/WeenusToken.sol\":4257:4259  10 */\n  0x0a\n    /* \"source/WeenusToken.sol\":4257:4275  10**uint(decimals) */\n  exp\n    /* \"source/WeenusToken.sol\":4247:4254  1000000 */\n  0x0f4240\n    /* \"source/WeenusToken.sol\":4247:4275  1000000 * 10**uint(decimals) */\n  dup2\n  mul\n    /* \"source/WeenusToken.sol\":4232:4244  _totalSupply */\n  0x05\n    /* \"source/WeenusToken.sol\":4232:4275  _totalSupply = 1000000 * 10**uint(decimals) */\n  dup2\n  swap1\n  sstore\n    /* \"source/WeenusToken.sol\":4294:4298  1000 */\n  0x03e8\n    /* \"source/WeenusToken.sol\":4294:4319  1000 * 10**uint(decimals) */\n  swap1\n  swap2\n  mul\n    /* \"source/WeenusToken.sol\":4286:4291  _drop */\n  0x06\n    /* \"source/WeenusToken.sol\":4286:4319  _drop = 1000 * 10**uint(decimals) */\n  sstore\n  0x00\n    /* \"source/WeenusToken.sol\":4339:4344  owner */\n  dup1\n  sload\n  sub(exp(0x02, 0xa0), 0x01)\n  swap1\n  dup2\n  and\n    /* \"source/WeenusToken.sol\":4330:4345  balances[owner] */\n  dup3\n  mstore\n    /* \"source/WeenusToken.sol\":4330:4338  balances */\n  0x07\n    /* \"source/WeenusToken.sol\":4330:4345  balances[owner] */\n  0x20\n  swap1\n  dup2\n  mstore\n  0x40\n  dup1\n  dup5\n  keccak256\n    /* \"source/WeenusToken.sol\":4330:4360  balances[owner] = _totalSupply */\n  dup6\n  swap1\n  sstore\n    /* \"source/WeenusToken.sol\":4397:4402  owner */\n  dup4\n  sload\n    /* \"source/WeenusToken.sol\":4376:4417  Transfer(address(0), owner, _totalSupply) */\n  dup2\n  mload\n  swap6\n  dup7\n  mstore\n  swap1\n  mload\n    /* \"source/WeenusToken.sol\":4397:4402  owner */\n  swap3\n  and\n  swap4\n    /* \"source/WeenusToken.sol\":4376:4417  Transfer(address(0), owner, _totalSupply) */\n  0xddf252ad1be2c89b69c2b068fc378daa952ba7f163c4a11628f55a4df523b3ef\n  swap3\n  swap1\n  dup2\n  swap1\n  sub\n  swap1\n  swap2\n  add\n  swap1\n  log3\n    /* \"source/WeenusToken.sol\":3807:6715  contract WeenusToken is ERC20Interface, Owned {\r... */\n  jump(tag_9)\ntag_7:\n  dup3\n  dup1\n  sload\n  0x01\n  dup2\n  0x01\n  and\n  iszero\n  0x0100\n  mul\n  sub\n  and\n  0x02\n  swap1\n  div\n  swap1\n  0x00\n  mstore\n  keccak256(0x00, 0x20)\n  swap1\n  0x1f\n  add\n  0x20\n  swap1\n  div\n  dup2\n  add\n  swap3\n  dup3\n  0x1f\n  lt\n  tag_11\n  jumpi\n  dup1\n  mload\n  not(0xff)\n  and\n  dup4\n  dup1\n  add\n  or\n  dup6\n  sstore\n  jump(tag_13)\ntag_11:\n  dup3\n  dup1\n  add\n  0x01\n  add\n  dup6\n  sstore\n  dup3\n  iszero\n  tag_13\n  jumpi\n  swap2\n  dup3\n  add\ntag_12:\n  dup3\n  dup2\n  gt\n  iszero\n  tag_13\n  jumpi\n  dup3\n  mload\n  dup3\n  sstore\n  swap2\n  0x20\n  add\n  swap2\n  swap1\n  0x01\n  add\n  swap1\n  jump(tag_12)\ntag_13:\n  pop\n  tag_14\n  swap3\n  swap2\n  pop\n  tag_15\n  jump\t// in\ntag_14:\n  pop\n  swap1\n  jump\t// out\ntag_15:\n  tag_16\n  swap2\n  swap1\ntag_17:\n  dup1\n  dup3\n  gt\n  iszero\n  tag_14\n  jumpi\n  0x00\n  dup2\n  sstore\n  0x01\n  add\n  jump(tag_17)\ntag_16:\n  swap1\n  jump\t// out\ntag_9:\n  dataSize(sub_0)\n  dup1\n  dataOffset(sub_0)\n  0x00\n  codecopy\n  0x00\n  return\nstop\n\nsub_0: assembly {\n        /* \"source/WeenusToken.sol\":3807:6715  contract WeenusToken is ERC20Interface, Owned {\r... */\n      mstore(0x40, 0x80)\n      jumpi(tag_1, lt(calldatasize, 0x04))\n      calldataload(0x00)\n      0x0100000000000000000000000000000000000000000000000000000000\n      swap1\n      div\n      dup1\n      0x95d89b41\n      gt\n      tag_18\n      jumpi\n      dup1\n      0xd4ee1d90\n      gt\n      tag_19\n      jumpi\n      dup1\n      0xd4ee1d90\n      eq\n      tag_14\n      jumpi\n      dup1\n      0xdc39d06d\n      eq\n      tag_15\n      jumpi\n      dup1\n      0xdd62ed3e\n      eq\n      tag_16\n      jumpi\n      dup1\n      0xf2fde38b\n      eq\n      tag_17\n      jumpi\n      jump(tag_1)\n    tag_19:\n      dup1\n      0x95d89b41\n      eq\n      tag_10\n      jumpi\n      dup1\n      0x9f678cca\n      eq\n      tag_11\n      jumpi\n      dup1\n      0xa9059cbb\n      eq\n      tag_12\n      jumpi\n      dup1\n      0xcae9ca51\n      eq\n      tag_13\n      jumpi\n      jump(tag_1)\n    tag_18:\n      dup1\n      0x313ce567\n      gt\n      tag_20\n      jumpi\n      dup1\n      0x313ce567\n      eq\n      tag_6\n      jumpi\n      dup1\n      0x70a08231\n      eq\n      tag_7\n      jumpi\n      dup1\n      0x79ba5097\n      eq\n      tag_8\n      jumpi\n      dup1\n      0x8da5cb5b\n      eq\n      tag_9\n      jumpi\n      jump(tag_1)\n    tag_20:\n      dup1\n      0x06fdde03\n      eq\n      tag_2\n      jumpi\n      dup1\n      0x095ea7b3\n      eq\n      tag_3\n      jumpi\n      dup1\n      0x18160ddd\n      eq\n      tag_4\n      jumpi\n      dup1\n      0x23b872dd\n      eq\n      tag_5\n      jumpi\n    tag_1:\n        /* \"source/WeenusToken.sol\":6405:6428  mint(msg.sender, _drop) */\n      tag_23\n        /* \"source/WeenusToken.sol\":6410:6420  msg.sender */\n      caller\n        /* \"source/WeenusToken.sol\":6422:6427  _drop */\n      sload(0x06)\n        /* \"source/WeenusToken.sol\":6405:6409  mint */\n      tag_24\n        /* \"source/WeenusToken.sol\":6405:6428  mint(msg.sender, _drop) */\n      jump\t// in\n    tag_23:\n      pop\n        /* \"source/WeenusToken.sol\":6455:6456  0 */\n      0x00\n        /* \"source/WeenusToken.sol\":6443:6452  msg.value */\n      callvalue\n        /* \"source/WeenusToken.sol\":6443:6456  msg.value > 0 */\n      gt\n        /* \"source/WeenusToken.sol\":6439:6515  if (msg.value > 0) {\r... */\n      iszero\n      tag_25\n      jumpi\n        /* \"source/WeenusToken.sol\":6473:6503  msg.sender.transfer(msg.value) */\n      mload(0x40)\n        /* \"source/WeenusToken.sol\":6473:6483  msg.sender */\n      caller\n      swap1\n        /* \"source/WeenusToken.sol\":6493:6502  msg.value */\n      callvalue\n        /* \"source/WeenusToken.sol\":6473:6503  msg.sender.transfer(msg.value) */\n      dup1\n      iszero\n      0x08fc\n      mul\n      swap2\n      0x00\n      dup2\n      dup2\n      dup2\n        /* \"source/WeenusToken.sol\":6493:6502  msg.value */\n      dup6\n        /* \"source/WeenusToken.sol\":6473:6483  msg.sender */\n      dup9\n        /* \"source/WeenusToken.sol\":6473:6503  msg.sender.transfer(msg.value) */\n      dup9\n      call\n      swap4\n      pop\n      pop\n      pop\n      pop\n      iszero\n        /* \"--CODEGEN--\":8:17   */\n      dup1\n        /* \"--CODEGEN--\":5:7   */\n      iszero\n      tag_26\n      jumpi\n        /* \"--CODEGEN--\":45:61   */\n      returndatasize\n        /* \"--CODEGEN--\":42:43   */\n      0x00\n        /* \"--CODEGEN--\":39:40   */\n      dup1\n        /* \"--CODEGEN--\":24:62   */\n      returndatacopy\n        /* \"--CODEGEN--\":77:93   */\n      returndatasize\n        /* \"--CODEGEN--\":74:75   */\n      0x00\n        /* \"--CODEGEN--\":67:94   */\n      revert\n        /* \"--CODEGEN--\":5:7   */\n    tag_26:\n        /* \"source/WeenusToken.sol\":6473:6503  msg.sender.transfer(msg.value) */\n      pop\n        /* \"source/WeenusToken.sol\":6439:6515  if (msg.value > 0) {\r... */\n    tag_25:\n        /* \"source/WeenusToken.sol\":3807:6715  contract WeenusToken is ERC20Interface, Owned {\r... */\n      stop\n        /* \"source/WeenusToken.sol\":3919:3938  string public  name */\n    tag_2:\n      callvalue\n        /* \"--CODEGEN--\":8:17   */\n      dup1\n        /* \"--CODEGEN--\":5:7   */\n      iszero\n      tag_27\n      jumpi\n        /* \"--CODEGEN--\":30:31   */\n      0x00\n        /* \"--CODEGEN--\":27:28   */\n      dup1\n        /* \"--CODEGEN--\":20:32   */\n      revert\n        /* \"--CODEGEN--\":5:7   */\n    tag_27:\n        /* \"source/WeenusToken.sol\":3919:3938  string public  name */\n      pop\n      tag_28\n      tag_29\n      jump\t// in\n    tag_28:\n      0x40\n      dup1\n      mload\n      0x20\n      dup1\n      dup3\n      mstore\n      dup4\n      mload\n      dup2\n      dup4\n      add\n      mstore\n      dup4\n      mload\n      swap2\n      swap3\n      dup4\n      swap3\n      swap1\n      dup4\n      add\n      swap2\n      dup6\n      add\n      swap1\n      dup1\n      dup4\n      dup4\n      0x00\n        /* \"--CODEGEN--\":8:108   */\n    tag_30:\n        /* \"--CODEGEN--\":33:36   */\n      dup4\n        /* \"--CODEGEN--\":30:31   */\n      dup2\n        /* \"--CODEGEN--\":27:37   */\n      lt\n        /* \"--CODEGEN--\":8:108   */\n      iszero\n      tag_31\n      jumpi\n        /* \"--CODEGEN--\":90:101   */\n      dup2\n      dup2\n      add\n        /* \"--CODEGEN--\":84:102   */\n      mload\n        /* \"--CODEGEN--\":71:82   */\n      dup4\n      dup3\n      add\n        /* \"--CODEGEN--\":64:103   */\n      mstore\n        /* \"--CODEGEN--\":52:54   */\n      0x20\n        /* \"--CODEGEN--\":45:55   */\n      add\n        /* \"--CODEGEN--\":8:108   */\n      jump(tag_30)\n    tag_31:\n        /* \"--CODEGEN--\":12:26   */\n      pop\n        /* \"source/WeenusToken.sol\":3919:3938  string public  name */\n      pop\n      pop\n      pop\n      swap1\n      pop\n      swap1\n      dup2\n      add\n      swap1\n      0x1f\n      and\n      dup1\n      iszero\n      tag_33\n      jumpi\n      dup1\n      dup3\n      sub\n      dup1\n      mload\n      0x01\n      dup4\n      0x20\n      sub\n      0x0100\n      exp\n      sub\n      not\n      and\n      dup2\n      mstore\n      0x20\n      add\n      swap2\n      pop\n    tag_33:\n      pop\n      swap3\n      pop\n      pop\n      pop\n      mload(0x40)\n      dup1\n      swap2\n      sub\n      swap1\n      return\n        /* \"source/WeenusToken.sol\":4950:5158  function approve(address spender, uint tokens) public returns (bool success) {\r... */\n    tag_3:\n      callvalue\n        /* \"--CODEGEN--\":8:17   */\n      dup1\n        /* \"--CODEGEN--\":5:7   */\n      iszero\n      tag_34\n      jumpi\n        /* \"--CODEGEN--\":30:31   */\n      0x00\n        /* \"--CODEGEN--\":27:28   */\n      dup1\n        /* \"--CODEGEN--\":20:32   */\n      revert\n        /* \"--CODEGEN--\":5:7   */\n    tag_34:\n        /* \"source/WeenusToken.sol\":4950:5158  function approve(address spender, uint tokens) public returns (bool success) {\r... */\n      pop\n      tag_35\n      0x04\n      dup1\n      calldatasize\n      sub\n        /* \"--CODEGEN--\":13:15   */\n      0x40\n        /* \"--CODEGEN--\":8:11   */\n      dup2\n        /* \"--CODEGEN--\":5:16   */\n      lt\n        /* \"--CODEGEN--\":2:4   */\n      iszero\n      tag_36\n      jumpi\n        /* \"--CODEGEN--\":29:30   */\n      0x00\n        /* \"--CODEGEN--\":26:27   */\n      dup1\n        /* \"--CODEGEN--\":19:31   */\n      revert\n        /* \"--CODEGEN--\":2:4   */\n    tag_36:\n      pop\n        /* \"source/WeenusToken.sol\":4950:5158  function approve(address spender, uint tokens) public returns (bool success) {\r... */\n      0xffffffffffffffffffffffffffffffffffffffff\n      dup2\n      calldataload\n      and\n      swap1\n      0x20\n      add\n      calldataload\n      tag_37\n      jump\t// in\n    tag_35:\n      0x40\n      dup1\n      mload\n      swap2\n      iszero\n      iszero\n      dup3\n      mstore\n      mload\n      swap1\n      dup2\n      swap1\n      sub\n      0x20\n      add\n      swap1\n      return\n        /* \"source/WeenusToken.sol\":4431:4545  function totalSupply() public view returns (uint) {\r... */\n    tag_4:\n      callvalue\n        /* \"--CODEGEN--\":8:17   */\n      dup1\n        /* \"--CODEGEN--\":5:7   */\n      iszero\n      tag_38\n      jumpi\n        /* \"--CODEGEN--\":30:31   */\n      0x00\n        /* \"--CODEGEN--\":27:28   */\n      dup1\n        /* \"--CODEGEN--\":20:32   */\n      revert\n        /* \"--CODEGEN--\":5:7   */\n    tag_38:\n        /* \"source/WeenusToken.sol\":4431:4545  function totalSupply() public view returns (uint) {\r... */\n      pop\n      tag_39\n      tag_40\n      jump\t// in\n    tag_39:\n      0x40\n      dup1\n      mload\n      swap2\n      dup3\n      mstore\n      mload\n      swap1\n      dup2\n      swap1\n      sub\n      0x20\n      add\n      swap1\n      return\n        /* \"source/WeenusToken.sol\":5164:5507  function transferFrom(address from, address to, uint tokens) public returns (bool success) {\r... */\n    tag_5:\n      callvalue\n        /* \"--CODEGEN--\":8:17   */\n      dup1\n        /* \"--CODEGEN--\":5:7   */\n      iszero\n      tag_41\n      jumpi\n        /* \"--CODEGEN--\":30:31   */\n      0x00\n        /* \"--CODEGEN--\":27:28   */\n      dup1\n        /* \"--CODEGEN--\":20:32   */\n      revert\n        /* \"--CODEGEN--\":5:7   */\n    tag_41:\n        /* \"source/WeenusToken.sol\":5164:5507  function transferFrom(address from, address to, uint tokens) public returns (bool success) {\r... */\n      pop\n      tag_35\n      0x04\n      dup1\n      calldatasize\n      sub\n        /* \"--CODEGEN--\":13:15   */\n      0x60\n        /* \"--CODEGEN--\":8:11   */\n      dup2\n        /* \"--CODEGEN--\":5:16   */\n      lt\n        /* \"--CODEGEN--\":2:4   */\n      iszero\n      tag_43\n      jumpi\n        /* \"--CODEGEN--\":29:30   */\n      0x00\n        /* \"--CODEGEN--\":26:27   */\n      dup1\n        /* \"--CODEGEN--\":19:31   */\n      revert\n        /* \"--CODEGEN--\":2:4   */\n    tag_43:\n      pop\n        /* \"source/WeenusToken.sol\":5164:5507  function transferFrom(address from, address to, uint tokens) public returns (bool success) {\r... */\n      0xffffffffffffffffffffffffffffffffffffffff\n      dup2\n      calldataload\n      dup2\n      and\n      swap2\n      0x20\n      dup2\n      add\n      calldataload\n      swap1\n      swap2\n      and\n      swap1\n      0x40\n      add\n      calldataload\n      tag_44\n      jump\t// in\n        /* \"source/WeenusToken.sol\":3945:3966  uint8 public decimals */\n    tag_6:\n      callvalue\n        /* \"--CODEGEN--\":8:17   */\n      dup1\n        /* \"--CODEGEN--\":5:7   */\n      iszero\n      tag_45\n      jumpi\n        /* \"--CODEGEN--\":30:31   */\n      0x00\n        /* \"--CODEGEN--\":27:28   */\n      dup1\n        /* \"--CODEGEN--\":20:32   */\n      revert\n        /* \"--CODEGEN--\":5:7   */\n    tag_45:\n        /* \"source/WeenusToken.sol\":3945:3966  uint8 public decimals */\n      pop\n      tag_46\n      tag_47\n      jump\t// in\n    tag_46:\n      0x40\n      dup1\n      mload\n      0xff\n      swap1\n      swap3\n      and\n      dup3\n      mstore\n      mload\n      swap1\n      dup2\n      swap1\n      sub\n      0x20\n      add\n      swap1\n      return\n        /* \"source/WeenusToken.sol\":4551:4671  function balanceOf(address tokenOwner) public view returns (uint balance) {\r... */\n    tag_7:\n      callvalue\n        /* \"--CODEGEN--\":8:17   */\n      dup1\n        /* \"--CODEGEN--\":5:7   */\n      iszero\n      tag_48\n      jumpi\n        /* \"--CODEGEN--\":30:31   */\n      0x00\n        /* \"--CODEGEN--\":27:28   */\n      dup1\n        /* \"--CODEGEN--\":20:32   */\n      revert\n        /* \"--CODEGEN--\":5:7   */\n    tag_48:\n        /* \"source/WeenusToken.sol\":4551:4671  function balanceOf(address tokenOwner) public view returns (uint balance) {\r... */\n      pop\n      tag_39\n      0x04\n      dup1\n      calldatasize\n      sub\n        /* \"--CODEGEN--\":13:15   */\n      0x20\n        /* \"--CODEGEN--\":8:11   */\n      dup2\n        /* \"--CODEGEN--\":5:16   */\n      lt\n        /* \"--CODEGEN--\":2:4   */\n      iszero\n      tag_50\n      jumpi\n        /* \"--CODEGEN--\":29:30   */\n      0x00\n        /* \"--CODEGEN--\":26:27   */\n      dup1\n        /* \"--CODEGEN--\":19:31   */\n      revert\n        /* \"--CODEGEN--\":2:4   */\n    tag_50:\n      pop\n        /* \"source/WeenusToken.sol\":4551:4671  function balanceOf(address tokenOwner) public view returns (uint balance) {\r... */\n      calldataload\n      0xffffffffffffffffffffffffffffffffffffffff\n      and\n      tag_51\n      jump\t// in\n        /* \"source/WeenusToken.sol\":3353:3549  function acceptOwnership() public {\r... */\n    tag_8:\n      callvalue\n        /* \"--CODEGEN--\":8:17   */\n      dup1\n        /* \"--CODEGEN--\":5:7   */\n      iszero\n      tag_52\n      jumpi\n        /* \"--CODEGEN--\":30:31   */\n      0x00\n        /* \"--CODEGEN--\":27:28   */\n      dup1\n        /* \"--CODEGEN--\":20:32   */\n      revert\n        /* \"--CODEGEN--\":5:7   */\n    tag_52:\n        /* \"source/WeenusToken.sol\":3353:3549  function acceptOwnership() public {\r... */\n      pop\n      tag_25\n      tag_54\n      jump\t// in\n        /* \"source/WeenusToken.sol\":2955:2975  address public owner */\n    tag_9:\n      callvalue\n        /* \"--CODEGEN--\":8:17   */\n      dup1\n        /* \"--CODEGEN--\":5:7   */\n      iszero\n      tag_55\n      jumpi\n        /* \"--CODEGEN--\":30:31   */\n      0x00\n        /* \"--CODEGEN--\":27:28   */\n      dup1\n        /* \"--CODEGEN--\":20:32   */\n      revert\n        /* \"--CODEGEN--\":5:7   */\n    tag_55:\n        /* \"source/WeenusToken.sol\":2955:2975  address public owner */\n      pop\n      tag_56\n      tag_57\n      jump\t// in\n    tag_56:\n      0x40\n      dup1\n      mload\n      0xffffffffffffffffffffffffffffffffffffffff\n      swap1\n      swap3\n      and\n      dup3\n      mstore\n      mload\n      swap1\n      dup2\n      swap1\n      sub\n      0x20\n      add\n      swap1\n      return\n        /* \"source/WeenusToken.sol\":3892:3912  string public symbol */\n    tag_10:\n      callvalue\n        /* \"--CODEGEN--\":8:17   */\n      dup1\n        /* \"--CODEGEN--\":5:7   */\n      iszero\n      tag_58\n      jumpi\n        /* \"--CODEGEN--\":30:31   */\n      0x00\n        /* \"--CODEGEN--\":27:28   */\n      dup1\n        /* \"--CODEGEN--\":20:32   */\n      revert\n        /* \"--CODEGEN--\":5:7   */\n    tag_58:\n        /* \"source/WeenusToken.sol\":3892:3912  string public symbol */\n      pop\n      tag_28\n      tag_60\n      jump\t// in\n        /* \"source/WeenusToken.sol\":6292:6357  function drip() public {\r... */\n    tag_11:\n      callvalue\n        /* \"--CODEGEN--\":8:17   */\n      dup1\n        /* \"--CODEGEN--\":5:7   */\n      iszero\n      tag_65\n      jumpi\n        /* \"--CODEGEN--\":30:31   */\n      0x00\n        /* \"--CODEGEN--\":27:28   */\n      dup1\n        /* \"--CODEGEN--\":20:32   */\n      revert\n        /* \"--CODEGEN--\":5:7   */\n    tag_65:\n        /* \"source/WeenusToken.sol\":6292:6357  function drip() public {\r... */\n      pop\n      tag_25\n      tag_67\n      jump\t// in\n        /* \"source/WeenusToken.sol\":4677:4944  function transfer(address to, uint tokens) public returns (bool success) {\r... */\n    tag_12:\n      callvalue\n        /* \"--CODEGEN--\":8:17   */\n      dup1\n        /* \"--CODEGEN--\":5:7   */\n      iszero\n      tag_68\n      jumpi\n        /* \"--CODEGEN--\":30:31   */\n      0x00\n        /* \"--CODEGEN--\":27:28   */\n      dup1\n        /* \"--CODEGEN--\":20:32   */\n      revert\n        /* \"--CODEGEN--\":5:7   */\n    tag_68:\n        /* \"source/WeenusToken.sol\":4677:4944  function transfer(address to, uint tokens) public returns (bool success) {\r... */\n      pop\n      tag_35\n      0x04\n      dup1\n      calldatasize\n      sub\n        /* \"--CODEGEN--\":13:15   */\n      0x40\n        /* \"--CODEGEN--\":8:11   */\n      dup2\n        /* \"--CODEGEN--\":5:16   */\n      lt\n        /* \"--CODEGEN--\":2:4   */\n      iszero\n      tag_70\n      jumpi\n        /* \"--CODEGEN--\":29:30   */\n      0x00\n        /* \"--CODEGEN--\":26:27   */\n      dup1\n        /* \"--CODEGEN--\":19:31   */\n      revert\n        /* \"--CODEGEN--\":2:4   */\n    tag_70:\n      pop\n        /* \"source/WeenusToken.sol\":4677:4944  function transfer(address to, uint tokens) public returns (bool success) {\r... */\n      0xffffffffffffffffffffffffffffffffffffffff\n      dup2\n      calldataload\n      and\n      swap1\n      0x20\n      add\n      calldataload\n      tag_71\n      jump\t// in\n        /* \"source/WeenusToken.sol\":5666:5999  function approveAndCall(address spender, uint tokens, bytes memory data) public returns (bool success) {\r... */\n    tag_13:\n      callvalue\n        /* \"--CODEGEN--\":8:17   */\n      dup1\n        /* \"--CODEGEN--\":5:7   */\n      iszero\n      tag_72\n      jumpi\n        /* \"--CODEGEN--\":30:31   */\n      0x00\n        /* \"--CODEGEN--\":27:28   */\n      dup1\n        /* \"--CODEGEN--\":20:32   */\n      revert\n        /* \"--CODEGEN--\":5:7   */\n    tag_72:\n        /* \"source/WeenusToken.sol\":5666:5999  function approveAndCall(address spender, uint tokens, bytes memory data) public returns (bool success) {\r... */\n      pop\n      tag_35\n      0x04\n      dup1\n      calldatasize\n      sub\n        /* \"--CODEGEN--\":13:15   */\n      0x60\n        /* \"--CODEGEN--\":8:11   */\n      dup2\n        /* \"--CODEGEN--\":5:16   */\n      lt\n        /* \"--CODEGEN--\":2:4   */\n      iszero\n      tag_74\n      jumpi\n        /* \"--CODEGEN--\":29:30   */\n      0x00\n        /* \"--CODEGEN--\":26:27   */\n      dup1\n        /* \"--CODEGEN--\":19:31   */\n      revert\n        /* \"--CODEGEN--\":2:4   */\n    tag_74:\n        /* \"source/WeenusToken.sol\":5666:5999  function approveAndCall(address spender, uint tokens, bytes memory data) public returns (bool success) {\r... */\n      0xffffffffffffffffffffffffffffffffffffffff\n      dup3\n      calldataload\n      and\n      swap2\n      0x20\n      dup2\n      add\n      calldataload\n      swap2\n      dup2\n      add\n      swap1\n      0x60\n      dup2\n      add\n      0x40\n      dup3\n      add\n      calldataload\n        /* \"--CODEGEN--\":21:32   */\n      0x0100000000\n        /* \"--CODEGEN--\":5:33   */\n      dup2\n      gt\n        /* \"--CODEGEN--\":2:4   */\n      iszero\n      tag_75\n      jumpi\n        /* \"--CODEGEN--\":46:47   */\n      0x00\n        /* \"--CODEGEN--\":43:44   */\n      dup1\n        /* \"--CODEGEN--\":36:48   */\n      revert\n        /* \"--CODEGEN--\":2:4   */\n    tag_75:\n        /* \"source/WeenusToken.sol\":5666:5999  function approveAndCall(address spender, uint tokens, bytes memory data) public returns (bool success) {\r... */\n      dup3\n      add\n        /* \"--CODEGEN--\":35:44   */\n      dup4\n        /* \"--CODEGEN--\":28:32   */\n      0x20\n        /* \"--CODEGEN--\":12:26   */\n      dup3\n        /* \"--CODEGEN--\":8:33   */\n      add\n        /* \"--CODEGEN--\":5:45   */\n      gt\n        /* \"--CODEGEN--\":2:4   */\n      iszero\n      tag_76\n      jumpi\n        /* \"--CODEGEN--\":58:59   */\n      0x00\n        /* \"--CODEGEN--\":55:56   */\n      dup1\n        /* \"--CODEGEN--\":48:60   */\n      revert\n        /* \"--CODEGEN--\":2:4   */\n    tag_76:\n        /* \"source/WeenusToken.sol\":5666:5999  function approveAndCall(address spender, uint tokens, bytes memory data) public returns (bool success) {\r... */\n      dup1\n      calldataload\n      swap1\n      0x20\n      add\n      swap2\n        /* \"--CODEGEN--\":100:109   */\n      dup5\n        /* \"--CODEGEN--\":95:96   */\n      0x01\n        /* \"--CODEGEN--\":81:93   */\n      dup4\n        /* \"--CODEGEN--\":77:97   */\n      mul\n        /* \"--CODEGEN--\":67:75   */\n      dup5\n        /* \"--CODEGEN--\":63:98   */\n      add\n        /* \"--CODEGEN--\":60:110   */\n      gt\n        /* \"--CODEGEN--\":39:50   */\n      0x0100000000\n        /* \"--CODEGEN--\":25:37   */\n      dup4\n        /* \"--CODEGEN--\":22:51   */\n      gt\n        /* \"--CODEGEN--\":11:118   */\n      or\n        /* \"--CODEGEN--\":8:10   */\n      iszero\n      tag_77\n      jumpi\n        /* \"--CODEGEN--\":131:132   */\n      0x00\n        /* \"--CODEGEN--\":128:129   */\n      dup1\n        /* \"--CODEGEN--\":121:133   */\n      revert\n        /* \"--CODEGEN--\":8:10   */\n    tag_77:\n        /* \"source/WeenusToken.sol\":5666:5999  function approveAndCall(address spender, uint tokens, bytes memory data) public returns (bool success) {\r... */\n      swap2\n      swap1\n      dup1\n      dup1\n      0x1f\n      add\n      0x20\n      dup1\n      swap2\n      div\n      mul\n      0x20\n      add\n      mload(0x40)\n      swap1\n      dup2\n      add\n      0x40\n      mstore\n      dup1\n      swap4\n      swap3\n      swap2\n      swap1\n      dup2\n      dup2\n      mstore\n      0x20\n      add\n      dup4\n      dup4\n        /* \"--CODEGEN--\":30:33   */\n      dup1\n        /* \"--CODEGEN--\":22:28   */\n      dup3\n        /* \"--CODEGEN--\":14:20   */\n      dup5\n        /* \"--CODEGEN--\":1:34   */\n      calldatacopy\n        /* \"--CODEGEN--\":99:100   */\n      0x00\n        /* \"--CODEGEN--\":81:97   */\n      swap3\n      add\n        /* \"--CODEGEN--\":74:101   */\n      swap2\n      swap1\n      swap2\n      mstore\n      pop\n        /* \"source/WeenusToken.sol\":5666:5999  function approveAndCall(address spender, uint tokens, bytes memory data) public returns (bool success) {\r... */\n      swap3\n      swap6\n      pop\n      tag_78\n      swap5\n      pop\n      pop\n      pop\n      pop\n      pop\n      jump\t// in\n        /* \"source/WeenusToken.sol\":2982:3005  address public newOwner */\n    tag_14:\n      callvalue\n        /* \"--CODEGEN--\":8:17   */\n      dup1\n        /* \"--CODEGEN--\":5:7   */\n      iszero\n      tag_79\n      jumpi\n        /* \"--CODEGEN--\":30:31   */\n      0x00\n        /* \"--CODEGEN--\":27:28   */\n      dup1\n        /* \"--CODEGEN--\":20:32   */\n      revert\n        /* \"--CODEGEN--\":5:7   */\n    tag_79:\n        /* \"source/WeenusToken.sol\":2982:3005  address public newOwner */\n      pop\n      tag_56\n      tag_81\n      jump\t// in\n        /* \"source/WeenusToken.sol\":6528:6712  function transferAnyERC20Token(address tokenAddress, uint tokens) public onlyOwner returns (bool success) {\r... */\n    tag_15:\n      callvalue\n        /* \"--CODEGEN--\":8:17   */\n      dup1\n        /* \"--CODEGEN--\":5:7   */\n      iszero\n      tag_82\n      jumpi\n        /* \"--CODEGEN--\":30:31   */\n      0x00\n        /* \"--CODEGEN--\":27:28   */\n      dup1\n        /* \"--CODEGEN--\":20:32   */\n      revert\n        /* \"--CODEGEN--\":5:7   */\n    tag_82:\n        /* \"source/WeenusToken.sol\":6528:6712  function transferAnyERC20Token(address tokenAddress, uint tokens) public onlyOwner returns (bool success) {\r... */\n      pop\n      tag_35\n      0x04\n      dup1\n      calldatasize\n      sub\n        /* \"--CODEGEN--\":13:15   */\n      0x40\n        /* \"--CODEGEN--\":8:11   */\n      dup2\n        /* \"--CODEGEN--\":5:16   */\n      lt\n        /* \"--CODEGEN--\":2:4   */\n      iszero\n      tag_84\n      jumpi\n        /* \"--CODEGEN--\":29:30   */\n      0x00\n        /* \"--CODEGEN--\":26:27   */\n      dup1\n        /* \"--CODEGEN--\":19:31   */\n      revert\n        /* \"--CODEGEN--\":2:4   */\n    tag_84:\n      pop\n        /* \"source/WeenusToken.sol\":6528:6712  function transferAnyERC20Token(address tokenAddress, uint tokens) public onlyOwner returns (bool success) {\r... */\n      0xffffffffffffffffffffffffffffffffffffffff\n      dup2\n      calldataload\n      and\n      swap1\n      0x20\n      add\n      calldataload\n      tag_85\n      jump\t// in\n        /* \"source/WeenusToken.sol\":5513:5660  function allowance(address tokenOwner, address spender) public view returns (uint remaining) {\r... */\n    tag_16:\n      callvalue\n        /* \"--CODEGEN--\":8:17   */\n      dup1\n        /* \"--CODEGEN--\":5:7   */\n      iszero\n      tag_86\n      jumpi\n        /* \"--CODEGEN--\":30:31   */\n      0x00\n        /* \"--CODEGEN--\":27:28   */\n      dup1\n        /* \"--CODEGEN--\":20:32   */\n      revert\n        /* \"--CODEGEN--\":5:7   */\n    tag_86:\n        /* \"source/WeenusToken.sol\":5513:5660  function allowance(address tokenOwner, address spender) public view returns (uint remaining) {\r... */\n      pop\n      tag_39\n      0x04\n      dup1\n      calldatasize\n      sub\n        /* \"--CODEGEN--\":13:15   */\n      0x40\n        /* \"--CODEGEN--\":8:11   */\n      dup2\n        /* \"--CODEGEN--\":5:16   */\n      lt\n        /* \"--CODEGEN--\":2:4   */\n      iszero\n      tag_88\n      jumpi\n        /* \"--CODEGEN--\":29:30   */\n      0x00\n        /* \"--CODEGEN--\":26:27   */\n      dup1\n        /* \"--CODEGEN--\":19:31   */\n      revert\n        /* \"--CODEGEN--\":2:4   */\n    tag_88:\n      pop\n        /* \"source/WeenusToken.sol\":5513:5660  function allowance(address tokenOwner, address spender) public view returns (uint remaining) {\r... */\n      0xffffffffffffffffffffffffffffffffffffffff\n      dup2\n      calldataload\n      dup2\n      and\n      swap2\n      0x20\n      add\n      calldataload\n      and\n      tag_89\n      jump\t// in\n        /* \"source/WeenusToken.sol\":3245:3347  function transferOwnership(address _newOwner) public onlyOwner {\r... */\n    tag_17:\n      callvalue\n        /* \"--CODEGEN--\":8:17   */\n      dup1\n        /* \"--CODEGEN--\":5:7   */\n      iszero\n      tag_90\n      jumpi\n        /* \"--CODEGEN--\":30:31   */\n      0x00\n        /* \"--CODEGEN--\":27:28   */\n      dup1\n        /* \"--CODEGEN--\":20:32   */\n      revert\n        /* \"--CODEGEN--\":5:7   */\n    tag_90:\n        /* \"source/WeenusToken.sol\":3245:3347  function transferOwnership(address _newOwner) public onlyOwner {\r... */\n      pop\n      tag_25\n      0x04\n      dup1\n      calldatasize\n      sub\n        /* \"--CODEGEN--\":13:15   */\n      0x20\n        /* \"--CODEGEN--\":8:11   */\n      dup2\n        /* \"--CODEGEN--\":5:16   */\n      lt\n        /* \"--CODEGEN--\":2:4   */\n      iszero\n      tag_92\n      jumpi\n        /* \"--CODEGEN--\":29:30   */\n      0x00\n        /* \"--CODEGEN--\":26:27   */\n      dup1\n        /* \"--CODEGEN--\":19:31   */\n      revert\n        /* \"--CODEGEN--\":2:4   */\n    tag_92:\n      pop\n        /* \"source/WeenusToken.sol\":3245:3347  function transferOwnership(address _newOwner) public onlyOwner {\r... */\n      calldataload\n      0xffffffffffffffffffffffffffffffffffffffff\n      and\n      tag_93\n      jump\t// in\n        /* \"source/WeenusToken.sol\":6005:6286  function mint(address tokenOwner, uint tokens) internal returns (bool success) {\r... */\n    tag_24:\n        /* \"source/WeenusToken.sol\":6118:6138  balances[tokenOwner] */\n      0xffffffffffffffffffffffffffffffffffffffff\n      dup3\n      and\n        /* \"source/WeenusToken.sol\":6070:6082  bool success */\n      0x00\n        /* \"source/WeenusToken.sol\":6118:6138  balances[tokenOwner] */\n      swap1\n      dup2\n      mstore\n        /* \"source/WeenusToken.sol\":6118:6126  balances */\n      0x07\n        /* \"source/WeenusToken.sol\":6118:6138  balances[tokenOwner] */\n      0x20\n      mstore\n      0x40\n      dup2\n      keccak256\n      sload\n        /* \"source/WeenusToken.sol\":6118:6150  balances[tokenOwner].add(tokens) */\n      tag_95\n      swap1\n        /* \"source/WeenusToken.sol\":6143:6149  tokens */\n      dup4\n        /* \"source/WeenusToken.sol\":6118:6150  balances[tokenOwner].add(tokens) */\n      0xffffffff\n        /* \"source/WeenusToken.sol\":6118:6142  balances[tokenOwner].add */\n      tag_96\n        /* \"source/WeenusToken.sol\":6118:6150  balances[tokenOwner].add(tokens) */\n      and\n      jump\t// in\n    tag_95:\n        /* \"source/WeenusToken.sol\":6095:6115  balances[tokenOwner] */\n      0xffffffffffffffffffffffffffffffffffffffff\n      dup5\n      and\n      0x00\n      swap1\n      dup2\n      mstore\n        /* \"source/WeenusToken.sol\":6095:6103  balances */\n      0x07\n        /* \"source/WeenusToken.sol\":6095:6115  balances[tokenOwner] */\n      0x20\n      mstore\n      0x40\n      swap1\n      keccak256\n        /* \"source/WeenusToken.sol\":6095:6150  balances[tokenOwner] = balances[tokenOwner].add(tokens) */\n      sstore\n        /* \"source/WeenusToken.sol\":6176:6188  _totalSupply */\n      sload(0x05)\n        /* \"source/WeenusToken.sol\":6176:6200  _totalSupply.add(tokens) */\n      tag_97\n      swap1\n        /* \"source/WeenusToken.sol\":6193:6199  tokens */\n      dup4\n        /* \"source/WeenusToken.sol\":6176:6200  _totalSupply.add(tokens) */\n      0xffffffff\n        /* \"source/WeenusToken.sol\":6176:6192  _totalSupply.add */\n      tag_96\n        /* \"source/WeenusToken.sol\":6176:6200  _totalSupply.add(tokens) */\n      and\n      jump\t// in\n    tag_97:\n        /* \"source/WeenusToken.sol\":6161:6173  _totalSupply */\n      0x05\n        /* \"source/WeenusToken.sol\":6161:6200  _totalSupply = _totalSupply.add(tokens) */\n      sstore\n        /* \"source/WeenusToken.sol\":6216:6256  Transfer(address(0), tokenOwner, tokens) */\n      0x40\n      dup1\n      mload\n      dup4\n      dup2\n      mstore\n      swap1\n      mload\n      0xffffffffffffffffffffffffffffffffffffffff\n      dup6\n      and\n      swap2\n        /* \"source/WeenusToken.sol\":6233:6234  0 */\n      0x00\n      swap2\n        /* \"source/WeenusToken.sol\":6216:6256  Transfer(address(0), tokenOwner, tokens) */\n      0xddf252ad1be2c89b69c2b068fc378daa952ba7f163c4a11628f55a4df523b3ef\n      swap2\n      dup2\n      swap1\n      sub\n      0x20\n      add\n      swap1\n      log3\n      pop\n        /* \"source/WeenusToken.sol\":6274:6278  true */\n      0x01\n        /* \"source/WeenusToken.sol\":6005:6286  function mint(address tokenOwner, uint tokens) internal returns (bool success) {\r... */\n    tag_94:\n      swap3\n      swap2\n      pop\n      pop\n      jump\t// out\n        /* \"source/WeenusToken.sol\":3919:3938  string public  name */\n    tag_29:\n      0x03\n      dup1\n      sload\n      0x40\n      dup1\n      mload\n      0x20\n      0x02\n      0x01\n      dup6\n      and\n      iszero\n      0x0100\n      mul\n      0xffffffffffffffffffffffffffffffffffffffffffffffffffffffffffffffff\n      add\n      swap1\n      swap5\n      and\n      swap4\n      swap1\n      swap4\n      div\n      0x1f\n      dup2\n      add\n      dup5\n      swap1\n      div\n      dup5\n      mul\n      dup3\n      add\n      dup5\n      add\n      swap1\n      swap3\n      mstore\n      dup2\n      dup2\n      mstore\n      swap3\n      swap2\n      dup4\n      add\n      dup3\n      dup3\n      dup1\n      iszero\n      tag_98\n      jumpi\n      dup1\n      0x1f\n      lt\n      tag_99\n      jumpi\n      0x0100\n      dup1\n      dup4\n      sload\n      div\n      mul\n      dup4\n      mstore\n      swap2\n      0x20\n      add\n      swap2\n      jump(tag_98)\n    tag_99:\n      dup3\n      add\n      swap2\n      swap1\n      0x00\n      mstore\n      keccak256(0x00, 0x20)\n      swap1\n    tag_100:\n      dup2\n      sload\n      dup2\n      mstore\n      swap1\n      0x01\n      add\n      swap1\n      0x20\n      add\n      dup1\n      dup4\n      gt\n      tag_100\n      jumpi\n      dup3\n      swap1\n      sub\n      0x1f\n      and\n      dup3\n      add\n      swap2\n    tag_98:\n      pop\n      pop\n      pop\n      pop\n      pop\n      dup2\n      jump\t// out\n        /* \"source/WeenusToken.sol\":4950:5158  function approve(address spender, uint tokens) public returns (bool success) {\r... */\n    tag_37:\n        /* \"source/WeenusToken.sol\":5046:5056  msg.sender */\n      caller\n        /* \"source/WeenusToken.sol\":5013:5025  bool success */\n      0x00\n        /* \"source/WeenusToken.sol\":5038:5057  allowed[msg.sender] */\n      dup2\n      dup2\n      mstore\n        /* \"source/WeenusToken.sol\":5038:5045  allowed */\n      0x08\n        /* \"source/WeenusToken.sol\":5038:5057  allowed[msg.sender] */\n      0x20\n      swap1\n      dup2\n      mstore\n      0x40\n      dup1\n      dup4\n      keccak256\n      0xffffffffffffffffffffffffffffffffffffffff\n        /* \"source/WeenusToken.sol\":5038:5066  allowed[msg.sender][spender] */\n      dup8\n      and\n      dup1\n      dup6\n      mstore\n      swap1\n      dup4\n      mstore\n      dup2\n      dup5\n      keccak256\n        /* \"source/WeenusToken.sol\":5038:5075  allowed[msg.sender][spender] = tokens */\n      dup7\n      swap1\n      sstore\n        /* \"source/WeenusToken.sol\":5091:5128  Approval(msg.sender, spender, tokens) */\n      dup2\n      mload\n      dup7\n      dup2\n      mstore\n      swap2\n      mload\n        /* \"source/WeenusToken.sol\":5013:5025  bool success */\n      swap4\n      swap5\n        /* \"source/WeenusToken.sol\":5038:5066  allowed[msg.sender][spender] */\n      swap1\n      swap4\n        /* \"source/WeenusToken.sol\":5046:5056  msg.sender */\n      swap1\n      swap3\n        /* \"source/WeenusToken.sol\":5091:5128  Approval(msg.sender, spender, tokens) */\n      0x8c5be1e5ebec7d5bd14f71427d1e84f3dd0314c0f7b2291e5b200ac8c7c3b925\n      swap3\n      dup3\n      swap1\n      sub\n      add\n      swap1\n      log3\n      pop\n        /* \"source/WeenusToken.sol\":5146:5150  true */\n      0x01\n        /* \"source/WeenusToken.sol\":4950:5158  function approve(address spender, uint tokens) public returns (bool success) {\r... */\n      swap3\n      swap2\n      pop\n      pop\n      jump\t// out\n        /* \"source/WeenusToken.sol\":4431:4545  function totalSupply() public view returns (uint) {\r... */\n    tag_40:\n        /* \"source/WeenusToken.sol\":4475:4479  uint */\n      0x00\n        /* \"source/WeenusToken.sol\":4516:4536  balances[address(0)] */\n      dup1\n      dup1\n      mstore\n        /* \"source/WeenusToken.sol\":4516:4524  balances */\n      0x07\n        /* \"source/WeenusToken.sol\":4516:4536  balances[address(0)] */\n      0x20\n      mstore\n      sload(0x6d5257204ebe7d88fd91ae87941cb2dd9d8062b64ae5a2bd2d28ec40b9fbf6df)\n        /* \"source/WeenusToken.sol\":4499:4511  _totalSupply */\n      sload(0x05)\n        /* \"source/WeenusToken.sol\":4499:4537  _totalSupply.sub(balances[address(0)]) */\n      tag_103\n      swap2\n      0xffffffff\n        /* \"source/WeenusToken.sol\":4499:4515  _totalSupply.sub */\n      tag_104\n        /* \"source/WeenusToken.sol\":4499:4537  _totalSupply.sub(balances[address(0)]) */\n      and\n      jump\t// in\n    tag_103:\n        /* \"source/WeenusToken.sol\":4492:4537  return _totalSupply.sub(balances[address(0)]) */\n      swap1\n      pop\n        /* \"source/WeenusToken.sol\":4431:4545  function totalSupply() public view returns (uint) {\r... */\n      swap1\n      jump\t// out\n        /* \"source/WeenusToken.sol\":5164:5507  function transferFrom(address from, address to, uint tokens) public returns (bool success) {\r... */\n    tag_44:\n        /* \"source/WeenusToken.sol\":5283:5297  balances[from] */\n      0xffffffffffffffffffffffffffffffffffffffff\n      dup4\n      and\n        /* \"source/WeenusToken.sol\":5241:5253  bool success */\n      0x00\n        /* \"source/WeenusToken.sol\":5283:5297  balances[from] */\n      swap1\n      dup2\n      mstore\n        /* \"source/WeenusToken.sol\":5283:5291  balances */\n      0x07\n        /* \"source/WeenusToken.sol\":5283:5297  balances[from] */\n      0x20\n      mstore\n      0x40\n      dup2\n      keccak256\n      sload\n        /* \"source/WeenusToken.sol\":5283:5309  balances[from].sub(tokens) */\n      tag_106\n      swap1\n        /* \"source/WeenusToken.sol\":5302:5308  tokens */\n      dup4\n        /* \"source/WeenusToken.sol\":5283:5309  balances[from].sub(tokens) */\n      0xffffffff\n        /* \"source/WeenusToken.sol\":5283:5301  balances[from].sub */\n      tag_104\n        /* \"source/WeenusToken.sol\":5283:5309  balances[from].sub(tokens) */\n      and\n      jump\t// in\n    tag_106:\n        /* \"source/WeenusToken.sol\":5266:5280  balances[from] */\n      0xffffffffffffffffffffffffffffffffffffffff\n      dup6\n      and\n      0x00\n      swap1\n      dup2\n      mstore\n        /* \"source/WeenusToken.sol\":5266:5274  balances */\n      0x07\n        /* \"source/WeenusToken.sol\":5266:5280  balances[from] */\n      0x20\n      swap1\n      dup2\n      mstore\n      0x40\n      dup1\n      dup4\n      keccak256\n        /* \"source/WeenusToken.sol\":5266:5309  balances[from] = balances[from].sub(tokens) */\n      swap4\n      swap1\n      swap4\n      sstore\n        /* \"source/WeenusToken.sol\":5348:5355  allowed */\n      0x08\n        /* \"source/WeenusToken.sol\":5348:5361  allowed[from] */\n      dup2\n      mstore\n      dup3\n      dup3\n      keccak256\n        /* \"source/WeenusToken.sol\":5362:5372  msg.sender */\n      caller\n        /* \"source/WeenusToken.sol\":5348:5373  allowed[from][msg.sender] */\n      dup4\n      mstore\n      swap1\n      mstore\n      keccak256\n      sload\n        /* \"source/WeenusToken.sol\":5348:5385  allowed[from][msg.sender].sub(tokens) */\n      tag_107\n      swap1\n        /* \"source/WeenusToken.sol\":5378:5384  tokens */\n      dup4\n        /* \"source/WeenusToken.sol\":5348:5385  allowed[from][msg.sender].sub(tokens) */\n      0xffffffff\n        /* \"source/WeenusToken.sol\":5348:5377  allowed[from][msg.sender].sub */\n      tag_104\n        /* \"source/WeenusToken.sol\":5348:5385  allowed[from][msg.sender].sub(tokens) */\n      and\n      jump\t// in\n    tag_107:\n        /* \"source/WeenusToken.sol\":5320:5333  allowed[from] */\n      0xffffffffffffffffffffffffffffffffffffffff\n      dup1\n      dup7\n      and\n      0x00\n      swap1\n      dup2\n      mstore\n        /* \"source/WeenusToken.sol\":5320:5327  allowed */\n      0x08\n        /* \"source/WeenusToken.sol\":5320:5333  allowed[from] */\n      0x20\n      swap1\n      dup2\n      mstore\n      0x40\n      dup1\n      dup4\n      keccak256\n        /* \"source/WeenusToken.sol\":5334:5344  msg.sender */\n      caller\n        /* \"source/WeenusToken.sol\":5320:5345  allowed[from][msg.sender] */\n      dup5\n      mstore\n      dup3\n      mstore\n      dup1\n      dup4\n      keccak256\n        /* \"source/WeenusToken.sol\":5320:5385  allowed[from][msg.sender] = allowed[from][msg.sender].sub(tokens) */\n      swap5\n      swap1\n      swap5\n      sstore\n        /* \"source/WeenusToken.sol\":5411:5423  balances[to] */\n      swap2\n      dup7\n      and\n      dup2\n      mstore\n        /* \"source/WeenusToken.sol\":5411:5419  balances */\n      0x07\n        /* \"source/WeenusToken.sol\":5411:5423  balances[to] */\n      swap1\n      swap2\n      mstore\n      keccak256\n      sload\n        /* \"source/WeenusToken.sol\":5411:5435  balances[to].add(tokens) */\n      tag_108\n      swap1\n        /* \"source/WeenusToken.sol\":5428:5434  tokens */\n      dup4\n        /* \"source/WeenusToken.sol\":5411:5435  balances[to].add(tokens) */\n      0xffffffff\n        /* \"source/WeenusToken.sol\":5411:5427  balances[to].add */\n      tag_96\n        /* \"source/WeenusToken.sol\":5411:5435  balances[to].add(tokens) */\n      and\n      jump\t// in\n    tag_108:\n        /* \"source/WeenusToken.sol\":5396:5408  balances[to] */\n      0xffffffffffffffffffffffffffffffffffffffff\n      dup1\n      dup6\n      and\n      0x00\n      dup2\n      dup2\n      mstore\n        /* \"source/WeenusToken.sol\":5396:5404  balances */\n      0x07\n        /* \"source/WeenusToken.sol\":5396:5408  balances[to] */\n      0x20\n      swap1\n      dup2\n      mstore\n      0x40\n      swap2\n      dup3\n      swap1\n      keccak256\n        /* \"source/WeenusToken.sol\":5396:5435  balances[to] = balances[to].add(tokens) */\n      swap5\n      swap1\n      swap5\n      sstore\n        /* \"source/WeenusToken.sol\":5451:5477  Transfer(from, to, tokens) */\n      dup1\n      mload\n      dup7\n      dup2\n      mstore\n      swap1\n      mload\n        /* \"source/WeenusToken.sol\":5396:5408  balances[to] */\n      swap2\n      swap4\n        /* \"source/WeenusToken.sol\":5451:5477  Transfer(from, to, tokens) */\n      swap3\n      dup9\n      and\n      swap3\n      0xddf252ad1be2c89b69c2b068fc378daa952ba7f163c4a11628f55a4df523b3ef\n      swap3\n      swap2\n      dup3\n      swap1\n      sub\n      add\n      swap1\n      log3\n      pop\n        /* \"source/WeenusToken.sol\":5495:5499  true */\n      0x01\n        /* \"source/WeenusToken.sol\":5164:5507  function transferFrom(address from, address to, uint tokens) public returns (bool success) {\r... */\n      swap4\n      swap3\n      pop\n      pop\n      pop\n      jump\t// out\n        /* \"source/WeenusToken.sol\":3945:3966  uint8 public decimals */\n    tag_47:\n      and(0xff, sload(0x04))\n      dup2\n      jump\t// out\n        /* \"source/WeenusToken.sol\":4551:4671  function balanceOf(address tokenOwner) public view returns (uint balance) {\r... */\n    tag_51:\n        /* \"source/WeenusToken.sol\":4643:4663  balances[tokenOwner] */\n      0xffffffffffffffffffffffffffffffffffffffff\n      and\n        /* \"source/WeenusToken.sol\":4611:4623  uint balance */\n      0x00\n        /* \"source/WeenusToken.sol\":4643:4663  balances[tokenOwner] */\n      swap1\n      dup2\n      mstore\n        /* \"source/WeenusToken.sol\":4643:4651  balances */\n      0x07\n        /* \"source/WeenusToken.sol\":4643:4663  balances[tokenOwner] */\n      0x20\n      mstore\n      0x40\n      swap1\n      keccak256\n      sload\n      swap1\n        /* \"source/WeenusToken.sol\":4551:4671  function balanceOf(address tokenOwner) public view returns (uint balance) {\r... */\n      jump\t// out\n        /* \"source/WeenusToken.sol\":3353:3549  function acceptOwnership() public {\r... */\n    tag_54:\n        /* \"source/WeenusToken.sol\":3420:3428  newOwner */\n      and(0xffffffffffffffffffffffffffffffffffffffff, sload(0x01))\n        /* \"source/WeenusToken.sol\":3406:3416  msg.sender */\n      caller\n        /* \"source/WeenusToken.sol\":3406:3428  msg.sender == newOwner */\n      eq\n        /* \"source/WeenusToken.sol\":3398:3429  require(msg.sender == newOwner) */\n      tag_111\n      jumpi\n      0x00\n      dup1\n      revert\n    tag_111:\n        /* \"source/WeenusToken.sol\":3473:3481  newOwner */\n      sload(0x01)\n      0x00\n        /* \"source/WeenusToken.sol\":3466:3471  owner */\n      dup1\n      sload\n        /* \"source/WeenusToken.sol\":3445:3482  OwnershipTransferred(owner, newOwner) */\n      mload(0x40)\n        /* \"source/WeenusToken.sol\":3473:3481  newOwner */\n      0xffffffffffffffffffffffffffffffffffffffff\n      swap4\n      dup5\n      and\n      swap4\n        /* \"source/WeenusToken.sol\":3466:3471  owner */\n      swap1\n      swap2\n      and\n      swap2\n        /* \"source/WeenusToken.sol\":3445:3482  OwnershipTransferred(owner, newOwner) */\n      0x8be0079c531659141344cd1fd0a4f28419497f9722a3daafe3b4186f6b6457e0\n      swap2\n      log3\n        /* \"source/WeenusToken.sol\":3501:3509  newOwner */\n      0x01\n      dup1\n      sload\n      0x00\n        /* \"source/WeenusToken.sol\":3493:3509  owner = newOwner */\n      dup1\n      sload\n      0xffffffffffffffffffffffff0000000000000000000000000000000000000000\n      swap1\n      dup2\n      and\n        /* \"source/WeenusToken.sol\":3501:3509  newOwner */\n      0xffffffffffffffffffffffffffffffffffffffff\n      dup5\n      and\n        /* \"source/WeenusToken.sol\":3493:3509  owner = newOwner */\n      or\n      swap1\n      swap2\n      sstore\n        /* \"source/WeenusToken.sol\":3520:3541  newOwner = address(0) */\n      and\n      swap1\n      sstore\n        /* \"source/WeenusToken.sol\":3353:3549  function acceptOwnership() public {\r... */\n      jump\t// out\n        /* \"source/WeenusToken.sol\":2955:2975  address public owner */\n    tag_57:\n      and(0xffffffffffffffffffffffffffffffffffffffff, sload(0x00))\n      dup2\n      jump\t// out\n        /* \"source/WeenusToken.sol\":3892:3912  string public symbol */\n    tag_60:\n      0x02\n      dup1\n      sload\n      0x40\n      dup1\n      mload\n      0x20\n      0x01\n      dup5\n      and\n      iszero\n      0x0100\n      mul\n      0xffffffffffffffffffffffffffffffffffffffffffffffffffffffffffffffff\n      add\n      swap1\n      swap4\n      and\n      dup5\n      swap1\n      div\n      0x1f\n      dup2\n      add\n      dup5\n      swap1\n      div\n      dup5\n      mul\n      dup3\n      add\n      dup5\n      add\n      swap1\n      swap3\n      mstore\n      dup2\n      dup2\n      mstore\n      swap3\n      swap2\n      dup4\n      add\n      dup3\n      dup3\n      dup1\n      iszero\n      tag_98\n      jumpi\n      dup1\n      0x1f\n      lt\n      tag_99\n      jumpi\n      0x0100\n      dup1\n      dup4\n      sload\n      div\n      mul\n      dup4\n      mstore\n      swap2\n      0x20\n      add\n      swap2\n      jump(tag_98)\n        /* \"source/WeenusToken.sol\":6292:6357  function drip() public {\r... */\n    tag_67:\n        /* \"source/WeenusToken.sol\":6326:6349  mint(msg.sender, _drop) */\n      tag_116\n        /* \"source/WeenusToken.sol\":6331:6341  msg.sender */\n      caller\n        /* \"source/WeenusToken.sol\":6343:6348  _drop */\n      sload(0x06)\n        /* \"source/WeenusToken.sol\":6326:6330  mint */\n      tag_24\n        /* \"source/WeenusToken.sol\":6326:6349  mint(msg.sender, _drop) */\n      jump\t// in\n    tag_116:\n      pop\n        /* \"source/WeenusToken.sol\":6292:6357  function drip() public {\r... */\n      jump\t// out\n        /* \"source/WeenusToken.sol\":4677:4944  function transfer(address to, uint tokens) public returns (bool success) {\r... */\n    tag_71:\n        /* \"source/WeenusToken.sol\":4793:4803  msg.sender */\n      caller\n        /* \"source/WeenusToken.sol\":4736:4748  bool success */\n      0x00\n        /* \"source/WeenusToken.sol\":4784:4804  balances[msg.sender] */\n      swap1\n      dup2\n      mstore\n        /* \"source/WeenusToken.sol\":4784:4792  balances */\n      0x07\n        /* \"source/WeenusToken.sol\":4784:4804  balances[msg.sender] */\n      0x20\n      mstore\n      0x40\n      dup2\n      keccak256\n      sload\n        /* \"source/WeenusToken.sol\":4784:4816  balances[msg.sender].sub(tokens) */\n      tag_118\n      swap1\n        /* \"source/WeenusToken.sol\":4809:4815  tokens */\n      dup4\n        /* \"source/WeenusToken.sol\":4784:4816  balances[msg.sender].sub(tokens) */\n      0xffffffff\n        /* \"source/WeenusToken.sol\":4784:4808  balances[msg.sender].sub */\n      tag_104\n        /* \"source/WeenusToken.sol\":4784:4816  balances[msg.sender].sub(tokens) */\n      and\n      jump\t// in\n    tag_118:\n        /* \"source/WeenusToken.sol\":4770:4780  msg.sender */\n      caller\n        /* \"source/WeenusToken.sol\":4761:4781  balances[msg.sender] */\n      0x00\n      swap1\n      dup2\n      mstore\n        /* \"source/WeenusToken.sol\":4761:4769  balances */\n      0x07\n        /* \"source/WeenusToken.sol\":4761:4781  balances[msg.sender] */\n      0x20\n      mstore\n      0x40\n      dup1\n      dup3\n      keccak256\n        /* \"source/WeenusToken.sol\":4761:4816  balances[msg.sender] = balances[msg.sender].sub(tokens) */\n      swap3\n      swap1\n      swap3\n      sstore\n        /* \"source/WeenusToken.sol\":4761:4781  balances[msg.sender] */\n      0xffffffffffffffffffffffffffffffffffffffff\n        /* \"source/WeenusToken.sol\":4842:4854  balances[to] */\n      dup6\n      and\n      dup2\n      mstore\n      keccak256\n      sload\n        /* \"source/WeenusToken.sol\":4842:4866  balances[to].add(tokens) */\n      tag_119\n      swap1\n        /* \"source/WeenusToken.sol\":4859:4865  tokens */\n      dup4\n        /* \"source/WeenusToken.sol\":4842:4866  balances[to].add(tokens) */\n      0xffffffff\n        /* \"source/WeenusToken.sol\":4842:4858  balances[to].add */\n      tag_96\n        /* \"source/WeenusToken.sol\":4842:4866  balances[to].add(tokens) */\n      and\n      jump\t// in\n    tag_119:\n        /* \"source/WeenusToken.sol\":4827:4839  balances[to] */\n      0xffffffffffffffffffffffffffffffffffffffff\n      dup5\n      and\n      0x00\n      dup2\n      dup2\n      mstore\n        /* \"source/WeenusToken.sol\":4827:4835  balances */\n      0x07\n        /* \"source/WeenusToken.sol\":4827:4839  balances[to] */\n      0x20\n      swap1\n      dup2\n      mstore\n      0x40\n      swap2\n      dup3\n      swap1\n      keccak256\n        /* \"source/WeenusToken.sol\":4827:4866  balances[to] = balances[to].add(tokens) */\n      swap4\n      swap1\n      swap4\n      sstore\n        /* \"source/WeenusToken.sol\":4882:4914  Transfer(msg.sender, to, tokens) */\n      dup1\n      mload\n      dup6\n      dup2\n      mstore\n      swap1\n      mload\n        /* \"source/WeenusToken.sol\":4827:4839  balances[to] */\n      swap2\n      swap3\n        /* \"source/WeenusToken.sol\":4891:4901  msg.sender */\n      caller\n      swap3\n        /* \"source/WeenusToken.sol\":4882:4914  Transfer(msg.sender, to, tokens) */\n      0xddf252ad1be2c89b69c2b068fc378daa952ba7f163c4a11628f55a4df523b3ef\n      swap3\n      dup2\n      swap1\n      sub\n      swap1\n      swap2\n      add\n      swap1\n      log3\n      pop\n        /* \"source/WeenusToken.sol\":4932:4936  true */\n      0x01\n        /* \"source/WeenusToken.sol\":4677:4944  function transfer(address to, uint tokens) public returns (bool success) {\r... */\n      swap3\n      swap2\n      pop\n      pop\n      jump\t// out\n        /* \"source/WeenusToken.sol\":5666:5999  function approveAndCall(address spender, uint tokens, bytes memory data) public returns (bool success) {\r... */\n    tag_78:\n        /* \"source/WeenusToken.sol\":5788:5798  msg.sender */\n      caller\n        /* \"source/WeenusToken.sol\":5755:5767  bool success */\n      0x00\n        /* \"source/WeenusToken.sol\":5780:5799  allowed[msg.sender] */\n      dup2\n      dup2\n      mstore\n        /* \"source/WeenusToken.sol\":5780:5787  allowed */\n      0x08\n        /* \"source/WeenusToken.sol\":5780:5799  allowed[msg.sender] */\n      0x20\n      swap1\n      dup2\n      mstore\n      0x40\n      dup1\n      dup4\n      keccak256\n      0xffffffffffffffffffffffffffffffffffffffff\n        /* \"source/WeenusToken.sol\":5780:5808  allowed[msg.sender][spender] */\n      dup9\n      and\n      dup1\n      dup6\n      mstore\n      swap1\n      dup4\n      mstore\n      dup2\n      dup5\n      keccak256\n        /* \"source/WeenusToken.sol\":5780:5817  allowed[msg.sender][spender] = tokens */\n      dup8\n      swap1\n      sstore\n        /* \"source/WeenusToken.sol\":5833:5870  Approval(msg.sender, spender, tokens) */\n      dup2\n      mload\n      dup8\n      dup2\n      mstore\n      swap2\n      mload\n        /* \"source/WeenusToken.sol\":5755:5767  bool success */\n      swap4\n      swap5\n        /* \"source/WeenusToken.sol\":5780:5808  allowed[msg.sender][spender] */\n      swap1\n      swap4\n        /* \"source/WeenusToken.sol\":5788:5798  msg.sender */\n      swap1\n      swap3\n        /* \"source/WeenusToken.sol\":5833:5870  Approval(msg.sender, spender, tokens) */\n      0x8c5be1e5ebec7d5bd14f71427d1e84f3dd0314c0f7b2291e5b200ac8c7c3b925\n      swap3\n      dup3\n      swap1\n      sub\n      add\n      swap1\n      log3\n        /* \"source/WeenusToken.sol\":5881:5969  ApproveAndCallFallBack(spender).receiveApproval(msg.sender, tokens, address(this), data) */\n      mload(0x40)\n      0x8f4ffcb100000000000000000000000000000000000000000000000000000000\n      dup2\n      mstore\n        /* \"source/WeenusToken.sol\":5929:5939  msg.sender */\n      caller\n        /* \"source/WeenusToken.sol\":5881:5969  ApproveAndCallFallBack(spender).receiveApproval(msg.sender, tokens, address(this), data) */\n      0x04\n      dup3\n      add\n      dup2\n      dup2\n      mstore\n      0x24\n      dup4\n      add\n      dup7\n      swap1\n      mstore\n        /* \"source/WeenusToken.sol\":5957:5961  this */\n      address\n        /* \"source/WeenusToken.sol\":5881:5969  ApproveAndCallFallBack(spender).receiveApproval(msg.sender, tokens, address(this), data) */\n      0x44\n      dup5\n      add\n      dup2\n      swap1\n      mstore\n      0x80\n      0x64\n      dup6\n      add\n      swap1\n      dup2\n      mstore\n      dup7\n      mload\n      0x84\n      dup7\n      add\n      mstore\n      dup7\n      mload\n        /* \"source/WeenusToken.sol\":5881:5928  ApproveAndCallFallBack(spender).receiveApproval */\n      0xffffffffffffffffffffffffffffffffffffffff\n      dup11\n      and\n      swap6\n      0x8f4ffcb1\n      swap6\n        /* \"source/WeenusToken.sol\":5929:5939  msg.sender */\n      swap5\n        /* \"source/WeenusToken.sol\":5941:5947  tokens */\n      dup11\n      swap5\n        /* \"source/WeenusToken.sol\":5957:5961  this */\n      swap4\n        /* \"source/WeenusToken.sol\":5964:5968  data */\n      dup11\n      swap4\n        /* \"source/WeenusToken.sol\":5881:5969  ApproveAndCallFallBack(spender).receiveApproval(msg.sender, tokens, address(this), data) */\n      swap2\n      swap3\n      swap1\n      swap2\n      0xa4\n      swap1\n      swap2\n      add\n      swap1\n      0x20\n      dup6\n      add\n      swap1\n      dup1\n      dup4\n      dup4\n      0x00\n        /* \"--CODEGEN--\":8:108   */\n    tag_121:\n        /* \"--CODEGEN--\":33:36   */\n      dup4\n        /* \"--CODEGEN--\":30:31   */\n      dup2\n        /* \"--CODEGEN--\":27:37   */\n      lt\n        /* \"--CODEGEN--\":8:108   */\n      iszero\n      tag_122\n      jumpi\n        /* \"--CODEGEN--\":90:101   */\n      dup2\n      dup2\n      add\n        /* \"--CODEGEN--\":84:102   */\n      mload\n        /* \"--CODEGEN--\":71:82   */\n      dup4\n      dup3\n      add\n        /* \"--CODEGEN--\":64:103   */\n      mstore\n        /* \"--CODEGEN--\":52:54   */\n      0x20\n        /* \"--CODEGEN--\":45:55   */\n      add\n        /* \"--CODEGEN--\":8:108   */\n      jump(tag_121)\n    tag_122:\n        /* \"--CODEGEN--\":12:26   */\n      pop\n        /* \"source/WeenusToken.sol\":5881:5969  ApproveAndCallFallBack(spender).receiveApproval(msg.sender, tokens, address(this), data) */\n      pop\n      pop\n      pop\n      swap1\n      pop\n      swap1\n      dup2\n      add\n      swap1\n      0x1f\n      and\n      dup1\n      iszero\n      tag_124\n      jumpi\n      dup1\n      dup3\n      sub\n      dup1\n      mload\n      0x01\n      dup4\n      0x20\n      sub\n      0x0100\n      exp\n      sub\n      not\n      and\n      dup2\n      mstore\n      0x20\n      add\n      swap2\n      pop\n    tag_124:\n      pop\n      swap6\n      pop\n      pop\n      pop\n      pop\n      pop\n      pop\n      0x00\n      mload(0x40)\n      dup1\n      dup4\n      sub\n      dup2\n      0x00\n      dup8\n      dup1\n      extcodesize\n      iszero\n        /* \"--CODEGEN--\":8:17   */\n      dup1\n        /* \"--CODEGEN--\":5:7   */\n      iszero\n      tag_125\n      jumpi\n        /* \"--CODEGEN--\":30:31   */\n      0x00\n        /* \"--CODEGEN--\":27:28   */\n      dup1\n        /* \"--CODEGEN--\":20:32   */\n      revert\n        /* \"--CODEGEN--\":5:7   */\n    tag_125:\n        /* \"source/WeenusToken.sol\":5881:5969  ApproveAndCallFallBack(spender).receiveApproval(msg.sender, tokens, address(this), data) */\n      pop\n      gas\n      call\n      iszero\n        /* \"--CODEGEN--\":8:17   */\n      dup1\n        /* \"--CODEGEN--\":5:7   */\n      iszero\n      tag_126\n      jumpi\n        /* \"--CODEGEN--\":45:61   */\n      returndatasize\n        /* \"--CODEGEN--\":42:43   */\n      0x00\n        /* \"--CODEGEN--\":39:40   */\n      dup1\n        /* \"--CODEGEN--\":24:62   */\n      returndatacopy\n        /* \"--CODEGEN--\":77:93   */\n      returndatasize\n        /* \"--CODEGEN--\":74:75   */\n      0x00\n        /* \"--CODEGEN--\":67:94   */\n      revert\n        /* \"--CODEGEN--\":5:7   */\n    tag_126:\n      pop\n        /* \"source/WeenusToken.sol\":5987:5991  true */\n      0x01\n      swap8\n        /* \"source/WeenusToken.sol\":5666:5999  function approveAndCall(address spender, uint tokens, bytes memory data) public returns (bool success) {\r... */\n      swap7\n      pop\n      pop\n      pop\n      pop\n      pop\n      pop\n      pop\n      jump\t// out\n        /* \"source/WeenusToken.sol\":2982:3005  address public newOwner */\n    tag_81:\n      and(0xffffffffffffffffffffffffffffffffffffffff, sload(0x01))\n      dup2\n      jump\t// out\n        /* \"source/WeenusToken.sol\":6528:6712  function transferAnyERC20Token(address tokenAddress, uint tokens) public onlyOwner returns (bool success) {\r... */\n    tag_85:\n        /* \"source/WeenusToken.sol\":6620:6632  bool success */\n      0x00\n        /* \"source/WeenusToken.sol\":3211:3216  owner */\n      dup1\n      sload\n      0xffffffffffffffffffffffffffffffffffffffff\n      and\n        /* \"source/WeenusToken.sol\":3197:3207  msg.sender */\n      caller\n        /* \"source/WeenusToken.sol\":3197:3216  msg.sender == owner */\n      eq\n        /* \"source/WeenusToken.sol\":3189:3217  require(msg.sender == owner) */\n      tag_128\n      jumpi\n      0x00\n      dup1\n      revert\n    tag_128:\n        /* \"source/WeenusToken.sol\":6690:6695  owner */\n      0x00\n      dup1\n      sload\n        /* \"source/WeenusToken.sol\":6652:6704  ERC20Interface(tokenAddress).transfer(owner, tokens) */\n      0x40\n      dup1\n      mload\n      0xa9059cbb00000000000000000000000000000000000000000000000000000000\n      dup2\n      mstore\n        /* \"source/WeenusToken.sol\":6652:6689  ERC20Interface(tokenAddress).transfer */\n      0xffffffffffffffffffffffffffffffffffffffff\n        /* \"source/WeenusToken.sol\":6690:6695  owner */\n      swap3\n      dup4\n      and\n        /* \"source/WeenusToken.sol\":6652:6704  ERC20Interface(tokenAddress).transfer(owner, tokens) */\n      0x04\n      dup3\n      add\n      mstore\n      0x24\n      dup2\n      add\n      dup7\n      swap1\n      mstore\n      swap1\n      mload\n        /* \"source/WeenusToken.sol\":6652:6689  ERC20Interface(tokenAddress).transfer */\n      swap2\n      dup7\n      and\n      swap3\n      0xa9059cbb\n      swap3\n        /* \"source/WeenusToken.sol\":6652:6704  ERC20Interface(tokenAddress).transfer(owner, tokens) */\n      0x44\n      dup1\n      dup5\n      add\n      swap4\n      0x20\n      swap4\n      swap1\n      dup4\n      swap1\n      sub\n      swap1\n      swap2\n      add\n      swap1\n      dup3\n      swap1\n        /* \"source/WeenusToken.sol\":6652:6689  ERC20Interface(tokenAddress).transfer */\n      dup8\n        /* \"source/WeenusToken.sol\":6652:6704  ERC20Interface(tokenAddress).transfer(owner, tokens) */\n      dup1\n      extcodesize\n      iszero\n        /* \"--CODEGEN--\":5:7   */\n      dup1\n      iszero\n      tag_130\n      jumpi\n        /* \"--CODEGEN--\":30:31   */\n      0x00\n        /* \"--CODEGEN--\":27:28   */\n      dup1\n        /* \"--CODEGEN--\":20:32   */\n      revert\n        /* \"--CODEGEN--\":5:7   */\n    tag_130:\n        /* \"source/WeenusToken.sol\":6652:6704  ERC20Interface(tokenAddress).transfer(owner, tokens) */\n      pop\n      gas\n      call\n      iszero\n        /* \"--CODEGEN--\":8:17   */\n      dup1\n        /* \"--CODEGEN--\":5:7   */\n      iszero\n      tag_131\n      jumpi\n        /* \"--CODEGEN--\":45:61   */\n      returndatasize\n        /* \"--CODEGEN--\":42:43   */\n      0x00\n        /* \"--CODEGEN--\":39:40   */\n      dup1\n        /* \"--CODEGEN--\":24:62   */\n      returndatacopy\n        /* \"--CODEGEN--\":77:93   */\n      returndatasize\n        /* \"--CODEGEN--\":74:75   */\n      0x00\n        /* \"--CODEGEN--\":67:94   */\n      revert\n        /* \"--CODEGEN--\":5:7   */\n    tag_131:\n        /* \"source/WeenusToken.sol\":6652:6704  ERC20Interface(tokenAddress).transfer(owner, tokens) */\n      pop\n      pop\n      pop\n      pop\n      mload(0x40)\n      returndatasize\n        /* \"--CODEGEN--\":13:15   */\n      0x20\n        /* \"--CODEGEN--\":8:11   */\n      dup2\n        /* \"--CODEGEN--\":5:16   */\n      lt\n        /* \"--CODEGEN--\":2:4   */\n      iszero\n      tag_132\n      jumpi\n        /* \"--CODEGEN--\":29:30   */\n      0x00\n        /* \"--CODEGEN--\":26:27   */\n      dup1\n        /* \"--CODEGEN--\":19:31   */\n      revert\n        /* \"--CODEGEN--\":2:4   */\n    tag_132:\n      pop\n        /* \"source/WeenusToken.sol\":6652:6704  ERC20Interface(tokenAddress).transfer(owner, tokens) */\n      mload\n      swap4\n        /* \"source/WeenusToken.sol\":6528:6712  function transferAnyERC20Token(address tokenAddress, uint tokens) public onlyOwner returns (bool success) {\r... */\n      swap3\n      pop\n      pop\n      pop\n      jump\t// out\n        /* \"source/WeenusToken.sol\":5513:5660  function allowance(address tokenOwner, address spender) public view returns (uint remaining) {\r... */\n    tag_89:\n        /* \"source/WeenusToken.sol\":5624:5643  allowed[tokenOwner] */\n      0xffffffffffffffffffffffffffffffffffffffff\n      swap2\n      dup3\n      and\n        /* \"source/WeenusToken.sol\":5590:5604  uint remaining */\n      0x00\n        /* \"source/WeenusToken.sol\":5624:5643  allowed[tokenOwner] */\n      swap1\n      dup2\n      mstore\n        /* \"source/WeenusToken.sol\":5624:5631  allowed */\n      0x08\n        /* \"source/WeenusToken.sol\":5624:5643  allowed[tokenOwner] */\n      0x20\n      swap1\n      dup2\n      mstore\n      0x40\n      dup1\n      dup4\n      keccak256\n        /* \"source/WeenusToken.sol\":5624:5652  allowed[tokenOwner][spender] */\n      swap4\n      swap1\n      swap5\n      and\n      dup3\n      mstore\n      swap2\n      swap1\n      swap2\n      mstore\n      keccak256\n      sload\n      swap1\n        /* \"source/WeenusToken.sol\":5513:5660  function allowance(address tokenOwner, address spender) public view returns (uint remaining) {\r... */\n      jump\t// out\n        /* \"source/WeenusToken.sol\":3245:3347  function transferOwnership(address _newOwner) public onlyOwner {\r... */\n    tag_93:\n        /* \"source/WeenusToken.sol\":3211:3216  owner */\n      and(0xffffffffffffffffffffffffffffffffffffffff, sload(0x00))\n        /* \"source/WeenusToken.sol\":3197:3207  msg.sender */\n      caller\n        /* \"source/WeenusToken.sol\":3197:3216  msg.sender == owner */\n      eq\n        /* \"source/WeenusToken.sol\":3189:3217  require(msg.sender == owner) */\n      tag_135\n      jumpi\n      0x00\n      dup1\n      revert\n    tag_135:\n        /* \"source/WeenusToken.sol\":3319:3327  newOwner */\n      0x01\n        /* \"source/WeenusToken.sol\":3319:3339  newOwner = _newOwner */\n      dup1\n      sload\n      0xffffffffffffffffffffffff0000000000000000000000000000000000000000\n      and\n      0xffffffffffffffffffffffffffffffffffffffff\n      swap3\n      swap1\n      swap3\n      and\n      swap2\n      swap1\n      swap2\n      or\n      swap1\n      sstore\n        /* \"source/WeenusToken.sol\":3245:3347  function transferOwnership(address _newOwner) public onlyOwner {\r... */\n      jump\t// out\n        /* \"source/WeenusToken.sol\":919:1033  function add(uint a, uint b) internal pure returns (uint c) {\r... */\n    tag_96:\n        /* \"source/WeenusToken.sol\":994:999  a + b */\n      dup2\n      dup2\n      add\n        /* \"source/WeenusToken.sol\":1018:1024  c >= a */\n      dup3\n      dup2\n      lt\n      iszero\n        /* \"source/WeenusToken.sol\":1010:1025  require(c >= a) */\n      tag_94\n      jumpi\n      0x00\n      dup1\n      revert\n        /* \"source/WeenusToken.sol\":1039:1153  function sub(uint a, uint b) internal pure returns (uint c) {\r... */\n    tag_104:\n        /* \"source/WeenusToken.sol\":1091:1097  uint c */\n      0x00\n        /* \"source/WeenusToken.sol\":1118:1124  b <= a */\n      dup3\n      dup3\n      gt\n      iszero\n        /* \"source/WeenusToken.sol\":1110:1125  require(b <= a) */\n      tag_140\n      jumpi\n      0x00\n      dup1\n      revert\n    tag_140:\n      pop\n        /* \"source/WeenusToken.sol\":1140:1145  a - b */\n      swap1\n      sub\n      swap1\n        /* \"source/WeenusToken.sol\":1039:1153  function sub(uint a, uint b) internal pure returns (uint c) {\r... */\n      jump\t// out\n\n    auxdata: 0xa165627a7a723058201aa1b20758494595ff29260a7d1359dbb708ec3e2e3eafdc3a6fd75090dd3c970029\n}\n",
				"bytecode": {
					"linkReferences": {},
					"object": "608060405234801561001057600080fd5b5060008054600160a060020a031916331790556040805180820190915260068082527f5745454e55530000000000000000000000000000000000000000000000000000602090920191825261006791600291610134565b5060408051808201909152600b8082527f5765656e757320f09f92aa00000000000000000000000000000000000000000060209092019182526100ac91600391610134565b5060048054601260ff19909116179081905560ff16600a0a620f4240810260058190556103e890910260065560008054600160a060020a0390811682526007602090815260408084208590558354815195865290519216937fddf252ad1be2c89b69c2b068fc378daa952ba7f163c4a11628f55a4df523b3ef929081900390910190a36101cf565b828054600181600116156101000203166002900490600052602060002090601f016020900481019282601f1061017557805160ff19168380011785556101a2565b828001600101855582156101a2579182015b828111156101a2578251825591602001919060010190610187565b506101ae9291506101b2565b5090565b6101cc91905b808211156101ae57600081556001016101b8565b90565b610eb880620001df6000396000f3fe608060405260043610610110576000357c01000000000000000000000000000000000000000000000000000000009004806395d89b41116100a7578063d4ee1d9011610076578063d4ee1d90146104b4578063dc39d06d146104c9578063dd62ed3e1461050f578063f2fde38b1461055757610110565b806395d89b411461036f5780639f678cca14610384578063a9059cbb14610399578063cae9ca51146103df57610110565b8063313ce567116100e3578063313ce567146102b157806370a08231146102dc57806379ba50971461031c5780638da5cb5b1461033157610110565b806306fdde0314610156578063095ea7b3146101e057806318160ddd1461023a57806323b872dd14610261575b61011c33600654610597565b5060003411156101545760405133903480156108fc02916000818181858888f19350505050158015610152573d6000803e3d6000fd5b505b005b34801561016257600080fd5b5061016b610661565b6040805160208082528351818301528351919283929083019185019080838360005b838110156101a557818101518382015260200161018d565b50505050905090810190601f1680156101d25780820380516001836020036101000a031916815260200191505b509250505060405180910390f35b3480156101ec57600080fd5b506102266004803603604081101561020357600080fd5b5073ffffffffffffffffffffffffffffffffffffffff813516906020013561070d565b604080519115158252519081900360200190f35b34801561024657600080fd5b5061024f610780565b60408051918252519081900360200190f35b34801561026d57600080fd5b506102266004803603606081101561028457600080fd5b5073ffffffffffffffffffffffffffffffffffffffff8135811691602081013590911690604001356107c3565b3480156102bd57600080fd5b506102c6610902565b6040805160ff9092168252519081900360200190f35b3480156102e857600080fd5b5061024f600480360360208110156102ff57600080fd5b503573ffffffffffffffffffffffffffffffffffffffff1661090b565b34801561032857600080fd5b50610154610933565b34801561033d57600080fd5b506103466109ed565b6040805173ffffffffffffffffffffffffffffffffffffffff9092168252519081900360200190f35b34801561037b57600080fd5b5061016b610a09565b34801561039057600080fd5b50610154610a7f565b3480156103a557600080fd5b50610226600480360360408110156103bc57600080fd5b5073ffffffffffffffffffffffffffffffffffffffff8135169060200135610a8e565b3480156103eb57600080fd5b506102266004803603606081101561040257600080fd5b73ffffffffffffffffffffffffffffffffffffffff8235169160208101359181019060608101604082013564010000000081111561043f57600080fd5b82018360208201111561045157600080fd5b8035906020019184600183028401116401000000008311171561047357600080fd5b91908080601f016020809104026020016040519081016040528093929190818152602001838380828437600092019190915250929550610b58945050505050565b3480156104c057600080fd5b50610346610cd3565b3480156104d557600080fd5b50610226600480360360408110156104ec57600080fd5b5073ffffffffffffffffffffffffffffffffffffffff8135169060200135610cef565b34801561051b57600080fd5b5061024f6004803603604081101561053257600080fd5b5073ffffffffffffffffffffffffffffffffffffffff81358116916020013516610dc4565b34801561056357600080fd5b506101546004803603602081101561057a57600080fd5b503573ffffffffffffffffffffffffffffffffffffffff16610dfc565b73ffffffffffffffffffffffffffffffffffffffff82166000908152600760205260408120546105cd908363ffffffff610e6716565b73ffffffffffffffffffffffffffffffffffffffff8416600090815260076020526040902055600554610606908363ffffffff610e6716565b60055560408051838152905173ffffffffffffffffffffffffffffffffffffffff8516916000917fddf252ad1be2c89b69c2b068fc378daa952ba7f163c4a11628f55a4df523b3ef9181900360200190a35060015b92915050565b6003805460408051602060026001851615610100027fffffffffffffffffffffffffffffffffffffffffffffffffffffffffffffffff0190941693909304601f810184900484028201840190925281815292918301828280156107055780601f106106da57610100808354040283529160200191610705565b820191906000526020600020905b8154815290600101906020018083116106e857829003601f168201915b505050505081565b33600081815260086020908152604080832073ffffffffffffffffffffffffffffffffffffffff8716808552908352818420869055815186815291519394909390927f8c5be1e5ebec7d5bd14f71427d1e84f3dd0314c0f7b2291e5b200ac8c7c3b925928290030190a350600192915050565b600080805260076020527f6d5257204ebe7d88fd91ae87941cb2dd9d8062b64ae5a2bd2d28ec40b9fbf6df546005546107be9163ffffffff610e7716565b905090565b73ffffffffffffffffffffffffffffffffffffffff83166000908152600760205260408120546107f9908363ffffffff610e7716565b73ffffffffffffffffffffffffffffffffffffffff85166000908152600760209081526040808320939093556008815282822033835290522054610843908363ffffffff610e7716565b73ffffffffffffffffffffffffffffffffffffffff8086166000908152600860209081526040808320338452825280832094909455918616815260079091522054610894908363ffffffff610e6716565b73ffffffffffffffffffffffffffffffffffffffff80851660008181526007602090815260409182902094909455805186815290519193928816927fddf252ad1be2c89b69c2b068fc378daa952ba7f163c4a11628f55a4df523b3ef92918290030190a35060019392505050565b60045460ff1681565b73ffffffffffffffffffffffffffffffffffffffff1660009081526007602052604090205490565b60015473ffffffffffffffffffffffffffffffffffffffff16331461095757600080fd5b6001546000805460405173ffffffffffffffffffffffffffffffffffffffff93841693909116917f8be0079c531659141344cd1fd0a4f28419497f9722a3daafe3b4186f6b6457e091a360018054600080547fffffffffffffffffffffffff000000000000000000000000000000000000000090811673ffffffffffffffffffffffffffffffffffffffff841617909155169055565b60005473ffffffffffffffffffffffffffffffffffffffff1681565b600280546040805160206001841615610100027fffffffffffffffffffffffffffffffffffffffffffffffffffffffffffffffff01909316849004601f810184900484028201840190925281815292918301828280156107055780601f106106da57610100808354040283529160200191610705565b610a8b33600654610597565b50565b33600090815260076020526040812054610aae908363ffffffff610e7716565b336000908152600760205260408082209290925573ffffffffffffffffffffffffffffffffffffffff851681522054610aed908363ffffffff610e6716565b73ffffffffffffffffffffffffffffffffffffffff84166000818152600760209081526040918290209390935580518581529051919233927fddf252ad1be2c89b69c2b068fc378daa952ba7f163c4a11628f55a4df523b3ef9281900390910190a350600192915050565b33600081815260086020908152604080832073ffffffffffffffffffffffffffffffffffffffff8816808552908352818420879055815187815291519394909390927f8c5be1e5ebec7d5bd14f71427d1e84f3dd0314c0f7b2291e5b200ac8c7c3b925928290030190a36040517f8f4ffcb1000000000000000000000000000000000000000000000000000000008152336004820181815260248301869052306044840181905260806064850190815286516084860152865173ffffffffffffffffffffffffffffffffffffffff8a1695638f4ffcb195948a94938a939192909160a490910190602085019080838360005b83811015610c62578181015183820152602001610c4a565b50505050905090810190601f168015610c8f5780820380516001836020036101000a031916815260200191505b5095505050505050600060405180830381600087803b158015610cb157600080fd5b505af1158015610cc5573d6000803e3d6000fd5b506001979650505050505050565b60015473ffffffffffffffffffffffffffffffffffffffff1681565b6000805473ffffffffffffffffffffffffffffffffffffffff163314610d1457600080fd5b60008054604080517fa9059cbb00000000000000000000000000000000000000000000000000000000815273ffffffffffffffffffffffffffffffffffffffff92831660048201526024810186905290519186169263a9059cbb926044808401936020939083900390910190829087803b158015610d9157600080fd5b505af1158015610da5573d6000803e3d6000fd5b505050506040513d6020811015610dbb57600080fd5b50519392505050565b73ffffffffffffffffffffffffffffffffffffffff918216600090815260086020908152604080832093909416825291909152205490565b60005473ffffffffffffffffffffffffffffffffffffffff163314610e2057600080fd5b600180547fffffffffffffffffffffffff00000000000000000000000000000000000000001673ffffffffffffffffffffffffffffffffffffffff92909216919091179055565b8181018281101561065b57600080fd5b600082821115610e8657600080fd5b5090039056fea165627a7a723058201aa1b20758494595ff29260a7d1359dbb708ec3e2e3eafdc3a6fd75090dd3c970029",
					"opcodes": "PUSH1 0x80 PUSH1 0x40 MSTORE CALLVALUE DUP1 ISZERO PUSH2 0x10 JUMPI PUSH1 0x0 DUP1 REVERT JUMPDEST POP PUSH1 0x0 DUP1 SLOAD PUSH1 0x1 PUSH1 0xA0 PUSH1 0x2 EXP SUB NOT AND CALLER OR SWAP1 SSTORE PUSH1 0x40 DUP1 MLOAD DUP1 DUP3 ADD SWAP1 SWAP2 MSTORE PUSH1 0x6 DUP1 DUP3 MSTORE PUSH32 0x5745454E55530000000000000000000000000000000000000000000000000000 PUSH1 0x20 SWAP1 SWAP3 ADD SWAP2 DUP3 MSTORE PUSH2 0x67 SWAP2 PUSH1 0x2 SWAP2 PUSH2 0x134 JUMP JUMPDEST POP PUSH1 0x40 DUP1 MLOAD DUP1 DUP3 ADD SWAP1 SWAP2 MSTORE PUSH1 0xB DUP1 DUP3 MSTORE PUSH32 0x5765656E757320F09F92AA000000000000000000000000000000000000000000 PUSH1 0x20 SWAP1 SWAP3 ADD SWAP2 DUP3 MSTORE PUSH2 0xAC SWAP2 PUSH1 0x3 SWAP2 PUSH2 0x134 JUMP JUMPDEST POP PUSH1 0x4 DUP1 SLOAD PUSH1 0x12 PUSH1 0xFF NOT SWAP1 SWAP2 AND OR SWAP1 DUP2 SWAP1 SSTORE PUSH1 0xFF AND PUSH1 0xA EXP PUSH3 0xF4240 DUP2 MUL PUSH1 0x5 DUP2 SWAP1 SSTORE PUSH2 0x3E8 SWAP1 SWAP2 MUL PUSH1 0x6 SSTORE PUSH1 0x0 DUP1 SLOAD PUSH1 0x1 PUSH1 0xA0 PUSH1 0x2 EXP SUB SWAP1 DUP2 AND DUP3 MSTORE PUSH1 0x7 PUSH1 0x20 SWAP1 DUP2 MSTORE PUSH1 0x40 DUP1 DUP5 KECCAK256 DUP6 SWAP1 SSTORE DUP4 SLOAD DUP2 MLOAD SWAP6 DUP7 MSTORE SWAP1 MLOAD SWAP3 AND SWAP4 PUSH32 0xDDF252AD1BE2C89B69C2B068FC378DAA952BA7F163C4A11628F55A4DF523B3EF SWAP3 SWAP1 DUP2 SWAP1 SUB SWAP1 SWAP2 ADD SWAP1 LOG3 PUSH2 0x1CF JUMP JUMPDEST DUP3 DUP1 SLOAD PUSH1 0x1 DUP2 PUSH1 0x1 AND ISZERO PUSH2 0x100 MUL SUB AND PUSH1 0x2 SWAP1 DIV SWAP1 PUSH1 0x0 MSTORE PUSH1 0x20 PUSH1 0x0 KECCAK256 SWAP1 PUSH1 0x1F ADD PUSH1 0x20 SWAP1 DIV DUP2 ADD SWAP3 DUP3 PUSH1 0x1F LT PUSH2 0x175 JUMPI DUP1 MLOAD PUSH1 0xFF NOT AND DUP4 DUP1 ADD OR DUP6 SSTORE PUSH2 0x1A2 JUMP JUMPDEST DUP3 DUP1 ADD PUSH1 0x1 ADD DUP6 SSTORE DUP3 ISZERO PUSH2 0x1A2 JUMPI SWAP2 DUP3 ADD JUMPDEST DUP3 DUP2 GT ISZERO PUSH2 0x1A2 JUMPI DUP3 MLOAD DUP3 SSTORE SWAP2 PUSH1 0x20 ADD SWAP2 SWAP1 PUSH1 0x1 ADD SWAP1 PUSH2 0x187 JUMP JUMPDEST POP PUSH2 0x1AE SWAP3 SWAP2 POP PUSH2 0x1B2 JUMP JUMPDEST POP SWAP1 JUMP JUMPDEST PUSH2 0x1CC SWAP2 SWAP1 JUMPDEST DUP1 DUP3 GT ISZERO PUSH2 0x1AE JUMPI PUSH1 0x0 DUP2 SSTORE PUSH1 0x1 ADD PUSH2 0x1B8 JUMP JUMPDEST SWAP1 JUMP JUMPDEST PUSH2 0xEB8 DUP1 PUSH3 0x1DF PUSH1 0x0 CODECOPY PUSH1 0x0 RETURN INVALID PUSH1 0x80 PUSH1 0x40 MSTORE PUSH1 0x4 CALLDATASIZE LT PUSH2 0x110 JUMPI PUSH1 0x0 CALLDATALOAD PUSH29 0x100000000000000000000000000000000000000000000000000000000 SWAP1 DIV DUP1 PUSH4 0x95D89B41 GT PUSH2 0xA7 JUMPI DUP1 PUSH4 0xD4EE1D90 GT PUSH2 0x76 JUMPI DUP1 PUSH4 0xD4EE1D90 EQ PUSH2 0x4B4 JUMPI DUP1 PUSH4 0xDC39D06D EQ PUSH2 0x4C9 JUMPI DUP1 PUSH4 0xDD62ED3E EQ PUSH2 0x50F JUMPI DUP1 PUSH4 0xF2FDE38B EQ PUSH2 0x557 JUMPI PUSH2 0x110 JUMP JUMPDEST DUP1 PUSH4 0x95D89B41 EQ PUSH2 0x36F JUMPI DUP1 PUSH4 0x9F678CCA EQ PUSH2 0x384 JUMPI DUP1 PUSH4 0xA9059CBB EQ PUSH2 0x399 JUMPI DUP1 PUSH4 0xCAE9CA51 EQ PUSH2 0x3DF JUMPI PUSH2 0x110 JUMP JUMPDEST DUP1 PUSH4 0x313CE567 GT PUSH2 0xE3 JUMPI DUP1 PUSH4 0x313CE567 EQ PUSH2 0x2B1 JUMPI DUP1 PUSH4 0x70A08231 EQ PUSH2 0x2DC JUMPI DUP1 PUSH4 0x79BA5097 EQ PUSH2 0x31C JUMPI DUP1 PUSH4 0x8DA5CB5B EQ PUSH2 0x331 JUMPI PUSH2 0x110 JUMP JUMPDEST DUP1 PUSH4 0x6FDDE03 EQ PUSH2 0x156 JUMPI DUP1 PUSH4 0x95EA7B3 EQ PUSH2 0x1E0 JUMPI DUP1 PUSH4 0x18160DDD EQ PUSH2 0x23A JUMPI DUP1 PUSH4 0x23B872DD EQ PUSH2 0x261 JUMPI JUMPDEST PUSH2 0x11C CALLER PUSH1 0x6 SLOAD PUSH2 0x597 JUMP JUMPDEST POP PUSH1 0x0 CALLVALUE GT ISZERO PUSH2 0x154 JUMPI PUSH1 0x40 MLOAD CALLER SWAP1 CALLVALUE DUP1 ISZERO PUSH2 0x8FC MUL SWAP2 PUSH1 0x0 DUP2 DUP2 DUP2 DUP6 DUP9 DUP9 CALL SWAP4 POP POP POP POP ISZERO DUP1 ISZERO PUSH2 0x152 JUMPI RETURNDATASIZE PUSH1 0x0 DUP1 RETURNDATACOPY RETURNDATASIZE PUSH1 0x0 REVERT JUMPDEST POP JUMPDEST STOP JUMPDEST CALLVALUE DUP1 ISZERO PUSH2 0x162 JUMPI PUSH1 0x0 DUP1 REVERT JUMPDEST POP PUSH2 0x16B PUSH2 0x661 JUMP JUMPDEST PUSH1 0x40 DUP1 MLOAD PUSH1 0x20 DUP1 DUP3 MSTORE DUP4 MLOAD DUP2 DUP4 ADD MSTORE DUP4 MLOAD SWAP2 SWAP3 DUP4 SWAP3 SWAP1 DUP4 ADD SWAP2 DUP6 ADD SWAP1 DUP1 DUP4 DUP4 PUSH1 0x0 JUMPDEST DUP4 DUP2 LT ISZERO PUSH2 0x1A5 JUMPI DUP2 DUP2 ADD MLOAD DUP4 DUP3 ADD MSTORE PUSH1 0x20 ADD PUSH2 0x18D JUMP JUMPDEST POP POP POP POP SWAP1 POP SWAP1 DUP2 ADD SWAP1 PUSH1 0x1F AND DUP1 ISZERO PUSH2 0x1D2 JUMPI DUP1 DUP3 SUB DUP1 MLOAD PUSH1 0x1 DUP4 PUSH1 0x20 SUB PUSH2 0x100 EXP SUB NOT AND DUP2 MSTORE PUSH1 0x20 ADD SWAP2 POP JUMPDEST POP SWAP3 POP POP POP PUSH1 0x40 MLOAD DUP1 SWAP2 SUB SWAP1 RETURN JUMPDEST CALLVALUE DUP1 ISZERO PUSH2 0x1EC JUMPI PUSH1 0x0 DUP1 REVERT JUMPDEST POP PUSH2 0x226 PUSH1 0x4 DUP1 CALLDATASIZE SUB PUSH1 0x40 DUP2 LT ISZERO PUSH2 0x203 JUMPI PUSH1 0x0 DUP1 REVERT JUMPDEST POP PUSH20 0xFFFFFFFFFFFFFFFFFFFFFFFFFFFFFFFFFFFFFFFF DUP2 CALLDATALOAD AND SWAP1 PUSH1 0x20 ADD CALLDATALOAD PUSH2 0x70D JUMP JUMPDEST PUSH1 0x40 DUP1 MLOAD SWAP2 ISZERO ISZERO DUP3 MSTORE MLOAD SWAP1 DUP2 SWAP1 SUB PUSH1 0x20 ADD SWAP1 RETURN JUMPDEST CALLVALUE DUP1 ISZERO PUSH2 0x246 JUMPI PUSH1 0x0 DUP1 REVERT JUMPDEST POP PUSH2 0x24F PUSH2 0x780 JUMP JUMPDEST PUSH1 0x40 DUP1 MLOAD SWAP2 DUP3 MSTORE MLOAD SWAP1 DUP2 SWAP1 SUB PUSH1 0x20 ADD SWAP1 RETURN JUMPDEST CALLVALUE DUP1 ISZERO PUSH2 0x26D JUMPI PUSH1 0x0 DUP1 REVERT JUMPDEST POP PUSH2 0x226 PUSH1 0x4 DUP1 CALLDATASIZE SUB PUSH1 0x60 DUP2 LT ISZERO PUSH2 0x284 JUMPI PUSH1 0x0 DUP1 REVERT JUMPDEST POP PUSH20 0xFFFFFFFFFFFFFFFFFFFFFFFFFFFFFFFFFFFFFFFF DUP2 CALLDATALOAD DUP2 AND SWAP2 PUSH1 0x20 DUP2 ADD CALLDATALOAD SWAP1 SWAP2 AND SWAP1 PUSH1 0x40 ADD CALLDATALOAD PUSH2 0x7C3 JUMP JUMPDEST CALLVALUE DUP1 ISZERO PUSH2 0x2BD JUMPI PUSH1 0x0 DUP1 REVERT JUMPDEST POP PUSH2 0x2C6 PUSH2 0x902 JUMP JUMPDEST PUSH1 0x40 DUP1 MLOAD PUSH1 0xFF SWAP1 SWAP3 AND DUP3 MSTORE MLOAD SWAP1 DUP2 SWAP1 SUB PUSH1 0x20 ADD SWAP1 RETURN JUMPDEST CALLVALUE DUP1 ISZERO PUSH2 0x2E8 JUMPI PUSH1 0x0 DUP1 REVERT JUMPDEST POP PUSH2 0x24F PUSH1 0x4 DUP1 CALLDATASIZE SUB PUSH1 0x20 DUP2 LT ISZERO PUSH2 0x2FF JUMPI PUSH1 0x0 DUP1 REVERT JUMPDEST POP CALLDATALOAD PUSH20 0xFFFFFFFFFFFFFFFFFFFFFFFFFFFFFFFFFFFFFFFF AND PUSH2 0x90B JUMP JUMPDEST CALLVALUE DUP1 ISZERO PUSH2 0x328 JUMPI PUSH1 0x0 DUP1 REVERT JUMPDEST POP PUSH2 0x154 PUSH2 0x933 JUMP JUMPDEST CALLVALUE DUP1 ISZERO PUSH2 0x33D JUMPI PUSH1 0x0 DUP1 REVERT JUMPDEST POP PUSH2 0x346 PUSH2 0x9ED JUMP JUMPDEST PUSH1 0x40 DUP1 MLOAD PUSH20 0xFFFFFFFFFFFFFFFFFFFFFFFFFFFFFFFFFFFFFFFF SWAP1 SWAP3 AND DUP3 MSTORE MLOAD SWAP1 DUP2 SWAP1 SUB PUSH1 0x20 ADD SWAP1 RETURN JUMPDEST CALLVALUE DUP1 ISZERO PUSH2 0x37B JUMPI PUSH1 0x0 DUP1 REVERT JUMPDEST POP PUSH2 0x16B PUSH2 0xA09 JUMP JUMPDEST CALLVALUE DUP1 ISZERO PUSH2 0x390 JUMPI PUSH1 0x0 DUP1 REVERT JUMPDEST POP PUSH2 0x154 PUSH2 0xA7F JUMP JUMPDEST CALLVALUE DUP1 ISZERO PUSH2 0x3A5 JUMPI PUSH1 0x0 DUP1 REVERT JUMPDEST POP PUSH2 0x226 PUSH1 0x4 DUP1 CALLDATASIZE SUB PUSH1 0x40 DUP2 LT ISZERO PUSH2 0x3BC JUMPI PUSH1 0x0 DUP1 REVERT JUMPDEST POP PUSH20 0xFFFFFFFFFFFFFFFFFFFFFFFFFFFFFFFFFFFFFFFF DUP2 CALLDATALOAD AND SWAP1 PUSH1 0x20 ADD CALLDATALOAD PUSH2 0xA8E JUMP JUMPDEST CALLVALUE DUP1 ISZERO PUSH2 0x3EB JUMPI PUSH1 0x0 DUP1 REVERT JUMPDEST POP PUSH2 0x226 PUSH1 0x4 DUP1 CALLDATASIZE SUB PUSH1 0x60 DUP2 LT ISZERO PUSH2 0x402 JUMPI PUSH1 0x0 DUP1 REVERT JUMPDEST PUSH20 0xFFFFFFFFFFFFFFFFFFFFFFFFFFFFFFFFFFFFFFFF DUP3 CALLDATALOAD AND SWAP2 PUSH1 0x20 DUP2 ADD CALLDATALOAD SWAP2 DUP2 ADD SWAP1 PUSH1 0x60 DUP2 ADD PUSH1 0x40 DUP3 ADD CALLDATALOAD PUSH5 0x100000000 DUP2 GT ISZERO PUSH2 0x43F JUMPI PUSH1 0x0 DUP1 REVERT JUMPDEST DUP3 ADD DUP4 PUSH1 0x20 DUP3 ADD GT ISZERO PUSH2 0x451 JUMPI PUSH1 0x0 DUP1 REVERT JUMPDEST DUP1 CALLDATALOAD SWAP1 PUSH1 0x20 ADD SWAP2 DUP5 PUSH1 0x1 DUP4 MUL DUP5 ADD GT PUSH5 0x100000000 DUP4 GT OR ISZERO PUSH2 0x473 JUMPI PUSH1 0x0 DUP1 REVERT JUMPDEST SWAP2 SWAP1 DUP1 DUP1 PUSH1 0x1F ADD PUSH1 0x20 DUP1 SWAP2 DIV MUL PUSH1 0x20 ADD PUSH1 0x40 MLOAD SWAP1 DUP2 ADD PUSH1 0x40 MSTORE DUP1 SWAP4 SWAP3 SWAP2 SWAP1 DUP2 DUP2 MSTORE PUSH1 0x20 ADD DUP4 DUP4 DUP1 DUP3 DUP5 CALLDATACOPY PUSH1 0x0 SWAP3 ADD SWAP2 SWAP1 SWAP2 MSTORE POP SWAP3 SWAP6 POP PUSH2 0xB58 SWAP5 POP POP POP POP POP JUMP JUMPDEST CALLVALUE DUP1 ISZERO PUSH2 0x4C0 JUMPI PUSH1 0x0 DUP1 REVERT JUMPDEST POP PUSH2 0x346 PUSH2 0xCD3 JUMP JUMPDEST CALLVALUE DUP1 ISZERO PUSH2 0x4D5 JUMPI PUSH1 0x0 DUP1 REVERT JUMPDEST POP PUSH2 0x226 PUSH1 0x4 DUP1 CALLDATASIZE SUB PUSH1 0x40 DUP2 LT ISZERO PUSH2 0x4EC JUMPI PUSH1 0x0 DUP1 REVERT JUMPDEST POP PUSH20 0xFFFFFFFFFFFFFFFFFFFFFFFFFFFFFFFFFFFFFFFF DUP2 CALLDATALOAD AND SWAP1 PUSH1 0x20 ADD CALLDATALOAD PUSH2 0xCEF JUMP JUMPDEST CALLVALUE DUP1 ISZERO PUSH2 0x51B JUMPI PUSH1 0x0 DUP1 REVERT JUMPDEST POP PUSH2 0x24F PUSH1 0x4 DUP1 CALLDATASIZE SUB PUSH1 0x40 DUP2 LT ISZERO PUSH2 0x532 JUMPI PUSH1 0x0 DUP1 REVERT JUMPDEST POP PUSH20 0xFFFFFFFFFFFFFFFFFFFFFFFFFFFFFFFFFFFFFFFF DUP2 CALLDATALOAD DUP2 AND SWAP2 PUSH1 0x20 ADD CALLDATALOAD AND PUSH2 0xDC4 JUMP JUMPDEST CALLVALUE DUP1 ISZERO PUSH2 0x563 JUMPI PUSH1 0x0 DUP1 REVERT JUMPDEST POP PUSH2 0x154 PUSH1 0x4 DUP1 CALLDATASIZE SUB PUSH1 0x20 DUP2 LT ISZERO PUSH2 0x57A JUMPI PUSH1 0x0 DUP1 REVERT JUMPDEST POP CALLDATALOAD PUSH20 0xFFFFFFFFFFFFFFFFFFFFFFFFFFFFFFFFFFFFFFFF AND PUSH2 0xDFC JUMP JUMPDEST PUSH20 0xFFFFFFFFFFFFFFFFFFFFFFFFFFFFFFFFFFFFFFFF DUP3 AND PUSH1 0x0 SWAP1 DUP2 MSTORE PUSH1 0x7 PUSH1 0x20 MSTORE PUSH1 0x40 DUP2 KECCAK256 SLOAD PUSH2 0x5CD SWAP1 DUP4 PUSH4 0xFFFFFFFF PUSH2 0xE67 AND JUMP JUMPDEST PUSH20 0xFFFFFFFFFFFFFFFFFFFFFFFFFFFFFFFFFFFFFFFF DUP5 AND PUSH1 0x0 SWAP1 DUP2 MSTORE PUSH1 0x7 PUSH1 0x20 MSTORE PUSH1 0x40 SWAP1 KECCAK256 SSTORE PUSH1 0x5 SLOAD PUSH2 0x606 SWAP1 DUP4 PUSH4 0xFFFFFFFF PUSH2 0xE67 AND JUMP JUMPDEST PUSH1 0x5 SSTORE PUSH1 0x40 DUP1 MLOAD DUP4 DUP2 MSTORE SWAP1 MLOAD PUSH20 0xFFFFFFFFFFFFFFFFFFFFFFFFFFFFFFFFFFFFFFFF DUP6 AND SWAP2 PUSH1 0x0 SWAP2 PUSH32 0xDDF252AD1BE2C89B69C2B068FC378DAA952BA7F163C4A11628F55A4DF523B3EF SWAP2 DUP2 SWAP1 SUB PUSH1 0x20 ADD SWAP1 LOG3 POP PUSH1 0x1 JUMPDEST SWAP3 SWAP2 POP POP JUMP JUMPDEST PUSH1 0x3 DUP1 SLOAD PUSH1 0x40 DUP1 MLOAD PUSH1 0x20 PUSH1 0x2 PUSH1 0x1 DUP6 AND ISZERO PUSH2 0x100 MUL PUSH32 0xFFFFFFFFFFFFFFFFFFFFFFFFFFFFFFFFFFFFFFFFFFFFFFFFFFFFFFFFFFFFFFFF ADD SWAP1 SWAP5 AND SWAP4 SWAP1 SWAP4 DIV PUSH1 0x1F DUP2 ADD DUP5 SWAP1 DIV DUP5 MUL DUP3 ADD DUP5 ADD SWAP1 SWAP3 MSTORE DUP2 DUP2 MSTORE SWAP3 SWAP2 DUP4 ADD DUP3 DUP3 DUP1 ISZERO PUSH2 0x705 JUMPI DUP1 PUSH1 0x1F LT PUSH2 0x6DA JUMPI PUSH2 0x100 DUP1 DUP4 SLOAD DIV MUL DUP4 MSTORE SWAP2 PUSH1 0x20 ADD SWAP2 PUSH2 0x705 JUMP JUMPDEST DUP3 ADD SWAP2 SWAP1 PUSH1 0x0 MSTORE PUSH1 0x20 PUSH1 0x0 KECCAK256 SWAP1 JUMPDEST DUP2 SLOAD DUP2 MSTORE SWAP1 PUSH1 0x1 ADD SWAP1 PUSH1 0x20 ADD DUP1 DUP4 GT PUSH2 0x6E8 JUMPI DUP3 SWAP1 SUB PUSH1 0x1F AND DUP3 ADD SWAP2 JUMPDEST POP POP POP POP POP DUP2 JUMP JUMPDEST CALLER PUSH1 0x0 DUP2 DUP2 MSTORE PUSH1 0x8 PUSH1 0x20 SWAP1 DUP2 MSTORE PUSH1 0x40 DUP1 DUP4 KECCAK256 PUSH20 0xFFFFFFFFFFFFFFFFFFFFFFFFFFFFFFFFFFFFFFFF DUP8 AND DUP1 DUP6 MSTORE SWAP1 DUP4 MSTORE DUP2 DUP5 KECCAK256 DUP7 SWAP1 SSTORE DUP2 MLOAD DUP7 DUP2 MSTORE SWAP2 MLOAD SWAP4 SWAP5 SWAP1 SWAP4 SWAP1 SWAP3 PUSH32 0x8C5BE1E5EBEC7D5BD14F71427D1E84F3DD0314C0F7B2291E5B200AC8C7C3B925 SWAP3 DUP3 SWAP1 SUB ADD SWAP1 LOG3 POP PUSH1 0x1 SWAP3 SWAP2 POP POP JUMP JUMPDEST PUSH1 0x0 DUP1 DUP1 MSTORE PUSH1 0x7 PUSH1 0x20 MSTORE PUSH32 0x6D5257204EBE7D88FD91AE87941CB2DD9D8062B64AE5A2BD2D28EC40B9FBF6DF SLOAD PUSH1 0x5 SLOAD PUSH2 0x7BE SWAP2 PUSH4 0xFFFFFFFF PUSH2 0xE77 AND JUMP JUMPDEST SWAP1 POP SWAP1 JUMP JUMPDEST PUSH20 0xFFFFFFFFFFFFFFFFFFFFFFFFFFFFFFFFFFFFFFFF DUP4 AND PUSH1 0x0 SWAP1 DUP2 MSTORE PUSH1 0x7 PUSH1 0x20 MSTORE PUSH1 0x40 DUP2 KECCAK256 SLOAD PUSH2 0x7F9 SWAP1 DUP4 PUSH4 0xFFFFFFFF PUSH2 0xE77 AND JUMP JUMPDEST PUSH20 0xFFFFFFFFFFFFFFFFFFFFFFFFFFFFFFFFFFFFFFFF DUP6 AND PUSH1 0x0 SWAP1 DUP2 MSTORE PUSH1 0x7 PUSH1 0x20 SWAP1 DUP2 MSTORE PUSH1 0x40 DUP1 DUP4 KECCAK256 SWAP4 SWAP1 SWAP4 SSTORE PUSH1 0x8 DUP2 MSTORE DUP3 DUP3 KECCAK256 CALLER DUP4 MSTORE SWAP1 MSTORE KECCAK256 SLOAD PUSH2 0x843 SWAP1 DUP4 PUSH4 0xFFFFFFFF PUSH2 0xE77 AND JUMP JUMPDEST PUSH20 0xFFFFFFFFFFFFFFFFFFFFFFFFFFFFFFFFFFFFFFFF DUP1 DUP7 AND PUSH1 0x0 SWAP1 DUP2 MSTORE PUSH1 0x8 PUSH1 0x20 SWAP1 DUP2 MSTORE PUSH1 0x40 DUP1 DUP4 KECCAK256 CALLER DUP5 MSTORE DUP3 MSTORE DUP1 DUP4 KECCAK256 SWAP5 SWAP1 SWAP5 SSTORE SWAP2 DUP7 AND DUP2 MSTORE PUSH1 0x7 SWAP1 SWAP2 MSTORE KECCAK256 SLOAD PUSH2 0x894 SWAP1 DUP4 PUSH4 0xFFFFFFFF PUSH2 0xE67 AND JUMP JUMPDEST PUSH20 0xFFFFFFFFFFFFFFFFFFFFFFFFFFFFFFFFFFFFFFFF DUP1 DUP6 AND PUSH1 0x0 DUP2 DUP2 MSTORE PUSH1 0x7 PUSH1 0x20 SWAP1 DUP2 MSTORE PUSH1 0x40 SWAP2 DUP3 SWAP1 KECCAK256 SWAP5 SWAP1 SWAP5 SSTORE DUP1 MLOAD DUP7 DUP2 MSTORE SWAP1 MLOAD SWAP2 SWAP4 SWAP3 DUP9 AND SWAP3 PUSH32 0xDDF252AD1BE2C89B69C2B068FC378DAA952BA7F163C4A11628F55A4DF523B3EF SWAP3 SWAP2 DUP3 SWAP1 SUB ADD SWAP1 LOG3 POP PUSH1 0x1 SWAP4 SWAP3 POP POP POP JUMP JUMPDEST PUSH1 0x4 SLOAD PUSH1 0xFF AND DUP2 JUMP JUMPDEST PUSH20 0xFFFFFFFFFFFFFFFFFFFFFFFFFFFFFFFFFFFFFFFF AND PUSH1 0x0 SWAP1 DUP2 MSTORE PUSH1 0x7 PUSH1 0x20 MSTORE PUSH1 0x40 SWAP1 KECCAK256 SLOAD SWAP1 JUMP JUMPDEST PUSH1 0x1 SLOAD PUSH20 0xFFFFFFFFFFFFFFFFFFFFFFFFFFFFFFFFFFFFFFFF AND CALLER EQ PUSH2 0x957 JUMPI PUSH1 0x0 DUP1 REVERT JUMPDEST PUSH1 0x1 SLOAD PUSH1 0x0 DUP1 SLOAD PUSH1 0x40 MLOAD PUSH20 0xFFFFFFFFFFFFFFFFFFFFFFFFFFFFFFFFFFFFFFFF SWAP4 DUP5 AND SWAP4 SWAP1 SWAP2 AND SWAP2 PUSH32 0x8BE0079C531659141344CD1FD0A4F28419497F9722A3DAAFE3B4186F6B6457E0 SWAP2 LOG3 PUSH1 0x1 DUP1 SLOAD PUSH1 0x0 DUP1 SLOAD PUSH32 0xFFFFFFFFFFFFFFFFFFFFFFFF0000000000000000000000000000000000000000 SWAP1 DUP2 AND PUSH20 0xFFFFFFFFFFFFFFFFFFFFFFFFFFFFFFFFFFFFFFFF DUP5 AND OR SWAP1 SWAP2 SSTORE AND SWAP1 SSTORE JUMP JUMPDEST PUSH1 0x0 SLOAD PUSH20 0xFFFFFFFFFFFFFFFFFFFFFFFFFFFFFFFFFFFFFFFF AND DUP2 JUMP JUMPDEST PUSH1 0x2 DUP1 SLOAD PUSH1 0x40 DUP1 MLOAD PUSH1 0x20 PUSH1 0x1 DUP5 AND ISZERO PUSH2 0x100 MUL PUSH32 0xFFFFFFFFFFFFFFFFFFFFFFFFFFFFFFFFFFFFFFFFFFFFFFFFFFFFFFFFFFFFFFFF ADD SWAP1 SWAP4 AND DUP5 SWAP1 DIV PUSH1 0x1F DUP2 ADD DUP5 SWAP1 DIV DUP5 MUL DUP3 ADD DUP5 ADD SWAP1 SWAP3 MSTORE DUP2 DUP2 MSTORE SWAP3 SWAP2 DUP4 ADD DUP3 DUP3 DUP1 ISZERO PUSH2 0x705 JUMPI DUP1 PUSH1 0x1F LT PUSH2 0x6DA JUMPI PUSH2 0x100 DUP1 DUP4 SLOAD DIV MUL DUP4 MSTORE SWAP2 PUSH1 0x20 ADD SWAP2 PUSH2 0x705 JUMP JUMPDEST PUSH2 0xA8B CALLER PUSH1 0x6 SLOAD PUSH2 0x597 JUMP JUMPDEST POP JUMP JUMPDEST CALLER PUSH1 0x0 SWAP1 DUP2 MSTORE PUSH1 0x7 PUSH1 0x20 MSTORE PUSH1 0x40 DUP2 KECCAK256 SLOAD PUSH2 0xAAE SWAP1 DUP4 PUSH4 0xFFFFFFFF PUSH2 0xE77 AND JUMP JUMPDEST CALLER PUSH1 0x0 SWAP1 DUP2 MSTORE PUSH1 0x7 PUSH1 0x20 MSTORE PUSH1 0x40 DUP1 DUP3 KECCAK256 SWAP3 SWAP1 SWAP3 SSTORE PUSH20 0xFFFFFFFFFFFFFFFFFFFFFFFFFFFFFFFFFFFFFFFF DUP6 AND DUP2 MSTORE KECCAK256 SLOAD PUSH2 0xAED SWAP1 DUP4 PUSH4 0xFFFFFFFF PUSH2 0xE67 AND JUMP JUMPDEST PUSH20 0xFFFFFFFFFFFFFFFFFFFFFFFFFFFFFFFFFFFFFFFF DUP5 AND PUSH1 0x0 DUP2 DUP2 MSTORE PUSH1 0x7 PUSH1 0x20 SWAP1 DUP2 MSTORE PUSH1 0x40 SWAP2 DUP3 SWAP1 KECCAK256 SWAP4 SWAP1 SWAP4 SSTORE DUP1 MLOAD DUP6 DUP2 MSTORE SWAP1 MLOAD SWAP2 SWAP3 CALLER SWAP3 PUSH32 0xDDF252AD1BE2C89B69C2B068FC378DAA952BA7F163C4A11628F55A4DF523B3EF SWAP3 DUP2 SWAP1 SUB SWAP1 SWAP2 ADD SWAP1 LOG3 POP PUSH1 0x1 SWAP3 SWAP2 POP POP JUMP JUMPDEST CALLER PUSH1 0x0 DUP2 DUP2 MSTORE PUSH1 0x8 PUSH1 0x20 SWAP1 DUP2 MSTORE PUSH1 0x40 DUP1 DUP4 KECCAK256 PUSH20 0xFFFFFFFFFFFFFFFFFFFFFFFFFFFFFFFFFFFFFFFF DUP9 AND DUP1 DUP6 MSTORE SWAP1 DUP4 MSTORE DUP2 DUP5 KECCAK256 DUP8 SWAP1 SSTORE DUP2 MLOAD DUP8 DUP2 MSTORE SWAP2 MLOAD SWAP4 SWAP5 SWAP1 SWAP4 SWAP1 SWAP3 PUSH32 0x8C5BE1E5EBEC7D5BD14F71427D1E84F3DD0314C0F7B2291E5B200AC8C7C3B925 SWAP3 DUP3 SWAP1 SUB ADD SWAP1 LOG3 PUSH1 0x40 MLOAD PUSH32 0x8F4FFCB100000000000000000000000000000000000000000000000000000000 DUP2 MSTORE CALLER PUSH1 0x4 DUP3 ADD DUP2 DUP2 MSTORE PUSH1 0x24 DUP4 ADD DUP7 SWAP1 MSTORE ADDRESS PUSH1 0x44 DUP5 ADD DUP2 SWAP1 MSTORE PUSH1 0x80 PUSH1 0x64 DUP6 ADD SWAP1 DUP2 MSTORE DUP7 MLOAD PUSH1 0x84 DUP7 ADD MSTORE DUP7 MLOAD PUSH20 0xFFFFFFFFFFFFFFFFFFFFFFFFFFFFFFFFFFFFFFFF DUP11 AND SWAP6 PUSH4 0x8F4FFCB1 SWAP6 SWAP5 DUP11 SWAP5 SWAP4 DUP11 SWAP4 SWAP2 SWAP3 SWAP1 SWAP2 PUSH1 0xA4 SWAP1 SWAP2 ADD SWAP1 PUSH1 0x20 DUP6 ADD SWAP1 DUP1 DUP4 DUP4 PUSH1 0x0 JUMPDEST DUP4 DUP2 LT ISZERO PUSH2 0xC62 JUMPI DUP2 DUP2 ADD MLOAD DUP4 DUP3 ADD MSTORE PUSH1 0x20 ADD PUSH2 0xC4A JUMP JUMPDEST POP POP POP POP SWAP1 POP SWAP1 DUP2 ADD SWAP1 PUSH1 0x1F AND DUP1 ISZERO PUSH2 0xC8F JUMPI DUP1 DUP3 SUB DUP1 MLOAD PUSH1 0x1 DUP4 PUSH1 0x20 SUB PUSH2 0x100 EXP SUB NOT AND DUP2 MSTORE PUSH1 0x20 ADD SWAP2 POP JUMPDEST POP SWAP6 POP POP POP POP POP POP PUSH1 0x0 PUSH1 0x40 MLOAD DUP1 DUP4 SUB DUP2 PUSH1 0x0 DUP8 DUP1 EXTCODESIZE ISZERO DUP1 ISZERO PUSH2 0xCB1 JUMPI PUSH1 0x0 DUP1 REVERT JUMPDEST POP GAS CALL ISZERO DUP1 ISZERO PUSH2 0xCC5 JUMPI RETURNDATASIZE PUSH1 0x0 DUP1 RETURNDATACOPY RETURNDATASIZE PUSH1 0x0 REVERT JUMPDEST POP PUSH1 0x1 SWAP8 SWAP7 POP POP POP POP POP POP POP JUMP JUMPDEST PUSH1 0x1 SLOAD PUSH20 0xFFFFFFFFFFFFFFFFFFFFFFFFFFFFFFFFFFFFFFFF AND DUP2 JUMP JUMPDEST PUSH1 0x0 DUP1 SLOAD PUSH20 0xFFFFFFFFFFFFFFFFFFFFFFFFFFFFFFFFFFFFFFFF AND CALLER EQ PUSH2 0xD14 JUMPI PUSH1 0x0 DUP1 REVERT JUMPDEST PUSH1 0x0 DUP1 SLOAD PUSH1 0x40 DUP1 MLOAD PUSH32 0xA9059CBB00000000000000000000000000000000000000000000000000000000 DUP2 MSTORE PUSH20 0xFFFFFFFFFFFFFFFFFFFFFFFFFFFFFFFFFFFFFFFF SWAP3 DUP4 AND PUSH1 0x4 DUP3 ADD MSTORE PUSH1 0x24 DUP2 ADD DUP7 SWAP1 MSTORE SWAP1 MLOAD SWAP2 DUP7 AND SWAP3 PUSH4 0xA9059CBB SWAP3 PUSH1 0x44 DUP1 DUP5 ADD SWAP4 PUSH1 0x20 SWAP4 SWAP1 DUP4 SWAP1 SUB SWAP1 SWAP2 ADD SWAP1 DUP3 SWAP1 DUP8 DUP1 EXTCODESIZE ISZERO DUP1 ISZERO PUSH2 0xD91 JUMPI PUSH1 0x0 DUP1 REVERT JUMPDEST POP GAS CALL ISZERO DUP1 ISZERO PUSH2 0xDA5 JUMPI RETURNDATASIZE PUSH1 0x0 DUP1 RETURNDATACOPY RETURNDATASIZE PUSH1 0x0 REVERT JUMPDEST POP POP POP POP PUSH1 0x40 MLOAD RETURNDATASIZE PUSH1 0x20 DUP2 LT ISZERO PUSH2 0xDBB JUMPI PUSH1 0x0 DUP1 REVERT JUMPDEST POP MLOAD SWAP4 SWAP3 POP POP POP JUMP JUMPDEST PUSH20 0xFFFFFFFFFFFFFFFFFFFFFFFFFFFFFFFFFFFFFFFF SWAP2 DUP3 AND PUSH1 0x0 SWAP1 DUP2 MSTORE PUSH1 0x8 PUSH1 0x20 SWAP1 DUP2 MSTORE PUSH1 0x40 DUP1 DUP4 KECCAK256 SWAP4 SWAP1 SWAP5 AND DUP3 MSTORE SWAP2 SWAP1 SWAP2 MSTORE KECCAK256 SLOAD SWAP1 JUMP JUMPDEST PUSH1 0x0 SLOAD PUSH20 0xFFFFFFFFFFFFFFFFFFFFFFFFFFFFFFFFFFFFFFFF AND CALLER EQ PUSH2 0xE20 JUMPI PUSH1 0x0 DUP1 REVERT JUMPDEST PUSH1 0x1 DUP1 SLOAD PUSH32 0xFFFFFFFFFFFFFFFFFFFFFFFF0000000000000000000000000000000000000000 AND PUSH20 0xFFFFFFFFFFFFFFFFFFFFFFFFFFFFFFFFFFFFFFFF SWAP3 SWAP1 SWAP3 AND SWAP2 SWAP1 SWAP2 OR SWAP1 SSTORE JUMP JUMPDEST DUP2 DUP2 ADD DUP3 DUP2 LT ISZERO PUSH2 0x65B JUMPI PUSH1 0x0 DUP1 REVERT JUMPDEST PUSH1 0x0 DUP3 DUP3 GT ISZERO PUSH2 0xE86 JUMPI PUSH1 0x0 DUP1 REVERT JUMPDEST POP SWAP1 SUB SWAP1 JUMP INVALID LOG1 PUSH6 0x627A7A723058 KECCAK256 BYTE LOG1 0xb2 SMOD PC 0x49 GASLIMIT SWAP6 SELFDESTRUCT 0x29 0x26 EXP PUSH30 0x1359DBB708EC3E2E3EAFDC3A6FD75090DD3C970029000000000000000000 "
				},
				"gasEstimates": {
					"creation": {
						"codeDepositCost": "753600",
						"executionCost": "infinite",
						"totalCost": "infinite"
					},
					"external": {
						"": "infinite",
						"acceptOwnership()": "42840",
						"allowance(address,address)": "697",
						"approve(address,uint256)": "22304",
						"approveAndCall(address,uint256,bytes)": "infinite",
						"balanceOf(address)": "568",
						"decimals()": "441",
						"drip()": "infinite",
						"name()": "infinite",
						"newOwner()": "440",
						"owner()": "507",
						"symbol()": "infinite",
						"totalSupply()": "infinite",
						"transfer(address,uint256)": "infinite",
						"transferAnyERC20Token(address,uint256)": "infinite",
						"transferFrom(address,address,uint256)": "infinite",
						"transferOwnership(address)": "20755"
					},
					"internal": {
						"mint(address,uint256)": "infinite"
					}
				},
				"methodIdentifiers": {
					"acceptOwnership()": "79ba5097",
					"allowance(address,address)": "dd62ed3e",
					"approve(address,uint256)": "095ea7b3",
					"approveAndCall(address,uint256,bytes)": "cae9ca51",
					"balanceOf(address)": "70a08231",
					"decimals()": "313ce567",
					"drip()": "9f678cca",
					"name()": "06fdde03",
					"newOwner()": "d4ee1d90",
					"owner()": "8da5cb5b",
					"symbol()": "95d89b41",
					"totalSupply()": "18160ddd",
					"transfer(address,uint256)": "a9059cbb",
					"transferAnyERC20Token(address,uint256)": "dc39d06d",
					"transferFrom(address,address,uint256)": "23b872dd",
					"transferOwnership(address)": "f2fde38b"
				}
			},
			"userdoc": {
				"methods": {}
			}
		}
	}
}