{
	"source/Multicall2.sol": {
		"Multicall2": {
			"abi": [
				{
					"constant": true,
					"inputs": [],
					"name": "getCurrentBlockTimestamp",
					"outputs": [
						{
							"name": "timestamp",
							"type": "uint256"
						}
					],
					"payable": false,
					"stateMutability": "view",
					"type": "function"
				},
				{
					"constant": false,
					"inputs": [
						{
							"components": [
								{
									"name": "target",
									"type": "address"
								},
								{
									"name": "callData",
									"type": "bytes"
								}
							],
							"name": "calls",
							"type": "tuple[]"
						}
					],
					"name": "aggregate",
					"outputs": [
						{
							"name": "blockNumber",
							"type": "uint256"
						},
						{
							"name": "returnData",
							"type": "bytes[]"
						}
					],
					"payable": false,
					"stateMutability": "nonpayable",
					"type": "function"
				},
				{
					"constant": true,
					"inputs": [],
					"name": "getLastBlockHash",
					"outputs": [
						{
							"name": "blockHash",
							"type": "bytes32"
						}
					],
					"payable": false,
					"stateMutability": "view",
					"type": "function"
				},
				{
					"constant": false,
					"inputs": [
						{
							"name": "requireSuccess",
							"type": "bool"
						},
						{
							"components": [
								{
									"name": "target",
									"type": "address"
								},
								{
									"name": "callData",
									"type": "bytes"
								}
							],
							"name": "calls",
							"type": "tuple[]"
						}
					],
					"name": "tryBlockAndAggregate",
					"outputs": [
						{
							"name": "blockNumber",
							"type": "uint256"
						},
						{
							"name": "blockHash",
							"type": "bytes32"
						},
						{
							"components": [
								{
									"name": "success",
									"type": "bool"
								},
								{
									"name": "returnData",
									"type": "bytes"
								}
							],
							"name": "returnData",
							"type": "tuple[]"
						}
					],
					"payable": false,
					"stateMutability": "nonpayable",
					"type": "function"
				},
				{
					"constant": true,
					"inputs": [],
					"name": "getBlockNumber",
					"outputs": [
						{
							"name": "blockNumber",
							"type": "uint256"
						}
					],
					"payable": false,
					"stateMutability": "view",
					"type": "function"
				},
				{
					"constant": true,
					"inputs": [
						{
							"name": "addr",
							"type": "address"
						}
					],
					"name": "getEthBalance",
					"outputs": [
						{
							"name": "balance",
							"type": "uint256"
						}
					],
					"payable": false,
					"stateMutability": "view",
					"type": "function"
				},
				{
					"constant": true,
					"inputs": [],
					"name": "getCurrentBlockDifficulty",
					"outputs": [
						{
							"name": "difficulty",
							"type": "uint256"
						}
					],
					"payable": false,
					"stateMutability": "view",
					"type": "function"
				},
				{
					"constant": true,
					"inputs": [],
					"name": "getCurrentBlockGasLimit",
					"outputs": [
						{
							"name": "gaslimit",
							"type": "uint256"
						}
					],
					"payable": false,
					"stateMutability": "view",
					"type": "function"
				},
				{
					"constant": true,
					"inputs": [],
					"name": "getCurrentBlockCoinbase",
					"outputs": [
						{
							"name": "coinbase",
							"type": "address"
						}
					],
					"payable": false,
					"stateMutability": "view",
					"type": "function"
				},
				{
					"constant": false,
					"inputs": [
						{
							"name": "requireSuccess",
							"type": "bool"
						},
						{
							"components": [
								{
									"name": "target",
									"type": "address"
								},
								{
									"name": "callData",
									"type": "bytes"
								}
							],
							"name": "calls",
							"type": "tuple[]"
						}
					],
					"name": "tryAggregate",
					"outputs": [
						{
							"components": [
								{
									"name": "success",
									"type": "bool"
								},
								{
									"name": "returnData",
									"type": "bytes"
								}
							],
							"name": "returnData",
							"type": "tuple[]"
						}
					],
					"payable": false,
					"stateMutability": "nonpayable",
					"type": "function"
				},
				{
					"constant": false,
					"inputs": [
						{
							"components": [
								{
									"name": "target",
									"type": "address"
								},
								{
									"name": "callData",
									"type": "bytes"
								}
							],
							"name": "calls",
							"type": "tuple[]"
						}
					],
					"name": "blockAndAggregate",
					"outputs": [
						{
							"name": "blockNumber",
							"type": "uint256"
						},
						{
							"name": "blockHash",
							"type": "bytes32"
						},
						{
							"components": [
								{
									"name": "success",
									"type": "bool"
								},
								{
									"name": "returnData",
									"type": "bytes"
								}
							],
							"name": "returnData",
							"type": "tuple[]"
						}
					],
					"payable": false,
					"stateMutability": "nonpayable",
					"type": "function"
				},
				{
					"constant": true,
					"inputs": [
						{
							"name": "blockNumber",
							"type": "uint256"
						}
					],
					"name": "getBlockHash",
					"outputs": [
						{
							"name": "blockHash",
							"type": "bytes32"
						}
					],
					"payable": false,
					"stateMutability": "view",
					"type": "function"
				}
			],
			"devdoc": {
				"author": "Nick Johnson <arachnid@notdot.net>",
				"methods": {}
			},
			"evm": {
				"assembly": "    /* \"source/Multicall2.sol\":434:3138  contract Multicall2 {\r... */\n  mstore(0x40, 0x80)\n  callvalue\n    /* \"--CODEGEN--\":8:17   */\n  dup1\n    /* \"--CODEGEN--\":5:7   */\n  iszero\n  tag_1\n  jumpi\n    /* \"--CODEGEN--\":30:31   */\n  0x00\n    /* \"--CODEGEN--\":27:28   */\n  dup1\n    /* \"--CODEGEN--\":20:32   */\n  revert\n    /* \"--CODEGEN--\":5:7   */\ntag_1:\n    /* \"source/Multicall2.sol\":434:3138  contract Multicall2 {\r... */\n  pop\n  dataSize(sub_0)\n  dup1\n  dataOffset(sub_0)\n  0x00\n  codecopy\n  0x00\n  return\nstop\n\nsub_0: assembly {\n        /* \"source/Multicall2.sol\":434:3138  contract Multicall2 {\r... */\n      mstore(0x40, 0x80)\n      callvalue\n        /* \"--CODEGEN--\":8:17   */\n      dup1\n        /* \"--CODEGEN--\":5:7   */\n      iszero\n      tag_1\n      jumpi\n        /* \"--CODEGEN--\":30:31   */\n      0x00\n        /* \"--CODEGEN--\":27:28   */\n      dup1\n        /* \"--CODEGEN--\":20:32   */\n      revert\n        /* \"--CODEGEN--\":5:7   */\n    tag_1:\n        /* \"source/Multicall2.sol\":434:3138  contract Multicall2 {\r... */\n      pop\n      jumpi(tag_2, lt(calldatasize, 0x04))\n      calldataload(0x00)\n      0x0100000000000000000000000000000000000000000000000000000000\n      swap1\n      div\n      dup1\n      0x72425d9d\n      gt\n      tag_15\n      jumpi\n      dup1\n      0xbce38bd7\n      gt\n      tag_16\n      jumpi\n      dup1\n      0xbce38bd7\n      eq\n      tag_12\n      jumpi\n      dup1\n      0xc3077fa9\n      eq\n      tag_13\n      jumpi\n      dup1\n      0xee82ac5e\n      eq\n      tag_14\n      jumpi\n      jump(tag_2)\n    tag_16:\n      dup1\n      0x72425d9d\n      eq\n      tag_9\n      jumpi\n      dup1\n      0x86d516e8\n      eq\n      tag_10\n      jumpi\n      dup1\n      0xa8b0574e\n      eq\n      tag_11\n      jumpi\n      jump(tag_2)\n    tag_15:\n      dup1\n      0x399542e9\n      gt\n      tag_17\n      jumpi\n      dup1\n      0x399542e9\n      eq\n      tag_6\n      jumpi\n      dup1\n      0x42cbb15c\n      eq\n      tag_7\n      jumpi\n      dup1\n      0x4d2301cc\n      eq\n      tag_8\n      jumpi\n      jump(tag_2)\n    tag_17:\n      dup1\n      0x0f28c97d\n      eq\n      tag_3\n      jumpi\n      dup1\n      0x252dba42\n      eq\n      tag_4\n      jumpi\n      dup1\n      0x27e86d6e\n      eq\n      tag_5\n      jumpi\n    tag_2:\n      0x00\n      dup1\n      revert\n        /* \"source/Multicall2.sol\":1945:2067  function getCurrentBlockTimestamp() public view returns (uint256 timestamp) {\r... */\n    tag_3:\n      tag_18\n      tag_19\n      jump\t// in\n    tag_18:\n      mload(0x40)\n      tag_20\n      swap2\n      swap1\n      jump(tag_31)\n    tag_20:\n      mload(0x40)\n      dup1\n      swap2\n      sub\n      swap1\n      return\n        /* \"source/Multicall2.sol\":617:1069  function aggregate(Call[] memory calls) public returns (uint256 blockNumber, bytes[] memory returnData) {\r... */\n    tag_4:\n      tag_22\n      tag_23\n      calldatasize\n      0x04\n      jump(tag_24)\n    tag_23:\n      tag_25\n      jump\t// in\n    tag_22:\n      mload(0x40)\n      tag_20\n      swap3\n      swap2\n      swap1\n      jump(tag_27)\n        /* \"source/Multicall2.sol\":2195:2321  function getLastBlockHash() public view returns (bytes32 blockHash) {\r... */\n    tag_5:\n      tag_18\n      tag_29\n      jump\t// in\n        /* \"source/Multicall2.sol\":2829:3135  function tryBlockAndAggregate(bool requireSuccess, Call[] memory calls) public returns (uint256 blockNumber, bytes32 blockHash, Result[] memory returnData) {\r... */\n    tag_6:\n      tag_32\n      tag_33\n      calldatasize\n      0x04\n      jump(tag_34)\n    tag_33:\n      tag_35\n      jump\t// in\n    tag_32:\n      mload(0x40)\n      tag_20\n      swap4\n      swap3\n      swap2\n      swap1\n      jump(tag_37)\n        /* \"source/Multicall2.sol\":1446:1559  function getBlockNumber() public view returns (uint256 blockNumber) {\r... */\n    tag_7:\n      tag_18\n      tag_39\n      jump\t// in\n        /* \"source/Multicall2.sol\":2073:2189  function getEthBalance(address addr) public view returns (uint256 balance) {\r... */\n    tag_8:\n      tag_18\n      tag_42\n      calldatasize\n      0x04\n      jump(tag_43)\n    tag_42:\n      tag_44\n      jump\t// in\n        /* \"source/Multicall2.sol\":1689:1815  function getCurrentBlockDifficulty() public view returns (uint256 difficulty) {\r... */\n    tag_9:\n      tag_18\n      tag_47\n      jump\t// in\n        /* \"source/Multicall2.sol\":1821:1939  function getCurrentBlockGasLimit() public view returns (uint256 gaslimit) {\r... */\n    tag_10:\n      tag_18\n      tag_50\n      jump\t// in\n        /* \"source/Multicall2.sol\":1565:1683  function getCurrentBlockCoinbase() public view returns (address coinbase) {\r... */\n    tag_11:\n      tag_52\n      tag_53\n      jump\t// in\n    tag_52:\n      mload(0x40)\n      tag_20\n      swap2\n      swap1\n      jump(tag_55)\n        /* \"source/Multicall2.sol\":2327:2823  function tryAggregate(bool requireSuccess, Call[] memory calls) public returns (Result[] memory returnData) {\r... */\n    tag_12:\n      tag_56\n      tag_57\n      calldatasize\n      0x04\n      jump(tag_34)\n    tag_57:\n      tag_58\n      jump\t// in\n    tag_56:\n      mload(0x40)\n      tag_20\n      swap2\n      swap1\n      jump(tag_60)\n        /* \"source/Multicall2.sol\":1075:1298  function blockAndAggregate(Call[] memory calls) public returns (uint256 blockNumber, bytes32 blockHash, Result[] memory returnData) {\r... */\n    tag_13:\n      tag_32\n      tag_62\n      calldatasize\n      0x04\n      jump(tag_24)\n    tag_62:\n      tag_63\n      jump\t// in\n        /* \"source/Multicall2.sol\":1304:1440  function getBlockHash(uint256 blockNumber) public view returns (bytes32 blockHash) {\r... */\n    tag_14:\n      tag_18\n      tag_66\n      calldatasize\n      0x04\n      jump(tag_67)\n    tag_66:\n      tag_68\n      jump\t// in\n        /* \"source/Multicall2.sol\":1945:2067  function getCurrentBlockTimestamp() public view returns (uint256 timestamp) {\r... */\n    tag_19:\n        /* \"source/Multicall2.sol\":2044:2059  block.timestamp */\n      timestamp\n      swap1\n        /* \"source/Multicall2.sol\":1945:2067  function getCurrentBlockTimestamp() public view returns (uint256 timestamp) {\r... */\n      jump\t// out\n        /* \"source/Multicall2.sol\":617:1069  function aggregate(Call[] memory calls) public returns (uint256 blockNumber, bytes[] memory returnData) {\r... */\n    tag_25:\n        /* \"source/Multicall2.sol\":673:692  uint256 blockNumber */\n      0x00\n        /* \"source/Multicall2.sol\":694:719  bytes[] memory returnData */\n      0x60\n        /* \"source/Multicall2.sol\":746:758  block.number */\n      number\n        /* \"source/Multicall2.sol\":732:758  blockNumber = block.number */\n      swap2\n      pop\n        /* \"source/Multicall2.sol\":794:799  calls */\n      dup3\n        /* \"source/Multicall2.sol\":794:806  calls.length */\n      mload\n        /* \"source/Multicall2.sol\":782:807  new bytes[](calls.length) */\n      mload(0x40)\n      swap1\n      dup1\n      dup3\n      mstore\n      dup1\n      0x20\n      mul\n      0x20\n      add\n      dup3\n      add\n      0x40\n      mstore\n      dup1\n      iszero\n      tag_72\n      jumpi\n      dup2\n      0x20\n      add\n    tag_73:\n      0x60\n      dup2\n      mstore\n      0x20\n      add\n      swap1\n      0x01\n      swap1\n      sub\n      swap1\n      dup2\n      tag_73\n      jumpi\n      swap1\n      pop\n    tag_72:\n      pop\n        /* \"source/Multicall2.sol\":769:807  returnData = new bytes[](calls.length) */\n      swap1\n      pop\n        /* \"source/Multicall2.sol\":822:831  uint256 i */\n      0x00\n        /* \"source/Multicall2.sol\":818:1062  for(uint256 i = 0; i < calls.length; i++) {\r... */\n    tag_74:\n        /* \"source/Multicall2.sol\":841:846  calls */\n      dup4\n        /* \"source/Multicall2.sol\":841:853  calls.length */\n      mload\n        /* \"source/Multicall2.sol\":837:838  i */\n      dup2\n        /* \"source/Multicall2.sol\":837:853  i < calls.length */\n      lt\n        /* \"source/Multicall2.sol\":818:1062  for(uint256 i = 0; i < calls.length; i++) {\r... */\n      iszero\n      tag_75\n      jumpi\n        /* \"source/Multicall2.sol\":876:888  bool success */\n      0x00\n        /* \"source/Multicall2.sol\":890:906  bytes memory ret */\n      0x60\n        /* \"source/Multicall2.sol\":910:915  calls */\n      dup6\n        /* \"source/Multicall2.sol\":916:917  i */\n      dup4\n        /* \"source/Multicall2.sol\":910:918  calls[i] */\n      dup2\n      mload\n      dup2\n      lt\n      iszero\n      iszero\n      tag_77\n      jumpi\n      invalid\n    tag_77:\n      swap1\n      0x20\n      add\n      swap1\n      0x20\n      mul\n      add\n      mload\n        /* \"source/Multicall2.sol\":910:925  calls[i].target */\n      0x00\n      add\n      mload\n        /* \"source/Multicall2.sol\":910:930  calls[i].target.call */\n      0xffffffffffffffffffffffffffffffffffffffff\n      and\n        /* \"source/Multicall2.sol\":931:936  calls */\n      dup7\n        /* \"source/Multicall2.sol\":937:938  i */\n      dup5\n        /* \"source/Multicall2.sol\":931:939  calls[i] */\n      dup2\n      mload\n      dup2\n      lt\n      iszero\n      iszero\n      tag_78\n      jumpi\n      invalid\n    tag_78:\n      swap1\n      0x20\n      add\n      swap1\n      0x20\n      mul\n      add\n      mload\n        /* \"source/Multicall2.sol\":931:948  calls[i].callData */\n      0x20\n      add\n      mload\n        /* \"source/Multicall2.sol\":910:949  calls[i].target.call(calls[i].callData) */\n      mload(0x40)\n      tag_79\n      swap2\n      swap1\n      jump(tag_80)\n    tag_79:\n      0x00\n      mload(0x40)\n      dup1\n      dup4\n      sub\n      dup2\n      0x00\n      dup7\n      gas\n      call\n      swap2\n      pop\n      pop\n      returndatasize\n        /* \"--CODEGEN--\":14:15   */\n      dup1\n        /* \"--CODEGEN--\":21:22   */\n      0x00\n        /* \"--CODEGEN--\":16:47   */\n      dup2\n      eq\n      tag_82\n      jumpi\n        /* \"--CODEGEN--\":75:79   */\n      0x40\n        /* \"--CODEGEN--\":69:80   */\n      mload\n        /* \"--CODEGEN--\":64:80   */\n      swap2\n      pop\n        /* \"--CODEGEN--\":144:148   */\n      0x1f\n        /* \"--CODEGEN--\":140:149   */\n      not\n        /* \"--CODEGEN--\":133:137   */\n      0x3f\n        /* \"--CODEGEN--\":115:131   */\n      returndatasize\n        /* \"--CODEGEN--\":111:138   */\n      add\n        /* \"--CODEGEN--\":107:150   */\n      and\n        /* \"--CODEGEN--\":104:105   */\n      dup3\n        /* \"--CODEGEN--\":100:151   */\n      add\n        /* \"--CODEGEN--\":94:98   */\n      0x40\n        /* \"--CODEGEN--\":87:152   */\n      mstore\n        /* \"--CODEGEN--\":169:185   */\n      returndatasize\n        /* \"--CODEGEN--\":166:167   */\n      dup3\n        /* \"--CODEGEN--\":159:186   */\n      mstore\n        /* \"--CODEGEN--\":225:241   */\n      returndatasize\n        /* \"--CODEGEN--\":222:223   */\n      0x00\n        /* \"--CODEGEN--\":215:219   */\n      0x20\n        /* \"--CODEGEN--\":212:213   */\n      dup5\n        /* \"--CODEGEN--\":208:220   */\n      add\n        /* \"--CODEGEN--\":193:242   */\n      returndatacopy\n        /* \"--CODEGEN--\":7:249   */\n      jump(tag_81)\n        /* \"--CODEGEN--\":16:47   */\n    tag_82:\n        /* \"--CODEGEN--\":36:40   */\n      0x60\n        /* \"--CODEGEN--\":31:40   */\n      swap2\n      pop\n        /* \"--CODEGEN--\":7:249   */\n    tag_81:\n      pop\n        /* \"source/Multicall2.sol\":875:949  (bool success, bytes memory ret) = calls[i].target.call(calls[i].callData) */\n      swap2\n      pop\n      swap2\n      pop\n        /* \"source/Multicall2.sol\":972:979  success */\n      dup2\n        /* \"source/Multicall2.sol\":964:1016  require(success, \"Multicall aggregate: call failed\") */\n      iszero\n      iszero\n      tag_83\n      jumpi\n      mload(0x40)\n      0x08c379a000000000000000000000000000000000000000000000000000000000\n      dup2\n      mstore\n      0x04\n      add\n      tag_84\n      swap1\n      jump(tag_85)\n    tag_84:\n      mload(0x40)\n      dup1\n      swap2\n      sub\n      swap1\n      revert\n    tag_83:\n        /* \"source/Multicall2.sol\":1047:1050  ret */\n      dup1\n        /* \"source/Multicall2.sol\":1031:1041  returnData */\n      dup5\n        /* \"source/Multicall2.sol\":1042:1043  i */\n      dup5\n        /* \"source/Multicall2.sol\":1031:1044  returnData[i] */\n      dup2\n      mload\n      dup2\n      lt\n      iszero\n      iszero\n      tag_86\n      jumpi\n      invalid\n    tag_86:\n      0x20\n      swap1\n      dup2\n      mul\n      swap1\n      swap2\n      add\n      add\n        /* \"source/Multicall2.sol\":1031:1050  returnData[i] = ret */\n      mstore\n      pop\n      pop\n        /* \"source/Multicall2.sol\":855:858  i++ */\n      0x01\n      add\n        /* \"source/Multicall2.sol\":818:1062  for(uint256 i = 0; i < calls.length; i++) {\r... */\n      jump(tag_74)\n    tag_75:\n      pop\n        /* \"source/Multicall2.sol\":617:1069  function aggregate(Call[] memory calls) public returns (uint256 blockNumber, bytes[] memory returnData) {\r... */\n      swap2\n      pop\n      swap2\n      jump\t// out\n        /* \"source/Multicall2.sol\":2195:2321  function getLastBlockHash() public view returns (bytes32 blockHash) {\r... */\n    tag_29:\n        /* \"source/Multicall2.sol\":2296:2312  block.number - 1 */\n      0xffffffffffffffffffffffffffffffffffffffffffffffffffffffffffffffff\n        /* \"source/Multicall2.sol\":2296:2308  block.number */\n      number\n        /* \"source/Multicall2.sol\":2296:2312  block.number - 1 */\n      add\n        /* \"source/Multicall2.sol\":2286:2313  blockhash(block.number - 1) */\n      blockhash\n      swap1\n        /* \"source/Multicall2.sol\":2195:2321  function getLastBlockHash() public view returns (bytes32 blockHash) {\r... */\n      jump\t// out\n        /* \"source/Multicall2.sol\":2829:3135  function tryBlockAndAggregate(bool requireSuccess, Call[] memory calls) public returns (uint256 blockNumber, bytes32 blockHash, Result[] memory returnData) {\r... */\n    tag_35:\n        /* \"source/Multicall2.sol\":3010:3022  block.number */\n      number\n        /* \"source/Multicall2.sol\":3045:3068  blockhash(block.number) */\n      dup1\n      blockhash\n        /* \"source/Multicall2.sol\":2957:2983  Result[] memory returnData */\n      0x60\n        /* \"source/Multicall2.sol\":3092:3127  tryAggregate(requireSuccess, calls) */\n      tag_89\n        /* \"source/Multicall2.sol\":3105:3119  requireSuccess */\n      dup6\n        /* \"source/Multicall2.sol\":3121:3126  calls */\n      dup6\n        /* \"source/Multicall2.sol\":3092:3104  tryAggregate */\n      tag_58\n        /* \"source/Multicall2.sol\":3092:3127  tryAggregate(requireSuccess, calls) */\n      jump\t// in\n    tag_89:\n        /* \"source/Multicall2.sol\":3079:3127  returnData = tryAggregate(requireSuccess, calls) */\n      swap1\n      pop\n        /* \"source/Multicall2.sol\":2829:3135  function tryBlockAndAggregate(bool requireSuccess, Call[] memory calls) public returns (uint256 blockNumber, bytes32 blockHash, Result[] memory returnData) {\r... */\n      swap3\n      pop\n      swap3\n      pop\n      swap3\n      jump\t// out\n        /* \"source/Multicall2.sol\":1446:1559  function getBlockNumber() public view returns (uint256 blockNumber) {\r... */\n    tag_39:\n        /* \"source/Multicall2.sol\":1539:1551  block.number */\n      number\n      swap1\n        /* \"source/Multicall2.sol\":1446:1559  function getBlockNumber() public view returns (uint256 blockNumber) {\r... */\n      jump\t// out\n        /* \"source/Multicall2.sol\":2073:2189  function getEthBalance(address addr) public view returns (uint256 balance) {\r... */\n    tag_44:\n        /* \"source/Multicall2.sol\":2169:2181  addr.balance */\n      0xffffffffffffffffffffffffffffffffffffffff\n      and\n      balance\n      swap1\n        /* \"source/Multicall2.sol\":2073:2189  function getEthBalance(address addr) public view returns (uint256 balance) {\r... */\n      jump\t// out\n        /* \"source/Multicall2.sol\":1689:1815  function getCurrentBlockDifficulty() public view returns (uint256 difficulty) {\r... */\n    tag_47:\n        /* \"source/Multicall2.sol\":1791:1807  block.difficulty */\n      difficulty\n      swap1\n        /* \"source/Multicall2.sol\":1689:1815  function getCurrentBlockDifficulty() public view returns (uint256 difficulty) {\r... */\n      jump\t// out\n        /* \"source/Multicall2.sol\":1821:1939  function getCurrentBlockGasLimit() public view returns (uint256 gaslimit) {\r... */\n    tag_50:\n        /* \"source/Multicall2.sol\":1917:1931  block.gaslimit */\n      gaslimit\n      swap1\n        /* \"source/Multicall2.sol\":1821:1939  function getCurrentBlockGasLimit() public view returns (uint256 gaslimit) {\r... */\n      jump\t// out\n        /* \"source/Multicall2.sol\":1565:1683  function getCurrentBlockCoinbase() public view returns (address coinbase) {\r... */\n    tag_53:\n        /* \"source/Multicall2.sol\":1661:1675  block.coinbase */\n      coinbase\n      swap1\n        /* \"source/Multicall2.sol\":1565:1683  function getCurrentBlockCoinbase() public view returns (address coinbase) {\r... */\n      jump\t// out\n        /* \"source/Multicall2.sol\":2327:2823  function tryAggregate(bool requireSuccess, Call[] memory calls) public returns (Result[] memory returnData) {\r... */\n    tag_58:\n        /* \"source/Multicall2.sol\":2407:2433  Result[] memory returnData */\n      0x60\n        /* \"source/Multicall2.sol\":2472:2477  calls */\n      dup2\n        /* \"source/Multicall2.sol\":2472:2484  calls.length */\n      mload\n        /* \"source/Multicall2.sol\":2459:2485  new Result[](calls.length) */\n      mload(0x40)\n      swap1\n      dup1\n      dup3\n      mstore\n      dup1\n      0x20\n      mul\n      0x20\n      add\n      dup3\n      add\n      0x40\n      mstore\n      dup1\n      iszero\n      tag_96\n      jumpi\n      dup2\n      0x20\n      add\n    tag_97:\n      tag_98\n      tag_99\n      jump\t// in\n    tag_98:\n      dup2\n      mstore\n      0x20\n      add\n      swap1\n      0x01\n      swap1\n      sub\n      swap1\n      dup2\n      tag_97\n      jumpi\n      swap1\n      pop\n    tag_96:\n      pop\n        /* \"source/Multicall2.sol\":2446:2485  returnData = new Result[](calls.length) */\n      swap1\n      pop\n        /* \"source/Multicall2.sol\":2500:2509  uint256 i */\n      0x00\n        /* \"source/Multicall2.sol\":2496:2816  for(uint256 i = 0; i < calls.length; i++) {\r... */\n    tag_100:\n        /* \"source/Multicall2.sol\":2519:2524  calls */\n      dup3\n        /* \"source/Multicall2.sol\":2519:2531  calls.length */\n      mload\n        /* \"source/Multicall2.sol\":2515:2516  i */\n      dup2\n        /* \"source/Multicall2.sol\":2515:2531  i < calls.length */\n      lt\n        /* \"source/Multicall2.sol\":2496:2816  for(uint256 i = 0; i < calls.length; i++) {\r... */\n      iszero\n      tag_101\n      jumpi\n        /* \"source/Multicall2.sol\":2554:2566  bool success */\n      0x00\n        /* \"source/Multicall2.sol\":2568:2584  bytes memory ret */\n      0x60\n        /* \"source/Multicall2.sol\":2588:2593  calls */\n      dup5\n        /* \"source/Multicall2.sol\":2594:2595  i */\n      dup4\n        /* \"source/Multicall2.sol\":2588:2596  calls[i] */\n      dup2\n      mload\n      dup2\n      lt\n      iszero\n      iszero\n      tag_103\n      jumpi\n      invalid\n    tag_103:\n      swap1\n      0x20\n      add\n      swap1\n      0x20\n      mul\n      add\n      mload\n        /* \"source/Multicall2.sol\":2588:2603  calls[i].target */\n      0x00\n      add\n      mload\n        /* \"source/Multicall2.sol\":2588:2608  calls[i].target.call */\n      0xffffffffffffffffffffffffffffffffffffffff\n      and\n        /* \"source/Multicall2.sol\":2609:2614  calls */\n      dup6\n        /* \"source/Multicall2.sol\":2615:2616  i */\n      dup5\n        /* \"source/Multicall2.sol\":2609:2617  calls[i] */\n      dup2\n      mload\n      dup2\n      lt\n      iszero\n      iszero\n      tag_104\n      jumpi\n      invalid\n    tag_104:\n      swap1\n      0x20\n      add\n      swap1\n      0x20\n      mul\n      add\n      mload\n        /* \"source/Multicall2.sol\":2609:2626  calls[i].callData */\n      0x20\n      add\n      mload\n        /* \"source/Multicall2.sol\":2588:2627  calls[i].target.call(calls[i].callData) */\n      mload(0x40)\n      tag_105\n      swap2\n      swap1\n      jump(tag_80)\n    tag_105:\n      0x00\n      mload(0x40)\n      dup1\n      dup4\n      sub\n      dup2\n      0x00\n      dup7\n      gas\n      call\n      swap2\n      pop\n      pop\n      returndatasize\n        /* \"--CODEGEN--\":14:15   */\n      dup1\n        /* \"--CODEGEN--\":21:22   */\n      0x00\n        /* \"--CODEGEN--\":16:47   */\n      dup2\n      eq\n      tag_107\n      jumpi\n        /* \"--CODEGEN--\":75:79   */\n      0x40\n        /* \"--CODEGEN--\":69:80   */\n      mload\n        /* \"--CODEGEN--\":64:80   */\n      swap2\n      pop\n        /* \"--CODEGEN--\":144:148   */\n      0x1f\n        /* \"--CODEGEN--\":140:149   */\n      not\n        /* \"--CODEGEN--\":133:137   */\n      0x3f\n        /* \"--CODEGEN--\":115:131   */\n      returndatasize\n        /* \"--CODEGEN--\":111:138   */\n      add\n        /* \"--CODEGEN--\":107:150   */\n      and\n        /* \"--CODEGEN--\":104:105   */\n      dup3\n        /* \"--CODEGEN--\":100:151   */\n      add\n        /* \"--CODEGEN--\":94:98   */\n      0x40\n        /* \"--CODEGEN--\":87:152   */\n      mstore\n        /* \"--CODEGEN--\":169:185   */\n      returndatasize\n        /* \"--CODEGEN--\":166:167   */\n      dup3\n        /* \"--CODEGEN--\":159:186   */\n      mstore\n        /* \"--CODEGEN--\":225:241   */\n      returndatasize\n        /* \"--CODEGEN--\":222:223   */\n      0x00\n        /* \"--CODEGEN--\":215:219   */\n      0x20\n        /* \"--CODEGEN--\":212:213   */\n      dup5\n        /* \"--CODEGEN--\":208:220   */\n      add\n        /* \"--CODEGEN--\":193:242   */\n      returndatacopy\n        /* \"--CODEGEN--\":7:249   */\n      jump(tag_106)\n        /* \"--CODEGEN--\":16:47   */\n    tag_107:\n        /* \"--CODEGEN--\":36:40   */\n      0x60\n        /* \"--CODEGEN--\":31:40   */\n      swap2\n      pop\n        /* \"--CODEGEN--\":7:249   */\n    tag_106:\n      pop\n        /* \"source/Multicall2.sol\":2553:2627  (bool success, bytes memory ret) = calls[i].target.call(calls[i].callData) */\n      swap2\n      pop\n      swap2\n      pop\n        /* \"source/Multicall2.sol\":2648:2662  requireSuccess */\n      dup6\n        /* \"source/Multicall2.sol\":2644:2752  if (requireSuccess) {\r... */\n      iszero\n      tag_109\n      jumpi\n        /* \"source/Multicall2.sol\":2691:2698  success */\n      dup2\n        /* \"source/Multicall2.sol\":2683:2736  require(success, \"Multicall2 aggregate: call failed\") */\n      iszero\n      iszero\n      tag_109\n      jumpi\n      mload(0x40)\n      0x08c379a000000000000000000000000000000000000000000000000000000000\n      dup2\n      mstore\n      0x04\n      add\n      tag_84\n      swap1\n      jump(tag_111)\n    tag_109:\n        /* \"source/Multicall2.sol\":2784:2804  Result(success, ret) */\n      0x40\n      dup1\n      mload\n      swap1\n      dup2\n      add\n      0x40\n      mstore\n      dup1\n        /* \"source/Multicall2.sol\":2791:2798  success */\n      dup4\n        /* \"source/Multicall2.sol\":2784:2804  Result(success, ret) */\n      iszero\n      iszero\n      dup2\n      mstore\n      0x20\n      add\n        /* \"source/Multicall2.sol\":2800:2803  ret */\n      dup3\n        /* \"source/Multicall2.sol\":2784:2804  Result(success, ret) */\n      dup2\n      mstore\n      pop\n        /* \"source/Multicall2.sol\":2768:2778  returnData */\n      dup5\n        /* \"source/Multicall2.sol\":2779:2780  i */\n      dup5\n        /* \"source/Multicall2.sol\":2768:2781  returnData[i] */\n      dup2\n      mload\n      dup2\n      lt\n      iszero\n      iszero\n      tag_112\n      jumpi\n      invalid\n    tag_112:\n      0x20\n      swap1\n      dup2\n      mul\n      swap1\n      swap2\n      add\n      add\n        /* \"source/Multicall2.sol\":2768:2804  returnData[i] = Result(success, ret) */\n      mstore\n      pop\n      pop\n        /* \"source/Multicall2.sol\":2533:2536  i++ */\n      0x01\n      add\n        /* \"source/Multicall2.sol\":2496:2816  for(uint256 i = 0; i < calls.length; i++) {\r... */\n      jump(tag_100)\n    tag_101:\n      pop\n        /* \"source/Multicall2.sol\":2327:2823  function tryAggregate(bool requireSuccess, Call[] memory calls) public returns (Result[] memory returnData) {\r... */\n      swap3\n      swap2\n      pop\n      pop\n      jump\t// out\n        /* \"source/Multicall2.sol\":1075:1298  function blockAndAggregate(Call[] memory calls) public returns (uint256 blockNumber, bytes32 blockHash, Result[] memory returnData) {\r... */\n    tag_63:\n        /* \"source/Multicall2.sol\":1139:1158  uint256 blockNumber */\n      0x00\n        /* \"source/Multicall2.sol\":1160:1177  bytes32 blockHash */\n      dup1\n        /* \"source/Multicall2.sol\":1179:1205  Result[] memory returnData */\n      0x60\n        /* \"source/Multicall2.sol\":1257:1290  tryBlockAndAggregate(true, calls) */\n      tag_114\n        /* \"source/Multicall2.sol\":1278:1282  true */\n      0x01\n        /* \"source/Multicall2.sol\":1284:1289  calls */\n      dup6\n        /* \"source/Multicall2.sol\":1257:1277  tryBlockAndAggregate */\n      tag_35\n        /* \"source/Multicall2.sol\":1257:1290  tryBlockAndAggregate(true, calls) */\n      jump\t// in\n    tag_114:\n        /* \"source/Multicall2.sol\":1218:1290  (blockNumber, blockHash, returnData) = tryBlockAndAggregate(true, calls) */\n      swap2\n      swap7\n      swap1\n      swap6\n      pop\n      swap1\n      swap4\n      pop\n        /* \"source/Multicall2.sol\":1075:1298  function blockAndAggregate(Call[] memory calls) public returns (uint256 blockNumber, bytes32 blockHash, Result[] memory returnData) {\r... */\n      swap2\n      pop\n      pop\n      jump\t// out\n        /* \"source/Multicall2.sol\":1304:1440  function getBlockHash(uint256 blockNumber) public view returns (bytes32 blockHash) {\r... */\n    tag_68:\n        /* \"source/Multicall2.sol\":1410:1432  blockhash(blockNumber) */\n      blockhash\n      swap1\n        /* \"source/Multicall2.sol\":1304:1440  function getBlockHash(uint256 blockNumber) public view returns (bytes32 blockHash) {\r... */\n      jump\t// out\n        /* \"source/Multicall2.sol\":434:3138  contract Multicall2 {\r... */\n    tag_99:\n      0x40\n      dup1\n      mload\n      dup1\n      dup3\n      add\n      swap1\n      swap2\n      mstore\n      0x00\n      dup2\n      mstore\n      0x60\n      0x20\n      dup3\n      add\n      mstore\n      swap1\n      jump\t// out\n        /* \"--CODEGEN--\":5:123   */\n    tag_117:\n      0x00\n        /* \"--CODEGEN--\":72:118   */\n      tag_118\n        /* \"--CODEGEN--\":110:116   */\n      dup3\n        /* \"--CODEGEN--\":97:117   */\n      calldataload\n        /* \"--CODEGEN--\":72:118   */\n      jump(tag_181)\n    tag_118:\n        /* \"--CODEGEN--\":63:118   */\n      swap4\n        /* \"--CODEGEN--\":57:123   */\n      swap3\n      pop\n      pop\n      pop\n      jump\n        /* \"--CODEGEN--\":163:886   */\n    tag_121:\n      0x00\n        /* \"--CODEGEN--\":288:292   */\n      0x1f\n        /* \"--CODEGEN--\":276:293   */\n      dup3\n      add\n        /* \"--CODEGEN--\":272:299   */\n      dup4\n      sgt\n        /* \"--CODEGEN--\":262:264   */\n      tag_122\n      jumpi\n        /* \"--CODEGEN--\":313:314   */\n      0x00\n        /* \"--CODEGEN--\":310:311   */\n      dup1\n        /* \"--CODEGEN--\":303:315   */\n      revert\n        /* \"--CODEGEN--\":262:264   */\n    tag_122:\n        /* \"--CODEGEN--\":350:356   */\n      dup2\n        /* \"--CODEGEN--\":337:357   */\n      calldataload\n        /* \"--CODEGEN--\":372:467   */\n      tag_123\n        /* \"--CODEGEN--\":387:466   */\n      tag_124\n        /* \"--CODEGEN--\":459:465   */\n      dup3\n        /* \"--CODEGEN--\":387:466   */\n      jump(tag_125)\n    tag_124:\n        /* \"--CODEGEN--\":372:467   */\n      jump(tag_126)\n    tag_123:\n        /* \"--CODEGEN--\":495:516   */\n      dup2\n      dup2\n      mstore\n        /* \"--CODEGEN--\":539:543   */\n      0x20\n        /* \"--CODEGEN--\":527:544   */\n      swap4\n      dup5\n      add\n      swap4\n        /* \"--CODEGEN--\":363:467   */\n      swap1\n      swap3\n      pop\n        /* \"--CODEGEN--\":552:566   */\n      dup3\n      add\n        /* \"--CODEGEN--\":527:544   */\n      dup4\n        /* \"--CODEGEN--\":647:648   */\n      0x00\n        /* \"--CODEGEN--\":632:880   */\n    tag_127:\n        /* \"--CODEGEN--\":657:663   */\n      dup4\n        /* \"--CODEGEN--\":654:655   */\n      dup2\n        /* \"--CODEGEN--\":651:664   */\n      lt\n        /* \"--CODEGEN--\":632:880   */\n      iszero\n      tag_128\n      jumpi\n        /* \"--CODEGEN--\":740:743   */\n      dup2\n        /* \"--CODEGEN--\":727:744   */\n      calldataload\n        /* \"--CODEGEN--\":719:725   */\n      dup7\n        /* \"--CODEGEN--\":715:745   */\n      add\n        /* \"--CODEGEN--\":764:816   */\n      tag_130\n        /* \"--CODEGEN--\":812:815   */\n      dup9\n        /* \"--CODEGEN--\":800:810   */\n      dup3\n        /* \"--CODEGEN--\":764:816   */\n      jump(tag_131)\n    tag_130:\n        /* \"--CODEGEN--\":752:817   */\n      dup5\n      mstore\n      pop\n        /* \"--CODEGEN--\":840:844   */\n      0x20\n        /* \"--CODEGEN--\":831:845   */\n      swap3\n      dup4\n      add\n      swap3\n        /* \"--CODEGEN--\":859:873   */\n      swap2\n      swap1\n      swap2\n      add\n      swap1\n        /* \"--CODEGEN--\":679:680   */\n      0x01\n        /* \"--CODEGEN--\":672:681   */\n      add\n        /* \"--CODEGEN--\":632:880   */\n      jump(tag_127)\n    tag_128:\n        /* \"--CODEGEN--\":636:650   */\n      pop\n        /* \"--CODEGEN--\":255:886   */\n      pop\n      pop\n      pop\n      swap3\n      swap2\n      pop\n      pop\n      jump\n        /* \"--CODEGEN--\":894:1006   */\n    tag_133:\n      0x00\n        /* \"--CODEGEN--\":958:1001   */\n      tag_118\n        /* \"--CODEGEN--\":993:999   */\n      dup3\n        /* \"--CODEGEN--\":980:1000   */\n      calldataload\n        /* \"--CODEGEN--\":958:1001   */\n      jump(tag_213)\n        /* \"--CODEGEN--\":1014:1446   */\n    tag_137:\n      0x00\n        /* \"--CODEGEN--\":1104:1108   */\n      0x1f\n        /* \"--CODEGEN--\":1092:1109   */\n      dup3\n      add\n        /* \"--CODEGEN--\":1088:1115   */\n      dup4\n      sgt\n        /* \"--CODEGEN--\":1078:1080   */\n      tag_138\n      jumpi\n        /* \"--CODEGEN--\":1129:1130   */\n      0x00\n        /* \"--CODEGEN--\":1126:1127   */\n      dup1\n        /* \"--CODEGEN--\":1119:1131   */\n      revert\n        /* \"--CODEGEN--\":1078:1080   */\n    tag_138:\n        /* \"--CODEGEN--\":1166:1172   */\n      dup2\n        /* \"--CODEGEN--\":1153:1173   */\n      calldataload\n        /* \"--CODEGEN--\":1188:1248   */\n      tag_139\n        /* \"--CODEGEN--\":1203:1247   */\n      tag_124\n        /* \"--CODEGEN--\":1240:1246   */\n      dup3\n        /* \"--CODEGEN--\":1203:1247   */\n      jump(tag_141)\n        /* \"--CODEGEN--\":1188:1248   */\n    tag_139:\n        /* \"--CODEGEN--\":1179:1248   */\n      swap2\n      pop\n        /* \"--CODEGEN--\":1268:1274   */\n      dup1\n        /* \"--CODEGEN--\":1261:1266   */\n      dup3\n        /* \"--CODEGEN--\":1254:1275   */\n      mstore\n        /* \"--CODEGEN--\":1304:1308   */\n      0x20\n        /* \"--CODEGEN--\":1296:1302   */\n      dup4\n        /* \"--CODEGEN--\":1292:1309   */\n      add\n        /* \"--CODEGEN--\":1337:1341   */\n      0x20\n        /* \"--CODEGEN--\":1330:1335   */\n      dup4\n        /* \"--CODEGEN--\":1326:1342   */\n      add\n        /* \"--CODEGEN--\":1372:1375   */\n      dup6\n        /* \"--CODEGEN--\":1363:1369   */\n      dup4\n        /* \"--CODEGEN--\":1358:1361   */\n      dup4\n        /* \"--CODEGEN--\":1354:1370   */\n      add\n        /* \"--CODEGEN--\":1351:1376   */\n      gt\n        /* \"--CODEGEN--\":1348:1350   */\n      iszero\n      tag_142\n      jumpi\n        /* \"--CODEGEN--\":1389:1390   */\n      0x00\n        /* \"--CODEGEN--\":1386:1387   */\n      dup1\n        /* \"--CODEGEN--\":1379:1391   */\n      revert\n        /* \"--CODEGEN--\":1348:1350   */\n    tag_142:\n        /* \"--CODEGEN--\":1399:1440   */\n      tag_143\n        /* \"--CODEGEN--\":1433:1439   */\n      dup4\n        /* \"--CODEGEN--\":1428:1431   */\n      dup3\n        /* \"--CODEGEN--\":1423:1426   */\n      dup5\n        /* \"--CODEGEN--\":1399:1440   */\n      jump(tag_144)\n    tag_143:\n        /* \"--CODEGEN--\":1071:1446   */\n      pop\n      pop\n      pop\n      swap3\n      swap2\n      pop\n      pop\n      jump\n        /* \"--CODEGEN--\":1483:2036   */\n    tag_131:\n      0x00\n        /* \"--CODEGEN--\":1587:1591   */\n      0x40\n        /* \"--CODEGEN--\":1575:1584   */\n      dup3\n        /* \"--CODEGEN--\":1570:1573   */\n      dup5\n        /* \"--CODEGEN--\":1566:1585   */\n      sub\n        /* \"--CODEGEN--\":1562:1592   */\n      slt\n        /* \"--CODEGEN--\":1559:1561   */\n      iszero\n      tag_146\n      jumpi\n        /* \"--CODEGEN--\":1605:1606   */\n      0x00\n        /* \"--CODEGEN--\":1602:1603   */\n      dup1\n        /* \"--CODEGEN--\":1595:1607   */\n      revert\n        /* \"--CODEGEN--\":1559:1561   */\n    tag_146:\n        /* \"--CODEGEN--\":1623:1643   */\n      tag_147\n        /* \"--CODEGEN--\":1638:1642   */\n      0x40\n        /* \"--CODEGEN--\":1623:1643   */\n      jump(tag_126)\n    tag_147:\n        /* \"--CODEGEN--\":1614:1643   */\n      swap1\n      pop\n        /* \"--CODEGEN--\":1695:1696   */\n      0x00\n        /* \"--CODEGEN--\":1726:1775   */\n      tag_148\n        /* \"--CODEGEN--\":1771:1774   */\n      dup5\n        /* \"--CODEGEN--\":1751:1760   */\n      dup5\n        /* \"--CODEGEN--\":1726:1775   */\n      jump(tag_117)\n    tag_148:\n        /* \"--CODEGEN--\":1702:1776   */\n      dup3\n      mstore\n      pop\n        /* \"--CODEGEN--\":1869:1871   */\n      0x20\n        /* \"--CODEGEN--\":1854:1872   */\n      dup3\n      add\n        /* \"--CODEGEN--\":1841:1873   */\n      calldataload\n        /* \"--CODEGEN--\":1893:1911   */\n      0xffffffffffffffff\n        /* \"--CODEGEN--\":1882:1912   */\n      dup2\n      gt\n        /* \"--CODEGEN--\":1879:1881   */\n      iszero\n      tag_149\n      jumpi\n        /* \"--CODEGEN--\":1925:1926   */\n      0x00\n        /* \"--CODEGEN--\":1922:1923   */\n      dup1\n        /* \"--CODEGEN--\":1915:1927   */\n      revert\n        /* \"--CODEGEN--\":1879:1881   */\n    tag_149:\n        /* \"--CODEGEN--\":1960:2014   */\n      tag_150\n        /* \"--CODEGEN--\":2010:2013   */\n      dup5\n        /* \"--CODEGEN--\":2001:2007   */\n      dup3\n        /* \"--CODEGEN--\":1990:1999   */\n      dup6\n        /* \"--CODEGEN--\":1986:2008   */\n      add\n        /* \"--CODEGEN--\":1960:2014   */\n      jump(tag_137)\n    tag_150:\n        /* \"--CODEGEN--\":1953:1957   */\n      0x20\n        /* \"--CODEGEN--\":1946:1951   */\n      dup4\n        /* \"--CODEGEN--\":1942:1958   */\n      add\n        /* \"--CODEGEN--\":1935:2015   */\n      mstore\n        /* \"--CODEGEN--\":1797:2026   */\n      pop\n        /* \"--CODEGEN--\":1553:2036   */\n      swap3\n      swap2\n      pop\n      pop\n      jump\n        /* \"--CODEGEN--\":2043:2161   */\n    tag_152:\n      0x00\n        /* \"--CODEGEN--\":2110:2156   */\n      tag_118\n        /* \"--CODEGEN--\":2148:2154   */\n      dup3\n        /* \"--CODEGEN--\":2135:2155   */\n      calldataload\n        /* \"--CODEGEN--\":2110:2156   */\n      jump(tag_217)\n        /* \"--CODEGEN--\":2168:2409   */\n    tag_43:\n      0x00\n        /* \"--CODEGEN--\":2272:2274   */\n      0x20\n        /* \"--CODEGEN--\":2260:2269   */\n      dup3\n        /* \"--CODEGEN--\":2251:2258   */\n      dup5\n        /* \"--CODEGEN--\":2247:2270   */\n      sub\n        /* \"--CODEGEN--\":2243:2275   */\n      slt\n        /* \"--CODEGEN--\":2240:2242   */\n      iszero\n      tag_156\n      jumpi\n        /* \"--CODEGEN--\":2288:2289   */\n      0x00\n        /* \"--CODEGEN--\":2285:2286   */\n      dup1\n        /* \"--CODEGEN--\":2278:2290   */\n      revert\n        /* \"--CODEGEN--\":2240:2242   */\n    tag_156:\n        /* \"--CODEGEN--\":2323:2324   */\n      0x00\n        /* \"--CODEGEN--\":2340:2393   */\n      tag_157\n        /* \"--CODEGEN--\":2385:2392   */\n      dup5\n        /* \"--CODEGEN--\":2365:2374   */\n      dup5\n        /* \"--CODEGEN--\":2340:2393   */\n      jump(tag_117)\n    tag_157:\n        /* \"--CODEGEN--\":2330:2393   */\n      swap5\n        /* \"--CODEGEN--\":2234:2409   */\n      swap4\n      pop\n      pop\n      pop\n      pop\n      jump\n        /* \"--CODEGEN--\":2416:2823   */\n    tag_24:\n      0x00\n        /* \"--CODEGEN--\":2560:2562   */\n      0x20\n        /* \"--CODEGEN--\":2548:2557   */\n      dup3\n        /* \"--CODEGEN--\":2539:2546   */\n      dup5\n        /* \"--CODEGEN--\":2535:2558   */\n      sub\n        /* \"--CODEGEN--\":2531:2563   */\n      slt\n        /* \"--CODEGEN--\":2528:2530   */\n      iszero\n      tag_159\n      jumpi\n        /* \"--CODEGEN--\":2576:2577   */\n      0x00\n        /* \"--CODEGEN--\":2573:2574   */\n      dup1\n        /* \"--CODEGEN--\":2566:2578   */\n      revert\n        /* \"--CODEGEN--\":2528:2530   */\n    tag_159:\n        /* \"--CODEGEN--\":2611:2642   */\n      dup2\n      calldataload\n        /* \"--CODEGEN--\":2662:2680   */\n      0xffffffffffffffff\n        /* \"--CODEGEN--\":2651:2681   */\n      dup2\n      gt\n        /* \"--CODEGEN--\":2648:2650   */\n      iszero\n      tag_160\n      jumpi\n        /* \"--CODEGEN--\":2694:2695   */\n      0x00\n        /* \"--CODEGEN--\":2691:2692   */\n      dup1\n        /* \"--CODEGEN--\":2684:2696   */\n      revert\n        /* \"--CODEGEN--\":2648:2650   */\n    tag_160:\n        /* \"--CODEGEN--\":2714:2807   */\n      tag_157\n        /* \"--CODEGEN--\":2799:2806   */\n      dup5\n        /* \"--CODEGEN--\":2790:2796   */\n      dup3\n        /* \"--CODEGEN--\":2779:2788   */\n      dup6\n        /* \"--CODEGEN--\":2775:2797   */\n      add\n        /* \"--CODEGEN--\":2714:2807   */\n      jump(tag_121)\n        /* \"--CODEGEN--\":2830:3356   */\n    tag_34:\n      0x00\n      dup1\n        /* \"--CODEGEN--\":2988:2990   */\n      0x40\n        /* \"--CODEGEN--\":2976:2985   */\n      dup4\n        /* \"--CODEGEN--\":2967:2974   */\n      dup6\n        /* \"--CODEGEN--\":2963:2986   */\n      sub\n        /* \"--CODEGEN--\":2959:2991   */\n      slt\n        /* \"--CODEGEN--\":2956:2958   */\n      iszero\n      tag_163\n      jumpi\n        /* \"--CODEGEN--\":3004:3005   */\n      0x00\n        /* \"--CODEGEN--\":3001:3002   */\n      dup1\n        /* \"--CODEGEN--\":2994:3006   */\n      revert\n        /* \"--CODEGEN--\":2956:2958   */\n    tag_163:\n        /* \"--CODEGEN--\":3039:3040   */\n      0x00\n        /* \"--CODEGEN--\":3056:3106   */\n      tag_164\n        /* \"--CODEGEN--\":3098:3105   */\n      dup6\n        /* \"--CODEGEN--\":3078:3087   */\n      dup6\n        /* \"--CODEGEN--\":3056:3106   */\n      jump(tag_133)\n    tag_164:\n        /* \"--CODEGEN--\":3046:3106   */\n      swap3\n      pop\n        /* \"--CODEGEN--\":3018:3112   */\n      pop\n        /* \"--CODEGEN--\":3171:3173   */\n      0x20\n        /* \"--CODEGEN--\":3160:3169   */\n      dup4\n        /* \"--CODEGEN--\":3156:3174   */\n      add\n        /* \"--CODEGEN--\":3143:3175   */\n      calldataload\n        /* \"--CODEGEN--\":3195:3213   */\n      0xffffffffffffffff\n        /* \"--CODEGEN--\":3187:3193   */\n      dup2\n        /* \"--CODEGEN--\":3184:3214   */\n      gt\n        /* \"--CODEGEN--\":3181:3183   */\n      iszero\n      tag_165\n      jumpi\n        /* \"--CODEGEN--\":3227:3228   */\n      0x00\n        /* \"--CODEGEN--\":3224:3225   */\n      dup1\n        /* \"--CODEGEN--\":3217:3229   */\n      revert\n        /* \"--CODEGEN--\":3181:3183   */\n    tag_165:\n        /* \"--CODEGEN--\":3247:3340   */\n      tag_166\n        /* \"--CODEGEN--\":3332:3339   */\n      dup6\n        /* \"--CODEGEN--\":3323:3329   */\n      dup3\n        /* \"--CODEGEN--\":3312:3321   */\n      dup7\n        /* \"--CODEGEN--\":3308:3330   */\n      add\n        /* \"--CODEGEN--\":3247:3340   */\n      jump(tag_121)\n    tag_166:\n        /* \"--CODEGEN--\":3237:3340   */\n      swap2\n      pop\n        /* \"--CODEGEN--\":3122:3346   */\n      pop\n        /* \"--CODEGEN--\":2950:3356   */\n      swap3\n      pop\n      swap3\n      swap1\n      pop\n      jump\n        /* \"--CODEGEN--\":3363:3604   */\n    tag_67:\n      0x00\n        /* \"--CODEGEN--\":3467:3469   */\n      0x20\n        /* \"--CODEGEN--\":3455:3464   */\n      dup3\n        /* \"--CODEGEN--\":3446:3453   */\n      dup5\n        /* \"--CODEGEN--\":3442:3465   */\n      sub\n        /* \"--CODEGEN--\":3438:3470   */\n      slt\n        /* \"--CODEGEN--\":3435:3437   */\n      iszero\n      tag_168\n      jumpi\n        /* \"--CODEGEN--\":3483:3484   */\n      0x00\n        /* \"--CODEGEN--\":3480:3481   */\n      dup1\n        /* \"--CODEGEN--\":3473:3485   */\n      revert\n        /* \"--CODEGEN--\":3435:3437   */\n    tag_168:\n        /* \"--CODEGEN--\":3518:3519   */\n      0x00\n        /* \"--CODEGEN--\":3535:3588   */\n      tag_157\n        /* \"--CODEGEN--\":3580:3587   */\n      dup5\n        /* \"--CODEGEN--\":3560:3569   */\n      dup5\n        /* \"--CODEGEN--\":3535:3588   */\n      jump(tag_152)\n        /* \"--CODEGEN--\":3612:3787   */\n    tag_171:\n      0x00\n        /* \"--CODEGEN--\":3722:3781   */\n      tag_118\n        /* \"--CODEGEN--\":3777:3780   */\n      dup4\n        /* \"--CODEGEN--\":3770:3775   */\n      dup4\n        /* \"--CODEGEN--\":3722:3781   */\n      jump(tag_173)\n        /* \"--CODEGEN--\":3796:4023   */\n    tag_175:\n      0x00\n        /* \"--CODEGEN--\":3932:4017   */\n      tag_118\n        /* \"--CODEGEN--\":4013:4016   */\n      dup4\n        /* \"--CODEGEN--\":4006:4011   */\n      dup4\n        /* \"--CODEGEN--\":3932:4017   */\n      jump(tag_177)\n        /* \"--CODEGEN--\":4031:4151   */\n    tag_179:\n        /* \"--CODEGEN--\":4114:4145   */\n      tag_180\n        /* \"--CODEGEN--\":4139:4144   */\n      dup2\n        /* \"--CODEGEN--\":4114:4145   */\n      jump(tag_181)\n    tag_180:\n        /* \"--CODEGEN--\":4109:4112   */\n      dup3\n        /* \"--CODEGEN--\":4102:4146   */\n      mstore\n        /* \"--CODEGEN--\":4096:4151   */\n      pop\n      pop\n      jump\n        /* \"--CODEGEN--\":4185:5004   */\n    tag_183:\n      0x00\n        /* \"--CODEGEN--\":4340:4399   */\n      tag_184\n        /* \"--CODEGEN--\":4393:4398   */\n      dup3\n        /* \"--CODEGEN--\":4340:4399   */\n      jump(tag_185)\n    tag_184:\n        /* \"--CODEGEN--\":4412:4503   */\n      tag_186\n        /* \"--CODEGEN--\":4496:4502   */\n      dup2\n        /* \"--CODEGEN--\":4491:4494   */\n      dup6\n        /* \"--CODEGEN--\":4412:4503   */\n      jump(tag_187)\n    tag_186:\n        /* \"--CODEGEN--\":4405:4503   */\n      swap4\n      pop\n        /* \"--CODEGEN--\":4526:4529   */\n      dup4\n        /* \"--CODEGEN--\":4568:4572   */\n      0x20\n        /* \"--CODEGEN--\":4560:4566   */\n      dup3\n        /* \"--CODEGEN--\":4556:4573   */\n      mul\n        /* \"--CODEGEN--\":4551:4554   */\n      dup6\n        /* \"--CODEGEN--\":4547:4574   */\n      add\n        /* \"--CODEGEN--\":4594:4655   */\n      tag_188\n        /* \"--CODEGEN--\":4649:4654   */\n      dup6\n        /* \"--CODEGEN--\":4594:4655   */\n      jump(tag_189)\n    tag_188:\n        /* \"--CODEGEN--\":4676:4677   */\n      0x00\n        /* \"--CODEGEN--\":4661:4965   */\n    tag_190:\n        /* \"--CODEGEN--\":4686:4692   */\n      dup5\n        /* \"--CODEGEN--\":4683:4684   */\n      dup2\n        /* \"--CODEGEN--\":4680:4693   */\n      lt\n        /* \"--CODEGEN--\":4661:4965   */\n      iszero\n      tag_191\n      jumpi\n        /* \"--CODEGEN--\":4748:4757   */\n      dup4\n        /* \"--CODEGEN--\":4742:4746   */\n      dup4\n        /* \"--CODEGEN--\":4738:4758   */\n      sub\n        /* \"--CODEGEN--\":4733:4736   */\n      dup9\n        /* \"--CODEGEN--\":4726:4759   */\n      mstore\n        /* \"--CODEGEN--\":4774:4848   */\n      tag_193\n        /* \"--CODEGEN--\":4843:4847   */\n      dup4\n        /* \"--CODEGEN--\":4834:4840   */\n      dup4\n        /* \"--CODEGEN--\":4828:4841   */\n      mload\n        /* \"--CODEGEN--\":4774:4848   */\n      jump(tag_171)\n    tag_193:\n        /* \"--CODEGEN--\":4766:4848   */\n      swap3\n      pop\n        /* \"--CODEGEN--\":4865:4930   */\n      tag_194\n        /* \"--CODEGEN--\":4923:4929   */\n      dup3\n        /* \"--CODEGEN--\":4865:4930   */\n      jump(tag_189)\n    tag_194:\n        /* \"--CODEGEN--\":4953:4957   */\n      0x20\n        /* \"--CODEGEN--\":4944:4958   */\n      swap9\n      swap1\n      swap9\n      add\n      swap8\n        /* \"--CODEGEN--\":4855:4930   */\n      swap2\n      pop\n        /* \"--CODEGEN--\":4708:4709   */\n      0x01\n        /* \"--CODEGEN--\":4701:4710   */\n      add\n        /* \"--CODEGEN--\":4661:4965   */\n      jump(tag_190)\n    tag_191:\n      pop\n        /* \"--CODEGEN--\":4978:4982   */\n      swap1\n      swap7\n        /* \"--CODEGEN--\":4319:5004   */\n      swap6\n      pop\n      pop\n      pop\n      pop\n      pop\n      pop\n      jump\n        /* \"--CODEGEN--\":5077:6000   */\n    tag_197:\n      0x00\n        /* \"--CODEGEN--\":5258:5330   */\n      tag_198\n        /* \"--CODEGEN--\":5324:5329   */\n      dup3\n        /* \"--CODEGEN--\":5258:5330   */\n      jump(tag_185)\n    tag_198:\n        /* \"--CODEGEN--\":5343:5447   */\n      tag_200\n        /* \"--CODEGEN--\":5440:5446   */\n      dup2\n        /* \"--CODEGEN--\":5435:5438   */\n      dup6\n        /* \"--CODEGEN--\":5343:5447   */\n      jump(tag_187)\n    tag_200:\n        /* \"--CODEGEN--\":5336:5447   */\n      swap4\n      pop\n        /* \"--CODEGEN--\":5470:5473   */\n      dup4\n        /* \"--CODEGEN--\":5512:5516   */\n      0x20\n        /* \"--CODEGEN--\":5504:5510   */\n      dup3\n        /* \"--CODEGEN--\":5500:5517   */\n      mul\n        /* \"--CODEGEN--\":5495:5498   */\n      dup6\n        /* \"--CODEGEN--\":5491:5518   */\n      add\n        /* \"--CODEGEN--\":5538:5612   */\n      tag_202\n        /* \"--CODEGEN--\":5606:5611   */\n      dup6\n        /* \"--CODEGEN--\":5538:5612   */\n      jump(tag_189)\n    tag_202:\n        /* \"--CODEGEN--\":5633:5634   */\n      0x00\n        /* \"--CODEGEN--\":5618:5961   */\n    tag_204:\n        /* \"--CODEGEN--\":5643:5649   */\n      dup5\n        /* \"--CODEGEN--\":5640:5641   */\n      dup2\n        /* \"--CODEGEN--\":5637:5650   */\n      lt\n        /* \"--CODEGEN--\":5618:5961   */\n      iszero\n      tag_191\n      jumpi\n        /* \"--CODEGEN--\":5705:5714   */\n      dup4\n        /* \"--CODEGEN--\":5699:5703   */\n      dup4\n        /* \"--CODEGEN--\":5695:5715   */\n      sub\n        /* \"--CODEGEN--\":5690:5693   */\n      dup9\n        /* \"--CODEGEN--\":5683:5716   */\n      mstore\n        /* \"--CODEGEN--\":5731:5831   */\n      tag_207\n        /* \"--CODEGEN--\":5826:5830   */\n      dup4\n        /* \"--CODEGEN--\":5817:5823   */\n      dup4\n        /* \"--CODEGEN--\":5811:5824   */\n      mload\n        /* \"--CODEGEN--\":5731:5831   */\n      jump(tag_175)\n    tag_207:\n        /* \"--CODEGEN--\":5723:5831   */\n      swap3\n      pop\n        /* \"--CODEGEN--\":5848:5926   */\n      tag_208\n        /* \"--CODEGEN--\":5919:5925   */\n      dup3\n        /* \"--CODEGEN--\":5848:5926   */\n      jump(tag_189)\n    tag_208:\n        /* \"--CODEGEN--\":5949:5953   */\n      0x20\n        /* \"--CODEGEN--\":5940:5954   */\n      swap9\n      swap1\n      swap9\n      add\n      swap8\n        /* \"--CODEGEN--\":5838:5926   */\n      swap2\n      pop\n        /* \"--CODEGEN--\":5665:5666   */\n      0x01\n        /* \"--CODEGEN--\":5658:5667   */\n      add\n        /* \"--CODEGEN--\":5618:5961   */\n      jump(tag_204)\n        /* \"--CODEGEN--\":6008:6109   */\n    tag_211:\n        /* \"--CODEGEN--\":6075:6103   */\n      tag_180\n        /* \"--CODEGEN--\":6097:6102   */\n      dup2\n        /* \"--CODEGEN--\":6075:6103   */\n      jump(tag_213)\n        /* \"--CODEGEN--\":6116:6236   */\n    tag_215:\n        /* \"--CODEGEN--\":6199:6230   */\n      tag_180\n        /* \"--CODEGEN--\":6224:6229   */\n      dup2\n        /* \"--CODEGEN--\":6199:6230   */\n      jump(tag_217)\n        /* \"--CODEGEN--\":6243:6558   */\n    tag_173:\n      0x00\n        /* \"--CODEGEN--\":6339:6373   */\n      tag_219\n        /* \"--CODEGEN--\":6367:6372   */\n      dup3\n        /* \"--CODEGEN--\":6339:6373   */\n      jump(tag_185)\n    tag_219:\n        /* \"--CODEGEN--\":6385:6445   */\n      tag_221\n        /* \"--CODEGEN--\":6438:6444   */\n      dup2\n        /* \"--CODEGEN--\":6433:6436   */\n      dup6\n        /* \"--CODEGEN--\":6385:6445   */\n      jump(tag_187)\n    tag_221:\n        /* \"--CODEGEN--\":6378:6445   */\n      swap4\n      pop\n        /* \"--CODEGEN--\":6450:6502   */\n      tag_223\n        /* \"--CODEGEN--\":6495:6501   */\n      dup2\n        /* \"--CODEGEN--\":6490:6493   */\n      dup6\n        /* \"--CODEGEN--\":6483:6487   */\n      0x20\n        /* \"--CODEGEN--\":6476:6481   */\n      dup7\n        /* \"--CODEGEN--\":6472:6488   */\n      add\n        /* \"--CODEGEN--\":6450:6502   */\n      jump(tag_224)\n    tag_223:\n        /* \"--CODEGEN--\":6523:6552   */\n      tag_225\n        /* \"--CODEGEN--\":6545:6551   */\n      dup2\n        /* \"--CODEGEN--\":6523:6552   */\n      jump(tag_226)\n    tag_225:\n        /* \"--CODEGEN--\":6514:6553   */\n      swap1\n      swap4\n      add\n      swap4\n        /* \"--CODEGEN--\":6319:6558   */\n      swap3\n      pop\n      pop\n      pop\n      jump\n        /* \"--CODEGEN--\":6565:6913   */\n    tag_228:\n      0x00\n        /* \"--CODEGEN--\":6689:6723   */\n      tag_229\n        /* \"--CODEGEN--\":6717:6722   */\n      dup3\n        /* \"--CODEGEN--\":6689:6723   */\n      jump(tag_185)\n    tag_229:\n        /* \"--CODEGEN--\":6735:6823   */\n      tag_230\n        /* \"--CODEGEN--\":6816:6822   */\n      dup2\n        /* \"--CODEGEN--\":6811:6814   */\n      dup6\n        /* \"--CODEGEN--\":6735:6823   */\n      jump(tag_231)\n    tag_230:\n        /* \"--CODEGEN--\":6728:6823   */\n      swap4\n      pop\n        /* \"--CODEGEN--\":6828:6880   */\n      tag_232\n        /* \"--CODEGEN--\":6873:6879   */\n      dup2\n        /* \"--CODEGEN--\":6868:6871   */\n      dup6\n        /* \"--CODEGEN--\":6861:6865   */\n      0x20\n        /* \"--CODEGEN--\":6854:6859   */\n      dup7\n        /* \"--CODEGEN--\":6850:6866   */\n      add\n        /* \"--CODEGEN--\":6828:6880   */\n      jump(tag_224)\n    tag_232:\n        /* \"--CODEGEN--\":6892:6908   */\n      swap3\n      swap1\n      swap3\n      add\n      swap3\n        /* \"--CODEGEN--\":6669:6913   */\n      swap2\n      pop\n      pop\n      jump\n        /* \"--CODEGEN--\":6921:7386   */\n    tag_234:\n      0x00\n        /* \"--CODEGEN--\":7081:7148   */\n      tag_235\n        /* \"--CODEGEN--\":7145:7147   */\n      0x21\n        /* \"--CODEGEN--\":7140:7143   */\n      dup4\n        /* \"--CODEGEN--\":7081:7148   */\n      jump(tag_187)\n    tag_235:\n        /* \"--CODEGEN--\":7181:7247   */\n      0x4d756c746963616c6c32206167677265676174653a2063616c6c206661696c65\n        /* \"--CODEGEN--\":7161:7248   */\n      dup2\n      mstore\n        /* \"--CODEGEN--\":7282:7348   */\n      0x6400000000000000000000000000000000000000000000000000000000000000\n        /* \"--CODEGEN--\":7277:7279   */\n      0x20\n        /* \"--CODEGEN--\":7268:7280   */\n      dup3\n      add\n        /* \"--CODEGEN--\":7261:7349   */\n      mstore\n        /* \"--CODEGEN--\":7377:7379   */\n      0x40\n        /* \"--CODEGEN--\":7368:7380   */\n      add\n      swap3\n        /* \"--CODEGEN--\":7067:7386   */\n      swap2\n      pop\n      pop\n      jump\n        /* \"--CODEGEN--\":7395:7759   */\n    tag_238:\n      0x00\n        /* \"--CODEGEN--\":7555:7622   */\n      tag_239\n        /* \"--CODEGEN--\":7619:7621   */\n      0x20\n        /* \"--CODEGEN--\":7614:7617   */\n      dup4\n        /* \"--CODEGEN--\":7555:7622   */\n      jump(tag_187)\n    tag_239:\n        /* \"--CODEGEN--\":7655:7721   */\n      0x4d756c746963616c6c206167677265676174653a2063616c6c206661696c6564\n        /* \"--CODEGEN--\":7635:7722   */\n      dup2\n      mstore\n        /* \"--CODEGEN--\":7750:7752   */\n      0x20\n        /* \"--CODEGEN--\":7741:7753   */\n      add\n      swap3\n        /* \"--CODEGEN--\":7541:7759   */\n      swap2\n      pop\n      pop\n      jump\n        /* \"--CODEGEN--\":7826:8368   */\n    tag_177:\n        /* \"--CODEGEN--\":8025:8047   */\n      dup1\n      mload\n        /* \"--CODEGEN--\":7826:8368   */\n      0x00\n      swap1\n        /* \"--CODEGEN--\":7957:7961   */\n      0x40\n        /* \"--CODEGEN--\":7948:7962   */\n      dup5\n      add\n      swap1\n        /* \"--CODEGEN--\":8053:8108   */\n      tag_241\n        /* \"--CODEGEN--\":7952:7955   */\n      dup6\n        /* \"--CODEGEN--\":8025:8047   */\n      dup3\n        /* \"--CODEGEN--\":8053:8108   */\n      jump(tag_211)\n    tag_241:\n        /* \"--CODEGEN--\":7977:8114   */\n      pop\n        /* \"--CODEGEN--\":8192:8196   */\n      0x20\n        /* \"--CODEGEN--\":8185:8190   */\n      dup4\n        /* \"--CODEGEN--\":8181:8197   */\n      add\n        /* \"--CODEGEN--\":8175:8198   */\n      mload\n        /* \"--CODEGEN--\":8244:8247   */\n      dup5\n        /* \"--CODEGEN--\":8238:8242   */\n      dup3\n        /* \"--CODEGEN--\":8234:8248   */\n      sub\n        /* \"--CODEGEN--\":8227:8231   */\n      0x20\n        /* \"--CODEGEN--\":8222:8225   */\n      dup7\n        /* \"--CODEGEN--\":8218:8232   */\n      add\n        /* \"--CODEGEN--\":8211:8249   */\n      mstore\n        /* \"--CODEGEN--\":8264:8330   */\n      tag_242\n        /* \"--CODEGEN--\":8325:8329   */\n      dup3\n        /* \"--CODEGEN--\":8312:8323   */\n      dup3\n        /* \"--CODEGEN--\":8264:8330   */\n      jump(tag_173)\n    tag_242:\n        /* \"--CODEGEN--\":8256:8330   */\n      swap6\n        /* \"--CODEGEN--\":7930:8368   */\n      swap5\n      pop\n      pop\n      pop\n      pop\n      pop\n      jump\n        /* \"--CODEGEN--\":8502:8756   */\n    tag_80:\n      0x00\n        /* \"--CODEGEN--\":8642:8731   */\n      tag_118\n        /* \"--CODEGEN--\":8727:8730   */\n      dup3\n        /* \"--CODEGEN--\":8718:8724   */\n      dup5\n        /* \"--CODEGEN--\":8642:8731   */\n      jump(tag_228)\n        /* \"--CODEGEN--\":8763:8976   */\n    tag_55:\n        /* \"--CODEGEN--\":8881:8883   */\n      0x20\n        /* \"--CODEGEN--\":8866:8884   */\n      dup2\n      add\n        /* \"--CODEGEN--\":8895:8966   */\n      tag_250\n        /* \"--CODEGEN--\":8870:8879   */\n      dup3\n        /* \"--CODEGEN--\":8939:8945   */\n      dup5\n        /* \"--CODEGEN--\":8895:8966   */\n      jump(tag_179)\n    tag_250:\n        /* \"--CODEGEN--\":8852:8976   */\n      swap3\n      swap2\n      pop\n      pop\n      jump\n        /* \"--CODEGEN--\":8983:9416   */\n    tag_60:\n        /* \"--CODEGEN--\":9187:9189   */\n      0x20\n        /* \"--CODEGEN--\":9201:9248   */\n      dup1\n      dup3\n      mstore\n        /* \"--CODEGEN--\":9172:9190   */\n      dup2\n      add\n        /* \"--CODEGEN--\":9262:9406   */\n      tag_118\n        /* \"--CODEGEN--\":9172:9190   */\n      dup2\n        /* \"--CODEGEN--\":9392:9398   */\n      dup5\n        /* \"--CODEGEN--\":9262:9406   */\n      jump(tag_197)\n        /* \"--CODEGEN--\":9423:9636   */\n    tag_31:\n        /* \"--CODEGEN--\":9541:9543   */\n      0x20\n        /* \"--CODEGEN--\":9526:9544   */\n      dup2\n      add\n        /* \"--CODEGEN--\":9555:9626   */\n      tag_250\n        /* \"--CODEGEN--\":9530:9539   */\n      dup3\n        /* \"--CODEGEN--\":9599:9605   */\n      dup5\n        /* \"--CODEGEN--\":9555:9626   */\n      jump(tag_215)\n        /* \"--CODEGEN--\":9643:10050   */\n    tag_111:\n        /* \"--CODEGEN--\":9834:9836   */\n      0x20\n        /* \"--CODEGEN--\":9848:9895   */\n      dup1\n      dup3\n      mstore\n        /* \"--CODEGEN--\":9819:9837   */\n      dup2\n      add\n        /* \"--CODEGEN--\":9909:10040   */\n      tag_250\n        /* \"--CODEGEN--\":9819:9837   */\n      dup2\n        /* \"--CODEGEN--\":9909:10040   */\n      jump(tag_234)\n        /* \"--CODEGEN--\":10057:10464   */\n    tag_85:\n        /* \"--CODEGEN--\":10248:10250   */\n      0x20\n        /* \"--CODEGEN--\":10262:10309   */\n      dup1\n      dup3\n      mstore\n        /* \"--CODEGEN--\":10233:10251   */\n      dup2\n      add\n        /* \"--CODEGEN--\":10323:10454   */\n      tag_250\n        /* \"--CODEGEN--\":10233:10251   */\n      dup2\n        /* \"--CODEGEN--\":10323:10454   */\n      jump(tag_238)\n        /* \"--CODEGEN--\":10691:11183   */\n    tag_27:\n        /* \"--CODEGEN--\":10897:10899   */\n      0x40\n        /* \"--CODEGEN--\":10882:10900   */\n      dup2\n      add\n        /* \"--CODEGEN--\":10911:10982   */\n      tag_262\n        /* \"--CODEGEN--\":10886:10895   */\n      dup3\n        /* \"--CODEGEN--\":10955:10961   */\n      dup6\n        /* \"--CODEGEN--\":10911:10982   */\n      jump(tag_215)\n    tag_262:\n        /* \"--CODEGEN--\":11030:11039   */\n      dup2\n        /* \"--CODEGEN--\":11024:11028   */\n      dup2\n        /* \"--CODEGEN--\":11020:11040   */\n      sub\n        /* \"--CODEGEN--\":11015:11017   */\n      0x20\n        /* \"--CODEGEN--\":11004:11013   */\n      dup4\n        /* \"--CODEGEN--\":11000:11018   */\n      add\n        /* \"--CODEGEN--\":10993:11041   */\n      mstore\n        /* \"--CODEGEN--\":11055:11173   */\n      tag_157\n        /* \"--CODEGEN--\":11168:11172   */\n      dup2\n        /* \"--CODEGEN--\":11159:11165   */\n      dup5\n        /* \"--CODEGEN--\":11055:11173   */\n      jump(tag_183)\n        /* \"--CODEGEN--\":11190:11845   */\n    tag_37:\n        /* \"--CODEGEN--\":11450:11452   */\n      0x60\n        /* \"--CODEGEN--\":11435:11453   */\n      dup2\n      add\n        /* \"--CODEGEN--\":11464:11535   */\n      tag_265\n        /* \"--CODEGEN--\":11439:11448   */\n      dup3\n        /* \"--CODEGEN--\":11508:11514   */\n      dup7\n        /* \"--CODEGEN--\":11464:11535   */\n      jump(tag_215)\n    tag_265:\n        /* \"--CODEGEN--\":11546:11618   */\n      tag_266\n        /* \"--CODEGEN--\":11614:11616   */\n      0x20\n        /* \"--CODEGEN--\":11603:11612   */\n      dup4\n        /* \"--CODEGEN--\":11599:11617   */\n      add\n        /* \"--CODEGEN--\":11590:11596   */\n      dup6\n        /* \"--CODEGEN--\":11546:11618   */\n      jump(tag_215)\n    tag_266:\n        /* \"--CODEGEN--\":11666:11675   */\n      dup2\n        /* \"--CODEGEN--\":11660:11664   */\n      dup2\n        /* \"--CODEGEN--\":11656:11676   */\n      sub\n        /* \"--CODEGEN--\":11651:11653   */\n      0x40\n        /* \"--CODEGEN--\":11640:11649   */\n      dup4\n        /* \"--CODEGEN--\":11636:11654   */\n      add\n        /* \"--CODEGEN--\":11629:11677   */\n      mstore\n        /* \"--CODEGEN--\":11691:11835   */\n      tag_242\n        /* \"--CODEGEN--\":11830:11834   */\n      dup2\n        /* \"--CODEGEN--\":11821:11827   */\n      dup5\n        /* \"--CODEGEN--\":11691:11835   */\n      jump(tag_197)\n        /* \"--CODEGEN--\":11852:12108   */\n    tag_126:\n        /* \"--CODEGEN--\":11914:11916   */\n      0x40\n        /* \"--CODEGEN--\":11908:11917   */\n      mload\n        /* \"--CODEGEN--\":11940:11957   */\n      dup2\n      dup2\n      add\n        /* \"--CODEGEN--\":12015:12033   */\n      0xffffffffffffffff\n        /* \"--CODEGEN--\":12000:12034   */\n      dup2\n      gt\n        /* \"--CODEGEN--\":12036:12058   */\n      dup3\n      dup3\n      lt\n        /* \"--CODEGEN--\":11997:12059   */\n      or\n        /* \"--CODEGEN--\":11994:11996   */\n      iszero\n      tag_269\n      jumpi\n        /* \"--CODEGEN--\":12072:12073   */\n      0x00\n        /* \"--CODEGEN--\":12069:12070   */\n      dup1\n        /* \"--CODEGEN--\":12062:12074   */\n      revert\n        /* \"--CODEGEN--\":11994:11996   */\n    tag_269:\n        /* \"--CODEGEN--\":12088:12090   */\n      0x40\n        /* \"--CODEGEN--\":12081:12103   */\n      mstore\n        /* \"--CODEGEN--\":11892:12108   */\n      swap2\n      swap1\n      pop\n      jump\n        /* \"--CODEGEN--\":12115:12388   */\n    tag_125:\n      0x00\n        /* \"--CODEGEN--\":12289:12307   */\n      0xffffffffffffffff\n        /* \"--CODEGEN--\":12281:12287   */\n      dup3\n        /* \"--CODEGEN--\":12278:12308   */\n      gt\n        /* \"--CODEGEN--\":12275:12277   */\n      iszero\n      tag_271\n      jumpi\n        /* \"--CODEGEN--\":12321:12322   */\n      0x00\n        /* \"--CODEGEN--\":12318:12319   */\n      dup1\n        /* \"--CODEGEN--\":12311:12323   */\n      revert\n        /* \"--CODEGEN--\":12275:12277   */\n    tag_271:\n      pop\n        /* \"--CODEGEN--\":12350:12354   */\n      0x20\n        /* \"--CODEGEN--\":12338:12355   */\n      swap1\n      dup2\n      mul\n        /* \"--CODEGEN--\":12368:12383   */\n      add\n      swap1\n        /* \"--CODEGEN--\":12212:12388   */\n      jump\n        /* \"--CODEGEN--\":12395:12649   */\n    tag_141:\n      0x00\n        /* \"--CODEGEN--\":12534:12552   */\n      0xffffffffffffffff\n        /* \"--CODEGEN--\":12526:12532   */\n      dup3\n        /* \"--CODEGEN--\":12523:12553   */\n      gt\n        /* \"--CODEGEN--\":12520:12522   */\n      iszero\n      tag_273\n      jumpi\n        /* \"--CODEGEN--\":12566:12567   */\n      0x00\n        /* \"--CODEGEN--\":12563:12564   */\n      dup1\n        /* \"--CODEGEN--\":12556:12568   */\n      revert\n        /* \"--CODEGEN--\":12520:12522   */\n    tag_273:\n      pop\n        /* \"--CODEGEN--\":12639:12643   */\n      0x20\n        /* \"--CODEGEN--\":12610:12614   */\n      0x1f\n        /* \"--CODEGEN--\":12587:12604   */\n      swap2\n      swap1\n      swap2\n      add\n        /* \"--CODEGEN--\":12606:12615   */\n      0xffffffffffffffffffffffffffffffffffffffffffffffffffffffffffffffe0\n        /* \"--CODEGEN--\":12583:12616   */\n      and\n        /* \"--CODEGEN--\":12629:12644   */\n      add\n      swap1\n        /* \"--CODEGEN--\":12457:12649   */\n      jump\n        /* \"--CODEGEN--\":12658:12784   */\n    tag_189:\n        /* \"--CODEGEN--\":12772:12776   */\n      0x20\n        /* \"--CODEGEN--\":12760:12777   */\n      add\n      swap1\n        /* \"--CODEGEN--\":12741:12784   */\n      jump\n        /* \"--CODEGEN--\":12943:13055   */\n    tag_185:\n        /* \"--CODEGEN--\":13038:13050   */\n      mload\n      swap1\n        /* \"--CODEGEN--\":13022:13055   */\n      jump\n        /* \"--CODEGEN--\":13574:13757   */\n    tag_187:\n        /* \"--CODEGEN--\":13697:13716   */\n      swap1\n      dup2\n      mstore\n        /* \"--CODEGEN--\":13746:13750   */\n      0x20\n        /* \"--CODEGEN--\":13737:13751   */\n      add\n      swap1\n        /* \"--CODEGEN--\":13690:13757   */\n      jump\n        /* \"--CODEGEN--\":14132:14276   */\n    tag_231:\n        /* \"--CODEGEN--\":14267:14270   */\n      swap2\n        /* \"--CODEGEN--\":14245:14276   */\n      swap1\n      pop\n      jump\n        /* \"--CODEGEN--\":14456:14561   */\n    tag_181:\n      0x00\n        /* \"--CODEGEN--\":14525:14556   */\n      tag_250\n        /* \"--CODEGEN--\":14550:14555   */\n      dup3\n        /* \"--CODEGEN--\":14525:14556   */\n      jump(tag_288)\n        /* \"--CODEGEN--\":14568:14660   */\n    tag_213:\n        /* \"--CODEGEN--\":14641:14654   */\n      iszero\n        /* \"--CODEGEN--\":14634:14655   */\n      iszero\n      swap1\n        /* \"--CODEGEN--\":14617:14660   */\n      jump\n        /* \"--CODEGEN--\":14667:14746   */\n    tag_217:\n        /* \"--CODEGEN--\":14736:14741   */\n      swap1\n        /* \"--CODEGEN--\":14719:14746   */\n      jump\n        /* \"--CODEGEN--\":14753:14881   */\n    tag_288:\n        /* \"--CODEGEN--\":14833:14875   */\n      0xffffffffffffffffffffffffffffffffffffffff\n        /* \"--CODEGEN--\":14822:14876   */\n      and\n      swap1\n        /* \"--CODEGEN--\":14805:14881   */\n      jump\n        /* \"--CODEGEN--\":15407:15552   */\n    tag_144:\n        /* \"--CODEGEN--\":15488:15494   */\n      dup3\n        /* \"--CODEGEN--\":15483:15486   */\n      dup2\n        /* \"--CODEGEN--\":15478:15481   */\n      dup4\n        /* \"--CODEGEN--\":15465:15495   */\n      calldatacopy\n      pop\n        /* \"--CODEGEN--\":15544:15545   */\n      0x00\n        /* \"--CODEGEN--\":15526:15542   */\n      swap2\n      add\n        /* \"--CODEGEN--\":15519:15546   */\n      mstore\n        /* \"--CODEGEN--\":15458:15552   */\n      jump\n        /* \"--CODEGEN--\":15561:15829   */\n    tag_224:\n        /* \"--CODEGEN--\":15626:15627   */\n      0x00\n        /* \"--CODEGEN--\":15633:15734   */\n    tag_301:\n        /* \"--CODEGEN--\":15647:15653   */\n      dup4\n        /* \"--CODEGEN--\":15644:15645   */\n      dup2\n        /* \"--CODEGEN--\":15641:15654   */\n      lt\n        /* \"--CODEGEN--\":15633:15734   */\n      iszero\n      tag_302\n      jumpi\n        /* \"--CODEGEN--\":15714:15725   */\n      dup2\n      dup2\n      add\n        /* \"--CODEGEN--\":15708:15726   */\n      mload\n        /* \"--CODEGEN--\":15695:15706   */\n      dup4\n      dup3\n      add\n        /* \"--CODEGEN--\":15688:15727   */\n      mstore\n        /* \"--CODEGEN--\":15669:15671   */\n      0x20\n        /* \"--CODEGEN--\":15662:15672   */\n      add\n        /* \"--CODEGEN--\":15633:15734   */\n      jump(tag_301)\n    tag_302:\n        /* \"--CODEGEN--\":15749:15755   */\n      dup4\n        /* \"--CODEGEN--\":15746:15747   */\n      dup2\n        /* \"--CODEGEN--\":15743:15756   */\n      gt\n        /* \"--CODEGEN--\":15740:15742   */\n      iszero\n      tag_304\n      jumpi\n        /* \"--CODEGEN--\":15814:15815   */\n      0x00\n        /* \"--CODEGEN--\":15805:15811   */\n      dup5\n        /* \"--CODEGEN--\":15800:15803   */\n      dup5\n        /* \"--CODEGEN--\":15796:15812   */\n      add\n        /* \"--CODEGEN--\":15789:15816   */\n      mstore\n        /* \"--CODEGEN--\":15740:15742   */\n    tag_304:\n        /* \"--CODEGEN--\":15610:15829   */\n      pop\n      pop\n      pop\n      pop\n      jump\n        /* \"--CODEGEN--\":15837:15934   */\n    tag_226:\n        /* \"--CODEGEN--\":15925:15927   */\n      0x1f\n        /* \"--CODEGEN--\":15905:15919   */\n      add\n        /* \"--CODEGEN--\":15921:15928   */\n      0xffffffffffffffffffffffffffffffffffffffffffffffffffffffffffffffe0\n        /* \"--CODEGEN--\":15901:15929   */\n      and\n      swap1\n        /* \"--CODEGEN--\":15885:15934   */\n      jump\n\n    auxdata: 0xa265627a7a72305820fbd3431f064b1b833f8bc58078eeafe2f3b4f2ede8573365989edb13021b36df6c6578706572696d656e74616cf50037\n}\n",
				"bytecode": {
					"linkReferences": {},
					"object": "608060405234801561001057600080fd5b50610bb9806100206000396000f3fe608060405234801561001057600080fd5b50600436106100f1576000357c01000000000000000000000000000000000000000000000000000000009004806372425d9d1161009e578063bce38bd711610078578063bce38bd71461019f578063c3077fa9146101bf578063ee82ac5e146101d2576100f1565b806372425d9d1461017a57806386d516e814610182578063a8b0574e1461018a576100f1565b8063399542e9116100cf578063399542e91461013d57806342cbb15c1461015f5780634d2301cc14610167576100f1565b80630f28c97d146100f6578063252dba421461011457806327e86d6e14610135575b600080fd5b6100fe6101e5565b60405161010b91906109ce565b60405180910390f35b6101276101223660046106c3565b6101e9565b60405161010b9291906109fc565b6100fe610345565b61015061014b3660046106f8565b61036c565b60405161010b93929190610a1c565b6100fe610384565b6100fe61017536600461069d565b610388565b6100fe6103a2565b6100fe6103a6565b6101926103aa565b60405161010b91906109a9565b6101b26101ad3660046106f8565b6103ae565b60405161010b91906109bd565b6101506101cd3660046106c3565b61051f565b6100fe6101e036600461074a565b61053c565b4290565b60006060439150825160405190808252806020026020018201604052801561022557816020015b60608152602001906001900390816102105790505b50905060005b835181101561033f5760006060858381518110151561024657fe5b906020019060200201516000015173ffffffffffffffffffffffffffffffffffffffff16868481518110151561027857fe5b9060200190602002015160200151604051610293919061099d565b6000604051808303816000865af19150503d80600081146102d0576040519150601f19603f3d011682016040523d82523d6000602084013e6102d5565b606091505b509150915081151561031c576040517f08c379a0000000000000000000000000000000000000000000000000000000008152600401610313906109ec565b60405180910390fd5b80848481518110151561032b57fe5b60209081029091010152505060010161022b565b50915091565b7fffffffffffffffffffffffffffffffffffffffffffffffffffffffffffffffff43014090565b438040606061037b85856103ae565b90509250925092565b4390565b73ffffffffffffffffffffffffffffffffffffffff163190565b4490565b4590565b4190565b606081516040519080825280602002602001820160405280156103eb57816020015b6103d8610540565b8152602001906001900390816103d05790505b50905060005b82518110156105185760006060848381518110151561040c57fe5b906020019060200201516000015173ffffffffffffffffffffffffffffffffffffffff16858481518110151561043e57fe5b9060200190602002015160200151604051610459919061099d565b6000604051808303816000865af19150503d8060008114610496576040519150601f19603f3d011682016040523d82523d6000602084013e61049b565b606091505b509150915085156104df578115156104df576040517f08c379a0000000000000000000000000000000000000000000000000000000008152600401610313906109dc565b6040805190810160405280831515815260200182815250848481518110151561050457fe5b6020908102909101015250506001016103f1565b5092915050565b600080606061052f60018561036c565b9196909550909350915050565b4090565b60408051808201909152600081526060602082015290565b60006105648235610aef565b9392505050565b6000601f8201831361057c57600080fd5b813561058f61058a82610a70565b610a49565b81815260209384019390925082018360005b838110156105cd57813586016105b78882610632565b84525060209283019291909101906001016105a1565b5050505092915050565b60006105648235610afa565b6000601f820183136105f457600080fd5b813561060261058a82610a91565b9150808252602083016020830185838301111561061e57600080fd5b610629838284610b1b565b50505092915050565b60006040828403121561064457600080fd5b61064e6040610a49565b9050600061065c8484610558565b825250602082013567ffffffffffffffff81111561067957600080fd5b610685848285016105e3565b60208301525092915050565b60006105648235610aff565b6000602082840312156106af57600080fd5b60006106bb8484610558565b949350505050565b6000602082840312156106d557600080fd5b813567ffffffffffffffff8111156106ec57600080fd5b6106bb8482850161056b565b6000806040838503121561070b57600080fd5b600061071785856105d7565b925050602083013567ffffffffffffffff81111561073457600080fd5b6107408582860161056b565b9150509250929050565b60006020828403121561075c57600080fd5b60006106bb8484610691565b60006105648383610869565b60006105648383610968565b61078981610aef565b82525050565b600061079a82610add565b6107a48185610ae1565b9350836020820285016107b685610ad7565b60005b848110156107ed5783830388526107d1838351610768565b92506107dc82610ad7565b6020989098019791506001016107b9565b50909695505050505050565b600061080482610add565b61080e8185610ae1565b93508360208202850161082085610ad7565b60005b848110156107ed57838303885261083b838351610774565b925061084682610ad7565b602098909801979150600101610823565b61078981610afa565b61078981610aff565b600061087482610add565b61087e8185610ae1565b935061088e818560208601610b27565b61089781610b57565b9093019392505050565b60006108ac82610add565b6108b68185610aea565b93506108c6818560208601610b27565b9290920192915050565b60006108dd602183610ae1565b7f4d756c746963616c6c32206167677265676174653a2063616c6c206661696c6581527f6400000000000000000000000000000000000000000000000000000000000000602082015260400192915050565b600061093c602083610ae1565b7f4d756c746963616c6c206167677265676174653a2063616c6c206661696c6564815260200192915050565b8051600090604084019061097c8582610857565b50602083015184820360208601526109948282610869565b95945050505050565b600061056482846108a1565b602081016109b78284610780565b92915050565b6020808252810161056481846107f9565b602081016109b78284610860565b602080825281016109b7816108d0565b602080825281016109b78161092f565b60408101610a0a8285610860565b81810360208301526106bb818461078f565b60608101610a2a8286610860565b610a376020830185610860565b818103604083015261099481846107f9565b60405181810167ffffffffffffffff81118282101715610a6857600080fd5b604052919050565b600067ffffffffffffffff821115610a8757600080fd5b5060209081020190565b600067ffffffffffffffff821115610aa857600080fd5b506020601f919091017fffffffffffffffffffffffffffffffffffffffffffffffffffffffffffffffe0160190565b60200190565b5190565b90815260200190565b919050565b60006109b782610b02565b151590565b90565b73ffffffffffffffffffffffffffffffffffffffff1690565b82818337506000910152565b60005b83811015610b42578181015183820152602001610b2a565b83811115610b51576000848401525b50505050565b601f017fffffffffffffffffffffffffffffffffffffffffffffffffffffffffffffffe0169056fea265627a7a72305820fbd3431f064b1b833f8bc58078eeafe2f3b4f2ede8573365989edb13021b36df6c6578706572696d656e74616cf50037",
					"opcodes": "PUSH1 0x80 PUSH1 0x40 MSTORE CALLVALUE DUP1 ISZERO PUSH2 0x10 JUMPI PUSH1 0x0 DUP1 REVERT JUMPDEST POP PUSH2 0xBB9 DUP1 PUSH2 0x20 PUSH1 0x0 CODECOPY PUSH1 0x0 RETURN INVALID PUSH1 0x80 PUSH1 0x40 MSTORE CALLVALUE DUP1 ISZERO PUSH2 0x10 JUMPI PUSH1 0x0 DUP1 REVERT JUMPDEST POP PUSH1 0x4 CALLDATASIZE LT PUSH2 0xF1 JUMPI PUSH1 0x0 CALLDATALOAD PUSH29 0x100000000000000000000000000000000000000000000000000000000 SWAP1 DIV DUP1 PUSH4 0x72425D9D GT PUSH2 0x9E JUMPI DUP1 PUSH4 0xBCE38BD7 GT PUSH2 0x78 JUMPI DUP1 PUSH4 0xBCE38BD7 EQ PUSH2 0x19F JUMPI DUP1 PUSH4 0xC3077FA9 EQ PUSH2 0x1BF JUMPI DUP1 PUSH4 0xEE82AC5E EQ PUSH2 0x1D2 JUMPI PUSH2 0xF1 JUMP JUMPDEST DUP1 PUSH4 0x72425D9D EQ PUSH2 0x17A JUMPI DUP1 PUSH4 0x86D516E8 EQ PUSH2 0x182 JUMPI DUP1 PUSH4 0xA8B0574E EQ PUSH2 0x18A JUMPI PUSH2 0xF1 JUMP JUMPDEST DUP1 PUSH4 0x399542E9 GT PUSH2 0xCF JUMPI DUP1 PUSH4 0x399542E9 EQ PUSH2 0x13D JUMPI DUP1 PUSH4 0x42CBB15C EQ PUSH2 0x15F JUMPI DUP1 PUSH4 0x4D2301CC EQ PUSH2 0x167 JUMPI PUSH2 0xF1 JUMP JUMPDEST DUP1 PUSH4 0xF28C97D EQ PUSH2 0xF6 JUMPI DUP1 PUSH4 0x252DBA42 EQ PUSH2 0x114 JUMPI DUP1 PUSH4 0x27E86D6E EQ PUSH2 0x135 JUMPI JUMPDEST PUSH1 0x0 DUP1 REVERT JUMPDEST PUSH2 0xFE PUSH2 0x1E5 JUMP JUMPDEST PUSH1 0x40 MLOAD PUSH2 0x10B SWAP2 SWAP1 PUSH2 0x9CE JUMP JUMPDEST PUSH1 0x40 MLOAD DUP1 SWAP2 SUB SWAP1 RETURN JUMPDEST PUSH2 0x127 PUSH2 0x122 CALLDATASIZE PUSH1 0x4 PUSH2 0x6C3 JUMP JUMPDEST PUSH2 0x1E9 JUMP JUMPDEST PUSH1 0x40 MLOAD PUSH2 0x10B SWAP3 SWAP2 SWAP1 PUSH2 0x9FC JUMP JUMPDEST PUSH2 0xFE PUSH2 0x345 JUMP JUMPDEST PUSH2 0x150 PUSH2 0x14B CALLDATASIZE PUSH1 0x4 PUSH2 0x6F8 JUMP JUMPDEST PUSH2 0x36C JUMP JUMPDEST PUSH1 0x40 MLOAD PUSH2 0x10B SWAP4 SWAP3 SWAP2 SWAP1 PUSH2 0xA1C JUMP JUMPDEST PUSH2 0xFE PUSH2 0x384 JUMP JUMPDEST PUSH2 0xFE PUSH2 0x175 CALLDATASIZE PUSH1 0x4 PUSH2 0x69D JUMP JUMPDEST PUSH2 0x388 JUMP JUMPDEST PUSH2 0xFE PUSH2 0x3A2 JUMP JUMPDEST PUSH2 0xFE PUSH2 0x3A6 JUMP JUMPDEST PUSH2 0x192 PUSH2 0x3AA JUMP JUMPDEST PUSH1 0x40 MLOAD PUSH2 0x10B SWAP2 SWAP1 PUSH2 0x9A9 JUMP JUMPDEST PUSH2 0x1B2 PUSH2 0x1AD CALLDATASIZE PUSH1 0x4 PUSH2 0x6F8 JUMP JUMPDEST PUSH2 0x3AE JUMP JUMPDEST PUSH1 0x40 MLOAD PUSH2 0x10B SWAP2 SWAP1 PUSH2 0x9BD JUMP JUMPDEST PUSH2 0x150 PUSH2 0x1CD CALLDATASIZE PUSH1 0x4 PUSH2 0x6C3 JUMP JUMPDEST PUSH2 0x51F JUMP JUMPDEST PUSH2 0xFE PUSH2 0x1E0 CALLDATASIZE PUSH1 0x4 PUSH2 0x74A JUMP JUMPDEST PUSH2 0x53C JUMP JUMPDEST TIMESTAMP SWAP1 JUMP JUMPDEST PUSH1 0x0 PUSH1 0x60 NUMBER SWAP2 POP DUP3 MLOAD PUSH1 0x40 MLOAD SWAP1 DUP1 DUP3 MSTORE DUP1 PUSH1 0x20 MUL PUSH1 0x20 ADD DUP3 ADD PUSH1 0x40 MSTORE DUP1 ISZERO PUSH2 0x225 JUMPI DUP2 PUSH1 0x20 ADD JUMPDEST PUSH1 0x60 DUP2 MSTORE PUSH1 0x20 ADD SWAP1 PUSH1 0x1 SWAP1 SUB SWAP1 DUP2 PUSH2 0x210 JUMPI SWAP1 POP JUMPDEST POP SWAP1 POP PUSH1 0x0 JUMPDEST DUP4 MLOAD DUP2 LT ISZERO PUSH2 0x33F JUMPI PUSH1 0x0 PUSH1 0x60 DUP6 DUP4 DUP2 MLOAD DUP2 LT ISZERO ISZERO PUSH2 0x246 JUMPI INVALID JUMPDEST SWAP1 PUSH1 0x20 ADD SWAP1 PUSH1 0x20 MUL ADD MLOAD PUSH1 0x0 ADD MLOAD PUSH20 0xFFFFFFFFFFFFFFFFFFFFFFFFFFFFFFFFFFFFFFFF AND DUP7 DUP5 DUP2 MLOAD DUP2 LT ISZERO ISZERO PUSH2 0x278 JUMPI INVALID JUMPDEST SWAP1 PUSH1 0x20 ADD SWAP1 PUSH1 0x20 MUL ADD MLOAD PUSH1 0x20 ADD MLOAD PUSH1 0x40 MLOAD PUSH2 0x293 SWAP2 SWAP1 PUSH2 0x99D JUMP JUMPDEST PUSH1 0x0 PUSH1 0x40 MLOAD DUP1 DUP4 SUB DUP2 PUSH1 0x0 DUP7 GAS CALL SWAP2 POP POP RETURNDATASIZE DUP1 PUSH1 0x0 DUP2 EQ PUSH2 0x2D0 JUMPI PUSH1 0x40 MLOAD SWAP2 POP PUSH1 0x1F NOT PUSH1 0x3F RETURNDATASIZE ADD AND DUP3 ADD PUSH1 0x40 MSTORE RETURNDATASIZE DUP3 MSTORE RETURNDATASIZE PUSH1 0x0 PUSH1 0x20 DUP5 ADD RETURNDATACOPY PUSH2 0x2D5 JUMP JUMPDEST PUSH1 0x60 SWAP2 POP JUMPDEST POP SWAP2 POP SWAP2 POP DUP2 ISZERO ISZERO PUSH2 0x31C JUMPI PUSH1 0x40 MLOAD PUSH32 0x8C379A000000000000000000000000000000000000000000000000000000000 DUP2 MSTORE PUSH1 0x4 ADD PUSH2 0x313 SWAP1 PUSH2 0x9EC JUMP JUMPDEST PUSH1 0x40 MLOAD DUP1 SWAP2 SUB SWAP1 REVERT JUMPDEST DUP1 DUP5 DUP5 DUP2 MLOAD DUP2 LT ISZERO ISZERO PUSH2 0x32B JUMPI INVALID JUMPDEST PUSH1 0x20 SWAP1 DUP2 MUL SWAP1 SWAP2 ADD ADD MSTORE POP POP PUSH1 0x1 ADD PUSH2 0x22B JUMP JUMPDEST POP SWAP2 POP SWAP2 JUMP JUMPDEST PUSH32 0xFFFFFFFFFFFFFFFFFFFFFFFFFFFFFFFFFFFFFFFFFFFFFFFFFFFFFFFFFFFFFFFF NUMBER ADD BLOCKHASH SWAP1 JUMP JUMPDEST NUMBER DUP1 BLOCKHASH PUSH1 0x60 PUSH2 0x37B DUP6 DUP6 PUSH2 0x3AE JUMP JUMPDEST SWAP1 POP SWAP3 POP SWAP3 POP SWAP3 JUMP JUMPDEST NUMBER SWAP1 JUMP JUMPDEST PUSH20 0xFFFFFFFFFFFFFFFFFFFFFFFFFFFFFFFFFFFFFFFF AND BALANCE SWAP1 JUMP JUMPDEST DIFFICULTY SWAP1 JUMP JUMPDEST GASLIMIT SWAP1 JUMP JUMPDEST COINBASE SWAP1 JUMP JUMPDEST PUSH1 0x60 DUP2 MLOAD PUSH1 0x40 MLOAD SWAP1 DUP1 DUP3 MSTORE DUP1 PUSH1 0x20 MUL PUSH1 0x20 ADD DUP3 ADD PUSH1 0x40 MSTORE DUP1 ISZERO PUSH2 0x3EB JUMPI DUP2 PUSH1 0x20 ADD JUMPDEST PUSH2 0x3D8 PUSH2 0x540 JUMP JUMPDEST DUP2 MSTORE PUSH1 0x20 ADD SWAP1 PUSH1 0x1 SWAP1 SUB SWAP1 DUP2 PUSH2 0x3D0 JUMPI SWAP1 POP JUMPDEST POP SWAP1 POP PUSH1 0x0 JUMPDEST DUP3 MLOAD DUP2 LT ISZERO PUSH2 0x518 JUMPI PUSH1 0x0 PUSH1 0x60 DUP5 DUP4 DUP2 MLOAD DUP2 LT ISZERO ISZERO PUSH2 0x40C JUMPI INVALID JUMPDEST SWAP1 PUSH1 0x20 ADD SWAP1 PUSH1 0x20 MUL ADD MLOAD PUSH1 0x0 ADD MLOAD PUSH20 0xFFFFFFFFFFFFFFFFFFFFFFFFFFFFFFFFFFFFFFFF AND DUP6 DUP5 DUP2 MLOAD DUP2 LT ISZERO ISZERO PUSH2 0x43E JUMPI INVALID JUMPDEST SWAP1 PUSH1 0x20 ADD SWAP1 PUSH1 0x20 MUL ADD MLOAD PUSH1 0x20 ADD MLOAD PUSH1 0x40 MLOAD PUSH2 0x459 SWAP2 SWAP1 PUSH2 0x99D JUMP JUMPDEST PUSH1 0x0 PUSH1 0x40 MLOAD DUP1 DUP4 SUB DUP2 PUSH1 0x0 DUP7 GAS CALL SWAP2 POP POP RETURNDATASIZE DUP1 PUSH1 0x0 DUP2 EQ PUSH2 0x496 JUMPI PUSH1 0x40 MLOAD SWAP2 POP PUSH1 0x1F NOT PUSH1 0x3F RETURNDATASIZE ADD AND DUP3 ADD PUSH1 0x40 MSTORE RETURNDATASIZE DUP3 MSTORE RETURNDATASIZE PUSH1 0x0 PUSH1 0x20 DUP5 ADD RETURNDATACOPY PUSH2 0x49B JUMP JUMPDEST PUSH1 0x60 SWAP2 POP JUMPDEST POP SWAP2 POP SWAP2 POP DUP6 ISZERO PUSH2 0x4DF JUMPI DUP2 ISZERO ISZERO PUSH2 0x4DF JUMPI PUSH1 0x40 MLOAD PUSH32 0x8C379A000000000000000000000000000000000000000000000000000000000 DUP2 MSTORE PUSH1 0x4 ADD PUSH2 0x313 SWAP1 PUSH2 0x9DC JUMP JUMPDEST PUSH1 0x40 DUP1 MLOAD SWAP1 DUP2 ADD PUSH1 0x40 MSTORE DUP1 DUP4 ISZERO ISZERO DUP2 MSTORE PUSH1 0x20 ADD DUP3 DUP2 MSTORE POP DUP5 DUP5 DUP2 MLOAD DUP2 LT ISZERO ISZERO PUSH2 0x504 JUMPI INVALID JUMPDEST PUSH1 0x20 SWAP1 DUP2 MUL SWAP1 SWAP2 ADD ADD MSTORE POP POP PUSH1 0x1 ADD PUSH2 0x3F1 JUMP JUMPDEST POP SWAP3 SWAP2 POP POP JUMP JUMPDEST PUSH1 0x0 DUP1 PUSH1 0x60 PUSH2 0x52F PUSH1 0x1 DUP6 PUSH2 0x36C JUMP JUMPDEST SWAP2 SWAP7 SWAP1 SWAP6 POP SWAP1 SWAP4 POP SWAP2 POP POP JUMP JUMPDEST BLOCKHASH SWAP1 JUMP JUMPDEST PUSH1 0x40 DUP1 MLOAD DUP1 DUP3 ADD SWAP1 SWAP2 MSTORE PUSH1 0x0 DUP2 MSTORE PUSH1 0x60 PUSH1 0x20 DUP3 ADD MSTORE SWAP1 JUMP JUMPDEST PUSH1 0x0 PUSH2 0x564 DUP3 CALLDATALOAD PUSH2 0xAEF JUMP JUMPDEST SWAP4 SWAP3 POP POP POP JUMP JUMPDEST PUSH1 0x0 PUSH1 0x1F DUP3 ADD DUP4 SGT PUSH2 0x57C JUMPI PUSH1 0x0 DUP1 REVERT JUMPDEST DUP2 CALLDATALOAD PUSH2 0x58F PUSH2 0x58A DUP3 PUSH2 0xA70 JUMP JUMPDEST PUSH2 0xA49 JUMP JUMPDEST DUP2 DUP2 MSTORE PUSH1 0x20 SWAP4 DUP5 ADD SWAP4 SWAP1 SWAP3 POP DUP3 ADD DUP4 PUSH1 0x0 JUMPDEST DUP4 DUP2 LT ISZERO PUSH2 0x5CD JUMPI DUP2 CALLDATALOAD DUP7 ADD PUSH2 0x5B7 DUP9 DUP3 PUSH2 0x632 JUMP JUMPDEST DUP5 MSTORE POP PUSH1 0x20 SWAP3 DUP4 ADD SWAP3 SWAP2 SWAP1 SWAP2 ADD SWAP1 PUSH1 0x1 ADD PUSH2 0x5A1 JUMP JUMPDEST POP POP POP POP SWAP3 SWAP2 POP POP JUMP JUMPDEST PUSH1 0x0 PUSH2 0x564 DUP3 CALLDATALOAD PUSH2 0xAFA JUMP JUMPDEST PUSH1 0x0 PUSH1 0x1F DUP3 ADD DUP4 SGT PUSH2 0x5F4 JUMPI PUSH1 0x0 DUP1 REVERT JUMPDEST DUP2 CALLDATALOAD PUSH2 0x602 PUSH2 0x58A DUP3 PUSH2 0xA91 JUMP JUMPDEST SWAP2 POP DUP1 DUP3 MSTORE PUSH1 0x20 DUP4 ADD PUSH1 0x20 DUP4 ADD DUP6 DUP4 DUP4 ADD GT ISZERO PUSH2 0x61E JUMPI PUSH1 0x0 DUP1 REVERT JUMPDEST PUSH2 0x629 DUP4 DUP3 DUP5 PUSH2 0xB1B JUMP JUMPDEST POP POP POP SWAP3 SWAP2 POP POP JUMP JUMPDEST PUSH1 0x0 PUSH1 0x40 DUP3 DUP5 SUB SLT ISZERO PUSH2 0x644 JUMPI PUSH1 0x0 DUP1 REVERT JUMPDEST PUSH2 0x64E PUSH1 0x40 PUSH2 0xA49 JUMP JUMPDEST SWAP1 POP PUSH1 0x0 PUSH2 0x65C DUP5 DUP5 PUSH2 0x558 JUMP JUMPDEST DUP3 MSTORE POP PUSH1 0x20 DUP3 ADD CALLDATALOAD PUSH8 0xFFFFFFFFFFFFFFFF DUP2 GT ISZERO PUSH2 0x679 JUMPI PUSH1 0x0 DUP1 REVERT JUMPDEST PUSH2 0x685 DUP5 DUP3 DUP6 ADD PUSH2 0x5E3 JUMP JUMPDEST PUSH1 0x20 DUP4 ADD MSTORE POP SWAP3 SWAP2 POP POP JUMP JUMPDEST PUSH1 0x0 PUSH2 0x564 DUP3 CALLDATALOAD PUSH2 0xAFF JUMP JUMPDEST PUSH1 0x0 PUSH1 0x20 DUP3 DUP5 SUB SLT ISZERO PUSH2 0x6AF JUMPI PUSH1 0x0 DUP1 REVERT JUMPDEST PUSH1 0x0 PUSH2 0x6BB DUP5 DUP5 PUSH2 0x558 JUMP JUMPDEST SWAP5 SWAP4 POP POP POP POP JUMP JUMPDEST PUSH1 0x0 PUSH1 0x20 DUP3 DUP5 SUB SLT ISZERO PUSH2 0x6D5 JUMPI PUSH1 0x0 DUP1 REVERT JUMPDEST DUP2 CALLDATALOAD PUSH8 0xFFFFFFFFFFFFFFFF DUP2 GT ISZERO PUSH2 0x6EC JUMPI PUSH1 0x0 DUP1 REVERT JUMPDEST PUSH2 0x6BB DUP5 DUP3 DUP6 ADD PUSH2 0x56B JUMP JUMPDEST PUSH1 0x0 DUP1 PUSH1 0x40 DUP4 DUP6 SUB SLT ISZERO PUSH2 0x70B JUMPI PUSH1 0x0 DUP1 REVERT JUMPDEST PUSH1 0x0 PUSH2 0x717 DUP6 DUP6 PUSH2 0x5D7 JUMP JUMPDEST SWAP3 POP POP PUSH1 0x20 DUP4 ADD CALLDATALOAD PUSH8 0xFFFFFFFFFFFFFFFF DUP2 GT ISZERO PUSH2 0x734 JUMPI PUSH1 0x0 DUP1 REVERT JUMPDEST PUSH2 0x740 DUP6 DUP3 DUP7 ADD PUSH2 0x56B JUMP JUMPDEST SWAP2 POP POP SWAP3 POP SWAP3 SWAP1 POP JUMP JUMPDEST PUSH1 0x0 PUSH1 0x20 DUP3 DUP5 SUB SLT ISZERO PUSH2 0x75C JUMPI PUSH1 0x0 DUP1 REVERT JUMPDEST PUSH1 0x0 PUSH2 0x6BB DUP5 DUP5 PUSH2 0x691 JUMP JUMPDEST PUSH1 0x0 PUSH2 0x564 DUP4 DUP4 PUSH2 0x869 JUMP JUMPDEST PUSH1 0x0 PUSH2 0x564 DUP4 DUP4 PUSH2 0x968 JUMP JUMPDEST PUSH2 0x789 DUP2 PUSH2 0xAEF JUMP JUMPDEST DUP3 MSTORE POP POP JUMP JUMPDEST PUSH1 0x0 PUSH2 0x79A DUP3 PUSH2 0xADD JUMP JUMPDEST PUSH2 0x7A4 DUP2 DUP6 PUSH2 0xAE1 JUMP JUMPDEST SWAP4 POP DUP4 PUSH1 0x20 DUP3 MUL DUP6 ADD PUSH2 0x7B6 DUP6 PUSH2 0xAD7 JUMP JUMPDEST PUSH1 0x0 JUMPDEST DUP5 DUP2 LT ISZERO PUSH2 0x7ED JUMPI DUP4 DUP4 SUB DUP9 MSTORE PUSH2 0x7D1 DUP4 DUP4 MLOAD PUSH2 0x768 JUMP JUMPDEST SWAP3 POP PUSH2 0x7DC DUP3 PUSH2 0xAD7 JUMP JUMPDEST PUSH1 0x20 SWAP9 SWAP1 SWAP9 ADD SWAP8 SWAP2 POP PUSH1 0x1 ADD PUSH2 0x7B9 JUMP JUMPDEST POP SWAP1 SWAP7 SWAP6 POP POP POP POP POP POP JUMP JUMPDEST PUSH1 0x0 PUSH2 0x804 DUP3 PUSH2 0xADD JUMP JUMPDEST PUSH2 0x80E DUP2 DUP6 PUSH2 0xAE1 JUMP JUMPDEST SWAP4 POP DUP4 PUSH1 0x20 DUP3 MUL DUP6 ADD PUSH2 0x820 DUP6 PUSH2 0xAD7 JUMP JUMPDEST PUSH1 0x0 JUMPDEST DUP5 DUP2 LT ISZERO PUSH2 0x7ED JUMPI DUP4 DUP4 SUB DUP9 MSTORE PUSH2 0x83B DUP4 DUP4 MLOAD PUSH2 0x774 JUMP JUMPDEST SWAP3 POP PUSH2 0x846 DUP3 PUSH2 0xAD7 JUMP JUMPDEST PUSH1 0x20 SWAP9 SWAP1 SWAP9 ADD SWAP8 SWAP2 POP PUSH1 0x1 ADD PUSH2 0x823 JUMP JUMPDEST PUSH2 0x789 DUP2 PUSH2 0xAFA JUMP JUMPDEST PUSH2 0x789 DUP2 PUSH2 0xAFF JUMP JUMPDEST PUSH1 0x0 PUSH2 0x874 DUP3 PUSH2 0xADD JUMP JUMPDEST PUSH2 0x87E DUP2 DUP6 PUSH2 0xAE1 JUMP JUMPDEST SWAP4 POP PUSH2 0x88E DUP2 DUP6 PUSH1 0x20 DUP7 ADD PUSH2 0xB27 JUMP JUMPDEST PUSH2 0x897 DUP2 PUSH2 0xB57 JUMP JUMPDEST SWAP1 SWAP4 ADD SWAP4 SWAP3 POP POP POP JUMP JUMPDEST PUSH1 0x0 PUSH2 0x8AC DUP3 PUSH2 0xADD JUMP JUMPDEST PUSH2 0x8B6 DUP2 DUP6 PUSH2 0xAEA JUMP JUMPDEST SWAP4 POP PUSH2 0x8C6 DUP2 DUP6 PUSH1 0x20 DUP7 ADD PUSH2 0xB27 JUMP JUMPDEST SWAP3 SWAP1 SWAP3 ADD SWAP3 SWAP2 POP POP JUMP JUMPDEST PUSH1 0x0 PUSH2 0x8DD PUSH1 0x21 DUP4 PUSH2 0xAE1 JUMP JUMPDEST PUSH32 0x4D756C746963616C6C32206167677265676174653A2063616C6C206661696C65 DUP2 MSTORE PUSH32 0x6400000000000000000000000000000000000000000000000000000000000000 PUSH1 0x20 DUP3 ADD MSTORE PUSH1 0x40 ADD SWAP3 SWAP2 POP POP JUMP JUMPDEST PUSH1 0x0 PUSH2 0x93C PUSH1 0x20 DUP4 PUSH2 0xAE1 JUMP JUMPDEST PUSH32 0x4D756C746963616C6C206167677265676174653A2063616C6C206661696C6564 DUP2 MSTORE PUSH1 0x20 ADD SWAP3 SWAP2 POP POP JUMP JUMPDEST DUP1 MLOAD PUSH1 0x0 SWAP1 PUSH1 0x40 DUP5 ADD SWAP1 PUSH2 0x97C DUP6 DUP3 PUSH2 0x857 JUMP JUMPDEST POP PUSH1 0x20 DUP4 ADD MLOAD DUP5 DUP3 SUB PUSH1 0x20 DUP7 ADD MSTORE PUSH2 0x994 DUP3 DUP3 PUSH2 0x869 JUMP JUMPDEST SWAP6 SWAP5 POP POP POP POP POP JUMP JUMPDEST PUSH1 0x0 PUSH2 0x564 DUP3 DUP5 PUSH2 0x8A1 JUMP JUMPDEST PUSH1 0x20 DUP2 ADD PUSH2 0x9B7 DUP3 DUP5 PUSH2 0x780 JUMP JUMPDEST SWAP3 SWAP2 POP POP JUMP JUMPDEST PUSH1 0x20 DUP1 DUP3 MSTORE DUP2 ADD PUSH2 0x564 DUP2 DUP5 PUSH2 0x7F9 JUMP JUMPDEST PUSH1 0x20 DUP2 ADD PUSH2 0x9B7 DUP3 DUP5 PUSH2 0x860 JUMP JUMPDEST PUSH1 0x20 DUP1 DUP3 MSTORE DUP2 ADD PUSH2 0x9B7 DUP2 PUSH2 0x8D0 JUMP JUMPDEST PUSH1 0x20 DUP1 DUP3 MSTORE DUP2 ADD PUSH2 0x9B7 DUP2 PUSH2 0x92F JUMP JUMPDEST PUSH1 0x40 DUP2 ADD PUSH2 0xA0A DUP3 DUP6 PUSH2 0x860 JUMP JUMPDEST DUP2 DUP2 SUB PUSH1 0x20 DUP4 ADD MSTORE PUSH2 0x6BB DUP2 DUP5 PUSH2 0x78F JUMP JUMPDEST PUSH1 0x60 DUP2 ADD PUSH2 0xA2A DUP3 DUP7 PUSH2 0x860 JUMP JUMPDEST PUSH2 0xA37 PUSH1 0x20 DUP4 ADD DUP6 PUSH2 0x860 JUMP JUMPDEST DUP2 DUP2 SUB PUSH1 0x40 DUP4 ADD MSTORE PUSH2 0x994 DUP2 DUP5 PUSH2 0x7F9 JUMP JUMPDEST PUSH1 0x40 MLOAD DUP2 DUP2 ADD PUSH8 0xFFFFFFFFFFFFFFFF DUP2 GT DUP3 DUP3 LT OR ISZERO PUSH2 0xA68 JUMPI PUSH1 0x0 DUP1 REVERT JUMPDEST PUSH1 0x40 MSTORE SWAP2 SWAP1 POP JUMP JUMPDEST PUSH1 0x0 PUSH8 0xFFFFFFFFFFFFFFFF DUP3 GT ISZERO PUSH2 0xA87 JUMPI PUSH1 0x0 DUP1 REVERT JUMPDEST POP PUSH1 0x20 SWAP1 DUP2 MUL ADD SWAP1 JUMP JUMPDEST PUSH1 0x0 PUSH8 0xFFFFFFFFFFFFFFFF DUP3 GT ISZERO PUSH2 0xAA8 JUMPI PUSH1 0x0 DUP1 REVERT JUMPDEST POP PUSH1 0x20 PUSH1 0x1F SWAP2 SWAP1 SWAP2 ADD PUSH32 0xFFFFFFFFFFFFFFFFFFFFFFFFFFFFFFFFFFFFFFFFFFFFFFFFFFFFFFFFFFFFFFE0 AND ADD SWAP1 JUMP JUMPDEST PUSH1 0x20 ADD SWAP1 JUMP JUMPDEST MLOAD SWAP1 JUMP JUMPDEST SWAP1 DUP2 MSTORE PUSH1 0x20 ADD SWAP1 JUMP JUMPDEST SWAP2 SWAP1 POP JUMP JUMPDEST PUSH1 0x0 PUSH2 0x9B7 DUP3 PUSH2 0xB02 JUMP JUMPDEST ISZERO ISZERO SWAP1 JUMP JUMPDEST SWAP1 JUMP JUMPDEST PUSH20 0xFFFFFFFFFFFFFFFFFFFFFFFFFFFFFFFFFFFFFFFF AND SWAP1 JUMP JUMPDEST DUP3 DUP2 DUP4 CALLDATACOPY POP PUSH1 0x0 SWAP2 ADD MSTORE JUMP JUMPDEST PUSH1 0x0 JUMPDEST DUP4 DUP2 LT ISZERO PUSH2 0xB42 JUMPI DUP2 DUP2 ADD MLOAD DUP4 DUP3 ADD MSTORE PUSH1 0x20 ADD PUSH2 0xB2A JUMP JUMPDEST DUP4 DUP2 GT ISZERO PUSH2 0xB51 JUMPI PUSH1 0x0 DUP5 DUP5 ADD MSTORE JUMPDEST POP POP POP POP JUMP JUMPDEST PUSH1 0x1F ADD PUSH32 0xFFFFFFFFFFFFFFFFFFFFFFFFFFFFFFFFFFFFFFFFFFFFFFFFFFFFFFFFFFFFFFE0 AND SWAP1 JUMP INVALID LOG2 PUSH6 0x627A7A723058 KECCAK256 0xfb 0xd3 NUMBER 0x1f MOD 0x4b SHL DUP4 EXTCODEHASH DUP12 0xc5 DUP1 PUSH25 0xEEAFE2F3B4F2EDE8573365989EDB13021B36DF6C6578706572 PUSH10 0x6D656E74616CF5003700 "
				},
				"gasEstimates": {
					"creation": {
						"codeDepositCost": "600200",
						"executionCost": "632",
						"totalCost": "600832"
					},
					"external": {
						"aggregate((address,bytes)[])": "infinite",
						"blockAndAggregate((address,bytes)[])": "infinite",
						"getBlockHash(uint256)": "infinite",
						"getBlockNumber()": "348",
						"getCurrentBlockCoinbase()": "infinite",
						"getCurrentBlockDifficulty()": "326",
						"getCurrentBlockGasLimit()": "348",
						"getCurrentBlockTimestamp()": "327",
						"getEthBalance(address)": "infinite",
						"getLastBlockHash()": "397",
						"tryAggregate(bool,(address,bytes)[])": "infinite",
						"tryBlockAndAggregate(bool,(address,bytes)[])": "infinite"
					}
				},
				"methodIdentifiers": {
					"aggregate((address,bytes)[])": "252dba42",
					"blockAndAggregate((address,bytes)[])": "c3077fa9",
					"getBlockHash(uint256)": "ee82ac5e",
					"getBlockNumber()": "42cbb15c",
					"getCurrentBlockCoinbase()": "a8b0574e",
					"getCurrentBlockDifficulty()": "72425d9d",
					"getCurrentBlockGasLimit()": "86d516e8",
					"getCurrentBlockTimestamp()": "0f28c97d",
					"getEthBalance(address)": "4d2301cc",
					"getLastBlockHash()": "27e86d6e",
					"tryAggregate(bool,(address,bytes)[])": "bce38bd7",
					"tryBlockAndAggregate(bool,(address,bytes)[])": "399542e9"
				}
			},
			"userdoc": {
				"methods": {}
			}
		}
	}
}