{
	"data": {
		"bytecode": {
			"linkReferences": {},
			"object": "6002805463ffffffff1916600590811782556001610300818152610320829052610340829052610360829052610380829052608090815260006103a08181526103c08290526103e082905261040082905261042082905260a0526104408581526104608690526104808690526104a08690526104c086905260c0526104e083815261050084905261052082905261054084905261056086905260e0526105808381526105a08490526105c08690526105e0849052610600829052610100526106208381526106408290526106608490526106808690526106a0849052610120526106c08381526106e0829052610700849052610720869052610740869052610140526107608381526107808290526107a08290526107c08490526107e086905261016052610800838152610820869052610840849052610860829052610880849052610180526108a08381526108c08690526108e08690526109008490526109208290526101a0526109408381526109608690526109808490526109a08290526109c08290526101c0526109e0818152610a00849052610a20869052610a40849052610a608290526101e052610a80818152610aa0849052610ac0849052610ae0849052610b0086905261020052610b20818152610b40829052610b60849052610b80869052610ba086905261022052610bc0818152610be0829052610c00849052610c20869052610c4084905261024052610c60818152610c80829052610ca0829052610cc0849052610ce086905261026052610d00858152610d20849052610d40829052610d60849052610d8086905261028052610da0858152610dc0849052610de0849052610e00849052610e208290526102a052610e40858152610e60869052610e80849052610ea0829052610ec08290526102c052610f80604052610ee0858152610f0095909552610f20839052610f4052610f60919091526102e092909252620002d1916014620005aa565b506040518061012001604052806040518060a001604052806000815260200160008152602001601481526020016050815260200160c881525081526020016040518060a0016040528060008152602001600081526020016028815260200161019081526020016107d081525081526020016040518060a001604052806000815260200160088152602001600f8152602001607881526020016101f481525081526020016040518060a0016040528060008152602001600281526020016008815260200160148152602001605081525081526020016040518060a0016040528060008152602001600081526020016008815260200160148152602001605081525081526020016040518060a001604052806000815260200160008152602001601481526020016050815260200160c881525081526020016040518060a0016040528060008152602001600081526020016008815260200160148152602001605081525081526020016040518060a0016040528060008152602001600081526020016014815260200160c881526020016103e881525081526020016040518060a0016040528060008152602001600081526020016002815260200160058152602001600f8152508152506007906009620004ab9291906200060b565b506040805160a081018252620186a0815261271060208201526103e89181019190915260646060820152600a6080820152620004ec9060349060056200064b565b506040805160a08101825261271081526103e8602082015260649181018290526060810191909152600160808201526200052b90603990600562000691565b506000603e819055603f8190556040553480156200054857600080fd5b5062000554336200055a565b62000777565b600080546001600160a01b038381166001600160a01b0319831681178455604051919092169283917f8be0079c531659141344cd1fd0a4f28419497f9722a3daafe3b4186f6b6457e09190a35050565b828054828255906000526020600020906005028101928215620005f9579160200282015b82811115620005f9578251620005e89083906005620006c8565b5091602001919060050190620005ce565b5062000607929150620006fe565b5090565b602d83019183908215620005f9579160200282015b82811115620005f95782516200063a90839060056200072f565b509160200191906005019062000620565b826005810192821562000683579160200282015b8281111562000683578251829062ffffff169055916020019190600101906200065f565b506200060792915062000760565b826005810192821562000683579160200282015b8281111562000683578251829061ffff16905591602001919060010190620006a5565b826005810192821562000683579160200282015b8281111562000683578251829060ff16905591602001919060010190620006dc565b80821115620006075760008082556001820181905560028201819055600382018190556004820155600501620006fe565b826005810192821562000683579160200282015b828111156200068357825182559160200191906001019062000743565b5b8082111562000607576000815560010162000761565b61109680620007876000396000f3fe608060405234801561001057600080fd5b50600436106100935760003560e01c80638da5cb5b116100665780638da5cb5b14610117578063a3e2e8ce14610132578063b7013dc114610145578063f2fde38b14610163578063f7e944ee1461017657600080fd5b806317adaa031461009857806322526328146100e55780634282cf54146100fa578063715018a61461010f575b600080fd5b6100ab6100a6366004610e11565b610189565b604080519687526001600160a01b039095166020870152938501929092526060840152608083015260a082015260c0015b60405180910390f35b6100f86100f3366004610e3b565b6101e7565b005b61010261020e565b6040516100dc9190610f3f565b6100f861028c565b6000546040516001600160a01b0390911681526020016100dc565b6100f8610140366004610e54565b6102a0565b336000908152600460205260409020546040519081526020016100dc565b6100f8610171366004610def565b61058f565b6100f8610184366004610e3b565b610608565b600660205281600052604060002081815481106101a557600080fd5b60009182526020909120600b9091020180546001820154600283015460038401546004850154600a909501549396506001600160a01b03909216945092909186565b3360009081526004602052604081208054839290610206908490610f8d565b909155505050565b60606005805480602002602001604051908101604052809291908181526020016000905b82821015610283576000848152602090206040805160a08101918290529160058581029091019182845b81548152602001906001019080831161025c57505050505081526020019060010190610232565b50505050905090565b61029461067a565b61029e60006106d4565b565b60006102ad836001610f8d565b6102b79085610fb9565b336000908152600460205260409020549091508111156103145760405162461bcd60e51b815260206004820152601360248201527210985b185b98d9481b9bdd08195b9bdd59da1d606a1b60448201526064015b60405180910390fd5b60055483106103565760405162461bcd60e51b815260206004820152600e60248201526d546f6f206d616e79206c696e657360901b604482015260640161030b565b610364600180546001019055565b600061036f60015490565b9050600061037c84610724565b9050600080600061038b610d16565b610393610d16565b6000805b8b811015610420576000806103ac838b61098f565b90925090506103bb8f83610fb9565b91506103c78285610f8d565b9350818684601481106103dc576103dc61104a565b6020020152808584601481106103f4576103f461104a565b60200201528782111561040b578298508197508096505b5050808061041890610fef565b915050610397565b5033600090815260046020526040902054819061043e908b90610fd8565b6104489190610f8d565b336000818152600460209081526040808320949094556006815290839020835160e0810185528c8152918201929092529182018e9052426060830152608082018d90529060a081018960016020908102919091015182529081018490528254600180820185556000948552938290208351600b909202019081559082015192810180546001600160a01b0319166001600160a01b039094169390931790925560408101516002830155606081015160038301556080810151600483015560a081015190919061051d9060058084019190610d35565b5060c09190910151600a909101557f6c98c6ad5e22111183c867670bead07208dbd3aba882d6bd87adbbbdb645d59a338d6105598e6001610f8d565b60208b01516040516105799493929187918a908a908f908f908f90610ecc565b60405180910390a1505050505050505050505050565b61059761067a565b6001600160a01b0381166105fc5760405162461bcd60e51b815260206004820152602660248201527f4f776e61626c653a206e6577206f776e657220697320746865207a65726f206160448201526564647265737360d01b606482015260840161030b565b610605816106d4565b50565b61061061067a565b600042603e54604054603f548561062660015490565b6040805160208101979097528601949094526060850192909252608084015260a083015260c082015260e00160408051601f198184030181529181528151602090920191909120603f805490925590555050565b6000546001600160a01b0316331461029e5760405162461bcd60e51b815260206004820181905260248201527f4f776e61626c653a2063616c6c6572206973206e6f7420746865206f776e6572604482015260640161030b565b600080546001600160a01b038381166001600160a01b0319831681178455604051919092169283917f8be0079c531659141344cd1fd0a4f28419497f9722a3daafe3b4186f6b6457e09190a35050565b61072c610d73565b600061073783610c5b565b90506000610748620186a08361100a565b61075590620186a0610f8d565b9050600080600060405180606001604052806040518060a0016040528060008152602001600081526020016000815260200160008152602001600081525081526020016040518060a0016040528060396000600581106107b7576107b761104a565b01546034546107cc9063ffffffff8b1661100a565b6107d69190610fa5565b8152603a546035546020909201916107f49063ffffffff8b1661100a565b6107fe9190610fa5565b8152603b5460365460209092019161081c9063ffffffff8b1661100a565b6108269190610fa5565b8152603c546037546020909201916108449063ffffffff8b1661100a565b61084e9190610fa5565b8152603d5460385460209092019161086c9063ffffffff8b1661100a565b6108769190610fa5565b81525081526020016040518060a001604052806000815260200160008152602001600081526020016000815260200160008152508152509050600092505b60025463ffffffff1683101561098557602081015183600581106108da576108da61104a565b6020020151915081600914156108ef57600091505b6020810151829084600581106109075761090761104a565b602002015281156109225761091d600183610fd8565b610925565b60085b815184600581106109385761093861104a565b60200201526008821461095557610950826001610f8d565b610958565b60005b6040820151846005811061096e5761096e61104a565b60200201528261097d81610fef565b9350506108b4565b9695505050505050565b600080808080805b6005811015610a2e5760018760058a815481106109b6576109b661104a565b906000526020600020906005020183600581106109d5576109d561104a565b0154600381106109e7576109e761104a565b602002015182600581106109fd576109fd61104a565b602002015114610a0f57809250610a2e565b83610a1981610fef565b94505080610a2681610fef565b915050610997565b50600083118015610a5d57506000600c610a49600186610fd8565b60058110610a5957610a5961104a565b0154115b15610a93576000600c610a71600186610fd8565b60058110610a8157610a8161104a565b0154955060019450610c549350505050565b8560058881548110610aa757610aa761104a565b90600052602060002090600502018360058110610ac657610ac661104a565b015460038110610ad857610ad861104a565b60200201518260058110610aee57610aee61104a565b602002015190506000610b02836001610f8d565b90505b6005811015610c0857818760058a81548110610b2357610b2361104a565b90600052602060002090600502018360058110610b4257610b4261104a565b015460038110610b5457610b5461104a565b60200201518260058110610b6a57610b6a61104a565b60200201511480610bda575060018760058a81548110610b8c57610b8c61104a565b90600052602060002090600502018360058110610bab57610bab61104a565b015460038110610bbd57610bbd61104a565b60200201518260058110610bd357610bd361104a565b6020020151145b15610bf15783610be981610fef565b945050610bf6565b610c08565b80610c0081610fef565b915050610b05565b508215610c4957600060078260098110610c2457610c2461104a565b600502018460058110610c3957610c3961104a565b01549550909350610c5492505050565b600080945094505050505b9250929050565b6000804283603e54603f5460405443404144453a335a60015460408051602081019e909e528d019b909b526060808d019a909a5260808c019890985260a08b019690965260c08a01949094526bffffffffffffffffffffffff1992871b831660e08a015260f4890191909152610114880152610134870191909152921b9091166101548401526101688301526101888201526101a80160408051601f198184030181529190528051602090910120603e939093555090919050565b6040518061028001604052806014906020820280368337509192915050565b8260058101928215610d63579160200282015b82811115610d63578251825591602001919060010190610d48565b50610d6f929150610da0565b5090565b60405180606001604052806003905b610d8a610db5565b815260200190600190039081610d825790505090565b5b80821115610d6f5760008155600101610da1565b6040518060a001604052806005906020820280368337509192915050565b80356001600160a01b0381168114610dea57600080fd5b919050565b600060208284031215610e0157600080fd5b610e0a82610dd3565b9392505050565b60008060408385031215610e2457600080fd5b610e2d83610dd3565b946020939093013593505050565b600060208284031215610e4d57600080fd5b5035919050565b600080600060608486031215610e6957600080fd5b505081359360208301359350604090920135919050565b8060005b6014811015610ea3578151845260209384019390910190600101610e84565b50505050565b8060005b6005811015610ea3578151845260209384019390910190600101610ead565b6001600160a01b038b168152602081018a905260408101899052606081018890526106808101610eff6080830189610ea9565b610f0d610120830188610e80565b610f1b6103a0830187610e80565b8461062083015283610640830152826106608301529b9a5050505050505050505050565b6020808252825182820181905260009190848201906040850190845b81811015610f8157610f6e838551610ea9565b9284019260a09290920191600101610f5b565b50909695505050505050565b60008219821115610fa057610fa061101e565b500190565b600082610fb457610fb4611034565b500490565b6000816000190483118215151615610fd357610fd361101e565b500290565b600082821015610fea57610fea61101e565b500390565b60006000198214156110035761100361101e565b5060010190565b60008261101957611019611034565b500690565b634e487b7160e01b600052601160045260246000fd5b634e487b7160e01b600052601260045260246000fd5b634e487b7160e01b600052603260045260246000fdfea2646970667358221220fe29c4379db1972557a4421097a451d2820fc4d4691322367d355b3abb844ab364736f6c63430008070033",
			"opcodes": "PUSH1 0x2 DUP1 SLOAD PUSH4 0xFFFFFFFF NOT AND PUSH1 0x5 SWAP1 DUP2 OR DUP3 SSTORE PUSH1 0x1 PUSH2 0x300 DUP2 DUP2 MSTORE PUSH2 0x320 DUP3 SWAP1 MSTORE PUSH2 0x340 DUP3 SWAP1 MSTORE PUSH2 0x360 DUP3 SWAP1 MSTORE PUSH2 0x380 DUP3 SWAP1 MSTORE PUSH1 0x80 SWAP1 DUP2 MSTORE PUSH1 0x0 PUSH2 0x3A0 DUP2 DUP2 MSTORE PUSH2 0x3C0 DUP3 SWAP1 MSTORE PUSH2 0x3E0 DUP3 SWAP1 MSTORE PUSH2 0x400 DUP3 SWAP1 MSTORE PUSH2 0x420 DUP3 SWAP1 MSTORE PUSH1 0xA0 MSTORE PUSH2 0x440 DUP6 DUP2 MSTORE PUSH2 0x460 DUP7 SWAP1 MSTORE PUSH2 0x480 DUP7 SWAP1 MSTORE PUSH2 0x4A0 DUP7 SWAP1 MSTORE PUSH2 0x4C0 DUP7 SWAP1 MSTORE PUSH1 0xC0 MSTORE PUSH2 0x4E0 DUP4 DUP2 MSTORE PUSH2 0x500 DUP5 SWAP1 MSTORE PUSH2 0x520 DUP3 SWAP1 MSTORE PUSH2 0x540 DUP5 SWAP1 MSTORE PUSH2 0x560 DUP7 SWAP1 MSTORE PUSH1 0xE0 MSTORE PUSH2 0x580 DUP4 DUP2 MSTORE PUSH2 0x5A0 DUP5 SWAP1 MSTORE PUSH2 0x5C0 DUP7 SWAP1 MSTORE PUSH2 0x5E0 DUP5 SWAP1 MSTORE PUSH2 0x600 DUP3 SWAP1 MSTORE PUSH2 0x100 MSTORE PUSH2 0x620 DUP4 DUP2 MSTORE PUSH2 0x640 DUP3 SWAP1 MSTORE PUSH2 0x660 DUP5 SWAP1 MSTORE PUSH2 0x680 DUP7 SWAP1 MSTORE PUSH2 0x6A0 DUP5 SWAP1 MSTORE PUSH2 0x120 MSTORE PUSH2 0x6C0 DUP4 DUP2 MSTORE PUSH2 0x6E0 DUP3 SWAP1 MSTORE PUSH2 0x700 DUP5 SWAP1 MSTORE PUSH2 0x720 DUP7 SWAP1 MSTORE PUSH2 0x740 DUP7 SWAP1 MSTORE PUSH2 0x140 MSTORE PUSH2 0x760 DUP4 DUP2 MSTORE PUSH2 0x780 DUP3 SWAP1 MSTORE PUSH2 0x7A0 DUP3 SWAP1 MSTORE PUSH2 0x7C0 DUP5 SWAP1 MSTORE PUSH2 0x7E0 DUP7 SWAP1 MSTORE PUSH2 0x160 MSTORE PUSH2 0x800 DUP4 DUP2 MSTORE PUSH2 0x820 DUP7 SWAP1 MSTORE PUSH2 0x840 DUP5 SWAP1 MSTORE PUSH2 0x860 DUP3 SWAP1 MSTORE PUSH2 0x880 DUP5 SWAP1 MSTORE PUSH2 0x180 MSTORE PUSH2 0x8A0 DUP4 DUP2 MSTORE PUSH2 0x8C0 DUP7 SWAP1 MSTORE PUSH2 0x8E0 DUP7 SWAP1 MSTORE PUSH2 0x900 DUP5 SWAP1 MSTORE PUSH2 0x920 DUP3 SWAP1 MSTORE PUSH2 0x1A0 MSTORE PUSH2 0x940 DUP4 DUP2 MSTORE PUSH2 0x960 DUP7 SWAP1 MSTORE PUSH2 0x980 DUP5 SWAP1 MSTORE PUSH2 0x9A0 DUP3 SWAP1 MSTORE PUSH2 0x9C0 DUP3 SWAP1 MSTORE PUSH2 0x1C0 MSTORE PUSH2 0x9E0 DUP2 DUP2 MSTORE PUSH2 0xA00 DUP5 SWAP1 MSTORE PUSH2 0xA20 DUP7 SWAP1 MSTORE PUSH2 0xA40 DUP5 SWAP1 MSTORE PUSH2 0xA60 DUP3 SWAP1 MSTORE PUSH2 0x1E0 MSTORE PUSH2 0xA80 DUP2 DUP2 MSTORE PUSH2 0xAA0 DUP5 SWAP1 MSTORE PUSH2 0xAC0 DUP5 SWAP1 MSTORE PUSH2 0xAE0 DUP5 SWAP1 MSTORE PUSH2 0xB00 DUP7 SWAP1 MSTORE PUSH2 0x200 MSTORE PUSH2 0xB20 DUP2 DUP2 MSTORE PUSH2 0xB40 DUP3 SWAP1 MSTORE PUSH2 0xB60 DUP5 SWAP1 MSTORE PUSH2 0xB80 DUP7 SWAP1 MSTORE PUSH2 0xBA0 DUP7 SWAP1 MSTORE PUSH2 0x220 MSTORE PUSH2 0xBC0 DUP2 DUP2 MSTORE PUSH2 0xBE0 DUP3 SWAP1 MSTORE PUSH2 0xC00 DUP5 SWAP1 MSTORE PUSH2 0xC20 DUP7 SWAP1 MSTORE PUSH2 0xC40 DUP5 SWAP1 MSTORE PUSH2 0x240 MSTORE PUSH2 0xC60 DUP2 DUP2 MSTORE PUSH2 0xC80 DUP3 SWAP1 MSTORE PUSH2 0xCA0 DUP3 SWAP1 MSTORE PUSH2 0xCC0 DUP5 SWAP1 MSTORE PUSH2 0xCE0 DUP7 SWAP1 MSTORE PUSH2 0x260 MSTORE PUSH2 0xD00 DUP6 DUP2 MSTORE PUSH2 0xD20 DUP5 SWAP1 MSTORE PUSH2 0xD40 DUP3 SWAP1 MSTORE PUSH2 0xD60 DUP5 SWAP1 MSTORE PUSH2 0xD80 DUP7 SWAP1 MSTORE PUSH2 0x280 MSTORE PUSH2 0xDA0 DUP6 DUP2 MSTORE PUSH2 0xDC0 DUP5 SWAP1 MSTORE PUSH2 0xDE0 DUP5 SWAP1 MSTORE PUSH2 0xE00 DUP5 SWAP1 MSTORE PUSH2 0xE20 DUP3 SWAP1 MSTORE PUSH2 0x2A0 MSTORE PUSH2 0xE40 DUP6 DUP2 MSTORE PUSH2 0xE60 DUP7 SWAP1 MSTORE PUSH2 0xE80 DUP5 SWAP1 MSTORE PUSH2 0xEA0 DUP3 SWAP1 MSTORE PUSH2 0xEC0 DUP3 SWAP1 MSTORE PUSH2 0x2C0 MSTORE PUSH2 0xF80 PUSH1 0x40 MSTORE PUSH2 0xEE0 DUP6 DUP2 MSTORE PUSH2 0xF00 SWAP6 SWAP1 SWAP6 MSTORE PUSH2 0xF20 DUP4 SWAP1 MSTORE PUSH2 0xF40 MSTORE PUSH2 0xF60 SWAP2 SWAP1 SWAP2 MSTORE PUSH2 0x2E0 SWAP3 SWAP1 SWAP3 MSTORE PUSH3 0x2D1 SWAP2 PUSH1 0x14 PUSH3 0x5AA JUMP JUMPDEST POP PUSH1 0x40 MLOAD DUP1 PUSH2 0x120 ADD PUSH1 0x40 MSTORE DUP1 PUSH1 0x40 MLOAD DUP1 PUSH1 0xA0 ADD PUSH1 0x40 MSTORE DUP1 PUSH1 0x0 DUP2 MSTORE PUSH1 0x20 ADD PUSH1 0x0 DUP2 MSTORE PUSH1 0x20 ADD PUSH1 0x14 DUP2 MSTORE PUSH1 0x20 ADD PUSH1 0x50 DUP2 MSTORE PUSH1 0x20 ADD PUSH1 0xC8 DUP2 MSTORE POP DUP2 MSTORE PUSH1 0x20 ADD PUSH1 0x40 MLOAD DUP1 PUSH1 0xA0 ADD PUSH1 0x40 MSTORE DUP1 PUSH1 0x0 DUP2 MSTORE PUSH1 0x20 ADD PUSH1 0x0 DUP2 MSTORE PUSH1 0x20 ADD PUSH1 0x28 DUP2 MSTORE PUSH1 0x20 ADD PUSH2 0x190 DUP2 MSTORE PUSH1 0x20 ADD PUSH2 0x7D0 DUP2 MSTORE POP DUP2 MSTORE PUSH1 0x20 ADD PUSH1 0x40 MLOAD DUP1 PUSH1 0xA0 ADD PUSH1 0x40 MSTORE DUP1 PUSH1 0x0 DUP2 MSTORE PUSH1 0x20 ADD PUSH1 0x8 DUP2 MSTORE PUSH1 0x20 ADD PUSH1 0xF DUP2 MSTORE PUSH1 0x20 ADD PUSH1 0x78 DUP2 MSTORE PUSH1 0x20 ADD PUSH2 0x1F4 DUP2 MSTORE POP DUP2 MSTORE PUSH1 0x20 ADD PUSH1 0x40 MLOAD DUP1 PUSH1 0xA0 ADD PUSH1 0x40 MSTORE DUP1 PUSH1 0x0 DUP2 MSTORE PUSH1 0x20 ADD PUSH1 0x2 DUP2 MSTORE PUSH1 0x20 ADD PUSH1 0x8 DUP2 MSTORE PUSH1 0x20 ADD PUSH1 0x14 DUP2 MSTORE PUSH1 0x20 ADD PUSH1 0x50 DUP2 MSTORE POP DUP2 MSTORE PUSH1 0x20 ADD PUSH1 0x40 MLOAD DUP1 PUSH1 0xA0 ADD PUSH1 0x40 MSTORE DUP1 PUSH1 0x0 DUP2 MSTORE PUSH1 0x20 ADD PUSH1 0x0 DUP2 MSTORE PUSH1 0x20 ADD PUSH1 0x8 DUP2 MSTORE PUSH1 0x20 ADD PUSH1 0x14 DUP2 MSTORE PUSH1 0x20 ADD PUSH1 0x50 DUP2 MSTORE POP DUP2 MSTORE PUSH1 0x20 ADD PUSH1 0x40 MLOAD DUP1 PUSH1 0xA0 ADD PUSH1 0x40 MSTORE DUP1 PUSH1 0x0 DUP2 MSTORE PUSH1 0x20 ADD PUSH1 0x0 DUP2 MSTORE PUSH1 0x20 ADD PUSH1 0x14 DUP2 MSTORE PUSH1 0x20 ADD PUSH1 0x50 DUP2 MSTORE PUSH1 0x20 ADD PUSH1 0xC8 DUP2 MSTORE POP DUP2 MSTORE PUSH1 0x20 ADD PUSH1 0x40 MLOAD DUP1 PUSH1 0xA0 ADD PUSH1 0x40 MSTORE DUP1 PUSH1 0x0 DUP2 MSTORE PUSH1 0x20 ADD PUSH1 0x0 DUP2 MSTORE PUSH1 0x20 ADD PUSH1 0x8 DUP2 MSTORE PUSH1 0x20 ADD PUSH1 0x14 DUP2 MSTORE PUSH1 0x20 ADD PUSH1 0x50 DUP2 MSTORE POP DUP2 MSTORE PUSH1 0x20 ADD PUSH1 0x40 MLOAD DUP1 PUSH1 0xA0 ADD PUSH1 0x40 MSTORE DUP1 PUSH1 0x0 DUP2 MSTORE PUSH1 0x20 ADD PUSH1 0x0 DUP2 MSTORE PUSH1 0x20 ADD PUSH1 0x14 DUP2 MSTORE PUSH1 0x20 ADD PUSH1 0xC8 DUP2 MSTORE PUSH1 0x20 ADD PUSH2 0x3E8 DUP2 MSTORE POP DUP2 MSTORE PUSH1 0x20 ADD PUSH1 0x40 MLOAD DUP1 PUSH1 0xA0 ADD PUSH1 0x40 MSTORE DUP1 PUSH1 0x0 DUP2 MSTORE PUSH1 0x20 ADD PUSH1 0x0 DUP2 MSTORE PUSH1 0x20 ADD PUSH1 0x2 DUP2 MSTORE PUSH1 0x20 ADD PUSH1 0x5 DUP2 MSTORE PUSH1 0x20 ADD PUSH1 0xF DUP2 MSTORE POP DUP2 MSTORE POP PUSH1 0x7 SWAP1 PUSH1 0x9 PUSH3 0x4AB SWAP3 SWAP2 SWAP1 PUSH3 0x60B JUMP JUMPDEST POP PUSH1 0x40 DUP1 MLOAD PUSH1 0xA0 DUP2 ADD DUP3 MSTORE PUSH3 0x186A0 DUP2 MSTORE PUSH2 0x2710 PUSH1 0x20 DUP3 ADD MSTORE PUSH2 0x3E8 SWAP2 DUP2 ADD SWAP2 SWAP1 SWAP2 MSTORE PUSH1 0x64 PUSH1 0x60 DUP3 ADD MSTORE PUSH1 0xA PUSH1 0x80 DUP3 ADD MSTORE PUSH3 0x4EC SWAP1 PUSH1 0x34 SWAP1 PUSH1 0x5 PUSH3 0x64B JUMP JUMPDEST POP PUSH1 0x40 DUP1 MLOAD PUSH1 0xA0 DUP2 ADD DUP3 MSTORE PUSH2 0x2710 DUP2 MSTORE PUSH2 0x3E8 PUSH1 0x20 DUP3 ADD MSTORE PUSH1 0x64 SWAP2 DUP2 ADD DUP3 SWAP1 MSTORE PUSH1 0x60 DUP2 ADD SWAP2 SWAP1 SWAP2 MSTORE PUSH1 0x1 PUSH1 0x80 DUP3 ADD MSTORE PUSH3 0x52B SWAP1 PUSH1 0x39 SWAP1 PUSH1 0x5 PUSH3 0x691 JUMP JUMPDEST POP PUSH1 0x0 PUSH1 0x3E DUP2 SWAP1 SSTORE PUSH1 0x3F DUP2 SWAP1 SSTORE PUSH1 0x40 SSTORE CALLVALUE DUP1 ISZERO PUSH3 0x548 JUMPI PUSH1 0x0 DUP1 REVERT JUMPDEST POP PUSH3 0x554 CALLER PUSH3 0x55A JUMP JUMPDEST PUSH3 0x777 JUMP JUMPDEST PUSH1 0x0 DUP1 SLOAD PUSH1 0x1 PUSH1 0x1 PUSH1 0xA0 SHL SUB DUP4 DUP2 AND PUSH1 0x1 PUSH1 0x1 PUSH1 0xA0 SHL SUB NOT DUP4 AND DUP2 OR DUP5 SSTORE PUSH1 0x40 MLOAD SWAP2 SWAP1 SWAP3 AND SWAP3 DUP4 SWAP2 PUSH32 0x8BE0079C531659141344CD1FD0A4F28419497F9722A3DAAFE3B4186F6B6457E0 SWAP2 SWAP1 LOG3 POP POP JUMP JUMPDEST DUP3 DUP1 SLOAD DUP3 DUP3 SSTORE SWAP1 PUSH1 0x0 MSTORE PUSH1 0x20 PUSH1 0x0 KECCAK256 SWAP1 PUSH1 0x5 MUL DUP2 ADD SWAP3 DUP3 ISZERO PUSH3 0x5F9 JUMPI SWAP2 PUSH1 0x20 MUL DUP3 ADD JUMPDEST DUP3 DUP2 GT ISZERO PUSH3 0x5F9 JUMPI DUP3 MLOAD PUSH3 0x5E8 SWAP1 DUP4 SWAP1 PUSH1 0x5 PUSH3 0x6C8 JUMP JUMPDEST POP SWAP2 PUSH1 0x20 ADD SWAP2 SWAP1 PUSH1 0x5 ADD SWAP1 PUSH3 0x5CE JUMP JUMPDEST POP PUSH3 0x607 SWAP3 SWAP2 POP PUSH3 0x6FE JUMP JUMPDEST POP SWAP1 JUMP JUMPDEST PUSH1 0x2D DUP4 ADD SWAP2 DUP4 SWAP1 DUP3 ISZERO PUSH3 0x5F9 JUMPI SWAP2 PUSH1 0x20 MUL DUP3 ADD JUMPDEST DUP3 DUP2 GT ISZERO PUSH3 0x5F9 JUMPI DUP3 MLOAD PUSH3 0x63A SWAP1 DUP4 SWAP1 PUSH1 0x5 PUSH3 0x72F JUMP JUMPDEST POP SWAP2 PUSH1 0x20 ADD SWAP2 SWAP1 PUSH1 0x5 ADD SWAP1 PUSH3 0x620 JUMP JUMPDEST DUP3 PUSH1 0x5 DUP2 ADD SWAP3 DUP3 ISZERO PUSH3 0x683 JUMPI SWAP2 PUSH1 0x20 MUL DUP3 ADD JUMPDEST DUP3 DUP2 GT ISZERO PUSH3 0x683 JUMPI DUP3 MLOAD DUP3 SWAP1 PUSH3 0xFFFFFF AND SWAP1 SSTORE SWAP2 PUSH1 0x20 ADD SWAP2 SWAP1 PUSH1 0x1 ADD SWAP1 PUSH3 0x65F JUMP JUMPDEST POP PUSH3 0x607 SWAP3 SWAP2 POP PUSH3 0x760 JUMP JUMPDEST DUP3 PUSH1 0x5 DUP2 ADD SWAP3 DUP3 ISZERO PUSH3 0x683 JUMPI SWAP2 PUSH1 0x20 MUL DUP3 ADD JUMPDEST DUP3 DUP2 GT ISZERO PUSH3 0x683 JUMPI DUP3 MLOAD DUP3 SWAP1 PUSH2 0xFFFF AND SWAP1 SSTORE SWAP2 PUSH1 0x20 ADD SWAP2 SWAP1 PUSH1 0x1 ADD SWAP1 PUSH3 0x6A5 JUMP JUMPDEST DUP3 PUSH1 0x5 DUP2 ADD SWAP3 DUP3 ISZERO PUSH3 0x683 JUMPI SWAP2 PUSH1 0x20 MUL DUP3 ADD JUMPDEST DUP3 DUP2 GT ISZERO PUSH3 0x683 JUMPI DUP3 MLOAD DUP3 SWAP1 PUSH1 0xFF AND SWAP1 SSTORE SWAP2 PUSH1 0x20 ADD SWAP2 SWAP1 PUSH1 0x1 ADD SWAP1 PUSH3 0x6DC JUMP JUMPDEST DUP1 DUP3 GT ISZERO PUSH3 0x607 JUMPI PUSH1 0x0 DUP1 DUP3 SSTORE PUSH1 0x1 DUP3 ADD DUP2 SWAP1 SSTORE PUSH1 0x2 DUP3 ADD DUP2 SWAP1 SSTORE PUSH1 0x3 DUP3 ADD DUP2 SWAP1 SSTORE PUSH1 0x4 DUP3 ADD SSTORE PUSH1 0x5 ADD PUSH3 0x6FE JUMP JUMPDEST DUP3 PUSH1 0x5 DUP2 ADD SWAP3 DUP3 ISZERO PUSH3 0x683 JUMPI SWAP2 PUSH1 0x20 MUL DUP3 ADD JUMPDEST DUP3 DUP2 GT ISZERO PUSH3 0x683 JUMPI DUP3 MLOAD DUP3 SSTORE SWAP2 PUSH1 0x20 ADD SWAP2 SWAP1 PUSH1 0x1 ADD SWAP1 PUSH3 0x743 JUMP JUMPDEST JUMPDEST DUP1 DUP3 GT ISZERO PUSH3 0x607 JUMPI PUSH1 0x0 DUP2 SSTORE PUSH1 0x1 ADD PUSH3 0x761 JUMP JUMPDEST PUSH2 0x1096 DUP1 PUSH3 0x787 PUSH1 0x0 CODECOPY PUSH1 0x0 RETURN INVALID PUSH1 0x80 PUSH1 0x40 MSTORE CALLVALUE DUP1 ISZERO PUSH2 0x10 JUMPI PUSH1 0x0 DUP1 REVERT JUMPDEST POP PUSH1 0x4 CALLDATASIZE LT PUSH2 0x93 JUMPI PUSH1 0x0 CALLDATALOAD PUSH1 0xE0 SHR DUP1 PUSH4 0x8DA5CB5B GT PUSH2 0x66 JUMPI DUP1 PUSH4 0x8DA5CB5B EQ PUSH2 0x117 JUMPI DUP1 PUSH4 0xA3E2E8CE EQ PUSH2 0x132 JUMPI DUP1 PUSH4 0xB7013DC1 EQ PUSH2 0x145 JUMPI DUP1 PUSH4 0xF2FDE38B EQ PUSH2 0x163 JUMPI DUP1 PUSH4 0xF7E944EE EQ PUSH2 0x176 JUMPI PUSH1 0x0 DUP1 REVERT JUMPDEST DUP1 PUSH4 0x17ADAA03 EQ PUSH2 0x98 JUMPI DUP1 PUSH4 0x22526328 EQ PUSH2 0xE5 JUMPI DUP1 PUSH4 0x4282CF54 EQ PUSH2 0xFA JUMPI DUP1 PUSH4 0x715018A6 EQ PUSH2 0x10F JUMPI JUMPDEST PUSH1 0x0 DUP1 REVERT JUMPDEST PUSH2 0xAB PUSH2 0xA6 CALLDATASIZE PUSH1 0x4 PUSH2 0xE11 JUMP JUMPDEST PUSH2 0x189 JUMP JUMPDEST PUSH1 0x40 DUP1 MLOAD SWAP7 DUP8 MSTORE PUSH1 0x1 PUSH1 0x1 PUSH1 0xA0 SHL SUB SWAP1 SWAP6 AND PUSH1 0x20 DUP8 ADD MSTORE SWAP4 DUP6 ADD SWAP3 SWAP1 SWAP3 MSTORE PUSH1 0x60 DUP5 ADD MSTORE PUSH1 0x80 DUP4 ADD MSTORE PUSH1 0xA0 DUP3 ADD MSTORE PUSH1 0xC0 ADD JUMPDEST PUSH1 0x40 MLOAD DUP1 SWAP2 SUB SWAP1 RETURN JUMPDEST PUSH2 0xF8 PUSH2 0xF3 CALLDATASIZE PUSH1 0x4 PUSH2 0xE3B JUMP JUMPDEST PUSH2 0x1E7 JUMP JUMPDEST STOP JUMPDEST PUSH2 0x102 PUSH2 0x20E JUMP JUMPDEST PUSH1 0x40 MLOAD PUSH2 0xDC SWAP2 SWAP1 PUSH2 0xF3F JUMP JUMPDEST PUSH2 0xF8 PUSH2 0x28C JUMP JUMPDEST PUSH1 0x0 SLOAD PUSH1 0x40 MLOAD PUSH1 0x1 PUSH1 0x1 PUSH1 0xA0 SHL SUB SWAP1 SWAP2 AND DUP2 MSTORE PUSH1 0x20 ADD PUSH2 0xDC JUMP JUMPDEST PUSH2 0xF8 PUSH2 0x140 CALLDATASIZE PUSH1 0x4 PUSH2 0xE54 JUMP JUMPDEST PUSH2 0x2A0 JUMP JUMPDEST CALLER PUSH1 0x0 SWAP1 DUP2 MSTORE PUSH1 0x4 PUSH1 0x20 MSTORE PUSH1 0x40 SWAP1 KECCAK256 SLOAD PUSH1 0x40 MLOAD SWAP1 DUP2 MSTORE PUSH1 0x20 ADD PUSH2 0xDC JUMP JUMPDEST PUSH2 0xF8 PUSH2 0x171 CALLDATASIZE PUSH1 0x4 PUSH2 0xDEF JUMP JUMPDEST PUSH2 0x58F JUMP JUMPDEST PUSH2 0xF8 PUSH2 0x184 CALLDATASIZE PUSH1 0x4 PUSH2 0xE3B JUMP JUMPDEST PUSH2 0x608 JUMP JUMPDEST PUSH1 0x6 PUSH1 0x20 MSTORE DUP2 PUSH1 0x0 MSTORE PUSH1 0x40 PUSH1 0x0 KECCAK256 DUP2 DUP2 SLOAD DUP2 LT PUSH2 0x1A5 JUMPI PUSH1 0x0 DUP1 REVERT JUMPDEST PUSH1 0x0 SWAP2 DUP3 MSTORE PUSH1 0x20 SWAP1 SWAP2 KECCAK256 PUSH1 0xB SWAP1 SWAP2 MUL ADD DUP1 SLOAD PUSH1 0x1 DUP3 ADD SLOAD PUSH1 0x2 DUP4 ADD SLOAD PUSH1 0x3 DUP5 ADD SLOAD PUSH1 0x4 DUP6 ADD SLOAD PUSH1 0xA SWAP1 SWAP6 ADD SLOAD SWAP4 SWAP7 POP PUSH1 0x1 PUSH1 0x1 PUSH1 0xA0 SHL SUB SWAP1 SWAP3 AND SWAP5 POP SWAP3 SWAP1 SWAP2 DUP7 JUMP JUMPDEST CALLER PUSH1 0x0 SWAP1 DUP2 MSTORE PUSH1 0x4 PUSH1 0x20 MSTORE PUSH1 0x40 DUP2 KECCAK256 DUP1 SLOAD DUP4 SWAP3 SWAP1 PUSH2 0x206 SWAP1 DUP5 SWAP1 PUSH2 0xF8D JUMP JUMPDEST SWAP1 SWAP2 SSTORE POP POP POP JUMP JUMPDEST PUSH1 0x60 PUSH1 0x5 DUP1 SLOAD DUP1 PUSH1 0x20 MUL PUSH1 0x20 ADD PUSH1 0x40 MLOAD SWAP1 DUP2 ADD PUSH1 0x40 MSTORE DUP1 SWAP3 SWAP2 SWAP1 DUP2 DUP2 MSTORE PUSH1 0x20 ADD PUSH1 0x0 SWAP1 JUMPDEST DUP3 DUP3 LT ISZERO PUSH2 0x283 JUMPI PUSH1 0x0 DUP5 DUP2 MSTORE PUSH1 0x20 SWAP1 KECCAK256 PUSH1 0x40 DUP1 MLOAD PUSH1 0xA0 DUP2 ADD SWAP2 DUP3 SWAP1 MSTORE SWAP2 PUSH1 0x5 DUP6 DUP2 MUL SWAP1 SWAP2 ADD SWAP2 DUP3 DUP5 JUMPDEST DUP2 SLOAD DUP2 MSTORE PUSH1 0x20 ADD SWAP1 PUSH1 0x1 ADD SWAP1 DUP1 DUP4 GT PUSH2 0x25C JUMPI POP POP POP POP POP DUP2 MSTORE PUSH1 0x20 ADD SWAP1 PUSH1 0x1 ADD SWAP1 PUSH2 0x232 JUMP JUMPDEST POP POP POP POP SWAP1 POP SWAP1 JUMP JUMPDEST PUSH2 0x294 PUSH2 0x67A JUMP JUMPDEST PUSH2 0x29E PUSH1 0x0 PUSH2 0x6D4 JUMP JUMPDEST JUMP JUMPDEST PUSH1 0x0 PUSH2 0x2AD DUP4 PUSH1 0x1 PUSH2 0xF8D JUMP JUMPDEST PUSH2 0x2B7 SWAP1 DUP6 PUSH2 0xFB9 JUMP JUMPDEST CALLER PUSH1 0x0 SWAP1 DUP2 MSTORE PUSH1 0x4 PUSH1 0x20 MSTORE PUSH1 0x40 SWAP1 KECCAK256 SLOAD SWAP1 SWAP2 POP DUP2 GT ISZERO PUSH2 0x314 JUMPI PUSH1 0x40 MLOAD PUSH3 0x461BCD PUSH1 0xE5 SHL DUP2 MSTORE PUSH1 0x20 PUSH1 0x4 DUP3 ADD MSTORE PUSH1 0x13 PUSH1 0x24 DUP3 ADD MSTORE PUSH19 0x10985B185B98D9481B9BDD08195B9BDD59DA1D PUSH1 0x6A SHL PUSH1 0x44 DUP3 ADD MSTORE PUSH1 0x64 ADD JUMPDEST PUSH1 0x40 MLOAD DUP1 SWAP2 SUB SWAP1 REVERT JUMPDEST PUSH1 0x5 SLOAD DUP4 LT PUSH2 0x356 JUMPI PUSH1 0x40 MLOAD PUSH3 0x461BCD PUSH1 0xE5 SHL DUP2 MSTORE PUSH1 0x20 PUSH1 0x4 DUP3 ADD MSTORE PUSH1 0xE PUSH1 0x24 DUP3 ADD MSTORE PUSH14 0x546F6F206D616E79206C696E6573 PUSH1 0x90 SHL PUSH1 0x44 DUP3 ADD MSTORE PUSH1 0x64 ADD PUSH2 0x30B JUMP JUMPDEST PUSH2 0x364 PUSH1 0x1 DUP1 SLOAD PUSH1 0x1 ADD SWAP1 SSTORE JUMP JUMPDEST PUSH1 0x0 PUSH2 0x36F PUSH1 0x1 SLOAD SWAP1 JUMP JUMPDEST SWAP1 POP PUSH1 0x0 PUSH2 0x37C DUP5 PUSH2 0x724 JUMP JUMPDEST SWAP1 POP PUSH1 0x0 DUP1 PUSH1 0x0 PUSH2 0x38B PUSH2 0xD16 JUMP JUMPDEST PUSH2 0x393 PUSH2 0xD16 JUMP JUMPDEST PUSH1 0x0 DUP1 JUMPDEST DUP12 DUP2 LT ISZERO PUSH2 0x420 JUMPI PUSH1 0x0 DUP1 PUSH2 0x3AC DUP4 DUP12 PUSH2 0x98F JUMP JUMPDEST SWAP1 SWAP3 POP SWAP1 POP PUSH2 0x3BB DUP16 DUP4 PUSH2 0xFB9 JUMP JUMPDEST SWAP2 POP PUSH2 0x3C7 DUP3 DUP6 PUSH2 0xF8D JUMP JUMPDEST SWAP4 POP DUP2 DUP7 DUP5 PUSH1 0x14 DUP2 LT PUSH2 0x3DC JUMPI PUSH2 0x3DC PUSH2 0x104A JUMP JUMPDEST PUSH1 0x20 MUL ADD MSTORE DUP1 DUP6 DUP5 PUSH1 0x14 DUP2 LT PUSH2 0x3F4 JUMPI PUSH2 0x3F4 PUSH2 0x104A JUMP JUMPDEST PUSH1 0x20 MUL ADD MSTORE DUP8 DUP3 GT ISZERO PUSH2 0x40B JUMPI DUP3 SWAP9 POP DUP2 SWAP8 POP DUP1 SWAP7 POP JUMPDEST POP POP DUP1 DUP1 PUSH2 0x418 SWAP1 PUSH2 0xFEF JUMP JUMPDEST SWAP2 POP POP PUSH2 0x397 JUMP JUMPDEST POP CALLER PUSH1 0x0 SWAP1 DUP2 MSTORE PUSH1 0x4 PUSH1 0x20 MSTORE PUSH1 0x40 SWAP1 KECCAK256 SLOAD DUP2 SWAP1 PUSH2 0x43E SWAP1 DUP12 SWAP1 PUSH2 0xFD8 JUMP JUMPDEST PUSH2 0x448 SWAP2 SWAP1 PUSH2 0xF8D JUMP JUMPDEST CALLER PUSH1 0x0 DUP2 DUP2 MSTORE PUSH1 0x4 PUSH1 0x20 SWAP1 DUP2 MSTORE PUSH1 0x40 DUP1 DUP4 KECCAK256 SWAP5 SWAP1 SWAP5 SSTORE PUSH1 0x6 DUP2 MSTORE SWAP1 DUP4 SWAP1 KECCAK256 DUP4 MLOAD PUSH1 0xE0 DUP2 ADD DUP6 MSTORE DUP13 DUP2 MSTORE SWAP2 DUP3 ADD SWAP3 SWAP1 SWAP3 MSTORE SWAP2 DUP3 ADD DUP15 SWAP1 MSTORE TIMESTAMP PUSH1 0x60 DUP4 ADD MSTORE PUSH1 0x80 DUP3 ADD DUP14 SWAP1 MSTORE SWAP1 PUSH1 0xA0 DUP2 ADD DUP10 PUSH1 0x1 PUSH1 0x20 SWAP1 DUP2 MUL SWAP2 SWAP1 SWAP2 ADD MLOAD DUP3 MSTORE SWAP1 DUP2 ADD DUP5 SWAP1 MSTORE DUP3 SLOAD PUSH1 0x1 DUP1 DUP3 ADD DUP6 SSTORE PUSH1 0x0 SWAP5 DUP6 MSTORE SWAP4 DUP3 SWAP1 KECCAK256 DUP4 MLOAD PUSH1 0xB SWAP1 SWAP3 MUL ADD SWAP1 DUP2 SSTORE SWAP1 DUP3 ADD MLOAD SWAP3 DUP2 ADD DUP1 SLOAD PUSH1 0x1 PUSH1 0x1 PUSH1 0xA0 SHL SUB NOT AND PUSH1 0x1 PUSH1 0x1 PUSH1 0xA0 SHL SUB SWAP1 SWAP5 AND SWAP4 SWAP1 SWAP4 OR SWAP1 SWAP3 SSTORE PUSH1 0x40 DUP2 ADD MLOAD PUSH1 0x2 DUP4 ADD SSTORE PUSH1 0x60 DUP2 ADD MLOAD PUSH1 0x3 DUP4 ADD SSTORE PUSH1 0x80 DUP2 ADD MLOAD PUSH1 0x4 DUP4 ADD SSTORE PUSH1 0xA0 DUP2 ADD MLOAD SWAP1 SWAP2 SWAP1 PUSH2 0x51D SWAP1 PUSH1 0x5 DUP1 DUP5 ADD SWAP2 SWAP1 PUSH2 0xD35 JUMP JUMPDEST POP PUSH1 0xC0 SWAP2 SWAP1 SWAP2 ADD MLOAD PUSH1 0xA SWAP1 SWAP2 ADD SSTORE PUSH32 0x6C98C6AD5E22111183C867670BEAD07208DBD3ABA882D6BD87ADBBBDB645D59A CALLER DUP14 PUSH2 0x559 DUP15 PUSH1 0x1 PUSH2 0xF8D JUMP JUMPDEST PUSH1 0x20 DUP12 ADD MLOAD PUSH1 0x40 MLOAD PUSH2 0x579 SWAP5 SWAP4 SWAP3 SWAP2 DUP8 SWAP2 DUP11 SWAP1 DUP11 SWAP1 DUP16 SWAP1 DUP16 SWAP1 DUP16 SWAP1 PUSH2 0xECC JUMP JUMPDEST PUSH1 0x40 MLOAD DUP1 SWAP2 SUB SWAP1 LOG1 POP POP POP POP POP POP POP POP POP POP POP POP JUMP JUMPDEST PUSH2 0x597 PUSH2 0x67A JUMP JUMPDEST PUSH1 0x1 PUSH1 0x1 PUSH1 0xA0 SHL SUB DUP2 AND PUSH2 0x5FC JUMPI PUSH1 0x40 MLOAD PUSH3 0x461BCD PUSH1 0xE5 SHL DUP2 MSTORE PUSH1 0x20 PUSH1 0x4 DUP3 ADD MSTORE PUSH1 0x26 PUSH1 0x24 DUP3 ADD MSTORE PUSH32 0x4F776E61626C653A206E6577206F776E657220697320746865207A65726F2061 PUSH1 0x44 DUP3 ADD MSTORE PUSH6 0x646472657373 PUSH1 0xD0 SHL PUSH1 0x64 DUP3 ADD MSTORE PUSH1 0x84 ADD PUSH2 0x30B JUMP JUMPDEST PUSH2 0x605 DUP2 PUSH2 0x6D4 JUMP JUMPDEST POP JUMP JUMPDEST PUSH2 0x610 PUSH2 0x67A JUMP JUMPDEST PUSH1 0x0 TIMESTAMP PUSH1 0x3E SLOAD PUSH1 0x40 SLOAD PUSH1 0x3F SLOAD DUP6 PUSH2 0x626 PUSH1 0x1 SLOAD SWAP1 JUMP JUMPDEST PUSH1 0x40 DUP1 MLOAD PUSH1 0x20 DUP2 ADD SWAP8 SWAP1 SWAP8 MSTORE DUP7 ADD SWAP5 SWAP1 SWAP5 MSTORE PUSH1 0x60 DUP6 ADD SWAP3 SWAP1 SWAP3 MSTORE PUSH1 0x80 DUP5 ADD MSTORE PUSH1 0xA0 DUP4 ADD MSTORE PUSH1 0xC0 DUP3 ADD MSTORE PUSH1 0xE0 ADD PUSH1 0x40 DUP1 MLOAD PUSH1 0x1F NOT DUP2 DUP5 SUB ADD DUP2 MSTORE SWAP2 DUP2 MSTORE DUP2 MLOAD PUSH1 0x20 SWAP1 SWAP3 ADD SWAP2 SWAP1 SWAP2 KECCAK256 PUSH1 0x3F DUP1 SLOAD SWAP1 SWAP3 SSTORE SWAP1 SSTORE POP POP JUMP JUMPDEST PUSH1 0x0 SLOAD PUSH1 0x1 PUSH1 0x1 PUSH1 0xA0 SHL SUB AND CALLER EQ PUSH2 0x29E JUMPI PUSH1 0x40 MLOAD PUSH3 0x461BCD PUSH1 0xE5 SHL DUP2 MSTORE PUSH1 0x20 PUSH1 0x4 DUP3 ADD DUP2 SWAP1 MSTORE PUSH1 0x24 DUP3 ADD MSTORE PUSH32 0x4F776E61626C653A2063616C6C6572206973206E6F7420746865206F776E6572 PUSH1 0x44 DUP3 ADD MSTORE PUSH1 0x64 ADD PUSH2 0x30B JUMP JUMPDEST PUSH1 0x0 DUP1 SLOAD PUSH1 0x1 PUSH1 0x1 PUSH1 0xA0 SHL SUB DUP4 DUP2 AND PUSH1 0x1 PUSH1 0x1 PUSH1 0xA0 SHL SUB NOT DUP4 AND DUP2 OR DUP5 SSTORE PUSH1 0x40 MLOAD SWAP2 SWAP1 SWAP3 AND SWAP3 DUP4 SWAP2 PUSH32 0x8BE0079C531659141344CD1FD0A4F28419497F9722A3DAAFE3B4186F6B6457E0 SWAP2 SWAP1 LOG3 POP POP JUMP JUMPDEST PUSH2 0x72C PUSH2 0xD73 JUMP JUMPDEST PUSH1 0x0 PUSH2 0x737 DUP4 PUSH2 0xC5B JUMP JUMPDEST SWAP1 POP PUSH1 0x0 PUSH2 0x748 PUSH3 0x186A0 DUP4 PUSH2 0x100A JUMP JUMPDEST PUSH2 0x755 SWAP1 PUSH3 0x186A0 PUSH2 0xF8D JUMP JUMPDEST SWAP1 POP PUSH1 0x0 DUP1 PUSH1 0x0 PUSH1 0x40 MLOAD DUP1 PUSH1 0x60 ADD PUSH1 0x40 MSTORE DUP1 PUSH1 0x40 MLOAD DUP1 PUSH1 0xA0 ADD PUSH1 0x40 MSTORE DUP1 PUSH1 0x0 DUP2 MSTORE PUSH1 0x20 ADD PUSH1 0x0 DUP2 MSTORE PUSH1 0x20 ADD PUSH1 0x0 DUP2 MSTORE PUSH1 0x20 ADD PUSH1 0x0 DUP2 MSTORE PUSH1 0x20 ADD PUSH1 0x0 DUP2 MSTORE POP DUP2 MSTORE PUSH1 0x20 ADD PUSH1 0x40 MLOAD DUP1 PUSH1 0xA0 ADD PUSH1 0x40 MSTORE DUP1 PUSH1 0x39 PUSH1 0x0 PUSH1 0x5 DUP2 LT PUSH2 0x7B7 JUMPI PUSH2 0x7B7 PUSH2 0x104A JUMP JUMPDEST ADD SLOAD PUSH1 0x34 SLOAD PUSH2 0x7CC SWAP1 PUSH4 0xFFFFFFFF DUP12 AND PUSH2 0x100A JUMP JUMPDEST PUSH2 0x7D6 SWAP2 SWAP1 PUSH2 0xFA5 JUMP JUMPDEST DUP2 MSTORE PUSH1 0x3A SLOAD PUSH1 0x35 SLOAD PUSH1 0x20 SWAP1 SWAP3 ADD SWAP2 PUSH2 0x7F4 SWAP1 PUSH4 0xFFFFFFFF DUP12 AND PUSH2 0x100A JUMP JUMPDEST PUSH2 0x7FE SWAP2 SWAP1 PUSH2 0xFA5 JUMP JUMPDEST DUP2 MSTORE PUSH1 0x3B SLOAD PUSH1 0x36 SLOAD PUSH1 0x20 SWAP1 SWAP3 ADD SWAP2 PUSH2 0x81C SWAP1 PUSH4 0xFFFFFFFF DUP12 AND PUSH2 0x100A JUMP JUMPDEST PUSH2 0x826 SWAP2 SWAP1 PUSH2 0xFA5 JUMP JUMPDEST DUP2 MSTORE PUSH1 0x3C SLOAD PUSH1 0x37 SLOAD PUSH1 0x20 SWAP1 SWAP3 ADD SWAP2 PUSH2 0x844 SWAP1 PUSH4 0xFFFFFFFF DUP12 AND PUSH2 0x100A JUMP JUMPDEST PUSH2 0x84E SWAP2 SWAP1 PUSH2 0xFA5 JUMP JUMPDEST DUP2 MSTORE PUSH1 0x3D SLOAD PUSH1 0x38 SLOAD PUSH1 0x20 SWAP1 SWAP3 ADD SWAP2 PUSH2 0x86C SWAP1 PUSH4 0xFFFFFFFF DUP12 AND PUSH2 0x100A JUMP JUMPDEST PUSH2 0x876 SWAP2 SWAP1 PUSH2 0xFA5 JUMP JUMPDEST DUP2 MSTORE POP DUP2 MSTORE PUSH1 0x20 ADD PUSH1 0x40 MLOAD DUP1 PUSH1 0xA0 ADD PUSH1 0x40 MSTORE DUP1 PUSH1 0x0 DUP2 MSTORE PUSH1 0x20 ADD PUSH1 0x0 DUP2 MSTORE PUSH1 0x20 ADD PUSH1 0x0 DUP2 MSTORE PUSH1 0x20 ADD PUSH1 0x0 DUP2 MSTORE PUSH1 0x20 ADD PUSH1 0x0 DUP2 MSTORE POP DUP2 MSTORE POP SWAP1 POP PUSH1 0x0 SWAP3 POP JUMPDEST PUSH1 0x2 SLOAD PUSH4 0xFFFFFFFF AND DUP4 LT ISZERO PUSH2 0x985 JUMPI PUSH1 0x20 DUP2 ADD MLOAD DUP4 PUSH1 0x5 DUP2 LT PUSH2 0x8DA JUMPI PUSH2 0x8DA PUSH2 0x104A JUMP JUMPDEST PUSH1 0x20 MUL ADD MLOAD SWAP2 POP DUP2 PUSH1 0x9 EQ ISZERO PUSH2 0x8EF JUMPI PUSH1 0x0 SWAP2 POP JUMPDEST PUSH1 0x20 DUP2 ADD MLOAD DUP3 SWAP1 DUP5 PUSH1 0x5 DUP2 LT PUSH2 0x907 JUMPI PUSH2 0x907 PUSH2 0x104A JUMP JUMPDEST PUSH1 0x20 MUL ADD MSTORE DUP2 ISZERO PUSH2 0x922 JUMPI PUSH2 0x91D PUSH1 0x1 DUP4 PUSH2 0xFD8 JUMP JUMPDEST PUSH2 0x925 JUMP JUMPDEST PUSH1 0x8 JUMPDEST DUP2 MLOAD DUP5 PUSH1 0x5 DUP2 LT PUSH2 0x938 JUMPI PUSH2 0x938 PUSH2 0x104A JUMP JUMPDEST PUSH1 0x20 MUL ADD MSTORE PUSH1 0x8 DUP3 EQ PUSH2 0x955 JUMPI PUSH2 0x950 DUP3 PUSH1 0x1 PUSH2 0xF8D JUMP JUMPDEST PUSH2 0x958 JUMP JUMPDEST PUSH1 0x0 JUMPDEST PUSH1 0x40 DUP3 ADD MLOAD DUP5 PUSH1 0x5 DUP2 LT PUSH2 0x96E JUMPI PUSH2 0x96E PUSH2 0x104A JUMP JUMPDEST PUSH1 0x20 MUL ADD MSTORE DUP3 PUSH2 0x97D DUP2 PUSH2 0xFEF JUMP JUMPDEST SWAP4 POP POP PUSH2 0x8B4 JUMP JUMPDEST SWAP7 SWAP6 POP POP POP POP POP POP JUMP JUMPDEST PUSH1 0x0 DUP1 DUP1 DUP1 DUP1 DUP1 JUMPDEST PUSH1 0x5 DUP2 LT ISZERO PUSH2 0xA2E JUMPI PUSH1 0x1 DUP8 PUSH1 0x5 DUP11 DUP2 SLOAD DUP2 LT PUSH2 0x9B6 JUMPI PUSH2 0x9B6 PUSH2 0x104A JUMP JUMPDEST SWAP1 PUSH1 0x0 MSTORE PUSH1 0x20 PUSH1 0x0 KECCAK256 SWAP1 PUSH1 0x5 MUL ADD DUP4 PUSH1 0x5 DUP2 LT PUSH2 0x9D5 JUMPI PUSH2 0x9D5 PUSH2 0x104A JUMP JUMPDEST ADD SLOAD PUSH1 0x3 DUP2 LT PUSH2 0x9E7 JUMPI PUSH2 0x9E7 PUSH2 0x104A JUMP JUMPDEST PUSH1 0x20 MUL ADD MLOAD DUP3 PUSH1 0x5 DUP2 LT PUSH2 0x9FD JUMPI PUSH2 0x9FD PUSH2 0x104A JUMP JUMPDEST PUSH1 0x20 MUL ADD MLOAD EQ PUSH2 0xA0F JUMPI DUP1 SWAP3 POP PUSH2 0xA2E JUMP JUMPDEST DUP4 PUSH2 0xA19 DUP2 PUSH2 0xFEF JUMP JUMPDEST SWAP5 POP POP DUP1 PUSH2 0xA26 DUP2 PUSH2 0xFEF JUMP JUMPDEST SWAP2 POP POP PUSH2 0x997 JUMP JUMPDEST POP PUSH1 0x0 DUP4 GT DUP1 ISZERO PUSH2 0xA5D JUMPI POP PUSH1 0x0 PUSH1 0xC PUSH2 0xA49 PUSH1 0x1 DUP7 PUSH2 0xFD8 JUMP JUMPDEST PUSH1 0x5 DUP2 LT PUSH2 0xA59 JUMPI PUSH2 0xA59 PUSH2 0x104A JUMP JUMPDEST ADD SLOAD GT JUMPDEST ISZERO PUSH2 0xA93 JUMPI PUSH1 0x0 PUSH1 0xC PUSH2 0xA71 PUSH1 0x1 DUP7 PUSH2 0xFD8 JUMP JUMPDEST PUSH1 0x5 DUP2 LT PUSH2 0xA81 JUMPI PUSH2 0xA81 PUSH2 0x104A JUMP JUMPDEST ADD SLOAD SWAP6 POP PUSH1 0x1 SWAP5 POP PUSH2 0xC54 SWAP4 POP POP POP POP JUMP JUMPDEST DUP6 PUSH1 0x5 DUP9 DUP2 SLOAD DUP2 LT PUSH2 0xAA7 JUMPI PUSH2 0xAA7 PUSH2 0x104A JUMP JUMPDEST SWAP1 PUSH1 0x0 MSTORE PUSH1 0x20 PUSH1 0x0 KECCAK256 SWAP1 PUSH1 0x5 MUL ADD DUP4 PUSH1 0x5 DUP2 LT PUSH2 0xAC6 JUMPI PUSH2 0xAC6 PUSH2 0x104A JUMP JUMPDEST ADD SLOAD PUSH1 0x3 DUP2 LT PUSH2 0xAD8 JUMPI PUSH2 0xAD8 PUSH2 0x104A JUMP JUMPDEST PUSH1 0x20 MUL ADD MLOAD DUP3 PUSH1 0x5 DUP2 LT PUSH2 0xAEE JUMPI PUSH2 0xAEE PUSH2 0x104A JUMP JUMPDEST PUSH1 0x20 MUL ADD MLOAD SWAP1 POP PUSH1 0x0 PUSH2 0xB02 DUP4 PUSH1 0x1 PUSH2 0xF8D JUMP JUMPDEST SWAP1 POP JUMPDEST PUSH1 0x5 DUP2 LT ISZERO PUSH2 0xC08 JUMPI DUP2 DUP8 PUSH1 0x5 DUP11 DUP2 SLOAD DUP2 LT PUSH2 0xB23 JUMPI PUSH2 0xB23 PUSH2 0x104A JUMP JUMPDEST SWAP1 PUSH1 0x0 MSTORE PUSH1 0x20 PUSH1 0x0 KECCAK256 SWAP1 PUSH1 0x5 MUL ADD DUP4 PUSH1 0x5 DUP2 LT PUSH2 0xB42 JUMPI PUSH2 0xB42 PUSH2 0x104A JUMP JUMPDEST ADD SLOAD PUSH1 0x3 DUP2 LT PUSH2 0xB54 JUMPI PUSH2 0xB54 PUSH2 0x104A JUMP JUMPDEST PUSH1 0x20 MUL ADD MLOAD DUP3 PUSH1 0x5 DUP2 LT PUSH2 0xB6A JUMPI PUSH2 0xB6A PUSH2 0x104A JUMP JUMPDEST PUSH1 0x20 MUL ADD MLOAD EQ DUP1 PUSH2 0xBDA JUMPI POP PUSH1 0x1 DUP8 PUSH1 0x5 DUP11 DUP2 SLOAD DUP2 LT PUSH2 0xB8C JUMPI PUSH2 0xB8C PUSH2 0x104A JUMP JUMPDEST SWAP1 PUSH1 0x0 MSTORE PUSH1 0x20 PUSH1 0x0 KECCAK256 SWAP1 PUSH1 0x5 MUL ADD DUP4 PUSH1 0x5 DUP2 LT PUSH2 0xBAB JUMPI PUSH2 0xBAB PUSH2 0x104A JUMP JUMPDEST ADD SLOAD PUSH1 0x3 DUP2 LT PUSH2 0xBBD JUMPI PUSH2 0xBBD PUSH2 0x104A JUMP JUMPDEST PUSH1 0x20 MUL ADD MLOAD DUP3 PUSH1 0x5 DUP2 LT PUSH2 0xBD3 JUMPI PUSH2 0xBD3 PUSH2 0x104A JUMP JUMPDEST PUSH1 0x20 MUL ADD MLOAD EQ JUMPDEST ISZERO PUSH2 0xBF1 JUMPI DUP4 PUSH2 0xBE9 DUP2 PUSH2 0xFEF JUMP JUMPDEST SWAP5 POP POP PUSH2 0xBF6 JUMP JUMPDEST PUSH2 0xC08 JUMP JUMPDEST DUP1 PUSH2 0xC00 DUP2 PUSH2 0xFEF JUMP JUMPDEST SWAP2 POP POP PUSH2 0xB05 JUMP JUMPDEST POP DUP3 ISZERO PUSH2 0xC49 JUMPI PUSH1 0x0 PUSH1 0x7 DUP3 PUSH1 0x9 DUP2 LT PUSH2 0xC24 JUMPI PUSH2 0xC24 PUSH2 0x104A JUMP JUMPDEST PUSH1 0x5 MUL ADD DUP5 PUSH1 0x5 DUP2 LT PUSH2 0xC39 JUMPI PUSH2 0xC39 PUSH2 0x104A JUMP JUMPDEST ADD SLOAD SWAP6 POP SWAP1 SWAP4 POP PUSH2 0xC54 SWAP3 POP POP POP JUMP JUMPDEST PUSH1 0x0 DUP1 SWAP5 POP SWAP5 POP POP POP POP JUMPDEST SWAP3 POP SWAP3 SWAP1 POP JUMP JUMPDEST PUSH1 0x0 DUP1 TIMESTAMP DUP4 PUSH1 0x3E SLOAD PUSH1 0x3F SLOAD PUSH1 0x40 SLOAD NUMBER BLOCKHASH COINBASE DIFFICULTY GASLIMIT GASPRICE CALLER GAS PUSH1 0x1 SLOAD PUSH1 0x40 DUP1 MLOAD PUSH1 0x20 DUP2 ADD SWAP15 SWAP1 SWAP15 MSTORE DUP14 ADD SWAP12 SWAP1 SWAP12 MSTORE PUSH1 0x60 DUP1 DUP14 ADD SWAP11 SWAP1 SWAP11 MSTORE PUSH1 0x80 DUP13 ADD SWAP9 SWAP1 SWAP9 MSTORE PUSH1 0xA0 DUP12 ADD SWAP7 SWAP1 SWAP7 MSTORE PUSH1 0xC0 DUP11 ADD SWAP5 SWAP1 SWAP5 MSTORE PUSH12 0xFFFFFFFFFFFFFFFFFFFFFFFF NOT SWAP3 DUP8 SHL DUP4 AND PUSH1 0xE0 DUP11 ADD MSTORE PUSH1 0xF4 DUP10 ADD SWAP2 SWAP1 SWAP2 MSTORE PUSH2 0x114 DUP9 ADD MSTORE PUSH2 0x134 DUP8 ADD SWAP2 SWAP1 SWAP2 MSTORE SWAP3 SHL SWAP1 SWAP2 AND PUSH2 0x154 DUP5 ADD MSTORE PUSH2 0x168 DUP4 ADD MSTORE PUSH2 0x188 DUP3 ADD MSTORE PUSH2 0x1A8 ADD PUSH1 0x40 DUP1 MLOAD PUSH1 0x1F NOT DUP2 DUP5 SUB ADD DUP2 MSTORE SWAP2 SWAP1 MSTORE DUP1 MLOAD PUSH1 0x20 SWAP1 SWAP2 ADD KECCAK256 PUSH1 0x3E SWAP4 SWAP1 SWAP4 SSTORE POP SWAP1 SWAP2 SWAP1 POP JUMP JUMPDEST PUSH1 0x40 MLOAD DUP1 PUSH2 0x280 ADD PUSH1 0x40 MSTORE DUP1 PUSH1 0x14 SWAP1 PUSH1 0x20 DUP3 MUL DUP1 CALLDATASIZE DUP4 CALLDATACOPY POP SWAP2 SWAP3 SWAP2 POP POP JUMP JUMPDEST DUP3 PUSH1 0x5 DUP2 ADD SWAP3 DUP3 ISZERO PUSH2 0xD63 JUMPI SWAP2 PUSH1 0x20 MUL DUP3 ADD JUMPDEST DUP3 DUP2 GT ISZERO PUSH2 0xD63 JUMPI DUP3 MLOAD DUP3 SSTORE SWAP2 PUSH1 0x20 ADD SWAP2 SWAP1 PUSH1 0x1 ADD SWAP1 PUSH2 0xD48 JUMP JUMPDEST POP PUSH2 0xD6F SWAP3 SWAP2 POP PUSH2 0xDA0 JUMP JUMPDEST POP SWAP1 JUMP JUMPDEST PUSH1 0x40 MLOAD DUP1 PUSH1 0x60 ADD PUSH1 0x40 MSTORE DUP1 PUSH1 0x3 SWAP1 JUMPDEST PUSH2 0xD8A PUSH2 0xDB5 JUMP JUMPDEST DUP2 MSTORE PUSH1 0x20 ADD SWAP1 PUSH1 0x1 SWAP1 SUB SWAP1 DUP2 PUSH2 0xD82 JUMPI SWAP1 POP POP SWAP1 JUMP JUMPDEST JUMPDEST DUP1 DUP3 GT ISZERO PUSH2 0xD6F JUMPI PUSH1 0x0 DUP2 SSTORE PUSH1 0x1 ADD PUSH2 0xDA1 JUMP JUMPDEST PUSH1 0x40 MLOAD DUP1 PUSH1 0xA0 ADD PUSH1 0x40 MSTORE DUP1 PUSH1 0x5 SWAP1 PUSH1 0x20 DUP3 MUL DUP1 CALLDATASIZE DUP4 CALLDATACOPY POP SWAP2 SWAP3 SWAP2 POP POP JUMP JUMPDEST DUP1 CALLDATALOAD PUSH1 0x1 PUSH1 0x1 PUSH1 0xA0 SHL SUB DUP2 AND DUP2 EQ PUSH2 0xDEA JUMPI PUSH1 0x0 DUP1 REVERT JUMPDEST SWAP2 SWAP1 POP JUMP JUMPDEST PUSH1 0x0 PUSH1 0x20 DUP3 DUP5 SUB SLT ISZERO PUSH2 0xE01 JUMPI PUSH1 0x0 DUP1 REVERT JUMPDEST PUSH2 0xE0A DUP3 PUSH2 0xDD3 JUMP JUMPDEST SWAP4 SWAP3 POP POP POP JUMP JUMPDEST PUSH1 0x0 DUP1 PUSH1 0x40 DUP4 DUP6 SUB SLT ISZERO PUSH2 0xE24 JUMPI PUSH1 0x0 DUP1 REVERT JUMPDEST PUSH2 0xE2D DUP4 PUSH2 0xDD3 JUMP JUMPDEST SWAP5 PUSH1 0x20 SWAP4 SWAP1 SWAP4 ADD CALLDATALOAD SWAP4 POP POP POP JUMP JUMPDEST PUSH1 0x0 PUSH1 0x20 DUP3 DUP5 SUB SLT ISZERO PUSH2 0xE4D JUMPI PUSH1 0x0 DUP1 REVERT JUMPDEST POP CALLDATALOAD SWAP2 SWAP1 POP JUMP JUMPDEST PUSH1 0x0 DUP1 PUSH1 0x0 PUSH1 0x60 DUP5 DUP7 SUB SLT ISZERO PUSH2 0xE69 JUMPI PUSH1 0x0 DUP1 REVERT JUMPDEST POP POP DUP2 CALLDATALOAD SWAP4 PUSH1 0x20 DUP4 ADD CALLDATALOAD SWAP4 POP PUSH1 0x40 SWAP1 SWAP3 ADD CALLDATALOAD SWAP2 SWAP1 POP JUMP JUMPDEST DUP1 PUSH1 0x0 JUMPDEST PUSH1 0x14 DUP2 LT ISZERO PUSH2 0xEA3 JUMPI DUP2 MLOAD DUP5 MSTORE PUSH1 0x20 SWAP4 DUP5 ADD SWAP4 SWAP1 SWAP2 ADD SWAP1 PUSH1 0x1 ADD PUSH2 0xE84 JUMP JUMPDEST POP POP POP POP JUMP JUMPDEST DUP1 PUSH1 0x0 JUMPDEST PUSH1 0x5 DUP2 LT ISZERO PUSH2 0xEA3 JUMPI DUP2 MLOAD DUP5 MSTORE PUSH1 0x20 SWAP4 DUP5 ADD SWAP4 SWAP1 SWAP2 ADD SWAP1 PUSH1 0x1 ADD PUSH2 0xEAD JUMP JUMPDEST PUSH1 0x1 PUSH1 0x1 PUSH1 0xA0 SHL SUB DUP12 AND DUP2 MSTORE PUSH1 0x20 DUP2 ADD DUP11 SWAP1 MSTORE PUSH1 0x40 DUP2 ADD DUP10 SWAP1 MSTORE PUSH1 0x60 DUP2 ADD DUP9 SWAP1 MSTORE PUSH2 0x680 DUP2 ADD PUSH2 0xEFF PUSH1 0x80 DUP4 ADD DUP10 PUSH2 0xEA9 JUMP JUMPDEST PUSH2 0xF0D PUSH2 0x120 DUP4 ADD DUP9 PUSH2 0xE80 JUMP JUMPDEST PUSH2 0xF1B PUSH2 0x3A0 DUP4 ADD DUP8 PUSH2 0xE80 JUMP JUMPDEST DUP5 PUSH2 0x620 DUP4 ADD MSTORE DUP4 PUSH2 0x640 DUP4 ADD MSTORE DUP3 PUSH2 0x660 DUP4 ADD MSTORE SWAP12 SWAP11 POP POP POP POP POP POP POP POP POP POP POP JUMP JUMPDEST PUSH1 0x20 DUP1 DUP3 MSTORE DUP3 MLOAD DUP3 DUP3 ADD DUP2 SWAP1 MSTORE PUSH1 0x0 SWAP2 SWAP1 DUP5 DUP3 ADD SWAP1 PUSH1 0x40 DUP6 ADD SWAP1 DUP5 JUMPDEST DUP2 DUP2 LT ISZERO PUSH2 0xF81 JUMPI PUSH2 0xF6E DUP4 DUP6 MLOAD PUSH2 0xEA9 JUMP JUMPDEST SWAP3 DUP5 ADD SWAP3 PUSH1 0xA0 SWAP3 SWAP1 SWAP3 ADD SWAP2 PUSH1 0x1 ADD PUSH2 0xF5B JUMP JUMPDEST POP SWAP1 SWAP7 SWAP6 POP POP POP POP POP POP JUMP JUMPDEST PUSH1 0x0 DUP3 NOT DUP3 GT ISZERO PUSH2 0xFA0 JUMPI PUSH2 0xFA0 PUSH2 0x101E JUMP JUMPDEST POP ADD SWAP1 JUMP JUMPDEST PUSH1 0x0 DUP3 PUSH2 0xFB4 JUMPI PUSH2 0xFB4 PUSH2 0x1034 JUMP JUMPDEST POP DIV SWAP1 JUMP JUMPDEST PUSH1 0x0 DUP2 PUSH1 0x0 NOT DIV DUP4 GT DUP3 ISZERO ISZERO AND ISZERO PUSH2 0xFD3 JUMPI PUSH2 0xFD3 PUSH2 0x101E JUMP JUMPDEST POP MUL SWAP1 JUMP JUMPDEST PUSH1 0x0 DUP3 DUP3 LT ISZERO PUSH2 0xFEA JUMPI PUSH2 0xFEA PUSH2 0x101E JUMP JUMPDEST POP SUB SWAP1 JUMP JUMPDEST PUSH1 0x0 PUSH1 0x0 NOT DUP3 EQ ISZERO PUSH2 0x1003 JUMPI PUSH2 0x1003 PUSH2 0x101E JUMP JUMPDEST POP PUSH1 0x1 ADD SWAP1 JUMP JUMPDEST PUSH1 0x0 DUP3 PUSH2 0x1019 JUMPI PUSH2 0x1019 PUSH2 0x1034 JUMP JUMPDEST POP MOD SWAP1 JUMP JUMPDEST PUSH4 0x4E487B71 PUSH1 0xE0 SHL PUSH1 0x0 MSTORE PUSH1 0x11 PUSH1 0x4 MSTORE PUSH1 0x24 PUSH1 0x0 REVERT JUMPDEST PUSH4 0x4E487B71 PUSH1 0xE0 SHL PUSH1 0x0 MSTORE PUSH1 0x12 PUSH1 0x4 MSTORE PUSH1 0x24 PUSH1 0x0 REVERT JUMPDEST PUSH4 0x4E487B71 PUSH1 0xE0 SHL PUSH1 0x0 MSTORE PUSH1 0x32 PUSH1 0x4 MSTORE PUSH1 0x24 PUSH1 0x0 REVERT INVALID LOG2 PUSH5 0x6970667358 0x22 SLT KECCAK256 INVALID 0x29 0xC4 CALLDATACOPY SWAP14 0xB1 SWAP8 0x25 JUMPI LOG4 TIMESTAMP LT SWAP8 LOG4 MLOAD 0xD2 DUP3 0xF 0xC4 0xD4 PUSH10 0x1322367D355B3ABB844A 0xB3 PUSH5 0x736F6C6343 STOP ADDMOD SMOD STOP CALLER "
		},
		"gasEstimates": {
			"creation": {
				"codeDepositCost": "849200",
				"executionCost": "infinite",
				"totalCost": "infinite"
			},
			"external": {
				"addUserBalance(uint256)": "24612",
				"doSpin(uint256,uint256,bytes32)": "infinite",
				"flushRandom(bytes32)": "57497",
				"getUserBalance()": "2392",
				"getWinLines()": "infinite",
				"owner()": "2301",
				"playerSpins(address,uint256)": "15447",
				"renounceOwnership()": "infinite",
				"transferOwnership(address)": "28399"
			},
			"internal": {
				"checkLine(uint256,uint256[5] memory[3] memory)": "infinite",
				"getRandom(bytes32,uint256)": "infinite",
				"getRandomBase(bytes32)": "infinite",
				"getWinLine(uint32)": "infinite",
				"spinReels(bytes32)": "infinite"
			}
		},
		"methodIdentifiers": {
			"addUserBalance(uint256)": "22526328",
			"doSpin(uint256,uint256,bytes32)": "a3e2e8ce",
			"flushRandom(bytes32)": "f7e944ee",
			"getUserBalance()": "b7013dc1",
			"getWinLines()": "4282cf54",
			"owner()": "8da5cb5b",
			"playerSpins(address,uint256)": "17adaa03",
			"renounceOwnership()": "715018a6",
			"transferOwnership(address)": "f2fde38b"
		}
	},
	"abi": [
		{
			"inputs": [],
			"stateMutability": "nonpayable",
			"type": "constructor"
		},
		{
			"anonymous": false,
			"inputs": [
				{
					"indexed": false,
					"internalType": "string",
					"name": "desc",
					"type": "string"
				},
				{
					"indexed": false,
					"internalType": "uint256[5]",
					"name": "value",
					"type": "uint256[5]"
				}
			],
			"name": "LogLine",
			"type": "event"
		},
		{
			"anonymous": false,
			"inputs": [
				{
					"indexed": false,
					"internalType": "string",
					"name": "desc",
					"type": "string"
				},
				{
					"indexed": false,
					"internalType": "uint256[5][3]",
					"name": "value",
					"type": "uint256[5][3]"
				}
			],
			"name": "LogSlots",
			"type": "event"
		},
		{
			"anonymous": false,
			"inputs": [
				{
					"indexed": false,
					"internalType": "string",
					"name": "message",
					"type": "string"
				}
			],
			"name": "LogString",
			"type": "event"
		},
		{
			"anonymous": false,
			"inputs": [
				{
					"indexed": false,
					"internalType": "string",
					"name": "desc",
					"type": "string"
				},
				{
					"indexed": false,
					"internalType": "uint256",
					"name": "value",
					"type": "uint256"
				}
			],
			"name": "LogUint256",
			"type": "event"
		},
		{
			"anonymous": false,
			"inputs": [
				{
					"indexed": false,
					"internalType": "string",
					"name": "desc",
					"type": "string"
				},
				{
					"indexed": false,
					"internalType": "uint256[]",
					"name": "value",
					"type": "uint256[]"
				}
			],
			"name": "LogUint256Array",
			"type": "event"
		},
		{
			"anonymous": false,
			"inputs": [
				{
					"indexed": true,
					"internalType": "address",
					"name": "previousOwner",
					"type": "address"
				},
				{
					"indexed": true,
					"internalType": "address",
					"name": "newOwner",
					"type": "address"
				}
			],
			"name": "OwnershipTransferred",
			"type": "event"
		},
		{
			"anonymous": false,
			"inputs": [
				{
					"indexed": false,
					"internalType": "address",
					"name": "user",
					"type": "address"
				},
				{
					"indexed": false,
					"internalType": "uint256",
					"name": "bet",
					"type": "uint256"
				},
				{
					"indexed": false,
					"internalType": "uint256",
					"name": "lines",
					"type": "uint256"
				},
				{
					"indexed": false,
					"internalType": "uint256",
					"name": "winAmount",
					"type": "uint256"
				},
				{
					"indexed": false,
					"internalType": "uint256[5]",
					"name": "slots",
					"type": "uint256[5]"
				},
				{
					"indexed": false,
					"internalType": "uint256[20]",
					"name": "spinWinLines",
					"type": "uint256[20]"
				},
				{
					"indexed": false,
					"internalType": "uint256[20]",
					"name": "spinWinSlots",
					"type": "uint256[20]"
				},
				{
					"indexed": false,
					"internalType": "uint256",
					"name": "maxLine",
					"type": "uint256"
				},
				{
					"indexed": false,
					"internalType": "uint256",
					"name": "maxLineWin",
					"type": "uint256"
				},
				{
					"indexed": false,
					"internalType": "uint256",
					"name": "maxWinSlot",
					"type": "uint256"
				}
			],
			"name": "ReelsSpinned",
			"type": "event"
		},
		{
			"inputs": [
				{
					"internalType": "uint256",
					"name": "bets",
					"type": "uint256"
				}
			],
			"name": "addUserBalance",
			"outputs": [],
			"stateMutability": "nonpayable",
			"type": "function"
		},
		{
			"inputs": [
				{
					"internalType": "uint256",
					"name": "bet",
					"type": "uint256"
				},
				{
					"internalType": "uint256",
					"name": "lineCount",
					"type": "uint256"
				},
				{
					"internalType": "bytes32",
					"name": "_seed",
					"type": "bytes32"
				}
			],
			"name": "doSpin",
			"outputs": [],
			"stateMutability": "nonpayable",
			"type": "function"
		},
		{
			"inputs": [
				{
					"internalType": "bytes32",
					"name": "_flushSeed",
					"type": "bytes32"
				}
			],
			"name": "flushRandom",
			"outputs": [],
			"stateMutability": "nonpayable",
			"type": "function"
		},
		{
			"inputs": [],
			"name": "getUserBalance",
			"outputs": [
				{
					"internalType": "uint256",
					"name": "",
					"type": "uint256"
				}
			],
			"stateMutability": "view",
			"type": "function"
		},
		{
			"inputs": [],
			"name": "getWinLines",
			"outputs": [
				{
					"internalType": "uint256[5][]",
					"name": "",
					"type": "uint256[5][]"
				}
			],
			"stateMutability": "view",
			"type": "function"
		},
		{
			"inputs": [],
			"name": "owner",
			"outputs": [
				{
					"internalType": "address",
					"name": "",
					"type": "address"
				}
			],
			"stateMutability": "view",
			"type": "function"
		},
		{
			"inputs": [
				{
					"internalType": "address",
					"name": "",
					"type": "address"
				},
				{
					"internalType": "uint256",
					"name": "",
					"type": "uint256"
				}
			],
			"name": "playerSpins",
			"outputs": [
				{
					"internalType": "uint256",
					"name": "spinId",
					"type": "uint256"
				},
				{
					"internalType": "address",
					"name": "player",
					"type": "address"
				},
				{
					"internalType": "uint256",
					"name": "bet",
					"type": "uint256"
				},
				{
					"internalType": "uint256",
					"name": "utx",
					"type": "uint256"
				},
				{
					"internalType": "uint256",
					"name": "lines",
					"type": "uint256"
				},
				{
					"internalType": "uint256",
					"name": "winAmount",
					"type": "uint256"
				}
			],
			"stateMutability": "view",
			"type": "function"
		},
		{
			"inputs": [],
			"name": "renounceOwnership",
			"outputs": [],
			"stateMutability": "nonpayable",
			"type": "function"
		},
		{
			"inputs": [
				{
					"internalType": "address",
					"name": "newOwner",
					"type": "address"
				}
			],
			"name": "transferOwnership",
			"outputs": [],
			"stateMutability": "nonpayable",
			"type": "function"
		}
	]
}