{
	"data": {
		"bytecode": {
			"linkReferences": {},
			"object": "6003805463ffffffff1916600517905560016006819055600781905560646008556013600955610300818152610320829052610340829052610360829052610380829052608090815260006103a08181526103c08290526103e082905261040082905261042082905260a05260026104408181526104608290526104808290526104a08290526104c082905260c0526104e084815261050085905261052083905261054085905261056082905260e0526105808481526105a08590526105c08290526105e0859052610600839052610100526106208481526106408390526106608590526106808290526106a0859052610120526106c08481526106e0839052610700859052610720829052610740829052610140526107608481526107808390526107a08390526107c08590526107e082905261016052610800848152610820829052610840859052610860839052610880859052610180526108a08481526108c08290526108e08290526109008590526109208390526101a0526109408481526109608290526109808590526109a08390526109c08390526101c0526109e0828152610a00859052610a20829052610a40859052610a608390526101e052610a80828152610aa0859052610ac0859052610ae0859052610b0082905261020052610b20828152610b40839052610b60859052610b80829052610ba082905261022052610bc0828152610be0839052610c00859052610c20829052610c4085905261024052610c60828152610c80839052610ca0839052610cc0859052610ce082905261026052610d00818152610d20859052610d40839052610d60859052610d8082905261028052610da0818152610dc0859052610de0859052610e00859052610e208390526102a052610e40818152610e60829052610e80859052610ea0839052610ec08390526102c052610f80604052610ee0818152610f0091909152610f20849052610f4091909152610f60929092526102e091909152620002eb90600a9060146200060a565b506040518061012001604052806040518060a001604052806000815260200160008152602001601481526020016050815260200160c881525081526020016040518060a0016040528060008152602001600081526020016028815260200161019081526020016107d081525081526020016040518060a001604052806000815260200160088152602001600f8152602001607881526020016101f481525081526020016040518060a0016040528060008152602001600281526020016008815260200160148152602001605081525081526020016040518060a0016040528060008152602001600081526020016008815260200160148152602001605081525081526020016040518060a001604052806000815260200160008152602001601481526020016050815260200160c881525081526020016040518060a0016040528060008152602001600081526020016008815260200160148152602001605081525081526020016040518060a0016040528060008152602001600081526020016014815260200160c881526020016103e881525081526020016040518060a0016040528060008152602001600081526020016002815260200160058152602001600f815250815250600b906009620004c59291906200066b565b506040805160a081018252620186a0815261271060208201526103e89181019190915260646060820152600a608082015262000506906038906005620006ab565b506040805160a08101825261271081526103e8602082015260649181018290526060810191909152600160808201526200054590603d906005620006f1565b506000604281905560438190556044553480156200056257600080fd5b5060405162002851380380620028518339810160408190526200058591620007d7565b6200059033620005ba565b600580546001600160a01b0319166001600160a01b03939093169290921790915560065562000813565b600080546001600160a01b038381166001600160a01b0319831681178455604051919092169283917f8be0079c531659141344cd1fd0a4f28419497f9722a3daafe3b4186f6b6457e09190a35050565b82805482825590600052602060002090600502810192821562000659579160200282015b828111156200065957825162000648908390600562000728565b50916020019190600501906200062e565b50620006679291506200075e565b5090565b602d8301918390821562000659579160200282015b82811115620006595782516200069a90839060056200078f565b509160200191906005019062000680565b8260058101928215620006e3579160200282015b82811115620006e3578251829062ffffff16905591602001919060010190620006bf565b5062000667929150620007c0565b8260058101928215620006e3579160200282015b82811115620006e3578251829061ffff1690559160200191906001019062000705565b8260058101928215620006e3579160200282015b82811115620006e3578251829060ff169055916020019190600101906200073c565b808211156200066757600080825560018201819055600282018190556003820181905560048201556005016200075e565b8260058101928215620006e3579160200282015b82811115620006e3578251825591602001919060010190620007a3565b5b80821115620006675760008155600101620007c1565b60008060408385031215620007eb57600080fd5b82516001600160a01b03811681146200080357600080fd5b6020939093015192949293505050565b61202e80620008236000396000f3fe608060405234801561001057600080fd5b50600436106101cf5760003560e01c80636f43022c11610104578063a3e2e8ce116100a2578063e9a4a03d11610071578063e9a4a03d146103e0578063f2fde38b146103e8578063f7e944ee146103fb578063fda0ef891461040e57600080fd5b8063a3e2e8ce14610392578063d3f0a7ce146103a5578063e3c7b05e146103ba578063e5a6b10f146103cd57600080fd5b806381b87e54116100de57806381b87e5414610353578063881eff1e146103665780638d8f2adb146103795780638da5cb5b1461038157600080fd5b80636f43022c1461032f578063715018a6146103425780637ff9b5961461034a57600080fd5b80634afa1905116101715780636012cb191161014b5780636012cb19146102dc578063646668b6146102ef5780636945c1fd146102f75780636a61e5fc1461031c57600080fd5b80634afa1905146102ac5780634b94f50e146102bf5780634c738909146102c757600080fd5b80632f84c391116101ad5780632f84c391146102485780633610724e1461025b5780634282cf541461026e578063477348921461028357600080fd5b806309b9dd89146101d457806317adaa03146101eb5780632252632814610233575b600080fd5b6009545b6040519081526020015b60405180910390f35b6101fe6101f9366004611b53565b610416565b604080519687526001600160a01b039095166020870152938501929092526060840152608083015260a082015260c0016101e2565b610246610241366004611c76565b610474565b005b610246610256366004611b38565b61049b565b610246610269366004611c76565b6104c5565b610276610706565b6040516101e29190611e31565b6101d8610291366004611b38565b6001600160a01b031660009081526004602052604090205490565b6102466102ba366004611cd4565b610784565b6006546101d8565b336000908152600460205260409020546101d8565b6102466102ea366004611c76565b6107b6565b6008546101d8565b6005546001600160a01b03165b6040516001600160a01b0390911681526020016101e2565b61024661032a366004611c76565b6107c3565b61024661033d366004611b9a565b6107d0565b6102466107ef565b6101d860065481565b610246610361366004611b7d565b610803565b610246610374366004611c76565b610818565b610246610825565b6000546001600160a01b0316610304565b6102466103a0366004611ca8565b610a0a565b6103ad610cf7565b6040516101e29190611df4565b6102466103c8366004611c76565b610d5a565b600554610304906001600160a01b031681565b6101d8610d67565b6102466103f6366004611b38565b610dfe565b610246610409366004611c76565b610e77565b6007546101d8565b6001602052816000526040600020818154811061043257600080fd5b60009182526020909120600b9091020180546001820154600283015460038401546004850154600a909501549396506001600160a01b03909216945092909186565b3360009081526004602052604081208054839290610493908490611ee3565b909155505050565b6104a3610ee5565b600580546001600160a01b0319166001600160a01b0392909216919091179055565b6000600654826104d59190611f0f565b6005546040516370a0823160e01b81523360048201529192506000916001600160a01b03909116906370a082319060240160206040518083038186803b15801561051e57600080fd5b505afa158015610532573d6000803e3d6000fd5b505050506040513d601f19601f820116820180604052508101906105569190611c8f565b9050818110156105ca5760405162461bcd60e51b815260206004820152603460248201527f596f7520646f206e6f74206861766520656e6f75676820746f6b656e73206f6e60448201527320796f75722062616c616e636520746f2070617960601b60648201526084015b60405180910390fd5b600554604051636eb1769f60e11b81523360048201523060248201526000916001600160a01b03169063dd62ed3e9060440160206040518083038186803b15801561061457600080fd5b505afa158015610628573d6000803e3d6000fd5b505050506040513d601f19601f8201168201806040525081019061064c9190611c8f565b9050828110156106c45760405162461bcd60e51b815260206004820152603a60248201527f596f7520646964206e6f7420616c6c6f772074686520636f6e7472616374207460448201527f6f2073656e642074686520707572636861736520616d6f756e7400000000000060648201526084016105c1565b6005546106dc906001600160a01b0316333086610f3f565b33600090815260046020526040812080548692906106fb908490611ee3565b909155505050505050565b6060600a805480602002602001604051908101604052809291908181526020016000905b8282101561077b576000848152602090206040805160a08101918290529160058581029091019182845b8154815260200190600101908083116107545750505050508152602001906001019061072a565b50505050905090565b61078c610ee5565b60068590556008849055600983815560078390556107ae90600b908390611883565b505050505050565b6107be610ee5565b600955565b6107cb610ee5565b600655565b6107d8610ee5565b80516107eb90600a9060208401906118ce565b5050565b6107f7610ee5565b6108016000610f9f565b565b61080b610ee5565b6107eb600b826009611883565b610820610ee5565b600855565b336000908152600460205260409020546108815760405162461bcd60e51b815260206004820152601e60248201527f4e6f7420656e6f75746820746f6b656e7320666f72207769746864726177000060448201526064016105c1565b60065433600090815260046020526040812054909161089f91611f0f565b6005546040516370a0823160e01b81523060048201529192506000916001600160a01b03909116906370a082319060240160206040518083038186803b1580156108e857600080fd5b505afa1580156108fc573d6000803e3d6000fd5b505050506040513d601f19601f820116820180604052508101906109209190611c8f565b90508181116109715760405162461bcd60e51b815260206004820152601960248201527f4e6f7420656e6f75746820746f6b656e7320696e2062616e6b0000000000000060448201526064016105c1565b60055460405163a9059cbb60e01b8152336004820152602481018490526001600160a01b039091169063a9059cbb90604401602060405180830381600087803b1580156109bd57600080fd5b505af11580156109d1573d6000803e3d6000fd5b505050506040513d601f19601f820116820180604052508101906109f59190611c54565b50503360009081526004602052604081205550565b6000610a17836001611ee3565b610a219085611f0f565b33600090815260046020526040902054909150811115610a795760405162461bcd60e51b815260206004820152601360248201527210985b185b98d9481b9bdd08195b9bdd59da1d606a1b60448201526064016105c1565b600a548310610abb5760405162461bcd60e51b815260206004820152600e60248201526d546f6f206d616e79206c696e657360901b60448201526064016105c1565b610ac9600280546001019055565b6000610ad460025490565b90506000610ae184610fef565b90506000806000610af0611918565b610af8611918565b6000805b8b811015610b8557600080610b11838b61125a565b9092509050610b208f83611f0f565b9150610b2c8285611ee3565b935081868460148110610b4157610b41611fcc565b602002015280858460148110610b5957610b59611fcc565b602002015287821115610b70578298508197508096505b50508080610b7d90611f71565b915050610afc565b50336000908152600460205260409020548190610ba3908b90611f2e565b610bad9190611ee3565b33600081815260046020908152604080832094909455600180825291849020845160e0810186528d8152918201939093529283018f9052426060840152608083018e905290919060a08201908a906020908102919091015182529081018490528254600180820185556000948552938290208351600b909202019081559082015192810180546001600160a01b0319166001600160a01b039094169390931790925560408101516002830155606081015160038301556080810151600483015560a0810151909190610c859060058084019190611937565b5060c09190910151600a909101557f6c98c6ad5e22111183c867670bead07208dbd3aba882d6bd87adbbbdb645d59a338d610cc18e6001611ee3565b60208b0151604051610ce19493929187918a908a908f908f908f90611d81565b60405180910390a1505050505050505050505050565b610cff611971565b604080516101208101909152600b60096000835b8282101561077b576040805160a081019182905290600584810287019182845b815481526020019060010190808311610d3357505050505081526020019060010190610d13565b610d62610ee5565b600755565b6005546040516370a0823160e01b815230600482015260009182916001600160a01b03909116906370a082319060240160206040518083038186803b158015610daf57600080fd5b505afa158015610dc3573d6000803e3d6000fd5b505050506040513d601f19601f82011682018060405250810190610de79190611c8f565b90506000610df782600654611558565b9392505050565b610e06610ee5565b6001600160a01b038116610e6b5760405162461bcd60e51b815260206004820152602660248201527f4f776e61626c653a206e6577206f776e657220697320746865207a65726f206160448201526564647265737360d01b60648201526084016105c1565b610e7481610f9f565b50565b610e7f610ee5565b60004260425460445460435485610e9560025490565b6040805160208101979097528601949094526060850192909252608084015260a083015260c082015260e00160408051601f19818403018152919052805160209091012060438054604455555050565b6000546001600160a01b031633146108015760405162461bcd60e51b815260206004820181905260248201527f4f776e61626c653a2063616c6c6572206973206e6f7420746865206f776e657260448201526064016105c1565b604080516001600160a01b0385811660248301528416604482015260648082018490528251808303909101815260849091019091526020810180516001600160e01b03166323b872dd60e01b179052610f99908590611564565b50505050565b600080546001600160a01b038381166001600160a01b0319831681178455604051919092169283917f8be0079c531659141344cd1fd0a4f28419497f9722a3daafe3b4186f6b6457e09190a35050565b610ff761199f565b60006110028361163b565b90506000611013620186a083611f8c565b61102090620186a0611ee3565b9050600080600060405180606001604052806040518060a0016040528060008152602001600081526020016000815260200160008152602001600081525081526020016040518060a00160405280603d60006005811061108257611082611fcc565b01546038546110979063ffffffff8b16611f8c565b6110a19190611efb565b8152603e546039546020909201916110bf9063ffffffff8b16611f8c565b6110c99190611efb565b8152603f54603a546020909201916110e79063ffffffff8b16611f8c565b6110f19190611efb565b8152604054603b5460209092019161110f9063ffffffff8b16611f8c565b6111199190611efb565b8152604154603c546020909201916111379063ffffffff8b16611f8c565b6111419190611efb565b81525081526020016040518060a001604052806000815260200160008152602001600081526020016000815260200160008152508152509050600092505b60035463ffffffff1683101561125057602081015183600581106111a5576111a5611fcc565b6020020151915081600914156111ba57600091505b6020810151829084600581106111d2576111d2611fcc565b602002015281156111ed576111e8600183611f2e565b6111f0565b60085b8151846005811061120357611203611fcc565b6020020152600882146112205761121b826001611ee3565b611223565b60005b6040820151846005811061123957611239611fcc565b60200201528261124881611f71565b93505061117f565b9695505050505050565b600080808080805b60058110156112fa5760075487600a8a8154811061128257611282611fcc565b906000526020600020906005020183600581106112a1576112a1611fcc565b0154600381106112b3576112b3611fcc565b602002015182600581106112c9576112c9611fcc565b6020020151146112db578092506112fa565b836112e581611f71565b945050806112f281611f71565b915050611262565b5060008311801561134057506000600b6007546009811061131d5761131d611fcc565b6005020161132c600186611f2e565b6005811061133c5761133c611fcc565b0154115b1561138f576000600b6007546009811061135c5761135c611fcc565b6005020161136b600186611f2e565b6005811061137b5761137b611fcc565b015460075490965094506115519350505050565b85600a88815481106113a3576113a3611fcc565b906000526020600020906005020183600581106113c2576113c2611fcc565b0154600381106113d4576113d4611fcc565b602002015182600581106113ea576113ea611fcc565b6020020151905060006113fe836001611ee3565b90505b6005811015611505578187600a8a8154811061141f5761141f611fcc565b9060005260206000209060050201836005811061143e5761143e611fcc565b01546003811061145057611450611fcc565b6020020151826005811061146657611466611fcc565b602002015114806114d7575060075487600a8a8154811061148957611489611fcc565b906000526020600020906005020183600581106114a8576114a8611fcc565b0154600381106114ba576114ba611fcc565b602002015182600581106114d0576114d0611fcc565b6020020151145b156114ee57836114e681611f71565b9450506114f3565b611505565b806114fd81611f71565b915050611401565b508215611546576000600b826009811061152157611521611fcc565b60050201846005811061153657611536611fcc565b0154955090935061155192505050565b600080945094505050505b9250929050565b6000610df78284611efb565b60006115b9826040518060400160405280602081526020017f5361666545524332303a206c6f772d6c6576656c2063616c6c206661696c6564815250856001600160a01b03166116f69092919063ffffffff16565b80519091501561163657808060200190518101906115d79190611c54565b6116365760405162461bcd60e51b815260206004820152602a60248201527f5361666545524332303a204552433230206f7065726174696f6e20646964206e6044820152691bdd081cdd58d8d9595960b21b60648201526084016105c1565b505050565b600080428360425460435460445443404144453a335a60025460408051602081019e909e528d019b909b526060808d019a909a5260808c019890985260a08b019690965260c08a01949094526bffffffffffffffffffffffff1992871b831660e08a015260f4890191909152610114880152610134870191909152921b9091166101548401526101688301526101888201526101a80160408051601f1981840301815291905280516020909101206042939093555090919050565b6060611705848460008561170d565b949350505050565b60608247101561176e5760405162461bcd60e51b815260206004820152602660248201527f416464726573733a20696e73756666696369656e742062616c616e636520666f6044820152651c8818d85b1b60d21b60648201526084016105c1565b600080866001600160a01b0316858760405161178a9190611d65565b60006040518083038185875af1925050503d80600081146117c7576040519150601f19603f3d011682016040523d82523d6000602084013e6117cc565b606091505b50915091506117dd878383876117e8565b979650505050505050565b6060831561185457825161184d576001600160a01b0385163b61184d5760405162461bcd60e51b815260206004820152601d60248201527f416464726573733a2063616c6c20746f206e6f6e2d636f6e747261637400000060448201526064016105c1565b5081611705565b61170583838151156118695781518083602001fd5b8060405162461bcd60e51b81526004016105c19190611e7f565b602d830191839082156118be579160200282015b828111156118be5782516118ae9083906005611937565b5091602001919060050190611897565b506118ca9291506119cc565b5090565b8280548282559060005260206000209060050281019282156118be579160200282015b828111156118be5782516119089083906005611937565b50916020019190600501906118f1565b6040518061028001604052806014906020820280368337509192915050565b8260058101928215611965579160200282015b8281111561196557825182559160200191906001019061194a565b506118ca9291506119fb565b6040518061012001604052806009905b611989611a10565b8152602001906001900390816119815790505090565b60405180606001604052806003905b6119b6611a10565b8152602001906001900390816119ae5790505090565b808211156118ca57600080825560018201819055600282018190556003820181905560048201556005016119cc565b5b808211156118ca57600081556001016119fc565b6040518060a001604052806005906020820280368337509192915050565b80356001600160a01b0381168114611a4557600080fd5b919050565b600082601f830112611a5b57600080fd5b604051610120810181811067ffffffffffffffff82111715611a7f57611a7f611fe2565b60405280836105a08101861015611a9557600080fd5b60005b6009811015611ac257611aab8783611acd565b835260209092019160a09190910190600101611a98565b509195945050505050565b600082601f830112611ade57600080fd5b60405160a0810181811067ffffffffffffffff82111715611b0157611b01611fe2565b604052808360a08101861015611b1657600080fd5b60005b6005811015611ac2578135835260209283019290910190600101611b19565b600060208284031215611b4a57600080fd5b610df782611a2e565b60008060408385031215611b6657600080fd5b611b6f83611a2e565b946020939093013593505050565b60006105a08284031215611b9057600080fd5b610df78383611a4a565b60006020808385031215611bad57600080fd5b823567ffffffffffffffff80821115611bc557600080fd5b818501915085601f830112611bd957600080fd5b813581811115611beb57611beb611fe2565b611bf9848260051b01611eb2565b818152848101925083850160a0808402860187018a1015611c1957600080fd5b600095505b83861015611c4657611c308a83611acd565b8552600195909501949386019390810190611c1e565b509098975050505050505050565b600060208284031215611c6657600080fd5b81518015158114610df757600080fd5b600060208284031215611c8857600080fd5b5035919050565b600060208284031215611ca157600080fd5b5051919050565b600080600060608486031215611cbd57600080fd5b505081359360208301359350604090920135919050565b60008060008060006106208688031215611ced57600080fd5b85359450602086013593506040860135925060608601359150611d138760808801611a4a565b90509295509295909350565b8060005b6014811015610f99578151845260209384019390910190600101611d23565b8060005b6005811015610f99578151845260209384019390910190600101611d46565b60008251611d77818460208701611f45565b9190910192915050565b6001600160a01b038b168152602081018a905260408101899052606081018890526106808101611db46080830189611d42565b611dc2610120830188611d1f565b611dd06103a0830187611d1f565b8461062083015283610640830152826106608301529b9a5050505050505050505050565b6105a08101818360005b6009811015611e2857611e12838351611d42565b60a0929092019160209190910190600101611dfe565b50505092915050565b6020808252825182820181905260009190848201906040850190845b81811015611e7357611e60838551611d42565b9284019260a09290920191600101611e4d565b50909695505050505050565b6020815260008251806020840152611e9e816040850160208701611f45565b601f01601f19169190910160400192915050565b604051601f8201601f1916810167ffffffffffffffff81118282101715611edb57611edb611fe2565b604052919050565b60008219821115611ef657611ef6611fa0565b500190565b600082611f0a57611f0a611fb6565b500490565b6000816000190483118215151615611f2957611f29611fa0565b500290565b600082821015611f4057611f40611fa0565b500390565b60005b83811015611f60578181015183820152602001611f48565b83811115610f995750506000910152565b6000600019821415611f8557611f85611fa0565b5060010190565b600082611f9b57611f9b611fb6565b500690565b634e487b7160e01b600052601160045260246000fd5b634e487b7160e01b600052601260045260246000fd5b634e487b7160e01b600052603260045260246000fd5b634e487b7160e01b600052604160045260246000fdfea2646970667358221220c77114abc9e5414cbf8704097741d975048824f4ae4b18234262c0b6dc058c3c64736f6c63430008070033",
			"opcodes": "PUSH1 0x3 DUP1 SLOAD PUSH4 0xFFFFFFFF NOT AND PUSH1 0x5 OR SWAP1 SSTORE PUSH1 0x1 PUSH1 0x6 DUP2 SWAP1 SSTORE PUSH1 0x7 DUP2 SWAP1 SSTORE PUSH1 0x64 PUSH1 0x8 SSTORE PUSH1 0x13 PUSH1 0x9 SSTORE PUSH2 0x300 DUP2 DUP2 MSTORE PUSH2 0x320 DUP3 SWAP1 MSTORE PUSH2 0x340 DUP3 SWAP1 MSTORE PUSH2 0x360 DUP3 SWAP1 MSTORE PUSH2 0x380 DUP3 SWAP1 MSTORE PUSH1 0x80 SWAP1 DUP2 MSTORE PUSH1 0x0 PUSH2 0x3A0 DUP2 DUP2 MSTORE PUSH2 0x3C0 DUP3 SWAP1 MSTORE PUSH2 0x3E0 DUP3 SWAP1 MSTORE PUSH2 0x400 DUP3 SWAP1 MSTORE PUSH2 0x420 DUP3 SWAP1 MSTORE PUSH1 0xA0 MSTORE PUSH1 0x2 PUSH2 0x440 DUP2 DUP2 MSTORE PUSH2 0x460 DUP3 SWAP1 MSTORE PUSH2 0x480 DUP3 SWAP1 MSTORE PUSH2 0x4A0 DUP3 SWAP1 MSTORE PUSH2 0x4C0 DUP3 SWAP1 MSTORE PUSH1 0xC0 MSTORE PUSH2 0x4E0 DUP5 DUP2 MSTORE PUSH2 0x500 DUP6 SWAP1 MSTORE PUSH2 0x520 DUP4 SWAP1 MSTORE PUSH2 0x540 DUP6 SWAP1 MSTORE PUSH2 0x560 DUP3 SWAP1 MSTORE PUSH1 0xE0 MSTORE PUSH2 0x580 DUP5 DUP2 MSTORE PUSH2 0x5A0 DUP6 SWAP1 MSTORE PUSH2 0x5C0 DUP3 SWAP1 MSTORE PUSH2 0x5E0 DUP6 SWAP1 MSTORE PUSH2 0x600 DUP4 SWAP1 MSTORE PUSH2 0x100 MSTORE PUSH2 0x620 DUP5 DUP2 MSTORE PUSH2 0x640 DUP4 SWAP1 MSTORE PUSH2 0x660 DUP6 SWAP1 MSTORE PUSH2 0x680 DUP3 SWAP1 MSTORE PUSH2 0x6A0 DUP6 SWAP1 MSTORE PUSH2 0x120 MSTORE PUSH2 0x6C0 DUP5 DUP2 MSTORE PUSH2 0x6E0 DUP4 SWAP1 MSTORE PUSH2 0x700 DUP6 SWAP1 MSTORE PUSH2 0x720 DUP3 SWAP1 MSTORE PUSH2 0x740 DUP3 SWAP1 MSTORE PUSH2 0x140 MSTORE PUSH2 0x760 DUP5 DUP2 MSTORE PUSH2 0x780 DUP4 SWAP1 MSTORE PUSH2 0x7A0 DUP4 SWAP1 MSTORE PUSH2 0x7C0 DUP6 SWAP1 MSTORE PUSH2 0x7E0 DUP3 SWAP1 MSTORE PUSH2 0x160 MSTORE PUSH2 0x800 DUP5 DUP2 MSTORE PUSH2 0x820 DUP3 SWAP1 MSTORE PUSH2 0x840 DUP6 SWAP1 MSTORE PUSH2 0x860 DUP4 SWAP1 MSTORE PUSH2 0x880 DUP6 SWAP1 MSTORE PUSH2 0x180 MSTORE PUSH2 0x8A0 DUP5 DUP2 MSTORE PUSH2 0x8C0 DUP3 SWAP1 MSTORE PUSH2 0x8E0 DUP3 SWAP1 MSTORE PUSH2 0x900 DUP6 SWAP1 MSTORE PUSH2 0x920 DUP4 SWAP1 MSTORE PUSH2 0x1A0 MSTORE PUSH2 0x940 DUP5 DUP2 MSTORE PUSH2 0x960 DUP3 SWAP1 MSTORE PUSH2 0x980 DUP6 SWAP1 MSTORE PUSH2 0x9A0 DUP4 SWAP1 MSTORE PUSH2 0x9C0 DUP4 SWAP1 MSTORE PUSH2 0x1C0 MSTORE PUSH2 0x9E0 DUP3 DUP2 MSTORE PUSH2 0xA00 DUP6 SWAP1 MSTORE PUSH2 0xA20 DUP3 SWAP1 MSTORE PUSH2 0xA40 DUP6 SWAP1 MSTORE PUSH2 0xA60 DUP4 SWAP1 MSTORE PUSH2 0x1E0 MSTORE PUSH2 0xA80 DUP3 DUP2 MSTORE PUSH2 0xAA0 DUP6 SWAP1 MSTORE PUSH2 0xAC0 DUP6 SWAP1 MSTORE PUSH2 0xAE0 DUP6 SWAP1 MSTORE PUSH2 0xB00 DUP3 SWAP1 MSTORE PUSH2 0x200 MSTORE PUSH2 0xB20 DUP3 DUP2 MSTORE PUSH2 0xB40 DUP4 SWAP1 MSTORE PUSH2 0xB60 DUP6 SWAP1 MSTORE PUSH2 0xB80 DUP3 SWAP1 MSTORE PUSH2 0xBA0 DUP3 SWAP1 MSTORE PUSH2 0x220 MSTORE PUSH2 0xBC0 DUP3 DUP2 MSTORE PUSH2 0xBE0 DUP4 SWAP1 MSTORE PUSH2 0xC00 DUP6 SWAP1 MSTORE PUSH2 0xC20 DUP3 SWAP1 MSTORE PUSH2 0xC40 DUP6 SWAP1 MSTORE PUSH2 0x240 MSTORE PUSH2 0xC60 DUP3 DUP2 MSTORE PUSH2 0xC80 DUP4 SWAP1 MSTORE PUSH2 0xCA0 DUP4 SWAP1 MSTORE PUSH2 0xCC0 DUP6 SWAP1 MSTORE PUSH2 0xCE0 DUP3 SWAP1 MSTORE PUSH2 0x260 MSTORE PUSH2 0xD00 DUP2 DUP2 MSTORE PUSH2 0xD20 DUP6 SWAP1 MSTORE PUSH2 0xD40 DUP4 SWAP1 MSTORE PUSH2 0xD60 DUP6 SWAP1 MSTORE PUSH2 0xD80 DUP3 SWAP1 MSTORE PUSH2 0x280 MSTORE PUSH2 0xDA0 DUP2 DUP2 MSTORE PUSH2 0xDC0 DUP6 SWAP1 MSTORE PUSH2 0xDE0 DUP6 SWAP1 MSTORE PUSH2 0xE00 DUP6 SWAP1 MSTORE PUSH2 0xE20 DUP4 SWAP1 MSTORE PUSH2 0x2A0 MSTORE PUSH2 0xE40 DUP2 DUP2 MSTORE PUSH2 0xE60 DUP3 SWAP1 MSTORE PUSH2 0xE80 DUP6 SWAP1 MSTORE PUSH2 0xEA0 DUP4 SWAP1 MSTORE PUSH2 0xEC0 DUP4 SWAP1 MSTORE PUSH2 0x2C0 MSTORE PUSH2 0xF80 PUSH1 0x40 MSTORE PUSH2 0xEE0 DUP2 DUP2 MSTORE PUSH2 0xF00 SWAP2 SWAP1 SWAP2 MSTORE PUSH2 0xF20 DUP5 SWAP1 MSTORE PUSH2 0xF40 SWAP2 SWAP1 SWAP2 MSTORE PUSH2 0xF60 SWAP3 SWAP1 SWAP3 MSTORE PUSH2 0x2E0 SWAP2 SWAP1 SWAP2 MSTORE PUSH3 0x2EB SWAP1 PUSH1 0xA SWAP1 PUSH1 0x14 PUSH3 0x60A JUMP JUMPDEST POP PUSH1 0x40 MLOAD DUP1 PUSH2 0x120 ADD PUSH1 0x40 MSTORE DUP1 PUSH1 0x40 MLOAD DUP1 PUSH1 0xA0 ADD PUSH1 0x40 MSTORE DUP1 PUSH1 0x0 DUP2 MSTORE PUSH1 0x20 ADD PUSH1 0x0 DUP2 MSTORE PUSH1 0x20 ADD PUSH1 0x14 DUP2 MSTORE PUSH1 0x20 ADD PUSH1 0x50 DUP2 MSTORE PUSH1 0x20 ADD PUSH1 0xC8 DUP2 MSTORE POP DUP2 MSTORE PUSH1 0x20 ADD PUSH1 0x40 MLOAD DUP1 PUSH1 0xA0 ADD PUSH1 0x40 MSTORE DUP1 PUSH1 0x0 DUP2 MSTORE PUSH1 0x20 ADD PUSH1 0x0 DUP2 MSTORE PUSH1 0x20 ADD PUSH1 0x28 DUP2 MSTORE PUSH1 0x20 ADD PUSH2 0x190 DUP2 MSTORE PUSH1 0x20 ADD PUSH2 0x7D0 DUP2 MSTORE POP DUP2 MSTORE PUSH1 0x20 ADD PUSH1 0x40 MLOAD DUP1 PUSH1 0xA0 ADD PUSH1 0x40 MSTORE DUP1 PUSH1 0x0 DUP2 MSTORE PUSH1 0x20 ADD PUSH1 0x8 DUP2 MSTORE PUSH1 0x20 ADD PUSH1 0xF DUP2 MSTORE PUSH1 0x20 ADD PUSH1 0x78 DUP2 MSTORE PUSH1 0x20 ADD PUSH2 0x1F4 DUP2 MSTORE POP DUP2 MSTORE PUSH1 0x20 ADD PUSH1 0x40 MLOAD DUP1 PUSH1 0xA0 ADD PUSH1 0x40 MSTORE DUP1 PUSH1 0x0 DUP2 MSTORE PUSH1 0x20 ADD PUSH1 0x2 DUP2 MSTORE PUSH1 0x20 ADD PUSH1 0x8 DUP2 MSTORE PUSH1 0x20 ADD PUSH1 0x14 DUP2 MSTORE PUSH1 0x20 ADD PUSH1 0x50 DUP2 MSTORE POP DUP2 MSTORE PUSH1 0x20 ADD PUSH1 0x40 MLOAD DUP1 PUSH1 0xA0 ADD PUSH1 0x40 MSTORE DUP1 PUSH1 0x0 DUP2 MSTORE PUSH1 0x20 ADD PUSH1 0x0 DUP2 MSTORE PUSH1 0x20 ADD PUSH1 0x8 DUP2 MSTORE PUSH1 0x20 ADD PUSH1 0x14 DUP2 MSTORE PUSH1 0x20 ADD PUSH1 0x50 DUP2 MSTORE POP DUP2 MSTORE PUSH1 0x20 ADD PUSH1 0x40 MLOAD DUP1 PUSH1 0xA0 ADD PUSH1 0x40 MSTORE DUP1 PUSH1 0x0 DUP2 MSTORE PUSH1 0x20 ADD PUSH1 0x0 DUP2 MSTORE PUSH1 0x20 ADD PUSH1 0x14 DUP2 MSTORE PUSH1 0x20 ADD PUSH1 0x50 DUP2 MSTORE PUSH1 0x20 ADD PUSH1 0xC8 DUP2 MSTORE POP DUP2 MSTORE PUSH1 0x20 ADD PUSH1 0x40 MLOAD DUP1 PUSH1 0xA0 ADD PUSH1 0x40 MSTORE DUP1 PUSH1 0x0 DUP2 MSTORE PUSH1 0x20 ADD PUSH1 0x0 DUP2 MSTORE PUSH1 0x20 ADD PUSH1 0x8 DUP2 MSTORE PUSH1 0x20 ADD PUSH1 0x14 DUP2 MSTORE PUSH1 0x20 ADD PUSH1 0x50 DUP2 MSTORE POP DUP2 MSTORE PUSH1 0x20 ADD PUSH1 0x40 MLOAD DUP1 PUSH1 0xA0 ADD PUSH1 0x40 MSTORE DUP1 PUSH1 0x0 DUP2 MSTORE PUSH1 0x20 ADD PUSH1 0x0 DUP2 MSTORE PUSH1 0x20 ADD PUSH1 0x14 DUP2 MSTORE PUSH1 0x20 ADD PUSH1 0xC8 DUP2 MSTORE PUSH1 0x20 ADD PUSH2 0x3E8 DUP2 MSTORE POP DUP2 MSTORE PUSH1 0x20 ADD PUSH1 0x40 MLOAD DUP1 PUSH1 0xA0 ADD PUSH1 0x40 MSTORE DUP1 PUSH1 0x0 DUP2 MSTORE PUSH1 0x20 ADD PUSH1 0x0 DUP2 MSTORE PUSH1 0x20 ADD PUSH1 0x2 DUP2 MSTORE PUSH1 0x20 ADD PUSH1 0x5 DUP2 MSTORE PUSH1 0x20 ADD PUSH1 0xF DUP2 MSTORE POP DUP2 MSTORE POP PUSH1 0xB SWAP1 PUSH1 0x9 PUSH3 0x4C5 SWAP3 SWAP2 SWAP1 PUSH3 0x66B JUMP JUMPDEST POP PUSH1 0x40 DUP1 MLOAD PUSH1 0xA0 DUP2 ADD DUP3 MSTORE PUSH3 0x186A0 DUP2 MSTORE PUSH2 0x2710 PUSH1 0x20 DUP3 ADD MSTORE PUSH2 0x3E8 SWAP2 DUP2 ADD SWAP2 SWAP1 SWAP2 MSTORE PUSH1 0x64 PUSH1 0x60 DUP3 ADD MSTORE PUSH1 0xA PUSH1 0x80 DUP3 ADD MSTORE PUSH3 0x506 SWAP1 PUSH1 0x38 SWAP1 PUSH1 0x5 PUSH3 0x6AB JUMP JUMPDEST POP PUSH1 0x40 DUP1 MLOAD PUSH1 0xA0 DUP2 ADD DUP3 MSTORE PUSH2 0x2710 DUP2 MSTORE PUSH2 0x3E8 PUSH1 0x20 DUP3 ADD MSTORE PUSH1 0x64 SWAP2 DUP2 ADD DUP3 SWAP1 MSTORE PUSH1 0x60 DUP2 ADD SWAP2 SWAP1 SWAP2 MSTORE PUSH1 0x1 PUSH1 0x80 DUP3 ADD MSTORE PUSH3 0x545 SWAP1 PUSH1 0x3D SWAP1 PUSH1 0x5 PUSH3 0x6F1 JUMP JUMPDEST POP PUSH1 0x0 PUSH1 0x42 DUP2 SWAP1 SSTORE PUSH1 0x43 DUP2 SWAP1 SSTORE PUSH1 0x44 SSTORE CALLVALUE DUP1 ISZERO PUSH3 0x562 JUMPI PUSH1 0x0 DUP1 REVERT JUMPDEST POP PUSH1 0x40 MLOAD PUSH3 0x2851 CODESIZE SUB DUP1 PUSH3 0x2851 DUP4 CODECOPY DUP2 ADD PUSH1 0x40 DUP2 SWAP1 MSTORE PUSH3 0x585 SWAP2 PUSH3 0x7D7 JUMP JUMPDEST PUSH3 0x590 CALLER PUSH3 0x5BA JUMP JUMPDEST PUSH1 0x5 DUP1 SLOAD PUSH1 0x1 PUSH1 0x1 PUSH1 0xA0 SHL SUB NOT AND PUSH1 0x1 PUSH1 0x1 PUSH1 0xA0 SHL SUB SWAP4 SWAP1 SWAP4 AND SWAP3 SWAP1 SWAP3 OR SWAP1 SWAP2 SSTORE PUSH1 0x6 SSTORE PUSH3 0x813 JUMP JUMPDEST PUSH1 0x0 DUP1 SLOAD PUSH1 0x1 PUSH1 0x1 PUSH1 0xA0 SHL SUB DUP4 DUP2 AND PUSH1 0x1 PUSH1 0x1 PUSH1 0xA0 SHL SUB NOT DUP4 AND DUP2 OR DUP5 SSTORE PUSH1 0x40 MLOAD SWAP2 SWAP1 SWAP3 AND SWAP3 DUP4 SWAP2 PUSH32 0x8BE0079C531659141344CD1FD0A4F28419497F9722A3DAAFE3B4186F6B6457E0 SWAP2 SWAP1 LOG3 POP POP JUMP JUMPDEST DUP3 DUP1 SLOAD DUP3 DUP3 SSTORE SWAP1 PUSH1 0x0 MSTORE PUSH1 0x20 PUSH1 0x0 KECCAK256 SWAP1 PUSH1 0x5 MUL DUP2 ADD SWAP3 DUP3 ISZERO PUSH3 0x659 JUMPI SWAP2 PUSH1 0x20 MUL DUP3 ADD JUMPDEST DUP3 DUP2 GT ISZERO PUSH3 0x659 JUMPI DUP3 MLOAD PUSH3 0x648 SWAP1 DUP4 SWAP1 PUSH1 0x5 PUSH3 0x728 JUMP JUMPDEST POP SWAP2 PUSH1 0x20 ADD SWAP2 SWAP1 PUSH1 0x5 ADD SWAP1 PUSH3 0x62E JUMP JUMPDEST POP PUSH3 0x667 SWAP3 SWAP2 POP PUSH3 0x75E JUMP JUMPDEST POP SWAP1 JUMP JUMPDEST PUSH1 0x2D DUP4 ADD SWAP2 DUP4 SWAP1 DUP3 ISZERO PUSH3 0x659 JUMPI SWAP2 PUSH1 0x20 MUL DUP3 ADD JUMPDEST DUP3 DUP2 GT ISZERO PUSH3 0x659 JUMPI DUP3 MLOAD PUSH3 0x69A SWAP1 DUP4 SWAP1 PUSH1 0x5 PUSH3 0x78F JUMP JUMPDEST POP SWAP2 PUSH1 0x20 ADD SWAP2 SWAP1 PUSH1 0x5 ADD SWAP1 PUSH3 0x680 JUMP JUMPDEST DUP3 PUSH1 0x5 DUP2 ADD SWAP3 DUP3 ISZERO PUSH3 0x6E3 JUMPI SWAP2 PUSH1 0x20 MUL DUP3 ADD JUMPDEST DUP3 DUP2 GT ISZERO PUSH3 0x6E3 JUMPI DUP3 MLOAD DUP3 SWAP1 PUSH3 0xFFFFFF AND SWAP1 SSTORE SWAP2 PUSH1 0x20 ADD SWAP2 SWAP1 PUSH1 0x1 ADD SWAP1 PUSH3 0x6BF JUMP JUMPDEST POP PUSH3 0x667 SWAP3 SWAP2 POP PUSH3 0x7C0 JUMP JUMPDEST DUP3 PUSH1 0x5 DUP2 ADD SWAP3 DUP3 ISZERO PUSH3 0x6E3 JUMPI SWAP2 PUSH1 0x20 MUL DUP3 ADD JUMPDEST DUP3 DUP2 GT ISZERO PUSH3 0x6E3 JUMPI DUP3 MLOAD DUP3 SWAP1 PUSH2 0xFFFF AND SWAP1 SSTORE SWAP2 PUSH1 0x20 ADD SWAP2 SWAP1 PUSH1 0x1 ADD SWAP1 PUSH3 0x705 JUMP JUMPDEST DUP3 PUSH1 0x5 DUP2 ADD SWAP3 DUP3 ISZERO PUSH3 0x6E3 JUMPI SWAP2 PUSH1 0x20 MUL DUP3 ADD JUMPDEST DUP3 DUP2 GT ISZERO PUSH3 0x6E3 JUMPI DUP3 MLOAD DUP3 SWAP1 PUSH1 0xFF AND SWAP1 SSTORE SWAP2 PUSH1 0x20 ADD SWAP2 SWAP1 PUSH1 0x1 ADD SWAP1 PUSH3 0x73C JUMP JUMPDEST DUP1 DUP3 GT ISZERO PUSH3 0x667 JUMPI PUSH1 0x0 DUP1 DUP3 SSTORE PUSH1 0x1 DUP3 ADD DUP2 SWAP1 SSTORE PUSH1 0x2 DUP3 ADD DUP2 SWAP1 SSTORE PUSH1 0x3 DUP3 ADD DUP2 SWAP1 SSTORE PUSH1 0x4 DUP3 ADD SSTORE PUSH1 0x5 ADD PUSH3 0x75E JUMP JUMPDEST DUP3 PUSH1 0x5 DUP2 ADD SWAP3 DUP3 ISZERO PUSH3 0x6E3 JUMPI SWAP2 PUSH1 0x20 MUL DUP3 ADD JUMPDEST DUP3 DUP2 GT ISZERO PUSH3 0x6E3 JUMPI DUP3 MLOAD DUP3 SSTORE SWAP2 PUSH1 0x20 ADD SWAP2 SWAP1 PUSH1 0x1 ADD SWAP1 PUSH3 0x7A3 JUMP JUMPDEST JUMPDEST DUP1 DUP3 GT ISZERO PUSH3 0x667 JUMPI PUSH1 0x0 DUP2 SSTORE PUSH1 0x1 ADD PUSH3 0x7C1 JUMP JUMPDEST PUSH1 0x0 DUP1 PUSH1 0x40 DUP4 DUP6 SUB SLT ISZERO PUSH3 0x7EB JUMPI PUSH1 0x0 DUP1 REVERT JUMPDEST DUP3 MLOAD PUSH1 0x1 PUSH1 0x1 PUSH1 0xA0 SHL SUB DUP2 AND DUP2 EQ PUSH3 0x803 JUMPI PUSH1 0x0 DUP1 REVERT JUMPDEST PUSH1 0x20 SWAP4 SWAP1 SWAP4 ADD MLOAD SWAP3 SWAP5 SWAP3 SWAP4 POP POP POP JUMP JUMPDEST PUSH2 0x202E DUP1 PUSH3 0x823 PUSH1 0x0 CODECOPY PUSH1 0x0 RETURN INVALID PUSH1 0x80 PUSH1 0x40 MSTORE CALLVALUE DUP1 ISZERO PUSH2 0x10 JUMPI PUSH1 0x0 DUP1 REVERT JUMPDEST POP PUSH1 0x4 CALLDATASIZE LT PUSH2 0x1CF JUMPI PUSH1 0x0 CALLDATALOAD PUSH1 0xE0 SHR DUP1 PUSH4 0x6F43022C GT PUSH2 0x104 JUMPI DUP1 PUSH4 0xA3E2E8CE GT PUSH2 0xA2 JUMPI DUP1 PUSH4 0xE9A4A03D GT PUSH2 0x71 JUMPI DUP1 PUSH4 0xE9A4A03D EQ PUSH2 0x3E0 JUMPI DUP1 PUSH4 0xF2FDE38B EQ PUSH2 0x3E8 JUMPI DUP1 PUSH4 0xF7E944EE EQ PUSH2 0x3FB JUMPI DUP1 PUSH4 0xFDA0EF89 EQ PUSH2 0x40E JUMPI PUSH1 0x0 DUP1 REVERT JUMPDEST DUP1 PUSH4 0xA3E2E8CE EQ PUSH2 0x392 JUMPI DUP1 PUSH4 0xD3F0A7CE EQ PUSH2 0x3A5 JUMPI DUP1 PUSH4 0xE3C7B05E EQ PUSH2 0x3BA JUMPI DUP1 PUSH4 0xE5A6B10F EQ PUSH2 0x3CD JUMPI PUSH1 0x0 DUP1 REVERT JUMPDEST DUP1 PUSH4 0x81B87E54 GT PUSH2 0xDE JUMPI DUP1 PUSH4 0x81B87E54 EQ PUSH2 0x353 JUMPI DUP1 PUSH4 0x881EFF1E EQ PUSH2 0x366 JUMPI DUP1 PUSH4 0x8D8F2ADB EQ PUSH2 0x379 JUMPI DUP1 PUSH4 0x8DA5CB5B EQ PUSH2 0x381 JUMPI PUSH1 0x0 DUP1 REVERT JUMPDEST DUP1 PUSH4 0x6F43022C EQ PUSH2 0x32F JUMPI DUP1 PUSH4 0x715018A6 EQ PUSH2 0x342 JUMPI DUP1 PUSH4 0x7FF9B596 EQ PUSH2 0x34A JUMPI PUSH1 0x0 DUP1 REVERT JUMPDEST DUP1 PUSH4 0x4AFA1905 GT PUSH2 0x171 JUMPI DUP1 PUSH4 0x6012CB19 GT PUSH2 0x14B JUMPI DUP1 PUSH4 0x6012CB19 EQ PUSH2 0x2DC JUMPI DUP1 PUSH4 0x646668B6 EQ PUSH2 0x2EF JUMPI DUP1 PUSH4 0x6945C1FD EQ PUSH2 0x2F7 JUMPI DUP1 PUSH4 0x6A61E5FC EQ PUSH2 0x31C JUMPI PUSH1 0x0 DUP1 REVERT JUMPDEST DUP1 PUSH4 0x4AFA1905 EQ PUSH2 0x2AC JUMPI DUP1 PUSH4 0x4B94F50E EQ PUSH2 0x2BF JUMPI DUP1 PUSH4 0x4C738909 EQ PUSH2 0x2C7 JUMPI PUSH1 0x0 DUP1 REVERT JUMPDEST DUP1 PUSH4 0x2F84C391 GT PUSH2 0x1AD JUMPI DUP1 PUSH4 0x2F84C391 EQ PUSH2 0x248 JUMPI DUP1 PUSH4 0x3610724E EQ PUSH2 0x25B JUMPI DUP1 PUSH4 0x4282CF54 EQ PUSH2 0x26E JUMPI DUP1 PUSH4 0x47734892 EQ PUSH2 0x283 JUMPI PUSH1 0x0 DUP1 REVERT JUMPDEST DUP1 PUSH4 0x9B9DD89 EQ PUSH2 0x1D4 JUMPI DUP1 PUSH4 0x17ADAA03 EQ PUSH2 0x1EB JUMPI DUP1 PUSH4 0x22526328 EQ PUSH2 0x233 JUMPI JUMPDEST PUSH1 0x0 DUP1 REVERT JUMPDEST PUSH1 0x9 SLOAD JUMPDEST PUSH1 0x40 MLOAD SWAP1 DUP2 MSTORE PUSH1 0x20 ADD JUMPDEST PUSH1 0x40 MLOAD DUP1 SWAP2 SUB SWAP1 RETURN JUMPDEST PUSH2 0x1FE PUSH2 0x1F9 CALLDATASIZE PUSH1 0x4 PUSH2 0x1B53 JUMP JUMPDEST PUSH2 0x416 JUMP JUMPDEST PUSH1 0x40 DUP1 MLOAD SWAP7 DUP8 MSTORE PUSH1 0x1 PUSH1 0x1 PUSH1 0xA0 SHL SUB SWAP1 SWAP6 AND PUSH1 0x20 DUP8 ADD MSTORE SWAP4 DUP6 ADD SWAP3 SWAP1 SWAP3 MSTORE PUSH1 0x60 DUP5 ADD MSTORE PUSH1 0x80 DUP4 ADD MSTORE PUSH1 0xA0 DUP3 ADD MSTORE PUSH1 0xC0 ADD PUSH2 0x1E2 JUMP JUMPDEST PUSH2 0x246 PUSH2 0x241 CALLDATASIZE PUSH1 0x4 PUSH2 0x1C76 JUMP JUMPDEST PUSH2 0x474 JUMP JUMPDEST STOP JUMPDEST PUSH2 0x246 PUSH2 0x256 CALLDATASIZE PUSH1 0x4 PUSH2 0x1B38 JUMP JUMPDEST PUSH2 0x49B JUMP JUMPDEST PUSH2 0x246 PUSH2 0x269 CALLDATASIZE PUSH1 0x4 PUSH2 0x1C76 JUMP JUMPDEST PUSH2 0x4C5 JUMP JUMPDEST PUSH2 0x276 PUSH2 0x706 JUMP JUMPDEST PUSH1 0x40 MLOAD PUSH2 0x1E2 SWAP2 SWAP1 PUSH2 0x1E31 JUMP JUMPDEST PUSH2 0x1D8 PUSH2 0x291 CALLDATASIZE PUSH1 0x4 PUSH2 0x1B38 JUMP JUMPDEST PUSH1 0x1 PUSH1 0x1 PUSH1 0xA0 SHL SUB AND PUSH1 0x0 SWAP1 DUP2 MSTORE PUSH1 0x4 PUSH1 0x20 MSTORE PUSH1 0x40 SWAP1 KECCAK256 SLOAD SWAP1 JUMP JUMPDEST PUSH2 0x246 PUSH2 0x2BA CALLDATASIZE PUSH1 0x4 PUSH2 0x1CD4 JUMP JUMPDEST PUSH2 0x784 JUMP JUMPDEST PUSH1 0x6 SLOAD PUSH2 0x1D8 JUMP JUMPDEST CALLER PUSH1 0x0 SWAP1 DUP2 MSTORE PUSH1 0x4 PUSH1 0x20 MSTORE PUSH1 0x40 SWAP1 KECCAK256 SLOAD PUSH2 0x1D8 JUMP JUMPDEST PUSH2 0x246 PUSH2 0x2EA CALLDATASIZE PUSH1 0x4 PUSH2 0x1C76 JUMP JUMPDEST PUSH2 0x7B6 JUMP JUMPDEST PUSH1 0x8 SLOAD PUSH2 0x1D8 JUMP JUMPDEST PUSH1 0x5 SLOAD PUSH1 0x1 PUSH1 0x1 PUSH1 0xA0 SHL SUB AND JUMPDEST PUSH1 0x40 MLOAD PUSH1 0x1 PUSH1 0x1 PUSH1 0xA0 SHL SUB SWAP1 SWAP2 AND DUP2 MSTORE PUSH1 0x20 ADD PUSH2 0x1E2 JUMP JUMPDEST PUSH2 0x246 PUSH2 0x32A CALLDATASIZE PUSH1 0x4 PUSH2 0x1C76 JUMP JUMPDEST PUSH2 0x7C3 JUMP JUMPDEST PUSH2 0x246 PUSH2 0x33D CALLDATASIZE PUSH1 0x4 PUSH2 0x1B9A JUMP JUMPDEST PUSH2 0x7D0 JUMP JUMPDEST PUSH2 0x246 PUSH2 0x7EF JUMP JUMPDEST PUSH2 0x1D8 PUSH1 0x6 SLOAD DUP2 JUMP JUMPDEST PUSH2 0x246 PUSH2 0x361 CALLDATASIZE PUSH1 0x4 PUSH2 0x1B7D JUMP JUMPDEST PUSH2 0x803 JUMP JUMPDEST PUSH2 0x246 PUSH2 0x374 CALLDATASIZE PUSH1 0x4 PUSH2 0x1C76 JUMP JUMPDEST PUSH2 0x818 JUMP JUMPDEST PUSH2 0x246 PUSH2 0x825 JUMP JUMPDEST PUSH1 0x0 SLOAD PUSH1 0x1 PUSH1 0x1 PUSH1 0xA0 SHL SUB AND PUSH2 0x304 JUMP JUMPDEST PUSH2 0x246 PUSH2 0x3A0 CALLDATASIZE PUSH1 0x4 PUSH2 0x1CA8 JUMP JUMPDEST PUSH2 0xA0A JUMP JUMPDEST PUSH2 0x3AD PUSH2 0xCF7 JUMP JUMPDEST PUSH1 0x40 MLOAD PUSH2 0x1E2 SWAP2 SWAP1 PUSH2 0x1DF4 JUMP JUMPDEST PUSH2 0x246 PUSH2 0x3C8 CALLDATASIZE PUSH1 0x4 PUSH2 0x1C76 JUMP JUMPDEST PUSH2 0xD5A JUMP JUMPDEST PUSH1 0x5 SLOAD PUSH2 0x304 SWAP1 PUSH1 0x1 PUSH1 0x1 PUSH1 0xA0 SHL SUB AND DUP2 JUMP JUMPDEST PUSH2 0x1D8 PUSH2 0xD67 JUMP JUMPDEST PUSH2 0x246 PUSH2 0x3F6 CALLDATASIZE PUSH1 0x4 PUSH2 0x1B38 JUMP JUMPDEST PUSH2 0xDFE JUMP JUMPDEST PUSH2 0x246 PUSH2 0x409 CALLDATASIZE PUSH1 0x4 PUSH2 0x1C76 JUMP JUMPDEST PUSH2 0xE77 JUMP JUMPDEST PUSH1 0x7 SLOAD PUSH2 0x1D8 JUMP JUMPDEST PUSH1 0x1 PUSH1 0x20 MSTORE DUP2 PUSH1 0x0 MSTORE PUSH1 0x40 PUSH1 0x0 KECCAK256 DUP2 DUP2 SLOAD DUP2 LT PUSH2 0x432 JUMPI PUSH1 0x0 DUP1 REVERT JUMPDEST PUSH1 0x0 SWAP2 DUP3 MSTORE PUSH1 0x20 SWAP1 SWAP2 KECCAK256 PUSH1 0xB SWAP1 SWAP2 MUL ADD DUP1 SLOAD PUSH1 0x1 DUP3 ADD SLOAD PUSH1 0x2 DUP4 ADD SLOAD PUSH1 0x3 DUP5 ADD SLOAD PUSH1 0x4 DUP6 ADD SLOAD PUSH1 0xA SWAP1 SWAP6 ADD SLOAD SWAP4 SWAP7 POP PUSH1 0x1 PUSH1 0x1 PUSH1 0xA0 SHL SUB SWAP1 SWAP3 AND SWAP5 POP SWAP3 SWAP1 SWAP2 DUP7 JUMP JUMPDEST CALLER PUSH1 0x0 SWAP1 DUP2 MSTORE PUSH1 0x4 PUSH1 0x20 MSTORE PUSH1 0x40 DUP2 KECCAK256 DUP1 SLOAD DUP4 SWAP3 SWAP1 PUSH2 0x493 SWAP1 DUP5 SWAP1 PUSH2 0x1EE3 JUMP JUMPDEST SWAP1 SWAP2 SSTORE POP POP POP JUMP JUMPDEST PUSH2 0x4A3 PUSH2 0xEE5 JUMP JUMPDEST PUSH1 0x5 DUP1 SLOAD PUSH1 0x1 PUSH1 0x1 PUSH1 0xA0 SHL SUB NOT AND PUSH1 0x1 PUSH1 0x1 PUSH1 0xA0 SHL SUB SWAP3 SWAP1 SWAP3 AND SWAP2 SWAP1 SWAP2 OR SWAP1 SSTORE JUMP JUMPDEST PUSH1 0x0 PUSH1 0x6 SLOAD DUP3 PUSH2 0x4D5 SWAP2 SWAP1 PUSH2 0x1F0F JUMP JUMPDEST PUSH1 0x5 SLOAD PUSH1 0x40 MLOAD PUSH4 0x70A08231 PUSH1 0xE0 SHL DUP2 MSTORE CALLER PUSH1 0x4 DUP3 ADD MSTORE SWAP2 SWAP3 POP PUSH1 0x0 SWAP2 PUSH1 0x1 PUSH1 0x1 PUSH1 0xA0 SHL SUB SWAP1 SWAP2 AND SWAP1 PUSH4 0x70A08231 SWAP1 PUSH1 0x24 ADD PUSH1 0x20 PUSH1 0x40 MLOAD DUP1 DUP4 SUB DUP2 DUP7 DUP1 EXTCODESIZE ISZERO DUP1 ISZERO PUSH2 0x51E JUMPI PUSH1 0x0 DUP1 REVERT JUMPDEST POP GAS STATICCALL ISZERO DUP1 ISZERO PUSH2 0x532 JUMPI RETURNDATASIZE PUSH1 0x0 DUP1 RETURNDATACOPY RETURNDATASIZE PUSH1 0x0 REVERT JUMPDEST POP POP POP POP PUSH1 0x40 MLOAD RETURNDATASIZE PUSH1 0x1F NOT PUSH1 0x1F DUP3 ADD AND DUP3 ADD DUP1 PUSH1 0x40 MSTORE POP DUP2 ADD SWAP1 PUSH2 0x556 SWAP2 SWAP1 PUSH2 0x1C8F JUMP JUMPDEST SWAP1 POP DUP2 DUP2 LT ISZERO PUSH2 0x5CA JUMPI PUSH1 0x40 MLOAD PUSH3 0x461BCD PUSH1 0xE5 SHL DUP2 MSTORE PUSH1 0x20 PUSH1 0x4 DUP3 ADD MSTORE PUSH1 0x34 PUSH1 0x24 DUP3 ADD MSTORE PUSH32 0x596F7520646F206E6F74206861766520656E6F75676820746F6B656E73206F6E PUSH1 0x44 DUP3 ADD MSTORE PUSH20 0x20796F75722062616C616E636520746F20706179 PUSH1 0x60 SHL PUSH1 0x64 DUP3 ADD MSTORE PUSH1 0x84 ADD JUMPDEST PUSH1 0x40 MLOAD DUP1 SWAP2 SUB SWAP1 REVERT JUMPDEST PUSH1 0x5 SLOAD PUSH1 0x40 MLOAD PUSH4 0x6EB1769F PUSH1 0xE1 SHL DUP2 MSTORE CALLER PUSH1 0x4 DUP3 ADD MSTORE ADDRESS PUSH1 0x24 DUP3 ADD MSTORE PUSH1 0x0 SWAP2 PUSH1 0x1 PUSH1 0x1 PUSH1 0xA0 SHL SUB AND SWAP1 PUSH4 0xDD62ED3E SWAP1 PUSH1 0x44 ADD PUSH1 0x20 PUSH1 0x40 MLOAD DUP1 DUP4 SUB DUP2 DUP7 DUP1 EXTCODESIZE ISZERO DUP1 ISZERO PUSH2 0x614 JUMPI PUSH1 0x0 DUP1 REVERT JUMPDEST POP GAS STATICCALL ISZERO DUP1 ISZERO PUSH2 0x628 JUMPI RETURNDATASIZE PUSH1 0x0 DUP1 RETURNDATACOPY RETURNDATASIZE PUSH1 0x0 REVERT JUMPDEST POP POP POP POP PUSH1 0x40 MLOAD RETURNDATASIZE PUSH1 0x1F NOT PUSH1 0x1F DUP3 ADD AND DUP3 ADD DUP1 PUSH1 0x40 MSTORE POP DUP2 ADD SWAP1 PUSH2 0x64C SWAP2 SWAP1 PUSH2 0x1C8F JUMP JUMPDEST SWAP1 POP DUP3 DUP2 LT ISZERO PUSH2 0x6C4 JUMPI PUSH1 0x40 MLOAD PUSH3 0x461BCD PUSH1 0xE5 SHL DUP2 MSTORE PUSH1 0x20 PUSH1 0x4 DUP3 ADD MSTORE PUSH1 0x3A PUSH1 0x24 DUP3 ADD MSTORE PUSH32 0x596F7520646964206E6F7420616C6C6F772074686520636F6E74726163742074 PUSH1 0x44 DUP3 ADD MSTORE PUSH32 0x6F2073656E642074686520707572636861736520616D6F756E74000000000000 PUSH1 0x64 DUP3 ADD MSTORE PUSH1 0x84 ADD PUSH2 0x5C1 JUMP JUMPDEST PUSH1 0x5 SLOAD PUSH2 0x6DC SWAP1 PUSH1 0x1 PUSH1 0x1 PUSH1 0xA0 SHL SUB AND CALLER ADDRESS DUP7 PUSH2 0xF3F JUMP JUMPDEST CALLER PUSH1 0x0 SWAP1 DUP2 MSTORE PUSH1 0x4 PUSH1 0x20 MSTORE PUSH1 0x40 DUP2 KECCAK256 DUP1 SLOAD DUP7 SWAP3 SWAP1 PUSH2 0x6FB SWAP1 DUP5 SWAP1 PUSH2 0x1EE3 JUMP JUMPDEST SWAP1 SWAP2 SSTORE POP POP POP POP POP POP JUMP JUMPDEST PUSH1 0x60 PUSH1 0xA DUP1 SLOAD DUP1 PUSH1 0x20 MUL PUSH1 0x20 ADD PUSH1 0x40 MLOAD SWAP1 DUP2 ADD PUSH1 0x40 MSTORE DUP1 SWAP3 SWAP2 SWAP1 DUP2 DUP2 MSTORE PUSH1 0x20 ADD PUSH1 0x0 SWAP1 JUMPDEST DUP3 DUP3 LT ISZERO PUSH2 0x77B JUMPI PUSH1 0x0 DUP5 DUP2 MSTORE PUSH1 0x20 SWAP1 KECCAK256 PUSH1 0x40 DUP1 MLOAD PUSH1 0xA0 DUP2 ADD SWAP2 DUP3 SWAP1 MSTORE SWAP2 PUSH1 0x5 DUP6 DUP2 MUL SWAP1 SWAP2 ADD SWAP2 DUP3 DUP5 JUMPDEST DUP2 SLOAD DUP2 MSTORE PUSH1 0x20 ADD SWAP1 PUSH1 0x1 ADD SWAP1 DUP1 DUP4 GT PUSH2 0x754 JUMPI POP POP POP POP POP DUP2 MSTORE PUSH1 0x20 ADD SWAP1 PUSH1 0x1 ADD SWAP1 PUSH2 0x72A JUMP JUMPDEST POP POP POP POP SWAP1 POP SWAP1 JUMP JUMPDEST PUSH2 0x78C PUSH2 0xEE5 JUMP JUMPDEST PUSH1 0x6 DUP6 SWAP1 SSTORE PUSH1 0x8 DUP5 SWAP1 SSTORE PUSH1 0x9 DUP4 DUP2 SSTORE PUSH1 0x7 DUP4 SWAP1 SSTORE PUSH2 0x7AE SWAP1 PUSH1 0xB SWAP1 DUP4 SWAP1 PUSH2 0x1883 JUMP JUMPDEST POP POP POP POP POP POP JUMP JUMPDEST PUSH2 0x7BE PUSH2 0xEE5 JUMP JUMPDEST PUSH1 0x9 SSTORE JUMP JUMPDEST PUSH2 0x7CB PUSH2 0xEE5 JUMP JUMPDEST PUSH1 0x6 SSTORE JUMP JUMPDEST PUSH2 0x7D8 PUSH2 0xEE5 JUMP JUMPDEST DUP1 MLOAD PUSH2 0x7EB SWAP1 PUSH1 0xA SWAP1 PUSH1 0x20 DUP5 ADD SWAP1 PUSH2 0x18CE JUMP JUMPDEST POP POP JUMP JUMPDEST PUSH2 0x7F7 PUSH2 0xEE5 JUMP JUMPDEST PUSH2 0x801 PUSH1 0x0 PUSH2 0xF9F JUMP JUMPDEST JUMP JUMPDEST PUSH2 0x80B PUSH2 0xEE5 JUMP JUMPDEST PUSH2 0x7EB PUSH1 0xB DUP3 PUSH1 0x9 PUSH2 0x1883 JUMP JUMPDEST PUSH2 0x820 PUSH2 0xEE5 JUMP JUMPDEST PUSH1 0x8 SSTORE JUMP JUMPDEST CALLER PUSH1 0x0 SWAP1 DUP2 MSTORE PUSH1 0x4 PUSH1 0x20 MSTORE PUSH1 0x40 SWAP1 KECCAK256 SLOAD PUSH2 0x881 JUMPI PUSH1 0x40 MLOAD PUSH3 0x461BCD PUSH1 0xE5 SHL DUP2 MSTORE PUSH1 0x20 PUSH1 0x4 DUP3 ADD MSTORE PUSH1 0x1E PUSH1 0x24 DUP3 ADD MSTORE PUSH32 0x4E6F7420656E6F75746820746F6B656E7320666F722077697468647261770000 PUSH1 0x44 DUP3 ADD MSTORE PUSH1 0x64 ADD PUSH2 0x5C1 JUMP JUMPDEST PUSH1 0x6 SLOAD CALLER PUSH1 0x0 SWAP1 DUP2 MSTORE PUSH1 0x4 PUSH1 0x20 MSTORE PUSH1 0x40 DUP2 KECCAK256 SLOAD SWAP1 SWAP2 PUSH2 0x89F SWAP2 PUSH2 0x1F0F JUMP JUMPDEST PUSH1 0x5 SLOAD PUSH1 0x40 MLOAD PUSH4 0x70A08231 PUSH1 0xE0 SHL DUP2 MSTORE ADDRESS PUSH1 0x4 DUP3 ADD MSTORE SWAP2 SWAP3 POP PUSH1 0x0 SWAP2 PUSH1 0x1 PUSH1 0x1 PUSH1 0xA0 SHL SUB SWAP1 SWAP2 AND SWAP1 PUSH4 0x70A08231 SWAP1 PUSH1 0x24 ADD PUSH1 0x20 PUSH1 0x40 MLOAD DUP1 DUP4 SUB DUP2 DUP7 DUP1 EXTCODESIZE ISZERO DUP1 ISZERO PUSH2 0x8E8 JUMPI PUSH1 0x0 DUP1 REVERT JUMPDEST POP GAS STATICCALL ISZERO DUP1 ISZERO PUSH2 0x8FC JUMPI RETURNDATASIZE PUSH1 0x0 DUP1 RETURNDATACOPY RETURNDATASIZE PUSH1 0x0 REVERT JUMPDEST POP POP POP POP PUSH1 0x40 MLOAD RETURNDATASIZE PUSH1 0x1F NOT PUSH1 0x1F DUP3 ADD AND DUP3 ADD DUP1 PUSH1 0x40 MSTORE POP DUP2 ADD SWAP1 PUSH2 0x920 SWAP2 SWAP1 PUSH2 0x1C8F JUMP JUMPDEST SWAP1 POP DUP2 DUP2 GT PUSH2 0x971 JUMPI PUSH1 0x40 MLOAD PUSH3 0x461BCD PUSH1 0xE5 SHL DUP2 MSTORE PUSH1 0x20 PUSH1 0x4 DUP3 ADD MSTORE PUSH1 0x19 PUSH1 0x24 DUP3 ADD MSTORE PUSH32 0x4E6F7420656E6F75746820746F6B656E7320696E2062616E6B00000000000000 PUSH1 0x44 DUP3 ADD MSTORE PUSH1 0x64 ADD PUSH2 0x5C1 JUMP JUMPDEST PUSH1 0x5 SLOAD PUSH1 0x40 MLOAD PUSH4 0xA9059CBB PUSH1 0xE0 SHL DUP2 MSTORE CALLER PUSH1 0x4 DUP3 ADD MSTORE PUSH1 0x24 DUP2 ADD DUP5 SWAP1 MSTORE PUSH1 0x1 PUSH1 0x1 PUSH1 0xA0 SHL SUB SWAP1 SWAP2 AND SWAP1 PUSH4 0xA9059CBB SWAP1 PUSH1 0x44 ADD PUSH1 0x20 PUSH1 0x40 MLOAD DUP1 DUP4 SUB DUP2 PUSH1 0x0 DUP8 DUP1 EXTCODESIZE ISZERO DUP1 ISZERO PUSH2 0x9BD JUMPI PUSH1 0x0 DUP1 REVERT JUMPDEST POP GAS CALL ISZERO DUP1 ISZERO PUSH2 0x9D1 JUMPI RETURNDATASIZE PUSH1 0x0 DUP1 RETURNDATACOPY RETURNDATASIZE PUSH1 0x0 REVERT JUMPDEST POP POP POP POP PUSH1 0x40 MLOAD RETURNDATASIZE PUSH1 0x1F NOT PUSH1 0x1F DUP3 ADD AND DUP3 ADD DUP1 PUSH1 0x40 MSTORE POP DUP2 ADD SWAP1 PUSH2 0x9F5 SWAP2 SWAP1 PUSH2 0x1C54 JUMP JUMPDEST POP POP CALLER PUSH1 0x0 SWAP1 DUP2 MSTORE PUSH1 0x4 PUSH1 0x20 MSTORE PUSH1 0x40 DUP2 KECCAK256 SSTORE POP JUMP JUMPDEST PUSH1 0x0 PUSH2 0xA17 DUP4 PUSH1 0x1 PUSH2 0x1EE3 JUMP JUMPDEST PUSH2 0xA21 SWAP1 DUP6 PUSH2 0x1F0F JUMP JUMPDEST CALLER PUSH1 0x0 SWAP1 DUP2 MSTORE PUSH1 0x4 PUSH1 0x20 MSTORE PUSH1 0x40 SWAP1 KECCAK256 SLOAD SWAP1 SWAP2 POP DUP2 GT ISZERO PUSH2 0xA79 JUMPI PUSH1 0x40 MLOAD PUSH3 0x461BCD PUSH1 0xE5 SHL DUP2 MSTORE PUSH1 0x20 PUSH1 0x4 DUP3 ADD MSTORE PUSH1 0x13 PUSH1 0x24 DUP3 ADD MSTORE PUSH19 0x10985B185B98D9481B9BDD08195B9BDD59DA1D PUSH1 0x6A SHL PUSH1 0x44 DUP3 ADD MSTORE PUSH1 0x64 ADD PUSH2 0x5C1 JUMP JUMPDEST PUSH1 0xA SLOAD DUP4 LT PUSH2 0xABB JUMPI PUSH1 0x40 MLOAD PUSH3 0x461BCD PUSH1 0xE5 SHL DUP2 MSTORE PUSH1 0x20 PUSH1 0x4 DUP3 ADD MSTORE PUSH1 0xE PUSH1 0x24 DUP3 ADD MSTORE PUSH14 0x546F6F206D616E79206C696E6573 PUSH1 0x90 SHL PUSH1 0x44 DUP3 ADD MSTORE PUSH1 0x64 ADD PUSH2 0x5C1 JUMP JUMPDEST PUSH2 0xAC9 PUSH1 0x2 DUP1 SLOAD PUSH1 0x1 ADD SWAP1 SSTORE JUMP JUMPDEST PUSH1 0x0 PUSH2 0xAD4 PUSH1 0x2 SLOAD SWAP1 JUMP JUMPDEST SWAP1 POP PUSH1 0x0 PUSH2 0xAE1 DUP5 PUSH2 0xFEF JUMP JUMPDEST SWAP1 POP PUSH1 0x0 DUP1 PUSH1 0x0 PUSH2 0xAF0 PUSH2 0x1918 JUMP JUMPDEST PUSH2 0xAF8 PUSH2 0x1918 JUMP JUMPDEST PUSH1 0x0 DUP1 JUMPDEST DUP12 DUP2 LT ISZERO PUSH2 0xB85 JUMPI PUSH1 0x0 DUP1 PUSH2 0xB11 DUP4 DUP12 PUSH2 0x125A JUMP JUMPDEST SWAP1 SWAP3 POP SWAP1 POP PUSH2 0xB20 DUP16 DUP4 PUSH2 0x1F0F JUMP JUMPDEST SWAP2 POP PUSH2 0xB2C DUP3 DUP6 PUSH2 0x1EE3 JUMP JUMPDEST SWAP4 POP DUP2 DUP7 DUP5 PUSH1 0x14 DUP2 LT PUSH2 0xB41 JUMPI PUSH2 0xB41 PUSH2 0x1FCC JUMP JUMPDEST PUSH1 0x20 MUL ADD MSTORE DUP1 DUP6 DUP5 PUSH1 0x14 DUP2 LT PUSH2 0xB59 JUMPI PUSH2 0xB59 PUSH2 0x1FCC JUMP JUMPDEST PUSH1 0x20 MUL ADD MSTORE DUP8 DUP3 GT ISZERO PUSH2 0xB70 JUMPI DUP3 SWAP9 POP DUP2 SWAP8 POP DUP1 SWAP7 POP JUMPDEST POP POP DUP1 DUP1 PUSH2 0xB7D SWAP1 PUSH2 0x1F71 JUMP JUMPDEST SWAP2 POP POP PUSH2 0xAFC JUMP JUMPDEST POP CALLER PUSH1 0x0 SWAP1 DUP2 MSTORE PUSH1 0x4 PUSH1 0x20 MSTORE PUSH1 0x40 SWAP1 KECCAK256 SLOAD DUP2 SWAP1 PUSH2 0xBA3 SWAP1 DUP12 SWAP1 PUSH2 0x1F2E JUMP JUMPDEST PUSH2 0xBAD SWAP2 SWAP1 PUSH2 0x1EE3 JUMP JUMPDEST CALLER PUSH1 0x0 DUP2 DUP2 MSTORE PUSH1 0x4 PUSH1 0x20 SWAP1 DUP2 MSTORE PUSH1 0x40 DUP1 DUP4 KECCAK256 SWAP5 SWAP1 SWAP5 SSTORE PUSH1 0x1 DUP1 DUP3 MSTORE SWAP2 DUP5 SWAP1 KECCAK256 DUP5 MLOAD PUSH1 0xE0 DUP2 ADD DUP7 MSTORE DUP14 DUP2 MSTORE SWAP2 DUP3 ADD SWAP4 SWAP1 SWAP4 MSTORE SWAP3 DUP4 ADD DUP16 SWAP1 MSTORE TIMESTAMP PUSH1 0x60 DUP5 ADD MSTORE PUSH1 0x80 DUP4 ADD DUP15 SWAP1 MSTORE SWAP1 SWAP2 SWAP1 PUSH1 0xA0 DUP3 ADD SWAP1 DUP11 SWAP1 PUSH1 0x20 SWAP1 DUP2 MUL SWAP2 SWAP1 SWAP2 ADD MLOAD DUP3 MSTORE SWAP1 DUP2 ADD DUP5 SWAP1 MSTORE DUP3 SLOAD PUSH1 0x1 DUP1 DUP3 ADD DUP6 SSTORE PUSH1 0x0 SWAP5 DUP6 MSTORE SWAP4 DUP3 SWAP1 KECCAK256 DUP4 MLOAD PUSH1 0xB SWAP1 SWAP3 MUL ADD SWAP1 DUP2 SSTORE SWAP1 DUP3 ADD MLOAD SWAP3 DUP2 ADD DUP1 SLOAD PUSH1 0x1 PUSH1 0x1 PUSH1 0xA0 SHL SUB NOT AND PUSH1 0x1 PUSH1 0x1 PUSH1 0xA0 SHL SUB SWAP1 SWAP5 AND SWAP4 SWAP1 SWAP4 OR SWAP1 SWAP3 SSTORE PUSH1 0x40 DUP2 ADD MLOAD PUSH1 0x2 DUP4 ADD SSTORE PUSH1 0x60 DUP2 ADD MLOAD PUSH1 0x3 DUP4 ADD SSTORE PUSH1 0x80 DUP2 ADD MLOAD PUSH1 0x4 DUP4 ADD SSTORE PUSH1 0xA0 DUP2 ADD MLOAD SWAP1 SWAP2 SWAP1 PUSH2 0xC85 SWAP1 PUSH1 0x5 DUP1 DUP5 ADD SWAP2 SWAP1 PUSH2 0x1937 JUMP JUMPDEST POP PUSH1 0xC0 SWAP2 SWAP1 SWAP2 ADD MLOAD PUSH1 0xA SWAP1 SWAP2 ADD SSTORE PUSH32 0x6C98C6AD5E22111183C867670BEAD07208DBD3ABA882D6BD87ADBBBDB645D59A CALLER DUP14 PUSH2 0xCC1 DUP15 PUSH1 0x1 PUSH2 0x1EE3 JUMP JUMPDEST PUSH1 0x20 DUP12 ADD MLOAD PUSH1 0x40 MLOAD PUSH2 0xCE1 SWAP5 SWAP4 SWAP3 SWAP2 DUP8 SWAP2 DUP11 SWAP1 DUP11 SWAP1 DUP16 SWAP1 DUP16 SWAP1 DUP16 SWAP1 PUSH2 0x1D81 JUMP JUMPDEST PUSH1 0x40 MLOAD DUP1 SWAP2 SUB SWAP1 LOG1 POP POP POP POP POP POP POP POP POP POP POP POP JUMP JUMPDEST PUSH2 0xCFF PUSH2 0x1971 JUMP JUMPDEST PUSH1 0x40 DUP1 MLOAD PUSH2 0x120 DUP2 ADD SWAP1 SWAP2 MSTORE PUSH1 0xB PUSH1 0x9 PUSH1 0x0 DUP4 JUMPDEST DUP3 DUP3 LT ISZERO PUSH2 0x77B JUMPI PUSH1 0x40 DUP1 MLOAD PUSH1 0xA0 DUP2 ADD SWAP2 DUP3 SWAP1 MSTORE SWAP1 PUSH1 0x5 DUP5 DUP2 MUL DUP8 ADD SWAP2 DUP3 DUP5 JUMPDEST DUP2 SLOAD DUP2 MSTORE PUSH1 0x20 ADD SWAP1 PUSH1 0x1 ADD SWAP1 DUP1 DUP4 GT PUSH2 0xD33 JUMPI POP POP POP POP POP DUP2 MSTORE PUSH1 0x20 ADD SWAP1 PUSH1 0x1 ADD SWAP1 PUSH2 0xD13 JUMP JUMPDEST PUSH2 0xD62 PUSH2 0xEE5 JUMP JUMPDEST PUSH1 0x7 SSTORE JUMP JUMPDEST PUSH1 0x5 SLOAD PUSH1 0x40 MLOAD PUSH4 0x70A08231 PUSH1 0xE0 SHL DUP2 MSTORE ADDRESS PUSH1 0x4 DUP3 ADD MSTORE PUSH1 0x0 SWAP2 DUP3 SWAP2 PUSH1 0x1 PUSH1 0x1 PUSH1 0xA0 SHL SUB SWAP1 SWAP2 AND SWAP1 PUSH4 0x70A08231 SWAP1 PUSH1 0x24 ADD PUSH1 0x20 PUSH1 0x40 MLOAD DUP1 DUP4 SUB DUP2 DUP7 DUP1 EXTCODESIZE ISZERO DUP1 ISZERO PUSH2 0xDAF JUMPI PUSH1 0x0 DUP1 REVERT JUMPDEST POP GAS STATICCALL ISZERO DUP1 ISZERO PUSH2 0xDC3 JUMPI RETURNDATASIZE PUSH1 0x0 DUP1 RETURNDATACOPY RETURNDATASIZE PUSH1 0x0 REVERT JUMPDEST POP POP POP POP PUSH1 0x40 MLOAD RETURNDATASIZE PUSH1 0x1F NOT PUSH1 0x1F DUP3 ADD AND DUP3 ADD DUP1 PUSH1 0x40 MSTORE POP DUP2 ADD SWAP1 PUSH2 0xDE7 SWAP2 SWAP1 PUSH2 0x1C8F JUMP JUMPDEST SWAP1 POP PUSH1 0x0 PUSH2 0xDF7 DUP3 PUSH1 0x6 SLOAD PUSH2 0x1558 JUMP JUMPDEST SWAP4 SWAP3 POP POP POP JUMP JUMPDEST PUSH2 0xE06 PUSH2 0xEE5 JUMP JUMPDEST PUSH1 0x1 PUSH1 0x1 PUSH1 0xA0 SHL SUB DUP2 AND PUSH2 0xE6B JUMPI PUSH1 0x40 MLOAD PUSH3 0x461BCD PUSH1 0xE5 SHL DUP2 MSTORE PUSH1 0x20 PUSH1 0x4 DUP3 ADD MSTORE PUSH1 0x26 PUSH1 0x24 DUP3 ADD MSTORE PUSH32 0x4F776E61626C653A206E6577206F776E657220697320746865207A65726F2061 PUSH1 0x44 DUP3 ADD MSTORE PUSH6 0x646472657373 PUSH1 0xD0 SHL PUSH1 0x64 DUP3 ADD MSTORE PUSH1 0x84 ADD PUSH2 0x5C1 JUMP JUMPDEST PUSH2 0xE74 DUP2 PUSH2 0xF9F JUMP JUMPDEST POP JUMP JUMPDEST PUSH2 0xE7F PUSH2 0xEE5 JUMP JUMPDEST PUSH1 0x0 TIMESTAMP PUSH1 0x42 SLOAD PUSH1 0x44 SLOAD PUSH1 0x43 SLOAD DUP6 PUSH2 0xE95 PUSH1 0x2 SLOAD SWAP1 JUMP JUMPDEST PUSH1 0x40 DUP1 MLOAD PUSH1 0x20 DUP2 ADD SWAP8 SWAP1 SWAP8 MSTORE DUP7 ADD SWAP5 SWAP1 SWAP5 MSTORE PUSH1 0x60 DUP6 ADD SWAP3 SWAP1 SWAP3 MSTORE PUSH1 0x80 DUP5 ADD MSTORE PUSH1 0xA0 DUP4 ADD MSTORE PUSH1 0xC0 DUP3 ADD MSTORE PUSH1 0xE0 ADD PUSH1 0x40 DUP1 MLOAD PUSH1 0x1F NOT DUP2 DUP5 SUB ADD DUP2 MSTORE SWAP2 SWAP1 MSTORE DUP1 MLOAD PUSH1 0x20 SWAP1 SWAP2 ADD KECCAK256 PUSH1 0x43 DUP1 SLOAD PUSH1 0x44 SSTORE SSTORE POP POP JUMP JUMPDEST PUSH1 0x0 SLOAD PUSH1 0x1 PUSH1 0x1 PUSH1 0xA0 SHL SUB AND CALLER EQ PUSH2 0x801 JUMPI PUSH1 0x40 MLOAD PUSH3 0x461BCD PUSH1 0xE5 SHL DUP2 MSTORE PUSH1 0x20 PUSH1 0x4 DUP3 ADD DUP2 SWAP1 MSTORE PUSH1 0x24 DUP3 ADD MSTORE PUSH32 0x4F776E61626C653A2063616C6C6572206973206E6F7420746865206F776E6572 PUSH1 0x44 DUP3 ADD MSTORE PUSH1 0x64 ADD PUSH2 0x5C1 JUMP JUMPDEST PUSH1 0x40 DUP1 MLOAD PUSH1 0x1 PUSH1 0x1 PUSH1 0xA0 SHL SUB DUP6 DUP2 AND PUSH1 0x24 DUP4 ADD MSTORE DUP5 AND PUSH1 0x44 DUP3 ADD MSTORE PUSH1 0x64 DUP1 DUP3 ADD DUP5 SWAP1 MSTORE DUP3 MLOAD DUP1 DUP4 SUB SWAP1 SWAP2 ADD DUP2 MSTORE PUSH1 0x84 SWAP1 SWAP2 ADD SWAP1 SWAP2 MSTORE PUSH1 0x20 DUP2 ADD DUP1 MLOAD PUSH1 0x1 PUSH1 0x1 PUSH1 0xE0 SHL SUB AND PUSH4 0x23B872DD PUSH1 0xE0 SHL OR SWAP1 MSTORE PUSH2 0xF99 SWAP1 DUP6 SWAP1 PUSH2 0x1564 JUMP JUMPDEST POP POP POP POP JUMP JUMPDEST PUSH1 0x0 DUP1 SLOAD PUSH1 0x1 PUSH1 0x1 PUSH1 0xA0 SHL SUB DUP4 DUP2 AND PUSH1 0x1 PUSH1 0x1 PUSH1 0xA0 SHL SUB NOT DUP4 AND DUP2 OR DUP5 SSTORE PUSH1 0x40 MLOAD SWAP2 SWAP1 SWAP3 AND SWAP3 DUP4 SWAP2 PUSH32 0x8BE0079C531659141344CD1FD0A4F28419497F9722A3DAAFE3B4186F6B6457E0 SWAP2 SWAP1 LOG3 POP POP JUMP JUMPDEST PUSH2 0xFF7 PUSH2 0x199F JUMP JUMPDEST PUSH1 0x0 PUSH2 0x1002 DUP4 PUSH2 0x163B JUMP JUMPDEST SWAP1 POP PUSH1 0x0 PUSH2 0x1013 PUSH3 0x186A0 DUP4 PUSH2 0x1F8C JUMP JUMPDEST PUSH2 0x1020 SWAP1 PUSH3 0x186A0 PUSH2 0x1EE3 JUMP JUMPDEST SWAP1 POP PUSH1 0x0 DUP1 PUSH1 0x0 PUSH1 0x40 MLOAD DUP1 PUSH1 0x60 ADD PUSH1 0x40 MSTORE DUP1 PUSH1 0x40 MLOAD DUP1 PUSH1 0xA0 ADD PUSH1 0x40 MSTORE DUP1 PUSH1 0x0 DUP2 MSTORE PUSH1 0x20 ADD PUSH1 0x0 DUP2 MSTORE PUSH1 0x20 ADD PUSH1 0x0 DUP2 MSTORE PUSH1 0x20 ADD PUSH1 0x0 DUP2 MSTORE PUSH1 0x20 ADD PUSH1 0x0 DUP2 MSTORE POP DUP2 MSTORE PUSH1 0x20 ADD PUSH1 0x40 MLOAD DUP1 PUSH1 0xA0 ADD PUSH1 0x40 MSTORE DUP1 PUSH1 0x3D PUSH1 0x0 PUSH1 0x5 DUP2 LT PUSH2 0x1082 JUMPI PUSH2 0x1082 PUSH2 0x1FCC JUMP JUMPDEST ADD SLOAD PUSH1 0x38 SLOAD PUSH2 0x1097 SWAP1 PUSH4 0xFFFFFFFF DUP12 AND PUSH2 0x1F8C JUMP JUMPDEST PUSH2 0x10A1 SWAP2 SWAP1 PUSH2 0x1EFB JUMP JUMPDEST DUP2 MSTORE PUSH1 0x3E SLOAD PUSH1 0x39 SLOAD PUSH1 0x20 SWAP1 SWAP3 ADD SWAP2 PUSH2 0x10BF SWAP1 PUSH4 0xFFFFFFFF DUP12 AND PUSH2 0x1F8C JUMP JUMPDEST PUSH2 0x10C9 SWAP2 SWAP1 PUSH2 0x1EFB JUMP JUMPDEST DUP2 MSTORE PUSH1 0x3F SLOAD PUSH1 0x3A SLOAD PUSH1 0x20 SWAP1 SWAP3 ADD SWAP2 PUSH2 0x10E7 SWAP1 PUSH4 0xFFFFFFFF DUP12 AND PUSH2 0x1F8C JUMP JUMPDEST PUSH2 0x10F1 SWAP2 SWAP1 PUSH2 0x1EFB JUMP JUMPDEST DUP2 MSTORE PUSH1 0x40 SLOAD PUSH1 0x3B SLOAD PUSH1 0x20 SWAP1 SWAP3 ADD SWAP2 PUSH2 0x110F SWAP1 PUSH4 0xFFFFFFFF DUP12 AND PUSH2 0x1F8C JUMP JUMPDEST PUSH2 0x1119 SWAP2 SWAP1 PUSH2 0x1EFB JUMP JUMPDEST DUP2 MSTORE PUSH1 0x41 SLOAD PUSH1 0x3C SLOAD PUSH1 0x20 SWAP1 SWAP3 ADD SWAP2 PUSH2 0x1137 SWAP1 PUSH4 0xFFFFFFFF DUP12 AND PUSH2 0x1F8C JUMP JUMPDEST PUSH2 0x1141 SWAP2 SWAP1 PUSH2 0x1EFB JUMP JUMPDEST DUP2 MSTORE POP DUP2 MSTORE PUSH1 0x20 ADD PUSH1 0x40 MLOAD DUP1 PUSH1 0xA0 ADD PUSH1 0x40 MSTORE DUP1 PUSH1 0x0 DUP2 MSTORE PUSH1 0x20 ADD PUSH1 0x0 DUP2 MSTORE PUSH1 0x20 ADD PUSH1 0x0 DUP2 MSTORE PUSH1 0x20 ADD PUSH1 0x0 DUP2 MSTORE PUSH1 0x20 ADD PUSH1 0x0 DUP2 MSTORE POP DUP2 MSTORE POP SWAP1 POP PUSH1 0x0 SWAP3 POP JUMPDEST PUSH1 0x3 SLOAD PUSH4 0xFFFFFFFF AND DUP4 LT ISZERO PUSH2 0x1250 JUMPI PUSH1 0x20 DUP2 ADD MLOAD DUP4 PUSH1 0x5 DUP2 LT PUSH2 0x11A5 JUMPI PUSH2 0x11A5 PUSH2 0x1FCC JUMP JUMPDEST PUSH1 0x20 MUL ADD MLOAD SWAP2 POP DUP2 PUSH1 0x9 EQ ISZERO PUSH2 0x11BA JUMPI PUSH1 0x0 SWAP2 POP JUMPDEST PUSH1 0x20 DUP2 ADD MLOAD DUP3 SWAP1 DUP5 PUSH1 0x5 DUP2 LT PUSH2 0x11D2 JUMPI PUSH2 0x11D2 PUSH2 0x1FCC JUMP JUMPDEST PUSH1 0x20 MUL ADD MSTORE DUP2 ISZERO PUSH2 0x11ED JUMPI PUSH2 0x11E8 PUSH1 0x1 DUP4 PUSH2 0x1F2E JUMP JUMPDEST PUSH2 0x11F0 JUMP JUMPDEST PUSH1 0x8 JUMPDEST DUP2 MLOAD DUP5 PUSH1 0x5 DUP2 LT PUSH2 0x1203 JUMPI PUSH2 0x1203 PUSH2 0x1FCC JUMP JUMPDEST PUSH1 0x20 MUL ADD MSTORE PUSH1 0x8 DUP3 EQ PUSH2 0x1220 JUMPI PUSH2 0x121B DUP3 PUSH1 0x1 PUSH2 0x1EE3 JUMP JUMPDEST PUSH2 0x1223 JUMP JUMPDEST PUSH1 0x0 JUMPDEST PUSH1 0x40 DUP3 ADD MLOAD DUP5 PUSH1 0x5 DUP2 LT PUSH2 0x1239 JUMPI PUSH2 0x1239 PUSH2 0x1FCC JUMP JUMPDEST PUSH1 0x20 MUL ADD MSTORE DUP3 PUSH2 0x1248 DUP2 PUSH2 0x1F71 JUMP JUMPDEST SWAP4 POP POP PUSH2 0x117F JUMP JUMPDEST SWAP7 SWAP6 POP POP POP POP POP POP JUMP JUMPDEST PUSH1 0x0 DUP1 DUP1 DUP1 DUP1 DUP1 JUMPDEST PUSH1 0x5 DUP2 LT ISZERO PUSH2 0x12FA JUMPI PUSH1 0x7 SLOAD DUP8 PUSH1 0xA DUP11 DUP2 SLOAD DUP2 LT PUSH2 0x1282 JUMPI PUSH2 0x1282 PUSH2 0x1FCC JUMP JUMPDEST SWAP1 PUSH1 0x0 MSTORE PUSH1 0x20 PUSH1 0x0 KECCAK256 SWAP1 PUSH1 0x5 MUL ADD DUP4 PUSH1 0x5 DUP2 LT PUSH2 0x12A1 JUMPI PUSH2 0x12A1 PUSH2 0x1FCC JUMP JUMPDEST ADD SLOAD PUSH1 0x3 DUP2 LT PUSH2 0x12B3 JUMPI PUSH2 0x12B3 PUSH2 0x1FCC JUMP JUMPDEST PUSH1 0x20 MUL ADD MLOAD DUP3 PUSH1 0x5 DUP2 LT PUSH2 0x12C9 JUMPI PUSH2 0x12C9 PUSH2 0x1FCC JUMP JUMPDEST PUSH1 0x20 MUL ADD MLOAD EQ PUSH2 0x12DB JUMPI DUP1 SWAP3 POP PUSH2 0x12FA JUMP JUMPDEST DUP4 PUSH2 0x12E5 DUP2 PUSH2 0x1F71 JUMP JUMPDEST SWAP5 POP POP DUP1 PUSH2 0x12F2 DUP2 PUSH2 0x1F71 JUMP JUMPDEST SWAP2 POP POP PUSH2 0x1262 JUMP JUMPDEST POP PUSH1 0x0 DUP4 GT DUP1 ISZERO PUSH2 0x1340 JUMPI POP PUSH1 0x0 PUSH1 0xB PUSH1 0x7 SLOAD PUSH1 0x9 DUP2 LT PUSH2 0x131D JUMPI PUSH2 0x131D PUSH2 0x1FCC JUMP JUMPDEST PUSH1 0x5 MUL ADD PUSH2 0x132C PUSH1 0x1 DUP7 PUSH2 0x1F2E JUMP JUMPDEST PUSH1 0x5 DUP2 LT PUSH2 0x133C JUMPI PUSH2 0x133C PUSH2 0x1FCC JUMP JUMPDEST ADD SLOAD GT JUMPDEST ISZERO PUSH2 0x138F JUMPI PUSH1 0x0 PUSH1 0xB PUSH1 0x7 SLOAD PUSH1 0x9 DUP2 LT PUSH2 0x135C JUMPI PUSH2 0x135C PUSH2 0x1FCC JUMP JUMPDEST PUSH1 0x5 MUL ADD PUSH2 0x136B PUSH1 0x1 DUP7 PUSH2 0x1F2E JUMP JUMPDEST PUSH1 0x5 DUP2 LT PUSH2 0x137B JUMPI PUSH2 0x137B PUSH2 0x1FCC JUMP JUMPDEST ADD SLOAD PUSH1 0x7 SLOAD SWAP1 SWAP7 POP SWAP5 POP PUSH2 0x1551 SWAP4 POP POP POP POP JUMP JUMPDEST DUP6 PUSH1 0xA DUP9 DUP2 SLOAD DUP2 LT PUSH2 0x13A3 JUMPI PUSH2 0x13A3 PUSH2 0x1FCC JUMP JUMPDEST SWAP1 PUSH1 0x0 MSTORE PUSH1 0x20 PUSH1 0x0 KECCAK256 SWAP1 PUSH1 0x5 MUL ADD DUP4 PUSH1 0x5 DUP2 LT PUSH2 0x13C2 JUMPI PUSH2 0x13C2 PUSH2 0x1FCC JUMP JUMPDEST ADD SLOAD PUSH1 0x3 DUP2 LT PUSH2 0x13D4 JUMPI PUSH2 0x13D4 PUSH2 0x1FCC JUMP JUMPDEST PUSH1 0x20 MUL ADD MLOAD DUP3 PUSH1 0x5 DUP2 LT PUSH2 0x13EA JUMPI PUSH2 0x13EA PUSH2 0x1FCC JUMP JUMPDEST PUSH1 0x20 MUL ADD MLOAD SWAP1 POP PUSH1 0x0 PUSH2 0x13FE DUP4 PUSH1 0x1 PUSH2 0x1EE3 JUMP JUMPDEST SWAP1 POP JUMPDEST PUSH1 0x5 DUP2 LT ISZERO PUSH2 0x1505 JUMPI DUP2 DUP8 PUSH1 0xA DUP11 DUP2 SLOAD DUP2 LT PUSH2 0x141F JUMPI PUSH2 0x141F PUSH2 0x1FCC JUMP JUMPDEST SWAP1 PUSH1 0x0 MSTORE PUSH1 0x20 PUSH1 0x0 KECCAK256 SWAP1 PUSH1 0x5 MUL ADD DUP4 PUSH1 0x5 DUP2 LT PUSH2 0x143E JUMPI PUSH2 0x143E PUSH2 0x1FCC JUMP JUMPDEST ADD SLOAD PUSH1 0x3 DUP2 LT PUSH2 0x1450 JUMPI PUSH2 0x1450 PUSH2 0x1FCC JUMP JUMPDEST PUSH1 0x20 MUL ADD MLOAD DUP3 PUSH1 0x5 DUP2 LT PUSH2 0x1466 JUMPI PUSH2 0x1466 PUSH2 0x1FCC JUMP JUMPDEST PUSH1 0x20 MUL ADD MLOAD EQ DUP1 PUSH2 0x14D7 JUMPI POP PUSH1 0x7 SLOAD DUP8 PUSH1 0xA DUP11 DUP2 SLOAD DUP2 LT PUSH2 0x1489 JUMPI PUSH2 0x1489 PUSH2 0x1FCC JUMP JUMPDEST SWAP1 PUSH1 0x0 MSTORE PUSH1 0x20 PUSH1 0x0 KECCAK256 SWAP1 PUSH1 0x5 MUL ADD DUP4 PUSH1 0x5 DUP2 LT PUSH2 0x14A8 JUMPI PUSH2 0x14A8 PUSH2 0x1FCC JUMP JUMPDEST ADD SLOAD PUSH1 0x3 DUP2 LT PUSH2 0x14BA JUMPI PUSH2 0x14BA PUSH2 0x1FCC JUMP JUMPDEST PUSH1 0x20 MUL ADD MLOAD DUP3 PUSH1 0x5 DUP2 LT PUSH2 0x14D0 JUMPI PUSH2 0x14D0 PUSH2 0x1FCC JUMP JUMPDEST PUSH1 0x20 MUL ADD MLOAD EQ JUMPDEST ISZERO PUSH2 0x14EE JUMPI DUP4 PUSH2 0x14E6 DUP2 PUSH2 0x1F71 JUMP JUMPDEST SWAP5 POP POP PUSH2 0x14F3 JUMP JUMPDEST PUSH2 0x1505 JUMP JUMPDEST DUP1 PUSH2 0x14FD DUP2 PUSH2 0x1F71 JUMP JUMPDEST SWAP2 POP POP PUSH2 0x1401 JUMP JUMPDEST POP DUP3 ISZERO PUSH2 0x1546 JUMPI PUSH1 0x0 PUSH1 0xB DUP3 PUSH1 0x9 DUP2 LT PUSH2 0x1521 JUMPI PUSH2 0x1521 PUSH2 0x1FCC JUMP JUMPDEST PUSH1 0x5 MUL ADD DUP5 PUSH1 0x5 DUP2 LT PUSH2 0x1536 JUMPI PUSH2 0x1536 PUSH2 0x1FCC JUMP JUMPDEST ADD SLOAD SWAP6 POP SWAP1 SWAP4 POP PUSH2 0x1551 SWAP3 POP POP POP JUMP JUMPDEST PUSH1 0x0 DUP1 SWAP5 POP SWAP5 POP POP POP POP JUMPDEST SWAP3 POP SWAP3 SWAP1 POP JUMP JUMPDEST PUSH1 0x0 PUSH2 0xDF7 DUP3 DUP5 PUSH2 0x1EFB JUMP JUMPDEST PUSH1 0x0 PUSH2 0x15B9 DUP3 PUSH1 0x40 MLOAD DUP1 PUSH1 0x40 ADD PUSH1 0x40 MSTORE DUP1 PUSH1 0x20 DUP2 MSTORE PUSH1 0x20 ADD PUSH32 0x5361666545524332303A206C6F772D6C6576656C2063616C6C206661696C6564 DUP2 MSTORE POP DUP6 PUSH1 0x1 PUSH1 0x1 PUSH1 0xA0 SHL SUB AND PUSH2 0x16F6 SWAP1 SWAP3 SWAP2 SWAP1 PUSH4 0xFFFFFFFF AND JUMP JUMPDEST DUP1 MLOAD SWAP1 SWAP2 POP ISZERO PUSH2 0x1636 JUMPI DUP1 DUP1 PUSH1 0x20 ADD SWAP1 MLOAD DUP2 ADD SWAP1 PUSH2 0x15D7 SWAP2 SWAP1 PUSH2 0x1C54 JUMP JUMPDEST PUSH2 0x1636 JUMPI PUSH1 0x40 MLOAD PUSH3 0x461BCD PUSH1 0xE5 SHL DUP2 MSTORE PUSH1 0x20 PUSH1 0x4 DUP3 ADD MSTORE PUSH1 0x2A PUSH1 0x24 DUP3 ADD MSTORE PUSH32 0x5361666545524332303A204552433230206F7065726174696F6E20646964206E PUSH1 0x44 DUP3 ADD MSTORE PUSH10 0x1BDD081CDD58D8D95959 PUSH1 0xB2 SHL PUSH1 0x64 DUP3 ADD MSTORE PUSH1 0x84 ADD PUSH2 0x5C1 JUMP JUMPDEST POP POP POP JUMP JUMPDEST PUSH1 0x0 DUP1 TIMESTAMP DUP4 PUSH1 0x42 SLOAD PUSH1 0x43 SLOAD PUSH1 0x44 SLOAD NUMBER BLOCKHASH COINBASE DIFFICULTY GASLIMIT GASPRICE CALLER GAS PUSH1 0x2 SLOAD PUSH1 0x40 DUP1 MLOAD PUSH1 0x20 DUP2 ADD SWAP15 SWAP1 SWAP15 MSTORE DUP14 ADD SWAP12 SWAP1 SWAP12 MSTORE PUSH1 0x60 DUP1 DUP14 ADD SWAP11 SWAP1 SWAP11 MSTORE PUSH1 0x80 DUP13 ADD SWAP9 SWAP1 SWAP9 MSTORE PUSH1 0xA0 DUP12 ADD SWAP7 SWAP1 SWAP7 MSTORE PUSH1 0xC0 DUP11 ADD SWAP5 SWAP1 SWAP5 MSTORE PUSH12 0xFFFFFFFFFFFFFFFFFFFFFFFF NOT SWAP3 DUP8 SHL DUP4 AND PUSH1 0xE0 DUP11 ADD MSTORE PUSH1 0xF4 DUP10 ADD SWAP2 SWAP1 SWAP2 MSTORE PUSH2 0x114 DUP9 ADD MSTORE PUSH2 0x134 DUP8 ADD SWAP2 SWAP1 SWAP2 MSTORE SWAP3 SHL SWAP1 SWAP2 AND PUSH2 0x154 DUP5 ADD MSTORE PUSH2 0x168 DUP4 ADD MSTORE PUSH2 0x188 DUP3 ADD MSTORE PUSH2 0x1A8 ADD PUSH1 0x40 DUP1 MLOAD PUSH1 0x1F NOT DUP2 DUP5 SUB ADD DUP2 MSTORE SWAP2 SWAP1 MSTORE DUP1 MLOAD PUSH1 0x20 SWAP1 SWAP2 ADD KECCAK256 PUSH1 0x42 SWAP4 SWAP1 SWAP4 SSTORE POP SWAP1 SWAP2 SWAP1 POP JUMP JUMPDEST PUSH1 0x60 PUSH2 0x1705 DUP5 DUP5 PUSH1 0x0 DUP6 PUSH2 0x170D JUMP JUMPDEST SWAP5 SWAP4 POP POP POP POP JUMP JUMPDEST PUSH1 0x60 DUP3 SELFBALANCE LT ISZERO PUSH2 0x176E JUMPI PUSH1 0x40 MLOAD PUSH3 0x461BCD PUSH1 0xE5 SHL DUP2 MSTORE PUSH1 0x20 PUSH1 0x4 DUP3 ADD MSTORE PUSH1 0x26 PUSH1 0x24 DUP3 ADD MSTORE PUSH32 0x416464726573733A20696E73756666696369656E742062616C616E636520666F PUSH1 0x44 DUP3 ADD MSTORE PUSH6 0x1C8818D85B1B PUSH1 0xD2 SHL PUSH1 0x64 DUP3 ADD MSTORE PUSH1 0x84 ADD PUSH2 0x5C1 JUMP JUMPDEST PUSH1 0x0 DUP1 DUP7 PUSH1 0x1 PUSH1 0x1 PUSH1 0xA0 SHL SUB AND DUP6 DUP8 PUSH1 0x40 MLOAD PUSH2 0x178A SWAP2 SWAP1 PUSH2 0x1D65 JUMP JUMPDEST PUSH1 0x0 PUSH1 0x40 MLOAD DUP1 DUP4 SUB DUP2 DUP6 DUP8 GAS CALL SWAP3 POP POP POP RETURNDATASIZE DUP1 PUSH1 0x0 DUP2 EQ PUSH2 0x17C7 JUMPI PUSH1 0x40 MLOAD SWAP2 POP PUSH1 0x1F NOT PUSH1 0x3F RETURNDATASIZE ADD AND DUP3 ADD PUSH1 0x40 MSTORE RETURNDATASIZE DUP3 MSTORE RETURNDATASIZE PUSH1 0x0 PUSH1 0x20 DUP5 ADD RETURNDATACOPY PUSH2 0x17CC JUMP JUMPDEST PUSH1 0x60 SWAP2 POP JUMPDEST POP SWAP2 POP SWAP2 POP PUSH2 0x17DD DUP8 DUP4 DUP4 DUP8 PUSH2 0x17E8 JUMP JUMPDEST SWAP8 SWAP7 POP POP POP POP POP POP POP JUMP JUMPDEST PUSH1 0x60 DUP4 ISZERO PUSH2 0x1854 JUMPI DUP3 MLOAD PUSH2 0x184D JUMPI PUSH1 0x1 PUSH1 0x1 PUSH1 0xA0 SHL SUB DUP6 AND EXTCODESIZE PUSH2 0x184D JUMPI PUSH1 0x40 MLOAD PUSH3 0x461BCD PUSH1 0xE5 SHL DUP2 MSTORE PUSH1 0x20 PUSH1 0x4 DUP3 ADD MSTORE PUSH1 0x1D PUSH1 0x24 DUP3 ADD MSTORE PUSH32 0x416464726573733A2063616C6C20746F206E6F6E2D636F6E7472616374000000 PUSH1 0x44 DUP3 ADD MSTORE PUSH1 0x64 ADD PUSH2 0x5C1 JUMP JUMPDEST POP DUP2 PUSH2 0x1705 JUMP JUMPDEST PUSH2 0x1705 DUP4 DUP4 DUP2 MLOAD ISZERO PUSH2 0x1869 JUMPI DUP2 MLOAD DUP1 DUP4 PUSH1 0x20 ADD REVERT JUMPDEST DUP1 PUSH1 0x40 MLOAD PUSH3 0x461BCD PUSH1 0xE5 SHL DUP2 MSTORE PUSH1 0x4 ADD PUSH2 0x5C1 SWAP2 SWAP1 PUSH2 0x1E7F JUMP JUMPDEST PUSH1 0x2D DUP4 ADD SWAP2 DUP4 SWAP1 DUP3 ISZERO PUSH2 0x18BE JUMPI SWAP2 PUSH1 0x20 MUL DUP3 ADD JUMPDEST DUP3 DUP2 GT ISZERO PUSH2 0x18BE JUMPI DUP3 MLOAD PUSH2 0x18AE SWAP1 DUP4 SWAP1 PUSH1 0x5 PUSH2 0x1937 JUMP JUMPDEST POP SWAP2 PUSH1 0x20 ADD SWAP2 SWAP1 PUSH1 0x5 ADD SWAP1 PUSH2 0x1897 JUMP JUMPDEST POP PUSH2 0x18CA SWAP3 SWAP2 POP PUSH2 0x19CC JUMP JUMPDEST POP SWAP1 JUMP JUMPDEST DUP3 DUP1 SLOAD DUP3 DUP3 SSTORE SWAP1 PUSH1 0x0 MSTORE PUSH1 0x20 PUSH1 0x0 KECCAK256 SWAP1 PUSH1 0x5 MUL DUP2 ADD SWAP3 DUP3 ISZERO PUSH2 0x18BE JUMPI SWAP2 PUSH1 0x20 MUL DUP3 ADD JUMPDEST DUP3 DUP2 GT ISZERO PUSH2 0x18BE JUMPI DUP3 MLOAD PUSH2 0x1908 SWAP1 DUP4 SWAP1 PUSH1 0x5 PUSH2 0x1937 JUMP JUMPDEST POP SWAP2 PUSH1 0x20 ADD SWAP2 SWAP1 PUSH1 0x5 ADD SWAP1 PUSH2 0x18F1 JUMP JUMPDEST PUSH1 0x40 MLOAD DUP1 PUSH2 0x280 ADD PUSH1 0x40 MSTORE DUP1 PUSH1 0x14 SWAP1 PUSH1 0x20 DUP3 MUL DUP1 CALLDATASIZE DUP4 CALLDATACOPY POP SWAP2 SWAP3 SWAP2 POP POP JUMP JUMPDEST DUP3 PUSH1 0x5 DUP2 ADD SWAP3 DUP3 ISZERO PUSH2 0x1965 JUMPI SWAP2 PUSH1 0x20 MUL DUP3 ADD JUMPDEST DUP3 DUP2 GT ISZERO PUSH2 0x1965 JUMPI DUP3 MLOAD DUP3 SSTORE SWAP2 PUSH1 0x20 ADD SWAP2 SWAP1 PUSH1 0x1 ADD SWAP1 PUSH2 0x194A JUMP JUMPDEST POP PUSH2 0x18CA SWAP3 SWAP2 POP PUSH2 0x19FB JUMP JUMPDEST PUSH1 0x40 MLOAD DUP1 PUSH2 0x120 ADD PUSH1 0x40 MSTORE DUP1 PUSH1 0x9 SWAP1 JUMPDEST PUSH2 0x1989 PUSH2 0x1A10 JUMP JUMPDEST DUP2 MSTORE PUSH1 0x20 ADD SWAP1 PUSH1 0x1 SWAP1 SUB SWAP1 DUP2 PUSH2 0x1981 JUMPI SWAP1 POP POP SWAP1 JUMP JUMPDEST PUSH1 0x40 MLOAD DUP1 PUSH1 0x60 ADD PUSH1 0x40 MSTORE DUP1 PUSH1 0x3 SWAP1 JUMPDEST PUSH2 0x19B6 PUSH2 0x1A10 JUMP JUMPDEST DUP2 MSTORE PUSH1 0x20 ADD SWAP1 PUSH1 0x1 SWAP1 SUB SWAP1 DUP2 PUSH2 0x19AE JUMPI SWAP1 POP POP SWAP1 JUMP JUMPDEST DUP1 DUP3 GT ISZERO PUSH2 0x18CA JUMPI PUSH1 0x0 DUP1 DUP3 SSTORE PUSH1 0x1 DUP3 ADD DUP2 SWAP1 SSTORE PUSH1 0x2 DUP3 ADD DUP2 SWAP1 SSTORE PUSH1 0x3 DUP3 ADD DUP2 SWAP1 SSTORE PUSH1 0x4 DUP3 ADD SSTORE PUSH1 0x5 ADD PUSH2 0x19CC JUMP JUMPDEST JUMPDEST DUP1 DUP3 GT ISZERO PUSH2 0x18CA JUMPI PUSH1 0x0 DUP2 SSTORE PUSH1 0x1 ADD PUSH2 0x19FC JUMP JUMPDEST PUSH1 0x40 MLOAD DUP1 PUSH1 0xA0 ADD PUSH1 0x40 MSTORE DUP1 PUSH1 0x5 SWAP1 PUSH1 0x20 DUP3 MUL DUP1 CALLDATASIZE DUP4 CALLDATACOPY POP SWAP2 SWAP3 SWAP2 POP POP JUMP JUMPDEST DUP1 CALLDATALOAD PUSH1 0x1 PUSH1 0x1 PUSH1 0xA0 SHL SUB DUP2 AND DUP2 EQ PUSH2 0x1A45 JUMPI PUSH1 0x0 DUP1 REVERT JUMPDEST SWAP2 SWAP1 POP JUMP JUMPDEST PUSH1 0x0 DUP3 PUSH1 0x1F DUP4 ADD SLT PUSH2 0x1A5B JUMPI PUSH1 0x0 DUP1 REVERT JUMPDEST PUSH1 0x40 MLOAD PUSH2 0x120 DUP2 ADD DUP2 DUP2 LT PUSH8 0xFFFFFFFFFFFFFFFF DUP3 GT OR ISZERO PUSH2 0x1A7F JUMPI PUSH2 0x1A7F PUSH2 0x1FE2 JUMP JUMPDEST PUSH1 0x40 MSTORE DUP1 DUP4 PUSH2 0x5A0 DUP2 ADD DUP7 LT ISZERO PUSH2 0x1A95 JUMPI PUSH1 0x0 DUP1 REVERT JUMPDEST PUSH1 0x0 JUMPDEST PUSH1 0x9 DUP2 LT ISZERO PUSH2 0x1AC2 JUMPI PUSH2 0x1AAB DUP8 DUP4 PUSH2 0x1ACD JUMP JUMPDEST DUP4 MSTORE PUSH1 0x20 SWAP1 SWAP3 ADD SWAP2 PUSH1 0xA0 SWAP2 SWAP1 SWAP2 ADD SWAP1 PUSH1 0x1 ADD PUSH2 0x1A98 JUMP JUMPDEST POP SWAP2 SWAP6 SWAP5 POP POP POP POP POP JUMP JUMPDEST PUSH1 0x0 DUP3 PUSH1 0x1F DUP4 ADD SLT PUSH2 0x1ADE JUMPI PUSH1 0x0 DUP1 REVERT JUMPDEST PUSH1 0x40 MLOAD PUSH1 0xA0 DUP2 ADD DUP2 DUP2 LT PUSH8 0xFFFFFFFFFFFFFFFF DUP3 GT OR ISZERO PUSH2 0x1B01 JUMPI PUSH2 0x1B01 PUSH2 0x1FE2 JUMP JUMPDEST PUSH1 0x40 MSTORE DUP1 DUP4 PUSH1 0xA0 DUP2 ADD DUP7 LT ISZERO PUSH2 0x1B16 JUMPI PUSH1 0x0 DUP1 REVERT JUMPDEST PUSH1 0x0 JUMPDEST PUSH1 0x5 DUP2 LT ISZERO PUSH2 0x1AC2 JUMPI DUP2 CALLDATALOAD DUP4 MSTORE PUSH1 0x20 SWAP3 DUP4 ADD SWAP3 SWAP1 SWAP2 ADD SWAP1 PUSH1 0x1 ADD PUSH2 0x1B19 JUMP JUMPDEST PUSH1 0x0 PUSH1 0x20 DUP3 DUP5 SUB SLT ISZERO PUSH2 0x1B4A JUMPI PUSH1 0x0 DUP1 REVERT JUMPDEST PUSH2 0xDF7 DUP3 PUSH2 0x1A2E JUMP JUMPDEST PUSH1 0x0 DUP1 PUSH1 0x40 DUP4 DUP6 SUB SLT ISZERO PUSH2 0x1B66 JUMPI PUSH1 0x0 DUP1 REVERT JUMPDEST PUSH2 0x1B6F DUP4 PUSH2 0x1A2E JUMP JUMPDEST SWAP5 PUSH1 0x20 SWAP4 SWAP1 SWAP4 ADD CALLDATALOAD SWAP4 POP POP POP JUMP JUMPDEST PUSH1 0x0 PUSH2 0x5A0 DUP3 DUP5 SUB SLT ISZERO PUSH2 0x1B90 JUMPI PUSH1 0x0 DUP1 REVERT JUMPDEST PUSH2 0xDF7 DUP4 DUP4 PUSH2 0x1A4A JUMP JUMPDEST PUSH1 0x0 PUSH1 0x20 DUP1 DUP4 DUP6 SUB SLT ISZERO PUSH2 0x1BAD JUMPI PUSH1 0x0 DUP1 REVERT JUMPDEST DUP3 CALLDATALOAD PUSH8 0xFFFFFFFFFFFFFFFF DUP1 DUP3 GT ISZERO PUSH2 0x1BC5 JUMPI PUSH1 0x0 DUP1 REVERT JUMPDEST DUP2 DUP6 ADD SWAP2 POP DUP6 PUSH1 0x1F DUP4 ADD SLT PUSH2 0x1BD9 JUMPI PUSH1 0x0 DUP1 REVERT JUMPDEST DUP2 CALLDATALOAD DUP2 DUP2 GT ISZERO PUSH2 0x1BEB JUMPI PUSH2 0x1BEB PUSH2 0x1FE2 JUMP JUMPDEST PUSH2 0x1BF9 DUP5 DUP3 PUSH1 0x5 SHL ADD PUSH2 0x1EB2 JUMP JUMPDEST DUP2 DUP2 MSTORE DUP5 DUP2 ADD SWAP3 POP DUP4 DUP6 ADD PUSH1 0xA0 DUP1 DUP5 MUL DUP7 ADD DUP8 ADD DUP11 LT ISZERO PUSH2 0x1C19 JUMPI PUSH1 0x0 DUP1 REVERT JUMPDEST PUSH1 0x0 SWAP6 POP JUMPDEST DUP4 DUP7 LT ISZERO PUSH2 0x1C46 JUMPI PUSH2 0x1C30 DUP11 DUP4 PUSH2 0x1ACD JUMP JUMPDEST DUP6 MSTORE PUSH1 0x1 SWAP6 SWAP1 SWAP6 ADD SWAP5 SWAP4 DUP7 ADD SWAP4 SWAP1 DUP2 ADD SWAP1 PUSH2 0x1C1E JUMP JUMPDEST POP SWAP1 SWAP9 SWAP8 POP POP POP POP POP POP POP POP JUMP JUMPDEST PUSH1 0x0 PUSH1 0x20 DUP3 DUP5 SUB SLT ISZERO PUSH2 0x1C66 JUMPI PUSH1 0x0 DUP1 REVERT JUMPDEST DUP2 MLOAD DUP1 ISZERO ISZERO DUP2 EQ PUSH2 0xDF7 JUMPI PUSH1 0x0 DUP1 REVERT JUMPDEST PUSH1 0x0 PUSH1 0x20 DUP3 DUP5 SUB SLT ISZERO PUSH2 0x1C88 JUMPI PUSH1 0x0 DUP1 REVERT JUMPDEST POP CALLDATALOAD SWAP2 SWAP1 POP JUMP JUMPDEST PUSH1 0x0 PUSH1 0x20 DUP3 DUP5 SUB SLT ISZERO PUSH2 0x1CA1 JUMPI PUSH1 0x0 DUP1 REVERT JUMPDEST POP MLOAD SWAP2 SWAP1 POP JUMP JUMPDEST PUSH1 0x0 DUP1 PUSH1 0x0 PUSH1 0x60 DUP5 DUP7 SUB SLT ISZERO PUSH2 0x1CBD JUMPI PUSH1 0x0 DUP1 REVERT JUMPDEST POP POP DUP2 CALLDATALOAD SWAP4 PUSH1 0x20 DUP4 ADD CALLDATALOAD SWAP4 POP PUSH1 0x40 SWAP1 SWAP3 ADD CALLDATALOAD SWAP2 SWAP1 POP JUMP JUMPDEST PUSH1 0x0 DUP1 PUSH1 0x0 DUP1 PUSH1 0x0 PUSH2 0x620 DUP7 DUP9 SUB SLT ISZERO PUSH2 0x1CED JUMPI PUSH1 0x0 DUP1 REVERT JUMPDEST DUP6 CALLDATALOAD SWAP5 POP PUSH1 0x20 DUP7 ADD CALLDATALOAD SWAP4 POP PUSH1 0x40 DUP7 ADD CALLDATALOAD SWAP3 POP PUSH1 0x60 DUP7 ADD CALLDATALOAD SWAP2 POP PUSH2 0x1D13 DUP8 PUSH1 0x80 DUP9 ADD PUSH2 0x1A4A JUMP JUMPDEST SWAP1 POP SWAP3 SWAP6 POP SWAP3 SWAP6 SWAP1 SWAP4 POP JUMP JUMPDEST DUP1 PUSH1 0x0 JUMPDEST PUSH1 0x14 DUP2 LT ISZERO PUSH2 0xF99 JUMPI DUP2 MLOAD DUP5 MSTORE PUSH1 0x20 SWAP4 DUP5 ADD SWAP4 SWAP1 SWAP2 ADD SWAP1 PUSH1 0x1 ADD PUSH2 0x1D23 JUMP JUMPDEST DUP1 PUSH1 0x0 JUMPDEST PUSH1 0x5 DUP2 LT ISZERO PUSH2 0xF99 JUMPI DUP2 MLOAD DUP5 MSTORE PUSH1 0x20 SWAP4 DUP5 ADD SWAP4 SWAP1 SWAP2 ADD SWAP1 PUSH1 0x1 ADD PUSH2 0x1D46 JUMP JUMPDEST PUSH1 0x0 DUP3 MLOAD PUSH2 0x1D77 DUP2 DUP5 PUSH1 0x20 DUP8 ADD PUSH2 0x1F45 JUMP JUMPDEST SWAP2 SWAP1 SWAP2 ADD SWAP3 SWAP2 POP POP JUMP JUMPDEST PUSH1 0x1 PUSH1 0x1 PUSH1 0xA0 SHL SUB DUP12 AND DUP2 MSTORE PUSH1 0x20 DUP2 ADD DUP11 SWAP1 MSTORE PUSH1 0x40 DUP2 ADD DUP10 SWAP1 MSTORE PUSH1 0x60 DUP2 ADD DUP9 SWAP1 MSTORE PUSH2 0x680 DUP2 ADD PUSH2 0x1DB4 PUSH1 0x80 DUP4 ADD DUP10 PUSH2 0x1D42 JUMP JUMPDEST PUSH2 0x1DC2 PUSH2 0x120 DUP4 ADD DUP9 PUSH2 0x1D1F JUMP JUMPDEST PUSH2 0x1DD0 PUSH2 0x3A0 DUP4 ADD DUP8 PUSH2 0x1D1F JUMP JUMPDEST DUP5 PUSH2 0x620 DUP4 ADD MSTORE DUP4 PUSH2 0x640 DUP4 ADD MSTORE DUP3 PUSH2 0x660 DUP4 ADD MSTORE SWAP12 SWAP11 POP POP POP POP POP POP POP POP POP POP POP JUMP JUMPDEST PUSH2 0x5A0 DUP2 ADD DUP2 DUP4 PUSH1 0x0 JUMPDEST PUSH1 0x9 DUP2 LT ISZERO PUSH2 0x1E28 JUMPI PUSH2 0x1E12 DUP4 DUP4 MLOAD PUSH2 0x1D42 JUMP JUMPDEST PUSH1 0xA0 SWAP3 SWAP1 SWAP3 ADD SWAP2 PUSH1 0x20 SWAP2 SWAP1 SWAP2 ADD SWAP1 PUSH1 0x1 ADD PUSH2 0x1DFE JUMP JUMPDEST POP POP POP SWAP3 SWAP2 POP POP JUMP JUMPDEST PUSH1 0x20 DUP1 DUP3 MSTORE DUP3 MLOAD DUP3 DUP3 ADD DUP2 SWAP1 MSTORE PUSH1 0x0 SWAP2 SWAP1 DUP5 DUP3 ADD SWAP1 PUSH1 0x40 DUP6 ADD SWAP1 DUP5 JUMPDEST DUP2 DUP2 LT ISZERO PUSH2 0x1E73 JUMPI PUSH2 0x1E60 DUP4 DUP6 MLOAD PUSH2 0x1D42 JUMP JUMPDEST SWAP3 DUP5 ADD SWAP3 PUSH1 0xA0 SWAP3 SWAP1 SWAP3 ADD SWAP2 PUSH1 0x1 ADD PUSH2 0x1E4D JUMP JUMPDEST POP SWAP1 SWAP7 SWAP6 POP POP POP POP POP POP JUMP JUMPDEST PUSH1 0x20 DUP2 MSTORE PUSH1 0x0 DUP3 MLOAD DUP1 PUSH1 0x20 DUP5 ADD MSTORE PUSH2 0x1E9E DUP2 PUSH1 0x40 DUP6 ADD PUSH1 0x20 DUP8 ADD PUSH2 0x1F45 JUMP JUMPDEST PUSH1 0x1F ADD PUSH1 0x1F NOT AND SWAP2 SWAP1 SWAP2 ADD PUSH1 0x40 ADD SWAP3 SWAP2 POP POP JUMP JUMPDEST PUSH1 0x40 MLOAD PUSH1 0x1F DUP3 ADD PUSH1 0x1F NOT AND DUP2 ADD PUSH8 0xFFFFFFFFFFFFFFFF DUP2 GT DUP3 DUP3 LT OR ISZERO PUSH2 0x1EDB JUMPI PUSH2 0x1EDB PUSH2 0x1FE2 JUMP JUMPDEST PUSH1 0x40 MSTORE SWAP2 SWAP1 POP JUMP JUMPDEST PUSH1 0x0 DUP3 NOT DUP3 GT ISZERO PUSH2 0x1EF6 JUMPI PUSH2 0x1EF6 PUSH2 0x1FA0 JUMP JUMPDEST POP ADD SWAP1 JUMP JUMPDEST PUSH1 0x0 DUP3 PUSH2 0x1F0A JUMPI PUSH2 0x1F0A PUSH2 0x1FB6 JUMP JUMPDEST POP DIV SWAP1 JUMP JUMPDEST PUSH1 0x0 DUP2 PUSH1 0x0 NOT DIV DUP4 GT DUP3 ISZERO ISZERO AND ISZERO PUSH2 0x1F29 JUMPI PUSH2 0x1F29 PUSH2 0x1FA0 JUMP JUMPDEST POP MUL SWAP1 JUMP JUMPDEST PUSH1 0x0 DUP3 DUP3 LT ISZERO PUSH2 0x1F40 JUMPI PUSH2 0x1F40 PUSH2 0x1FA0 JUMP JUMPDEST POP SUB SWAP1 JUMP JUMPDEST PUSH1 0x0 JUMPDEST DUP4 DUP2 LT ISZERO PUSH2 0x1F60 JUMPI DUP2 DUP2 ADD MLOAD DUP4 DUP3 ADD MSTORE PUSH1 0x20 ADD PUSH2 0x1F48 JUMP JUMPDEST DUP4 DUP2 GT ISZERO PUSH2 0xF99 JUMPI POP POP PUSH1 0x0 SWAP2 ADD MSTORE JUMP JUMPDEST PUSH1 0x0 PUSH1 0x0 NOT DUP3 EQ ISZERO PUSH2 0x1F85 JUMPI PUSH2 0x1F85 PUSH2 0x1FA0 JUMP JUMPDEST POP PUSH1 0x1 ADD SWAP1 JUMP JUMPDEST PUSH1 0x0 DUP3 PUSH2 0x1F9B JUMPI PUSH2 0x1F9B PUSH2 0x1FB6 JUMP JUMPDEST POP MOD SWAP1 JUMP JUMPDEST PUSH4 0x4E487B71 PUSH1 0xE0 SHL PUSH1 0x0 MSTORE PUSH1 0x11 PUSH1 0x4 MSTORE PUSH1 0x24 PUSH1 0x0 REVERT JUMPDEST PUSH4 0x4E487B71 PUSH1 0xE0 SHL PUSH1 0x0 MSTORE PUSH1 0x12 PUSH1 0x4 MSTORE PUSH1 0x24 PUSH1 0x0 REVERT JUMPDEST PUSH4 0x4E487B71 PUSH1 0xE0 SHL PUSH1 0x0 MSTORE PUSH1 0x32 PUSH1 0x4 MSTORE PUSH1 0x24 PUSH1 0x0 REVERT JUMPDEST PUSH4 0x4E487B71 PUSH1 0xE0 SHL PUSH1 0x0 MSTORE PUSH1 0x41 PUSH1 0x4 MSTORE PUSH1 0x24 PUSH1 0x0 REVERT INVALID LOG2 PUSH5 0x6970667358 0x22 SLT KECCAK256 0xC7 PUSH18 0x14ABC9E5414CBF8704097741D975048824F4 0xAE 0x4B XOR 0x23 TIMESTAMP PUSH3 0xC0B6DC SDIV DUP13 EXTCODECOPY PUSH5 0x736F6C6343 STOP ADDMOD SMOD STOP CALLER "
		},
		"gasEstimates": {
			"creation": {
				"codeDepositCost": "1647600",
				"executionCost": "infinite",
				"totalCost": "infinite"
			},
			"external": {
				"addUserBalance(uint256)": "24680",
				"buyTokens(uint256)": "infinite",
				"currency()": "2448",
				"doSpin(uint256,uint256,bytes32)": "infinite",
				"flushRandom(bytes32)": "57482",
				"getBankInTokens()": "infinite",
				"getCurrency()": "2409",
				"getMaxBet()": "2348",
				"getMaxLines()": "2317",
				"getMultiplers()": "infinite",
				"getMyBalance()": "2439",
				"getTokenPrice()": "2349",
				"getUserBalance(address)": "2638",
				"getWildSlot()": "2391",
				"getWinLines()": "infinite",
				"owner()": "2442",
				"playerSpins(address,uint256)": "15526",
				"renounceOwnership()": "infinite",
				"saveSettings(uint256,uint256,uint256,uint256,uint256[5][9])": "infinite",
				"setCurrency(address)": "26781",
				"setMaxBet(uint256)": "24555",
				"setMaxLines(uint256)": "24533",
				"setMultiplers(uint256[5][9])": "infinite",
				"setTokenPrice(uint256)": "24599",
				"setWildSlot(uint256)": "24577",
				"setWinLines(uint256[5][])": "infinite",
				"tokenPrice()": "2374",
				"transferOwnership(address)": "28399",
				"withdrawTokens()": "infinite"
			},
			"internal": {
				"checkLine(uint256,uint256[5] memory[3] memory)": "infinite",
				"getAllowance(address)": "infinite",
				"getRandom(bytes32,uint256)": "infinite",
				"getRandomBase(bytes32)": "infinite",
				"getWinLine(uint32)": "infinite",
				"spinReels(bytes32)": "infinite"
			}
		},
		"methodIdentifiers": {
			"addUserBalance(uint256)": "22526328",
			"buyTokens(uint256)": "3610724e",
			"currency()": "e5a6b10f",
			"doSpin(uint256,uint256,bytes32)": "a3e2e8ce",
			"flushRandom(bytes32)": "f7e944ee",
			"getBankInTokens()": "e9a4a03d",
			"getCurrency()": "6945c1fd",
			"getMaxBet()": "646668b6",
			"getMaxLines()": "09b9dd89",
			"getMultiplers()": "d3f0a7ce",
			"getMyBalance()": "4c738909",
			"getTokenPrice()": "4b94f50e",
			"getUserBalance(address)": "47734892",
			"getWildSlot()": "fda0ef89",
			"getWinLines()": "4282cf54",
			"owner()": "8da5cb5b",
			"playerSpins(address,uint256)": "17adaa03",
			"renounceOwnership()": "715018a6",
			"saveSettings(uint256,uint256,uint256,uint256,uint256[5][9])": "4afa1905",
			"setCurrency(address)": "2f84c391",
			"setMaxBet(uint256)": "881eff1e",
			"setMaxLines(uint256)": "6012cb19",
			"setMultiplers(uint256[5][9])": "81b87e54",
			"setTokenPrice(uint256)": "6a61e5fc",
			"setWildSlot(uint256)": "e3c7b05e",
			"setWinLines(uint256[5][])": "6f43022c",
			"tokenPrice()": "7ff9b596",
			"transferOwnership(address)": "f2fde38b",
			"withdrawTokens()": "8d8f2adb"
		}
	},
	"abi": [
		{
			"inputs": [
				{
					"internalType": "address",
					"name": "_currency",
					"type": "address"
				},
				{
					"internalType": "uint256",
					"name": "_tokenPrice",
					"type": "uint256"
				}
			],
			"stateMutability": "nonpayable",
			"type": "constructor"
		},
		{
			"anonymous": false,
			"inputs": [
				{
					"indexed": false,
					"internalType": "string",
					"name": "desc",
					"type": "string"
				},
				{
					"indexed": false,
					"internalType": "uint256[5]",
					"name": "value",
					"type": "uint256[5]"
				}
			],
			"name": "LogLine",
			"type": "event"
		},
		{
			"anonymous": false,
			"inputs": [
				{
					"indexed": false,
					"internalType": "string",
					"name": "desc",
					"type": "string"
				},
				{
					"indexed": false,
					"internalType": "uint256[5][3]",
					"name": "value",
					"type": "uint256[5][3]"
				}
			],
			"name": "LogSlots",
			"type": "event"
		},
		{
			"anonymous": false,
			"inputs": [
				{
					"indexed": false,
					"internalType": "string",
					"name": "message",
					"type": "string"
				}
			],
			"name": "LogString",
			"type": "event"
		},
		{
			"anonymous": false,
			"inputs": [
				{
					"indexed": false,
					"internalType": "string",
					"name": "desc",
					"type": "string"
				},
				{
					"indexed": false,
					"internalType": "uint256",
					"name": "value",
					"type": "uint256"
				}
			],
			"name": "LogUint256",
			"type": "event"
		},
		{
			"anonymous": false,
			"inputs": [
				{
					"indexed": false,
					"internalType": "string",
					"name": "desc",
					"type": "string"
				},
				{
					"indexed": false,
					"internalType": "uint256[]",
					"name": "value",
					"type": "uint256[]"
				}
			],
			"name": "LogUint256Array",
			"type": "event"
		},
		{
			"anonymous": false,
			"inputs": [
				{
					"indexed": true,
					"internalType": "address",
					"name": "previousOwner",
					"type": "address"
				},
				{
					"indexed": true,
					"internalType": "address",
					"name": "newOwner",
					"type": "address"
				}
			],
			"name": "OwnershipTransferred",
			"type": "event"
		},
		{
			"anonymous": false,
			"inputs": [
				{
					"indexed": false,
					"internalType": "address",
					"name": "user",
					"type": "address"
				},
				{
					"indexed": false,
					"internalType": "uint256",
					"name": "bet",
					"type": "uint256"
				},
				{
					"indexed": false,
					"internalType": "uint256",
					"name": "lines",
					"type": "uint256"
				},
				{
					"indexed": false,
					"internalType": "uint256",
					"name": "winAmount",
					"type": "uint256"
				},
				{
					"indexed": false,
					"internalType": "uint256[5]",
					"name": "slots",
					"type": "uint256[5]"
				},
				{
					"indexed": false,
					"internalType": "uint256[20]",
					"name": "spinWinLines",
					"type": "uint256[20]"
				},
				{
					"indexed": false,
					"internalType": "uint256[20]",
					"name": "spinWinSlots",
					"type": "uint256[20]"
				},
				{
					"indexed": false,
					"internalType": "uint256",
					"name": "maxLine",
					"type": "uint256"
				},
				{
					"indexed": false,
					"internalType": "uint256",
					"name": "maxLineWin",
					"type": "uint256"
				},
				{
					"indexed": false,
					"internalType": "uint256",
					"name": "maxWinSlot",
					"type": "uint256"
				}
			],
			"name": "ReelsSpinned",
			"type": "event"
		},
		{
			"inputs": [
				{
					"internalType": "uint256",
					"name": "bets",
					"type": "uint256"
				}
			],
			"name": "addUserBalance",
			"outputs": [],
			"stateMutability": "nonpayable",
			"type": "function"
		},
		{
			"inputs": [
				{
					"internalType": "uint256",
					"name": "tokenAmount",
					"type": "uint256"
				}
			],
			"name": "buyTokens",
			"outputs": [],
			"stateMutability": "nonpayable",
			"type": "function"
		},
		{
			"inputs": [],
			"name": "currency",
			"outputs": [
				{
					"internalType": "contract IERC20",
					"name": "",
					"type": "address"
				}
			],
			"stateMutability": "view",
			"type": "function"
		},
		{
			"inputs": [
				{
					"internalType": "uint256",
					"name": "bet",
					"type": "uint256"
				},
				{
					"internalType": "uint256",
					"name": "lineCount",
					"type": "uint256"
				},
				{
					"internalType": "bytes32",
					"name": "_seed",
					"type": "bytes32"
				}
			],
			"name": "doSpin",
			"outputs": [],
			"stateMutability": "nonpayable",
			"type": "function"
		},
		{
			"inputs": [
				{
					"internalType": "bytes32",
					"name": "_flushSeed",
					"type": "bytes32"
				}
			],
			"name": "flushRandom",
			"outputs": [],
			"stateMutability": "nonpayable",
			"type": "function"
		},
		{
			"inputs": [],
			"name": "getBankInTokens",
			"outputs": [
				{
					"internalType": "uint256",
					"name": "",
					"type": "uint256"
				}
			],
			"stateMutability": "view",
			"type": "function"
		},
		{
			"inputs": [],
			"name": "getCurrency",
			"outputs": [
				{
					"internalType": "address",
					"name": "",
					"type": "address"
				}
			],
			"stateMutability": "view",
			"type": "function"
		},
		{
			"inputs": [],
			"name": "getMaxBet",
			"outputs": [
				{
					"internalType": "uint256",
					"name": "",
					"type": "uint256"
				}
			],
			"stateMutability": "view",
			"type": "function"
		},
		{
			"inputs": [],
			"name": "getMaxLines",
			"outputs": [
				{
					"internalType": "uint256",
					"name": "",
					"type": "uint256"
				}
			],
			"stateMutability": "view",
			"type": "function"
		},
		{
			"inputs": [],
			"name": "getMultiplers",
			"outputs": [
				{
					"internalType": "uint256[5][9]",
					"name": "",
					"type": "uint256[5][9]"
				}
			],
			"stateMutability": "view",
			"type": "function"
		},
		{
			"inputs": [],
			"name": "getMyBalance",
			"outputs": [
				{
					"internalType": "uint256",
					"name": "",
					"type": "uint256"
				}
			],
			"stateMutability": "view",
			"type": "function"
		},
		{
			"inputs": [],
			"name": "getTokenPrice",
			"outputs": [
				{
					"internalType": "uint256",
					"name": "",
					"type": "uint256"
				}
			],
			"stateMutability": "view",
			"type": "function"
		},
		{
			"inputs": [
				{
					"internalType": "address",
					"name": "user",
					"type": "address"
				}
			],
			"name": "getUserBalance",
			"outputs": [
				{
					"internalType": "uint256",
					"name": "",
					"type": "uint256"
				}
			],
			"stateMutability": "view",
			"type": "function"
		},
		{
			"inputs": [],
			"name": "getWildSlot",
			"outputs": [
				{
					"internalType": "uint256",
					"name": "",
					"type": "uint256"
				}
			],
			"stateMutability": "view",
			"type": "function"
		},
		{
			"inputs": [],
			"name": "getWinLines",
			"outputs": [
				{
					"internalType": "uint256[5][]",
					"name": "",
					"type": "uint256[5][]"
				}
			],
			"stateMutability": "view",
			"type": "function"
		},
		{
			"inputs": [],
			"name": "owner",
			"outputs": [
				{
					"internalType": "address",
					"name": "",
					"type": "address"
				}
			],
			"stateMutability": "view",
			"type": "function"
		},
		{
			"inputs": [
				{
					"internalType": "address",
					"name": "",
					"type": "address"
				},
				{
					"internalType": "uint256",
					"name": "",
					"type": "uint256"
				}
			],
			"name": "playerSpins",
			"outputs": [
				{
					"internalType": "uint256",
					"name": "spinId",
					"type": "uint256"
				},
				{
					"internalType": "address",
					"name": "player",
					"type": "address"
				},
				{
					"internalType": "uint256",
					"name": "bet",
					"type": "uint256"
				},
				{
					"internalType": "uint256",
					"name": "utx",
					"type": "uint256"
				},
				{
					"internalType": "uint256",
					"name": "lines",
					"type": "uint256"
				},
				{
					"internalType": "uint256",
					"name": "winAmount",
					"type": "uint256"
				}
			],
			"stateMutability": "view",
			"type": "function"
		},
		{
			"inputs": [],
			"name": "renounceOwnership",
			"outputs": [],
			"stateMutability": "nonpayable",
			"type": "function"
		},
		{
			"inputs": [
				{
					"internalType": "uint256",
					"name": "newTokenPrice",
					"type": "uint256"
				},
				{
					"internalType": "uint256",
					"name": "newMaxBet",
					"type": "uint256"
				},
				{
					"internalType": "uint256",
					"name": "newMaxLines",
					"type": "uint256"
				},
				{
					"internalType": "uint256",
					"name": "newWildSlot",
					"type": "uint256"
				},
				{
					"internalType": "uint256[5][9]",
					"name": "newWinCombinations",
					"type": "uint256[5][9]"
				}
			],
			"name": "saveSettings",
			"outputs": [],
			"stateMutability": "nonpayable",
			"type": "function"
		},
		{
			"inputs": [
				{
					"internalType": "address",
					"name": "newCurrency",
					"type": "address"
				}
			],
			"name": "setCurrency",
			"outputs": [],
			"stateMutability": "nonpayable",
			"type": "function"
		},
		{
			"inputs": [
				{
					"internalType": "uint256",
					"name": "newMaxBet",
					"type": "uint256"
				}
			],
			"name": "setMaxBet",
			"outputs": [],
			"stateMutability": "nonpayable",
			"type": "function"
		},
		{
			"inputs": [
				{
					"internalType": "uint256",
					"name": "newMaxLines",
					"type": "uint256"
				}
			],
			"name": "setMaxLines",
			"outputs": [],
			"stateMutability": "nonpayable",
			"type": "function"
		},
		{
			"inputs": [
				{
					"internalType": "uint256[5][9]",
					"name": "_slotMult",
					"type": "uint256[5][9]"
				}
			],
			"name": "setMultiplers",
			"outputs": [],
			"stateMutability": "nonpayable",
			"type": "function"
		},
		{
			"inputs": [
				{
					"internalType": "uint256",
					"name": "newTokenPrice",
					"type": "uint256"
				}
			],
			"name": "setTokenPrice",
			"outputs": [],
			"stateMutability": "nonpayable",
			"type": "function"
		},
		{
			"inputs": [
				{
					"internalType": "uint256",
					"name": "_newWildSlot",
					"type": "uint256"
				}
			],
			"name": "setWildSlot",
			"outputs": [],
			"stateMutability": "nonpayable",
			"type": "function"
		},
		{
			"inputs": [
				{
					"internalType": "uint256[5][]",
					"name": "_winLines",
					"type": "uint256[5][]"
				}
			],
			"name": "setWinLines",
			"outputs": [],
			"stateMutability": "nonpayable",
			"type": "function"
		},
		{
			"inputs": [],
			"name": "tokenPrice",
			"outputs": [
				{
					"internalType": "uint256",
					"name": "",
					"type": "uint256"
				}
			],
			"stateMutability": "view",
			"type": "function"
		},
		{
			"inputs": [
				{
					"internalType": "address",
					"name": "newOwner",
					"type": "address"
				}
			],
			"name": "transferOwnership",
			"outputs": [],
			"stateMutability": "nonpayable",
			"type": "function"
		},
		{
			"inputs": [],
			"name": "withdrawTokens",
			"outputs": [],
			"stateMutability": "nonpayable",
			"type": "function"
		}
	]
}