{
	"data": {
		"bytecode": {
			"linkReferences": {},
			"object": "6002805463ffffffff191660059081178255600190819055610300818152610320829052610340829052610360829052610380829052608090815260006103a08181526103c08290526103e082905261040082905261042082905260a0526104408481526104608590526104808590526104a08590526104c085905260c0526104e083815261050084905261052082905261054084905261056085905260e0526105808381526105a08490526105c08590526105e0849052610600829052610100526106208381526106408290526106608490526106808590526106a0849052610120526106c08381526106e0829052610700849052610720859052610740859052610140526107608381526107808290526107a08290526107c08490526107e085905261016052610800838152610820859052610840849052610860829052610880849052610180526108a08381526108c08590526108e08590526109008490526109208290526101a0526109408381526109608590526109808490526109a08290526109c08290526101c0526109e0818152610a00849052610a20859052610a40849052610a608290526101e052610a80818152610aa0849052610ac0849052610ae0849052610b0085905261020052610b20818152610b40829052610b60849052610b80859052610ba085905261022052610bc0818152610be0829052610c00849052610c20859052610c4084905261024052610c60818152610c80829052610ca0829052610cc0849052610ce085905261026052610d00848152610d20849052610d40829052610d60849052610d8085905261028052610da0848152610dc0849052610de0849052610e00849052610e208290526102a052610e40848152610e60859052610e80849052610ea0829052610ec08290526102c052610f80604052610ee0848152610f0094909452610f20839052610f4052610f60919091526102e091909152620002d8906006906014620005f7565b506040518061012001604052806040518060a001604052806000815260200160008152602001601481526020016050815260200160c881525081526020016040518060a0016040528060008152602001600081526020016028815260200161019081526020016107d081525081526020016040518060a001604052806000815260200160088152602001600f8152602001607881526020016101f481525081526020016040518060a0016040528060008152602001600281526020016008815260200160148152602001605081525081526020016040518060a0016040528060008152602001600081526020016008815260200160148152602001605081525081526020016040518060a001604052806000815260200160008152602001601481526020016050815260200160c881525081526020016040518060a0016040528060008152602001600081526020016008815260200160148152602001605081525081526020016040518060a0016040528060008152602001600081526020016014815260200160c881526020016103e881525081526020016040518060a0016040528060008152602001600081526020016002815260200160058152602001600f8152508152506008906009620004b292919062000658565b506040805160a081018252620186a0815261271060208201526103e89181019190915260646060820152600a6080820152620004f390603590600562000698565b506040805160a08101825261271081526103e8602082015260649181018290526060810191909152600160808201526200053290603a906005620006de565b506000603f81905560408190556041553480156200054f57600080fd5b5060405162002683380380620026838339810160408190526200057291620007c4565b6200057d33620005a7565b600480546001600160a01b0319166001600160a01b03939093169290921790915560055562000800565b600080546001600160a01b038381166001600160a01b0319831681178455604051919092169283917f8be0079c531659141344cd1fd0a4f28419497f9722a3daafe3b4186f6b6457e09190a35050565b82805482825590600052602060002090600502810192821562000646579160200282015b828111156200064657825162000635908390600562000715565b50916020019190600501906200061b565b50620006549291506200074b565b5090565b602d8301918390821562000646579160200282015b82811115620006465782516200068790839060056200077c565b50916020019190600501906200066d565b8260058101928215620006d0579160200282015b82811115620006d0578251829062ffffff16905591602001919060010190620006ac565b5062000654929150620007ad565b8260058101928215620006d0579160200282015b82811115620006d0578251829061ffff16905591602001919060010190620006f2565b8260058101928215620006d0579160200282015b82811115620006d0578251829060ff1690559160200191906001019062000729565b808211156200065457600080825560018201819055600282018190556003820181905560048201556005016200074b565b8260058101928215620006d0579160200282015b82811115620006d057825182559160200191906001019062000790565b5b80821115620006545760008155600101620007ae565b60008060408385031215620007d857600080fd5b82516001600160a01b0381168114620007f057600080fd5b6020939093015192949293505050565b611e7380620008106000396000f3fe608060405234801561001057600080fd5b50600436106101425760003560e01c8063715018a6116100b8578063a3e2e8ce1161007c578063a3e2e8ce146102c0578063d3f0a7ce146102d3578063e5a6b10f146102e8578063e9a4a03d146102fb578063f2fde38b14610303578063f7e944ee1461031657600080fd5b8063715018a6146102835780637ff9b5961461028b57806381b87e54146102945780638d8f2adb146102a75780638da5cb5b146102af57600080fd5b8063477348921161010a57806347734892146101e45780634b94f50e1461021b5780634c738909146102235780636945c1fd146102385780636a61e5fc1461025d5780636f43022c1461027057600080fd5b806317adaa031461014757806322526328146101945780632f84c391146101a95780633610724e146101bc5780634282cf54146101cf575b600080fd5b61015a61015536600461196b565b610329565b604080519687526001600160a01b039095166020870152938501929092526060840152608083015260a082015260c0015b60405180910390f35b6101a76101a2366004611b06565b610387565b005b6101a76101b7366004611950565b6103ae565b6101a76101ca366004611b06565b6103d8565b6101d761061f565b60405161018b9190611c76565b61020d6101f2366004611950565b6001600160a01b031660009081526003602052604090205490565b60405190815260200161018b565b60055461020d565b3360009081526003602052604090205461020d565b6004546001600160a01b03165b6040516001600160a01b03909116815260200161018b565b6101a761026b366004611b06565b61069d565b6101a761027e366004611a2a565b6106aa565b6101a76106c9565b61020d60055481565b6101a76102a2366004611995565b6106dd565b6101a76106f2565b6000546001600160a01b0316610245565b6101a76102ce366004611b38565b6108d9565b6102db610bc3565b60405161018b9190611c39565b600454610245906001600160a01b031681565b61020d610c26565b6101a7610311366004611950565b610cbe565b6101a7610324366004611b06565b610d37565b6007602052816000526040600020818154811061034557600080fd5b60009182526020909120600b9091020180546001820154600283015460038401546004850154600a909501549396506001600160a01b03909216945092909186565b33600090815260036020526040812080548392906103a6908490611d28565b909155505050565b6103b6610da7565b600480546001600160a01b0319166001600160a01b0392909216919091179055565b6000600554826103e89190611d54565b600480546040516370a0823160e01b815233928101929092529192506000916001600160a01b0316906370a082319060240160206040518083038186803b15801561043257600080fd5b505afa158015610446573d6000803e3d6000fd5b505050506040513d601f19601f8201168201806040525081019061046a9190611b1f565b9050818110156104de5760405162461bcd60e51b815260206004820152603460248201527f596f7520646f206e6f74206861766520656e6f75676820746f6b656e73206f6e60448201527320796f75722062616c616e636520746f2070617960601b60648201526084015b60405180910390fd5b60048054604051636eb1769f60e11b815233928101929092523060248301526000916001600160a01b039091169063dd62ed3e9060440160206040518083038186803b15801561052d57600080fd5b505afa158015610541573d6000803e3d6000fd5b505050506040513d601f19601f820116820180604052508101906105659190611b1f565b9050828110156105dd5760405162461bcd60e51b815260206004820152603a60248201527f596f7520646964206e6f7420616c6c6f772074686520636f6e7472616374207460448201527f6f2073656e642074686520707572636861736520616d6f756e7400000000000060648201526084016104d5565b6004546105f5906001600160a01b0316333086610e01565b3360009081526003602052604081208054869290610614908490611d28565b909155505050505050565b60606006805480602002602001604051908101604052809291908181526020016000905b82821015610694576000848152602090206040805160a08101918290529160058581029091019182845b81548152602001906001019080831161066d57505050505081526020019060010190610643565b50505050905090565b6106a5610da7565b600555565b6106b2610da7565b80516106c5906006906020840190611713565b5050565b6106d1610da7565b6106db6000610e61565b565b6106e5610da7565b6106c5600882600961176d565b3360009081526003602052604090205461074e5760405162461bcd60e51b815260206004820152601e60248201527f4e6f7420656e6f75746820746f6b656e7320666f72207769746864726177000060448201526064016104d5565b60055433600090815260036020526040812054909161076c91611d54565b600480546040516370a0823160e01b815230928101929092529192506000916001600160a01b0316906370a082319060240160206040518083038186803b1580156107b657600080fd5b505afa1580156107ca573d6000803e3d6000fd5b505050506040513d601f19601f820116820180604052508101906107ee9190611b1f565b905081811161083f5760405162461bcd60e51b815260206004820152601960248201527f4e6f7420656e6f75746820746f6b656e7320696e2062616e6b0000000000000060448201526064016104d5565b6004805460405163a9059cbb60e01b81523392810192909252602482018490526001600160a01b03169063a9059cbb90604401602060405180830381600087803b15801561088c57600080fd5b505af11580156108a0573d6000803e3d6000fd5b505050506040513d601f19601f820116820180604052508101906108c49190611ae4565b50503360009081526003602052604081205550565b60006108e6836001611d28565b6108f09085611d54565b336000908152600360205260409020549091508111156109485760405162461bcd60e51b815260206004820152601360248201527210985b185b98d9481b9bdd08195b9bdd59da1d606a1b60448201526064016104d5565b600654831061098a5760405162461bcd60e51b815260206004820152600e60248201526d546f6f206d616e79206c696e657360901b60448201526064016104d5565b610998600180546001019055565b60006109a360015490565b905060006109b084610eb1565b905060008060006109bf6117a8565b6109c76117a8565b6000805b8b811015610a54576000806109e0838b61111c565b90925090506109ef8f83611d54565b91506109fb8285611d28565b935081868460148110610a1057610a10611e11565b602002015280858460148110610a2857610a28611e11565b602002015287821115610a3f578298508197508096505b50508080610a4c90611db6565b9150506109cb565b50336000908152600360205260409020548190610a72908b90611d73565b610a7c9190611d28565b336000818152600360209081526040808320949094556007815290839020835160e0810185528c8152918201929092529182018e9052426060830152608082018d90529060a081018960016020908102919091015182529081018490528254600180820185556000948552938290208351600b909202019081559082015192810180546001600160a01b0319166001600160a01b039094169390931790925560408101516002830155606081015160038301556080810151600483015560a0810151909190610b5190600580840191906117c7565b5060c09190910151600a909101557f6c98c6ad5e22111183c867670bead07208dbd3aba882d6bd87adbbbdb645d59a338d610b8d8e6001611d28565b60208b0151604051610bad9493929187918a908a908f908f908f90611bc6565b60405180910390a1505050505050505050505050565b610bcb611801565b604080516101208101909152600860096000835b82821015610694576040805160a081019182905290600584810287019182845b815481526020019060010190808311610bff57505050505081526020019060010190610bdf565b600480546040516370a0823160e01b8152309281019290925260009182916001600160a01b0316906370a082319060240160206040518083038186803b158015610c6f57600080fd5b505afa158015610c83573d6000803e3d6000fd5b505050506040513d601f19601f82011682018060405250810190610ca79190611b1f565b90506000610cb7826005546113e8565b9392505050565b610cc6610da7565b6001600160a01b038116610d2b5760405162461bcd60e51b815260206004820152602660248201527f4f776e61626c653a206e6577206f776e657220697320746865207a65726f206160448201526564647265737360d01b60648201526084016104d5565b610d3481610e61565b50565b610d3f610da7565b600042603f5460415460405485610d5560015490565b6040805160208101979097528601949094526060850192909252608084015260a083015260c082015260e00160408051601f198184030181529181528151602090920191909120815460415590555050565b6000546001600160a01b031633146106db5760405162461bcd60e51b815260206004820181905260248201527f4f776e61626c653a2063616c6c6572206973206e6f7420746865206f776e657260448201526064016104d5565b604080516001600160a01b0385811660248301528416604482015260648082018490528251808303909101815260849091019091526020810180516001600160e01b03166323b872dd60e01b179052610e5b9085906113f4565b50505050565b600080546001600160a01b038381166001600160a01b0319831681178455604051919092169283917f8be0079c531659141344cd1fd0a4f28419497f9722a3daafe3b4186f6b6457e09190a35050565b610eb961182f565b6000610ec4836114cb565b90506000610ed5620186a083611dd1565b610ee290620186a0611d28565b9050600080600060405180606001604052806040518060a0016040528060008152602001600081526020016000815260200160008152602001600081525081526020016040518060a00160405280603a600060058110610f4457610f44611e11565b0154603554610f599063ffffffff8b16611dd1565b610f639190611d40565b8152603b54603654602090920191610f819063ffffffff8b16611dd1565b610f8b9190611d40565b8152603c54603754602090920191610fa99063ffffffff8b16611dd1565b610fb39190611d40565b8152603d54603854602090920191610fd19063ffffffff8b16611dd1565b610fdb9190611d40565b8152603e54603954602090920191610ff99063ffffffff8b16611dd1565b6110039190611d40565b81525081526020016040518060a001604052806000815260200160008152602001600081526020016000815260200160008152508152509050600092505b60025463ffffffff16831015611112576020810151836005811061106757611067611e11565b60200201519150816009141561107c57600091505b60208101518290846005811061109457611094611e11565b602002015281156110af576110aa600183611d73565b6110b2565b60085b815184600581106110c5576110c5611e11565b6020020152600882146110e2576110dd826001611d28565b6110e5565b60005b604082015184600581106110fb576110fb611e11565b60200201528261110a81611db6565b935050611041565b9695505050505050565b600080808080805b60058110156111bb5760018760068a8154811061114357611143611e11565b9060005260206000209060050201836005811061116257611162611e11565b01546003811061117457611174611e11565b6020020151826005811061118a5761118a611e11565b60200201511461119c578092506111bb565b836111a681611db6565b945050806111b381611db6565b915050611124565b506000831180156111ea57506000600d6111d6600186611d73565b600581106111e6576111e6611e11565b0154115b15611220576000600d6111fe600186611d73565b6005811061120e5761120e611e11565b01549550600194506113e19350505050565b856006888154811061123457611234611e11565b9060005260206000209060050201836005811061125357611253611e11565b01546003811061126557611265611e11565b6020020151826005811061127b5761127b611e11565b60200201519050600061128f836001611d28565b90505b600581101561139557818760068a815481106112b0576112b0611e11565b906000526020600020906005020183600581106112cf576112cf611e11565b0154600381106112e1576112e1611e11565b602002015182600581106112f7576112f7611e11565b60200201511480611367575060018760068a8154811061131957611319611e11565b9060005260206000209060050201836005811061133857611338611e11565b01546003811061134a5761134a611e11565b6020020151826005811061136057611360611e11565b6020020151145b1561137e578361137681611db6565b945050611383565b611395565b8061138d81611db6565b915050611292565b5082156113d6576000600882600981106113b1576113b1611e11565b6005020184600581106113c6576113c6611e11565b015495509093506113e192505050565b600080945094505050505b9250929050565b6000610cb78284611d40565b6000611449826040518060400160405280602081526020017f5361666545524332303a206c6f772d6c6576656c2063616c6c206661696c6564815250856001600160a01b03166115869092919063ffffffff16565b8051909150156114c657808060200190518101906114679190611ae4565b6114c65760405162461bcd60e51b815260206004820152602a60248201527f5361666545524332303a204552433230206f7065726174696f6e20646964206e6044820152691bdd081cdd58d8d9595960b21b60648201526084016104d5565b505050565b6000804283603f5460405460415443404144453a335a60015460408051602081019e909e528d019b909b526060808d019a909a5260808c019890985260a08b019690965260c08a01949094526bffffffffffffffffffffffff1992871b831660e08a015260f4890191909152610114880152610134870191909152921b9091166101548401526101688301526101888201526101a80160408051601f198184030181529190528051602090910120603f939093555090919050565b6060611595848460008561159d565b949350505050565b6060824710156115fe5760405162461bcd60e51b815260206004820152602660248201527f416464726573733a20696e73756666696369656e742062616c616e636520666f6044820152651c8818d85b1b60d21b60648201526084016104d5565b600080866001600160a01b0316858760405161161a9190611baa565b60006040518083038185875af1925050503d8060008114611657576040519150601f19603f3d011682016040523d82523d6000602084013e61165c565b606091505b509150915061166d87838387611678565b979650505050505050565b606083156116e45782516116dd576001600160a01b0385163b6116dd5760405162461bcd60e51b815260206004820152601d60248201527f416464726573733a2063616c6c20746f206e6f6e2d636f6e747261637400000060448201526064016104d5565b5081611595565b61159583838151156116f95781518083602001fd5b8060405162461bcd60e51b81526004016104d59190611cc4565b82805482825590600052602060002090600502810192821561175d579160200282015b8281111561175d57825161174d90839060056117c7565b5091602001919060050190611736565b5061176992915061185c565b5090565b602d8301918390821561175d579160200282015b8281111561175d57825161179890839060056117c7565b5091602001919060050190611781565b6040518061028001604052806014906020820280368337509192915050565b82600581019282156117f5579160200282015b828111156117f55782518255916020019190600101906117da565b5061176992915061188b565b6040518061012001604052806009905b6118196118a0565b8152602001906001900390816118115790505090565b60405180606001604052806003905b6118466118a0565b81526020019060019003908161183e5790505090565b80821115611769576000808255600182018190556002820181905560038201819055600482015560050161185c565b5b80821115611769576000815560010161188c565b6040518060a001604052806005906020820280368337509192915050565b80356001600160a01b03811681146118d557600080fd5b919050565b600082601f8301126118eb57600080fd5b60405160a0810181811067ffffffffffffffff8211171561190e5761190e611e27565b604052808360a0810186101561192357600080fd5b60005b6005811015611945578135835260209283019290910190600101611926565b509195945050505050565b60006020828403121561196257600080fd5b610cb7826118be565b6000806040838503121561197e57600080fd5b611987836118be565b946020939093013593505050565b60006105a08083850312156119a957600080fd5b83601f8401126119b857600080fd5b604051610120810181811067ffffffffffffffff821117156119dc576119dc611e27565b60405280848381018710156119f057600080fd5b600093505b6009841015611a1f57611a0887826118da565b82526001939093019260209091019060a0016119f5565b509095945050505050565b60006020808385031215611a3d57600080fd5b823567ffffffffffffffff80821115611a5557600080fd5b818501915085601f830112611a6957600080fd5b813581811115611a7b57611a7b611e27565b611a89848260051b01611cf7565b818152848101925083850160a0808402860187018a1015611aa957600080fd5b600095505b83861015611ad657611ac08a836118da565b8552600195909501949386019390810190611aae565b509098975050505050505050565b600060208284031215611af657600080fd5b81518015158114610cb757600080fd5b600060208284031215611b1857600080fd5b5035919050565b600060208284031215611b3157600080fd5b5051919050565b600080600060608486031215611b4d57600080fd5b505081359360208301359350604090920135919050565b8060005b6014811015610e5b578151845260209384019390910190600101611b68565b8060005b6005811015610e5b578151845260209384019390910190600101611b8b565b60008251611bbc818460208701611d8a565b9190910192915050565b6001600160a01b038b168152602081018a905260408101899052606081018890526106808101611bf96080830189611b87565b611c07610120830188611b64565b611c156103a0830187611b64565b8461062083015283610640830152826106608301529b9a5050505050505050505050565b6105a08101818360005b6009811015611c6d57611c57838351611b87565b60a0929092019160209190910190600101611c43565b50505092915050565b6020808252825182820181905260009190848201906040850190845b81811015611cb857611ca5838551611b87565b9284019260a09290920191600101611c92565b50909695505050505050565b6020815260008251806020840152611ce3816040850160208701611d8a565b601f01601f19169190910160400192915050565b604051601f8201601f1916810167ffffffffffffffff81118282101715611d2057611d20611e27565b604052919050565b60008219821115611d3b57611d3b611de5565b500190565b600082611d4f57611d4f611dfb565b500490565b6000816000190483118215151615611d6e57611d6e611de5565b500290565b600082821015611d8557611d85611de5565b500390565b60005b83811015611da5578181015183820152602001611d8d565b83811115610e5b5750506000910152565b6000600019821415611dca57611dca611de5565b5060010190565b600082611de057611de0611dfb565b500690565b634e487b7160e01b600052601160045260246000fd5b634e487b7160e01b600052601260045260246000fd5b634e487b7160e01b600052603260045260246000fd5b634e487b7160e01b600052604160045260246000fdfea26469706673582212205087d73937fc57879c1580eed8a34a184f40fa57bd913a8e5352be2811d2056964736f6c63430008070033",
			"opcodes": "PUSH1 0x2 DUP1 SLOAD PUSH4 0xFFFFFFFF NOT AND PUSH1 0x5 SWAP1 DUP2 OR DUP3 SSTORE PUSH1 0x1 SWAP1 DUP2 SWAP1 SSTORE PUSH2 0x300 DUP2 DUP2 MSTORE PUSH2 0x320 DUP3 SWAP1 MSTORE PUSH2 0x340 DUP3 SWAP1 MSTORE PUSH2 0x360 DUP3 SWAP1 MSTORE PUSH2 0x380 DUP3 SWAP1 MSTORE PUSH1 0x80 SWAP1 DUP2 MSTORE PUSH1 0x0 PUSH2 0x3A0 DUP2 DUP2 MSTORE PUSH2 0x3C0 DUP3 SWAP1 MSTORE PUSH2 0x3E0 DUP3 SWAP1 MSTORE PUSH2 0x400 DUP3 SWAP1 MSTORE PUSH2 0x420 DUP3 SWAP1 MSTORE PUSH1 0xA0 MSTORE PUSH2 0x440 DUP5 DUP2 MSTORE PUSH2 0x460 DUP6 SWAP1 MSTORE PUSH2 0x480 DUP6 SWAP1 MSTORE PUSH2 0x4A0 DUP6 SWAP1 MSTORE PUSH2 0x4C0 DUP6 SWAP1 MSTORE PUSH1 0xC0 MSTORE PUSH2 0x4E0 DUP4 DUP2 MSTORE PUSH2 0x500 DUP5 SWAP1 MSTORE PUSH2 0x520 DUP3 SWAP1 MSTORE PUSH2 0x540 DUP5 SWAP1 MSTORE PUSH2 0x560 DUP6 SWAP1 MSTORE PUSH1 0xE0 MSTORE PUSH2 0x580 DUP4 DUP2 MSTORE PUSH2 0x5A0 DUP5 SWAP1 MSTORE PUSH2 0x5C0 DUP6 SWAP1 MSTORE PUSH2 0x5E0 DUP5 SWAP1 MSTORE PUSH2 0x600 DUP3 SWAP1 MSTORE PUSH2 0x100 MSTORE PUSH2 0x620 DUP4 DUP2 MSTORE PUSH2 0x640 DUP3 SWAP1 MSTORE PUSH2 0x660 DUP5 SWAP1 MSTORE PUSH2 0x680 DUP6 SWAP1 MSTORE PUSH2 0x6A0 DUP5 SWAP1 MSTORE PUSH2 0x120 MSTORE PUSH2 0x6C0 DUP4 DUP2 MSTORE PUSH2 0x6E0 DUP3 SWAP1 MSTORE PUSH2 0x700 DUP5 SWAP1 MSTORE PUSH2 0x720 DUP6 SWAP1 MSTORE PUSH2 0x740 DUP6 SWAP1 MSTORE PUSH2 0x140 MSTORE PUSH2 0x760 DUP4 DUP2 MSTORE PUSH2 0x780 DUP3 SWAP1 MSTORE PUSH2 0x7A0 DUP3 SWAP1 MSTORE PUSH2 0x7C0 DUP5 SWAP1 MSTORE PUSH2 0x7E0 DUP6 SWAP1 MSTORE PUSH2 0x160 MSTORE PUSH2 0x800 DUP4 DUP2 MSTORE PUSH2 0x820 DUP6 SWAP1 MSTORE PUSH2 0x840 DUP5 SWAP1 MSTORE PUSH2 0x860 DUP3 SWAP1 MSTORE PUSH2 0x880 DUP5 SWAP1 MSTORE PUSH2 0x180 MSTORE PUSH2 0x8A0 DUP4 DUP2 MSTORE PUSH2 0x8C0 DUP6 SWAP1 MSTORE PUSH2 0x8E0 DUP6 SWAP1 MSTORE PUSH2 0x900 DUP5 SWAP1 MSTORE PUSH2 0x920 DUP3 SWAP1 MSTORE PUSH2 0x1A0 MSTORE PUSH2 0x940 DUP4 DUP2 MSTORE PUSH2 0x960 DUP6 SWAP1 MSTORE PUSH2 0x980 DUP5 SWAP1 MSTORE PUSH2 0x9A0 DUP3 SWAP1 MSTORE PUSH2 0x9C0 DUP3 SWAP1 MSTORE PUSH2 0x1C0 MSTORE PUSH2 0x9E0 DUP2 DUP2 MSTORE PUSH2 0xA00 DUP5 SWAP1 MSTORE PUSH2 0xA20 DUP6 SWAP1 MSTORE PUSH2 0xA40 DUP5 SWAP1 MSTORE PUSH2 0xA60 DUP3 SWAP1 MSTORE PUSH2 0x1E0 MSTORE PUSH2 0xA80 DUP2 DUP2 MSTORE PUSH2 0xAA0 DUP5 SWAP1 MSTORE PUSH2 0xAC0 DUP5 SWAP1 MSTORE PUSH2 0xAE0 DUP5 SWAP1 MSTORE PUSH2 0xB00 DUP6 SWAP1 MSTORE PUSH2 0x200 MSTORE PUSH2 0xB20 DUP2 DUP2 MSTORE PUSH2 0xB40 DUP3 SWAP1 MSTORE PUSH2 0xB60 DUP5 SWAP1 MSTORE PUSH2 0xB80 DUP6 SWAP1 MSTORE PUSH2 0xBA0 DUP6 SWAP1 MSTORE PUSH2 0x220 MSTORE PUSH2 0xBC0 DUP2 DUP2 MSTORE PUSH2 0xBE0 DUP3 SWAP1 MSTORE PUSH2 0xC00 DUP5 SWAP1 MSTORE PUSH2 0xC20 DUP6 SWAP1 MSTORE PUSH2 0xC40 DUP5 SWAP1 MSTORE PUSH2 0x240 MSTORE PUSH2 0xC60 DUP2 DUP2 MSTORE PUSH2 0xC80 DUP3 SWAP1 MSTORE PUSH2 0xCA0 DUP3 SWAP1 MSTORE PUSH2 0xCC0 DUP5 SWAP1 MSTORE PUSH2 0xCE0 DUP6 SWAP1 MSTORE PUSH2 0x260 MSTORE PUSH2 0xD00 DUP5 DUP2 MSTORE PUSH2 0xD20 DUP5 SWAP1 MSTORE PUSH2 0xD40 DUP3 SWAP1 MSTORE PUSH2 0xD60 DUP5 SWAP1 MSTORE PUSH2 0xD80 DUP6 SWAP1 MSTORE PUSH2 0x280 MSTORE PUSH2 0xDA0 DUP5 DUP2 MSTORE PUSH2 0xDC0 DUP5 SWAP1 MSTORE PUSH2 0xDE0 DUP5 SWAP1 MSTORE PUSH2 0xE00 DUP5 SWAP1 MSTORE PUSH2 0xE20 DUP3 SWAP1 MSTORE PUSH2 0x2A0 MSTORE PUSH2 0xE40 DUP5 DUP2 MSTORE PUSH2 0xE60 DUP6 SWAP1 MSTORE PUSH2 0xE80 DUP5 SWAP1 MSTORE PUSH2 0xEA0 DUP3 SWAP1 MSTORE PUSH2 0xEC0 DUP3 SWAP1 MSTORE PUSH2 0x2C0 MSTORE PUSH2 0xF80 PUSH1 0x40 MSTORE PUSH2 0xEE0 DUP5 DUP2 MSTORE PUSH2 0xF00 SWAP5 SWAP1 SWAP5 MSTORE PUSH2 0xF20 DUP4 SWAP1 MSTORE PUSH2 0xF40 MSTORE PUSH2 0xF60 SWAP2 SWAP1 SWAP2 MSTORE PUSH2 0x2E0 SWAP2 SWAP1 SWAP2 MSTORE PUSH3 0x2D8 SWAP1 PUSH1 0x6 SWAP1 PUSH1 0x14 PUSH3 0x5F7 JUMP JUMPDEST POP PUSH1 0x40 MLOAD DUP1 PUSH2 0x120 ADD PUSH1 0x40 MSTORE DUP1 PUSH1 0x40 MLOAD DUP1 PUSH1 0xA0 ADD PUSH1 0x40 MSTORE DUP1 PUSH1 0x0 DUP2 MSTORE PUSH1 0x20 ADD PUSH1 0x0 DUP2 MSTORE PUSH1 0x20 ADD PUSH1 0x14 DUP2 MSTORE PUSH1 0x20 ADD PUSH1 0x50 DUP2 MSTORE PUSH1 0x20 ADD PUSH1 0xC8 DUP2 MSTORE POP DUP2 MSTORE PUSH1 0x20 ADD PUSH1 0x40 MLOAD DUP1 PUSH1 0xA0 ADD PUSH1 0x40 MSTORE DUP1 PUSH1 0x0 DUP2 MSTORE PUSH1 0x20 ADD PUSH1 0x0 DUP2 MSTORE PUSH1 0x20 ADD PUSH1 0x28 DUP2 MSTORE PUSH1 0x20 ADD PUSH2 0x190 DUP2 MSTORE PUSH1 0x20 ADD PUSH2 0x7D0 DUP2 MSTORE POP DUP2 MSTORE PUSH1 0x20 ADD PUSH1 0x40 MLOAD DUP1 PUSH1 0xA0 ADD PUSH1 0x40 MSTORE DUP1 PUSH1 0x0 DUP2 MSTORE PUSH1 0x20 ADD PUSH1 0x8 DUP2 MSTORE PUSH1 0x20 ADD PUSH1 0xF DUP2 MSTORE PUSH1 0x20 ADD PUSH1 0x78 DUP2 MSTORE PUSH1 0x20 ADD PUSH2 0x1F4 DUP2 MSTORE POP DUP2 MSTORE PUSH1 0x20 ADD PUSH1 0x40 MLOAD DUP1 PUSH1 0xA0 ADD PUSH1 0x40 MSTORE DUP1 PUSH1 0x0 DUP2 MSTORE PUSH1 0x20 ADD PUSH1 0x2 DUP2 MSTORE PUSH1 0x20 ADD PUSH1 0x8 DUP2 MSTORE PUSH1 0x20 ADD PUSH1 0x14 DUP2 MSTORE PUSH1 0x20 ADD PUSH1 0x50 DUP2 MSTORE POP DUP2 MSTORE PUSH1 0x20 ADD PUSH1 0x40 MLOAD DUP1 PUSH1 0xA0 ADD PUSH1 0x40 MSTORE DUP1 PUSH1 0x0 DUP2 MSTORE PUSH1 0x20 ADD PUSH1 0x0 DUP2 MSTORE PUSH1 0x20 ADD PUSH1 0x8 DUP2 MSTORE PUSH1 0x20 ADD PUSH1 0x14 DUP2 MSTORE PUSH1 0x20 ADD PUSH1 0x50 DUP2 MSTORE POP DUP2 MSTORE PUSH1 0x20 ADD PUSH1 0x40 MLOAD DUP1 PUSH1 0xA0 ADD PUSH1 0x40 MSTORE DUP1 PUSH1 0x0 DUP2 MSTORE PUSH1 0x20 ADD PUSH1 0x0 DUP2 MSTORE PUSH1 0x20 ADD PUSH1 0x14 DUP2 MSTORE PUSH1 0x20 ADD PUSH1 0x50 DUP2 MSTORE PUSH1 0x20 ADD PUSH1 0xC8 DUP2 MSTORE POP DUP2 MSTORE PUSH1 0x20 ADD PUSH1 0x40 MLOAD DUP1 PUSH1 0xA0 ADD PUSH1 0x40 MSTORE DUP1 PUSH1 0x0 DUP2 MSTORE PUSH1 0x20 ADD PUSH1 0x0 DUP2 MSTORE PUSH1 0x20 ADD PUSH1 0x8 DUP2 MSTORE PUSH1 0x20 ADD PUSH1 0x14 DUP2 MSTORE PUSH1 0x20 ADD PUSH1 0x50 DUP2 MSTORE POP DUP2 MSTORE PUSH1 0x20 ADD PUSH1 0x40 MLOAD DUP1 PUSH1 0xA0 ADD PUSH1 0x40 MSTORE DUP1 PUSH1 0x0 DUP2 MSTORE PUSH1 0x20 ADD PUSH1 0x0 DUP2 MSTORE PUSH1 0x20 ADD PUSH1 0x14 DUP2 MSTORE PUSH1 0x20 ADD PUSH1 0xC8 DUP2 MSTORE PUSH1 0x20 ADD PUSH2 0x3E8 DUP2 MSTORE POP DUP2 MSTORE PUSH1 0x20 ADD PUSH1 0x40 MLOAD DUP1 PUSH1 0xA0 ADD PUSH1 0x40 MSTORE DUP1 PUSH1 0x0 DUP2 MSTORE PUSH1 0x20 ADD PUSH1 0x0 DUP2 MSTORE PUSH1 0x20 ADD PUSH1 0x2 DUP2 MSTORE PUSH1 0x20 ADD PUSH1 0x5 DUP2 MSTORE PUSH1 0x20 ADD PUSH1 0xF DUP2 MSTORE POP DUP2 MSTORE POP PUSH1 0x8 SWAP1 PUSH1 0x9 PUSH3 0x4B2 SWAP3 SWAP2 SWAP1 PUSH3 0x658 JUMP JUMPDEST POP PUSH1 0x40 DUP1 MLOAD PUSH1 0xA0 DUP2 ADD DUP3 MSTORE PUSH3 0x186A0 DUP2 MSTORE PUSH2 0x2710 PUSH1 0x20 DUP3 ADD MSTORE PUSH2 0x3E8 SWAP2 DUP2 ADD SWAP2 SWAP1 SWAP2 MSTORE PUSH1 0x64 PUSH1 0x60 DUP3 ADD MSTORE PUSH1 0xA PUSH1 0x80 DUP3 ADD MSTORE PUSH3 0x4F3 SWAP1 PUSH1 0x35 SWAP1 PUSH1 0x5 PUSH3 0x698 JUMP JUMPDEST POP PUSH1 0x40 DUP1 MLOAD PUSH1 0xA0 DUP2 ADD DUP3 MSTORE PUSH2 0x2710 DUP2 MSTORE PUSH2 0x3E8 PUSH1 0x20 DUP3 ADD MSTORE PUSH1 0x64 SWAP2 DUP2 ADD DUP3 SWAP1 MSTORE PUSH1 0x60 DUP2 ADD SWAP2 SWAP1 SWAP2 MSTORE PUSH1 0x1 PUSH1 0x80 DUP3 ADD MSTORE PUSH3 0x532 SWAP1 PUSH1 0x3A SWAP1 PUSH1 0x5 PUSH3 0x6DE JUMP JUMPDEST POP PUSH1 0x0 PUSH1 0x3F DUP2 SWAP1 SSTORE PUSH1 0x40 DUP2 SWAP1 SSTORE PUSH1 0x41 SSTORE CALLVALUE DUP1 ISZERO PUSH3 0x54F JUMPI PUSH1 0x0 DUP1 REVERT JUMPDEST POP PUSH1 0x40 MLOAD PUSH3 0x2683 CODESIZE SUB DUP1 PUSH3 0x2683 DUP4 CODECOPY DUP2 ADD PUSH1 0x40 DUP2 SWAP1 MSTORE PUSH3 0x572 SWAP2 PUSH3 0x7C4 JUMP JUMPDEST PUSH3 0x57D CALLER PUSH3 0x5A7 JUMP JUMPDEST PUSH1 0x4 DUP1 SLOAD PUSH1 0x1 PUSH1 0x1 PUSH1 0xA0 SHL SUB NOT AND PUSH1 0x1 PUSH1 0x1 PUSH1 0xA0 SHL SUB SWAP4 SWAP1 SWAP4 AND SWAP3 SWAP1 SWAP3 OR SWAP1 SWAP2 SSTORE PUSH1 0x5 SSTORE PUSH3 0x800 JUMP JUMPDEST PUSH1 0x0 DUP1 SLOAD PUSH1 0x1 PUSH1 0x1 PUSH1 0xA0 SHL SUB DUP4 DUP2 AND PUSH1 0x1 PUSH1 0x1 PUSH1 0xA0 SHL SUB NOT DUP4 AND DUP2 OR DUP5 SSTORE PUSH1 0x40 MLOAD SWAP2 SWAP1 SWAP3 AND SWAP3 DUP4 SWAP2 PUSH32 0x8BE0079C531659141344CD1FD0A4F28419497F9722A3DAAFE3B4186F6B6457E0 SWAP2 SWAP1 LOG3 POP POP JUMP JUMPDEST DUP3 DUP1 SLOAD DUP3 DUP3 SSTORE SWAP1 PUSH1 0x0 MSTORE PUSH1 0x20 PUSH1 0x0 KECCAK256 SWAP1 PUSH1 0x5 MUL DUP2 ADD SWAP3 DUP3 ISZERO PUSH3 0x646 JUMPI SWAP2 PUSH1 0x20 MUL DUP3 ADD JUMPDEST DUP3 DUP2 GT ISZERO PUSH3 0x646 JUMPI DUP3 MLOAD PUSH3 0x635 SWAP1 DUP4 SWAP1 PUSH1 0x5 PUSH3 0x715 JUMP JUMPDEST POP SWAP2 PUSH1 0x20 ADD SWAP2 SWAP1 PUSH1 0x5 ADD SWAP1 PUSH3 0x61B JUMP JUMPDEST POP PUSH3 0x654 SWAP3 SWAP2 POP PUSH3 0x74B JUMP JUMPDEST POP SWAP1 JUMP JUMPDEST PUSH1 0x2D DUP4 ADD SWAP2 DUP4 SWAP1 DUP3 ISZERO PUSH3 0x646 JUMPI SWAP2 PUSH1 0x20 MUL DUP3 ADD JUMPDEST DUP3 DUP2 GT ISZERO PUSH3 0x646 JUMPI DUP3 MLOAD PUSH3 0x687 SWAP1 DUP4 SWAP1 PUSH1 0x5 PUSH3 0x77C JUMP JUMPDEST POP SWAP2 PUSH1 0x20 ADD SWAP2 SWAP1 PUSH1 0x5 ADD SWAP1 PUSH3 0x66D JUMP JUMPDEST DUP3 PUSH1 0x5 DUP2 ADD SWAP3 DUP3 ISZERO PUSH3 0x6D0 JUMPI SWAP2 PUSH1 0x20 MUL DUP3 ADD JUMPDEST DUP3 DUP2 GT ISZERO PUSH3 0x6D0 JUMPI DUP3 MLOAD DUP3 SWAP1 PUSH3 0xFFFFFF AND SWAP1 SSTORE SWAP2 PUSH1 0x20 ADD SWAP2 SWAP1 PUSH1 0x1 ADD SWAP1 PUSH3 0x6AC JUMP JUMPDEST POP PUSH3 0x654 SWAP3 SWAP2 POP PUSH3 0x7AD JUMP JUMPDEST DUP3 PUSH1 0x5 DUP2 ADD SWAP3 DUP3 ISZERO PUSH3 0x6D0 JUMPI SWAP2 PUSH1 0x20 MUL DUP3 ADD JUMPDEST DUP3 DUP2 GT ISZERO PUSH3 0x6D0 JUMPI DUP3 MLOAD DUP3 SWAP1 PUSH2 0xFFFF AND SWAP1 SSTORE SWAP2 PUSH1 0x20 ADD SWAP2 SWAP1 PUSH1 0x1 ADD SWAP1 PUSH3 0x6F2 JUMP JUMPDEST DUP3 PUSH1 0x5 DUP2 ADD SWAP3 DUP3 ISZERO PUSH3 0x6D0 JUMPI SWAP2 PUSH1 0x20 MUL DUP3 ADD JUMPDEST DUP3 DUP2 GT ISZERO PUSH3 0x6D0 JUMPI DUP3 MLOAD DUP3 SWAP1 PUSH1 0xFF AND SWAP1 SSTORE SWAP2 PUSH1 0x20 ADD SWAP2 SWAP1 PUSH1 0x1 ADD SWAP1 PUSH3 0x729 JUMP JUMPDEST DUP1 DUP3 GT ISZERO PUSH3 0x654 JUMPI PUSH1 0x0 DUP1 DUP3 SSTORE PUSH1 0x1 DUP3 ADD DUP2 SWAP1 SSTORE PUSH1 0x2 DUP3 ADD DUP2 SWAP1 SSTORE PUSH1 0x3 DUP3 ADD DUP2 SWAP1 SSTORE PUSH1 0x4 DUP3 ADD SSTORE PUSH1 0x5 ADD PUSH3 0x74B JUMP JUMPDEST DUP3 PUSH1 0x5 DUP2 ADD SWAP3 DUP3 ISZERO PUSH3 0x6D0 JUMPI SWAP2 PUSH1 0x20 MUL DUP3 ADD JUMPDEST DUP3 DUP2 GT ISZERO PUSH3 0x6D0 JUMPI DUP3 MLOAD DUP3 SSTORE SWAP2 PUSH1 0x20 ADD SWAP2 SWAP1 PUSH1 0x1 ADD SWAP1 PUSH3 0x790 JUMP JUMPDEST JUMPDEST DUP1 DUP3 GT ISZERO PUSH3 0x654 JUMPI PUSH1 0x0 DUP2 SSTORE PUSH1 0x1 ADD PUSH3 0x7AE JUMP JUMPDEST PUSH1 0x0 DUP1 PUSH1 0x40 DUP4 DUP6 SUB SLT ISZERO PUSH3 0x7D8 JUMPI PUSH1 0x0 DUP1 REVERT JUMPDEST DUP3 MLOAD PUSH1 0x1 PUSH1 0x1 PUSH1 0xA0 SHL SUB DUP2 AND DUP2 EQ PUSH3 0x7F0 JUMPI PUSH1 0x0 DUP1 REVERT JUMPDEST PUSH1 0x20 SWAP4 SWAP1 SWAP4 ADD MLOAD SWAP3 SWAP5 SWAP3 SWAP4 POP POP POP JUMP JUMPDEST PUSH2 0x1E73 DUP1 PUSH3 0x810 PUSH1 0x0 CODECOPY PUSH1 0x0 RETURN INVALID PUSH1 0x80 PUSH1 0x40 MSTORE CALLVALUE DUP1 ISZERO PUSH2 0x10 JUMPI PUSH1 0x0 DUP1 REVERT JUMPDEST POP PUSH1 0x4 CALLDATASIZE LT PUSH2 0x142 JUMPI PUSH1 0x0 CALLDATALOAD PUSH1 0xE0 SHR DUP1 PUSH4 0x715018A6 GT PUSH2 0xB8 JUMPI DUP1 PUSH4 0xA3E2E8CE GT PUSH2 0x7C JUMPI DUP1 PUSH4 0xA3E2E8CE EQ PUSH2 0x2C0 JUMPI DUP1 PUSH4 0xD3F0A7CE EQ PUSH2 0x2D3 JUMPI DUP1 PUSH4 0xE5A6B10F EQ PUSH2 0x2E8 JUMPI DUP1 PUSH4 0xE9A4A03D EQ PUSH2 0x2FB JUMPI DUP1 PUSH4 0xF2FDE38B EQ PUSH2 0x303 JUMPI DUP1 PUSH4 0xF7E944EE EQ PUSH2 0x316 JUMPI PUSH1 0x0 DUP1 REVERT JUMPDEST DUP1 PUSH4 0x715018A6 EQ PUSH2 0x283 JUMPI DUP1 PUSH4 0x7FF9B596 EQ PUSH2 0x28B JUMPI DUP1 PUSH4 0x81B87E54 EQ PUSH2 0x294 JUMPI DUP1 PUSH4 0x8D8F2ADB EQ PUSH2 0x2A7 JUMPI DUP1 PUSH4 0x8DA5CB5B EQ PUSH2 0x2AF JUMPI PUSH1 0x0 DUP1 REVERT JUMPDEST DUP1 PUSH4 0x47734892 GT PUSH2 0x10A JUMPI DUP1 PUSH4 0x47734892 EQ PUSH2 0x1E4 JUMPI DUP1 PUSH4 0x4B94F50E EQ PUSH2 0x21B JUMPI DUP1 PUSH4 0x4C738909 EQ PUSH2 0x223 JUMPI DUP1 PUSH4 0x6945C1FD EQ PUSH2 0x238 JUMPI DUP1 PUSH4 0x6A61E5FC EQ PUSH2 0x25D JUMPI DUP1 PUSH4 0x6F43022C EQ PUSH2 0x270 JUMPI PUSH1 0x0 DUP1 REVERT JUMPDEST DUP1 PUSH4 0x17ADAA03 EQ PUSH2 0x147 JUMPI DUP1 PUSH4 0x22526328 EQ PUSH2 0x194 JUMPI DUP1 PUSH4 0x2F84C391 EQ PUSH2 0x1A9 JUMPI DUP1 PUSH4 0x3610724E EQ PUSH2 0x1BC JUMPI DUP1 PUSH4 0x4282CF54 EQ PUSH2 0x1CF JUMPI JUMPDEST PUSH1 0x0 DUP1 REVERT JUMPDEST PUSH2 0x15A PUSH2 0x155 CALLDATASIZE PUSH1 0x4 PUSH2 0x196B JUMP JUMPDEST PUSH2 0x329 JUMP JUMPDEST PUSH1 0x40 DUP1 MLOAD SWAP7 DUP8 MSTORE PUSH1 0x1 PUSH1 0x1 PUSH1 0xA0 SHL SUB SWAP1 SWAP6 AND PUSH1 0x20 DUP8 ADD MSTORE SWAP4 DUP6 ADD SWAP3 SWAP1 SWAP3 MSTORE PUSH1 0x60 DUP5 ADD MSTORE PUSH1 0x80 DUP4 ADD MSTORE PUSH1 0xA0 DUP3 ADD MSTORE PUSH1 0xC0 ADD JUMPDEST PUSH1 0x40 MLOAD DUP1 SWAP2 SUB SWAP1 RETURN JUMPDEST PUSH2 0x1A7 PUSH2 0x1A2 CALLDATASIZE PUSH1 0x4 PUSH2 0x1B06 JUMP JUMPDEST PUSH2 0x387 JUMP JUMPDEST STOP JUMPDEST PUSH2 0x1A7 PUSH2 0x1B7 CALLDATASIZE PUSH1 0x4 PUSH2 0x1950 JUMP JUMPDEST PUSH2 0x3AE JUMP JUMPDEST PUSH2 0x1A7 PUSH2 0x1CA CALLDATASIZE PUSH1 0x4 PUSH2 0x1B06 JUMP JUMPDEST PUSH2 0x3D8 JUMP JUMPDEST PUSH2 0x1D7 PUSH2 0x61F JUMP JUMPDEST PUSH1 0x40 MLOAD PUSH2 0x18B SWAP2 SWAP1 PUSH2 0x1C76 JUMP JUMPDEST PUSH2 0x20D PUSH2 0x1F2 CALLDATASIZE PUSH1 0x4 PUSH2 0x1950 JUMP JUMPDEST PUSH1 0x1 PUSH1 0x1 PUSH1 0xA0 SHL SUB AND PUSH1 0x0 SWAP1 DUP2 MSTORE PUSH1 0x3 PUSH1 0x20 MSTORE PUSH1 0x40 SWAP1 KECCAK256 SLOAD SWAP1 JUMP JUMPDEST PUSH1 0x40 MLOAD SWAP1 DUP2 MSTORE PUSH1 0x20 ADD PUSH2 0x18B JUMP JUMPDEST PUSH1 0x5 SLOAD PUSH2 0x20D JUMP JUMPDEST CALLER PUSH1 0x0 SWAP1 DUP2 MSTORE PUSH1 0x3 PUSH1 0x20 MSTORE PUSH1 0x40 SWAP1 KECCAK256 SLOAD PUSH2 0x20D JUMP JUMPDEST PUSH1 0x4 SLOAD PUSH1 0x1 PUSH1 0x1 PUSH1 0xA0 SHL SUB AND JUMPDEST PUSH1 0x40 MLOAD PUSH1 0x1 PUSH1 0x1 PUSH1 0xA0 SHL SUB SWAP1 SWAP2 AND DUP2 MSTORE PUSH1 0x20 ADD PUSH2 0x18B JUMP JUMPDEST PUSH2 0x1A7 PUSH2 0x26B CALLDATASIZE PUSH1 0x4 PUSH2 0x1B06 JUMP JUMPDEST PUSH2 0x69D JUMP JUMPDEST PUSH2 0x1A7 PUSH2 0x27E CALLDATASIZE PUSH1 0x4 PUSH2 0x1A2A JUMP JUMPDEST PUSH2 0x6AA JUMP JUMPDEST PUSH2 0x1A7 PUSH2 0x6C9 JUMP JUMPDEST PUSH2 0x20D PUSH1 0x5 SLOAD DUP2 JUMP JUMPDEST PUSH2 0x1A7 PUSH2 0x2A2 CALLDATASIZE PUSH1 0x4 PUSH2 0x1995 JUMP JUMPDEST PUSH2 0x6DD JUMP JUMPDEST PUSH2 0x1A7 PUSH2 0x6F2 JUMP JUMPDEST PUSH1 0x0 SLOAD PUSH1 0x1 PUSH1 0x1 PUSH1 0xA0 SHL SUB AND PUSH2 0x245 JUMP JUMPDEST PUSH2 0x1A7 PUSH2 0x2CE CALLDATASIZE PUSH1 0x4 PUSH2 0x1B38 JUMP JUMPDEST PUSH2 0x8D9 JUMP JUMPDEST PUSH2 0x2DB PUSH2 0xBC3 JUMP JUMPDEST PUSH1 0x40 MLOAD PUSH2 0x18B SWAP2 SWAP1 PUSH2 0x1C39 JUMP JUMPDEST PUSH1 0x4 SLOAD PUSH2 0x245 SWAP1 PUSH1 0x1 PUSH1 0x1 PUSH1 0xA0 SHL SUB AND DUP2 JUMP JUMPDEST PUSH2 0x20D PUSH2 0xC26 JUMP JUMPDEST PUSH2 0x1A7 PUSH2 0x311 CALLDATASIZE PUSH1 0x4 PUSH2 0x1950 JUMP JUMPDEST PUSH2 0xCBE JUMP JUMPDEST PUSH2 0x1A7 PUSH2 0x324 CALLDATASIZE PUSH1 0x4 PUSH2 0x1B06 JUMP JUMPDEST PUSH2 0xD37 JUMP JUMPDEST PUSH1 0x7 PUSH1 0x20 MSTORE DUP2 PUSH1 0x0 MSTORE PUSH1 0x40 PUSH1 0x0 KECCAK256 DUP2 DUP2 SLOAD DUP2 LT PUSH2 0x345 JUMPI PUSH1 0x0 DUP1 REVERT JUMPDEST PUSH1 0x0 SWAP2 DUP3 MSTORE PUSH1 0x20 SWAP1 SWAP2 KECCAK256 PUSH1 0xB SWAP1 SWAP2 MUL ADD DUP1 SLOAD PUSH1 0x1 DUP3 ADD SLOAD PUSH1 0x2 DUP4 ADD SLOAD PUSH1 0x3 DUP5 ADD SLOAD PUSH1 0x4 DUP6 ADD SLOAD PUSH1 0xA SWAP1 SWAP6 ADD SLOAD SWAP4 SWAP7 POP PUSH1 0x1 PUSH1 0x1 PUSH1 0xA0 SHL SUB SWAP1 SWAP3 AND SWAP5 POP SWAP3 SWAP1 SWAP2 DUP7 JUMP JUMPDEST CALLER PUSH1 0x0 SWAP1 DUP2 MSTORE PUSH1 0x3 PUSH1 0x20 MSTORE PUSH1 0x40 DUP2 KECCAK256 DUP1 SLOAD DUP4 SWAP3 SWAP1 PUSH2 0x3A6 SWAP1 DUP5 SWAP1 PUSH2 0x1D28 JUMP JUMPDEST SWAP1 SWAP2 SSTORE POP POP POP JUMP JUMPDEST PUSH2 0x3B6 PUSH2 0xDA7 JUMP JUMPDEST PUSH1 0x4 DUP1 SLOAD PUSH1 0x1 PUSH1 0x1 PUSH1 0xA0 SHL SUB NOT AND PUSH1 0x1 PUSH1 0x1 PUSH1 0xA0 SHL SUB SWAP3 SWAP1 SWAP3 AND SWAP2 SWAP1 SWAP2 OR SWAP1 SSTORE JUMP JUMPDEST PUSH1 0x0 PUSH1 0x5 SLOAD DUP3 PUSH2 0x3E8 SWAP2 SWAP1 PUSH2 0x1D54 JUMP JUMPDEST PUSH1 0x4 DUP1 SLOAD PUSH1 0x40 MLOAD PUSH4 0x70A08231 PUSH1 0xE0 SHL DUP2 MSTORE CALLER SWAP3 DUP2 ADD SWAP3 SWAP1 SWAP3 MSTORE SWAP2 SWAP3 POP PUSH1 0x0 SWAP2 PUSH1 0x1 PUSH1 0x1 PUSH1 0xA0 SHL SUB AND SWAP1 PUSH4 0x70A08231 SWAP1 PUSH1 0x24 ADD PUSH1 0x20 PUSH1 0x40 MLOAD DUP1 DUP4 SUB DUP2 DUP7 DUP1 EXTCODESIZE ISZERO DUP1 ISZERO PUSH2 0x432 JUMPI PUSH1 0x0 DUP1 REVERT JUMPDEST POP GAS STATICCALL ISZERO DUP1 ISZERO PUSH2 0x446 JUMPI RETURNDATASIZE PUSH1 0x0 DUP1 RETURNDATACOPY RETURNDATASIZE PUSH1 0x0 REVERT JUMPDEST POP POP POP POP PUSH1 0x40 MLOAD RETURNDATASIZE PUSH1 0x1F NOT PUSH1 0x1F DUP3 ADD AND DUP3 ADD DUP1 PUSH1 0x40 MSTORE POP DUP2 ADD SWAP1 PUSH2 0x46A SWAP2 SWAP1 PUSH2 0x1B1F JUMP JUMPDEST SWAP1 POP DUP2 DUP2 LT ISZERO PUSH2 0x4DE JUMPI PUSH1 0x40 MLOAD PUSH3 0x461BCD PUSH1 0xE5 SHL DUP2 MSTORE PUSH1 0x20 PUSH1 0x4 DUP3 ADD MSTORE PUSH1 0x34 PUSH1 0x24 DUP3 ADD MSTORE PUSH32 0x596F7520646F206E6F74206861766520656E6F75676820746F6B656E73206F6E PUSH1 0x44 DUP3 ADD MSTORE PUSH20 0x20796F75722062616C616E636520746F20706179 PUSH1 0x60 SHL PUSH1 0x64 DUP3 ADD MSTORE PUSH1 0x84 ADD JUMPDEST PUSH1 0x40 MLOAD DUP1 SWAP2 SUB SWAP1 REVERT JUMPDEST PUSH1 0x4 DUP1 SLOAD PUSH1 0x40 MLOAD PUSH4 0x6EB1769F PUSH1 0xE1 SHL DUP2 MSTORE CALLER SWAP3 DUP2 ADD SWAP3 SWAP1 SWAP3 MSTORE ADDRESS PUSH1 0x24 DUP4 ADD MSTORE PUSH1 0x0 SWAP2 PUSH1 0x1 PUSH1 0x1 PUSH1 0xA0 SHL SUB SWAP1 SWAP2 AND SWAP1 PUSH4 0xDD62ED3E SWAP1 PUSH1 0x44 ADD PUSH1 0x20 PUSH1 0x40 MLOAD DUP1 DUP4 SUB DUP2 DUP7 DUP1 EXTCODESIZE ISZERO DUP1 ISZERO PUSH2 0x52D JUMPI PUSH1 0x0 DUP1 REVERT JUMPDEST POP GAS STATICCALL ISZERO DUP1 ISZERO PUSH2 0x541 JUMPI RETURNDATASIZE PUSH1 0x0 DUP1 RETURNDATACOPY RETURNDATASIZE PUSH1 0x0 REVERT JUMPDEST POP POP POP POP PUSH1 0x40 MLOAD RETURNDATASIZE PUSH1 0x1F NOT PUSH1 0x1F DUP3 ADD AND DUP3 ADD DUP1 PUSH1 0x40 MSTORE POP DUP2 ADD SWAP1 PUSH2 0x565 SWAP2 SWAP1 PUSH2 0x1B1F JUMP JUMPDEST SWAP1 POP DUP3 DUP2 LT ISZERO PUSH2 0x5DD JUMPI PUSH1 0x40 MLOAD PUSH3 0x461BCD PUSH1 0xE5 SHL DUP2 MSTORE PUSH1 0x20 PUSH1 0x4 DUP3 ADD MSTORE PUSH1 0x3A PUSH1 0x24 DUP3 ADD MSTORE PUSH32 0x596F7520646964206E6F7420616C6C6F772074686520636F6E74726163742074 PUSH1 0x44 DUP3 ADD MSTORE PUSH32 0x6F2073656E642074686520707572636861736520616D6F756E74000000000000 PUSH1 0x64 DUP3 ADD MSTORE PUSH1 0x84 ADD PUSH2 0x4D5 JUMP JUMPDEST PUSH1 0x4 SLOAD PUSH2 0x5F5 SWAP1 PUSH1 0x1 PUSH1 0x1 PUSH1 0xA0 SHL SUB AND CALLER ADDRESS DUP7 PUSH2 0xE01 JUMP JUMPDEST CALLER PUSH1 0x0 SWAP1 DUP2 MSTORE PUSH1 0x3 PUSH1 0x20 MSTORE PUSH1 0x40 DUP2 KECCAK256 DUP1 SLOAD DUP7 SWAP3 SWAP1 PUSH2 0x614 SWAP1 DUP5 SWAP1 PUSH2 0x1D28 JUMP JUMPDEST SWAP1 SWAP2 SSTORE POP POP POP POP POP POP JUMP JUMPDEST PUSH1 0x60 PUSH1 0x6 DUP1 SLOAD DUP1 PUSH1 0x20 MUL PUSH1 0x20 ADD PUSH1 0x40 MLOAD SWAP1 DUP2 ADD PUSH1 0x40 MSTORE DUP1 SWAP3 SWAP2 SWAP1 DUP2 DUP2 MSTORE PUSH1 0x20 ADD PUSH1 0x0 SWAP1 JUMPDEST DUP3 DUP3 LT ISZERO PUSH2 0x694 JUMPI PUSH1 0x0 DUP5 DUP2 MSTORE PUSH1 0x20 SWAP1 KECCAK256 PUSH1 0x40 DUP1 MLOAD PUSH1 0xA0 DUP2 ADD SWAP2 DUP3 SWAP1 MSTORE SWAP2 PUSH1 0x5 DUP6 DUP2 MUL SWAP1 SWAP2 ADD SWAP2 DUP3 DUP5 JUMPDEST DUP2 SLOAD DUP2 MSTORE PUSH1 0x20 ADD SWAP1 PUSH1 0x1 ADD SWAP1 DUP1 DUP4 GT PUSH2 0x66D JUMPI POP POP POP POP POP DUP2 MSTORE PUSH1 0x20 ADD SWAP1 PUSH1 0x1 ADD SWAP1 PUSH2 0x643 JUMP JUMPDEST POP POP POP POP SWAP1 POP SWAP1 JUMP JUMPDEST PUSH2 0x6A5 PUSH2 0xDA7 JUMP JUMPDEST PUSH1 0x5 SSTORE JUMP JUMPDEST PUSH2 0x6B2 PUSH2 0xDA7 JUMP JUMPDEST DUP1 MLOAD PUSH2 0x6C5 SWAP1 PUSH1 0x6 SWAP1 PUSH1 0x20 DUP5 ADD SWAP1 PUSH2 0x1713 JUMP JUMPDEST POP POP JUMP JUMPDEST PUSH2 0x6D1 PUSH2 0xDA7 JUMP JUMPDEST PUSH2 0x6DB PUSH1 0x0 PUSH2 0xE61 JUMP JUMPDEST JUMP JUMPDEST PUSH2 0x6E5 PUSH2 0xDA7 JUMP JUMPDEST PUSH2 0x6C5 PUSH1 0x8 DUP3 PUSH1 0x9 PUSH2 0x176D JUMP JUMPDEST CALLER PUSH1 0x0 SWAP1 DUP2 MSTORE PUSH1 0x3 PUSH1 0x20 MSTORE PUSH1 0x40 SWAP1 KECCAK256 SLOAD PUSH2 0x74E JUMPI PUSH1 0x40 MLOAD PUSH3 0x461BCD PUSH1 0xE5 SHL DUP2 MSTORE PUSH1 0x20 PUSH1 0x4 DUP3 ADD MSTORE PUSH1 0x1E PUSH1 0x24 DUP3 ADD MSTORE PUSH32 0x4E6F7420656E6F75746820746F6B656E7320666F722077697468647261770000 PUSH1 0x44 DUP3 ADD MSTORE PUSH1 0x64 ADD PUSH2 0x4D5 JUMP JUMPDEST PUSH1 0x5 SLOAD CALLER PUSH1 0x0 SWAP1 DUP2 MSTORE PUSH1 0x3 PUSH1 0x20 MSTORE PUSH1 0x40 DUP2 KECCAK256 SLOAD SWAP1 SWAP2 PUSH2 0x76C SWAP2 PUSH2 0x1D54 JUMP JUMPDEST PUSH1 0x4 DUP1 SLOAD PUSH1 0x40 MLOAD PUSH4 0x70A08231 PUSH1 0xE0 SHL DUP2 MSTORE ADDRESS SWAP3 DUP2 ADD SWAP3 SWAP1 SWAP3 MSTORE SWAP2 SWAP3 POP PUSH1 0x0 SWAP2 PUSH1 0x1 PUSH1 0x1 PUSH1 0xA0 SHL SUB AND SWAP1 PUSH4 0x70A08231 SWAP1 PUSH1 0x24 ADD PUSH1 0x20 PUSH1 0x40 MLOAD DUP1 DUP4 SUB DUP2 DUP7 DUP1 EXTCODESIZE ISZERO DUP1 ISZERO PUSH2 0x7B6 JUMPI PUSH1 0x0 DUP1 REVERT JUMPDEST POP GAS STATICCALL ISZERO DUP1 ISZERO PUSH2 0x7CA JUMPI RETURNDATASIZE PUSH1 0x0 DUP1 RETURNDATACOPY RETURNDATASIZE PUSH1 0x0 REVERT JUMPDEST POP POP POP POP PUSH1 0x40 MLOAD RETURNDATASIZE PUSH1 0x1F NOT PUSH1 0x1F DUP3 ADD AND DUP3 ADD DUP1 PUSH1 0x40 MSTORE POP DUP2 ADD SWAP1 PUSH2 0x7EE SWAP2 SWAP1 PUSH2 0x1B1F JUMP JUMPDEST SWAP1 POP DUP2 DUP2 GT PUSH2 0x83F JUMPI PUSH1 0x40 MLOAD PUSH3 0x461BCD PUSH1 0xE5 SHL DUP2 MSTORE PUSH1 0x20 PUSH1 0x4 DUP3 ADD MSTORE PUSH1 0x19 PUSH1 0x24 DUP3 ADD MSTORE PUSH32 0x4E6F7420656E6F75746820746F6B656E7320696E2062616E6B00000000000000 PUSH1 0x44 DUP3 ADD MSTORE PUSH1 0x64 ADD PUSH2 0x4D5 JUMP JUMPDEST PUSH1 0x4 DUP1 SLOAD PUSH1 0x40 MLOAD PUSH4 0xA9059CBB PUSH1 0xE0 SHL DUP2 MSTORE CALLER SWAP3 DUP2 ADD SWAP3 SWAP1 SWAP3 MSTORE PUSH1 0x24 DUP3 ADD DUP5 SWAP1 MSTORE PUSH1 0x1 PUSH1 0x1 PUSH1 0xA0 SHL SUB AND SWAP1 PUSH4 0xA9059CBB SWAP1 PUSH1 0x44 ADD PUSH1 0x20 PUSH1 0x40 MLOAD DUP1 DUP4 SUB DUP2 PUSH1 0x0 DUP8 DUP1 EXTCODESIZE ISZERO DUP1 ISZERO PUSH2 0x88C JUMPI PUSH1 0x0 DUP1 REVERT JUMPDEST POP GAS CALL ISZERO DUP1 ISZERO PUSH2 0x8A0 JUMPI RETURNDATASIZE PUSH1 0x0 DUP1 RETURNDATACOPY RETURNDATASIZE PUSH1 0x0 REVERT JUMPDEST POP POP POP POP PUSH1 0x40 MLOAD RETURNDATASIZE PUSH1 0x1F NOT PUSH1 0x1F DUP3 ADD AND DUP3 ADD DUP1 PUSH1 0x40 MSTORE POP DUP2 ADD SWAP1 PUSH2 0x8C4 SWAP2 SWAP1 PUSH2 0x1AE4 JUMP JUMPDEST POP POP CALLER PUSH1 0x0 SWAP1 DUP2 MSTORE PUSH1 0x3 PUSH1 0x20 MSTORE PUSH1 0x40 DUP2 KECCAK256 SSTORE POP JUMP JUMPDEST PUSH1 0x0 PUSH2 0x8E6 DUP4 PUSH1 0x1 PUSH2 0x1D28 JUMP JUMPDEST PUSH2 0x8F0 SWAP1 DUP6 PUSH2 0x1D54 JUMP JUMPDEST CALLER PUSH1 0x0 SWAP1 DUP2 MSTORE PUSH1 0x3 PUSH1 0x20 MSTORE PUSH1 0x40 SWAP1 KECCAK256 SLOAD SWAP1 SWAP2 POP DUP2 GT ISZERO PUSH2 0x948 JUMPI PUSH1 0x40 MLOAD PUSH3 0x461BCD PUSH1 0xE5 SHL DUP2 MSTORE PUSH1 0x20 PUSH1 0x4 DUP3 ADD MSTORE PUSH1 0x13 PUSH1 0x24 DUP3 ADD MSTORE PUSH19 0x10985B185B98D9481B9BDD08195B9BDD59DA1D PUSH1 0x6A SHL PUSH1 0x44 DUP3 ADD MSTORE PUSH1 0x64 ADD PUSH2 0x4D5 JUMP JUMPDEST PUSH1 0x6 SLOAD DUP4 LT PUSH2 0x98A JUMPI PUSH1 0x40 MLOAD PUSH3 0x461BCD PUSH1 0xE5 SHL DUP2 MSTORE PUSH1 0x20 PUSH1 0x4 DUP3 ADD MSTORE PUSH1 0xE PUSH1 0x24 DUP3 ADD MSTORE PUSH14 0x546F6F206D616E79206C696E6573 PUSH1 0x90 SHL PUSH1 0x44 DUP3 ADD MSTORE PUSH1 0x64 ADD PUSH2 0x4D5 JUMP JUMPDEST PUSH2 0x998 PUSH1 0x1 DUP1 SLOAD PUSH1 0x1 ADD SWAP1 SSTORE JUMP JUMPDEST PUSH1 0x0 PUSH2 0x9A3 PUSH1 0x1 SLOAD SWAP1 JUMP JUMPDEST SWAP1 POP PUSH1 0x0 PUSH2 0x9B0 DUP5 PUSH2 0xEB1 JUMP JUMPDEST SWAP1 POP PUSH1 0x0 DUP1 PUSH1 0x0 PUSH2 0x9BF PUSH2 0x17A8 JUMP JUMPDEST PUSH2 0x9C7 PUSH2 0x17A8 JUMP JUMPDEST PUSH1 0x0 DUP1 JUMPDEST DUP12 DUP2 LT ISZERO PUSH2 0xA54 JUMPI PUSH1 0x0 DUP1 PUSH2 0x9E0 DUP4 DUP12 PUSH2 0x111C JUMP JUMPDEST SWAP1 SWAP3 POP SWAP1 POP PUSH2 0x9EF DUP16 DUP4 PUSH2 0x1D54 JUMP JUMPDEST SWAP2 POP PUSH2 0x9FB DUP3 DUP6 PUSH2 0x1D28 JUMP JUMPDEST SWAP4 POP DUP2 DUP7 DUP5 PUSH1 0x14 DUP2 LT PUSH2 0xA10 JUMPI PUSH2 0xA10 PUSH2 0x1E11 JUMP JUMPDEST PUSH1 0x20 MUL ADD MSTORE DUP1 DUP6 DUP5 PUSH1 0x14 DUP2 LT PUSH2 0xA28 JUMPI PUSH2 0xA28 PUSH2 0x1E11 JUMP JUMPDEST PUSH1 0x20 MUL ADD MSTORE DUP8 DUP3 GT ISZERO PUSH2 0xA3F JUMPI DUP3 SWAP9 POP DUP2 SWAP8 POP DUP1 SWAP7 POP JUMPDEST POP POP DUP1 DUP1 PUSH2 0xA4C SWAP1 PUSH2 0x1DB6 JUMP JUMPDEST SWAP2 POP POP PUSH2 0x9CB JUMP JUMPDEST POP CALLER PUSH1 0x0 SWAP1 DUP2 MSTORE PUSH1 0x3 PUSH1 0x20 MSTORE PUSH1 0x40 SWAP1 KECCAK256 SLOAD DUP2 SWAP1 PUSH2 0xA72 SWAP1 DUP12 SWAP1 PUSH2 0x1D73 JUMP JUMPDEST PUSH2 0xA7C SWAP2 SWAP1 PUSH2 0x1D28 JUMP JUMPDEST CALLER PUSH1 0x0 DUP2 DUP2 MSTORE PUSH1 0x3 PUSH1 0x20 SWAP1 DUP2 MSTORE PUSH1 0x40 DUP1 DUP4 KECCAK256 SWAP5 SWAP1 SWAP5 SSTORE PUSH1 0x7 DUP2 MSTORE SWAP1 DUP4 SWAP1 KECCAK256 DUP4 MLOAD PUSH1 0xE0 DUP2 ADD DUP6 MSTORE DUP13 DUP2 MSTORE SWAP2 DUP3 ADD SWAP3 SWAP1 SWAP3 MSTORE SWAP2 DUP3 ADD DUP15 SWAP1 MSTORE TIMESTAMP PUSH1 0x60 DUP4 ADD MSTORE PUSH1 0x80 DUP3 ADD DUP14 SWAP1 MSTORE SWAP1 PUSH1 0xA0 DUP2 ADD DUP10 PUSH1 0x1 PUSH1 0x20 SWAP1 DUP2 MUL SWAP2 SWAP1 SWAP2 ADD MLOAD DUP3 MSTORE SWAP1 DUP2 ADD DUP5 SWAP1 MSTORE DUP3 SLOAD PUSH1 0x1 DUP1 DUP3 ADD DUP6 SSTORE PUSH1 0x0 SWAP5 DUP6 MSTORE SWAP4 DUP3 SWAP1 KECCAK256 DUP4 MLOAD PUSH1 0xB SWAP1 SWAP3 MUL ADD SWAP1 DUP2 SSTORE SWAP1 DUP3 ADD MLOAD SWAP3 DUP2 ADD DUP1 SLOAD PUSH1 0x1 PUSH1 0x1 PUSH1 0xA0 SHL SUB NOT AND PUSH1 0x1 PUSH1 0x1 PUSH1 0xA0 SHL SUB SWAP1 SWAP5 AND SWAP4 SWAP1 SWAP4 OR SWAP1 SWAP3 SSTORE PUSH1 0x40 DUP2 ADD MLOAD PUSH1 0x2 DUP4 ADD SSTORE PUSH1 0x60 DUP2 ADD MLOAD PUSH1 0x3 DUP4 ADD SSTORE PUSH1 0x80 DUP2 ADD MLOAD PUSH1 0x4 DUP4 ADD SSTORE PUSH1 0xA0 DUP2 ADD MLOAD SWAP1 SWAP2 SWAP1 PUSH2 0xB51 SWAP1 PUSH1 0x5 DUP1 DUP5 ADD SWAP2 SWAP1 PUSH2 0x17C7 JUMP JUMPDEST POP PUSH1 0xC0 SWAP2 SWAP1 SWAP2 ADD MLOAD PUSH1 0xA SWAP1 SWAP2 ADD SSTORE PUSH32 0x6C98C6AD5E22111183C867670BEAD07208DBD3ABA882D6BD87ADBBBDB645D59A CALLER DUP14 PUSH2 0xB8D DUP15 PUSH1 0x1 PUSH2 0x1D28 JUMP JUMPDEST PUSH1 0x20 DUP12 ADD MLOAD PUSH1 0x40 MLOAD PUSH2 0xBAD SWAP5 SWAP4 SWAP3 SWAP2 DUP8 SWAP2 DUP11 SWAP1 DUP11 SWAP1 DUP16 SWAP1 DUP16 SWAP1 DUP16 SWAP1 PUSH2 0x1BC6 JUMP JUMPDEST PUSH1 0x40 MLOAD DUP1 SWAP2 SUB SWAP1 LOG1 POP POP POP POP POP POP POP POP POP POP POP POP JUMP JUMPDEST PUSH2 0xBCB PUSH2 0x1801 JUMP JUMPDEST PUSH1 0x40 DUP1 MLOAD PUSH2 0x120 DUP2 ADD SWAP1 SWAP2 MSTORE PUSH1 0x8 PUSH1 0x9 PUSH1 0x0 DUP4 JUMPDEST DUP3 DUP3 LT ISZERO PUSH2 0x694 JUMPI PUSH1 0x40 DUP1 MLOAD PUSH1 0xA0 DUP2 ADD SWAP2 DUP3 SWAP1 MSTORE SWAP1 PUSH1 0x5 DUP5 DUP2 MUL DUP8 ADD SWAP2 DUP3 DUP5 JUMPDEST DUP2 SLOAD DUP2 MSTORE PUSH1 0x20 ADD SWAP1 PUSH1 0x1 ADD SWAP1 DUP1 DUP4 GT PUSH2 0xBFF JUMPI POP POP POP POP POP DUP2 MSTORE PUSH1 0x20 ADD SWAP1 PUSH1 0x1 ADD SWAP1 PUSH2 0xBDF JUMP JUMPDEST PUSH1 0x4 DUP1 SLOAD PUSH1 0x40 MLOAD PUSH4 0x70A08231 PUSH1 0xE0 SHL DUP2 MSTORE ADDRESS SWAP3 DUP2 ADD SWAP3 SWAP1 SWAP3 MSTORE PUSH1 0x0 SWAP2 DUP3 SWAP2 PUSH1 0x1 PUSH1 0x1 PUSH1 0xA0 SHL SUB AND SWAP1 PUSH4 0x70A08231 SWAP1 PUSH1 0x24 ADD PUSH1 0x20 PUSH1 0x40 MLOAD DUP1 DUP4 SUB DUP2 DUP7 DUP1 EXTCODESIZE ISZERO DUP1 ISZERO PUSH2 0xC6F JUMPI PUSH1 0x0 DUP1 REVERT JUMPDEST POP GAS STATICCALL ISZERO DUP1 ISZERO PUSH2 0xC83 JUMPI RETURNDATASIZE PUSH1 0x0 DUP1 RETURNDATACOPY RETURNDATASIZE PUSH1 0x0 REVERT JUMPDEST POP POP POP POP PUSH1 0x40 MLOAD RETURNDATASIZE PUSH1 0x1F NOT PUSH1 0x1F DUP3 ADD AND DUP3 ADD DUP1 PUSH1 0x40 MSTORE POP DUP2 ADD SWAP1 PUSH2 0xCA7 SWAP2 SWAP1 PUSH2 0x1B1F JUMP JUMPDEST SWAP1 POP PUSH1 0x0 PUSH2 0xCB7 DUP3 PUSH1 0x5 SLOAD PUSH2 0x13E8 JUMP JUMPDEST SWAP4 SWAP3 POP POP POP JUMP JUMPDEST PUSH2 0xCC6 PUSH2 0xDA7 JUMP JUMPDEST PUSH1 0x1 PUSH1 0x1 PUSH1 0xA0 SHL SUB DUP2 AND PUSH2 0xD2B JUMPI PUSH1 0x40 MLOAD PUSH3 0x461BCD PUSH1 0xE5 SHL DUP2 MSTORE PUSH1 0x20 PUSH1 0x4 DUP3 ADD MSTORE PUSH1 0x26 PUSH1 0x24 DUP3 ADD MSTORE PUSH32 0x4F776E61626C653A206E6577206F776E657220697320746865207A65726F2061 PUSH1 0x44 DUP3 ADD MSTORE PUSH6 0x646472657373 PUSH1 0xD0 SHL PUSH1 0x64 DUP3 ADD MSTORE PUSH1 0x84 ADD PUSH2 0x4D5 JUMP JUMPDEST PUSH2 0xD34 DUP2 PUSH2 0xE61 JUMP JUMPDEST POP JUMP JUMPDEST PUSH2 0xD3F PUSH2 0xDA7 JUMP JUMPDEST PUSH1 0x0 TIMESTAMP PUSH1 0x3F SLOAD PUSH1 0x41 SLOAD PUSH1 0x40 SLOAD DUP6 PUSH2 0xD55 PUSH1 0x1 SLOAD SWAP1 JUMP JUMPDEST PUSH1 0x40 DUP1 MLOAD PUSH1 0x20 DUP2 ADD SWAP8 SWAP1 SWAP8 MSTORE DUP7 ADD SWAP5 SWAP1 SWAP5 MSTORE PUSH1 0x60 DUP6 ADD SWAP3 SWAP1 SWAP3 MSTORE PUSH1 0x80 DUP5 ADD MSTORE PUSH1 0xA0 DUP4 ADD MSTORE PUSH1 0xC0 DUP3 ADD MSTORE PUSH1 0xE0 ADD PUSH1 0x40 DUP1 MLOAD PUSH1 0x1F NOT DUP2 DUP5 SUB ADD DUP2 MSTORE SWAP2 DUP2 MSTORE DUP2 MLOAD PUSH1 0x20 SWAP1 SWAP3 ADD SWAP2 SWAP1 SWAP2 KECCAK256 DUP2 SLOAD PUSH1 0x41 SSTORE SWAP1 SSTORE POP POP JUMP JUMPDEST PUSH1 0x0 SLOAD PUSH1 0x1 PUSH1 0x1 PUSH1 0xA0 SHL SUB AND CALLER EQ PUSH2 0x6DB JUMPI PUSH1 0x40 MLOAD PUSH3 0x461BCD PUSH1 0xE5 SHL DUP2 MSTORE PUSH1 0x20 PUSH1 0x4 DUP3 ADD DUP2 SWAP1 MSTORE PUSH1 0x24 DUP3 ADD MSTORE PUSH32 0x4F776E61626C653A2063616C6C6572206973206E6F7420746865206F776E6572 PUSH1 0x44 DUP3 ADD MSTORE PUSH1 0x64 ADD PUSH2 0x4D5 JUMP JUMPDEST PUSH1 0x40 DUP1 MLOAD PUSH1 0x1 PUSH1 0x1 PUSH1 0xA0 SHL SUB DUP6 DUP2 AND PUSH1 0x24 DUP4 ADD MSTORE DUP5 AND PUSH1 0x44 DUP3 ADD MSTORE PUSH1 0x64 DUP1 DUP3 ADD DUP5 SWAP1 MSTORE DUP3 MLOAD DUP1 DUP4 SUB SWAP1 SWAP2 ADD DUP2 MSTORE PUSH1 0x84 SWAP1 SWAP2 ADD SWAP1 SWAP2 MSTORE PUSH1 0x20 DUP2 ADD DUP1 MLOAD PUSH1 0x1 PUSH1 0x1 PUSH1 0xE0 SHL SUB AND PUSH4 0x23B872DD PUSH1 0xE0 SHL OR SWAP1 MSTORE PUSH2 0xE5B SWAP1 DUP6 SWAP1 PUSH2 0x13F4 JUMP JUMPDEST POP POP POP POP JUMP JUMPDEST PUSH1 0x0 DUP1 SLOAD PUSH1 0x1 PUSH1 0x1 PUSH1 0xA0 SHL SUB DUP4 DUP2 AND PUSH1 0x1 PUSH1 0x1 PUSH1 0xA0 SHL SUB NOT DUP4 AND DUP2 OR DUP5 SSTORE PUSH1 0x40 MLOAD SWAP2 SWAP1 SWAP3 AND SWAP3 DUP4 SWAP2 PUSH32 0x8BE0079C531659141344CD1FD0A4F28419497F9722A3DAAFE3B4186F6B6457E0 SWAP2 SWAP1 LOG3 POP POP JUMP JUMPDEST PUSH2 0xEB9 PUSH2 0x182F JUMP JUMPDEST PUSH1 0x0 PUSH2 0xEC4 DUP4 PUSH2 0x14CB JUMP JUMPDEST SWAP1 POP PUSH1 0x0 PUSH2 0xED5 PUSH3 0x186A0 DUP4 PUSH2 0x1DD1 JUMP JUMPDEST PUSH2 0xEE2 SWAP1 PUSH3 0x186A0 PUSH2 0x1D28 JUMP JUMPDEST SWAP1 POP PUSH1 0x0 DUP1 PUSH1 0x0 PUSH1 0x40 MLOAD DUP1 PUSH1 0x60 ADD PUSH1 0x40 MSTORE DUP1 PUSH1 0x40 MLOAD DUP1 PUSH1 0xA0 ADD PUSH1 0x40 MSTORE DUP1 PUSH1 0x0 DUP2 MSTORE PUSH1 0x20 ADD PUSH1 0x0 DUP2 MSTORE PUSH1 0x20 ADD PUSH1 0x0 DUP2 MSTORE PUSH1 0x20 ADD PUSH1 0x0 DUP2 MSTORE PUSH1 0x20 ADD PUSH1 0x0 DUP2 MSTORE POP DUP2 MSTORE PUSH1 0x20 ADD PUSH1 0x40 MLOAD DUP1 PUSH1 0xA0 ADD PUSH1 0x40 MSTORE DUP1 PUSH1 0x3A PUSH1 0x0 PUSH1 0x5 DUP2 LT PUSH2 0xF44 JUMPI PUSH2 0xF44 PUSH2 0x1E11 JUMP JUMPDEST ADD SLOAD PUSH1 0x35 SLOAD PUSH2 0xF59 SWAP1 PUSH4 0xFFFFFFFF DUP12 AND PUSH2 0x1DD1 JUMP JUMPDEST PUSH2 0xF63 SWAP2 SWAP1 PUSH2 0x1D40 JUMP JUMPDEST DUP2 MSTORE PUSH1 0x3B SLOAD PUSH1 0x36 SLOAD PUSH1 0x20 SWAP1 SWAP3 ADD SWAP2 PUSH2 0xF81 SWAP1 PUSH4 0xFFFFFFFF DUP12 AND PUSH2 0x1DD1 JUMP JUMPDEST PUSH2 0xF8B SWAP2 SWAP1 PUSH2 0x1D40 JUMP JUMPDEST DUP2 MSTORE PUSH1 0x3C SLOAD PUSH1 0x37 SLOAD PUSH1 0x20 SWAP1 SWAP3 ADD SWAP2 PUSH2 0xFA9 SWAP1 PUSH4 0xFFFFFFFF DUP12 AND PUSH2 0x1DD1 JUMP JUMPDEST PUSH2 0xFB3 SWAP2 SWAP1 PUSH2 0x1D40 JUMP JUMPDEST DUP2 MSTORE PUSH1 0x3D SLOAD PUSH1 0x38 SLOAD PUSH1 0x20 SWAP1 SWAP3 ADD SWAP2 PUSH2 0xFD1 SWAP1 PUSH4 0xFFFFFFFF DUP12 AND PUSH2 0x1DD1 JUMP JUMPDEST PUSH2 0xFDB SWAP2 SWAP1 PUSH2 0x1D40 JUMP JUMPDEST DUP2 MSTORE PUSH1 0x3E SLOAD PUSH1 0x39 SLOAD PUSH1 0x20 SWAP1 SWAP3 ADD SWAP2 PUSH2 0xFF9 SWAP1 PUSH4 0xFFFFFFFF DUP12 AND PUSH2 0x1DD1 JUMP JUMPDEST PUSH2 0x1003 SWAP2 SWAP1 PUSH2 0x1D40 JUMP JUMPDEST DUP2 MSTORE POP DUP2 MSTORE PUSH1 0x20 ADD PUSH1 0x40 MLOAD DUP1 PUSH1 0xA0 ADD PUSH1 0x40 MSTORE DUP1 PUSH1 0x0 DUP2 MSTORE PUSH1 0x20 ADD PUSH1 0x0 DUP2 MSTORE PUSH1 0x20 ADD PUSH1 0x0 DUP2 MSTORE PUSH1 0x20 ADD PUSH1 0x0 DUP2 MSTORE PUSH1 0x20 ADD PUSH1 0x0 DUP2 MSTORE POP DUP2 MSTORE POP SWAP1 POP PUSH1 0x0 SWAP3 POP JUMPDEST PUSH1 0x2 SLOAD PUSH4 0xFFFFFFFF AND DUP4 LT ISZERO PUSH2 0x1112 JUMPI PUSH1 0x20 DUP2 ADD MLOAD DUP4 PUSH1 0x5 DUP2 LT PUSH2 0x1067 JUMPI PUSH2 0x1067 PUSH2 0x1E11 JUMP JUMPDEST PUSH1 0x20 MUL ADD MLOAD SWAP2 POP DUP2 PUSH1 0x9 EQ ISZERO PUSH2 0x107C JUMPI PUSH1 0x0 SWAP2 POP JUMPDEST PUSH1 0x20 DUP2 ADD MLOAD DUP3 SWAP1 DUP5 PUSH1 0x5 DUP2 LT PUSH2 0x1094 JUMPI PUSH2 0x1094 PUSH2 0x1E11 JUMP JUMPDEST PUSH1 0x20 MUL ADD MSTORE DUP2 ISZERO PUSH2 0x10AF JUMPI PUSH2 0x10AA PUSH1 0x1 DUP4 PUSH2 0x1D73 JUMP JUMPDEST PUSH2 0x10B2 JUMP JUMPDEST PUSH1 0x8 JUMPDEST DUP2 MLOAD DUP5 PUSH1 0x5 DUP2 LT PUSH2 0x10C5 JUMPI PUSH2 0x10C5 PUSH2 0x1E11 JUMP JUMPDEST PUSH1 0x20 MUL ADD MSTORE PUSH1 0x8 DUP3 EQ PUSH2 0x10E2 JUMPI PUSH2 0x10DD DUP3 PUSH1 0x1 PUSH2 0x1D28 JUMP JUMPDEST PUSH2 0x10E5 JUMP JUMPDEST PUSH1 0x0 JUMPDEST PUSH1 0x40 DUP3 ADD MLOAD DUP5 PUSH1 0x5 DUP2 LT PUSH2 0x10FB JUMPI PUSH2 0x10FB PUSH2 0x1E11 JUMP JUMPDEST PUSH1 0x20 MUL ADD MSTORE DUP3 PUSH2 0x110A DUP2 PUSH2 0x1DB6 JUMP JUMPDEST SWAP4 POP POP PUSH2 0x1041 JUMP JUMPDEST SWAP7 SWAP6 POP POP POP POP POP POP JUMP JUMPDEST PUSH1 0x0 DUP1 DUP1 DUP1 DUP1 DUP1 JUMPDEST PUSH1 0x5 DUP2 LT ISZERO PUSH2 0x11BB JUMPI PUSH1 0x1 DUP8 PUSH1 0x6 DUP11 DUP2 SLOAD DUP2 LT PUSH2 0x1143 JUMPI PUSH2 0x1143 PUSH2 0x1E11 JUMP JUMPDEST SWAP1 PUSH1 0x0 MSTORE PUSH1 0x20 PUSH1 0x0 KECCAK256 SWAP1 PUSH1 0x5 MUL ADD DUP4 PUSH1 0x5 DUP2 LT PUSH2 0x1162 JUMPI PUSH2 0x1162 PUSH2 0x1E11 JUMP JUMPDEST ADD SLOAD PUSH1 0x3 DUP2 LT PUSH2 0x1174 JUMPI PUSH2 0x1174 PUSH2 0x1E11 JUMP JUMPDEST PUSH1 0x20 MUL ADD MLOAD DUP3 PUSH1 0x5 DUP2 LT PUSH2 0x118A JUMPI PUSH2 0x118A PUSH2 0x1E11 JUMP JUMPDEST PUSH1 0x20 MUL ADD MLOAD EQ PUSH2 0x119C JUMPI DUP1 SWAP3 POP PUSH2 0x11BB JUMP JUMPDEST DUP4 PUSH2 0x11A6 DUP2 PUSH2 0x1DB6 JUMP JUMPDEST SWAP5 POP POP DUP1 PUSH2 0x11B3 DUP2 PUSH2 0x1DB6 JUMP JUMPDEST SWAP2 POP POP PUSH2 0x1124 JUMP JUMPDEST POP PUSH1 0x0 DUP4 GT DUP1 ISZERO PUSH2 0x11EA JUMPI POP PUSH1 0x0 PUSH1 0xD PUSH2 0x11D6 PUSH1 0x1 DUP7 PUSH2 0x1D73 JUMP JUMPDEST PUSH1 0x5 DUP2 LT PUSH2 0x11E6 JUMPI PUSH2 0x11E6 PUSH2 0x1E11 JUMP JUMPDEST ADD SLOAD GT JUMPDEST ISZERO PUSH2 0x1220 JUMPI PUSH1 0x0 PUSH1 0xD PUSH2 0x11FE PUSH1 0x1 DUP7 PUSH2 0x1D73 JUMP JUMPDEST PUSH1 0x5 DUP2 LT PUSH2 0x120E JUMPI PUSH2 0x120E PUSH2 0x1E11 JUMP JUMPDEST ADD SLOAD SWAP6 POP PUSH1 0x1 SWAP5 POP PUSH2 0x13E1 SWAP4 POP POP POP POP JUMP JUMPDEST DUP6 PUSH1 0x6 DUP9 DUP2 SLOAD DUP2 LT PUSH2 0x1234 JUMPI PUSH2 0x1234 PUSH2 0x1E11 JUMP JUMPDEST SWAP1 PUSH1 0x0 MSTORE PUSH1 0x20 PUSH1 0x0 KECCAK256 SWAP1 PUSH1 0x5 MUL ADD DUP4 PUSH1 0x5 DUP2 LT PUSH2 0x1253 JUMPI PUSH2 0x1253 PUSH2 0x1E11 JUMP JUMPDEST ADD SLOAD PUSH1 0x3 DUP2 LT PUSH2 0x1265 JUMPI PUSH2 0x1265 PUSH2 0x1E11 JUMP JUMPDEST PUSH1 0x20 MUL ADD MLOAD DUP3 PUSH1 0x5 DUP2 LT PUSH2 0x127B JUMPI PUSH2 0x127B PUSH2 0x1E11 JUMP JUMPDEST PUSH1 0x20 MUL ADD MLOAD SWAP1 POP PUSH1 0x0 PUSH2 0x128F DUP4 PUSH1 0x1 PUSH2 0x1D28 JUMP JUMPDEST SWAP1 POP JUMPDEST PUSH1 0x5 DUP2 LT ISZERO PUSH2 0x1395 JUMPI DUP2 DUP8 PUSH1 0x6 DUP11 DUP2 SLOAD DUP2 LT PUSH2 0x12B0 JUMPI PUSH2 0x12B0 PUSH2 0x1E11 JUMP JUMPDEST SWAP1 PUSH1 0x0 MSTORE PUSH1 0x20 PUSH1 0x0 KECCAK256 SWAP1 PUSH1 0x5 MUL ADD DUP4 PUSH1 0x5 DUP2 LT PUSH2 0x12CF JUMPI PUSH2 0x12CF PUSH2 0x1E11 JUMP JUMPDEST ADD SLOAD PUSH1 0x3 DUP2 LT PUSH2 0x12E1 JUMPI PUSH2 0x12E1 PUSH2 0x1E11 JUMP JUMPDEST PUSH1 0x20 MUL ADD MLOAD DUP3 PUSH1 0x5 DUP2 LT PUSH2 0x12F7 JUMPI PUSH2 0x12F7 PUSH2 0x1E11 JUMP JUMPDEST PUSH1 0x20 MUL ADD MLOAD EQ DUP1 PUSH2 0x1367 JUMPI POP PUSH1 0x1 DUP8 PUSH1 0x6 DUP11 DUP2 SLOAD DUP2 LT PUSH2 0x1319 JUMPI PUSH2 0x1319 PUSH2 0x1E11 JUMP JUMPDEST SWAP1 PUSH1 0x0 MSTORE PUSH1 0x20 PUSH1 0x0 KECCAK256 SWAP1 PUSH1 0x5 MUL ADD DUP4 PUSH1 0x5 DUP2 LT PUSH2 0x1338 JUMPI PUSH2 0x1338 PUSH2 0x1E11 JUMP JUMPDEST ADD SLOAD PUSH1 0x3 DUP2 LT PUSH2 0x134A JUMPI PUSH2 0x134A PUSH2 0x1E11 JUMP JUMPDEST PUSH1 0x20 MUL ADD MLOAD DUP3 PUSH1 0x5 DUP2 LT PUSH2 0x1360 JUMPI PUSH2 0x1360 PUSH2 0x1E11 JUMP JUMPDEST PUSH1 0x20 MUL ADD MLOAD EQ JUMPDEST ISZERO PUSH2 0x137E JUMPI DUP4 PUSH2 0x1376 DUP2 PUSH2 0x1DB6 JUMP JUMPDEST SWAP5 POP POP PUSH2 0x1383 JUMP JUMPDEST PUSH2 0x1395 JUMP JUMPDEST DUP1 PUSH2 0x138D DUP2 PUSH2 0x1DB6 JUMP JUMPDEST SWAP2 POP POP PUSH2 0x1292 JUMP JUMPDEST POP DUP3 ISZERO PUSH2 0x13D6 JUMPI PUSH1 0x0 PUSH1 0x8 DUP3 PUSH1 0x9 DUP2 LT PUSH2 0x13B1 JUMPI PUSH2 0x13B1 PUSH2 0x1E11 JUMP JUMPDEST PUSH1 0x5 MUL ADD DUP5 PUSH1 0x5 DUP2 LT PUSH2 0x13C6 JUMPI PUSH2 0x13C6 PUSH2 0x1E11 JUMP JUMPDEST ADD SLOAD SWAP6 POP SWAP1 SWAP4 POP PUSH2 0x13E1 SWAP3 POP POP POP JUMP JUMPDEST PUSH1 0x0 DUP1 SWAP5 POP SWAP5 POP POP POP POP JUMPDEST SWAP3 POP SWAP3 SWAP1 POP JUMP JUMPDEST PUSH1 0x0 PUSH2 0xCB7 DUP3 DUP5 PUSH2 0x1D40 JUMP JUMPDEST PUSH1 0x0 PUSH2 0x1449 DUP3 PUSH1 0x40 MLOAD DUP1 PUSH1 0x40 ADD PUSH1 0x40 MSTORE DUP1 PUSH1 0x20 DUP2 MSTORE PUSH1 0x20 ADD PUSH32 0x5361666545524332303A206C6F772D6C6576656C2063616C6C206661696C6564 DUP2 MSTORE POP DUP6 PUSH1 0x1 PUSH1 0x1 PUSH1 0xA0 SHL SUB AND PUSH2 0x1586 SWAP1 SWAP3 SWAP2 SWAP1 PUSH4 0xFFFFFFFF AND JUMP JUMPDEST DUP1 MLOAD SWAP1 SWAP2 POP ISZERO PUSH2 0x14C6 JUMPI DUP1 DUP1 PUSH1 0x20 ADD SWAP1 MLOAD DUP2 ADD SWAP1 PUSH2 0x1467 SWAP2 SWAP1 PUSH2 0x1AE4 JUMP JUMPDEST PUSH2 0x14C6 JUMPI PUSH1 0x40 MLOAD PUSH3 0x461BCD PUSH1 0xE5 SHL DUP2 MSTORE PUSH1 0x20 PUSH1 0x4 DUP3 ADD MSTORE PUSH1 0x2A PUSH1 0x24 DUP3 ADD MSTORE PUSH32 0x5361666545524332303A204552433230206F7065726174696F6E20646964206E PUSH1 0x44 DUP3 ADD MSTORE PUSH10 0x1BDD081CDD58D8D95959 PUSH1 0xB2 SHL PUSH1 0x64 DUP3 ADD MSTORE PUSH1 0x84 ADD PUSH2 0x4D5 JUMP JUMPDEST POP POP POP JUMP JUMPDEST PUSH1 0x0 DUP1 TIMESTAMP DUP4 PUSH1 0x3F SLOAD PUSH1 0x40 SLOAD PUSH1 0x41 SLOAD NUMBER BLOCKHASH COINBASE DIFFICULTY GASLIMIT GASPRICE CALLER GAS PUSH1 0x1 SLOAD PUSH1 0x40 DUP1 MLOAD PUSH1 0x20 DUP2 ADD SWAP15 SWAP1 SWAP15 MSTORE DUP14 ADD SWAP12 SWAP1 SWAP12 MSTORE PUSH1 0x60 DUP1 DUP14 ADD SWAP11 SWAP1 SWAP11 MSTORE PUSH1 0x80 DUP13 ADD SWAP9 SWAP1 SWAP9 MSTORE PUSH1 0xA0 DUP12 ADD SWAP7 SWAP1 SWAP7 MSTORE PUSH1 0xC0 DUP11 ADD SWAP5 SWAP1 SWAP5 MSTORE PUSH12 0xFFFFFFFFFFFFFFFFFFFFFFFF NOT SWAP3 DUP8 SHL DUP4 AND PUSH1 0xE0 DUP11 ADD MSTORE PUSH1 0xF4 DUP10 ADD SWAP2 SWAP1 SWAP2 MSTORE PUSH2 0x114 DUP9 ADD MSTORE PUSH2 0x134 DUP8 ADD SWAP2 SWAP1 SWAP2 MSTORE SWAP3 SHL SWAP1 SWAP2 AND PUSH2 0x154 DUP5 ADD MSTORE PUSH2 0x168 DUP4 ADD MSTORE PUSH2 0x188 DUP3 ADD MSTORE PUSH2 0x1A8 ADD PUSH1 0x40 DUP1 MLOAD PUSH1 0x1F NOT DUP2 DUP5 SUB ADD DUP2 MSTORE SWAP2 SWAP1 MSTORE DUP1 MLOAD PUSH1 0x20 SWAP1 SWAP2 ADD KECCAK256 PUSH1 0x3F SWAP4 SWAP1 SWAP4 SSTORE POP SWAP1 SWAP2 SWAP1 POP JUMP JUMPDEST PUSH1 0x60 PUSH2 0x1595 DUP5 DUP5 PUSH1 0x0 DUP6 PUSH2 0x159D JUMP JUMPDEST SWAP5 SWAP4 POP POP POP POP JUMP JUMPDEST PUSH1 0x60 DUP3 SELFBALANCE LT ISZERO PUSH2 0x15FE JUMPI PUSH1 0x40 MLOAD PUSH3 0x461BCD PUSH1 0xE5 SHL DUP2 MSTORE PUSH1 0x20 PUSH1 0x4 DUP3 ADD MSTORE PUSH1 0x26 PUSH1 0x24 DUP3 ADD MSTORE PUSH32 0x416464726573733A20696E73756666696369656E742062616C616E636520666F PUSH1 0x44 DUP3 ADD MSTORE PUSH6 0x1C8818D85B1B PUSH1 0xD2 SHL PUSH1 0x64 DUP3 ADD MSTORE PUSH1 0x84 ADD PUSH2 0x4D5 JUMP JUMPDEST PUSH1 0x0 DUP1 DUP7 PUSH1 0x1 PUSH1 0x1 PUSH1 0xA0 SHL SUB AND DUP6 DUP8 PUSH1 0x40 MLOAD PUSH2 0x161A SWAP2 SWAP1 PUSH2 0x1BAA JUMP JUMPDEST PUSH1 0x0 PUSH1 0x40 MLOAD DUP1 DUP4 SUB DUP2 DUP6 DUP8 GAS CALL SWAP3 POP POP POP RETURNDATASIZE DUP1 PUSH1 0x0 DUP2 EQ PUSH2 0x1657 JUMPI PUSH1 0x40 MLOAD SWAP2 POP PUSH1 0x1F NOT PUSH1 0x3F RETURNDATASIZE ADD AND DUP3 ADD PUSH1 0x40 MSTORE RETURNDATASIZE DUP3 MSTORE RETURNDATASIZE PUSH1 0x0 PUSH1 0x20 DUP5 ADD RETURNDATACOPY PUSH2 0x165C JUMP JUMPDEST PUSH1 0x60 SWAP2 POP JUMPDEST POP SWAP2 POP SWAP2 POP PUSH2 0x166D DUP8 DUP4 DUP4 DUP8 PUSH2 0x1678 JUMP JUMPDEST SWAP8 SWAP7 POP POP POP POP POP POP POP JUMP JUMPDEST PUSH1 0x60 DUP4 ISZERO PUSH2 0x16E4 JUMPI DUP3 MLOAD PUSH2 0x16DD JUMPI PUSH1 0x1 PUSH1 0x1 PUSH1 0xA0 SHL SUB DUP6 AND EXTCODESIZE PUSH2 0x16DD JUMPI PUSH1 0x40 MLOAD PUSH3 0x461BCD PUSH1 0xE5 SHL DUP2 MSTORE PUSH1 0x20 PUSH1 0x4 DUP3 ADD MSTORE PUSH1 0x1D PUSH1 0x24 DUP3 ADD MSTORE PUSH32 0x416464726573733A2063616C6C20746F206E6F6E2D636F6E7472616374000000 PUSH1 0x44 DUP3 ADD MSTORE PUSH1 0x64 ADD PUSH2 0x4D5 JUMP JUMPDEST POP DUP2 PUSH2 0x1595 JUMP JUMPDEST PUSH2 0x1595 DUP4 DUP4 DUP2 MLOAD ISZERO PUSH2 0x16F9 JUMPI DUP2 MLOAD DUP1 DUP4 PUSH1 0x20 ADD REVERT JUMPDEST DUP1 PUSH1 0x40 MLOAD PUSH3 0x461BCD PUSH1 0xE5 SHL DUP2 MSTORE PUSH1 0x4 ADD PUSH2 0x4D5 SWAP2 SWAP1 PUSH2 0x1CC4 JUMP JUMPDEST DUP3 DUP1 SLOAD DUP3 DUP3 SSTORE SWAP1 PUSH1 0x0 MSTORE PUSH1 0x20 PUSH1 0x0 KECCAK256 SWAP1 PUSH1 0x5 MUL DUP2 ADD SWAP3 DUP3 ISZERO PUSH2 0x175D JUMPI SWAP2 PUSH1 0x20 MUL DUP3 ADD JUMPDEST DUP3 DUP2 GT ISZERO PUSH2 0x175D JUMPI DUP3 MLOAD PUSH2 0x174D SWAP1 DUP4 SWAP1 PUSH1 0x5 PUSH2 0x17C7 JUMP JUMPDEST POP SWAP2 PUSH1 0x20 ADD SWAP2 SWAP1 PUSH1 0x5 ADD SWAP1 PUSH2 0x1736 JUMP JUMPDEST POP PUSH2 0x1769 SWAP3 SWAP2 POP PUSH2 0x185C JUMP JUMPDEST POP SWAP1 JUMP JUMPDEST PUSH1 0x2D DUP4 ADD SWAP2 DUP4 SWAP1 DUP3 ISZERO PUSH2 0x175D JUMPI SWAP2 PUSH1 0x20 MUL DUP3 ADD JUMPDEST DUP3 DUP2 GT ISZERO PUSH2 0x175D JUMPI DUP3 MLOAD PUSH2 0x1798 SWAP1 DUP4 SWAP1 PUSH1 0x5 PUSH2 0x17C7 JUMP JUMPDEST POP SWAP2 PUSH1 0x20 ADD SWAP2 SWAP1 PUSH1 0x5 ADD SWAP1 PUSH2 0x1781 JUMP JUMPDEST PUSH1 0x40 MLOAD DUP1 PUSH2 0x280 ADD PUSH1 0x40 MSTORE DUP1 PUSH1 0x14 SWAP1 PUSH1 0x20 DUP3 MUL DUP1 CALLDATASIZE DUP4 CALLDATACOPY POP SWAP2 SWAP3 SWAP2 POP POP JUMP JUMPDEST DUP3 PUSH1 0x5 DUP2 ADD SWAP3 DUP3 ISZERO PUSH2 0x17F5 JUMPI SWAP2 PUSH1 0x20 MUL DUP3 ADD JUMPDEST DUP3 DUP2 GT ISZERO PUSH2 0x17F5 JUMPI DUP3 MLOAD DUP3 SSTORE SWAP2 PUSH1 0x20 ADD SWAP2 SWAP1 PUSH1 0x1 ADD SWAP1 PUSH2 0x17DA JUMP JUMPDEST POP PUSH2 0x1769 SWAP3 SWAP2 POP PUSH2 0x188B JUMP JUMPDEST PUSH1 0x40 MLOAD DUP1 PUSH2 0x120 ADD PUSH1 0x40 MSTORE DUP1 PUSH1 0x9 SWAP1 JUMPDEST PUSH2 0x1819 PUSH2 0x18A0 JUMP JUMPDEST DUP2 MSTORE PUSH1 0x20 ADD SWAP1 PUSH1 0x1 SWAP1 SUB SWAP1 DUP2 PUSH2 0x1811 JUMPI SWAP1 POP POP SWAP1 JUMP JUMPDEST PUSH1 0x40 MLOAD DUP1 PUSH1 0x60 ADD PUSH1 0x40 MSTORE DUP1 PUSH1 0x3 SWAP1 JUMPDEST PUSH2 0x1846 PUSH2 0x18A0 JUMP JUMPDEST DUP2 MSTORE PUSH1 0x20 ADD SWAP1 PUSH1 0x1 SWAP1 SUB SWAP1 DUP2 PUSH2 0x183E JUMPI SWAP1 POP POP SWAP1 JUMP JUMPDEST DUP1 DUP3 GT ISZERO PUSH2 0x1769 JUMPI PUSH1 0x0 DUP1 DUP3 SSTORE PUSH1 0x1 DUP3 ADD DUP2 SWAP1 SSTORE PUSH1 0x2 DUP3 ADD DUP2 SWAP1 SSTORE PUSH1 0x3 DUP3 ADD DUP2 SWAP1 SSTORE PUSH1 0x4 DUP3 ADD SSTORE PUSH1 0x5 ADD PUSH2 0x185C JUMP JUMPDEST JUMPDEST DUP1 DUP3 GT ISZERO PUSH2 0x1769 JUMPI PUSH1 0x0 DUP2 SSTORE PUSH1 0x1 ADD PUSH2 0x188C JUMP JUMPDEST PUSH1 0x40 MLOAD DUP1 PUSH1 0xA0 ADD PUSH1 0x40 MSTORE DUP1 PUSH1 0x5 SWAP1 PUSH1 0x20 DUP3 MUL DUP1 CALLDATASIZE DUP4 CALLDATACOPY POP SWAP2 SWAP3 SWAP2 POP POP JUMP JUMPDEST DUP1 CALLDATALOAD PUSH1 0x1 PUSH1 0x1 PUSH1 0xA0 SHL SUB DUP2 AND DUP2 EQ PUSH2 0x18D5 JUMPI PUSH1 0x0 DUP1 REVERT JUMPDEST SWAP2 SWAP1 POP JUMP JUMPDEST PUSH1 0x0 DUP3 PUSH1 0x1F DUP4 ADD SLT PUSH2 0x18EB JUMPI PUSH1 0x0 DUP1 REVERT JUMPDEST PUSH1 0x40 MLOAD PUSH1 0xA0 DUP2 ADD DUP2 DUP2 LT PUSH8 0xFFFFFFFFFFFFFFFF DUP3 GT OR ISZERO PUSH2 0x190E JUMPI PUSH2 0x190E PUSH2 0x1E27 JUMP JUMPDEST PUSH1 0x40 MSTORE DUP1 DUP4 PUSH1 0xA0 DUP2 ADD DUP7 LT ISZERO PUSH2 0x1923 JUMPI PUSH1 0x0 DUP1 REVERT JUMPDEST PUSH1 0x0 JUMPDEST PUSH1 0x5 DUP2 LT ISZERO PUSH2 0x1945 JUMPI DUP2 CALLDATALOAD DUP4 MSTORE PUSH1 0x20 SWAP3 DUP4 ADD SWAP3 SWAP1 SWAP2 ADD SWAP1 PUSH1 0x1 ADD PUSH2 0x1926 JUMP JUMPDEST POP SWAP2 SWAP6 SWAP5 POP POP POP POP POP JUMP JUMPDEST PUSH1 0x0 PUSH1 0x20 DUP3 DUP5 SUB SLT ISZERO PUSH2 0x1962 JUMPI PUSH1 0x0 DUP1 REVERT JUMPDEST PUSH2 0xCB7 DUP3 PUSH2 0x18BE JUMP JUMPDEST PUSH1 0x0 DUP1 PUSH1 0x40 DUP4 DUP6 SUB SLT ISZERO PUSH2 0x197E JUMPI PUSH1 0x0 DUP1 REVERT JUMPDEST PUSH2 0x1987 DUP4 PUSH2 0x18BE JUMP JUMPDEST SWAP5 PUSH1 0x20 SWAP4 SWAP1 SWAP4 ADD CALLDATALOAD SWAP4 POP POP POP JUMP JUMPDEST PUSH1 0x0 PUSH2 0x5A0 DUP1 DUP4 DUP6 SUB SLT ISZERO PUSH2 0x19A9 JUMPI PUSH1 0x0 DUP1 REVERT JUMPDEST DUP4 PUSH1 0x1F DUP5 ADD SLT PUSH2 0x19B8 JUMPI PUSH1 0x0 DUP1 REVERT JUMPDEST PUSH1 0x40 MLOAD PUSH2 0x120 DUP2 ADD DUP2 DUP2 LT PUSH8 0xFFFFFFFFFFFFFFFF DUP3 GT OR ISZERO PUSH2 0x19DC JUMPI PUSH2 0x19DC PUSH2 0x1E27 JUMP JUMPDEST PUSH1 0x40 MSTORE DUP1 DUP5 DUP4 DUP2 ADD DUP8 LT ISZERO PUSH2 0x19F0 JUMPI PUSH1 0x0 DUP1 REVERT JUMPDEST PUSH1 0x0 SWAP4 POP JUMPDEST PUSH1 0x9 DUP5 LT ISZERO PUSH2 0x1A1F JUMPI PUSH2 0x1A08 DUP8 DUP3 PUSH2 0x18DA JUMP JUMPDEST DUP3 MSTORE PUSH1 0x1 SWAP4 SWAP1 SWAP4 ADD SWAP3 PUSH1 0x20 SWAP1 SWAP2 ADD SWAP1 PUSH1 0xA0 ADD PUSH2 0x19F5 JUMP JUMPDEST POP SWAP1 SWAP6 SWAP5 POP POP POP POP POP JUMP JUMPDEST PUSH1 0x0 PUSH1 0x20 DUP1 DUP4 DUP6 SUB SLT ISZERO PUSH2 0x1A3D JUMPI PUSH1 0x0 DUP1 REVERT JUMPDEST DUP3 CALLDATALOAD PUSH8 0xFFFFFFFFFFFFFFFF DUP1 DUP3 GT ISZERO PUSH2 0x1A55 JUMPI PUSH1 0x0 DUP1 REVERT JUMPDEST DUP2 DUP6 ADD SWAP2 POP DUP6 PUSH1 0x1F DUP4 ADD SLT PUSH2 0x1A69 JUMPI PUSH1 0x0 DUP1 REVERT JUMPDEST DUP2 CALLDATALOAD DUP2 DUP2 GT ISZERO PUSH2 0x1A7B JUMPI PUSH2 0x1A7B PUSH2 0x1E27 JUMP JUMPDEST PUSH2 0x1A89 DUP5 DUP3 PUSH1 0x5 SHL ADD PUSH2 0x1CF7 JUMP JUMPDEST DUP2 DUP2 MSTORE DUP5 DUP2 ADD SWAP3 POP DUP4 DUP6 ADD PUSH1 0xA0 DUP1 DUP5 MUL DUP7 ADD DUP8 ADD DUP11 LT ISZERO PUSH2 0x1AA9 JUMPI PUSH1 0x0 DUP1 REVERT JUMPDEST PUSH1 0x0 SWAP6 POP JUMPDEST DUP4 DUP7 LT ISZERO PUSH2 0x1AD6 JUMPI PUSH2 0x1AC0 DUP11 DUP4 PUSH2 0x18DA JUMP JUMPDEST DUP6 MSTORE PUSH1 0x1 SWAP6 SWAP1 SWAP6 ADD SWAP5 SWAP4 DUP7 ADD SWAP4 SWAP1 DUP2 ADD SWAP1 PUSH2 0x1AAE JUMP JUMPDEST POP SWAP1 SWAP9 SWAP8 POP POP POP POP POP POP POP POP JUMP JUMPDEST PUSH1 0x0 PUSH1 0x20 DUP3 DUP5 SUB SLT ISZERO PUSH2 0x1AF6 JUMPI PUSH1 0x0 DUP1 REVERT JUMPDEST DUP2 MLOAD DUP1 ISZERO ISZERO DUP2 EQ PUSH2 0xCB7 JUMPI PUSH1 0x0 DUP1 REVERT JUMPDEST PUSH1 0x0 PUSH1 0x20 DUP3 DUP5 SUB SLT ISZERO PUSH2 0x1B18 JUMPI PUSH1 0x0 DUP1 REVERT JUMPDEST POP CALLDATALOAD SWAP2 SWAP1 POP JUMP JUMPDEST PUSH1 0x0 PUSH1 0x20 DUP3 DUP5 SUB SLT ISZERO PUSH2 0x1B31 JUMPI PUSH1 0x0 DUP1 REVERT JUMPDEST POP MLOAD SWAP2 SWAP1 POP JUMP JUMPDEST PUSH1 0x0 DUP1 PUSH1 0x0 PUSH1 0x60 DUP5 DUP7 SUB SLT ISZERO PUSH2 0x1B4D JUMPI PUSH1 0x0 DUP1 REVERT JUMPDEST POP POP DUP2 CALLDATALOAD SWAP4 PUSH1 0x20 DUP4 ADD CALLDATALOAD SWAP4 POP PUSH1 0x40 SWAP1 SWAP3 ADD CALLDATALOAD SWAP2 SWAP1 POP JUMP JUMPDEST DUP1 PUSH1 0x0 JUMPDEST PUSH1 0x14 DUP2 LT ISZERO PUSH2 0xE5B JUMPI DUP2 MLOAD DUP5 MSTORE PUSH1 0x20 SWAP4 DUP5 ADD SWAP4 SWAP1 SWAP2 ADD SWAP1 PUSH1 0x1 ADD PUSH2 0x1B68 JUMP JUMPDEST DUP1 PUSH1 0x0 JUMPDEST PUSH1 0x5 DUP2 LT ISZERO PUSH2 0xE5B JUMPI DUP2 MLOAD DUP5 MSTORE PUSH1 0x20 SWAP4 DUP5 ADD SWAP4 SWAP1 SWAP2 ADD SWAP1 PUSH1 0x1 ADD PUSH2 0x1B8B JUMP JUMPDEST PUSH1 0x0 DUP3 MLOAD PUSH2 0x1BBC DUP2 DUP5 PUSH1 0x20 DUP8 ADD PUSH2 0x1D8A JUMP JUMPDEST SWAP2 SWAP1 SWAP2 ADD SWAP3 SWAP2 POP POP JUMP JUMPDEST PUSH1 0x1 PUSH1 0x1 PUSH1 0xA0 SHL SUB DUP12 AND DUP2 MSTORE PUSH1 0x20 DUP2 ADD DUP11 SWAP1 MSTORE PUSH1 0x40 DUP2 ADD DUP10 SWAP1 MSTORE PUSH1 0x60 DUP2 ADD DUP9 SWAP1 MSTORE PUSH2 0x680 DUP2 ADD PUSH2 0x1BF9 PUSH1 0x80 DUP4 ADD DUP10 PUSH2 0x1B87 JUMP JUMPDEST PUSH2 0x1C07 PUSH2 0x120 DUP4 ADD DUP9 PUSH2 0x1B64 JUMP JUMPDEST PUSH2 0x1C15 PUSH2 0x3A0 DUP4 ADD DUP8 PUSH2 0x1B64 JUMP JUMPDEST DUP5 PUSH2 0x620 DUP4 ADD MSTORE DUP4 PUSH2 0x640 DUP4 ADD MSTORE DUP3 PUSH2 0x660 DUP4 ADD MSTORE SWAP12 SWAP11 POP POP POP POP POP POP POP POP POP POP POP JUMP JUMPDEST PUSH2 0x5A0 DUP2 ADD DUP2 DUP4 PUSH1 0x0 JUMPDEST PUSH1 0x9 DUP2 LT ISZERO PUSH2 0x1C6D JUMPI PUSH2 0x1C57 DUP4 DUP4 MLOAD PUSH2 0x1B87 JUMP JUMPDEST PUSH1 0xA0 SWAP3 SWAP1 SWAP3 ADD SWAP2 PUSH1 0x20 SWAP2 SWAP1 SWAP2 ADD SWAP1 PUSH1 0x1 ADD PUSH2 0x1C43 JUMP JUMPDEST POP POP POP SWAP3 SWAP2 POP POP JUMP JUMPDEST PUSH1 0x20 DUP1 DUP3 MSTORE DUP3 MLOAD DUP3 DUP3 ADD DUP2 SWAP1 MSTORE PUSH1 0x0 SWAP2 SWAP1 DUP5 DUP3 ADD SWAP1 PUSH1 0x40 DUP6 ADD SWAP1 DUP5 JUMPDEST DUP2 DUP2 LT ISZERO PUSH2 0x1CB8 JUMPI PUSH2 0x1CA5 DUP4 DUP6 MLOAD PUSH2 0x1B87 JUMP JUMPDEST SWAP3 DUP5 ADD SWAP3 PUSH1 0xA0 SWAP3 SWAP1 SWAP3 ADD SWAP2 PUSH1 0x1 ADD PUSH2 0x1C92 JUMP JUMPDEST POP SWAP1 SWAP7 SWAP6 POP POP POP POP POP POP JUMP JUMPDEST PUSH1 0x20 DUP2 MSTORE PUSH1 0x0 DUP3 MLOAD DUP1 PUSH1 0x20 DUP5 ADD MSTORE PUSH2 0x1CE3 DUP2 PUSH1 0x40 DUP6 ADD PUSH1 0x20 DUP8 ADD PUSH2 0x1D8A JUMP JUMPDEST PUSH1 0x1F ADD PUSH1 0x1F NOT AND SWAP2 SWAP1 SWAP2 ADD PUSH1 0x40 ADD SWAP3 SWAP2 POP POP JUMP JUMPDEST PUSH1 0x40 MLOAD PUSH1 0x1F DUP3 ADD PUSH1 0x1F NOT AND DUP2 ADD PUSH8 0xFFFFFFFFFFFFFFFF DUP2 GT DUP3 DUP3 LT OR ISZERO PUSH2 0x1D20 JUMPI PUSH2 0x1D20 PUSH2 0x1E27 JUMP JUMPDEST PUSH1 0x40 MSTORE SWAP2 SWAP1 POP JUMP JUMPDEST PUSH1 0x0 DUP3 NOT DUP3 GT ISZERO PUSH2 0x1D3B JUMPI PUSH2 0x1D3B PUSH2 0x1DE5 JUMP JUMPDEST POP ADD SWAP1 JUMP JUMPDEST PUSH1 0x0 DUP3 PUSH2 0x1D4F JUMPI PUSH2 0x1D4F PUSH2 0x1DFB JUMP JUMPDEST POP DIV SWAP1 JUMP JUMPDEST PUSH1 0x0 DUP2 PUSH1 0x0 NOT DIV DUP4 GT DUP3 ISZERO ISZERO AND ISZERO PUSH2 0x1D6E JUMPI PUSH2 0x1D6E PUSH2 0x1DE5 JUMP JUMPDEST POP MUL SWAP1 JUMP JUMPDEST PUSH1 0x0 DUP3 DUP3 LT ISZERO PUSH2 0x1D85 JUMPI PUSH2 0x1D85 PUSH2 0x1DE5 JUMP JUMPDEST POP SUB SWAP1 JUMP JUMPDEST PUSH1 0x0 JUMPDEST DUP4 DUP2 LT ISZERO PUSH2 0x1DA5 JUMPI DUP2 DUP2 ADD MLOAD DUP4 DUP3 ADD MSTORE PUSH1 0x20 ADD PUSH2 0x1D8D JUMP JUMPDEST DUP4 DUP2 GT ISZERO PUSH2 0xE5B JUMPI POP POP PUSH1 0x0 SWAP2 ADD MSTORE JUMP JUMPDEST PUSH1 0x0 PUSH1 0x0 NOT DUP3 EQ ISZERO PUSH2 0x1DCA JUMPI PUSH2 0x1DCA PUSH2 0x1DE5 JUMP JUMPDEST POP PUSH1 0x1 ADD SWAP1 JUMP JUMPDEST PUSH1 0x0 DUP3 PUSH2 0x1DE0 JUMPI PUSH2 0x1DE0 PUSH2 0x1DFB JUMP JUMPDEST POP MOD SWAP1 JUMP JUMPDEST PUSH4 0x4E487B71 PUSH1 0xE0 SHL PUSH1 0x0 MSTORE PUSH1 0x11 PUSH1 0x4 MSTORE PUSH1 0x24 PUSH1 0x0 REVERT JUMPDEST PUSH4 0x4E487B71 PUSH1 0xE0 SHL PUSH1 0x0 MSTORE PUSH1 0x12 PUSH1 0x4 MSTORE PUSH1 0x24 PUSH1 0x0 REVERT JUMPDEST PUSH4 0x4E487B71 PUSH1 0xE0 SHL PUSH1 0x0 MSTORE PUSH1 0x32 PUSH1 0x4 MSTORE PUSH1 0x24 PUSH1 0x0 REVERT JUMPDEST PUSH4 0x4E487B71 PUSH1 0xE0 SHL PUSH1 0x0 MSTORE PUSH1 0x41 PUSH1 0x4 MSTORE PUSH1 0x24 PUSH1 0x0 REVERT INVALID LOG2 PUSH5 0x6970667358 0x22 SLT KECCAK256 POP DUP8 0xD7 CODECOPY CALLDATACOPY 0xFC JUMPI DUP8 SWAP13 ISZERO DUP1 0xEE 0xD8 LOG3 0x4A XOR 0x4F BLOCKHASH STATICCALL JUMPI 0xBD SWAP2 GASPRICE DUP15 MSTORE8 MSTORE 0xBE 0x28 GT 0xD2 SDIV PUSH10 0x64736F6C634300080700 CALLER "
		},
		"gasEstimates": {
			"creation": {
				"codeDepositCost": "1559000",
				"executionCost": "infinite",
				"totalCost": "infinite"
			},
			"external": {
				"addUserBalance(uint256)": "24635",
				"buyTokens(uint256)": "infinite",
				"currency()": "2403",
				"doSpin(uint256,uint256,bytes32)": "infinite",
				"flushRandom(bytes32)": "57535",
				"getBankInTokens()": "infinite",
				"getCurrency()": "2409",
				"getMultiplers()": "infinite",
				"getMyBalance()": "2427",
				"getTokenPrice()": "2337",
				"getUserBalance(address)": "2560",
				"getWinLines()": "infinite",
				"owner()": "2442",
				"playerSpins(address,uint256)": "15470",
				"renounceOwnership()": "infinite",
				"setCurrency(address)": "26803",
				"setMultiplers(uint256[5][9])": "infinite",
				"setTokenPrice(uint256)": "24599",
				"setWinLines(uint256[5][])": "infinite",
				"tokenPrice()": "2340",
				"transferOwnership(address)": "28443",
				"withdrawTokens()": "infinite"
			},
			"internal": {
				"checkLine(uint256,uint256[5] memory[3] memory)": "infinite",
				"getAllowance(address)": "infinite",
				"getRandom(bytes32,uint256)": "infinite",
				"getRandomBase(bytes32)": "infinite",
				"getWinLine(uint32)": "infinite",
				"spinReels(bytes32)": "infinite"
			}
		},
		"methodIdentifiers": {
			"addUserBalance(uint256)": "22526328",
			"buyTokens(uint256)": "3610724e",
			"currency()": "e5a6b10f",
			"doSpin(uint256,uint256,bytes32)": "a3e2e8ce",
			"flushRandom(bytes32)": "f7e944ee",
			"getBankInTokens()": "e9a4a03d",
			"getCurrency()": "6945c1fd",
			"getMultiplers()": "d3f0a7ce",
			"getMyBalance()": "4c738909",
			"getTokenPrice()": "4b94f50e",
			"getUserBalance(address)": "47734892",
			"getWinLines()": "4282cf54",
			"owner()": "8da5cb5b",
			"playerSpins(address,uint256)": "17adaa03",
			"renounceOwnership()": "715018a6",
			"setCurrency(address)": "2f84c391",
			"setMultiplers(uint256[5][9])": "81b87e54",
			"setTokenPrice(uint256)": "6a61e5fc",
			"setWinLines(uint256[5][])": "6f43022c",
			"tokenPrice()": "7ff9b596",
			"transferOwnership(address)": "f2fde38b",
			"withdrawTokens()": "8d8f2adb"
		}
	},
	"abi": [
		{
			"inputs": [
				{
					"internalType": "address",
					"name": "_currency",
					"type": "address"
				},
				{
					"internalType": "uint256",
					"name": "_tokenPrice",
					"type": "uint256"
				}
			],
			"stateMutability": "nonpayable",
			"type": "constructor"
		},
		{
			"anonymous": false,
			"inputs": [
				{
					"indexed": false,
					"internalType": "string",
					"name": "desc",
					"type": "string"
				},
				{
					"indexed": false,
					"internalType": "uint256[5]",
					"name": "value",
					"type": "uint256[5]"
				}
			],
			"name": "LogLine",
			"type": "event"
		},
		{
			"anonymous": false,
			"inputs": [
				{
					"indexed": false,
					"internalType": "string",
					"name": "desc",
					"type": "string"
				},
				{
					"indexed": false,
					"internalType": "uint256[5][3]",
					"name": "value",
					"type": "uint256[5][3]"
				}
			],
			"name": "LogSlots",
			"type": "event"
		},
		{
			"anonymous": false,
			"inputs": [
				{
					"indexed": false,
					"internalType": "string",
					"name": "message",
					"type": "string"
				}
			],
			"name": "LogString",
			"type": "event"
		},
		{
			"anonymous": false,
			"inputs": [
				{
					"indexed": false,
					"internalType": "string",
					"name": "desc",
					"type": "string"
				},
				{
					"indexed": false,
					"internalType": "uint256",
					"name": "value",
					"type": "uint256"
				}
			],
			"name": "LogUint256",
			"type": "event"
		},
		{
			"anonymous": false,
			"inputs": [
				{
					"indexed": false,
					"internalType": "string",
					"name": "desc",
					"type": "string"
				},
				{
					"indexed": false,
					"internalType": "uint256[]",
					"name": "value",
					"type": "uint256[]"
				}
			],
			"name": "LogUint256Array",
			"type": "event"
		},
		{
			"anonymous": false,
			"inputs": [
				{
					"indexed": true,
					"internalType": "address",
					"name": "previousOwner",
					"type": "address"
				},
				{
					"indexed": true,
					"internalType": "address",
					"name": "newOwner",
					"type": "address"
				}
			],
			"name": "OwnershipTransferred",
			"type": "event"
		},
		{
			"anonymous": false,
			"inputs": [
				{
					"indexed": false,
					"internalType": "address",
					"name": "user",
					"type": "address"
				},
				{
					"indexed": false,
					"internalType": "uint256",
					"name": "bet",
					"type": "uint256"
				},
				{
					"indexed": false,
					"internalType": "uint256",
					"name": "lines",
					"type": "uint256"
				},
				{
					"indexed": false,
					"internalType": "uint256",
					"name": "winAmount",
					"type": "uint256"
				},
				{
					"indexed": false,
					"internalType": "uint256[5]",
					"name": "slots",
					"type": "uint256[5]"
				},
				{
					"indexed": false,
					"internalType": "uint256[20]",
					"name": "spinWinLines",
					"type": "uint256[20]"
				},
				{
					"indexed": false,
					"internalType": "uint256[20]",
					"name": "spinWinSlots",
					"type": "uint256[20]"
				},
				{
					"indexed": false,
					"internalType": "uint256",
					"name": "maxLine",
					"type": "uint256"
				},
				{
					"indexed": false,
					"internalType": "uint256",
					"name": "maxLineWin",
					"type": "uint256"
				},
				{
					"indexed": false,
					"internalType": "uint256",
					"name": "maxWinSlot",
					"type": "uint256"
				}
			],
			"name": "ReelsSpinned",
			"type": "event"
		},
		{
			"inputs": [
				{
					"internalType": "uint256",
					"name": "bets",
					"type": "uint256"
				}
			],
			"name": "addUserBalance",
			"outputs": [],
			"stateMutability": "nonpayable",
			"type": "function"
		},
		{
			"inputs": [
				{
					"internalType": "uint256",
					"name": "tokenAmount",
					"type": "uint256"
				}
			],
			"name": "buyTokens",
			"outputs": [],
			"stateMutability": "nonpayable",
			"type": "function"
		},
		{
			"inputs": [],
			"name": "currency",
			"outputs": [
				{
					"internalType": "contract IERC20",
					"name": "",
					"type": "address"
				}
			],
			"stateMutability": "view",
			"type": "function"
		},
		{
			"inputs": [
				{
					"internalType": "uint256",
					"name": "bet",
					"type": "uint256"
				},
				{
					"internalType": "uint256",
					"name": "lineCount",
					"type": "uint256"
				},
				{
					"internalType": "bytes32",
					"name": "_seed",
					"type": "bytes32"
				}
			],
			"name": "doSpin",
			"outputs": [],
			"stateMutability": "nonpayable",
			"type": "function"
		},
		{
			"inputs": [
				{
					"internalType": "bytes32",
					"name": "_flushSeed",
					"type": "bytes32"
				}
			],
			"name": "flushRandom",
			"outputs": [],
			"stateMutability": "nonpayable",
			"type": "function"
		},
		{
			"inputs": [],
			"name": "getBankInTokens",
			"outputs": [
				{
					"internalType": "uint256",
					"name": "",
					"type": "uint256"
				}
			],
			"stateMutability": "view",
			"type": "function"
		},
		{
			"inputs": [],
			"name": "getCurrency",
			"outputs": [
				{
					"internalType": "address",
					"name": "",
					"type": "address"
				}
			],
			"stateMutability": "view",
			"type": "function"
		},
		{
			"inputs": [],
			"name": "getMultiplers",
			"outputs": [
				{
					"internalType": "uint256[5][9]",
					"name": "",
					"type": "uint256[5][9]"
				}
			],
			"stateMutability": "view",
			"type": "function"
		},
		{
			"inputs": [],
			"name": "getMyBalance",
			"outputs": [
				{
					"internalType": "uint256",
					"name": "",
					"type": "uint256"
				}
			],
			"stateMutability": "view",
			"type": "function"
		},
		{
			"inputs": [],
			"name": "getTokenPrice",
			"outputs": [
				{
					"internalType": "uint256",
					"name": "",
					"type": "uint256"
				}
			],
			"stateMutability": "view",
			"type": "function"
		},
		{
			"inputs": [
				{
					"internalType": "address",
					"name": "user",
					"type": "address"
				}
			],
			"name": "getUserBalance",
			"outputs": [
				{
					"internalType": "uint256",
					"name": "",
					"type": "uint256"
				}
			],
			"stateMutability": "view",
			"type": "function"
		},
		{
			"inputs": [],
			"name": "getWinLines",
			"outputs": [
				{
					"internalType": "uint256[5][]",
					"name": "",
					"type": "uint256[5][]"
				}
			],
			"stateMutability": "view",
			"type": "function"
		},
		{
			"inputs": [],
			"name": "owner",
			"outputs": [
				{
					"internalType": "address",
					"name": "",
					"type": "address"
				}
			],
			"stateMutability": "view",
			"type": "function"
		},
		{
			"inputs": [
				{
					"internalType": "address",
					"name": "",
					"type": "address"
				},
				{
					"internalType": "uint256",
					"name": "",
					"type": "uint256"
				}
			],
			"name": "playerSpins",
			"outputs": [
				{
					"internalType": "uint256",
					"name": "spinId",
					"type": "uint256"
				},
				{
					"internalType": "address",
					"name": "player",
					"type": "address"
				},
				{
					"internalType": "uint256",
					"name": "bet",
					"type": "uint256"
				},
				{
					"internalType": "uint256",
					"name": "utx",
					"type": "uint256"
				},
				{
					"internalType": "uint256",
					"name": "lines",
					"type": "uint256"
				},
				{
					"internalType": "uint256",
					"name": "winAmount",
					"type": "uint256"
				}
			],
			"stateMutability": "view",
			"type": "function"
		},
		{
			"inputs": [],
			"name": "renounceOwnership",
			"outputs": [],
			"stateMutability": "nonpayable",
			"type": "function"
		},
		{
			"inputs": [
				{
					"internalType": "address",
					"name": "newCurrency",
					"type": "address"
				}
			],
			"name": "setCurrency",
			"outputs": [],
			"stateMutability": "nonpayable",
			"type": "function"
		},
		{
			"inputs": [
				{
					"internalType": "uint256[5][9]",
					"name": "_slotMult",
					"type": "uint256[5][9]"
				}
			],
			"name": "setMultiplers",
			"outputs": [],
			"stateMutability": "nonpayable",
			"type": "function"
		},
		{
			"inputs": [
				{
					"internalType": "uint256",
					"name": "newTokenPrice",
					"type": "uint256"
				}
			],
			"name": "setTokenPrice",
			"outputs": [],
			"stateMutability": "nonpayable",
			"type": "function"
		},
		{
			"inputs": [
				{
					"internalType": "uint256[5][]",
					"name": "_winLines",
					"type": "uint256[5][]"
				}
			],
			"name": "setWinLines",
			"outputs": [],
			"stateMutability": "nonpayable",
			"type": "function"
		},
		{
			"inputs": [],
			"name": "tokenPrice",
			"outputs": [
				{
					"internalType": "uint256",
					"name": "",
					"type": "uint256"
				}
			],
			"stateMutability": "view",
			"type": "function"
		},
		{
			"inputs": [
				{
					"internalType": "address",
					"name": "newOwner",
					"type": "address"
				}
			],
			"name": "transferOwnership",
			"outputs": [],
			"stateMutability": "nonpayable",
			"type": "function"
		},
		{
			"inputs": [],
			"name": "withdrawTokens",
			"outputs": [],
			"stateMutability": "nonpayable",
			"type": "function"
		}
	]
}