{
	"data": {
		"bytecode": {
			"linkReferences": {},
			"object": "6003805463ffffffff1916600517905560016006819055600781905560646008556013600955610300818152610320829052610340829052610360829052610380829052608090815260006103a08181526103c08290526103e082905261040082905261042082905260a05260026104408181526104608290526104808290526104a08290526104c082905260c0526104e084815261050085905261052083905261054085905261056082905260e0526105808481526105a08590526105c08290526105e0859052610600839052610100526106208481526106408390526106608590526106808290526106a0859052610120526106c08481526106e0839052610700859052610720829052610740829052610140526107608481526107808390526107a08390526107c08590526107e082905261016052610800848152610820829052610840859052610860839052610880859052610180526108a08481526108c08290526108e08290526109008590526109208390526101a0526109408481526109608290526109808590526109a08390526109c08390526101c0526109e0828152610a00859052610a20829052610a40859052610a608390526101e052610a80828152610aa0859052610ac0859052610ae0859052610b0082905261020052610b20828152610b40839052610b60859052610b80829052610ba082905261022052610bc0828152610be0839052610c00859052610c20829052610c4085905261024052610c60828152610c80839052610ca0839052610cc0859052610ce082905261026052610d00818152610d20859052610d40839052610d60859052610d8082905261028052610da0818152610dc0859052610de0859052610e00859052610e208390526102a052610e40818152610e60829052610e80859052610ea0839052610ec08390526102c052610f80604052610ee0818152610f0091909152610f20849052610f4091909152610f60929092526102e091909152620002eb90600a9060146200060a565b506040518061012001604052806040518060a001604052806000815260200160008152602001601481526020016050815260200160c881525081526020016040518060a0016040528060008152602001600081526020016028815260200161019081526020016107d081525081526020016040518060a001604052806000815260200160088152602001600f8152602001607881526020016101f481525081526020016040518060a0016040528060008152602001600281526020016008815260200160148152602001605081525081526020016040518060a0016040528060008152602001600081526020016008815260200160148152602001605081525081526020016040518060a001604052806000815260200160008152602001601481526020016050815260200160c881525081526020016040518060a0016040528060008152602001600081526020016008815260200160148152602001605081525081526020016040518060a0016040528060008152602001600081526020016014815260200160c881526020016103e881525081526020016040518060a0016040528060008152602001600081526020016002815260200160058152602001600f815250815250600b906009620004c59291906200066b565b506040805160a081018252620186a0815261271060208201526103e89181019190915260646060820152600a608082015262000506906038906005620006ab565b506040805160a08101825261271081526103e8602082015260649181018290526060810191909152600160808201526200054590603d906005620006f1565b506000604281905560438190556044553480156200056257600080fd5b5060405162002dc438038062002dc48339810160408190526200058591620007d7565b6200059033620005ba565b600580546001600160a01b0319166001600160a01b03939093169290921790915560065562000813565b600080546001600160a01b038381166001600160a01b0319831681178455604051919092169283917f8be0079c531659141344cd1fd0a4f28419497f9722a3daafe3b4186f6b6457e09190a35050565b82805482825590600052602060002090600502810192821562000659579160200282015b828111156200065957825162000648908390600562000728565b50916020019190600501906200062e565b50620006679291506200075e565b5090565b602d8301918390821562000659579160200282015b82811115620006595782516200069a90839060056200078f565b509160200191906005019062000680565b8260058101928215620006e3579160200282015b82811115620006e3578251829062ffffff16905591602001919060010190620006bf565b5062000667929150620007c0565b8260058101928215620006e3579160200282015b82811115620006e3578251829061ffff1690559160200191906001019062000705565b8260058101928215620006e3579160200282015b82811115620006e3578251829060ff169055916020019190600101906200073c565b808211156200066757600080825560018201819055600282018190556003820181905560048201556005016200075e565b8260058101928215620006e3579160200282015b82811115620006e3578251825591602001919060010190620007a3565b5b80821115620006675760008155600101620007c1565b60008060408385031215620007eb57600080fd5b82516001600160a01b03811681146200080357600080fd5b6020939093015192949293505050565b6125a180620008236000396000f3fe608060405234801561001057600080fd5b50600436106101cf5760003560e01c80636f43022c11610104578063a3e2e8ce116100a2578063e9a4a03d11610071578063e9a4a03d1461042e578063f2fde38b14610436578063f7e944ee14610449578063fda0ef891461045c57600080fd5b8063a3e2e8ce146103d3578063d3f0a7ce146103e6578063e3c7b05e146103fb578063e5a6b10f1461040e57600080fd5b806381b87e54116100de57806381b87e5414610387578063881eff1e1461039a5780638d8f2adb146103ad5780638da5cb5b146103b557600080fd5b80636f43022c14610363578063715018a6146103765780637ff9b5961461037e57600080fd5b80634afa1905116101715780636012cb191161014b5780636012cb19146102f6578063646668b6146103095780636945c1fd146103115780636a61e5fc1461035057600080fd5b80634afa1905146102c65780634b94f50e146102d95780634c738909146102e157600080fd5b80632f84c391116101ad5780632f84c391146102555780633610724e146102685780634282cf541461027b578063477348921461029057600080fd5b806309b9dd89146101d457806317adaa03146101eb5780632252632814610240575b600080fd5b6009545b6040519081526020015b60405180910390f35b6101fe6101f9366004611f02565b610464565b6040805196875273ffffffffffffffffffffffffffffffffffffffff9095166020870152938501929092526060840152608083015260a082015260c0016101e2565b61025361024e366004611f2c565b6104cf565b005b610253610263366004611f45565b6104f6565b610253610276366004611f2c565b610545565b6102836107fe565b6040516101e29190611f94565b6101d861029e366004611f45565b73ffffffffffffffffffffffffffffffffffffffff1660009081526004602052604090205490565b6102536102d4366004612138565b61087c565b6006546101d8565b336000908152600460205260409020546101d8565b610253610304366004611f2c565b6108ae565b6008546101d8565b60055473ffffffffffffffffffffffffffffffffffffffff165b60405173ffffffffffffffffffffffffffffffffffffffff90911681526020016101e2565b61025361035e366004611f2c565b6108bb565b610253610371366004612183565b6108c8565b6102536108e7565b6101d860065481565b610253610395366004612233565b6108fb565b6102536103a8366004611f2c565b610910565b61025361091d565b60005473ffffffffffffffffffffffffffffffffffffffff1661032b565b6102536103e1366004612250565b610b64565b6103ee610f9c565b6040516101e2919061227c565b610253610409366004611f2c565b610fff565b60055461032b9073ffffffffffffffffffffffffffffffffffffffff1681565b6101d861100c565b610253610444366004611f45565b6110ba565b610253610457366004611f2c565b611171565b6007546101d8565b6001602052816000526040600020818154811061048057600080fd5b60009182526020909120600b9091020180546001820154600283015460038401546004850154600a9095015493965073ffffffffffffffffffffffffffffffffffffffff909216945092909186565b33600090815260046020526040812080548392906104ee9084906122e3565b909155505050565b6104fe6111fd565b600580547fffffffffffffffffffffffff00000000000000000000000000000000000000001673ffffffffffffffffffffffffffffffffffffffff92909216919091179055565b60006006548261055591906122f6565b6005546040517f70a0823100000000000000000000000000000000000000000000000000000000815233600482015291925060009173ffffffffffffffffffffffffffffffffffffffff909116906370a0823190602401602060405180830381865afa1580156105c9573d6000803e3d6000fd5b505050506040513d601f19601f820116820180604052508101906105ed919061230d565b905081811015610684576040517f08c379a000000000000000000000000000000000000000000000000000000000815260206004820152603460248201527f596f7520646f206e6f74206861766520656e6f75676820746f6b656e73206f6e60448201527f20796f75722062616c616e636520746f2070617900000000000000000000000060648201526084015b60405180910390fd5b6005546040517fdd62ed3e00000000000000000000000000000000000000000000000000000000815233600482015230602482015260009173ffffffffffffffffffffffffffffffffffffffff169063dd62ed3e90604401602060405180830381865afa1580156106f9573d6000803e3d6000fd5b505050506040513d601f19601f8201168201806040525081019061071d919061230d565b9050828110156107af576040517f08c379a000000000000000000000000000000000000000000000000000000000815260206004820152603a60248201527f596f7520646964206e6f7420616c6c6f772074686520636f6e7472616374207460448201527f6f2073656e642074686520707572636861736520616d6f756e74000000000000606482015260840161067b565b6005546107d49073ffffffffffffffffffffffffffffffffffffffff1633308661127e565b33600090815260046020526040812080548692906107f39084906122e3565b909155505050505050565b6060600a805480602002602001604051908101604052809291908181526020016000905b82821015610873576000848152602090206040805160a08101918290529160058581029091019182845b81548152602001906001019080831161084c57505050505081526020019060010190610822565b50505050905090565b6108846111fd565b60068590556008849055600983815560078390556108a690600b908390611d2e565b505050505050565b6108b66111fd565b600955565b6108c36111fd565b600655565b6108d06111fd565b80516108e390600a906020840190611d79565b5050565b6108ef6111fd565b6108f96000611319565b565b6109036111fd565b6108e3600b826009611d2e565b6109186111fd565b600855565b33600090815260046020526040902054610993576040517f08c379a000000000000000000000000000000000000000000000000000000000815260206004820152601e60248201527f4e6f7420656e6f75746820746f6b656e7320666f722077697468647261770000604482015260640161067b565b6006543360009081526004602052604081205490916109b1916122f6565b6005546040517f70a0823100000000000000000000000000000000000000000000000000000000815230600482015291925060009173ffffffffffffffffffffffffffffffffffffffff909116906370a0823190602401602060405180830381865afa158015610a25573d6000803e3d6000fd5b505050506040513d601f19601f82011682018060405250810190610a49919061230d565b9050818111610ab4576040517f08c379a000000000000000000000000000000000000000000000000000000000815260206004820152601960248201527f4e6f7420656e6f75746820746f6b656e7320696e2062616e6b00000000000000604482015260640161067b565b6005546040517fa9059cbb0000000000000000000000000000000000000000000000000000000081523360048201526024810184905273ffffffffffffffffffffffffffffffffffffffff9091169063a9059cbb906044016020604051808303816000875af1158015610b2b573d6000803e3d6000fd5b505050506040513d601f19601f82011682018060405250810190610b4f9190612326565b50503360009081526004602052604081205550565b600854831115610bd0576040517f08c379a000000000000000000000000000000000000000000000000000000000815260206004820152600b60248201527f42657420746f6f20626967000000000000000000000000000000000000000000604482015260640161067b565b6000610bdd8360016122e3565b610be790856122f6565b33600090815260046020526040902054909150811115610c63576040517f08c379a000000000000000000000000000000000000000000000000000000000815260206004820152601360248201527f42616c616e6365206e6f7420656e6f7567687400000000000000000000000000604482015260640161067b565b600954831115610ccf576040517f08c379a000000000000000000000000000000000000000000000000000000000815260206004820152600e60248201527f546f6f206d616e79206c696e6573000000000000000000000000000000000000604482015260640161067b565b600a54831115610d3b576040517f08c379a000000000000000000000000000000000000000000000000000000000815260206004820152600e60248201527f546f6f206d616e79206c696e6573000000000000000000000000000000000000604482015260640161067b565b610d49600280546001019055565b6000610d5460025490565b90506000610d618461138e565b90506000806000610d70611dc3565b610d78611dc3565b6000805b8b811015610e0557600080610d91838b6115f8565b9092509050610da08f836122f6565b9150610dac82856122e3565b935081868460148110610dc157610dc1612348565b602002015280858460148110610dd957610dd9612348565b602002015287821115610df0578298508197508096505b50508080610dfd90612377565b915050610d7c565b50336000908152600460205260409020548190610e23908b906123af565b610e2d91906122e3565b33600081815260046020908152604080832094909455600180825291849020845160e0810186528d8152918201939093529283018f9052426060840152608083018e905290919060a08201908a906020908102919091015182529081018490528254600180820185556000948552938290208351600b909202019081559082015192810180547fffffffffffffffffffffffff00000000000000000000000000000000000000001673ffffffffffffffffffffffffffffffffffffffff9094169390931790925560408101516002830155606081015160038301556080810151600483015560a0810151909190610f2a9060058084019190611de2565b5060c09190910151600a909101557f6c98c6ad5e22111183c867670bead07208dbd3aba882d6bd87adbbbdb645d59a338d610f668e60016122e3565b60208b0151604051610f869493929187918a908a908f908f908f906123e5565b60405180910390a1505050505050505050505050565b610fa4611e1c565b604080516101208101909152600b60096000835b82821015610873576040805160a081019182905290600584810287019182845b815481526020019060010190808311610fd857505050505081526020019060010190610fb8565b6110076111fd565b600755565b6005546040517f70a08231000000000000000000000000000000000000000000000000000000008152306004820152600091829173ffffffffffffffffffffffffffffffffffffffff909116906370a0823190602401602060405180830381865afa15801561107f573d6000803e3d6000fd5b505050506040513d601f19601f820116820180604052508101906110a3919061230d565b905060006110b38260065461190d565b9392505050565b6110c26111fd565b73ffffffffffffffffffffffffffffffffffffffff8116611165576040517f08c379a000000000000000000000000000000000000000000000000000000000815260206004820152602660248201527f4f776e61626c653a206e6577206f776e657220697320746865207a65726f206160448201527f6464726573730000000000000000000000000000000000000000000000000000606482015260840161067b565b61116e81611319565b50565b6111796111fd565b6000426042546044546043548561118f60025490565b6040805160208101979097528601949094526060850192909252608084015260a083015260c082015260e001604080517fffffffffffffffffffffffffffffffffffffffffffffffffffffffffffffffe0818403018152919052805160209091012060438054604455555050565b60005473ffffffffffffffffffffffffffffffffffffffff1633146108f9576040517f08c379a000000000000000000000000000000000000000000000000000000000815260206004820181905260248201527f4f776e61626c653a2063616c6c6572206973206e6f7420746865206f776e6572604482015260640161067b565b6040805173ffffffffffffffffffffffffffffffffffffffff85811660248301528416604482015260648082018490528251808303909101815260849091019091526020810180517bffffffffffffffffffffffffffffffffffffffffffffffffffffffff167f23b872dd00000000000000000000000000000000000000000000000000000000179052611313908590611922565b50505050565b6000805473ffffffffffffffffffffffffffffffffffffffff8381167fffffffffffffffffffffffff0000000000000000000000000000000000000000831681178455604051919092169283917f8be0079c531659141344cd1fd0a4f28419497f9722a3daafe3b4186f6b6457e09190a35050565b611396611e4a565b60006113a183611a33565b905060006113b2620186a0836124b2565b6113bf90620186a06122e3565b9050600080600060405180606001604052806040518060a0016040528060008152602001600081526020016000815260200160008152602001600081525081526020016040518060a00160405280603d60006005811061142157611421612348565b01546038546114369063ffffffff8b166124b2565b61144091906124c6565b8152603e5460395460209092019161145e9063ffffffff8b166124b2565b61146891906124c6565b8152603f54603a546020909201916114869063ffffffff8b166124b2565b61149091906124c6565b8152604054603b546020909201916114ae9063ffffffff8b166124b2565b6114b891906124c6565b8152604154603c546020909201916114d69063ffffffff8b166124b2565b6114e091906124c6565b81525081526020016040518060a001604052806000815260200160008152602001600081526020016000815260200160008152508152509050600092505b60035463ffffffff168310156115ee576020810151836005811061154457611544612348565b602002015191508160090361155857600091505b60208101518290846005811061157057611570612348565b6020020152811561158b576115866001836123af565b61158e565b60085b815184600581106115a1576115a1612348565b6020020152600882146115be576115b98260016122e3565b6115c1565b60005b604082015184600581106115d7576115d7612348565b6020020152826115e681612377565b93505061151e565b9695505050505050565b600080808080805b60058110156116985760075487600a8a8154811061162057611620612348565b9060005260206000209060050201836005811061163f5761163f612348565b01546003811061165157611651612348565b6020020151826005811061166757611667612348565b60200201511461167957809250611698565b8361168381612377565b9450508061169081612377565b915050611600565b506000831180156116de57506000600b600754600981106116bb576116bb612348565b600502016116ca6001866123af565b600581106116da576116da612348565b0154115b1561172d576000600b600754600981106116fa576116fa612348565b600502016117096001866123af565b6005811061171957611719612348565b015460075490965094506119069350505050565b8261173781612377565b93505085600a888154811061174e5761174e612348565b9060005260206000209060050201836005811061176d5761176d612348565b01546003811061177f5761177f612348565b6020020151826005811061179557611795612348565b6020020151905060006117a98360016122e3565b90505b60058110156118b0578187600a8a815481106117ca576117ca612348565b906000526020600020906005020183600581106117e9576117e9612348565b0154600381106117fb576117fb612348565b6020020151826005811061181157611811612348565b60200201511480611882575060075487600a8a8154811061183457611834612348565b9060005260206000209060050201836005811061185357611853612348565b01546003811061186557611865612348565b6020020151826005811061187b5761187b612348565b6020020151145b15611899578361189181612377565b94505061189e565b6118b0565b806118a881612377565b9150506117ac565b5082156118fb576000600b82600981106118cc576118cc612348565b600502016118db6001866123af565b600581106118eb576118eb612348565b0154955090935061190692505050565b600080945094505050505b9250929050565b600061191982846124c6565b90505b92915050565b6000611984826040518060400160405280602081526020017f5361666545524332303a206c6f772d6c6576656c2063616c6c206661696c65648152508573ffffffffffffffffffffffffffffffffffffffff16611b1f9092919063ffffffff16565b805190915015611a2e57808060200190518101906119a29190612326565b611a2e576040517f08c379a000000000000000000000000000000000000000000000000000000000815260206004820152602a60248201527f5361666545524332303a204552433230206f7065726174696f6e20646964206e60448201527f6f74207375636365656400000000000000000000000000000000000000000000606482015260840161067b565b505050565b600080428360425460435460445443404144453a335a60025460408051602081019e909e528d019b909b526060808d019a909a5260808c019890985260a08b019690965260c08a01949094527fffffffffffffffffffffffffffffffffffffffff00000000000000000000000092871b831660e08a015260f4890191909152610114880152610134870191909152921b9091166101548401526101688301526101888201526101a801604080517fffffffffffffffffffffffffffffffffffffffffffffffffffffffffffffffe081840301815291905280516020909101206042939093555090919050565b6060611b2e8484600085611b36565b949350505050565b606082471015611bc8576040517f08c379a000000000000000000000000000000000000000000000000000000000815260206004820152602660248201527f416464726573733a20696e73756666696369656e742062616c616e636520666f60448201527f722063616c6c0000000000000000000000000000000000000000000000000000606482015260840161067b565b6000808673ffffffffffffffffffffffffffffffffffffffff168587604051611bf191906124fe565b60006040518083038185875af1925050503d8060008114611c2e576040519150601f19603f3d011682016040523d82523d6000602084013e611c33565b606091505b5091509150611c4487838387611c4f565b979650505050505050565b60608315611ce5578251600003611cde5773ffffffffffffffffffffffffffffffffffffffff85163b611cde576040517f08c379a000000000000000000000000000000000000000000000000000000000815260206004820152601d60248201527f416464726573733a2063616c6c20746f206e6f6e2d636f6e7472616374000000604482015260640161067b565b5081611b2e565b611b2e8383815115611cfa5781518083602001fd5b806040517f08c379a000000000000000000000000000000000000000000000000000000000815260040161067b919061251a565b602d83019183908215611d69579160200282015b82811115611d69578251611d599083906005611de2565b5091602001919060050190611d42565b50611d75929150611e77565b5090565b828054828255906000526020600020906005028101928215611d69579160200282015b82811115611d69578251611db39083906005611de2565b5091602001919060050190611d9c565b6040518061028001604052806014906020820280368337509192915050565b8260058101928215611e10579160200282015b82811115611e10578251825591602001919060010190611df5565b50611d75929150611ea6565b6040518061012001604052806009905b611e34611ebb565b815260200190600190039081611e2c5790505090565b60405180606001604052806003905b611e61611ebb565b815260200190600190039081611e595790505090565b80821115611d755760008082556001820181905560028201819055600382018190556004820155600501611e77565b5b80821115611d755760008155600101611ea7565b6040518060a001604052806005906020820280368337509192915050565b803573ffffffffffffffffffffffffffffffffffffffff81168114611efd57600080fd5b919050565b60008060408385031215611f1557600080fd5b611f1e83611ed9565b946020939093013593505050565b600060208284031215611f3e57600080fd5b5035919050565b600060208284031215611f5757600080fd5b61191982611ed9565b60008282825b6005811015611f85578151835260209283019290910190600101611f66565b50505060a08301905092915050565b6020808252825182820181905260009190848201906040850190845b81811015611fd157611fc3838551611f60565b938501939250600101611fb0565b50909695505050505050565b7f4e487b7100000000000000000000000000000000000000000000000000000000600052604160045260246000fd5b604051601f82017fffffffffffffffffffffffffffffffffffffffffffffffffffffffffffffffe016810167ffffffffffffffff8111828210171561205357612053611fdd565b604052919050565b600082601f83011261206c57600080fd5b60405160a0810181811067ffffffffffffffff8211171561208f5761208f611fdd565b6040528060a08401858111156120a457600080fd5b845b818110156120be5780358352602092830192016120a6565b509195945050505050565b600082601f8301126120da57600080fd5b604051610120810181811067ffffffffffffffff821117156120fe576120fe611fdd565b604052806105a084018581111561211457600080fd5b845b818110156120be57612128878261205b565b835260209092019160a001612116565b6000806000806000610620868803121561215157600080fd5b8535945060208601359350604086013592506060860135915061217787608088016120c9565b90509295509295909350565b6000602080838503121561219657600080fd5b823567ffffffffffffffff808211156121ae57600080fd5b818501915085601f8301126121c257600080fd5b8135818111156121d4576121d4611fdd565b6121e2848260051b0161200c565b818152848101925060a091820284018501918883111561220157600080fd5b938501935b8285101561222757612218898661205b565b84529384019392850192612206565b50979650505050505050565b60006105a0828403121561224657600080fd5b61191983836120c9565b60008060006060848603121561226557600080fd5b505081359360208301359350604090920135919050565b6105a08101818360005b60098110156122ab5761229a838351611f60565b925060209190910190600101612286565b50505092915050565b7f4e487b7100000000000000000000000000000000000000000000000000000000600052601160045260246000fd5b8082018082111561191c5761191c6122b4565b808202811582820484141761191c5761191c6122b4565b60006020828403121561231f57600080fd5b5051919050565b60006020828403121561233857600080fd5b815180151581146110b357600080fd5b7f4e487b7100000000000000000000000000000000000000000000000000000000600052603260045260246000fd5b60007fffffffffffffffffffffffffffffffffffffffffffffffffffffffffffffffff82036123a8576123a86122b4565b5060010190565b8181038181111561191c5761191c6122b4565b8060005b60148110156113135781518452602093840193909101906001016123c6565b60006106808201905073ffffffffffffffffffffffffffffffffffffffff8c16825260208b818401528a6040840152896060840152608083018960005b600581101561243f57815183529183019190830190600101612422565b505050506124516101208301886123c2565b61245f6103a08301876123c2565b8461062083015283610640830152826106608301529b9a5050505050505050505050565b7f4e487b7100000000000000000000000000000000000000000000000000000000600052601260045260246000fd5b6000826124c1576124c1612483565b500690565b6000826124d5576124d5612483565b500490565b60005b838110156124f55781810151838201526020016124dd565b50506000910152565b600082516125108184602087016124da565b9190910192915050565b60208152600082518060208401526125398160408501602087016124da565b601f017fffffffffffffffffffffffffffffffffffffffffffffffffffffffffffffffe016919091016040019291505056fea26469706673582212204511c06016673dc9df2b295efc6d07e25bd635b32e359245cbfe24af2056aa2364736f6c63430008120033",
			"opcodes": "PUSH1 0x3 DUP1 SLOAD PUSH4 0xFFFFFFFF NOT AND PUSH1 0x5 OR SWAP1 SSTORE PUSH1 0x1 PUSH1 0x6 DUP2 SWAP1 SSTORE PUSH1 0x7 DUP2 SWAP1 SSTORE PUSH1 0x64 PUSH1 0x8 SSTORE PUSH1 0x13 PUSH1 0x9 SSTORE PUSH2 0x300 DUP2 DUP2 MSTORE PUSH2 0x320 DUP3 SWAP1 MSTORE PUSH2 0x340 DUP3 SWAP1 MSTORE PUSH2 0x360 DUP3 SWAP1 MSTORE PUSH2 0x380 DUP3 SWAP1 MSTORE PUSH1 0x80 SWAP1 DUP2 MSTORE PUSH1 0x0 PUSH2 0x3A0 DUP2 DUP2 MSTORE PUSH2 0x3C0 DUP3 SWAP1 MSTORE PUSH2 0x3E0 DUP3 SWAP1 MSTORE PUSH2 0x400 DUP3 SWAP1 MSTORE PUSH2 0x420 DUP3 SWAP1 MSTORE PUSH1 0xA0 MSTORE PUSH1 0x2 PUSH2 0x440 DUP2 DUP2 MSTORE PUSH2 0x460 DUP3 SWAP1 MSTORE PUSH2 0x480 DUP3 SWAP1 MSTORE PUSH2 0x4A0 DUP3 SWAP1 MSTORE PUSH2 0x4C0 DUP3 SWAP1 MSTORE PUSH1 0xC0 MSTORE PUSH2 0x4E0 DUP5 DUP2 MSTORE PUSH2 0x500 DUP6 SWAP1 MSTORE PUSH2 0x520 DUP4 SWAP1 MSTORE PUSH2 0x540 DUP6 SWAP1 MSTORE PUSH2 0x560 DUP3 SWAP1 MSTORE PUSH1 0xE0 MSTORE PUSH2 0x580 DUP5 DUP2 MSTORE PUSH2 0x5A0 DUP6 SWAP1 MSTORE PUSH2 0x5C0 DUP3 SWAP1 MSTORE PUSH2 0x5E0 DUP6 SWAP1 MSTORE PUSH2 0x600 DUP4 SWAP1 MSTORE PUSH2 0x100 MSTORE PUSH2 0x620 DUP5 DUP2 MSTORE PUSH2 0x640 DUP4 SWAP1 MSTORE PUSH2 0x660 DUP6 SWAP1 MSTORE PUSH2 0x680 DUP3 SWAP1 MSTORE PUSH2 0x6A0 DUP6 SWAP1 MSTORE PUSH2 0x120 MSTORE PUSH2 0x6C0 DUP5 DUP2 MSTORE PUSH2 0x6E0 DUP4 SWAP1 MSTORE PUSH2 0x700 DUP6 SWAP1 MSTORE PUSH2 0x720 DUP3 SWAP1 MSTORE PUSH2 0x740 DUP3 SWAP1 MSTORE PUSH2 0x140 MSTORE PUSH2 0x760 DUP5 DUP2 MSTORE PUSH2 0x780 DUP4 SWAP1 MSTORE PUSH2 0x7A0 DUP4 SWAP1 MSTORE PUSH2 0x7C0 DUP6 SWAP1 MSTORE PUSH2 0x7E0 DUP3 SWAP1 MSTORE PUSH2 0x160 MSTORE PUSH2 0x800 DUP5 DUP2 MSTORE PUSH2 0x820 DUP3 SWAP1 MSTORE PUSH2 0x840 DUP6 SWAP1 MSTORE PUSH2 0x860 DUP4 SWAP1 MSTORE PUSH2 0x880 DUP6 SWAP1 MSTORE PUSH2 0x180 MSTORE PUSH2 0x8A0 DUP5 DUP2 MSTORE PUSH2 0x8C0 DUP3 SWAP1 MSTORE PUSH2 0x8E0 DUP3 SWAP1 MSTORE PUSH2 0x900 DUP6 SWAP1 MSTORE PUSH2 0x920 DUP4 SWAP1 MSTORE PUSH2 0x1A0 MSTORE PUSH2 0x940 DUP5 DUP2 MSTORE PUSH2 0x960 DUP3 SWAP1 MSTORE PUSH2 0x980 DUP6 SWAP1 MSTORE PUSH2 0x9A0 DUP4 SWAP1 MSTORE PUSH2 0x9C0 DUP4 SWAP1 MSTORE PUSH2 0x1C0 MSTORE PUSH2 0x9E0 DUP3 DUP2 MSTORE PUSH2 0xA00 DUP6 SWAP1 MSTORE PUSH2 0xA20 DUP3 SWAP1 MSTORE PUSH2 0xA40 DUP6 SWAP1 MSTORE PUSH2 0xA60 DUP4 SWAP1 MSTORE PUSH2 0x1E0 MSTORE PUSH2 0xA80 DUP3 DUP2 MSTORE PUSH2 0xAA0 DUP6 SWAP1 MSTORE PUSH2 0xAC0 DUP6 SWAP1 MSTORE PUSH2 0xAE0 DUP6 SWAP1 MSTORE PUSH2 0xB00 DUP3 SWAP1 MSTORE PUSH2 0x200 MSTORE PUSH2 0xB20 DUP3 DUP2 MSTORE PUSH2 0xB40 DUP4 SWAP1 MSTORE PUSH2 0xB60 DUP6 SWAP1 MSTORE PUSH2 0xB80 DUP3 SWAP1 MSTORE PUSH2 0xBA0 DUP3 SWAP1 MSTORE PUSH2 0x220 MSTORE PUSH2 0xBC0 DUP3 DUP2 MSTORE PUSH2 0xBE0 DUP4 SWAP1 MSTORE PUSH2 0xC00 DUP6 SWAP1 MSTORE PUSH2 0xC20 DUP3 SWAP1 MSTORE PUSH2 0xC40 DUP6 SWAP1 MSTORE PUSH2 0x240 MSTORE PUSH2 0xC60 DUP3 DUP2 MSTORE PUSH2 0xC80 DUP4 SWAP1 MSTORE PUSH2 0xCA0 DUP4 SWAP1 MSTORE PUSH2 0xCC0 DUP6 SWAP1 MSTORE PUSH2 0xCE0 DUP3 SWAP1 MSTORE PUSH2 0x260 MSTORE PUSH2 0xD00 DUP2 DUP2 MSTORE PUSH2 0xD20 DUP6 SWAP1 MSTORE PUSH2 0xD40 DUP4 SWAP1 MSTORE PUSH2 0xD60 DUP6 SWAP1 MSTORE PUSH2 0xD80 DUP3 SWAP1 MSTORE PUSH2 0x280 MSTORE PUSH2 0xDA0 DUP2 DUP2 MSTORE PUSH2 0xDC0 DUP6 SWAP1 MSTORE PUSH2 0xDE0 DUP6 SWAP1 MSTORE PUSH2 0xE00 DUP6 SWAP1 MSTORE PUSH2 0xE20 DUP4 SWAP1 MSTORE PUSH2 0x2A0 MSTORE PUSH2 0xE40 DUP2 DUP2 MSTORE PUSH2 0xE60 DUP3 SWAP1 MSTORE PUSH2 0xE80 DUP6 SWAP1 MSTORE PUSH2 0xEA0 DUP4 SWAP1 MSTORE PUSH2 0xEC0 DUP4 SWAP1 MSTORE PUSH2 0x2C0 MSTORE PUSH2 0xF80 PUSH1 0x40 MSTORE PUSH2 0xEE0 DUP2 DUP2 MSTORE PUSH2 0xF00 SWAP2 SWAP1 SWAP2 MSTORE PUSH2 0xF20 DUP5 SWAP1 MSTORE PUSH2 0xF40 SWAP2 SWAP1 SWAP2 MSTORE PUSH2 0xF60 SWAP3 SWAP1 SWAP3 MSTORE PUSH2 0x2E0 SWAP2 SWAP1 SWAP2 MSTORE PUSH3 0x2EB SWAP1 PUSH1 0xA SWAP1 PUSH1 0x14 PUSH3 0x60A JUMP JUMPDEST POP PUSH1 0x40 MLOAD DUP1 PUSH2 0x120 ADD PUSH1 0x40 MSTORE DUP1 PUSH1 0x40 MLOAD DUP1 PUSH1 0xA0 ADD PUSH1 0x40 MSTORE DUP1 PUSH1 0x0 DUP2 MSTORE PUSH1 0x20 ADD PUSH1 0x0 DUP2 MSTORE PUSH1 0x20 ADD PUSH1 0x14 DUP2 MSTORE PUSH1 0x20 ADD PUSH1 0x50 DUP2 MSTORE PUSH1 0x20 ADD PUSH1 0xC8 DUP2 MSTORE POP DUP2 MSTORE PUSH1 0x20 ADD PUSH1 0x40 MLOAD DUP1 PUSH1 0xA0 ADD PUSH1 0x40 MSTORE DUP1 PUSH1 0x0 DUP2 MSTORE PUSH1 0x20 ADD PUSH1 0x0 DUP2 MSTORE PUSH1 0x20 ADD PUSH1 0x28 DUP2 MSTORE PUSH1 0x20 ADD PUSH2 0x190 DUP2 MSTORE PUSH1 0x20 ADD PUSH2 0x7D0 DUP2 MSTORE POP DUP2 MSTORE PUSH1 0x20 ADD PUSH1 0x40 MLOAD DUP1 PUSH1 0xA0 ADD PUSH1 0x40 MSTORE DUP1 PUSH1 0x0 DUP2 MSTORE PUSH1 0x20 ADD PUSH1 0x8 DUP2 MSTORE PUSH1 0x20 ADD PUSH1 0xF DUP2 MSTORE PUSH1 0x20 ADD PUSH1 0x78 DUP2 MSTORE PUSH1 0x20 ADD PUSH2 0x1F4 DUP2 MSTORE POP DUP2 MSTORE PUSH1 0x20 ADD PUSH1 0x40 MLOAD DUP1 PUSH1 0xA0 ADD PUSH1 0x40 MSTORE DUP1 PUSH1 0x0 DUP2 MSTORE PUSH1 0x20 ADD PUSH1 0x2 DUP2 MSTORE PUSH1 0x20 ADD PUSH1 0x8 DUP2 MSTORE PUSH1 0x20 ADD PUSH1 0x14 DUP2 MSTORE PUSH1 0x20 ADD PUSH1 0x50 DUP2 MSTORE POP DUP2 MSTORE PUSH1 0x20 ADD PUSH1 0x40 MLOAD DUP1 PUSH1 0xA0 ADD PUSH1 0x40 MSTORE DUP1 PUSH1 0x0 DUP2 MSTORE PUSH1 0x20 ADD PUSH1 0x0 DUP2 MSTORE PUSH1 0x20 ADD PUSH1 0x8 DUP2 MSTORE PUSH1 0x20 ADD PUSH1 0x14 DUP2 MSTORE PUSH1 0x20 ADD PUSH1 0x50 DUP2 MSTORE POP DUP2 MSTORE PUSH1 0x20 ADD PUSH1 0x40 MLOAD DUP1 PUSH1 0xA0 ADD PUSH1 0x40 MSTORE DUP1 PUSH1 0x0 DUP2 MSTORE PUSH1 0x20 ADD PUSH1 0x0 DUP2 MSTORE PUSH1 0x20 ADD PUSH1 0x14 DUP2 MSTORE PUSH1 0x20 ADD PUSH1 0x50 DUP2 MSTORE PUSH1 0x20 ADD PUSH1 0xC8 DUP2 MSTORE POP DUP2 MSTORE PUSH1 0x20 ADD PUSH1 0x40 MLOAD DUP1 PUSH1 0xA0 ADD PUSH1 0x40 MSTORE DUP1 PUSH1 0x0 DUP2 MSTORE PUSH1 0x20 ADD PUSH1 0x0 DUP2 MSTORE PUSH1 0x20 ADD PUSH1 0x8 DUP2 MSTORE PUSH1 0x20 ADD PUSH1 0x14 DUP2 MSTORE PUSH1 0x20 ADD PUSH1 0x50 DUP2 MSTORE POP DUP2 MSTORE PUSH1 0x20 ADD PUSH1 0x40 MLOAD DUP1 PUSH1 0xA0 ADD PUSH1 0x40 MSTORE DUP1 PUSH1 0x0 DUP2 MSTORE PUSH1 0x20 ADD PUSH1 0x0 DUP2 MSTORE PUSH1 0x20 ADD PUSH1 0x14 DUP2 MSTORE PUSH1 0x20 ADD PUSH1 0xC8 DUP2 MSTORE PUSH1 0x20 ADD PUSH2 0x3E8 DUP2 MSTORE POP DUP2 MSTORE PUSH1 0x20 ADD PUSH1 0x40 MLOAD DUP1 PUSH1 0xA0 ADD PUSH1 0x40 MSTORE DUP1 PUSH1 0x0 DUP2 MSTORE PUSH1 0x20 ADD PUSH1 0x0 DUP2 MSTORE PUSH1 0x20 ADD PUSH1 0x2 DUP2 MSTORE PUSH1 0x20 ADD PUSH1 0x5 DUP2 MSTORE PUSH1 0x20 ADD PUSH1 0xF DUP2 MSTORE POP DUP2 MSTORE POP PUSH1 0xB SWAP1 PUSH1 0x9 PUSH3 0x4C5 SWAP3 SWAP2 SWAP1 PUSH3 0x66B JUMP JUMPDEST POP PUSH1 0x40 DUP1 MLOAD PUSH1 0xA0 DUP2 ADD DUP3 MSTORE PUSH3 0x186A0 DUP2 MSTORE PUSH2 0x2710 PUSH1 0x20 DUP3 ADD MSTORE PUSH2 0x3E8 SWAP2 DUP2 ADD SWAP2 SWAP1 SWAP2 MSTORE PUSH1 0x64 PUSH1 0x60 DUP3 ADD MSTORE PUSH1 0xA PUSH1 0x80 DUP3 ADD MSTORE PUSH3 0x506 SWAP1 PUSH1 0x38 SWAP1 PUSH1 0x5 PUSH3 0x6AB JUMP JUMPDEST POP PUSH1 0x40 DUP1 MLOAD PUSH1 0xA0 DUP2 ADD DUP3 MSTORE PUSH2 0x2710 DUP2 MSTORE PUSH2 0x3E8 PUSH1 0x20 DUP3 ADD MSTORE PUSH1 0x64 SWAP2 DUP2 ADD DUP3 SWAP1 MSTORE PUSH1 0x60 DUP2 ADD SWAP2 SWAP1 SWAP2 MSTORE PUSH1 0x1 PUSH1 0x80 DUP3 ADD MSTORE PUSH3 0x545 SWAP1 PUSH1 0x3D SWAP1 PUSH1 0x5 PUSH3 0x6F1 JUMP JUMPDEST POP PUSH1 0x0 PUSH1 0x42 DUP2 SWAP1 SSTORE PUSH1 0x43 DUP2 SWAP1 SSTORE PUSH1 0x44 SSTORE CALLVALUE DUP1 ISZERO PUSH3 0x562 JUMPI PUSH1 0x0 DUP1 REVERT JUMPDEST POP PUSH1 0x40 MLOAD PUSH3 0x2DC4 CODESIZE SUB DUP1 PUSH3 0x2DC4 DUP4 CODECOPY DUP2 ADD PUSH1 0x40 DUP2 SWAP1 MSTORE PUSH3 0x585 SWAP2 PUSH3 0x7D7 JUMP JUMPDEST PUSH3 0x590 CALLER PUSH3 0x5BA JUMP JUMPDEST PUSH1 0x5 DUP1 SLOAD PUSH1 0x1 PUSH1 0x1 PUSH1 0xA0 SHL SUB NOT AND PUSH1 0x1 PUSH1 0x1 PUSH1 0xA0 SHL SUB SWAP4 SWAP1 SWAP4 AND SWAP3 SWAP1 SWAP3 OR SWAP1 SWAP2 SSTORE PUSH1 0x6 SSTORE PUSH3 0x813 JUMP JUMPDEST PUSH1 0x0 DUP1 SLOAD PUSH1 0x1 PUSH1 0x1 PUSH1 0xA0 SHL SUB DUP4 DUP2 AND PUSH1 0x1 PUSH1 0x1 PUSH1 0xA0 SHL SUB NOT DUP4 AND DUP2 OR DUP5 SSTORE PUSH1 0x40 MLOAD SWAP2 SWAP1 SWAP3 AND SWAP3 DUP4 SWAP2 PUSH32 0x8BE0079C531659141344CD1FD0A4F28419497F9722A3DAAFE3B4186F6B6457E0 SWAP2 SWAP1 LOG3 POP POP JUMP JUMPDEST DUP3 DUP1 SLOAD DUP3 DUP3 SSTORE SWAP1 PUSH1 0x0 MSTORE PUSH1 0x20 PUSH1 0x0 KECCAK256 SWAP1 PUSH1 0x5 MUL DUP2 ADD SWAP3 DUP3 ISZERO PUSH3 0x659 JUMPI SWAP2 PUSH1 0x20 MUL DUP3 ADD JUMPDEST DUP3 DUP2 GT ISZERO PUSH3 0x659 JUMPI DUP3 MLOAD PUSH3 0x648 SWAP1 DUP4 SWAP1 PUSH1 0x5 PUSH3 0x728 JUMP JUMPDEST POP SWAP2 PUSH1 0x20 ADD SWAP2 SWAP1 PUSH1 0x5 ADD SWAP1 PUSH3 0x62E JUMP JUMPDEST POP PUSH3 0x667 SWAP3 SWAP2 POP PUSH3 0x75E JUMP JUMPDEST POP SWAP1 JUMP JUMPDEST PUSH1 0x2D DUP4 ADD SWAP2 DUP4 SWAP1 DUP3 ISZERO PUSH3 0x659 JUMPI SWAP2 PUSH1 0x20 MUL DUP3 ADD JUMPDEST DUP3 DUP2 GT ISZERO PUSH3 0x659 JUMPI DUP3 MLOAD PUSH3 0x69A SWAP1 DUP4 SWAP1 PUSH1 0x5 PUSH3 0x78F JUMP JUMPDEST POP SWAP2 PUSH1 0x20 ADD SWAP2 SWAP1 PUSH1 0x5 ADD SWAP1 PUSH3 0x680 JUMP JUMPDEST DUP3 PUSH1 0x5 DUP2 ADD SWAP3 DUP3 ISZERO PUSH3 0x6E3 JUMPI SWAP2 PUSH1 0x20 MUL DUP3 ADD JUMPDEST DUP3 DUP2 GT ISZERO PUSH3 0x6E3 JUMPI DUP3 MLOAD DUP3 SWAP1 PUSH3 0xFFFFFF AND SWAP1 SSTORE SWAP2 PUSH1 0x20 ADD SWAP2 SWAP1 PUSH1 0x1 ADD SWAP1 PUSH3 0x6BF JUMP JUMPDEST POP PUSH3 0x667 SWAP3 SWAP2 POP PUSH3 0x7C0 JUMP JUMPDEST DUP3 PUSH1 0x5 DUP2 ADD SWAP3 DUP3 ISZERO PUSH3 0x6E3 JUMPI SWAP2 PUSH1 0x20 MUL DUP3 ADD JUMPDEST DUP3 DUP2 GT ISZERO PUSH3 0x6E3 JUMPI DUP3 MLOAD DUP3 SWAP1 PUSH2 0xFFFF AND SWAP1 SSTORE SWAP2 PUSH1 0x20 ADD SWAP2 SWAP1 PUSH1 0x1 ADD SWAP1 PUSH3 0x705 JUMP JUMPDEST DUP3 PUSH1 0x5 DUP2 ADD SWAP3 DUP3 ISZERO PUSH3 0x6E3 JUMPI SWAP2 PUSH1 0x20 MUL DUP3 ADD JUMPDEST DUP3 DUP2 GT ISZERO PUSH3 0x6E3 JUMPI DUP3 MLOAD DUP3 SWAP1 PUSH1 0xFF AND SWAP1 SSTORE SWAP2 PUSH1 0x20 ADD SWAP2 SWAP1 PUSH1 0x1 ADD SWAP1 PUSH3 0x73C JUMP JUMPDEST DUP1 DUP3 GT ISZERO PUSH3 0x667 JUMPI PUSH1 0x0 DUP1 DUP3 SSTORE PUSH1 0x1 DUP3 ADD DUP2 SWAP1 SSTORE PUSH1 0x2 DUP3 ADD DUP2 SWAP1 SSTORE PUSH1 0x3 DUP3 ADD DUP2 SWAP1 SSTORE PUSH1 0x4 DUP3 ADD SSTORE PUSH1 0x5 ADD PUSH3 0x75E JUMP JUMPDEST DUP3 PUSH1 0x5 DUP2 ADD SWAP3 DUP3 ISZERO PUSH3 0x6E3 JUMPI SWAP2 PUSH1 0x20 MUL DUP3 ADD JUMPDEST DUP3 DUP2 GT ISZERO PUSH3 0x6E3 JUMPI DUP3 MLOAD DUP3 SSTORE SWAP2 PUSH1 0x20 ADD SWAP2 SWAP1 PUSH1 0x1 ADD SWAP1 PUSH3 0x7A3 JUMP JUMPDEST JUMPDEST DUP1 DUP3 GT ISZERO PUSH3 0x667 JUMPI PUSH1 0x0 DUP2 SSTORE PUSH1 0x1 ADD PUSH3 0x7C1 JUMP JUMPDEST PUSH1 0x0 DUP1 PUSH1 0x40 DUP4 DUP6 SUB SLT ISZERO PUSH3 0x7EB JUMPI PUSH1 0x0 DUP1 REVERT JUMPDEST DUP3 MLOAD PUSH1 0x1 PUSH1 0x1 PUSH1 0xA0 SHL SUB DUP2 AND DUP2 EQ PUSH3 0x803 JUMPI PUSH1 0x0 DUP1 REVERT JUMPDEST PUSH1 0x20 SWAP4 SWAP1 SWAP4 ADD MLOAD SWAP3 SWAP5 SWAP3 SWAP4 POP POP POP JUMP JUMPDEST PUSH2 0x25A1 DUP1 PUSH3 0x823 PUSH1 0x0 CODECOPY PUSH1 0x0 RETURN INVALID PUSH1 0x80 PUSH1 0x40 MSTORE CALLVALUE DUP1 ISZERO PUSH2 0x10 JUMPI PUSH1 0x0 DUP1 REVERT JUMPDEST POP PUSH1 0x4 CALLDATASIZE LT PUSH2 0x1CF JUMPI PUSH1 0x0 CALLDATALOAD PUSH1 0xE0 SHR DUP1 PUSH4 0x6F43022C GT PUSH2 0x104 JUMPI DUP1 PUSH4 0xA3E2E8CE GT PUSH2 0xA2 JUMPI DUP1 PUSH4 0xE9A4A03D GT PUSH2 0x71 JUMPI DUP1 PUSH4 0xE9A4A03D EQ PUSH2 0x42E JUMPI DUP1 PUSH4 0xF2FDE38B EQ PUSH2 0x436 JUMPI DUP1 PUSH4 0xF7E944EE EQ PUSH2 0x449 JUMPI DUP1 PUSH4 0xFDA0EF89 EQ PUSH2 0x45C JUMPI PUSH1 0x0 DUP1 REVERT JUMPDEST DUP1 PUSH4 0xA3E2E8CE EQ PUSH2 0x3D3 JUMPI DUP1 PUSH4 0xD3F0A7CE EQ PUSH2 0x3E6 JUMPI DUP1 PUSH4 0xE3C7B05E EQ PUSH2 0x3FB JUMPI DUP1 PUSH4 0xE5A6B10F EQ PUSH2 0x40E JUMPI PUSH1 0x0 DUP1 REVERT JUMPDEST DUP1 PUSH4 0x81B87E54 GT PUSH2 0xDE JUMPI DUP1 PUSH4 0x81B87E54 EQ PUSH2 0x387 JUMPI DUP1 PUSH4 0x881EFF1E EQ PUSH2 0x39A JUMPI DUP1 PUSH4 0x8D8F2ADB EQ PUSH2 0x3AD JUMPI DUP1 PUSH4 0x8DA5CB5B EQ PUSH2 0x3B5 JUMPI PUSH1 0x0 DUP1 REVERT JUMPDEST DUP1 PUSH4 0x6F43022C EQ PUSH2 0x363 JUMPI DUP1 PUSH4 0x715018A6 EQ PUSH2 0x376 JUMPI DUP1 PUSH4 0x7FF9B596 EQ PUSH2 0x37E JUMPI PUSH1 0x0 DUP1 REVERT JUMPDEST DUP1 PUSH4 0x4AFA1905 GT PUSH2 0x171 JUMPI DUP1 PUSH4 0x6012CB19 GT PUSH2 0x14B JUMPI DUP1 PUSH4 0x6012CB19 EQ PUSH2 0x2F6 JUMPI DUP1 PUSH4 0x646668B6 EQ PUSH2 0x309 JUMPI DUP1 PUSH4 0x6945C1FD EQ PUSH2 0x311 JUMPI DUP1 PUSH4 0x6A61E5FC EQ PUSH2 0x350 JUMPI PUSH1 0x0 DUP1 REVERT JUMPDEST DUP1 PUSH4 0x4AFA1905 EQ PUSH2 0x2C6 JUMPI DUP1 PUSH4 0x4B94F50E EQ PUSH2 0x2D9 JUMPI DUP1 PUSH4 0x4C738909 EQ PUSH2 0x2E1 JUMPI PUSH1 0x0 DUP1 REVERT JUMPDEST DUP1 PUSH4 0x2F84C391 GT PUSH2 0x1AD JUMPI DUP1 PUSH4 0x2F84C391 EQ PUSH2 0x255 JUMPI DUP1 PUSH4 0x3610724E EQ PUSH2 0x268 JUMPI DUP1 PUSH4 0x4282CF54 EQ PUSH2 0x27B JUMPI DUP1 PUSH4 0x47734892 EQ PUSH2 0x290 JUMPI PUSH1 0x0 DUP1 REVERT JUMPDEST DUP1 PUSH4 0x9B9DD89 EQ PUSH2 0x1D4 JUMPI DUP1 PUSH4 0x17ADAA03 EQ PUSH2 0x1EB JUMPI DUP1 PUSH4 0x22526328 EQ PUSH2 0x240 JUMPI JUMPDEST PUSH1 0x0 DUP1 REVERT JUMPDEST PUSH1 0x9 SLOAD JUMPDEST PUSH1 0x40 MLOAD SWAP1 DUP2 MSTORE PUSH1 0x20 ADD JUMPDEST PUSH1 0x40 MLOAD DUP1 SWAP2 SUB SWAP1 RETURN JUMPDEST PUSH2 0x1FE PUSH2 0x1F9 CALLDATASIZE PUSH1 0x4 PUSH2 0x1F02 JUMP JUMPDEST PUSH2 0x464 JUMP JUMPDEST PUSH1 0x40 DUP1 MLOAD SWAP7 DUP8 MSTORE PUSH20 0xFFFFFFFFFFFFFFFFFFFFFFFFFFFFFFFFFFFFFFFF SWAP1 SWAP6 AND PUSH1 0x20 DUP8 ADD MSTORE SWAP4 DUP6 ADD SWAP3 SWAP1 SWAP3 MSTORE PUSH1 0x60 DUP5 ADD MSTORE PUSH1 0x80 DUP4 ADD MSTORE PUSH1 0xA0 DUP3 ADD MSTORE PUSH1 0xC0 ADD PUSH2 0x1E2 JUMP JUMPDEST PUSH2 0x253 PUSH2 0x24E CALLDATASIZE PUSH1 0x4 PUSH2 0x1F2C JUMP JUMPDEST PUSH2 0x4CF JUMP JUMPDEST STOP JUMPDEST PUSH2 0x253 PUSH2 0x263 CALLDATASIZE PUSH1 0x4 PUSH2 0x1F45 JUMP JUMPDEST PUSH2 0x4F6 JUMP JUMPDEST PUSH2 0x253 PUSH2 0x276 CALLDATASIZE PUSH1 0x4 PUSH2 0x1F2C JUMP JUMPDEST PUSH2 0x545 JUMP JUMPDEST PUSH2 0x283 PUSH2 0x7FE JUMP JUMPDEST PUSH1 0x40 MLOAD PUSH2 0x1E2 SWAP2 SWAP1 PUSH2 0x1F94 JUMP JUMPDEST PUSH2 0x1D8 PUSH2 0x29E CALLDATASIZE PUSH1 0x4 PUSH2 0x1F45 JUMP JUMPDEST PUSH20 0xFFFFFFFFFFFFFFFFFFFFFFFFFFFFFFFFFFFFFFFF AND PUSH1 0x0 SWAP1 DUP2 MSTORE PUSH1 0x4 PUSH1 0x20 MSTORE PUSH1 0x40 SWAP1 KECCAK256 SLOAD SWAP1 JUMP JUMPDEST PUSH2 0x253 PUSH2 0x2D4 CALLDATASIZE PUSH1 0x4 PUSH2 0x2138 JUMP JUMPDEST PUSH2 0x87C JUMP JUMPDEST PUSH1 0x6 SLOAD PUSH2 0x1D8 JUMP JUMPDEST CALLER PUSH1 0x0 SWAP1 DUP2 MSTORE PUSH1 0x4 PUSH1 0x20 MSTORE PUSH1 0x40 SWAP1 KECCAK256 SLOAD PUSH2 0x1D8 JUMP JUMPDEST PUSH2 0x253 PUSH2 0x304 CALLDATASIZE PUSH1 0x4 PUSH2 0x1F2C JUMP JUMPDEST PUSH2 0x8AE JUMP JUMPDEST PUSH1 0x8 SLOAD PUSH2 0x1D8 JUMP JUMPDEST PUSH1 0x5 SLOAD PUSH20 0xFFFFFFFFFFFFFFFFFFFFFFFFFFFFFFFFFFFFFFFF AND JUMPDEST PUSH1 0x40 MLOAD PUSH20 0xFFFFFFFFFFFFFFFFFFFFFFFFFFFFFFFFFFFFFFFF SWAP1 SWAP2 AND DUP2 MSTORE PUSH1 0x20 ADD PUSH2 0x1E2 JUMP JUMPDEST PUSH2 0x253 PUSH2 0x35E CALLDATASIZE PUSH1 0x4 PUSH2 0x1F2C JUMP JUMPDEST PUSH2 0x8BB JUMP JUMPDEST PUSH2 0x253 PUSH2 0x371 CALLDATASIZE PUSH1 0x4 PUSH2 0x2183 JUMP JUMPDEST PUSH2 0x8C8 JUMP JUMPDEST PUSH2 0x253 PUSH2 0x8E7 JUMP JUMPDEST PUSH2 0x1D8 PUSH1 0x6 SLOAD DUP2 JUMP JUMPDEST PUSH2 0x253 PUSH2 0x395 CALLDATASIZE PUSH1 0x4 PUSH2 0x2233 JUMP JUMPDEST PUSH2 0x8FB JUMP JUMPDEST PUSH2 0x253 PUSH2 0x3A8 CALLDATASIZE PUSH1 0x4 PUSH2 0x1F2C JUMP JUMPDEST PUSH2 0x910 JUMP JUMPDEST PUSH2 0x253 PUSH2 0x91D JUMP JUMPDEST PUSH1 0x0 SLOAD PUSH20 0xFFFFFFFFFFFFFFFFFFFFFFFFFFFFFFFFFFFFFFFF AND PUSH2 0x32B JUMP JUMPDEST PUSH2 0x253 PUSH2 0x3E1 CALLDATASIZE PUSH1 0x4 PUSH2 0x2250 JUMP JUMPDEST PUSH2 0xB64 JUMP JUMPDEST PUSH2 0x3EE PUSH2 0xF9C JUMP JUMPDEST PUSH1 0x40 MLOAD PUSH2 0x1E2 SWAP2 SWAP1 PUSH2 0x227C JUMP JUMPDEST PUSH2 0x253 PUSH2 0x409 CALLDATASIZE PUSH1 0x4 PUSH2 0x1F2C JUMP JUMPDEST PUSH2 0xFFF JUMP JUMPDEST PUSH1 0x5 SLOAD PUSH2 0x32B SWAP1 PUSH20 0xFFFFFFFFFFFFFFFFFFFFFFFFFFFFFFFFFFFFFFFF AND DUP2 JUMP JUMPDEST PUSH2 0x1D8 PUSH2 0x100C JUMP JUMPDEST PUSH2 0x253 PUSH2 0x444 CALLDATASIZE PUSH1 0x4 PUSH2 0x1F45 JUMP JUMPDEST PUSH2 0x10BA JUMP JUMPDEST PUSH2 0x253 PUSH2 0x457 CALLDATASIZE PUSH1 0x4 PUSH2 0x1F2C JUMP JUMPDEST PUSH2 0x1171 JUMP JUMPDEST PUSH1 0x7 SLOAD PUSH2 0x1D8 JUMP JUMPDEST PUSH1 0x1 PUSH1 0x20 MSTORE DUP2 PUSH1 0x0 MSTORE PUSH1 0x40 PUSH1 0x0 KECCAK256 DUP2 DUP2 SLOAD DUP2 LT PUSH2 0x480 JUMPI PUSH1 0x0 DUP1 REVERT JUMPDEST PUSH1 0x0 SWAP2 DUP3 MSTORE PUSH1 0x20 SWAP1 SWAP2 KECCAK256 PUSH1 0xB SWAP1 SWAP2 MUL ADD DUP1 SLOAD PUSH1 0x1 DUP3 ADD SLOAD PUSH1 0x2 DUP4 ADD SLOAD PUSH1 0x3 DUP5 ADD SLOAD PUSH1 0x4 DUP6 ADD SLOAD PUSH1 0xA SWAP1 SWAP6 ADD SLOAD SWAP4 SWAP7 POP PUSH20 0xFFFFFFFFFFFFFFFFFFFFFFFFFFFFFFFFFFFFFFFF SWAP1 SWAP3 AND SWAP5 POP SWAP3 SWAP1 SWAP2 DUP7 JUMP JUMPDEST CALLER PUSH1 0x0 SWAP1 DUP2 MSTORE PUSH1 0x4 PUSH1 0x20 MSTORE PUSH1 0x40 DUP2 KECCAK256 DUP1 SLOAD DUP4 SWAP3 SWAP1 PUSH2 0x4EE SWAP1 DUP5 SWAP1 PUSH2 0x22E3 JUMP JUMPDEST SWAP1 SWAP2 SSTORE POP POP POP JUMP JUMPDEST PUSH2 0x4FE PUSH2 0x11FD JUMP JUMPDEST PUSH1 0x5 DUP1 SLOAD PUSH32 0xFFFFFFFFFFFFFFFFFFFFFFFF0000000000000000000000000000000000000000 AND PUSH20 0xFFFFFFFFFFFFFFFFFFFFFFFFFFFFFFFFFFFFFFFF SWAP3 SWAP1 SWAP3 AND SWAP2 SWAP1 SWAP2 OR SWAP1 SSTORE JUMP JUMPDEST PUSH1 0x0 PUSH1 0x6 SLOAD DUP3 PUSH2 0x555 SWAP2 SWAP1 PUSH2 0x22F6 JUMP JUMPDEST PUSH1 0x5 SLOAD PUSH1 0x40 MLOAD PUSH32 0x70A0823100000000000000000000000000000000000000000000000000000000 DUP2 MSTORE CALLER PUSH1 0x4 DUP3 ADD MSTORE SWAP2 SWAP3 POP PUSH1 0x0 SWAP2 PUSH20 0xFFFFFFFFFFFFFFFFFFFFFFFFFFFFFFFFFFFFFFFF SWAP1 SWAP2 AND SWAP1 PUSH4 0x70A08231 SWAP1 PUSH1 0x24 ADD PUSH1 0x20 PUSH1 0x40 MLOAD DUP1 DUP4 SUB DUP2 DUP7 GAS STATICCALL ISZERO DUP1 ISZERO PUSH2 0x5C9 JUMPI RETURNDATASIZE PUSH1 0x0 DUP1 RETURNDATACOPY RETURNDATASIZE PUSH1 0x0 REVERT JUMPDEST POP POP POP POP PUSH1 0x40 MLOAD RETURNDATASIZE PUSH1 0x1F NOT PUSH1 0x1F DUP3 ADD AND DUP3 ADD DUP1 PUSH1 0x40 MSTORE POP DUP2 ADD SWAP1 PUSH2 0x5ED SWAP2 SWAP1 PUSH2 0x230D JUMP JUMPDEST SWAP1 POP DUP2 DUP2 LT ISZERO PUSH2 0x684 JUMPI PUSH1 0x40 MLOAD PUSH32 0x8C379A000000000000000000000000000000000000000000000000000000000 DUP2 MSTORE PUSH1 0x20 PUSH1 0x4 DUP3 ADD MSTORE PUSH1 0x34 PUSH1 0x24 DUP3 ADD MSTORE PUSH32 0x596F7520646F206E6F74206861766520656E6F75676820746F6B656E73206F6E PUSH1 0x44 DUP3 ADD MSTORE PUSH32 0x20796F75722062616C616E636520746F20706179000000000000000000000000 PUSH1 0x64 DUP3 ADD MSTORE PUSH1 0x84 ADD JUMPDEST PUSH1 0x40 MLOAD DUP1 SWAP2 SUB SWAP1 REVERT JUMPDEST PUSH1 0x5 SLOAD PUSH1 0x40 MLOAD PUSH32 0xDD62ED3E00000000000000000000000000000000000000000000000000000000 DUP2 MSTORE CALLER PUSH1 0x4 DUP3 ADD MSTORE ADDRESS PUSH1 0x24 DUP3 ADD MSTORE PUSH1 0x0 SWAP2 PUSH20 0xFFFFFFFFFFFFFFFFFFFFFFFFFFFFFFFFFFFFFFFF AND SWAP1 PUSH4 0xDD62ED3E SWAP1 PUSH1 0x44 ADD PUSH1 0x20 PUSH1 0x40 MLOAD DUP1 DUP4 SUB DUP2 DUP7 GAS STATICCALL ISZERO DUP1 ISZERO PUSH2 0x6F9 JUMPI RETURNDATASIZE PUSH1 0x0 DUP1 RETURNDATACOPY RETURNDATASIZE PUSH1 0x0 REVERT JUMPDEST POP POP POP POP PUSH1 0x40 MLOAD RETURNDATASIZE PUSH1 0x1F NOT PUSH1 0x1F DUP3 ADD AND DUP3 ADD DUP1 PUSH1 0x40 MSTORE POP DUP2 ADD SWAP1 PUSH2 0x71D SWAP2 SWAP1 PUSH2 0x230D JUMP JUMPDEST SWAP1 POP DUP3 DUP2 LT ISZERO PUSH2 0x7AF JUMPI PUSH1 0x40 MLOAD PUSH32 0x8C379A000000000000000000000000000000000000000000000000000000000 DUP2 MSTORE PUSH1 0x20 PUSH1 0x4 DUP3 ADD MSTORE PUSH1 0x3A PUSH1 0x24 DUP3 ADD MSTORE PUSH32 0x596F7520646964206E6F7420616C6C6F772074686520636F6E74726163742074 PUSH1 0x44 DUP3 ADD MSTORE PUSH32 0x6F2073656E642074686520707572636861736520616D6F756E74000000000000 PUSH1 0x64 DUP3 ADD MSTORE PUSH1 0x84 ADD PUSH2 0x67B JUMP JUMPDEST PUSH1 0x5 SLOAD PUSH2 0x7D4 SWAP1 PUSH20 0xFFFFFFFFFFFFFFFFFFFFFFFFFFFFFFFFFFFFFFFF AND CALLER ADDRESS DUP7 PUSH2 0x127E JUMP JUMPDEST CALLER PUSH1 0x0 SWAP1 DUP2 MSTORE PUSH1 0x4 PUSH1 0x20 MSTORE PUSH1 0x40 DUP2 KECCAK256 DUP1 SLOAD DUP7 SWAP3 SWAP1 PUSH2 0x7F3 SWAP1 DUP5 SWAP1 PUSH2 0x22E3 JUMP JUMPDEST SWAP1 SWAP2 SSTORE POP POP POP POP POP POP JUMP JUMPDEST PUSH1 0x60 PUSH1 0xA DUP1 SLOAD DUP1 PUSH1 0x20 MUL PUSH1 0x20 ADD PUSH1 0x40 MLOAD SWAP1 DUP2 ADD PUSH1 0x40 MSTORE DUP1 SWAP3 SWAP2 SWAP1 DUP2 DUP2 MSTORE PUSH1 0x20 ADD PUSH1 0x0 SWAP1 JUMPDEST DUP3 DUP3 LT ISZERO PUSH2 0x873 JUMPI PUSH1 0x0 DUP5 DUP2 MSTORE PUSH1 0x20 SWAP1 KECCAK256 PUSH1 0x40 DUP1 MLOAD PUSH1 0xA0 DUP2 ADD SWAP2 DUP3 SWAP1 MSTORE SWAP2 PUSH1 0x5 DUP6 DUP2 MUL SWAP1 SWAP2 ADD SWAP2 DUP3 DUP5 JUMPDEST DUP2 SLOAD DUP2 MSTORE PUSH1 0x20 ADD SWAP1 PUSH1 0x1 ADD SWAP1 DUP1 DUP4 GT PUSH2 0x84C JUMPI POP POP POP POP POP DUP2 MSTORE PUSH1 0x20 ADD SWAP1 PUSH1 0x1 ADD SWAP1 PUSH2 0x822 JUMP JUMPDEST POP POP POP POP SWAP1 POP SWAP1 JUMP JUMPDEST PUSH2 0x884 PUSH2 0x11FD JUMP JUMPDEST PUSH1 0x6 DUP6 SWAP1 SSTORE PUSH1 0x8 DUP5 SWAP1 SSTORE PUSH1 0x9 DUP4 DUP2 SSTORE PUSH1 0x7 DUP4 SWAP1 SSTORE PUSH2 0x8A6 SWAP1 PUSH1 0xB SWAP1 DUP4 SWAP1 PUSH2 0x1D2E JUMP JUMPDEST POP POP POP POP POP POP JUMP JUMPDEST PUSH2 0x8B6 PUSH2 0x11FD JUMP JUMPDEST PUSH1 0x9 SSTORE JUMP JUMPDEST PUSH2 0x8C3 PUSH2 0x11FD JUMP JUMPDEST PUSH1 0x6 SSTORE JUMP JUMPDEST PUSH2 0x8D0 PUSH2 0x11FD JUMP JUMPDEST DUP1 MLOAD PUSH2 0x8E3 SWAP1 PUSH1 0xA SWAP1 PUSH1 0x20 DUP5 ADD SWAP1 PUSH2 0x1D79 JUMP JUMPDEST POP POP JUMP JUMPDEST PUSH2 0x8EF PUSH2 0x11FD JUMP JUMPDEST PUSH2 0x8F9 PUSH1 0x0 PUSH2 0x1319 JUMP JUMPDEST JUMP JUMPDEST PUSH2 0x903 PUSH2 0x11FD JUMP JUMPDEST PUSH2 0x8E3 PUSH1 0xB DUP3 PUSH1 0x9 PUSH2 0x1D2E JUMP JUMPDEST PUSH2 0x918 PUSH2 0x11FD JUMP JUMPDEST PUSH1 0x8 SSTORE JUMP JUMPDEST CALLER PUSH1 0x0 SWAP1 DUP2 MSTORE PUSH1 0x4 PUSH1 0x20 MSTORE PUSH1 0x40 SWAP1 KECCAK256 SLOAD PUSH2 0x993 JUMPI PUSH1 0x40 MLOAD PUSH32 0x8C379A000000000000000000000000000000000000000000000000000000000 DUP2 MSTORE PUSH1 0x20 PUSH1 0x4 DUP3 ADD MSTORE PUSH1 0x1E PUSH1 0x24 DUP3 ADD MSTORE PUSH32 0x4E6F7420656E6F75746820746F6B656E7320666F722077697468647261770000 PUSH1 0x44 DUP3 ADD MSTORE PUSH1 0x64 ADD PUSH2 0x67B JUMP JUMPDEST PUSH1 0x6 SLOAD CALLER PUSH1 0x0 SWAP1 DUP2 MSTORE PUSH1 0x4 PUSH1 0x20 MSTORE PUSH1 0x40 DUP2 KECCAK256 SLOAD SWAP1 SWAP2 PUSH2 0x9B1 SWAP2 PUSH2 0x22F6 JUMP JUMPDEST PUSH1 0x5 SLOAD PUSH1 0x40 MLOAD PUSH32 0x70A0823100000000000000000000000000000000000000000000000000000000 DUP2 MSTORE ADDRESS PUSH1 0x4 DUP3 ADD MSTORE SWAP2 SWAP3 POP PUSH1 0x0 SWAP2 PUSH20 0xFFFFFFFFFFFFFFFFFFFFFFFFFFFFFFFFFFFFFFFF SWAP1 SWAP2 AND SWAP1 PUSH4 0x70A08231 SWAP1 PUSH1 0x24 ADD PUSH1 0x20 PUSH1 0x40 MLOAD DUP1 DUP4 SUB DUP2 DUP7 GAS STATICCALL ISZERO DUP1 ISZERO PUSH2 0xA25 JUMPI RETURNDATASIZE PUSH1 0x0 DUP1 RETURNDATACOPY RETURNDATASIZE PUSH1 0x0 REVERT JUMPDEST POP POP POP POP PUSH1 0x40 MLOAD RETURNDATASIZE PUSH1 0x1F NOT PUSH1 0x1F DUP3 ADD AND DUP3 ADD DUP1 PUSH1 0x40 MSTORE POP DUP2 ADD SWAP1 PUSH2 0xA49 SWAP2 SWAP1 PUSH2 0x230D JUMP JUMPDEST SWAP1 POP DUP2 DUP2 GT PUSH2 0xAB4 JUMPI PUSH1 0x40 MLOAD PUSH32 0x8C379A000000000000000000000000000000000000000000000000000000000 DUP2 MSTORE PUSH1 0x20 PUSH1 0x4 DUP3 ADD MSTORE PUSH1 0x19 PUSH1 0x24 DUP3 ADD MSTORE PUSH32 0x4E6F7420656E6F75746820746F6B656E7320696E2062616E6B00000000000000 PUSH1 0x44 DUP3 ADD MSTORE PUSH1 0x64 ADD PUSH2 0x67B JUMP JUMPDEST PUSH1 0x5 SLOAD PUSH1 0x40 MLOAD PUSH32 0xA9059CBB00000000000000000000000000000000000000000000000000000000 DUP2 MSTORE CALLER PUSH1 0x4 DUP3 ADD MSTORE PUSH1 0x24 DUP2 ADD DUP5 SWAP1 MSTORE PUSH20 0xFFFFFFFFFFFFFFFFFFFFFFFFFFFFFFFFFFFFFFFF SWAP1 SWAP2 AND SWAP1 PUSH4 0xA9059CBB SWAP1 PUSH1 0x44 ADD PUSH1 0x20 PUSH1 0x40 MLOAD DUP1 DUP4 SUB DUP2 PUSH1 0x0 DUP8 GAS CALL ISZERO DUP1 ISZERO PUSH2 0xB2B JUMPI RETURNDATASIZE PUSH1 0x0 DUP1 RETURNDATACOPY RETURNDATASIZE PUSH1 0x0 REVERT JUMPDEST POP POP POP POP PUSH1 0x40 MLOAD RETURNDATASIZE PUSH1 0x1F NOT PUSH1 0x1F DUP3 ADD AND DUP3 ADD DUP1 PUSH1 0x40 MSTORE POP DUP2 ADD SWAP1 PUSH2 0xB4F SWAP2 SWAP1 PUSH2 0x2326 JUMP JUMPDEST POP POP CALLER PUSH1 0x0 SWAP1 DUP2 MSTORE PUSH1 0x4 PUSH1 0x20 MSTORE PUSH1 0x40 DUP2 KECCAK256 SSTORE POP JUMP JUMPDEST PUSH1 0x8 SLOAD DUP4 GT ISZERO PUSH2 0xBD0 JUMPI PUSH1 0x40 MLOAD PUSH32 0x8C379A000000000000000000000000000000000000000000000000000000000 DUP2 MSTORE PUSH1 0x20 PUSH1 0x4 DUP3 ADD MSTORE PUSH1 0xB PUSH1 0x24 DUP3 ADD MSTORE PUSH32 0x42657420746F6F20626967000000000000000000000000000000000000000000 PUSH1 0x44 DUP3 ADD MSTORE PUSH1 0x64 ADD PUSH2 0x67B JUMP JUMPDEST PUSH1 0x0 PUSH2 0xBDD DUP4 PUSH1 0x1 PUSH2 0x22E3 JUMP JUMPDEST PUSH2 0xBE7 SWAP1 DUP6 PUSH2 0x22F6 JUMP JUMPDEST CALLER PUSH1 0x0 SWAP1 DUP2 MSTORE PUSH1 0x4 PUSH1 0x20 MSTORE PUSH1 0x40 SWAP1 KECCAK256 SLOAD SWAP1 SWAP2 POP DUP2 GT ISZERO PUSH2 0xC63 JUMPI PUSH1 0x40 MLOAD PUSH32 0x8C379A000000000000000000000000000000000000000000000000000000000 DUP2 MSTORE PUSH1 0x20 PUSH1 0x4 DUP3 ADD MSTORE PUSH1 0x13 PUSH1 0x24 DUP3 ADD MSTORE PUSH32 0x42616C616E6365206E6F7420656E6F7567687400000000000000000000000000 PUSH1 0x44 DUP3 ADD MSTORE PUSH1 0x64 ADD PUSH2 0x67B JUMP JUMPDEST PUSH1 0x9 SLOAD DUP4 GT ISZERO PUSH2 0xCCF JUMPI PUSH1 0x40 MLOAD PUSH32 0x8C379A000000000000000000000000000000000000000000000000000000000 DUP2 MSTORE PUSH1 0x20 PUSH1 0x4 DUP3 ADD MSTORE PUSH1 0xE PUSH1 0x24 DUP3 ADD MSTORE PUSH32 0x546F6F206D616E79206C696E6573000000000000000000000000000000000000 PUSH1 0x44 DUP3 ADD MSTORE PUSH1 0x64 ADD PUSH2 0x67B JUMP JUMPDEST PUSH1 0xA SLOAD DUP4 GT ISZERO PUSH2 0xD3B JUMPI PUSH1 0x40 MLOAD PUSH32 0x8C379A000000000000000000000000000000000000000000000000000000000 DUP2 MSTORE PUSH1 0x20 PUSH1 0x4 DUP3 ADD MSTORE PUSH1 0xE PUSH1 0x24 DUP3 ADD MSTORE PUSH32 0x546F6F206D616E79206C696E6573000000000000000000000000000000000000 PUSH1 0x44 DUP3 ADD MSTORE PUSH1 0x64 ADD PUSH2 0x67B JUMP JUMPDEST PUSH2 0xD49 PUSH1 0x2 DUP1 SLOAD PUSH1 0x1 ADD SWAP1 SSTORE JUMP JUMPDEST PUSH1 0x0 PUSH2 0xD54 PUSH1 0x2 SLOAD SWAP1 JUMP JUMPDEST SWAP1 POP PUSH1 0x0 PUSH2 0xD61 DUP5 PUSH2 0x138E JUMP JUMPDEST SWAP1 POP PUSH1 0x0 DUP1 PUSH1 0x0 PUSH2 0xD70 PUSH2 0x1DC3 JUMP JUMPDEST PUSH2 0xD78 PUSH2 0x1DC3 JUMP JUMPDEST PUSH1 0x0 DUP1 JUMPDEST DUP12 DUP2 LT ISZERO PUSH2 0xE05 JUMPI PUSH1 0x0 DUP1 PUSH2 0xD91 DUP4 DUP12 PUSH2 0x15F8 JUMP JUMPDEST SWAP1 SWAP3 POP SWAP1 POP PUSH2 0xDA0 DUP16 DUP4 PUSH2 0x22F6 JUMP JUMPDEST SWAP2 POP PUSH2 0xDAC DUP3 DUP6 PUSH2 0x22E3 JUMP JUMPDEST SWAP4 POP DUP2 DUP7 DUP5 PUSH1 0x14 DUP2 LT PUSH2 0xDC1 JUMPI PUSH2 0xDC1 PUSH2 0x2348 JUMP JUMPDEST PUSH1 0x20 MUL ADD MSTORE DUP1 DUP6 DUP5 PUSH1 0x14 DUP2 LT PUSH2 0xDD9 JUMPI PUSH2 0xDD9 PUSH2 0x2348 JUMP JUMPDEST PUSH1 0x20 MUL ADD MSTORE DUP8 DUP3 GT ISZERO PUSH2 0xDF0 JUMPI DUP3 SWAP9 POP DUP2 SWAP8 POP DUP1 SWAP7 POP JUMPDEST POP POP DUP1 DUP1 PUSH2 0xDFD SWAP1 PUSH2 0x2377 JUMP JUMPDEST SWAP2 POP POP PUSH2 0xD7C JUMP JUMPDEST POP CALLER PUSH1 0x0 SWAP1 DUP2 MSTORE PUSH1 0x4 PUSH1 0x20 MSTORE PUSH1 0x40 SWAP1 KECCAK256 SLOAD DUP2 SWAP1 PUSH2 0xE23 SWAP1 DUP12 SWAP1 PUSH2 0x23AF JUMP JUMPDEST PUSH2 0xE2D SWAP2 SWAP1 PUSH2 0x22E3 JUMP JUMPDEST CALLER PUSH1 0x0 DUP2 DUP2 MSTORE PUSH1 0x4 PUSH1 0x20 SWAP1 DUP2 MSTORE PUSH1 0x40 DUP1 DUP4 KECCAK256 SWAP5 SWAP1 SWAP5 SSTORE PUSH1 0x1 DUP1 DUP3 MSTORE SWAP2 DUP5 SWAP1 KECCAK256 DUP5 MLOAD PUSH1 0xE0 DUP2 ADD DUP7 MSTORE DUP14 DUP2 MSTORE SWAP2 DUP3 ADD SWAP4 SWAP1 SWAP4 MSTORE SWAP3 DUP4 ADD DUP16 SWAP1 MSTORE TIMESTAMP PUSH1 0x60 DUP5 ADD MSTORE PUSH1 0x80 DUP4 ADD DUP15 SWAP1 MSTORE SWAP1 SWAP2 SWAP1 PUSH1 0xA0 DUP3 ADD SWAP1 DUP11 SWAP1 PUSH1 0x20 SWAP1 DUP2 MUL SWAP2 SWAP1 SWAP2 ADD MLOAD DUP3 MSTORE SWAP1 DUP2 ADD DUP5 SWAP1 MSTORE DUP3 SLOAD PUSH1 0x1 DUP1 DUP3 ADD DUP6 SSTORE PUSH1 0x0 SWAP5 DUP6 MSTORE SWAP4 DUP3 SWAP1 KECCAK256 DUP4 MLOAD PUSH1 0xB SWAP1 SWAP3 MUL ADD SWAP1 DUP2 SSTORE SWAP1 DUP3 ADD MLOAD SWAP3 DUP2 ADD DUP1 SLOAD PUSH32 0xFFFFFFFFFFFFFFFFFFFFFFFF0000000000000000000000000000000000000000 AND PUSH20 0xFFFFFFFFFFFFFFFFFFFFFFFFFFFFFFFFFFFFFFFF SWAP1 SWAP5 AND SWAP4 SWAP1 SWAP4 OR SWAP1 SWAP3 SSTORE PUSH1 0x40 DUP2 ADD MLOAD PUSH1 0x2 DUP4 ADD SSTORE PUSH1 0x60 DUP2 ADD MLOAD PUSH1 0x3 DUP4 ADD SSTORE PUSH1 0x80 DUP2 ADD MLOAD PUSH1 0x4 DUP4 ADD SSTORE PUSH1 0xA0 DUP2 ADD MLOAD SWAP1 SWAP2 SWAP1 PUSH2 0xF2A SWAP1 PUSH1 0x5 DUP1 DUP5 ADD SWAP2 SWAP1 PUSH2 0x1DE2 JUMP JUMPDEST POP PUSH1 0xC0 SWAP2 SWAP1 SWAP2 ADD MLOAD PUSH1 0xA SWAP1 SWAP2 ADD SSTORE PUSH32 0x6C98C6AD5E22111183C867670BEAD07208DBD3ABA882D6BD87ADBBBDB645D59A CALLER DUP14 PUSH2 0xF66 DUP15 PUSH1 0x1 PUSH2 0x22E3 JUMP JUMPDEST PUSH1 0x20 DUP12 ADD MLOAD PUSH1 0x40 MLOAD PUSH2 0xF86 SWAP5 SWAP4 SWAP3 SWAP2 DUP8 SWAP2 DUP11 SWAP1 DUP11 SWAP1 DUP16 SWAP1 DUP16 SWAP1 DUP16 SWAP1 PUSH2 0x23E5 JUMP JUMPDEST PUSH1 0x40 MLOAD DUP1 SWAP2 SUB SWAP1 LOG1 POP POP POP POP POP POP POP POP POP POP POP POP JUMP JUMPDEST PUSH2 0xFA4 PUSH2 0x1E1C JUMP JUMPDEST PUSH1 0x40 DUP1 MLOAD PUSH2 0x120 DUP2 ADD SWAP1 SWAP2 MSTORE PUSH1 0xB PUSH1 0x9 PUSH1 0x0 DUP4 JUMPDEST DUP3 DUP3 LT ISZERO PUSH2 0x873 JUMPI PUSH1 0x40 DUP1 MLOAD PUSH1 0xA0 DUP2 ADD SWAP2 DUP3 SWAP1 MSTORE SWAP1 PUSH1 0x5 DUP5 DUP2 MUL DUP8 ADD SWAP2 DUP3 DUP5 JUMPDEST DUP2 SLOAD DUP2 MSTORE PUSH1 0x20 ADD SWAP1 PUSH1 0x1 ADD SWAP1 DUP1 DUP4 GT PUSH2 0xFD8 JUMPI POP POP POP POP POP DUP2 MSTORE PUSH1 0x20 ADD SWAP1 PUSH1 0x1 ADD SWAP1 PUSH2 0xFB8 JUMP JUMPDEST PUSH2 0x1007 PUSH2 0x11FD JUMP JUMPDEST PUSH1 0x7 SSTORE JUMP JUMPDEST PUSH1 0x5 SLOAD PUSH1 0x40 MLOAD PUSH32 0x70A0823100000000000000000000000000000000000000000000000000000000 DUP2 MSTORE ADDRESS PUSH1 0x4 DUP3 ADD MSTORE PUSH1 0x0 SWAP2 DUP3 SWAP2 PUSH20 0xFFFFFFFFFFFFFFFFFFFFFFFFFFFFFFFFFFFFFFFF SWAP1 SWAP2 AND SWAP1 PUSH4 0x70A08231 SWAP1 PUSH1 0x24 ADD PUSH1 0x20 PUSH1 0x40 MLOAD DUP1 DUP4 SUB DUP2 DUP7 GAS STATICCALL ISZERO DUP1 ISZERO PUSH2 0x107F JUMPI RETURNDATASIZE PUSH1 0x0 DUP1 RETURNDATACOPY RETURNDATASIZE PUSH1 0x0 REVERT JUMPDEST POP POP POP POP PUSH1 0x40 MLOAD RETURNDATASIZE PUSH1 0x1F NOT PUSH1 0x1F DUP3 ADD AND DUP3 ADD DUP1 PUSH1 0x40 MSTORE POP DUP2 ADD SWAP1 PUSH2 0x10A3 SWAP2 SWAP1 PUSH2 0x230D JUMP JUMPDEST SWAP1 POP PUSH1 0x0 PUSH2 0x10B3 DUP3 PUSH1 0x6 SLOAD PUSH2 0x190D JUMP JUMPDEST SWAP4 SWAP3 POP POP POP JUMP JUMPDEST PUSH2 0x10C2 PUSH2 0x11FD JUMP JUMPDEST PUSH20 0xFFFFFFFFFFFFFFFFFFFFFFFFFFFFFFFFFFFFFFFF DUP2 AND PUSH2 0x1165 JUMPI PUSH1 0x40 MLOAD PUSH32 0x8C379A000000000000000000000000000000000000000000000000000000000 DUP2 MSTORE PUSH1 0x20 PUSH1 0x4 DUP3 ADD MSTORE PUSH1 0x26 PUSH1 0x24 DUP3 ADD MSTORE PUSH32 0x4F776E61626C653A206E6577206F776E657220697320746865207A65726F2061 PUSH1 0x44 DUP3 ADD MSTORE PUSH32 0x6464726573730000000000000000000000000000000000000000000000000000 PUSH1 0x64 DUP3 ADD MSTORE PUSH1 0x84 ADD PUSH2 0x67B JUMP JUMPDEST PUSH2 0x116E DUP2 PUSH2 0x1319 JUMP JUMPDEST POP JUMP JUMPDEST PUSH2 0x1179 PUSH2 0x11FD JUMP JUMPDEST PUSH1 0x0 TIMESTAMP PUSH1 0x42 SLOAD PUSH1 0x44 SLOAD PUSH1 0x43 SLOAD DUP6 PUSH2 0x118F PUSH1 0x2 SLOAD SWAP1 JUMP JUMPDEST PUSH1 0x40 DUP1 MLOAD PUSH1 0x20 DUP2 ADD SWAP8 SWAP1 SWAP8 MSTORE DUP7 ADD SWAP5 SWAP1 SWAP5 MSTORE PUSH1 0x60 DUP6 ADD SWAP3 SWAP1 SWAP3 MSTORE PUSH1 0x80 DUP5 ADD MSTORE PUSH1 0xA0 DUP4 ADD MSTORE PUSH1 0xC0 DUP3 ADD MSTORE PUSH1 0xE0 ADD PUSH1 0x40 DUP1 MLOAD PUSH32 0xFFFFFFFFFFFFFFFFFFFFFFFFFFFFFFFFFFFFFFFFFFFFFFFFFFFFFFFFFFFFFFE0 DUP2 DUP5 SUB ADD DUP2 MSTORE SWAP2 SWAP1 MSTORE DUP1 MLOAD PUSH1 0x20 SWAP1 SWAP2 ADD KECCAK256 PUSH1 0x43 DUP1 SLOAD PUSH1 0x44 SSTORE SSTORE POP POP JUMP JUMPDEST PUSH1 0x0 SLOAD PUSH20 0xFFFFFFFFFFFFFFFFFFFFFFFFFFFFFFFFFFFFFFFF AND CALLER EQ PUSH2 0x8F9 JUMPI PUSH1 0x40 MLOAD PUSH32 0x8C379A000000000000000000000000000000000000000000000000000000000 DUP2 MSTORE PUSH1 0x20 PUSH1 0x4 DUP3 ADD DUP2 SWAP1 MSTORE PUSH1 0x24 DUP3 ADD MSTORE PUSH32 0x4F776E61626C653A2063616C6C6572206973206E6F7420746865206F776E6572 PUSH1 0x44 DUP3 ADD MSTORE PUSH1 0x64 ADD PUSH2 0x67B JUMP JUMPDEST PUSH1 0x40 DUP1 MLOAD PUSH20 0xFFFFFFFFFFFFFFFFFFFFFFFFFFFFFFFFFFFFFFFF DUP6 DUP2 AND PUSH1 0x24 DUP4 ADD MSTORE DUP5 AND PUSH1 0x44 DUP3 ADD MSTORE PUSH1 0x64 DUP1 DUP3 ADD DUP5 SWAP1 MSTORE DUP3 MLOAD DUP1 DUP4 SUB SWAP1 SWAP2 ADD DUP2 MSTORE PUSH1 0x84 SWAP1 SWAP2 ADD SWAP1 SWAP2 MSTORE PUSH1 0x20 DUP2 ADD DUP1 MLOAD PUSH28 0xFFFFFFFFFFFFFFFFFFFFFFFFFFFFFFFFFFFFFFFFFFFFFFFFFFFFFFFF AND PUSH32 0x23B872DD00000000000000000000000000000000000000000000000000000000 OR SWAP1 MSTORE PUSH2 0x1313 SWAP1 DUP6 SWAP1 PUSH2 0x1922 JUMP JUMPDEST POP POP POP POP JUMP JUMPDEST PUSH1 0x0 DUP1 SLOAD PUSH20 0xFFFFFFFFFFFFFFFFFFFFFFFFFFFFFFFFFFFFFFFF DUP4 DUP2 AND PUSH32 0xFFFFFFFFFFFFFFFFFFFFFFFF0000000000000000000000000000000000000000 DUP4 AND DUP2 OR DUP5 SSTORE PUSH1 0x40 MLOAD SWAP2 SWAP1 SWAP3 AND SWAP3 DUP4 SWAP2 PUSH32 0x8BE0079C531659141344CD1FD0A4F28419497F9722A3DAAFE3B4186F6B6457E0 SWAP2 SWAP1 LOG3 POP POP JUMP JUMPDEST PUSH2 0x1396 PUSH2 0x1E4A JUMP JUMPDEST PUSH1 0x0 PUSH2 0x13A1 DUP4 PUSH2 0x1A33 JUMP JUMPDEST SWAP1 POP PUSH1 0x0 PUSH2 0x13B2 PUSH3 0x186A0 DUP4 PUSH2 0x24B2 JUMP JUMPDEST PUSH2 0x13BF SWAP1 PUSH3 0x186A0 PUSH2 0x22E3 JUMP JUMPDEST SWAP1 POP PUSH1 0x0 DUP1 PUSH1 0x0 PUSH1 0x40 MLOAD DUP1 PUSH1 0x60 ADD PUSH1 0x40 MSTORE DUP1 PUSH1 0x40 MLOAD DUP1 PUSH1 0xA0 ADD PUSH1 0x40 MSTORE DUP1 PUSH1 0x0 DUP2 MSTORE PUSH1 0x20 ADD PUSH1 0x0 DUP2 MSTORE PUSH1 0x20 ADD PUSH1 0x0 DUP2 MSTORE PUSH1 0x20 ADD PUSH1 0x0 DUP2 MSTORE PUSH1 0x20 ADD PUSH1 0x0 DUP2 MSTORE POP DUP2 MSTORE PUSH1 0x20 ADD PUSH1 0x40 MLOAD DUP1 PUSH1 0xA0 ADD PUSH1 0x40 MSTORE DUP1 PUSH1 0x3D PUSH1 0x0 PUSH1 0x5 DUP2 LT PUSH2 0x1421 JUMPI PUSH2 0x1421 PUSH2 0x2348 JUMP JUMPDEST ADD SLOAD PUSH1 0x38 SLOAD PUSH2 0x1436 SWAP1 PUSH4 0xFFFFFFFF DUP12 AND PUSH2 0x24B2 JUMP JUMPDEST PUSH2 0x1440 SWAP2 SWAP1 PUSH2 0x24C6 JUMP JUMPDEST DUP2 MSTORE PUSH1 0x3E SLOAD PUSH1 0x39 SLOAD PUSH1 0x20 SWAP1 SWAP3 ADD SWAP2 PUSH2 0x145E SWAP1 PUSH4 0xFFFFFFFF DUP12 AND PUSH2 0x24B2 JUMP JUMPDEST PUSH2 0x1468 SWAP2 SWAP1 PUSH2 0x24C6 JUMP JUMPDEST DUP2 MSTORE PUSH1 0x3F SLOAD PUSH1 0x3A SLOAD PUSH1 0x20 SWAP1 SWAP3 ADD SWAP2 PUSH2 0x1486 SWAP1 PUSH4 0xFFFFFFFF DUP12 AND PUSH2 0x24B2 JUMP JUMPDEST PUSH2 0x1490 SWAP2 SWAP1 PUSH2 0x24C6 JUMP JUMPDEST DUP2 MSTORE PUSH1 0x40 SLOAD PUSH1 0x3B SLOAD PUSH1 0x20 SWAP1 SWAP3 ADD SWAP2 PUSH2 0x14AE SWAP1 PUSH4 0xFFFFFFFF DUP12 AND PUSH2 0x24B2 JUMP JUMPDEST PUSH2 0x14B8 SWAP2 SWAP1 PUSH2 0x24C6 JUMP JUMPDEST DUP2 MSTORE PUSH1 0x41 SLOAD PUSH1 0x3C SLOAD PUSH1 0x20 SWAP1 SWAP3 ADD SWAP2 PUSH2 0x14D6 SWAP1 PUSH4 0xFFFFFFFF DUP12 AND PUSH2 0x24B2 JUMP JUMPDEST PUSH2 0x14E0 SWAP2 SWAP1 PUSH2 0x24C6 JUMP JUMPDEST DUP2 MSTORE POP DUP2 MSTORE PUSH1 0x20 ADD PUSH1 0x40 MLOAD DUP1 PUSH1 0xA0 ADD PUSH1 0x40 MSTORE DUP1 PUSH1 0x0 DUP2 MSTORE PUSH1 0x20 ADD PUSH1 0x0 DUP2 MSTORE PUSH1 0x20 ADD PUSH1 0x0 DUP2 MSTORE PUSH1 0x20 ADD PUSH1 0x0 DUP2 MSTORE PUSH1 0x20 ADD PUSH1 0x0 DUP2 MSTORE POP DUP2 MSTORE POP SWAP1 POP PUSH1 0x0 SWAP3 POP JUMPDEST PUSH1 0x3 SLOAD PUSH4 0xFFFFFFFF AND DUP4 LT ISZERO PUSH2 0x15EE JUMPI PUSH1 0x20 DUP2 ADD MLOAD DUP4 PUSH1 0x5 DUP2 LT PUSH2 0x1544 JUMPI PUSH2 0x1544 PUSH2 0x2348 JUMP JUMPDEST PUSH1 0x20 MUL ADD MLOAD SWAP2 POP DUP2 PUSH1 0x9 SUB PUSH2 0x1558 JUMPI PUSH1 0x0 SWAP2 POP JUMPDEST PUSH1 0x20 DUP2 ADD MLOAD DUP3 SWAP1 DUP5 PUSH1 0x5 DUP2 LT PUSH2 0x1570 JUMPI PUSH2 0x1570 PUSH2 0x2348 JUMP JUMPDEST PUSH1 0x20 MUL ADD MSTORE DUP2 ISZERO PUSH2 0x158B JUMPI PUSH2 0x1586 PUSH1 0x1 DUP4 PUSH2 0x23AF JUMP JUMPDEST PUSH2 0x158E JUMP JUMPDEST PUSH1 0x8 JUMPDEST DUP2 MLOAD DUP5 PUSH1 0x5 DUP2 LT PUSH2 0x15A1 JUMPI PUSH2 0x15A1 PUSH2 0x2348 JUMP JUMPDEST PUSH1 0x20 MUL ADD MSTORE PUSH1 0x8 DUP3 EQ PUSH2 0x15BE JUMPI PUSH2 0x15B9 DUP3 PUSH1 0x1 PUSH2 0x22E3 JUMP JUMPDEST PUSH2 0x15C1 JUMP JUMPDEST PUSH1 0x0 JUMPDEST PUSH1 0x40 DUP3 ADD MLOAD DUP5 PUSH1 0x5 DUP2 LT PUSH2 0x15D7 JUMPI PUSH2 0x15D7 PUSH2 0x2348 JUMP JUMPDEST PUSH1 0x20 MUL ADD MSTORE DUP3 PUSH2 0x15E6 DUP2 PUSH2 0x2377 JUMP JUMPDEST SWAP4 POP POP PUSH2 0x151E JUMP JUMPDEST SWAP7 SWAP6 POP POP POP POP POP POP JUMP JUMPDEST PUSH1 0x0 DUP1 DUP1 DUP1 DUP1 DUP1 JUMPDEST PUSH1 0x5 DUP2 LT ISZERO PUSH2 0x1698 JUMPI PUSH1 0x7 SLOAD DUP8 PUSH1 0xA DUP11 DUP2 SLOAD DUP2 LT PUSH2 0x1620 JUMPI PUSH2 0x1620 PUSH2 0x2348 JUMP JUMPDEST SWAP1 PUSH1 0x0 MSTORE PUSH1 0x20 PUSH1 0x0 KECCAK256 SWAP1 PUSH1 0x5 MUL ADD DUP4 PUSH1 0x5 DUP2 LT PUSH2 0x163F JUMPI PUSH2 0x163F PUSH2 0x2348 JUMP JUMPDEST ADD SLOAD PUSH1 0x3 DUP2 LT PUSH2 0x1651 JUMPI PUSH2 0x1651 PUSH2 0x2348 JUMP JUMPDEST PUSH1 0x20 MUL ADD MLOAD DUP3 PUSH1 0x5 DUP2 LT PUSH2 0x1667 JUMPI PUSH2 0x1667 PUSH2 0x2348 JUMP JUMPDEST PUSH1 0x20 MUL ADD MLOAD EQ PUSH2 0x1679 JUMPI DUP1 SWAP3 POP PUSH2 0x1698 JUMP JUMPDEST DUP4 PUSH2 0x1683 DUP2 PUSH2 0x2377 JUMP JUMPDEST SWAP5 POP POP DUP1 PUSH2 0x1690 DUP2 PUSH2 0x2377 JUMP JUMPDEST SWAP2 POP POP PUSH2 0x1600 JUMP JUMPDEST POP PUSH1 0x0 DUP4 GT DUP1 ISZERO PUSH2 0x16DE JUMPI POP PUSH1 0x0 PUSH1 0xB PUSH1 0x7 SLOAD PUSH1 0x9 DUP2 LT PUSH2 0x16BB JUMPI PUSH2 0x16BB PUSH2 0x2348 JUMP JUMPDEST PUSH1 0x5 MUL ADD PUSH2 0x16CA PUSH1 0x1 DUP7 PUSH2 0x23AF JUMP JUMPDEST PUSH1 0x5 DUP2 LT PUSH2 0x16DA JUMPI PUSH2 0x16DA PUSH2 0x2348 JUMP JUMPDEST ADD SLOAD GT JUMPDEST ISZERO PUSH2 0x172D JUMPI PUSH1 0x0 PUSH1 0xB PUSH1 0x7 SLOAD PUSH1 0x9 DUP2 LT PUSH2 0x16FA JUMPI PUSH2 0x16FA PUSH2 0x2348 JUMP JUMPDEST PUSH1 0x5 MUL ADD PUSH2 0x1709 PUSH1 0x1 DUP7 PUSH2 0x23AF JUMP JUMPDEST PUSH1 0x5 DUP2 LT PUSH2 0x1719 JUMPI PUSH2 0x1719 PUSH2 0x2348 JUMP JUMPDEST ADD SLOAD PUSH1 0x7 SLOAD SWAP1 SWAP7 POP SWAP5 POP PUSH2 0x1906 SWAP4 POP POP POP POP JUMP JUMPDEST DUP3 PUSH2 0x1737 DUP2 PUSH2 0x2377 JUMP JUMPDEST SWAP4 POP POP DUP6 PUSH1 0xA DUP9 DUP2 SLOAD DUP2 LT PUSH2 0x174E JUMPI PUSH2 0x174E PUSH2 0x2348 JUMP JUMPDEST SWAP1 PUSH1 0x0 MSTORE PUSH1 0x20 PUSH1 0x0 KECCAK256 SWAP1 PUSH1 0x5 MUL ADD DUP4 PUSH1 0x5 DUP2 LT PUSH2 0x176D JUMPI PUSH2 0x176D PUSH2 0x2348 JUMP JUMPDEST ADD SLOAD PUSH1 0x3 DUP2 LT PUSH2 0x177F JUMPI PUSH2 0x177F PUSH2 0x2348 JUMP JUMPDEST PUSH1 0x20 MUL ADD MLOAD DUP3 PUSH1 0x5 DUP2 LT PUSH2 0x1795 JUMPI PUSH2 0x1795 PUSH2 0x2348 JUMP JUMPDEST PUSH1 0x20 MUL ADD MLOAD SWAP1 POP PUSH1 0x0 PUSH2 0x17A9 DUP4 PUSH1 0x1 PUSH2 0x22E3 JUMP JUMPDEST SWAP1 POP JUMPDEST PUSH1 0x5 DUP2 LT ISZERO PUSH2 0x18B0 JUMPI DUP2 DUP8 PUSH1 0xA DUP11 DUP2 SLOAD DUP2 LT PUSH2 0x17CA JUMPI PUSH2 0x17CA PUSH2 0x2348 JUMP JUMPDEST SWAP1 PUSH1 0x0 MSTORE PUSH1 0x20 PUSH1 0x0 KECCAK256 SWAP1 PUSH1 0x5 MUL ADD DUP4 PUSH1 0x5 DUP2 LT PUSH2 0x17E9 JUMPI PUSH2 0x17E9 PUSH2 0x2348 JUMP JUMPDEST ADD SLOAD PUSH1 0x3 DUP2 LT PUSH2 0x17FB JUMPI PUSH2 0x17FB PUSH2 0x2348 JUMP JUMPDEST PUSH1 0x20 MUL ADD MLOAD DUP3 PUSH1 0x5 DUP2 LT PUSH2 0x1811 JUMPI PUSH2 0x1811 PUSH2 0x2348 JUMP JUMPDEST PUSH1 0x20 MUL ADD MLOAD EQ DUP1 PUSH2 0x1882 JUMPI POP PUSH1 0x7 SLOAD DUP8 PUSH1 0xA DUP11 DUP2 SLOAD DUP2 LT PUSH2 0x1834 JUMPI PUSH2 0x1834 PUSH2 0x2348 JUMP JUMPDEST SWAP1 PUSH1 0x0 MSTORE PUSH1 0x20 PUSH1 0x0 KECCAK256 SWAP1 PUSH1 0x5 MUL ADD DUP4 PUSH1 0x5 DUP2 LT PUSH2 0x1853 JUMPI PUSH2 0x1853 PUSH2 0x2348 JUMP JUMPDEST ADD SLOAD PUSH1 0x3 DUP2 LT PUSH2 0x1865 JUMPI PUSH2 0x1865 PUSH2 0x2348 JUMP JUMPDEST PUSH1 0x20 MUL ADD MLOAD DUP3 PUSH1 0x5 DUP2 LT PUSH2 0x187B JUMPI PUSH2 0x187B PUSH2 0x2348 JUMP JUMPDEST PUSH1 0x20 MUL ADD MLOAD EQ JUMPDEST ISZERO PUSH2 0x1899 JUMPI DUP4 PUSH2 0x1891 DUP2 PUSH2 0x2377 JUMP JUMPDEST SWAP5 POP POP PUSH2 0x189E JUMP JUMPDEST PUSH2 0x18B0 JUMP JUMPDEST DUP1 PUSH2 0x18A8 DUP2 PUSH2 0x2377 JUMP JUMPDEST SWAP2 POP POP PUSH2 0x17AC JUMP JUMPDEST POP DUP3 ISZERO PUSH2 0x18FB JUMPI PUSH1 0x0 PUSH1 0xB DUP3 PUSH1 0x9 DUP2 LT PUSH2 0x18CC JUMPI PUSH2 0x18CC PUSH2 0x2348 JUMP JUMPDEST PUSH1 0x5 MUL ADD PUSH2 0x18DB PUSH1 0x1 DUP7 PUSH2 0x23AF JUMP JUMPDEST PUSH1 0x5 DUP2 LT PUSH2 0x18EB JUMPI PUSH2 0x18EB PUSH2 0x2348 JUMP JUMPDEST ADD SLOAD SWAP6 POP SWAP1 SWAP4 POP PUSH2 0x1906 SWAP3 POP POP POP JUMP JUMPDEST PUSH1 0x0 DUP1 SWAP5 POP SWAP5 POP POP POP POP JUMPDEST SWAP3 POP SWAP3 SWAP1 POP JUMP JUMPDEST PUSH1 0x0 PUSH2 0x1919 DUP3 DUP5 PUSH2 0x24C6 JUMP JUMPDEST SWAP1 POP JUMPDEST SWAP3 SWAP2 POP POP JUMP JUMPDEST PUSH1 0x0 PUSH2 0x1984 DUP3 PUSH1 0x40 MLOAD DUP1 PUSH1 0x40 ADD PUSH1 0x40 MSTORE DUP1 PUSH1 0x20 DUP2 MSTORE PUSH1 0x20 ADD PUSH32 0x5361666545524332303A206C6F772D6C6576656C2063616C6C206661696C6564 DUP2 MSTORE POP DUP6 PUSH20 0xFFFFFFFFFFFFFFFFFFFFFFFFFFFFFFFFFFFFFFFF AND PUSH2 0x1B1F SWAP1 SWAP3 SWAP2 SWAP1 PUSH4 0xFFFFFFFF AND JUMP JUMPDEST DUP1 MLOAD SWAP1 SWAP2 POP ISZERO PUSH2 0x1A2E JUMPI DUP1 DUP1 PUSH1 0x20 ADD SWAP1 MLOAD DUP2 ADD SWAP1 PUSH2 0x19A2 SWAP2 SWAP1 PUSH2 0x2326 JUMP JUMPDEST PUSH2 0x1A2E JUMPI PUSH1 0x40 MLOAD PUSH32 0x8C379A000000000000000000000000000000000000000000000000000000000 DUP2 MSTORE PUSH1 0x20 PUSH1 0x4 DUP3 ADD MSTORE PUSH1 0x2A PUSH1 0x24 DUP3 ADD MSTORE PUSH32 0x5361666545524332303A204552433230206F7065726174696F6E20646964206E PUSH1 0x44 DUP3 ADD MSTORE PUSH32 0x6F74207375636365656400000000000000000000000000000000000000000000 PUSH1 0x64 DUP3 ADD MSTORE PUSH1 0x84 ADD PUSH2 0x67B JUMP JUMPDEST POP POP POP JUMP JUMPDEST PUSH1 0x0 DUP1 TIMESTAMP DUP4 PUSH1 0x42 SLOAD PUSH1 0x43 SLOAD PUSH1 0x44 SLOAD NUMBER BLOCKHASH COINBASE PREVRANDAO GASLIMIT GASPRICE CALLER GAS PUSH1 0x2 SLOAD PUSH1 0x40 DUP1 MLOAD PUSH1 0x20 DUP2 ADD SWAP15 SWAP1 SWAP15 MSTORE DUP14 ADD SWAP12 SWAP1 SWAP12 MSTORE PUSH1 0x60 DUP1 DUP14 ADD SWAP11 SWAP1 SWAP11 MSTORE PUSH1 0x80 DUP13 ADD SWAP9 SWAP1 SWAP9 MSTORE PUSH1 0xA0 DUP12 ADD SWAP7 SWAP1 SWAP7 MSTORE PUSH1 0xC0 DUP11 ADD SWAP5 SWAP1 SWAP5 MSTORE PUSH32 0xFFFFFFFFFFFFFFFFFFFFFFFFFFFFFFFFFFFFFFFF000000000000000000000000 SWAP3 DUP8 SHL DUP4 AND PUSH1 0xE0 DUP11 ADD MSTORE PUSH1 0xF4 DUP10 ADD SWAP2 SWAP1 SWAP2 MSTORE PUSH2 0x114 DUP9 ADD MSTORE PUSH2 0x134 DUP8 ADD SWAP2 SWAP1 SWAP2 MSTORE SWAP3 SHL SWAP1 SWAP2 AND PUSH2 0x154 DUP5 ADD MSTORE PUSH2 0x168 DUP4 ADD MSTORE PUSH2 0x188 DUP3 ADD MSTORE PUSH2 0x1A8 ADD PUSH1 0x40 DUP1 MLOAD PUSH32 0xFFFFFFFFFFFFFFFFFFFFFFFFFFFFFFFFFFFFFFFFFFFFFFFFFFFFFFFFFFFFFFE0 DUP2 DUP5 SUB ADD DUP2 MSTORE SWAP2 SWAP1 MSTORE DUP1 MLOAD PUSH1 0x20 SWAP1 SWAP2 ADD KECCAK256 PUSH1 0x42 SWAP4 SWAP1 SWAP4 SSTORE POP SWAP1 SWAP2 SWAP1 POP JUMP JUMPDEST PUSH1 0x60 PUSH2 0x1B2E DUP5 DUP5 PUSH1 0x0 DUP6 PUSH2 0x1B36 JUMP JUMPDEST SWAP5 SWAP4 POP POP POP POP JUMP JUMPDEST PUSH1 0x60 DUP3 SELFBALANCE LT ISZERO PUSH2 0x1BC8 JUMPI PUSH1 0x40 MLOAD PUSH32 0x8C379A000000000000000000000000000000000000000000000000000000000 DUP2 MSTORE PUSH1 0x20 PUSH1 0x4 DUP3 ADD MSTORE PUSH1 0x26 PUSH1 0x24 DUP3 ADD MSTORE PUSH32 0x416464726573733A20696E73756666696369656E742062616C616E636520666F PUSH1 0x44 DUP3 ADD MSTORE PUSH32 0x722063616C6C0000000000000000000000000000000000000000000000000000 PUSH1 0x64 DUP3 ADD MSTORE PUSH1 0x84 ADD PUSH2 0x67B JUMP JUMPDEST PUSH1 0x0 DUP1 DUP7 PUSH20 0xFFFFFFFFFFFFFFFFFFFFFFFFFFFFFFFFFFFFFFFF AND DUP6 DUP8 PUSH1 0x40 MLOAD PUSH2 0x1BF1 SWAP2 SWAP1 PUSH2 0x24FE JUMP JUMPDEST PUSH1 0x0 PUSH1 0x40 MLOAD DUP1 DUP4 SUB DUP2 DUP6 DUP8 GAS CALL SWAP3 POP POP POP RETURNDATASIZE DUP1 PUSH1 0x0 DUP2 EQ PUSH2 0x1C2E JUMPI PUSH1 0x40 MLOAD SWAP2 POP PUSH1 0x1F NOT PUSH1 0x3F RETURNDATASIZE ADD AND DUP3 ADD PUSH1 0x40 MSTORE RETURNDATASIZE DUP3 MSTORE RETURNDATASIZE PUSH1 0x0 PUSH1 0x20 DUP5 ADD RETURNDATACOPY PUSH2 0x1C33 JUMP JUMPDEST PUSH1 0x60 SWAP2 POP JUMPDEST POP SWAP2 POP SWAP2 POP PUSH2 0x1C44 DUP8 DUP4 DUP4 DUP8 PUSH2 0x1C4F JUMP JUMPDEST SWAP8 SWAP7 POP POP POP POP POP POP POP JUMP JUMPDEST PUSH1 0x60 DUP4 ISZERO PUSH2 0x1CE5 JUMPI DUP3 MLOAD PUSH1 0x0 SUB PUSH2 0x1CDE JUMPI PUSH20 0xFFFFFFFFFFFFFFFFFFFFFFFFFFFFFFFFFFFFFFFF DUP6 AND EXTCODESIZE PUSH2 0x1CDE JUMPI PUSH1 0x40 MLOAD PUSH32 0x8C379A000000000000000000000000000000000000000000000000000000000 DUP2 MSTORE PUSH1 0x20 PUSH1 0x4 DUP3 ADD MSTORE PUSH1 0x1D PUSH1 0x24 DUP3 ADD MSTORE PUSH32 0x416464726573733A2063616C6C20746F206E6F6E2D636F6E7472616374000000 PUSH1 0x44 DUP3 ADD MSTORE PUSH1 0x64 ADD PUSH2 0x67B JUMP JUMPDEST POP DUP2 PUSH2 0x1B2E JUMP JUMPDEST PUSH2 0x1B2E DUP4 DUP4 DUP2 MLOAD ISZERO PUSH2 0x1CFA JUMPI DUP2 MLOAD DUP1 DUP4 PUSH1 0x20 ADD REVERT JUMPDEST DUP1 PUSH1 0x40 MLOAD PUSH32 0x8C379A000000000000000000000000000000000000000000000000000000000 DUP2 MSTORE PUSH1 0x4 ADD PUSH2 0x67B SWAP2 SWAP1 PUSH2 0x251A JUMP JUMPDEST PUSH1 0x2D DUP4 ADD SWAP2 DUP4 SWAP1 DUP3 ISZERO PUSH2 0x1D69 JUMPI SWAP2 PUSH1 0x20 MUL DUP3 ADD JUMPDEST DUP3 DUP2 GT ISZERO PUSH2 0x1D69 JUMPI DUP3 MLOAD PUSH2 0x1D59 SWAP1 DUP4 SWAP1 PUSH1 0x5 PUSH2 0x1DE2 JUMP JUMPDEST POP SWAP2 PUSH1 0x20 ADD SWAP2 SWAP1 PUSH1 0x5 ADD SWAP1 PUSH2 0x1D42 JUMP JUMPDEST POP PUSH2 0x1D75 SWAP3 SWAP2 POP PUSH2 0x1E77 JUMP JUMPDEST POP SWAP1 JUMP JUMPDEST DUP3 DUP1 SLOAD DUP3 DUP3 SSTORE SWAP1 PUSH1 0x0 MSTORE PUSH1 0x20 PUSH1 0x0 KECCAK256 SWAP1 PUSH1 0x5 MUL DUP2 ADD SWAP3 DUP3 ISZERO PUSH2 0x1D69 JUMPI SWAP2 PUSH1 0x20 MUL DUP3 ADD JUMPDEST DUP3 DUP2 GT ISZERO PUSH2 0x1D69 JUMPI DUP3 MLOAD PUSH2 0x1DB3 SWAP1 DUP4 SWAP1 PUSH1 0x5 PUSH2 0x1DE2 JUMP JUMPDEST POP SWAP2 PUSH1 0x20 ADD SWAP2 SWAP1 PUSH1 0x5 ADD SWAP1 PUSH2 0x1D9C JUMP JUMPDEST PUSH1 0x40 MLOAD DUP1 PUSH2 0x280 ADD PUSH1 0x40 MSTORE DUP1 PUSH1 0x14 SWAP1 PUSH1 0x20 DUP3 MUL DUP1 CALLDATASIZE DUP4 CALLDATACOPY POP SWAP2 SWAP3 SWAP2 POP POP JUMP JUMPDEST DUP3 PUSH1 0x5 DUP2 ADD SWAP3 DUP3 ISZERO PUSH2 0x1E10 JUMPI SWAP2 PUSH1 0x20 MUL DUP3 ADD JUMPDEST DUP3 DUP2 GT ISZERO PUSH2 0x1E10 JUMPI DUP3 MLOAD DUP3 SSTORE SWAP2 PUSH1 0x20 ADD SWAP2 SWAP1 PUSH1 0x1 ADD SWAP1 PUSH2 0x1DF5 JUMP JUMPDEST POP PUSH2 0x1D75 SWAP3 SWAP2 POP PUSH2 0x1EA6 JUMP JUMPDEST PUSH1 0x40 MLOAD DUP1 PUSH2 0x120 ADD PUSH1 0x40 MSTORE DUP1 PUSH1 0x9 SWAP1 JUMPDEST PUSH2 0x1E34 PUSH2 0x1EBB JUMP JUMPDEST DUP2 MSTORE PUSH1 0x20 ADD SWAP1 PUSH1 0x1 SWAP1 SUB SWAP1 DUP2 PUSH2 0x1E2C JUMPI SWAP1 POP POP SWAP1 JUMP JUMPDEST PUSH1 0x40 MLOAD DUP1 PUSH1 0x60 ADD PUSH1 0x40 MSTORE DUP1 PUSH1 0x3 SWAP1 JUMPDEST PUSH2 0x1E61 PUSH2 0x1EBB JUMP JUMPDEST DUP2 MSTORE PUSH1 0x20 ADD SWAP1 PUSH1 0x1 SWAP1 SUB SWAP1 DUP2 PUSH2 0x1E59 JUMPI SWAP1 POP POP SWAP1 JUMP JUMPDEST DUP1 DUP3 GT ISZERO PUSH2 0x1D75 JUMPI PUSH1 0x0 DUP1 DUP3 SSTORE PUSH1 0x1 DUP3 ADD DUP2 SWAP1 SSTORE PUSH1 0x2 DUP3 ADD DUP2 SWAP1 SSTORE PUSH1 0x3 DUP3 ADD DUP2 SWAP1 SSTORE PUSH1 0x4 DUP3 ADD SSTORE PUSH1 0x5 ADD PUSH2 0x1E77 JUMP JUMPDEST JUMPDEST DUP1 DUP3 GT ISZERO PUSH2 0x1D75 JUMPI PUSH1 0x0 DUP2 SSTORE PUSH1 0x1 ADD PUSH2 0x1EA7 JUMP JUMPDEST PUSH1 0x40 MLOAD DUP1 PUSH1 0xA0 ADD PUSH1 0x40 MSTORE DUP1 PUSH1 0x5 SWAP1 PUSH1 0x20 DUP3 MUL DUP1 CALLDATASIZE DUP4 CALLDATACOPY POP SWAP2 SWAP3 SWAP2 POP POP JUMP JUMPDEST DUP1 CALLDATALOAD PUSH20 0xFFFFFFFFFFFFFFFFFFFFFFFFFFFFFFFFFFFFFFFF DUP2 AND DUP2 EQ PUSH2 0x1EFD JUMPI PUSH1 0x0 DUP1 REVERT JUMPDEST SWAP2 SWAP1 POP JUMP JUMPDEST PUSH1 0x0 DUP1 PUSH1 0x40 DUP4 DUP6 SUB SLT ISZERO PUSH2 0x1F15 JUMPI PUSH1 0x0 DUP1 REVERT JUMPDEST PUSH2 0x1F1E DUP4 PUSH2 0x1ED9 JUMP JUMPDEST SWAP5 PUSH1 0x20 SWAP4 SWAP1 SWAP4 ADD CALLDATALOAD SWAP4 POP POP POP JUMP JUMPDEST PUSH1 0x0 PUSH1 0x20 DUP3 DUP5 SUB SLT ISZERO PUSH2 0x1F3E JUMPI PUSH1 0x0 DUP1 REVERT JUMPDEST POP CALLDATALOAD SWAP2 SWAP1 POP JUMP JUMPDEST PUSH1 0x0 PUSH1 0x20 DUP3 DUP5 SUB SLT ISZERO PUSH2 0x1F57 JUMPI PUSH1 0x0 DUP1 REVERT JUMPDEST PUSH2 0x1919 DUP3 PUSH2 0x1ED9 JUMP JUMPDEST PUSH1 0x0 DUP3 DUP3 DUP3 JUMPDEST PUSH1 0x5 DUP2 LT ISZERO PUSH2 0x1F85 JUMPI DUP2 MLOAD DUP4 MSTORE PUSH1 0x20 SWAP3 DUP4 ADD SWAP3 SWAP1 SWAP2 ADD SWAP1 PUSH1 0x1 ADD PUSH2 0x1F66 JUMP JUMPDEST POP POP POP PUSH1 0xA0 DUP4 ADD SWAP1 POP SWAP3 SWAP2 POP POP JUMP JUMPDEST PUSH1 0x20 DUP1 DUP3 MSTORE DUP3 MLOAD DUP3 DUP3 ADD DUP2 SWAP1 MSTORE PUSH1 0x0 SWAP2 SWAP1 DUP5 DUP3 ADD SWAP1 PUSH1 0x40 DUP6 ADD SWAP1 DUP5 JUMPDEST DUP2 DUP2 LT ISZERO PUSH2 0x1FD1 JUMPI PUSH2 0x1FC3 DUP4 DUP6 MLOAD PUSH2 0x1F60 JUMP JUMPDEST SWAP4 DUP6 ADD SWAP4 SWAP3 POP PUSH1 0x1 ADD PUSH2 0x1FB0 JUMP JUMPDEST POP SWAP1 SWAP7 SWAP6 POP POP POP POP POP POP JUMP JUMPDEST PUSH32 0x4E487B7100000000000000000000000000000000000000000000000000000000 PUSH1 0x0 MSTORE PUSH1 0x41 PUSH1 0x4 MSTORE PUSH1 0x24 PUSH1 0x0 REVERT JUMPDEST PUSH1 0x40 MLOAD PUSH1 0x1F DUP3 ADD PUSH32 0xFFFFFFFFFFFFFFFFFFFFFFFFFFFFFFFFFFFFFFFFFFFFFFFFFFFFFFFFFFFFFFE0 AND DUP2 ADD PUSH8 0xFFFFFFFFFFFFFFFF DUP2 GT DUP3 DUP3 LT OR ISZERO PUSH2 0x2053 JUMPI PUSH2 0x2053 PUSH2 0x1FDD JUMP JUMPDEST PUSH1 0x40 MSTORE SWAP2 SWAP1 POP JUMP JUMPDEST PUSH1 0x0 DUP3 PUSH1 0x1F DUP4 ADD SLT PUSH2 0x206C JUMPI PUSH1 0x0 DUP1 REVERT JUMPDEST PUSH1 0x40 MLOAD PUSH1 0xA0 DUP2 ADD DUP2 DUP2 LT PUSH8 0xFFFFFFFFFFFFFFFF DUP3 GT OR ISZERO PUSH2 0x208F JUMPI PUSH2 0x208F PUSH2 0x1FDD JUMP JUMPDEST PUSH1 0x40 MSTORE DUP1 PUSH1 0xA0 DUP5 ADD DUP6 DUP2 GT ISZERO PUSH2 0x20A4 JUMPI PUSH1 0x0 DUP1 REVERT JUMPDEST DUP5 JUMPDEST DUP2 DUP2 LT ISZERO PUSH2 0x20BE JUMPI DUP1 CALLDATALOAD DUP4 MSTORE PUSH1 0x20 SWAP3 DUP4 ADD SWAP3 ADD PUSH2 0x20A6 JUMP JUMPDEST POP SWAP2 SWAP6 SWAP5 POP POP POP POP POP JUMP JUMPDEST PUSH1 0x0 DUP3 PUSH1 0x1F DUP4 ADD SLT PUSH2 0x20DA JUMPI PUSH1 0x0 DUP1 REVERT JUMPDEST PUSH1 0x40 MLOAD PUSH2 0x120 DUP2 ADD DUP2 DUP2 LT PUSH8 0xFFFFFFFFFFFFFFFF DUP3 GT OR ISZERO PUSH2 0x20FE JUMPI PUSH2 0x20FE PUSH2 0x1FDD JUMP JUMPDEST PUSH1 0x40 MSTORE DUP1 PUSH2 0x5A0 DUP5 ADD DUP6 DUP2 GT ISZERO PUSH2 0x2114 JUMPI PUSH1 0x0 DUP1 REVERT JUMPDEST DUP5 JUMPDEST DUP2 DUP2 LT ISZERO PUSH2 0x20BE JUMPI PUSH2 0x2128 DUP8 DUP3 PUSH2 0x205B JUMP JUMPDEST DUP4 MSTORE PUSH1 0x20 SWAP1 SWAP3 ADD SWAP2 PUSH1 0xA0 ADD PUSH2 0x2116 JUMP JUMPDEST PUSH1 0x0 DUP1 PUSH1 0x0 DUP1 PUSH1 0x0 PUSH2 0x620 DUP7 DUP9 SUB SLT ISZERO PUSH2 0x2151 JUMPI PUSH1 0x0 DUP1 REVERT JUMPDEST DUP6 CALLDATALOAD SWAP5 POP PUSH1 0x20 DUP7 ADD CALLDATALOAD SWAP4 POP PUSH1 0x40 DUP7 ADD CALLDATALOAD SWAP3 POP PUSH1 0x60 DUP7 ADD CALLDATALOAD SWAP2 POP PUSH2 0x2177 DUP8 PUSH1 0x80 DUP9 ADD PUSH2 0x20C9 JUMP JUMPDEST SWAP1 POP SWAP3 SWAP6 POP SWAP3 SWAP6 SWAP1 SWAP4 POP JUMP JUMPDEST PUSH1 0x0 PUSH1 0x20 DUP1 DUP4 DUP6 SUB SLT ISZERO PUSH2 0x2196 JUMPI PUSH1 0x0 DUP1 REVERT JUMPDEST DUP3 CALLDATALOAD PUSH8 0xFFFFFFFFFFFFFFFF DUP1 DUP3 GT ISZERO PUSH2 0x21AE JUMPI PUSH1 0x0 DUP1 REVERT JUMPDEST DUP2 DUP6 ADD SWAP2 POP DUP6 PUSH1 0x1F DUP4 ADD SLT PUSH2 0x21C2 JUMPI PUSH1 0x0 DUP1 REVERT JUMPDEST DUP2 CALLDATALOAD DUP2 DUP2 GT ISZERO PUSH2 0x21D4 JUMPI PUSH2 0x21D4 PUSH2 0x1FDD JUMP JUMPDEST PUSH2 0x21E2 DUP5 DUP3 PUSH1 0x5 SHL ADD PUSH2 0x200C JUMP JUMPDEST DUP2 DUP2 MSTORE DUP5 DUP2 ADD SWAP3 POP PUSH1 0xA0 SWAP2 DUP3 MUL DUP5 ADD DUP6 ADD SWAP2 DUP9 DUP4 GT ISZERO PUSH2 0x2201 JUMPI PUSH1 0x0 DUP1 REVERT JUMPDEST SWAP4 DUP6 ADD SWAP4 JUMPDEST DUP3 DUP6 LT ISZERO PUSH2 0x2227 JUMPI PUSH2 0x2218 DUP10 DUP7 PUSH2 0x205B JUMP JUMPDEST DUP5 MSTORE SWAP4 DUP5 ADD SWAP4 SWAP3 DUP6 ADD SWAP3 PUSH2 0x2206 JUMP JUMPDEST POP SWAP8 SWAP7 POP POP POP POP POP POP POP JUMP JUMPDEST PUSH1 0x0 PUSH2 0x5A0 DUP3 DUP5 SUB SLT ISZERO PUSH2 0x2246 JUMPI PUSH1 0x0 DUP1 REVERT JUMPDEST PUSH2 0x1919 DUP4 DUP4 PUSH2 0x20C9 JUMP JUMPDEST PUSH1 0x0 DUP1 PUSH1 0x0 PUSH1 0x60 DUP5 DUP7 SUB SLT ISZERO PUSH2 0x2265 JUMPI PUSH1 0x0 DUP1 REVERT JUMPDEST POP POP DUP2 CALLDATALOAD SWAP4 PUSH1 0x20 DUP4 ADD CALLDATALOAD SWAP4 POP PUSH1 0x40 SWAP1 SWAP3 ADD CALLDATALOAD SWAP2 SWAP1 POP JUMP JUMPDEST PUSH2 0x5A0 DUP2 ADD DUP2 DUP4 PUSH1 0x0 JUMPDEST PUSH1 0x9 DUP2 LT ISZERO PUSH2 0x22AB JUMPI PUSH2 0x229A DUP4 DUP4 MLOAD PUSH2 0x1F60 JUMP JUMPDEST SWAP3 POP PUSH1 0x20 SWAP2 SWAP1 SWAP2 ADD SWAP1 PUSH1 0x1 ADD PUSH2 0x2286 JUMP JUMPDEST POP POP POP SWAP3 SWAP2 POP POP JUMP JUMPDEST PUSH32 0x4E487B7100000000000000000000000000000000000000000000000000000000 PUSH1 0x0 MSTORE PUSH1 0x11 PUSH1 0x4 MSTORE PUSH1 0x24 PUSH1 0x0 REVERT JUMPDEST DUP1 DUP3 ADD DUP1 DUP3 GT ISZERO PUSH2 0x191C JUMPI PUSH2 0x191C PUSH2 0x22B4 JUMP JUMPDEST DUP1 DUP3 MUL DUP2 ISZERO DUP3 DUP3 DIV DUP5 EQ OR PUSH2 0x191C JUMPI PUSH2 0x191C PUSH2 0x22B4 JUMP JUMPDEST PUSH1 0x0 PUSH1 0x20 DUP3 DUP5 SUB SLT ISZERO PUSH2 0x231F JUMPI PUSH1 0x0 DUP1 REVERT JUMPDEST POP MLOAD SWAP2 SWAP1 POP JUMP JUMPDEST PUSH1 0x0 PUSH1 0x20 DUP3 DUP5 SUB SLT ISZERO PUSH2 0x2338 JUMPI PUSH1 0x0 DUP1 REVERT JUMPDEST DUP2 MLOAD DUP1 ISZERO ISZERO DUP2 EQ PUSH2 0x10B3 JUMPI PUSH1 0x0 DUP1 REVERT JUMPDEST PUSH32 0x4E487B7100000000000000000000000000000000000000000000000000000000 PUSH1 0x0 MSTORE PUSH1 0x32 PUSH1 0x4 MSTORE PUSH1 0x24 PUSH1 0x0 REVERT JUMPDEST PUSH1 0x0 PUSH32 0xFFFFFFFFFFFFFFFFFFFFFFFFFFFFFFFFFFFFFFFFFFFFFFFFFFFFFFFFFFFFFFFF DUP3 SUB PUSH2 0x23A8 JUMPI PUSH2 0x23A8 PUSH2 0x22B4 JUMP JUMPDEST POP PUSH1 0x1 ADD SWAP1 JUMP JUMPDEST DUP2 DUP2 SUB DUP2 DUP2 GT ISZERO PUSH2 0x191C JUMPI PUSH2 0x191C PUSH2 0x22B4 JUMP JUMPDEST DUP1 PUSH1 0x0 JUMPDEST PUSH1 0x14 DUP2 LT ISZERO PUSH2 0x1313 JUMPI DUP2 MLOAD DUP5 MSTORE PUSH1 0x20 SWAP4 DUP5 ADD SWAP4 SWAP1 SWAP2 ADD SWAP1 PUSH1 0x1 ADD PUSH2 0x23C6 JUMP JUMPDEST PUSH1 0x0 PUSH2 0x680 DUP3 ADD SWAP1 POP PUSH20 0xFFFFFFFFFFFFFFFFFFFFFFFFFFFFFFFFFFFFFFFF DUP13 AND DUP3 MSTORE PUSH1 0x20 DUP12 DUP2 DUP5 ADD MSTORE DUP11 PUSH1 0x40 DUP5 ADD MSTORE DUP10 PUSH1 0x60 DUP5 ADD MSTORE PUSH1 0x80 DUP4 ADD DUP10 PUSH1 0x0 JUMPDEST PUSH1 0x5 DUP2 LT ISZERO PUSH2 0x243F JUMPI DUP2 MLOAD DUP4 MSTORE SWAP2 DUP4 ADD SWAP2 SWAP1 DUP4 ADD SWAP1 PUSH1 0x1 ADD PUSH2 0x2422 JUMP JUMPDEST POP POP POP POP PUSH2 0x2451 PUSH2 0x120 DUP4 ADD DUP9 PUSH2 0x23C2 JUMP JUMPDEST PUSH2 0x245F PUSH2 0x3A0 DUP4 ADD DUP8 PUSH2 0x23C2 JUMP JUMPDEST DUP5 PUSH2 0x620 DUP4 ADD MSTORE DUP4 PUSH2 0x640 DUP4 ADD MSTORE DUP3 PUSH2 0x660 DUP4 ADD MSTORE SWAP12 SWAP11 POP POP POP POP POP POP POP POP POP POP POP JUMP JUMPDEST PUSH32 0x4E487B7100000000000000000000000000000000000000000000000000000000 PUSH1 0x0 MSTORE PUSH1 0x12 PUSH1 0x4 MSTORE PUSH1 0x24 PUSH1 0x0 REVERT JUMPDEST PUSH1 0x0 DUP3 PUSH2 0x24C1 JUMPI PUSH2 0x24C1 PUSH2 0x2483 JUMP JUMPDEST POP MOD SWAP1 JUMP JUMPDEST PUSH1 0x0 DUP3 PUSH2 0x24D5 JUMPI PUSH2 0x24D5 PUSH2 0x2483 JUMP JUMPDEST POP DIV SWAP1 JUMP JUMPDEST PUSH1 0x0 JUMPDEST DUP4 DUP2 LT ISZERO PUSH2 0x24F5 JUMPI DUP2 DUP2 ADD MLOAD DUP4 DUP3 ADD MSTORE PUSH1 0x20 ADD PUSH2 0x24DD JUMP JUMPDEST POP POP PUSH1 0x0 SWAP2 ADD MSTORE JUMP JUMPDEST PUSH1 0x0 DUP3 MLOAD PUSH2 0x2510 DUP2 DUP5 PUSH1 0x20 DUP8 ADD PUSH2 0x24DA JUMP JUMPDEST SWAP2 SWAP1 SWAP2 ADD SWAP3 SWAP2 POP POP JUMP JUMPDEST PUSH1 0x20 DUP2 MSTORE PUSH1 0x0 DUP3 MLOAD DUP1 PUSH1 0x20 DUP5 ADD MSTORE PUSH2 0x2539 DUP2 PUSH1 0x40 DUP6 ADD PUSH1 0x20 DUP8 ADD PUSH2 0x24DA JUMP JUMPDEST PUSH1 0x1F ADD PUSH32 0xFFFFFFFFFFFFFFFFFFFFFFFFFFFFFFFFFFFFFFFFFFFFFFFFFFFFFFFFFFFFFFE0 AND SWAP2 SWAP1 SWAP2 ADD PUSH1 0x40 ADD SWAP3 SWAP2 POP POP JUMP INVALID LOG2 PUSH5 0x6970667358 0x22 SLT KECCAK256 GASLIMIT GT 0xC0 PUSH1 0x16 PUSH8 0x3DC9DF2B295EFC6D SMOD 0xE2 JUMPDEST 0xD6 CALLDATALOAD 0xB3 0x2E CALLDATALOAD SWAP3 GASLIMIT 0xCB INVALID 0x24 0xAF KECCAK256 JUMP 0xAA 0x23 PUSH5 0x736F6C6343 STOP ADDMOD SLT STOP CALLER "
		},
		"gasEstimates": {
			"creation": {
				"codeDepositCost": "1926600",
				"executionCost": "infinite",
				"totalCost": "infinite"
			},
			"external": {
				"addUserBalance(uint256)": "24685",
				"buyTokens(uint256)": "infinite",
				"currency()": "2424",
				"doSpin(uint256,uint256,bytes32)": "infinite",
				"flushRandom(bytes32)": "57467",
				"getBankInTokens()": "infinite",
				"getCurrency()": "2385",
				"getMaxBet()": "2348",
				"getMaxLines()": "2317",
				"getMultiplers()": "infinite",
				"getMyBalance()": "2439",
				"getTokenPrice()": "2349",
				"getUserBalance(address)": "2618",
				"getWildSlot()": "2391",
				"getWinLines()": "infinite",
				"owner()": "2418",
				"playerSpins(address,uint256)": "15490",
				"renounceOwnership()": "infinite",
				"saveSettings(uint256,uint256,uint256,uint256,uint256[5][9])": "infinite",
				"setCurrency(address)": "26734",
				"setMaxBet(uint256)": "24543",
				"setMaxLines(uint256)": "24521",
				"setMultiplers(uint256[5][9])": "infinite",
				"setTokenPrice(uint256)": "24587",
				"setWildSlot(uint256)": "24565",
				"setWinLines(uint256[5][])": "infinite",
				"tokenPrice()": "2374",
				"transferOwnership(address)": "28340",
				"withdrawTokens()": "infinite"
			},
			"internal": {
				"checkLine(uint256,uint256[5] memory[3] memory)": "infinite",
				"getAllowance(address)": "infinite",
				"getRandom(bytes32,uint256)": "infinite",
				"getRandomBase(bytes32)": "infinite",
				"getWinLine(uint32)": "infinite",
				"spinReels(bytes32)": "infinite"
			}
		},
		"methodIdentifiers": {
			"addUserBalance(uint256)": "22526328",
			"buyTokens(uint256)": "3610724e",
			"currency()": "e5a6b10f",
			"doSpin(uint256,uint256,bytes32)": "a3e2e8ce",
			"flushRandom(bytes32)": "f7e944ee",
			"getBankInTokens()": "e9a4a03d",
			"getCurrency()": "6945c1fd",
			"getMaxBet()": "646668b6",
			"getMaxLines()": "09b9dd89",
			"getMultiplers()": "d3f0a7ce",
			"getMyBalance()": "4c738909",
			"getTokenPrice()": "4b94f50e",
			"getUserBalance(address)": "47734892",
			"getWildSlot()": "fda0ef89",
			"getWinLines()": "4282cf54",
			"owner()": "8da5cb5b",
			"playerSpins(address,uint256)": "17adaa03",
			"renounceOwnership()": "715018a6",
			"saveSettings(uint256,uint256,uint256,uint256,uint256[5][9])": "4afa1905",
			"setCurrency(address)": "2f84c391",
			"setMaxBet(uint256)": "881eff1e",
			"setMaxLines(uint256)": "6012cb19",
			"setMultiplers(uint256[5][9])": "81b87e54",
			"setTokenPrice(uint256)": "6a61e5fc",
			"setWildSlot(uint256)": "e3c7b05e",
			"setWinLines(uint256[5][])": "6f43022c",
			"tokenPrice()": "7ff9b596",
			"transferOwnership(address)": "f2fde38b",
			"withdrawTokens()": "8d8f2adb"
		}
	},
	"abi": [
		{
			"inputs": [
				{
					"internalType": "address",
					"name": "_currency",
					"type": "address"
				},
				{
					"internalType": "uint256",
					"name": "_tokenPrice",
					"type": "uint256"
				}
			],
			"stateMutability": "nonpayable",
			"type": "constructor"
		},
		{
			"anonymous": false,
			"inputs": [
				{
					"indexed": false,
					"internalType": "string",
					"name": "desc",
					"type": "string"
				},
				{
					"indexed": false,
					"internalType": "uint256[5]",
					"name": "value",
					"type": "uint256[5]"
				}
			],
			"name": "LogLine",
			"type": "event"
		},
		{
			"anonymous": false,
			"inputs": [
				{
					"indexed": false,
					"internalType": "string",
					"name": "desc",
					"type": "string"
				},
				{
					"indexed": false,
					"internalType": "uint256[5][3]",
					"name": "value",
					"type": "uint256[5][3]"
				}
			],
			"name": "LogSlots",
			"type": "event"
		},
		{
			"anonymous": false,
			"inputs": [
				{
					"indexed": false,
					"internalType": "string",
					"name": "message",
					"type": "string"
				}
			],
			"name": "LogString",
			"type": "event"
		},
		{
			"anonymous": false,
			"inputs": [
				{
					"indexed": false,
					"internalType": "string",
					"name": "desc",
					"type": "string"
				},
				{
					"indexed": false,
					"internalType": "uint256",
					"name": "value",
					"type": "uint256"
				}
			],
			"name": "LogUint256",
			"type": "event"
		},
		{
			"anonymous": false,
			"inputs": [
				{
					"indexed": false,
					"internalType": "string",
					"name": "desc",
					"type": "string"
				},
				{
					"indexed": false,
					"internalType": "uint256[]",
					"name": "value",
					"type": "uint256[]"
				}
			],
			"name": "LogUint256Array",
			"type": "event"
		},
		{
			"anonymous": false,
			"inputs": [
				{
					"indexed": true,
					"internalType": "address",
					"name": "previousOwner",
					"type": "address"
				},
				{
					"indexed": true,
					"internalType": "address",
					"name": "newOwner",
					"type": "address"
				}
			],
			"name": "OwnershipTransferred",
			"type": "event"
		},
		{
			"anonymous": false,
			"inputs": [
				{
					"indexed": false,
					"internalType": "address",
					"name": "user",
					"type": "address"
				},
				{
					"indexed": false,
					"internalType": "uint256",
					"name": "bet",
					"type": "uint256"
				},
				{
					"indexed": false,
					"internalType": "uint256",
					"name": "lines",
					"type": "uint256"
				},
				{
					"indexed": false,
					"internalType": "uint256",
					"name": "winAmount",
					"type": "uint256"
				},
				{
					"indexed": false,
					"internalType": "uint256[5]",
					"name": "slots",
					"type": "uint256[5]"
				},
				{
					"indexed": false,
					"internalType": "uint256[20]",
					"name": "spinWinLines",
					"type": "uint256[20]"
				},
				{
					"indexed": false,
					"internalType": "uint256[20]",
					"name": "spinWinSlots",
					"type": "uint256[20]"
				},
				{
					"indexed": false,
					"internalType": "uint256",
					"name": "maxLine",
					"type": "uint256"
				},
				{
					"indexed": false,
					"internalType": "uint256",
					"name": "maxLineWin",
					"type": "uint256"
				},
				{
					"indexed": false,
					"internalType": "uint256",
					"name": "maxWinSlot",
					"type": "uint256"
				}
			],
			"name": "ReelsSpinned",
			"type": "event"
		},
		{
			"inputs": [
				{
					"internalType": "uint256",
					"name": "bets",
					"type": "uint256"
				}
			],
			"name": "addUserBalance",
			"outputs": [],
			"stateMutability": "nonpayable",
			"type": "function"
		},
		{
			"inputs": [
				{
					"internalType": "uint256",
					"name": "tokenAmount",
					"type": "uint256"
				}
			],
			"name": "buyTokens",
			"outputs": [],
			"stateMutability": "nonpayable",
			"type": "function"
		},
		{
			"inputs": [],
			"name": "currency",
			"outputs": [
				{
					"internalType": "contract IERC20",
					"name": "",
					"type": "address"
				}
			],
			"stateMutability": "view",
			"type": "function"
		},
		{
			"inputs": [
				{
					"internalType": "uint256",
					"name": "bet",
					"type": "uint256"
				},
				{
					"internalType": "uint256",
					"name": "lineCount",
					"type": "uint256"
				},
				{
					"internalType": "bytes32",
					"name": "_seed",
					"type": "bytes32"
				}
			],
			"name": "doSpin",
			"outputs": [],
			"stateMutability": "nonpayable",
			"type": "function"
		},
		{
			"inputs": [
				{
					"internalType": "bytes32",
					"name": "_flushSeed",
					"type": "bytes32"
				}
			],
			"name": "flushRandom",
			"outputs": [],
			"stateMutability": "nonpayable",
			"type": "function"
		},
		{
			"inputs": [],
			"name": "getBankInTokens",
			"outputs": [
				{
					"internalType": "uint256",
					"name": "",
					"type": "uint256"
				}
			],
			"stateMutability": "view",
			"type": "function"
		},
		{
			"inputs": [],
			"name": "getCurrency",
			"outputs": [
				{
					"internalType": "address",
					"name": "",
					"type": "address"
				}
			],
			"stateMutability": "view",
			"type": "function"
		},
		{
			"inputs": [],
			"name": "getMaxBet",
			"outputs": [
				{
					"internalType": "uint256",
					"name": "",
					"type": "uint256"
				}
			],
			"stateMutability": "view",
			"type": "function"
		},
		{
			"inputs": [],
			"name": "getMaxLines",
			"outputs": [
				{
					"internalType": "uint256",
					"name": "",
					"type": "uint256"
				}
			],
			"stateMutability": "view",
			"type": "function"
		},
		{
			"inputs": [],
			"name": "getMultiplers",
			"outputs": [
				{
					"internalType": "uint256[5][9]",
					"name": "",
					"type": "uint256[5][9]"
				}
			],
			"stateMutability": "view",
			"type": "function"
		},
		{
			"inputs": [],
			"name": "getMyBalance",
			"outputs": [
				{
					"internalType": "uint256",
					"name": "",
					"type": "uint256"
				}
			],
			"stateMutability": "view",
			"type": "function"
		},
		{
			"inputs": [],
			"name": "getTokenPrice",
			"outputs": [
				{
					"internalType": "uint256",
					"name": "",
					"type": "uint256"
				}
			],
			"stateMutability": "view",
			"type": "function"
		},
		{
			"inputs": [
				{
					"internalType": "address",
					"name": "user",
					"type": "address"
				}
			],
			"name": "getUserBalance",
			"outputs": [
				{
					"internalType": "uint256",
					"name": "",
					"type": "uint256"
				}
			],
			"stateMutability": "view",
			"type": "function"
		},
		{
			"inputs": [],
			"name": "getWildSlot",
			"outputs": [
				{
					"internalType": "uint256",
					"name": "",
					"type": "uint256"
				}
			],
			"stateMutability": "view",
			"type": "function"
		},
		{
			"inputs": [],
			"name": "getWinLines",
			"outputs": [
				{
					"internalType": "uint256[5][]",
					"name": "",
					"type": "uint256[5][]"
				}
			],
			"stateMutability": "view",
			"type": "function"
		},
		{
			"inputs": [],
			"name": "owner",
			"outputs": [
				{
					"internalType": "address",
					"name": "",
					"type": "address"
				}
			],
			"stateMutability": "view",
			"type": "function"
		},
		{
			"inputs": [
				{
					"internalType": "address",
					"name": "",
					"type": "address"
				},
				{
					"internalType": "uint256",
					"name": "",
					"type": "uint256"
				}
			],
			"name": "playerSpins",
			"outputs": [
				{
					"internalType": "uint256",
					"name": "spinId",
					"type": "uint256"
				},
				{
					"internalType": "address",
					"name": "player",
					"type": "address"
				},
				{
					"internalType": "uint256",
					"name": "bet",
					"type": "uint256"
				},
				{
					"internalType": "uint256",
					"name": "utx",
					"type": "uint256"
				},
				{
					"internalType": "uint256",
					"name": "lines",
					"type": "uint256"
				},
				{
					"internalType": "uint256",
					"name": "winAmount",
					"type": "uint256"
				}
			],
			"stateMutability": "view",
			"type": "function"
		},
		{
			"inputs": [],
			"name": "renounceOwnership",
			"outputs": [],
			"stateMutability": "nonpayable",
			"type": "function"
		},
		{
			"inputs": [
				{
					"internalType": "uint256",
					"name": "newTokenPrice",
					"type": "uint256"
				},
				{
					"internalType": "uint256",
					"name": "newMaxBet",
					"type": "uint256"
				},
				{
					"internalType": "uint256",
					"name": "newMaxLines",
					"type": "uint256"
				},
				{
					"internalType": "uint256",
					"name": "newWildSlot",
					"type": "uint256"
				},
				{
					"internalType": "uint256[5][9]",
					"name": "newWinCombinations",
					"type": "uint256[5][9]"
				}
			],
			"name": "saveSettings",
			"outputs": [],
			"stateMutability": "nonpayable",
			"type": "function"
		},
		{
			"inputs": [
				{
					"internalType": "address",
					"name": "newCurrency",
					"type": "address"
				}
			],
			"name": "setCurrency",
			"outputs": [],
			"stateMutability": "nonpayable",
			"type": "function"
		},
		{
			"inputs": [
				{
					"internalType": "uint256",
					"name": "newMaxBet",
					"type": "uint256"
				}
			],
			"name": "setMaxBet",
			"outputs": [],
			"stateMutability": "nonpayable",
			"type": "function"
		},
		{
			"inputs": [
				{
					"internalType": "uint256",
					"name": "newMaxLines",
					"type": "uint256"
				}
			],
			"name": "setMaxLines",
			"outputs": [],
			"stateMutability": "nonpayable",
			"type": "function"
		},
		{
			"inputs": [
				{
					"internalType": "uint256[5][9]",
					"name": "_slotMult",
					"type": "uint256[5][9]"
				}
			],
			"name": "setMultiplers",
			"outputs": [],
			"stateMutability": "nonpayable",
			"type": "function"
		},
		{
			"inputs": [
				{
					"internalType": "uint256",
					"name": "newTokenPrice",
					"type": "uint256"
				}
			],
			"name": "setTokenPrice",
			"outputs": [],
			"stateMutability": "nonpayable",
			"type": "function"
		},
		{
			"inputs": [
				{
					"internalType": "uint256",
					"name": "_newWildSlot",
					"type": "uint256"
				}
			],
			"name": "setWildSlot",
			"outputs": [],
			"stateMutability": "nonpayable",
			"type": "function"
		},
		{
			"inputs": [
				{
					"internalType": "uint256[5][]",
					"name": "_winLines",
					"type": "uint256[5][]"
				}
			],
			"name": "setWinLines",
			"outputs": [],
			"stateMutability": "nonpayable",
			"type": "function"
		},
		{
			"inputs": [],
			"name": "tokenPrice",
			"outputs": [
				{
					"internalType": "uint256",
					"name": "",
					"type": "uint256"
				}
			],
			"stateMutability": "view",
			"type": "function"
		},
		{
			"inputs": [
				{
					"internalType": "address",
					"name": "newOwner",
					"type": "address"
				}
			],
			"name": "transferOwnership",
			"outputs": [],
			"stateMutability": "nonpayable",
			"type": "function"
		},
		{
			"inputs": [],
			"name": "withdrawTokens",
			"outputs": [],
			"stateMutability": "nonpayable",
			"type": "function"
		}
	]
}