{
	"data": {
		"bytecode": {
			"linkReferences": {},
			"object": "6003805463ffffffff191660051790556001600681905560078190556008805460ff19169055620f42406009556064600a556014600b819055610300828152610320839052610340839052610360839052610380839052608090815260006103a08181526103c08290526103e082905261040082905261042082905260a05260026104408181526104608290526104808290526104a08290526104c082905260c0526104e085815261050086905261052083905261054086905261056082905260e0526105808581526105a08690526105c08290526105e0869052610600839052610100526106208581526106408390526106608690526106808290526106a0869052610120526106c08581526106e0839052610700869052610720829052610740829052610140526107608581526107808390526107a08390526107c08690526107e082905261016052610800858152610820829052610840869052610860839052610880869052610180526108a08581526108c08290526108e08290526109008690526109208390526101a0526109408581526109608290526109808690526109a08390526109c08390526101c0526109e0828152610a00869052610a20829052610a40869052610a608390526101e052610a80828152610aa0869052610ac0869052610ae0869052610b0082905261020052610b20828152610b40839052610b60869052610b80829052610ba082905261022052610bc0828152610be0839052610c00869052610c20829052610c4086905261024052610c60828152610c80839052610ca0839052610cc0869052610ce082905261026052610d00818152610d20869052610d40839052610d60869052610d8082905261028052610da0818152610dc0869052610de0869052610e00869052610e208390526102a052610e40818152610e60829052610e80869052610ea0839052610ec08390526102c052610f80604052610ee0818152610f0091909152610f20859052610f4091909152610f60939093526102e092909252620002fc91600c916200061b565b506040518061012001604052806040518060a001604052806000815260200160008152602001601481526020016050815260200160c881525081526020016040518060a0016040528060008152602001600081526020016028815260200161019081526020016107d081525081526020016040518060a001604052806000815260200160088152602001600f8152602001607881526020016101f481525081526020016040518060a0016040528060008152602001600281526020016008815260200160148152602001605081525081526020016040518060a0016040528060008152602001600081526020016008815260200160148152602001605081525081526020016040518060a001604052806000815260200160008152602001601481526020016050815260200160c881525081526020016040518060a0016040528060008152602001600081526020016008815260200160148152602001605081525081526020016040518060a0016040528060008152602001600081526020016014815260200160c881526020016103e881525081526020016040518060a0016040528060008152602001600081526020016002815260200160058152602001600f815250815250600d906009620004d69291906200067c565b506040805160a081018252620186a0815261271060208201526103e89181019190915260646060820152600a60808201526200051790603a906005620006bc565b506040805160a08101825261271081526103e8602082015260649181018290526060810191909152600160808201526200055690603f90600562000702565b506000604481905560458190556046553480156200057357600080fd5b506040516200373a3803806200373a8339810160408190526200059691620007e8565b620005a133620005cb565b600580546001600160a01b0319166001600160a01b03939093169290921790915560065562000824565b600080546001600160a01b038381166001600160a01b0319831681178455604051919092169283917f8be0079c531659141344cd1fd0a4f28419497f9722a3daafe3b4186f6b6457e09190a35050565b8280548282559060005260206000209060050281019282156200066a579160200282015b828111156200066a57825162000659908390600562000739565b50916020019190600501906200063f565b50620006789291506200076f565b5090565b602d830191839082156200066a579160200282015b828111156200066a578251620006ab9083906005620007a0565b509160200191906005019062000691565b8260058101928215620006f4579160200282015b82811115620006f4578251829062ffffff16905591602001919060010190620006d0565b5062000678929150620007d1565b8260058101928215620006f4579160200282015b82811115620006f4578251829061ffff1690559160200191906001019062000716565b8260058101928215620006f4579160200282015b82811115620006f4578251829060ff169055916020019190600101906200074d565b808211156200067857600080825560018201819055600282018190556003820181905560048201556005016200076f565b8260058101928215620006f4579160200282015b82811115620006f4578251825591602001919060010190620007b4565b5b80821115620006785760008155600101620007d2565b60008060408385031215620007fc57600080fd5b82516001600160a01b03811681146200081457600080fd5b6020939093015192949293505050565b612f0680620008346000396000f3fe6080604052600436106101d15760003560e01c80637ff9b596116100f7578063d3f0a7ce11610095578063f2fde38b11610064578063f2fde38b1461062c578063f7e944ee1461064c578063fda0ef891461066c578063ff7f0cf91461068157600080fd5b8063d3f0a7ce146105a8578063e3c7b05e146105ca578063e5a6b10f146105ea578063e9a4a03d1461061757600080fd5b8063881eff1e116100d1578063881eff1e146105285780638d8f2adb146105485780638da5cb5b1461055d578063a3e2e8ce1461058857600080fd5b80637ff9b596146104df57806381b87e54146104f557806381d9e78c1461051557600080fd5b80634b94f50e1161016f5780636945c1fd1161013e5780636945c1fd1461043e5780636a61e5fc1461048a5780636f43022c146104aa578063715018a6146104ca57600080fd5b80634b94f50e146103d25780634c738909146103e75780636012cb1914610409578063646668b61461042957600080fd5b80633610724e116101ab5780633610724e1461032d5780634282cf541461034d578063477348921461036f5780634afa1905146103b257600080fd5b806309b9dd891461028757806317adaa03146102ab5780632f84c3911461030d57600080fd5b366102825760055473ffffffffffffffffffffffffffffffffffffffff1615610280576040517f08c379a0000000000000000000000000000000000000000000000000000000008152602060048201526024808201527f4552433230206973207365747465642e2045746820626574206e6f7420616c6c60448201527f6f7765640000000000000000000000000000000000000000000000000000000060648201526084015b60405180910390fd5b005b600080fd5b34801561029357600080fd5b50600b545b6040519081526020015b60405180910390f35b3480156102b757600080fd5b506102cb6102c6366004612867565b610696565b6040805196875273ffffffffffffffffffffffffffffffffffffffff9095166020870152938501929092526060840152608083015260a082015260c0016102a2565b34801561031957600080fd5b50610280610328366004612891565b610701565b34801561033957600080fd5b506102806103483660046128ac565b610750565b34801561035957600080fd5b50610362610a83565b6040516102a291906128f9565b34801561037b57600080fd5b5061029861038a366004612891565b73ffffffffffffffffffffffffffffffffffffffff1660009081526004602052604090205490565b3480156103be57600080fd5b506102806103cd366004612a9d565b610b01565b3480156103de57600080fd5b50600654610298565b3480156103f357600080fd5b5033600090815260046020526040902054610298565b34801561041557600080fd5b506102806104243660046128ac565b610b32565b34801561043557600080fd5b50600a54610298565b34801561044a57600080fd5b5060055473ffffffffffffffffffffffffffffffffffffffff165b60405173ffffffffffffffffffffffffffffffffffffffff90911681526020016102a2565b34801561049657600080fd5b506102806104a53660046128ac565b610b3f565b3480156104b657600080fd5b506102806104c5366004612ae8565b610b4c565b3480156104d657600080fd5b50610280610b6b565b3480156104eb57600080fd5b5061029860065481565b34801561050157600080fd5b50610280610510366004612b98565b610b7f565b610280610523366004612bb5565b610b94565b34801561053457600080fd5b506102806105433660046128ac565b610fc9565b34801561055457600080fd5b50610280610fd6565b34801561056957600080fd5b5060005473ffffffffffffffffffffffffffffffffffffffff16610465565b34801561059457600080fd5b506102806105a3366004612bb5565b61129c565b3480156105b457600080fd5b506105bd61155d565b6040516102a29190612be1565b3480156105d657600080fd5b506102806105e53660046128ac565b6115c0565b3480156105f657600080fd5b506005546104659073ffffffffffffffffffffffffffffffffffffffff1681565b34801561062357600080fd5b506102986115cd565b34801561063857600080fd5b50610280610647366004612891565b61169d565b34801561065857600080fd5b506102806106673660046128ac565b611754565b34801561067857600080fd5b50600754610298565b34801561068d57600080fd5b5061028061180d565b600160205281600052604060002081815481106106b257600080fd5b60009182526020909120600b9091020180546001820154600283015460038401546004850154600a9095015493965073ffffffffffffffffffffffffffffffffffffffff909216945092909186565b61070961198d565b600580547fffffffffffffffffffffffff00000000000000000000000000000000000000001673ffffffffffffffffffffffffffffffffffffffff92909216919091179055565b60055473ffffffffffffffffffffffffffffffffffffffff166107cf576040517f08c379a000000000000000000000000000000000000000000000000000000000815260206004820152601a60248201527f4552433230206e6f74207365747465642e204f6e6c79206574680000000000006044820152606401610277565b6000600654826107df9190612c48565b6005546040517f70a0823100000000000000000000000000000000000000000000000000000000815233600482015291925060009173ffffffffffffffffffffffffffffffffffffffff909116906370a0823190602401602060405180830381865afa158015610853573d6000803e3d6000fd5b505050506040513d601f19601f820116820180604052508101906108779190612c5f565b905081811015610909576040517f08c379a000000000000000000000000000000000000000000000000000000000815260206004820152603460248201527f596f7520646f206e6f74206861766520656e6f75676820746f6b656e73206f6e60448201527f20796f75722062616c616e636520746f207061790000000000000000000000006064820152608401610277565b6005546040517fdd62ed3e00000000000000000000000000000000000000000000000000000000815233600482015230602482015260009173ffffffffffffffffffffffffffffffffffffffff169063dd62ed3e90604401602060405180830381865afa15801561097e573d6000803e3d6000fd5b505050506040513d601f19601f820116820180604052508101906109a29190612c5f565b905082811015610a34576040517f08c379a000000000000000000000000000000000000000000000000000000000815260206004820152603a60248201527f596f7520646964206e6f7420616c6c6f772074686520636f6e7472616374207460448201527f6f2073656e642074686520707572636861736520616d6f756e740000000000006064820152608401610277565b600554610a599073ffffffffffffffffffffffffffffffffffffffff16333086611a0e565b3360009081526004602052604081208054869290610a78908490612c78565b909155505050505050565b6060600c805480602002602001604051908101604052809291908181526020016000905b82821015610af8576000848152602090206040805160a08101918290529160058581029091019182845b815481526020019060010190808311610ad157505050505081526020019060010190610aa7565b50505050905090565b610b0961198d565b6006859055600a849055600b8390556007829055610b2a600d826009612693565b505050505050565b610b3a61198d565b600b55565b610b4761198d565b600655565b610b5461198d565b8051610b6790600c9060208401906126de565b5050565b610b7361198d565b610b7d6000611aa9565b565b610b8761198d565b610b67600d826009612693565b60055473ffffffffffffffffffffffffffffffffffffffff1615610c39576040517f08c379a0000000000000000000000000000000000000000000000000000000008152602060048201526024808201527f4552433230206973207365747465642e2045746820626574206e6f7420616c6c60448201527f6f776564000000000000000000000000000000000000000000000000000000006064820152608401610277565b600a54831115610ca5576040517f08c379a000000000000000000000000000000000000000000000000000000000815260206004820152600b60248201527f42657420746f6f206269670000000000000000000000000000000000000000006044820152606401610277565b6000610cb18385612c48565b9050600b54831115610d1f576040517f08c379a000000000000000000000000000000000000000000000000000000000815260206004820152600e60248201527f546f6f206d616e79206c696e65730000000000000000000000000000000000006044820152606401610277565b600c54610d2d906001612c78565b831115610d96576040517f08c379a000000000000000000000000000000000000000000000000000000000815260206004820152600e60248201527f546f6f206d616e79206c696e65730000000000000000000000000000000000006044820152606401610277565b600060065482610da69190612c48565b905080341015610e38576040517f08c379a000000000000000000000000000000000000000000000000000000000815260206004820152602160248201527f596f752068617665206e6f74207061696420656e6f75676820666f722073706960448201527f6e000000000000000000000000000000000000000000000000000000000000006064820152608401610277565b610e46600280546001019055565b6000610e5160025490565b90506000610e6182888888611b1e565b90508015610fc057600060065482610e799190612c48565b905080471015610ee5576040517f08c379a000000000000000000000000000000000000000000000000000000000815260206004820152601d60248201527f416464726573733a20696e73756666696369656e742062616c616e63650000006044820152606401610277565b604051600090339083908381818185875af1925050503d8060008114610f27576040519150601f19603f3d011682016040523d82523d6000602084013e610f2c565b606091505b5050905080610fbd576040517f08c379a000000000000000000000000000000000000000000000000000000000815260206004820152603a60248201527f416464726573733a20756e61626c6520746f2073656e642076616c75652c207260448201527f6563697069656e74206d617920686176652072657665727465640000000000006064820152608401610277565b50505b50505050505050565b610fd161198d565b600a55565b60055473ffffffffffffffffffffffffffffffffffffffff16611055576040517f08c379a000000000000000000000000000000000000000000000000000000000815260206004820152601a60248201527f4552433230206e6f74207365747465642e204f6e6c79206574680000000000006044820152606401610277565b336000908152600460205260409020546110cb576040517f08c379a000000000000000000000000000000000000000000000000000000000815260206004820152601e60248201527f4e6f7420656e6f75746820746f6b656e7320666f7220776974686472617700006044820152606401610277565b6006543360009081526004602052604081205490916110e991612c48565b6005546040517f70a0823100000000000000000000000000000000000000000000000000000000815230600482015291925060009173ffffffffffffffffffffffffffffffffffffffff909116906370a0823190602401602060405180830381865afa15801561115d573d6000803e3d6000fd5b505050506040513d601f19601f820116820180604052508101906111819190612c5f565b90508181116111ec576040517f08c379a000000000000000000000000000000000000000000000000000000000815260206004820152601960248201527f4e6f7420656e6f75746820746f6b656e7320696e2062616e6b000000000000006044820152606401610277565b6005546040517fa9059cbb0000000000000000000000000000000000000000000000000000000081523360048201526024810184905273ffffffffffffffffffffffffffffffffffffffff9091169063a9059cbb906044016020604051808303816000875af1158015611263573d6000803e3d6000fd5b505050506040513d601f19601f820116820180604052508101906112879190612c8b565b50503360009081526004602052604081205550565b60055473ffffffffffffffffffffffffffffffffffffffff1661131b576040517f08c379a000000000000000000000000000000000000000000000000000000000815260206004820152601a60248201527f4552433230206e6f74207365747465642e204f6e6c79206574680000000000006044820152606401610277565b600a54831115611387576040517f08c379a000000000000000000000000000000000000000000000000000000000815260206004820152600b60248201527f42657420746f6f206269670000000000000000000000000000000000000000006044820152606401610277565b60006113938385612c48565b3360009081526004602052604090205490915081111561140f576040517f08c379a000000000000000000000000000000000000000000000000000000000815260206004820152601360248201527f42616c616e6365206e6f7420656e6f75676874000000000000000000000000006044820152606401610277565b600b5483111561147b576040517f08c379a000000000000000000000000000000000000000000000000000000000815260206004820152600e60248201527f546f6f206d616e79206c696e65730000000000000000000000000000000000006044820152606401610277565b600c54611489906001612c78565b8311156114f2576040517f08c379a000000000000000000000000000000000000000000000000000000000815260206004820152600e60248201527f546f6f206d616e79206c696e65730000000000000000000000000000000000006044820152606401610277565b611500600280546001019055565b600061150b60025490565b9050600061151b82878787611b1e565b33600090815260046020526040902054909150819061153b908590612cad565b6115459190612c78565b33600090815260046020526040902055505050505050565b611565612728565b604080516101208101909152600d60096000835b82821015610af8576040805160a081019182905290600584810287019182845b81548152602001906001019080831161159957505050505081526020019060010190611579565b6115c861198d565b600755565b60055460009073ffffffffffffffffffffffffffffffffffffffff166115f35750600090565b6005546040517f70a0823100000000000000000000000000000000000000000000000000000000815230600482015260009173ffffffffffffffffffffffffffffffffffffffff16906370a0823190602401602060405180830381865afa158015611662573d6000803e3d6000fd5b505050506040513d601f19601f820116820180604052508101906116869190612c5f565b9050600061169682600654611d7b565b9392505050565b6116a561198d565b73ffffffffffffffffffffffffffffffffffffffff8116611748576040517f08c379a000000000000000000000000000000000000000000000000000000000815260206004820152602660248201527f4f776e61626c653a206e6577206f776e657220697320746865207a65726f206160448201527f64647265737300000000000000000000000000000000000000000000000000006064820152608401610277565b61175181611aa9565b50565b61175c61198d565b6000611769826005611d90565b90506000426044546046546045548686436117849190612cad565b404461178f60025490565b6040805160208101999099528801969096526060870194909452608086019290925260a085015260c084015260e083015261010082015261012001604080517fffffffffffffffffffffffffffffffffffffffffffffffffffffffffffffffe081840301815291905280516020909101206045805460465555505050565b61181561198d565b60055473ffffffffffffffffffffffffffffffffffffffff1661185e5760405133904780156108fc02916000818181858888f19350505050158015611751573d6000803e3d6000fd5b6005546040517f70a0823100000000000000000000000000000000000000000000000000000000815230600482015260009173ffffffffffffffffffffffffffffffffffffffff16906370a0823190602401602060405180830381865afa1580156118cd573d6000803e3d6000fd5b505050506040513d601f19601f820116820180604052508101906118f19190612c5f565b6005546040517fa9059cbb0000000000000000000000000000000000000000000000000000000081523360048201526024810183905291925073ffffffffffffffffffffffffffffffffffffffff169063a9059cbb906044016020604051808303816000875af1158015611969573d6000803e3d6000fd5b505050506040513d601f19601f82011682018060405250810190610b679190612c8b565b60005473ffffffffffffffffffffffffffffffffffffffff163314610b7d576040517f08c379a000000000000000000000000000000000000000000000000000000000815260206004820181905260248201527f4f776e61626c653a2063616c6c6572206973206e6f7420746865206f776e65726044820152606401610277565b6040805173ffffffffffffffffffffffffffffffffffffffff85811660248301528416604482015260648082018490528251808303909101815260849091019091526020810180517bffffffffffffffffffffffffffffffffffffffffffffffffffffffff167f23b872dd00000000000000000000000000000000000000000000000000000000179052611aa3908590611db3565b50505050565b6000805473ffffffffffffffffffffffffffffffffffffffff8381167fffffffffffffffffffffffff0000000000000000000000000000000000000000831681178455604051919092169283917f8be0079c531659141344cd1fd0a4f28419497f9722a3daafe3b4186f6b6457e09190a35050565b600080611b2a83611ec4565b90506000806000611b39612756565b611b41612756565b6000805b8a811015611bce57600080611b5a838b61212e565b9092509050611b698e83612c48565b9150611b758285612c78565b935081868460148110611b8a57611b8a612cc0565b602002015280858460148110611ba257611ba2612cc0565b602002015287821115611bb9578298508197508096505b50508080611bc690612cef565b915050611b45565b50600160003373ffffffffffffffffffffffffffffffffffffffff1673ffffffffffffffffffffffffffffffffffffffff1681526020019081526020016000206040518060e001604052808e81526020013373ffffffffffffffffffffffffffffffffffffffff1681526020018d81526020014281526020018c815260200189600160038110611c6057611c60612cc0565b6020908102919091015182529081018490528254600180820185556000948552938290208351600b909202019081559082015192810180547fffffffffffffffffffffffff00000000000000000000000000000000000000001673ffffffffffffffffffffffffffffffffffffffff9094169390931790925560408101516002830155606081015160038301556080810151600483015560a0810151909190611d0f9060058084019190612775565b5060c09190910151600a9091015560208701516040517f6c98c6ad5e22111183c867670bead07208dbd3aba882d6bd87adbbbdb645d59a91611d629133918f918f9187918a908a908f908f908f90612d4a565b60405180910390a196505050505050505b949350505050565b6000611d878284612e17565b90505b92915050565b600080611d9c84612443565b90506000611daa8483612e2b565b95945050505050565b6000611e15826040518060400160405280602081526020017f5361666545524332303a206c6f772d6c6576656c2063616c6c206661696c65648152508573ffffffffffffffffffffffffffffffffffffffff166125229092919063ffffffff16565b805190915015611ebf5780806020019051810190611e339190612c8b565b611ebf576040517f08c379a000000000000000000000000000000000000000000000000000000000815260206004820152602a60248201527f5361666545524332303a204552433230206f7065726174696f6e20646964206e60448201527f6f742073756363656564000000000000000000000000000000000000000000006064820152608401610277565b505050565b611ecc6127af565b6000611ed783612443565b90506000611ee8620186a083612e2b565b611ef590620186a0612c78565b9050600080600060405180606001604052806040518060a0016040528060008152602001600081526020016000815260200160008152602001600081525081526020016040518060a00160405280603f600060058110611f5757611f57612cc0565b0154603a54611f6c9063ffffffff8b16612e2b565b611f769190612e17565b8152604054603b54602090920191611f949063ffffffff8b16612e2b565b611f9e9190612e17565b8152604154603c54602090920191611fbc9063ffffffff8b16612e2b565b611fc69190612e17565b8152604254603d54602090920191611fe49063ffffffff8b16612e2b565b611fee9190612e17565b8152604354603e5460209092019161200c9063ffffffff8b16612e2b565b6120169190612e17565b81525081526020016040518060a001604052806000815260200160008152602001600081526020016000815260200160008152508152509050600092505b60035463ffffffff16831015612124576020810151836005811061207a5761207a612cc0565b602002015191508160090361208e57600091505b6020810151829084600581106120a6576120a6612cc0565b602002015281156120c1576120bc600183612cad565b6120c4565b60085b815184600581106120d7576120d7612cc0565b6020020152600882146120f4576120ef826001612c78565b6120f7565b60005b6040820151846005811061210d5761210d612cc0565b60200201528261211c81612cef565b935050612054565b9695505050505050565b600080808080805b60058110156121ce5760075487600c8a8154811061215657612156612cc0565b9060005260206000209060050201836005811061217557612175612cc0565b01546003811061218757612187612cc0565b6020020151826005811061219d5761219d612cc0565b6020020151146121af578092506121ce565b836121b981612cef565b945050806121c681612cef565b915050612136565b5060008311801561221457506000600d600754600981106121f1576121f1612cc0565b60050201612200600186612cad565b6005811061221057612210612cc0565b0154115b15612263576000600d6007546009811061223057612230612cc0565b6005020161223f600186612cad565b6005811061224f5761224f612cc0565b0154600754909650945061243c9350505050565b8261226d81612cef565b93505085600c888154811061228457612284612cc0565b906000526020600020906005020183600581106122a3576122a3612cc0565b0154600381106122b5576122b5612cc0565b602002015182600581106122cb576122cb612cc0565b6020020151905060006122df836001612c78565b90505b60058110156123e6578187600c8a8154811061230057612300612cc0565b9060005260206000209060050201836005811061231f5761231f612cc0565b01546003811061233157612331612cc0565b6020020151826005811061234757612347612cc0565b602002015114806123b8575060075487600c8a8154811061236a5761236a612cc0565b9060005260206000209060050201836005811061238957612389612cc0565b01546003811061239b5761239b612cc0565b602002015182600581106123b1576123b1612cc0565b6020020151145b156123cf57836123c781612cef565b9450506123d4565b6123e6565b806123de81612cef565b9150506122e2565b508215612431576000600d826009811061240257612402612cc0565b60050201612411600186612cad565b6005811061242157612421612cc0565b0154955090935061243c92505050565b600080945094505050505b9250929050565b600080428360445460455460465460014361245e9190612cad565b40443a335a60025460408051602081019c909c528b01999099526060808b019890985260808a019690965260a089019490945260c088019290925260e087015261010086015290911b7fffffffffffffffffffffffffffffffffffffffff0000000000000000000000001661012084015261013483015261015482015261017401604080517fffffffffffffffffffffffffffffffffffffffffffffffffffffffffffffffe081840301815291905280516020909101206044939093555090919050565b6060611d738484600085856000808673ffffffffffffffffffffffffffffffffffffffff1685876040516125569190612e63565b60006040518083038185875af1925050503d8060008114612593576040519150601f19603f3d011682016040523d82523d6000602084013e612598565b606091505b50915091506125a9878383876125b4565b979650505050505050565b6060831561264a5782516000036126435773ffffffffffffffffffffffffffffffffffffffff85163b612643576040517f08c379a000000000000000000000000000000000000000000000000000000000815260206004820152601d60248201527f416464726573733a2063616c6c20746f206e6f6e2d636f6e74726163740000006044820152606401610277565b5081611d73565b611d73838381511561265f5781518083602001fd5b806040517f08c379a00000000000000000000000000000000000000000000000000000000081526004016102779190612e7f565b602d830191839082156126ce579160200282015b828111156126ce5782516126be9083906005612775565b50916020019190600501906126a7565b506126da9291506127dc565b5090565b8280548282559060005260206000209060050281019282156126ce579160200282015b828111156126ce5782516127189083906005612775565b5091602001919060050190612701565b6040518061012001604052806009905b61274061280b565b8152602001906001900390816127385790505090565b6040518061028001604052806014906020820280368337509192915050565b82600581019282156127a3579160200282015b828111156127a3578251825591602001919060010190612788565b506126da929150612829565b60405180606001604052806003905b6127c661280b565b8152602001906001900390816127be5790505090565b808211156126da57600080825560018201819055600282018190556003820181905560048201556005016127dc565b6040518060a001604052806005906020820280368337509192915050565b5b808211156126da576000815560010161282a565b803573ffffffffffffffffffffffffffffffffffffffff8116811461286257600080fd5b919050565b6000806040838503121561287a57600080fd5b6128838361283e565b946020939093013593505050565b6000602082840312156128a357600080fd5b611d878261283e565b6000602082840312156128be57600080fd5b5035919050565b60008282825b60058110156128ea5781518352602092830192909101906001016128cb565b50505060a08301905092915050565b6020808252825182820181905260009190848201906040850190845b81811015612936576129288385516128c5565b938501939250600101612915565b50909695505050505050565b7f4e487b7100000000000000000000000000000000000000000000000000000000600052604160045260246000fd5b604051601f82017fffffffffffffffffffffffffffffffffffffffffffffffffffffffffffffffe016810167ffffffffffffffff811182821017156129b8576129b8612942565b604052919050565b600082601f8301126129d157600080fd5b60405160a0810181811067ffffffffffffffff821117156129f4576129f4612942565b6040528060a0840185811115612a0957600080fd5b845b81811015612a23578035835260209283019201612a0b565b509195945050505050565b600082601f830112612a3f57600080fd5b604051610120810181811067ffffffffffffffff82111715612a6357612a63612942565b604052806105a0840185811115612a7957600080fd5b845b81811015612a2357612a8d87826129c0565b835260209092019160a001612a7b565b60008060008060006106208688031215612ab657600080fd5b85359450602086013593506040860135925060608601359150612adc8760808801612a2e565b90509295509295909350565b60006020808385031215612afb57600080fd5b823567ffffffffffffffff80821115612b1357600080fd5b818501915085601f830112612b2757600080fd5b813581811115612b3957612b39612942565b612b47848260051b01612971565b818152848101925060a0918202840185019188831115612b6657600080fd5b938501935b82851015612b8c57612b7d89866129c0565b84529384019392850192612b6b565b50979650505050505050565b60006105a08284031215612bab57600080fd5b611d878383612a2e565b600080600060608486031215612bca57600080fd5b505081359360208301359350604090920135919050565b6105a08101818360005b6009811015612c1057612bff8383516128c5565b925060209190910190600101612beb565b50505092915050565b7f4e487b7100000000000000000000000000000000000000000000000000000000600052601160045260246000fd5b8082028115828204841417611d8a57611d8a612c19565b600060208284031215612c7157600080fd5b5051919050565b80820180821115611d8a57611d8a612c19565b600060208284031215612c9d57600080fd5b8151801515811461169657600080fd5b81810381811115611d8a57611d8a612c19565b7f4e487b7100000000000000000000000000000000000000000000000000000000600052603260045260246000fd5b60007fffffffffffffffffffffffffffffffffffffffffffffffffffffffffffffffff8203612d2057612d20612c19565b5060010190565b8060005b6014811015611aa3578151845260209384019390910190600101612d2b565b60006106808201905073ffffffffffffffffffffffffffffffffffffffff8c16825260208b818401528a6040840152896060840152608083018960005b6005811015612da457815183529183019190830190600101612d87565b50505050612db6610120830188612d27565b612dc46103a0830187612d27565b8461062083015283610640830152826106608301529b9a5050505050505050505050565b7f4e487b7100000000000000000000000000000000000000000000000000000000600052601260045260246000fd5b600082612e2657612e26612de8565b500490565b600082612e3a57612e3a612de8565b500690565b60005b83811015612e5a578181015183820152602001612e42565b50506000910152565b60008251612e75818460208701612e3f565b9190910192915050565b6020815260008251806020840152612e9e816040850160208701612e3f565b601f017fffffffffffffffffffffffffffffffffffffffffffffffffffffffffffffffe016919091016040019291505056fea264697066735822122048bcbd5b52089d8da79bd05e67cf57e04cb60843fdc0476af9a47bd0b0d0f3fd64736f6c63430008110033",
			"opcodes": "PUSH1 0x3 DUP1 SLOAD PUSH4 0xFFFFFFFF NOT AND PUSH1 0x5 OR SWAP1 SSTORE PUSH1 0x1 PUSH1 0x6 DUP2 SWAP1 SSTORE PUSH1 0x7 DUP2 SWAP1 SSTORE PUSH1 0x8 DUP1 SLOAD PUSH1 0xFF NOT AND SWAP1 SSTORE PUSH3 0xF4240 PUSH1 0x9 SSTORE PUSH1 0x64 PUSH1 0xA SSTORE PUSH1 0x14 PUSH1 0xB DUP2 SWAP1 SSTORE PUSH2 0x300 DUP3 DUP2 MSTORE PUSH2 0x320 DUP4 SWAP1 MSTORE PUSH2 0x340 DUP4 SWAP1 MSTORE PUSH2 0x360 DUP4 SWAP1 MSTORE PUSH2 0x380 DUP4 SWAP1 MSTORE PUSH1 0x80 SWAP1 DUP2 MSTORE PUSH1 0x0 PUSH2 0x3A0 DUP2 DUP2 MSTORE PUSH2 0x3C0 DUP3 SWAP1 MSTORE PUSH2 0x3E0 DUP3 SWAP1 MSTORE PUSH2 0x400 DUP3 SWAP1 MSTORE PUSH2 0x420 DUP3 SWAP1 MSTORE PUSH1 0xA0 MSTORE PUSH1 0x2 PUSH2 0x440 DUP2 DUP2 MSTORE PUSH2 0x460 DUP3 SWAP1 MSTORE PUSH2 0x480 DUP3 SWAP1 MSTORE PUSH2 0x4A0 DUP3 SWAP1 MSTORE PUSH2 0x4C0 DUP3 SWAP1 MSTORE PUSH1 0xC0 MSTORE PUSH2 0x4E0 DUP6 DUP2 MSTORE PUSH2 0x500 DUP7 SWAP1 MSTORE PUSH2 0x520 DUP4 SWAP1 MSTORE PUSH2 0x540 DUP7 SWAP1 MSTORE PUSH2 0x560 DUP3 SWAP1 MSTORE PUSH1 0xE0 MSTORE PUSH2 0x580 DUP6 DUP2 MSTORE PUSH2 0x5A0 DUP7 SWAP1 MSTORE PUSH2 0x5C0 DUP3 SWAP1 MSTORE PUSH2 0x5E0 DUP7 SWAP1 MSTORE PUSH2 0x600 DUP4 SWAP1 MSTORE PUSH2 0x100 MSTORE PUSH2 0x620 DUP6 DUP2 MSTORE PUSH2 0x640 DUP4 SWAP1 MSTORE PUSH2 0x660 DUP7 SWAP1 MSTORE PUSH2 0x680 DUP3 SWAP1 MSTORE PUSH2 0x6A0 DUP7 SWAP1 MSTORE PUSH2 0x120 MSTORE PUSH2 0x6C0 DUP6 DUP2 MSTORE PUSH2 0x6E0 DUP4 SWAP1 MSTORE PUSH2 0x700 DUP7 SWAP1 MSTORE PUSH2 0x720 DUP3 SWAP1 MSTORE PUSH2 0x740 DUP3 SWAP1 MSTORE PUSH2 0x140 MSTORE PUSH2 0x760 DUP6 DUP2 MSTORE PUSH2 0x780 DUP4 SWAP1 MSTORE PUSH2 0x7A0 DUP4 SWAP1 MSTORE PUSH2 0x7C0 DUP7 SWAP1 MSTORE PUSH2 0x7E0 DUP3 SWAP1 MSTORE PUSH2 0x160 MSTORE PUSH2 0x800 DUP6 DUP2 MSTORE PUSH2 0x820 DUP3 SWAP1 MSTORE PUSH2 0x840 DUP7 SWAP1 MSTORE PUSH2 0x860 DUP4 SWAP1 MSTORE PUSH2 0x880 DUP7 SWAP1 MSTORE PUSH2 0x180 MSTORE PUSH2 0x8A0 DUP6 DUP2 MSTORE PUSH2 0x8C0 DUP3 SWAP1 MSTORE PUSH2 0x8E0 DUP3 SWAP1 MSTORE PUSH2 0x900 DUP7 SWAP1 MSTORE PUSH2 0x920 DUP4 SWAP1 MSTORE PUSH2 0x1A0 MSTORE PUSH2 0x940 DUP6 DUP2 MSTORE PUSH2 0x960 DUP3 SWAP1 MSTORE PUSH2 0x980 DUP7 SWAP1 MSTORE PUSH2 0x9A0 DUP4 SWAP1 MSTORE PUSH2 0x9C0 DUP4 SWAP1 MSTORE PUSH2 0x1C0 MSTORE PUSH2 0x9E0 DUP3 DUP2 MSTORE PUSH2 0xA00 DUP7 SWAP1 MSTORE PUSH2 0xA20 DUP3 SWAP1 MSTORE PUSH2 0xA40 DUP7 SWAP1 MSTORE PUSH2 0xA60 DUP4 SWAP1 MSTORE PUSH2 0x1E0 MSTORE PUSH2 0xA80 DUP3 DUP2 MSTORE PUSH2 0xAA0 DUP7 SWAP1 MSTORE PUSH2 0xAC0 DUP7 SWAP1 MSTORE PUSH2 0xAE0 DUP7 SWAP1 MSTORE PUSH2 0xB00 DUP3 SWAP1 MSTORE PUSH2 0x200 MSTORE PUSH2 0xB20 DUP3 DUP2 MSTORE PUSH2 0xB40 DUP4 SWAP1 MSTORE PUSH2 0xB60 DUP7 SWAP1 MSTORE PUSH2 0xB80 DUP3 SWAP1 MSTORE PUSH2 0xBA0 DUP3 SWAP1 MSTORE PUSH2 0x220 MSTORE PUSH2 0xBC0 DUP3 DUP2 MSTORE PUSH2 0xBE0 DUP4 SWAP1 MSTORE PUSH2 0xC00 DUP7 SWAP1 MSTORE PUSH2 0xC20 DUP3 SWAP1 MSTORE PUSH2 0xC40 DUP7 SWAP1 MSTORE PUSH2 0x240 MSTORE PUSH2 0xC60 DUP3 DUP2 MSTORE PUSH2 0xC80 DUP4 SWAP1 MSTORE PUSH2 0xCA0 DUP4 SWAP1 MSTORE PUSH2 0xCC0 DUP7 SWAP1 MSTORE PUSH2 0xCE0 DUP3 SWAP1 MSTORE PUSH2 0x260 MSTORE PUSH2 0xD00 DUP2 DUP2 MSTORE PUSH2 0xD20 DUP7 SWAP1 MSTORE PUSH2 0xD40 DUP4 SWAP1 MSTORE PUSH2 0xD60 DUP7 SWAP1 MSTORE PUSH2 0xD80 DUP3 SWAP1 MSTORE PUSH2 0x280 MSTORE PUSH2 0xDA0 DUP2 DUP2 MSTORE PUSH2 0xDC0 DUP7 SWAP1 MSTORE PUSH2 0xDE0 DUP7 SWAP1 MSTORE PUSH2 0xE00 DUP7 SWAP1 MSTORE PUSH2 0xE20 DUP4 SWAP1 MSTORE PUSH2 0x2A0 MSTORE PUSH2 0xE40 DUP2 DUP2 MSTORE PUSH2 0xE60 DUP3 SWAP1 MSTORE PUSH2 0xE80 DUP7 SWAP1 MSTORE PUSH2 0xEA0 DUP4 SWAP1 MSTORE PUSH2 0xEC0 DUP4 SWAP1 MSTORE PUSH2 0x2C0 MSTORE PUSH2 0xF80 PUSH1 0x40 MSTORE PUSH2 0xEE0 DUP2 DUP2 MSTORE PUSH2 0xF00 SWAP2 SWAP1 SWAP2 MSTORE PUSH2 0xF20 DUP6 SWAP1 MSTORE PUSH2 0xF40 SWAP2 SWAP1 SWAP2 MSTORE PUSH2 0xF60 SWAP4 SWAP1 SWAP4 MSTORE PUSH2 0x2E0 SWAP3 SWAP1 SWAP3 MSTORE PUSH3 0x2FC SWAP2 PUSH1 0xC SWAP2 PUSH3 0x61B JUMP JUMPDEST POP PUSH1 0x40 MLOAD DUP1 PUSH2 0x120 ADD PUSH1 0x40 MSTORE DUP1 PUSH1 0x40 MLOAD DUP1 PUSH1 0xA0 ADD PUSH1 0x40 MSTORE DUP1 PUSH1 0x0 DUP2 MSTORE PUSH1 0x20 ADD PUSH1 0x0 DUP2 MSTORE PUSH1 0x20 ADD PUSH1 0x14 DUP2 MSTORE PUSH1 0x20 ADD PUSH1 0x50 DUP2 MSTORE PUSH1 0x20 ADD PUSH1 0xC8 DUP2 MSTORE POP DUP2 MSTORE PUSH1 0x20 ADD PUSH1 0x40 MLOAD DUP1 PUSH1 0xA0 ADD PUSH1 0x40 MSTORE DUP1 PUSH1 0x0 DUP2 MSTORE PUSH1 0x20 ADD PUSH1 0x0 DUP2 MSTORE PUSH1 0x20 ADD PUSH1 0x28 DUP2 MSTORE PUSH1 0x20 ADD PUSH2 0x190 DUP2 MSTORE PUSH1 0x20 ADD PUSH2 0x7D0 DUP2 MSTORE POP DUP2 MSTORE PUSH1 0x20 ADD PUSH1 0x40 MLOAD DUP1 PUSH1 0xA0 ADD PUSH1 0x40 MSTORE DUP1 PUSH1 0x0 DUP2 MSTORE PUSH1 0x20 ADD PUSH1 0x8 DUP2 MSTORE PUSH1 0x20 ADD PUSH1 0xF DUP2 MSTORE PUSH1 0x20 ADD PUSH1 0x78 DUP2 MSTORE PUSH1 0x20 ADD PUSH2 0x1F4 DUP2 MSTORE POP DUP2 MSTORE PUSH1 0x20 ADD PUSH1 0x40 MLOAD DUP1 PUSH1 0xA0 ADD PUSH1 0x40 MSTORE DUP1 PUSH1 0x0 DUP2 MSTORE PUSH1 0x20 ADD PUSH1 0x2 DUP2 MSTORE PUSH1 0x20 ADD PUSH1 0x8 DUP2 MSTORE PUSH1 0x20 ADD PUSH1 0x14 DUP2 MSTORE PUSH1 0x20 ADD PUSH1 0x50 DUP2 MSTORE POP DUP2 MSTORE PUSH1 0x20 ADD PUSH1 0x40 MLOAD DUP1 PUSH1 0xA0 ADD PUSH1 0x40 MSTORE DUP1 PUSH1 0x0 DUP2 MSTORE PUSH1 0x20 ADD PUSH1 0x0 DUP2 MSTORE PUSH1 0x20 ADD PUSH1 0x8 DUP2 MSTORE PUSH1 0x20 ADD PUSH1 0x14 DUP2 MSTORE PUSH1 0x20 ADD PUSH1 0x50 DUP2 MSTORE POP DUP2 MSTORE PUSH1 0x20 ADD PUSH1 0x40 MLOAD DUP1 PUSH1 0xA0 ADD PUSH1 0x40 MSTORE DUP1 PUSH1 0x0 DUP2 MSTORE PUSH1 0x20 ADD PUSH1 0x0 DUP2 MSTORE PUSH1 0x20 ADD PUSH1 0x14 DUP2 MSTORE PUSH1 0x20 ADD PUSH1 0x50 DUP2 MSTORE PUSH1 0x20 ADD PUSH1 0xC8 DUP2 MSTORE POP DUP2 MSTORE PUSH1 0x20 ADD PUSH1 0x40 MLOAD DUP1 PUSH1 0xA0 ADD PUSH1 0x40 MSTORE DUP1 PUSH1 0x0 DUP2 MSTORE PUSH1 0x20 ADD PUSH1 0x0 DUP2 MSTORE PUSH1 0x20 ADD PUSH1 0x8 DUP2 MSTORE PUSH1 0x20 ADD PUSH1 0x14 DUP2 MSTORE PUSH1 0x20 ADD PUSH1 0x50 DUP2 MSTORE POP DUP2 MSTORE PUSH1 0x20 ADD PUSH1 0x40 MLOAD DUP1 PUSH1 0xA0 ADD PUSH1 0x40 MSTORE DUP1 PUSH1 0x0 DUP2 MSTORE PUSH1 0x20 ADD PUSH1 0x0 DUP2 MSTORE PUSH1 0x20 ADD PUSH1 0x14 DUP2 MSTORE PUSH1 0x20 ADD PUSH1 0xC8 DUP2 MSTORE PUSH1 0x20 ADD PUSH2 0x3E8 DUP2 MSTORE POP DUP2 MSTORE PUSH1 0x20 ADD PUSH1 0x40 MLOAD DUP1 PUSH1 0xA0 ADD PUSH1 0x40 MSTORE DUP1 PUSH1 0x0 DUP2 MSTORE PUSH1 0x20 ADD PUSH1 0x0 DUP2 MSTORE PUSH1 0x20 ADD PUSH1 0x2 DUP2 MSTORE PUSH1 0x20 ADD PUSH1 0x5 DUP2 MSTORE PUSH1 0x20 ADD PUSH1 0xF DUP2 MSTORE POP DUP2 MSTORE POP PUSH1 0xD SWAP1 PUSH1 0x9 PUSH3 0x4D6 SWAP3 SWAP2 SWAP1 PUSH3 0x67C JUMP JUMPDEST POP PUSH1 0x40 DUP1 MLOAD PUSH1 0xA0 DUP2 ADD DUP3 MSTORE PUSH3 0x186A0 DUP2 MSTORE PUSH2 0x2710 PUSH1 0x20 DUP3 ADD MSTORE PUSH2 0x3E8 SWAP2 DUP2 ADD SWAP2 SWAP1 SWAP2 MSTORE PUSH1 0x64 PUSH1 0x60 DUP3 ADD MSTORE PUSH1 0xA PUSH1 0x80 DUP3 ADD MSTORE PUSH3 0x517 SWAP1 PUSH1 0x3A SWAP1 PUSH1 0x5 PUSH3 0x6BC JUMP JUMPDEST POP PUSH1 0x40 DUP1 MLOAD PUSH1 0xA0 DUP2 ADD DUP3 MSTORE PUSH2 0x2710 DUP2 MSTORE PUSH2 0x3E8 PUSH1 0x20 DUP3 ADD MSTORE PUSH1 0x64 SWAP2 DUP2 ADD DUP3 SWAP1 MSTORE PUSH1 0x60 DUP2 ADD SWAP2 SWAP1 SWAP2 MSTORE PUSH1 0x1 PUSH1 0x80 DUP3 ADD MSTORE PUSH3 0x556 SWAP1 PUSH1 0x3F SWAP1 PUSH1 0x5 PUSH3 0x702 JUMP JUMPDEST POP PUSH1 0x0 PUSH1 0x44 DUP2 SWAP1 SSTORE PUSH1 0x45 DUP2 SWAP1 SSTORE PUSH1 0x46 SSTORE CALLVALUE DUP1 ISZERO PUSH3 0x573 JUMPI PUSH1 0x0 DUP1 REVERT JUMPDEST POP PUSH1 0x40 MLOAD PUSH3 0x373A CODESIZE SUB DUP1 PUSH3 0x373A DUP4 CODECOPY DUP2 ADD PUSH1 0x40 DUP2 SWAP1 MSTORE PUSH3 0x596 SWAP2 PUSH3 0x7E8 JUMP JUMPDEST PUSH3 0x5A1 CALLER PUSH3 0x5CB JUMP JUMPDEST PUSH1 0x5 DUP1 SLOAD PUSH1 0x1 PUSH1 0x1 PUSH1 0xA0 SHL SUB NOT AND PUSH1 0x1 PUSH1 0x1 PUSH1 0xA0 SHL SUB SWAP4 SWAP1 SWAP4 AND SWAP3 SWAP1 SWAP3 OR SWAP1 SWAP2 SSTORE PUSH1 0x6 SSTORE PUSH3 0x824 JUMP JUMPDEST PUSH1 0x0 DUP1 SLOAD PUSH1 0x1 PUSH1 0x1 PUSH1 0xA0 SHL SUB DUP4 DUP2 AND PUSH1 0x1 PUSH1 0x1 PUSH1 0xA0 SHL SUB NOT DUP4 AND DUP2 OR DUP5 SSTORE PUSH1 0x40 MLOAD SWAP2 SWAP1 SWAP3 AND SWAP3 DUP4 SWAP2 PUSH32 0x8BE0079C531659141344CD1FD0A4F28419497F9722A3DAAFE3B4186F6B6457E0 SWAP2 SWAP1 LOG3 POP POP JUMP JUMPDEST DUP3 DUP1 SLOAD DUP3 DUP3 SSTORE SWAP1 PUSH1 0x0 MSTORE PUSH1 0x20 PUSH1 0x0 KECCAK256 SWAP1 PUSH1 0x5 MUL DUP2 ADD SWAP3 DUP3 ISZERO PUSH3 0x66A JUMPI SWAP2 PUSH1 0x20 MUL DUP3 ADD JUMPDEST DUP3 DUP2 GT ISZERO PUSH3 0x66A JUMPI DUP3 MLOAD PUSH3 0x659 SWAP1 DUP4 SWAP1 PUSH1 0x5 PUSH3 0x739 JUMP JUMPDEST POP SWAP2 PUSH1 0x20 ADD SWAP2 SWAP1 PUSH1 0x5 ADD SWAP1 PUSH3 0x63F JUMP JUMPDEST POP PUSH3 0x678 SWAP3 SWAP2 POP PUSH3 0x76F JUMP JUMPDEST POP SWAP1 JUMP JUMPDEST PUSH1 0x2D DUP4 ADD SWAP2 DUP4 SWAP1 DUP3 ISZERO PUSH3 0x66A JUMPI SWAP2 PUSH1 0x20 MUL DUP3 ADD JUMPDEST DUP3 DUP2 GT ISZERO PUSH3 0x66A JUMPI DUP3 MLOAD PUSH3 0x6AB SWAP1 DUP4 SWAP1 PUSH1 0x5 PUSH3 0x7A0 JUMP JUMPDEST POP SWAP2 PUSH1 0x20 ADD SWAP2 SWAP1 PUSH1 0x5 ADD SWAP1 PUSH3 0x691 JUMP JUMPDEST DUP3 PUSH1 0x5 DUP2 ADD SWAP3 DUP3 ISZERO PUSH3 0x6F4 JUMPI SWAP2 PUSH1 0x20 MUL DUP3 ADD JUMPDEST DUP3 DUP2 GT ISZERO PUSH3 0x6F4 JUMPI DUP3 MLOAD DUP3 SWAP1 PUSH3 0xFFFFFF AND SWAP1 SSTORE SWAP2 PUSH1 0x20 ADD SWAP2 SWAP1 PUSH1 0x1 ADD SWAP1 PUSH3 0x6D0 JUMP JUMPDEST POP PUSH3 0x678 SWAP3 SWAP2 POP PUSH3 0x7D1 JUMP JUMPDEST DUP3 PUSH1 0x5 DUP2 ADD SWAP3 DUP3 ISZERO PUSH3 0x6F4 JUMPI SWAP2 PUSH1 0x20 MUL DUP3 ADD JUMPDEST DUP3 DUP2 GT ISZERO PUSH3 0x6F4 JUMPI DUP3 MLOAD DUP3 SWAP1 PUSH2 0xFFFF AND SWAP1 SSTORE SWAP2 PUSH1 0x20 ADD SWAP2 SWAP1 PUSH1 0x1 ADD SWAP1 PUSH3 0x716 JUMP JUMPDEST DUP3 PUSH1 0x5 DUP2 ADD SWAP3 DUP3 ISZERO PUSH3 0x6F4 JUMPI SWAP2 PUSH1 0x20 MUL DUP3 ADD JUMPDEST DUP3 DUP2 GT ISZERO PUSH3 0x6F4 JUMPI DUP3 MLOAD DUP3 SWAP1 PUSH1 0xFF AND SWAP1 SSTORE SWAP2 PUSH1 0x20 ADD SWAP2 SWAP1 PUSH1 0x1 ADD SWAP1 PUSH3 0x74D JUMP JUMPDEST DUP1 DUP3 GT ISZERO PUSH3 0x678 JUMPI PUSH1 0x0 DUP1 DUP3 SSTORE PUSH1 0x1 DUP3 ADD DUP2 SWAP1 SSTORE PUSH1 0x2 DUP3 ADD DUP2 SWAP1 SSTORE PUSH1 0x3 DUP3 ADD DUP2 SWAP1 SSTORE PUSH1 0x4 DUP3 ADD SSTORE PUSH1 0x5 ADD PUSH3 0x76F JUMP JUMPDEST DUP3 PUSH1 0x5 DUP2 ADD SWAP3 DUP3 ISZERO PUSH3 0x6F4 JUMPI SWAP2 PUSH1 0x20 MUL DUP3 ADD JUMPDEST DUP3 DUP2 GT ISZERO PUSH3 0x6F4 JUMPI DUP3 MLOAD DUP3 SSTORE SWAP2 PUSH1 0x20 ADD SWAP2 SWAP1 PUSH1 0x1 ADD SWAP1 PUSH3 0x7B4 JUMP JUMPDEST JUMPDEST DUP1 DUP3 GT ISZERO PUSH3 0x678 JUMPI PUSH1 0x0 DUP2 SSTORE PUSH1 0x1 ADD PUSH3 0x7D2 JUMP JUMPDEST PUSH1 0x0 DUP1 PUSH1 0x40 DUP4 DUP6 SUB SLT ISZERO PUSH3 0x7FC JUMPI PUSH1 0x0 DUP1 REVERT JUMPDEST DUP3 MLOAD PUSH1 0x1 PUSH1 0x1 PUSH1 0xA0 SHL SUB DUP2 AND DUP2 EQ PUSH3 0x814 JUMPI PUSH1 0x0 DUP1 REVERT JUMPDEST PUSH1 0x20 SWAP4 SWAP1 SWAP4 ADD MLOAD SWAP3 SWAP5 SWAP3 SWAP4 POP POP POP JUMP JUMPDEST PUSH2 0x2F06 DUP1 PUSH3 0x834 PUSH1 0x0 CODECOPY PUSH1 0x0 RETURN INVALID PUSH1 0x80 PUSH1 0x40 MSTORE PUSH1 0x4 CALLDATASIZE LT PUSH2 0x1D1 JUMPI PUSH1 0x0 CALLDATALOAD PUSH1 0xE0 SHR DUP1 PUSH4 0x7FF9B596 GT PUSH2 0xF7 JUMPI DUP1 PUSH4 0xD3F0A7CE GT PUSH2 0x95 JUMPI DUP1 PUSH4 0xF2FDE38B GT PUSH2 0x64 JUMPI DUP1 PUSH4 0xF2FDE38B EQ PUSH2 0x62C JUMPI DUP1 PUSH4 0xF7E944EE EQ PUSH2 0x64C JUMPI DUP1 PUSH4 0xFDA0EF89 EQ PUSH2 0x66C JUMPI DUP1 PUSH4 0xFF7F0CF9 EQ PUSH2 0x681 JUMPI PUSH1 0x0 DUP1 REVERT JUMPDEST DUP1 PUSH4 0xD3F0A7CE EQ PUSH2 0x5A8 JUMPI DUP1 PUSH4 0xE3C7B05E EQ PUSH2 0x5CA JUMPI DUP1 PUSH4 0xE5A6B10F EQ PUSH2 0x5EA JUMPI DUP1 PUSH4 0xE9A4A03D EQ PUSH2 0x617 JUMPI PUSH1 0x0 DUP1 REVERT JUMPDEST DUP1 PUSH4 0x881EFF1E GT PUSH2 0xD1 JUMPI DUP1 PUSH4 0x881EFF1E EQ PUSH2 0x528 JUMPI DUP1 PUSH4 0x8D8F2ADB EQ PUSH2 0x548 JUMPI DUP1 PUSH4 0x8DA5CB5B EQ PUSH2 0x55D JUMPI DUP1 PUSH4 0xA3E2E8CE EQ PUSH2 0x588 JUMPI PUSH1 0x0 DUP1 REVERT JUMPDEST DUP1 PUSH4 0x7FF9B596 EQ PUSH2 0x4DF JUMPI DUP1 PUSH4 0x81B87E54 EQ PUSH2 0x4F5 JUMPI DUP1 PUSH4 0x81D9E78C EQ PUSH2 0x515 JUMPI PUSH1 0x0 DUP1 REVERT JUMPDEST DUP1 PUSH4 0x4B94F50E GT PUSH2 0x16F JUMPI DUP1 PUSH4 0x6945C1FD GT PUSH2 0x13E JUMPI DUP1 PUSH4 0x6945C1FD EQ PUSH2 0x43E JUMPI DUP1 PUSH4 0x6A61E5FC EQ PUSH2 0x48A JUMPI DUP1 PUSH4 0x6F43022C EQ PUSH2 0x4AA JUMPI DUP1 PUSH4 0x715018A6 EQ PUSH2 0x4CA JUMPI PUSH1 0x0 DUP1 REVERT JUMPDEST DUP1 PUSH4 0x4B94F50E EQ PUSH2 0x3D2 JUMPI DUP1 PUSH4 0x4C738909 EQ PUSH2 0x3E7 JUMPI DUP1 PUSH4 0x6012CB19 EQ PUSH2 0x409 JUMPI DUP1 PUSH4 0x646668B6 EQ PUSH2 0x429 JUMPI PUSH1 0x0 DUP1 REVERT JUMPDEST DUP1 PUSH4 0x3610724E GT PUSH2 0x1AB JUMPI DUP1 PUSH4 0x3610724E EQ PUSH2 0x32D JUMPI DUP1 PUSH4 0x4282CF54 EQ PUSH2 0x34D JUMPI DUP1 PUSH4 0x47734892 EQ PUSH2 0x36F JUMPI DUP1 PUSH4 0x4AFA1905 EQ PUSH2 0x3B2 JUMPI PUSH1 0x0 DUP1 REVERT JUMPDEST DUP1 PUSH4 0x9B9DD89 EQ PUSH2 0x287 JUMPI DUP1 PUSH4 0x17ADAA03 EQ PUSH2 0x2AB JUMPI DUP1 PUSH4 0x2F84C391 EQ PUSH2 0x30D JUMPI PUSH1 0x0 DUP1 REVERT JUMPDEST CALLDATASIZE PUSH2 0x282 JUMPI PUSH1 0x5 SLOAD PUSH20 0xFFFFFFFFFFFFFFFFFFFFFFFFFFFFFFFFFFFFFFFF AND ISZERO PUSH2 0x280 JUMPI PUSH1 0x40 MLOAD PUSH32 0x8C379A000000000000000000000000000000000000000000000000000000000 DUP2 MSTORE PUSH1 0x20 PUSH1 0x4 DUP3 ADD MSTORE PUSH1 0x24 DUP1 DUP3 ADD MSTORE PUSH32 0x4552433230206973207365747465642E2045746820626574206E6F7420616C6C PUSH1 0x44 DUP3 ADD MSTORE PUSH32 0x6F77656400000000000000000000000000000000000000000000000000000000 PUSH1 0x64 DUP3 ADD MSTORE PUSH1 0x84 ADD JUMPDEST PUSH1 0x40 MLOAD DUP1 SWAP2 SUB SWAP1 REVERT JUMPDEST STOP JUMPDEST PUSH1 0x0 DUP1 REVERT JUMPDEST CALLVALUE DUP1 ISZERO PUSH2 0x293 JUMPI PUSH1 0x0 DUP1 REVERT JUMPDEST POP PUSH1 0xB SLOAD JUMPDEST PUSH1 0x40 MLOAD SWAP1 DUP2 MSTORE PUSH1 0x20 ADD JUMPDEST PUSH1 0x40 MLOAD DUP1 SWAP2 SUB SWAP1 RETURN JUMPDEST CALLVALUE DUP1 ISZERO PUSH2 0x2B7 JUMPI PUSH1 0x0 DUP1 REVERT JUMPDEST POP PUSH2 0x2CB PUSH2 0x2C6 CALLDATASIZE PUSH1 0x4 PUSH2 0x2867 JUMP JUMPDEST PUSH2 0x696 JUMP JUMPDEST PUSH1 0x40 DUP1 MLOAD SWAP7 DUP8 MSTORE PUSH20 0xFFFFFFFFFFFFFFFFFFFFFFFFFFFFFFFFFFFFFFFF SWAP1 SWAP6 AND PUSH1 0x20 DUP8 ADD MSTORE SWAP4 DUP6 ADD SWAP3 SWAP1 SWAP3 MSTORE PUSH1 0x60 DUP5 ADD MSTORE PUSH1 0x80 DUP4 ADD MSTORE PUSH1 0xA0 DUP3 ADD MSTORE PUSH1 0xC0 ADD PUSH2 0x2A2 JUMP JUMPDEST CALLVALUE DUP1 ISZERO PUSH2 0x319 JUMPI PUSH1 0x0 DUP1 REVERT JUMPDEST POP PUSH2 0x280 PUSH2 0x328 CALLDATASIZE PUSH1 0x4 PUSH2 0x2891 JUMP JUMPDEST PUSH2 0x701 JUMP JUMPDEST CALLVALUE DUP1 ISZERO PUSH2 0x339 JUMPI PUSH1 0x0 DUP1 REVERT JUMPDEST POP PUSH2 0x280 PUSH2 0x348 CALLDATASIZE PUSH1 0x4 PUSH2 0x28AC JUMP JUMPDEST PUSH2 0x750 JUMP JUMPDEST CALLVALUE DUP1 ISZERO PUSH2 0x359 JUMPI PUSH1 0x0 DUP1 REVERT JUMPDEST POP PUSH2 0x362 PUSH2 0xA83 JUMP JUMPDEST PUSH1 0x40 MLOAD PUSH2 0x2A2 SWAP2 SWAP1 PUSH2 0x28F9 JUMP JUMPDEST CALLVALUE DUP1 ISZERO PUSH2 0x37B JUMPI PUSH1 0x0 DUP1 REVERT JUMPDEST POP PUSH2 0x298 PUSH2 0x38A CALLDATASIZE PUSH1 0x4 PUSH2 0x2891 JUMP JUMPDEST PUSH20 0xFFFFFFFFFFFFFFFFFFFFFFFFFFFFFFFFFFFFFFFF AND PUSH1 0x0 SWAP1 DUP2 MSTORE PUSH1 0x4 PUSH1 0x20 MSTORE PUSH1 0x40 SWAP1 KECCAK256 SLOAD SWAP1 JUMP JUMPDEST CALLVALUE DUP1 ISZERO PUSH2 0x3BE JUMPI PUSH1 0x0 DUP1 REVERT JUMPDEST POP PUSH2 0x280 PUSH2 0x3CD CALLDATASIZE PUSH1 0x4 PUSH2 0x2A9D JUMP JUMPDEST PUSH2 0xB01 JUMP JUMPDEST CALLVALUE DUP1 ISZERO PUSH2 0x3DE JUMPI PUSH1 0x0 DUP1 REVERT JUMPDEST POP PUSH1 0x6 SLOAD PUSH2 0x298 JUMP JUMPDEST CALLVALUE DUP1 ISZERO PUSH2 0x3F3 JUMPI PUSH1 0x0 DUP1 REVERT JUMPDEST POP CALLER PUSH1 0x0 SWAP1 DUP2 MSTORE PUSH1 0x4 PUSH1 0x20 MSTORE PUSH1 0x40 SWAP1 KECCAK256 SLOAD PUSH2 0x298 JUMP JUMPDEST CALLVALUE DUP1 ISZERO PUSH2 0x415 JUMPI PUSH1 0x0 DUP1 REVERT JUMPDEST POP PUSH2 0x280 PUSH2 0x424 CALLDATASIZE PUSH1 0x4 PUSH2 0x28AC JUMP JUMPDEST PUSH2 0xB32 JUMP JUMPDEST CALLVALUE DUP1 ISZERO PUSH2 0x435 JUMPI PUSH1 0x0 DUP1 REVERT JUMPDEST POP PUSH1 0xA SLOAD PUSH2 0x298 JUMP JUMPDEST CALLVALUE DUP1 ISZERO PUSH2 0x44A JUMPI PUSH1 0x0 DUP1 REVERT JUMPDEST POP PUSH1 0x5 SLOAD PUSH20 0xFFFFFFFFFFFFFFFFFFFFFFFFFFFFFFFFFFFFFFFF AND JUMPDEST PUSH1 0x40 MLOAD PUSH20 0xFFFFFFFFFFFFFFFFFFFFFFFFFFFFFFFFFFFFFFFF SWAP1 SWAP2 AND DUP2 MSTORE PUSH1 0x20 ADD PUSH2 0x2A2 JUMP JUMPDEST CALLVALUE DUP1 ISZERO PUSH2 0x496 JUMPI PUSH1 0x0 DUP1 REVERT JUMPDEST POP PUSH2 0x280 PUSH2 0x4A5 CALLDATASIZE PUSH1 0x4 PUSH2 0x28AC JUMP JUMPDEST PUSH2 0xB3F JUMP JUMPDEST CALLVALUE DUP1 ISZERO PUSH2 0x4B6 JUMPI PUSH1 0x0 DUP1 REVERT JUMPDEST POP PUSH2 0x280 PUSH2 0x4C5 CALLDATASIZE PUSH1 0x4 PUSH2 0x2AE8 JUMP JUMPDEST PUSH2 0xB4C JUMP JUMPDEST CALLVALUE DUP1 ISZERO PUSH2 0x4D6 JUMPI PUSH1 0x0 DUP1 REVERT JUMPDEST POP PUSH2 0x280 PUSH2 0xB6B JUMP JUMPDEST CALLVALUE DUP1 ISZERO PUSH2 0x4EB JUMPI PUSH1 0x0 DUP1 REVERT JUMPDEST POP PUSH2 0x298 PUSH1 0x6 SLOAD DUP2 JUMP JUMPDEST CALLVALUE DUP1 ISZERO PUSH2 0x501 JUMPI PUSH1 0x0 DUP1 REVERT JUMPDEST POP PUSH2 0x280 PUSH2 0x510 CALLDATASIZE PUSH1 0x4 PUSH2 0x2B98 JUMP JUMPDEST PUSH2 0xB7F JUMP JUMPDEST PUSH2 0x280 PUSH2 0x523 CALLDATASIZE PUSH1 0x4 PUSH2 0x2BB5 JUMP JUMPDEST PUSH2 0xB94 JUMP JUMPDEST CALLVALUE DUP1 ISZERO PUSH2 0x534 JUMPI PUSH1 0x0 DUP1 REVERT JUMPDEST POP PUSH2 0x280 PUSH2 0x543 CALLDATASIZE PUSH1 0x4 PUSH2 0x28AC JUMP JUMPDEST PUSH2 0xFC9 JUMP JUMPDEST CALLVALUE DUP1 ISZERO PUSH2 0x554 JUMPI PUSH1 0x0 DUP1 REVERT JUMPDEST POP PUSH2 0x280 PUSH2 0xFD6 JUMP JUMPDEST CALLVALUE DUP1 ISZERO PUSH2 0x569 JUMPI PUSH1 0x0 DUP1 REVERT JUMPDEST POP PUSH1 0x0 SLOAD PUSH20 0xFFFFFFFFFFFFFFFFFFFFFFFFFFFFFFFFFFFFFFFF AND PUSH2 0x465 JUMP JUMPDEST CALLVALUE DUP1 ISZERO PUSH2 0x594 JUMPI PUSH1 0x0 DUP1 REVERT JUMPDEST POP PUSH2 0x280 PUSH2 0x5A3 CALLDATASIZE PUSH1 0x4 PUSH2 0x2BB5 JUMP JUMPDEST PUSH2 0x129C JUMP JUMPDEST CALLVALUE DUP1 ISZERO PUSH2 0x5B4 JUMPI PUSH1 0x0 DUP1 REVERT JUMPDEST POP PUSH2 0x5BD PUSH2 0x155D JUMP JUMPDEST PUSH1 0x40 MLOAD PUSH2 0x2A2 SWAP2 SWAP1 PUSH2 0x2BE1 JUMP JUMPDEST CALLVALUE DUP1 ISZERO PUSH2 0x5D6 JUMPI PUSH1 0x0 DUP1 REVERT JUMPDEST POP PUSH2 0x280 PUSH2 0x5E5 CALLDATASIZE PUSH1 0x4 PUSH2 0x28AC JUMP JUMPDEST PUSH2 0x15C0 JUMP JUMPDEST CALLVALUE DUP1 ISZERO PUSH2 0x5F6 JUMPI PUSH1 0x0 DUP1 REVERT JUMPDEST POP PUSH1 0x5 SLOAD PUSH2 0x465 SWAP1 PUSH20 0xFFFFFFFFFFFFFFFFFFFFFFFFFFFFFFFFFFFFFFFF AND DUP2 JUMP JUMPDEST CALLVALUE DUP1 ISZERO PUSH2 0x623 JUMPI PUSH1 0x0 DUP1 REVERT JUMPDEST POP PUSH2 0x298 PUSH2 0x15CD JUMP JUMPDEST CALLVALUE DUP1 ISZERO PUSH2 0x638 JUMPI PUSH1 0x0 DUP1 REVERT JUMPDEST POP PUSH2 0x280 PUSH2 0x647 CALLDATASIZE PUSH1 0x4 PUSH2 0x2891 JUMP JUMPDEST PUSH2 0x169D JUMP JUMPDEST CALLVALUE DUP1 ISZERO PUSH2 0x658 JUMPI PUSH1 0x0 DUP1 REVERT JUMPDEST POP PUSH2 0x280 PUSH2 0x667 CALLDATASIZE PUSH1 0x4 PUSH2 0x28AC JUMP JUMPDEST PUSH2 0x1754 JUMP JUMPDEST CALLVALUE DUP1 ISZERO PUSH2 0x678 JUMPI PUSH1 0x0 DUP1 REVERT JUMPDEST POP PUSH1 0x7 SLOAD PUSH2 0x298 JUMP JUMPDEST CALLVALUE DUP1 ISZERO PUSH2 0x68D JUMPI PUSH1 0x0 DUP1 REVERT JUMPDEST POP PUSH2 0x280 PUSH2 0x180D JUMP JUMPDEST PUSH1 0x1 PUSH1 0x20 MSTORE DUP2 PUSH1 0x0 MSTORE PUSH1 0x40 PUSH1 0x0 KECCAK256 DUP2 DUP2 SLOAD DUP2 LT PUSH2 0x6B2 JUMPI PUSH1 0x0 DUP1 REVERT JUMPDEST PUSH1 0x0 SWAP2 DUP3 MSTORE PUSH1 0x20 SWAP1 SWAP2 KECCAK256 PUSH1 0xB SWAP1 SWAP2 MUL ADD DUP1 SLOAD PUSH1 0x1 DUP3 ADD SLOAD PUSH1 0x2 DUP4 ADD SLOAD PUSH1 0x3 DUP5 ADD SLOAD PUSH1 0x4 DUP6 ADD SLOAD PUSH1 0xA SWAP1 SWAP6 ADD SLOAD SWAP4 SWAP7 POP PUSH20 0xFFFFFFFFFFFFFFFFFFFFFFFFFFFFFFFFFFFFFFFF SWAP1 SWAP3 AND SWAP5 POP SWAP3 SWAP1 SWAP2 DUP7 JUMP JUMPDEST PUSH2 0x709 PUSH2 0x198D JUMP JUMPDEST PUSH1 0x5 DUP1 SLOAD PUSH32 0xFFFFFFFFFFFFFFFFFFFFFFFF0000000000000000000000000000000000000000 AND PUSH20 0xFFFFFFFFFFFFFFFFFFFFFFFFFFFFFFFFFFFFFFFF SWAP3 SWAP1 SWAP3 AND SWAP2 SWAP1 SWAP2 OR SWAP1 SSTORE JUMP JUMPDEST PUSH1 0x5 SLOAD PUSH20 0xFFFFFFFFFFFFFFFFFFFFFFFFFFFFFFFFFFFFFFFF AND PUSH2 0x7CF JUMPI PUSH1 0x40 MLOAD PUSH32 0x8C379A000000000000000000000000000000000000000000000000000000000 DUP2 MSTORE PUSH1 0x20 PUSH1 0x4 DUP3 ADD MSTORE PUSH1 0x1A PUSH1 0x24 DUP3 ADD MSTORE PUSH32 0x4552433230206E6F74207365747465642E204F6E6C7920657468000000000000 PUSH1 0x44 DUP3 ADD MSTORE PUSH1 0x64 ADD PUSH2 0x277 JUMP JUMPDEST PUSH1 0x0 PUSH1 0x6 SLOAD DUP3 PUSH2 0x7DF SWAP2 SWAP1 PUSH2 0x2C48 JUMP JUMPDEST PUSH1 0x5 SLOAD PUSH1 0x40 MLOAD PUSH32 0x70A0823100000000000000000000000000000000000000000000000000000000 DUP2 MSTORE CALLER PUSH1 0x4 DUP3 ADD MSTORE SWAP2 SWAP3 POP PUSH1 0x0 SWAP2 PUSH20 0xFFFFFFFFFFFFFFFFFFFFFFFFFFFFFFFFFFFFFFFF SWAP1 SWAP2 AND SWAP1 PUSH4 0x70A08231 SWAP1 PUSH1 0x24 ADD PUSH1 0x20 PUSH1 0x40 MLOAD DUP1 DUP4 SUB DUP2 DUP7 GAS STATICCALL ISZERO DUP1 ISZERO PUSH2 0x853 JUMPI RETURNDATASIZE PUSH1 0x0 DUP1 RETURNDATACOPY RETURNDATASIZE PUSH1 0x0 REVERT JUMPDEST POP POP POP POP PUSH1 0x40 MLOAD RETURNDATASIZE PUSH1 0x1F NOT PUSH1 0x1F DUP3 ADD AND DUP3 ADD DUP1 PUSH1 0x40 MSTORE POP DUP2 ADD SWAP1 PUSH2 0x877 SWAP2 SWAP1 PUSH2 0x2C5F JUMP JUMPDEST SWAP1 POP DUP2 DUP2 LT ISZERO PUSH2 0x909 JUMPI PUSH1 0x40 MLOAD PUSH32 0x8C379A000000000000000000000000000000000000000000000000000000000 DUP2 MSTORE PUSH1 0x20 PUSH1 0x4 DUP3 ADD MSTORE PUSH1 0x34 PUSH1 0x24 DUP3 ADD MSTORE PUSH32 0x596F7520646F206E6F74206861766520656E6F75676820746F6B656E73206F6E PUSH1 0x44 DUP3 ADD MSTORE PUSH32 0x20796F75722062616C616E636520746F20706179000000000000000000000000 PUSH1 0x64 DUP3 ADD MSTORE PUSH1 0x84 ADD PUSH2 0x277 JUMP JUMPDEST PUSH1 0x5 SLOAD PUSH1 0x40 MLOAD PUSH32 0xDD62ED3E00000000000000000000000000000000000000000000000000000000 DUP2 MSTORE CALLER PUSH1 0x4 DUP3 ADD MSTORE ADDRESS PUSH1 0x24 DUP3 ADD MSTORE PUSH1 0x0 SWAP2 PUSH20 0xFFFFFFFFFFFFFFFFFFFFFFFFFFFFFFFFFFFFFFFF AND SWAP1 PUSH4 0xDD62ED3E SWAP1 PUSH1 0x44 ADD PUSH1 0x20 PUSH1 0x40 MLOAD DUP1 DUP4 SUB DUP2 DUP7 GAS STATICCALL ISZERO DUP1 ISZERO PUSH2 0x97E JUMPI RETURNDATASIZE PUSH1 0x0 DUP1 RETURNDATACOPY RETURNDATASIZE PUSH1 0x0 REVERT JUMPDEST POP POP POP POP PUSH1 0x40 MLOAD RETURNDATASIZE PUSH1 0x1F NOT PUSH1 0x1F DUP3 ADD AND DUP3 ADD DUP1 PUSH1 0x40 MSTORE POP DUP2 ADD SWAP1 PUSH2 0x9A2 SWAP2 SWAP1 PUSH2 0x2C5F JUMP JUMPDEST SWAP1 POP DUP3 DUP2 LT ISZERO PUSH2 0xA34 JUMPI PUSH1 0x40 MLOAD PUSH32 0x8C379A000000000000000000000000000000000000000000000000000000000 DUP2 MSTORE PUSH1 0x20 PUSH1 0x4 DUP3 ADD MSTORE PUSH1 0x3A PUSH1 0x24 DUP3 ADD MSTORE PUSH32 0x596F7520646964206E6F7420616C6C6F772074686520636F6E74726163742074 PUSH1 0x44 DUP3 ADD MSTORE PUSH32 0x6F2073656E642074686520707572636861736520616D6F756E74000000000000 PUSH1 0x64 DUP3 ADD MSTORE PUSH1 0x84 ADD PUSH2 0x277 JUMP JUMPDEST PUSH1 0x5 SLOAD PUSH2 0xA59 SWAP1 PUSH20 0xFFFFFFFFFFFFFFFFFFFFFFFFFFFFFFFFFFFFFFFF AND CALLER ADDRESS DUP7 PUSH2 0x1A0E JUMP JUMPDEST CALLER PUSH1 0x0 SWAP1 DUP2 MSTORE PUSH1 0x4 PUSH1 0x20 MSTORE PUSH1 0x40 DUP2 KECCAK256 DUP1 SLOAD DUP7 SWAP3 SWAP1 PUSH2 0xA78 SWAP1 DUP5 SWAP1 PUSH2 0x2C78 JUMP JUMPDEST SWAP1 SWAP2 SSTORE POP POP POP POP POP POP JUMP JUMPDEST PUSH1 0x60 PUSH1 0xC DUP1 SLOAD DUP1 PUSH1 0x20 MUL PUSH1 0x20 ADD PUSH1 0x40 MLOAD SWAP1 DUP2 ADD PUSH1 0x40 MSTORE DUP1 SWAP3 SWAP2 SWAP1 DUP2 DUP2 MSTORE PUSH1 0x20 ADD PUSH1 0x0 SWAP1 JUMPDEST DUP3 DUP3 LT ISZERO PUSH2 0xAF8 JUMPI PUSH1 0x0 DUP5 DUP2 MSTORE PUSH1 0x20 SWAP1 KECCAK256 PUSH1 0x40 DUP1 MLOAD PUSH1 0xA0 DUP2 ADD SWAP2 DUP3 SWAP1 MSTORE SWAP2 PUSH1 0x5 DUP6 DUP2 MUL SWAP1 SWAP2 ADD SWAP2 DUP3 DUP5 JUMPDEST DUP2 SLOAD DUP2 MSTORE PUSH1 0x20 ADD SWAP1 PUSH1 0x1 ADD SWAP1 DUP1 DUP4 GT PUSH2 0xAD1 JUMPI POP POP POP POP POP DUP2 MSTORE PUSH1 0x20 ADD SWAP1 PUSH1 0x1 ADD SWAP1 PUSH2 0xAA7 JUMP JUMPDEST POP POP POP POP SWAP1 POP SWAP1 JUMP JUMPDEST PUSH2 0xB09 PUSH2 0x198D JUMP JUMPDEST PUSH1 0x6 DUP6 SWAP1 SSTORE PUSH1 0xA DUP5 SWAP1 SSTORE PUSH1 0xB DUP4 SWAP1 SSTORE PUSH1 0x7 DUP3 SWAP1 SSTORE PUSH2 0xB2A PUSH1 0xD DUP3 PUSH1 0x9 PUSH2 0x2693 JUMP JUMPDEST POP POP POP POP POP POP JUMP JUMPDEST PUSH2 0xB3A PUSH2 0x198D JUMP JUMPDEST PUSH1 0xB SSTORE JUMP JUMPDEST PUSH2 0xB47 PUSH2 0x198D JUMP JUMPDEST PUSH1 0x6 SSTORE JUMP JUMPDEST PUSH2 0xB54 PUSH2 0x198D JUMP JUMPDEST DUP1 MLOAD PUSH2 0xB67 SWAP1 PUSH1 0xC SWAP1 PUSH1 0x20 DUP5 ADD SWAP1 PUSH2 0x26DE JUMP JUMPDEST POP POP JUMP JUMPDEST PUSH2 0xB73 PUSH2 0x198D JUMP JUMPDEST PUSH2 0xB7D PUSH1 0x0 PUSH2 0x1AA9 JUMP JUMPDEST JUMP JUMPDEST PUSH2 0xB87 PUSH2 0x198D JUMP JUMPDEST PUSH2 0xB67 PUSH1 0xD DUP3 PUSH1 0x9 PUSH2 0x2693 JUMP JUMPDEST PUSH1 0x5 SLOAD PUSH20 0xFFFFFFFFFFFFFFFFFFFFFFFFFFFFFFFFFFFFFFFF AND ISZERO PUSH2 0xC39 JUMPI PUSH1 0x40 MLOAD PUSH32 0x8C379A000000000000000000000000000000000000000000000000000000000 DUP2 MSTORE PUSH1 0x20 PUSH1 0x4 DUP3 ADD MSTORE PUSH1 0x24 DUP1 DUP3 ADD MSTORE PUSH32 0x4552433230206973207365747465642E2045746820626574206E6F7420616C6C PUSH1 0x44 DUP3 ADD MSTORE PUSH32 0x6F77656400000000000000000000000000000000000000000000000000000000 PUSH1 0x64 DUP3 ADD MSTORE PUSH1 0x84 ADD PUSH2 0x277 JUMP JUMPDEST PUSH1 0xA SLOAD DUP4 GT ISZERO PUSH2 0xCA5 JUMPI PUSH1 0x40 MLOAD PUSH32 0x8C379A000000000000000000000000000000000000000000000000000000000 DUP2 MSTORE PUSH1 0x20 PUSH1 0x4 DUP3 ADD MSTORE PUSH1 0xB PUSH1 0x24 DUP3 ADD MSTORE PUSH32 0x42657420746F6F20626967000000000000000000000000000000000000000000 PUSH1 0x44 DUP3 ADD MSTORE PUSH1 0x64 ADD PUSH2 0x277 JUMP JUMPDEST PUSH1 0x0 PUSH2 0xCB1 DUP4 DUP6 PUSH2 0x2C48 JUMP JUMPDEST SWAP1 POP PUSH1 0xB SLOAD DUP4 GT ISZERO PUSH2 0xD1F JUMPI PUSH1 0x40 MLOAD PUSH32 0x8C379A000000000000000000000000000000000000000000000000000000000 DUP2 MSTORE PUSH1 0x20 PUSH1 0x4 DUP3 ADD MSTORE PUSH1 0xE PUSH1 0x24 DUP3 ADD MSTORE PUSH32 0x546F6F206D616E79206C696E6573000000000000000000000000000000000000 PUSH1 0x44 DUP3 ADD MSTORE PUSH1 0x64 ADD PUSH2 0x277 JUMP JUMPDEST PUSH1 0xC SLOAD PUSH2 0xD2D SWAP1 PUSH1 0x1 PUSH2 0x2C78 JUMP JUMPDEST DUP4 GT ISZERO PUSH2 0xD96 JUMPI PUSH1 0x40 MLOAD PUSH32 0x8C379A000000000000000000000000000000000000000000000000000000000 DUP2 MSTORE PUSH1 0x20 PUSH1 0x4 DUP3 ADD MSTORE PUSH1 0xE PUSH1 0x24 DUP3 ADD MSTORE PUSH32 0x546F6F206D616E79206C696E6573000000000000000000000000000000000000 PUSH1 0x44 DUP3 ADD MSTORE PUSH1 0x64 ADD PUSH2 0x277 JUMP JUMPDEST PUSH1 0x0 PUSH1 0x6 SLOAD DUP3 PUSH2 0xDA6 SWAP2 SWAP1 PUSH2 0x2C48 JUMP JUMPDEST SWAP1 POP DUP1 CALLVALUE LT ISZERO PUSH2 0xE38 JUMPI PUSH1 0x40 MLOAD PUSH32 0x8C379A000000000000000000000000000000000000000000000000000000000 DUP2 MSTORE PUSH1 0x20 PUSH1 0x4 DUP3 ADD MSTORE PUSH1 0x21 PUSH1 0x24 DUP3 ADD MSTORE PUSH32 0x596F752068617665206E6F74207061696420656E6F75676820666F7220737069 PUSH1 0x44 DUP3 ADD MSTORE PUSH32 0x6E00000000000000000000000000000000000000000000000000000000000000 PUSH1 0x64 DUP3 ADD MSTORE PUSH1 0x84 ADD PUSH2 0x277 JUMP JUMPDEST PUSH2 0xE46 PUSH1 0x2 DUP1 SLOAD PUSH1 0x1 ADD SWAP1 SSTORE JUMP JUMPDEST PUSH1 0x0 PUSH2 0xE51 PUSH1 0x2 SLOAD SWAP1 JUMP JUMPDEST SWAP1 POP PUSH1 0x0 PUSH2 0xE61 DUP3 DUP9 DUP9 DUP9 PUSH2 0x1B1E JUMP JUMPDEST SWAP1 POP DUP1 ISZERO PUSH2 0xFC0 JUMPI PUSH1 0x0 PUSH1 0x6 SLOAD DUP3 PUSH2 0xE79 SWAP2 SWAP1 PUSH2 0x2C48 JUMP JUMPDEST SWAP1 POP DUP1 SELFBALANCE LT ISZERO PUSH2 0xEE5 JUMPI PUSH1 0x40 MLOAD PUSH32 0x8C379A000000000000000000000000000000000000000000000000000000000 DUP2 MSTORE PUSH1 0x20 PUSH1 0x4 DUP3 ADD MSTORE PUSH1 0x1D PUSH1 0x24 DUP3 ADD MSTORE PUSH32 0x416464726573733A20696E73756666696369656E742062616C616E6365000000 PUSH1 0x44 DUP3 ADD MSTORE PUSH1 0x64 ADD PUSH2 0x277 JUMP JUMPDEST PUSH1 0x40 MLOAD PUSH1 0x0 SWAP1 CALLER SWAP1 DUP4 SWAP1 DUP4 DUP2 DUP2 DUP2 DUP6 DUP8 GAS CALL SWAP3 POP POP POP RETURNDATASIZE DUP1 PUSH1 0x0 DUP2 EQ PUSH2 0xF27 JUMPI PUSH1 0x40 MLOAD SWAP2 POP PUSH1 0x1F NOT PUSH1 0x3F RETURNDATASIZE ADD AND DUP3 ADD PUSH1 0x40 MSTORE RETURNDATASIZE DUP3 MSTORE RETURNDATASIZE PUSH1 0x0 PUSH1 0x20 DUP5 ADD RETURNDATACOPY PUSH2 0xF2C JUMP JUMPDEST PUSH1 0x60 SWAP2 POP JUMPDEST POP POP SWAP1 POP DUP1 PUSH2 0xFBD JUMPI PUSH1 0x40 MLOAD PUSH32 0x8C379A000000000000000000000000000000000000000000000000000000000 DUP2 MSTORE PUSH1 0x20 PUSH1 0x4 DUP3 ADD MSTORE PUSH1 0x3A PUSH1 0x24 DUP3 ADD MSTORE PUSH32 0x416464726573733A20756E61626C6520746F2073656E642076616C75652C2072 PUSH1 0x44 DUP3 ADD MSTORE PUSH32 0x6563697069656E74206D61792068617665207265766572746564000000000000 PUSH1 0x64 DUP3 ADD MSTORE PUSH1 0x84 ADD PUSH2 0x277 JUMP JUMPDEST POP POP JUMPDEST POP POP POP POP POP POP POP JUMP JUMPDEST PUSH2 0xFD1 PUSH2 0x198D JUMP JUMPDEST PUSH1 0xA SSTORE JUMP JUMPDEST PUSH1 0x5 SLOAD PUSH20 0xFFFFFFFFFFFFFFFFFFFFFFFFFFFFFFFFFFFFFFFF AND PUSH2 0x1055 JUMPI PUSH1 0x40 MLOAD PUSH32 0x8C379A000000000000000000000000000000000000000000000000000000000 DUP2 MSTORE PUSH1 0x20 PUSH1 0x4 DUP3 ADD MSTORE PUSH1 0x1A PUSH1 0x24 DUP3 ADD MSTORE PUSH32 0x4552433230206E6F74207365747465642E204F6E6C7920657468000000000000 PUSH1 0x44 DUP3 ADD MSTORE PUSH1 0x64 ADD PUSH2 0x277 JUMP JUMPDEST CALLER PUSH1 0x0 SWAP1 DUP2 MSTORE PUSH1 0x4 PUSH1 0x20 MSTORE PUSH1 0x40 SWAP1 KECCAK256 SLOAD PUSH2 0x10CB JUMPI PUSH1 0x40 MLOAD PUSH32 0x8C379A000000000000000000000000000000000000000000000000000000000 DUP2 MSTORE PUSH1 0x20 PUSH1 0x4 DUP3 ADD MSTORE PUSH1 0x1E PUSH1 0x24 DUP3 ADD MSTORE PUSH32 0x4E6F7420656E6F75746820746F6B656E7320666F722077697468647261770000 PUSH1 0x44 DUP3 ADD MSTORE PUSH1 0x64 ADD PUSH2 0x277 JUMP JUMPDEST PUSH1 0x6 SLOAD CALLER PUSH1 0x0 SWAP1 DUP2 MSTORE PUSH1 0x4 PUSH1 0x20 MSTORE PUSH1 0x40 DUP2 KECCAK256 SLOAD SWAP1 SWAP2 PUSH2 0x10E9 SWAP2 PUSH2 0x2C48 JUMP JUMPDEST PUSH1 0x5 SLOAD PUSH1 0x40 MLOAD PUSH32 0x70A0823100000000000000000000000000000000000000000000000000000000 DUP2 MSTORE ADDRESS PUSH1 0x4 DUP3 ADD MSTORE SWAP2 SWAP3 POP PUSH1 0x0 SWAP2 PUSH20 0xFFFFFFFFFFFFFFFFFFFFFFFFFFFFFFFFFFFFFFFF SWAP1 SWAP2 AND SWAP1 PUSH4 0x70A08231 SWAP1 PUSH1 0x24 ADD PUSH1 0x20 PUSH1 0x40 MLOAD DUP1 DUP4 SUB DUP2 DUP7 GAS STATICCALL ISZERO DUP1 ISZERO PUSH2 0x115D JUMPI RETURNDATASIZE PUSH1 0x0 DUP1 RETURNDATACOPY RETURNDATASIZE PUSH1 0x0 REVERT JUMPDEST POP POP POP POP PUSH1 0x40 MLOAD RETURNDATASIZE PUSH1 0x1F NOT PUSH1 0x1F DUP3 ADD AND DUP3 ADD DUP1 PUSH1 0x40 MSTORE POP DUP2 ADD SWAP1 PUSH2 0x1181 SWAP2 SWAP1 PUSH2 0x2C5F JUMP JUMPDEST SWAP1 POP DUP2 DUP2 GT PUSH2 0x11EC JUMPI PUSH1 0x40 MLOAD PUSH32 0x8C379A000000000000000000000000000000000000000000000000000000000 DUP2 MSTORE PUSH1 0x20 PUSH1 0x4 DUP3 ADD MSTORE PUSH1 0x19 PUSH1 0x24 DUP3 ADD MSTORE PUSH32 0x4E6F7420656E6F75746820746F6B656E7320696E2062616E6B00000000000000 PUSH1 0x44 DUP3 ADD MSTORE PUSH1 0x64 ADD PUSH2 0x277 JUMP JUMPDEST PUSH1 0x5 SLOAD PUSH1 0x40 MLOAD PUSH32 0xA9059CBB00000000000000000000000000000000000000000000000000000000 DUP2 MSTORE CALLER PUSH1 0x4 DUP3 ADD MSTORE PUSH1 0x24 DUP2 ADD DUP5 SWAP1 MSTORE PUSH20 0xFFFFFFFFFFFFFFFFFFFFFFFFFFFFFFFFFFFFFFFF SWAP1 SWAP2 AND SWAP1 PUSH4 0xA9059CBB SWAP1 PUSH1 0x44 ADD PUSH1 0x20 PUSH1 0x40 MLOAD DUP1 DUP4 SUB DUP2 PUSH1 0x0 DUP8 GAS CALL ISZERO DUP1 ISZERO PUSH2 0x1263 JUMPI RETURNDATASIZE PUSH1 0x0 DUP1 RETURNDATACOPY RETURNDATASIZE PUSH1 0x0 REVERT JUMPDEST POP POP POP POP PUSH1 0x40 MLOAD RETURNDATASIZE PUSH1 0x1F NOT PUSH1 0x1F DUP3 ADD AND DUP3 ADD DUP1 PUSH1 0x40 MSTORE POP DUP2 ADD SWAP1 PUSH2 0x1287 SWAP2 SWAP1 PUSH2 0x2C8B JUMP JUMPDEST POP POP CALLER PUSH1 0x0 SWAP1 DUP2 MSTORE PUSH1 0x4 PUSH1 0x20 MSTORE PUSH1 0x40 DUP2 KECCAK256 SSTORE POP JUMP JUMPDEST PUSH1 0x5 SLOAD PUSH20 0xFFFFFFFFFFFFFFFFFFFFFFFFFFFFFFFFFFFFFFFF AND PUSH2 0x131B JUMPI PUSH1 0x40 MLOAD PUSH32 0x8C379A000000000000000000000000000000000000000000000000000000000 DUP2 MSTORE PUSH1 0x20 PUSH1 0x4 DUP3 ADD MSTORE PUSH1 0x1A PUSH1 0x24 DUP3 ADD MSTORE PUSH32 0x4552433230206E6F74207365747465642E204F6E6C7920657468000000000000 PUSH1 0x44 DUP3 ADD MSTORE PUSH1 0x64 ADD PUSH2 0x277 JUMP JUMPDEST PUSH1 0xA SLOAD DUP4 GT ISZERO PUSH2 0x1387 JUMPI PUSH1 0x40 MLOAD PUSH32 0x8C379A000000000000000000000000000000000000000000000000000000000 DUP2 MSTORE PUSH1 0x20 PUSH1 0x4 DUP3 ADD MSTORE PUSH1 0xB PUSH1 0x24 DUP3 ADD MSTORE PUSH32 0x42657420746F6F20626967000000000000000000000000000000000000000000 PUSH1 0x44 DUP3 ADD MSTORE PUSH1 0x64 ADD PUSH2 0x277 JUMP JUMPDEST PUSH1 0x0 PUSH2 0x1393 DUP4 DUP6 PUSH2 0x2C48 JUMP JUMPDEST CALLER PUSH1 0x0 SWAP1 DUP2 MSTORE PUSH1 0x4 PUSH1 0x20 MSTORE PUSH1 0x40 SWAP1 KECCAK256 SLOAD SWAP1 SWAP2 POP DUP2 GT ISZERO PUSH2 0x140F JUMPI PUSH1 0x40 MLOAD PUSH32 0x8C379A000000000000000000000000000000000000000000000000000000000 DUP2 MSTORE PUSH1 0x20 PUSH1 0x4 DUP3 ADD MSTORE PUSH1 0x13 PUSH1 0x24 DUP3 ADD MSTORE PUSH32 0x42616C616E6365206E6F7420656E6F7567687400000000000000000000000000 PUSH1 0x44 DUP3 ADD MSTORE PUSH1 0x64 ADD PUSH2 0x277 JUMP JUMPDEST PUSH1 0xB SLOAD DUP4 GT ISZERO PUSH2 0x147B JUMPI PUSH1 0x40 MLOAD PUSH32 0x8C379A000000000000000000000000000000000000000000000000000000000 DUP2 MSTORE PUSH1 0x20 PUSH1 0x4 DUP3 ADD MSTORE PUSH1 0xE PUSH1 0x24 DUP3 ADD MSTORE PUSH32 0x546F6F206D616E79206C696E6573000000000000000000000000000000000000 PUSH1 0x44 DUP3 ADD MSTORE PUSH1 0x64 ADD PUSH2 0x277 JUMP JUMPDEST PUSH1 0xC SLOAD PUSH2 0x1489 SWAP1 PUSH1 0x1 PUSH2 0x2C78 JUMP JUMPDEST DUP4 GT ISZERO PUSH2 0x14F2 JUMPI PUSH1 0x40 MLOAD PUSH32 0x8C379A000000000000000000000000000000000000000000000000000000000 DUP2 MSTORE PUSH1 0x20 PUSH1 0x4 DUP3 ADD MSTORE PUSH1 0xE PUSH1 0x24 DUP3 ADD MSTORE PUSH32 0x546F6F206D616E79206C696E6573000000000000000000000000000000000000 PUSH1 0x44 DUP3 ADD MSTORE PUSH1 0x64 ADD PUSH2 0x277 JUMP JUMPDEST PUSH2 0x1500 PUSH1 0x2 DUP1 SLOAD PUSH1 0x1 ADD SWAP1 SSTORE JUMP JUMPDEST PUSH1 0x0 PUSH2 0x150B PUSH1 0x2 SLOAD SWAP1 JUMP JUMPDEST SWAP1 POP PUSH1 0x0 PUSH2 0x151B DUP3 DUP8 DUP8 DUP8 PUSH2 0x1B1E JUMP JUMPDEST CALLER PUSH1 0x0 SWAP1 DUP2 MSTORE PUSH1 0x4 PUSH1 0x20 MSTORE PUSH1 0x40 SWAP1 KECCAK256 SLOAD SWAP1 SWAP2 POP DUP2 SWAP1 PUSH2 0x153B SWAP1 DUP6 SWAP1 PUSH2 0x2CAD JUMP JUMPDEST PUSH2 0x1545 SWAP2 SWAP1 PUSH2 0x2C78 JUMP JUMPDEST CALLER PUSH1 0x0 SWAP1 DUP2 MSTORE PUSH1 0x4 PUSH1 0x20 MSTORE PUSH1 0x40 SWAP1 KECCAK256 SSTORE POP POP POP POP POP POP JUMP JUMPDEST PUSH2 0x1565 PUSH2 0x2728 JUMP JUMPDEST PUSH1 0x40 DUP1 MLOAD PUSH2 0x120 DUP2 ADD SWAP1 SWAP2 MSTORE PUSH1 0xD PUSH1 0x9 PUSH1 0x0 DUP4 JUMPDEST DUP3 DUP3 LT ISZERO PUSH2 0xAF8 JUMPI PUSH1 0x40 DUP1 MLOAD PUSH1 0xA0 DUP2 ADD SWAP2 DUP3 SWAP1 MSTORE SWAP1 PUSH1 0x5 DUP5 DUP2 MUL DUP8 ADD SWAP2 DUP3 DUP5 JUMPDEST DUP2 SLOAD DUP2 MSTORE PUSH1 0x20 ADD SWAP1 PUSH1 0x1 ADD SWAP1 DUP1 DUP4 GT PUSH2 0x1599 JUMPI POP POP POP POP POP DUP2 MSTORE PUSH1 0x20 ADD SWAP1 PUSH1 0x1 ADD SWAP1 PUSH2 0x1579 JUMP JUMPDEST PUSH2 0x15C8 PUSH2 0x198D JUMP JUMPDEST PUSH1 0x7 SSTORE JUMP JUMPDEST PUSH1 0x5 SLOAD PUSH1 0x0 SWAP1 PUSH20 0xFFFFFFFFFFFFFFFFFFFFFFFFFFFFFFFFFFFFFFFF AND PUSH2 0x15F3 JUMPI POP PUSH1 0x0 SWAP1 JUMP JUMPDEST PUSH1 0x5 SLOAD PUSH1 0x40 MLOAD PUSH32 0x70A0823100000000000000000000000000000000000000000000000000000000 DUP2 MSTORE ADDRESS PUSH1 0x4 DUP3 ADD MSTORE PUSH1 0x0 SWAP2 PUSH20 0xFFFFFFFFFFFFFFFFFFFFFFFFFFFFFFFFFFFFFFFF AND SWAP1 PUSH4 0x70A08231 SWAP1 PUSH1 0x24 ADD PUSH1 0x20 PUSH1 0x40 MLOAD DUP1 DUP4 SUB DUP2 DUP7 GAS STATICCALL ISZERO DUP1 ISZERO PUSH2 0x1662 JUMPI RETURNDATASIZE PUSH1 0x0 DUP1 RETURNDATACOPY RETURNDATASIZE PUSH1 0x0 REVERT JUMPDEST POP POP POP POP PUSH1 0x40 MLOAD RETURNDATASIZE PUSH1 0x1F NOT PUSH1 0x1F DUP3 ADD AND DUP3 ADD DUP1 PUSH1 0x40 MSTORE POP DUP2 ADD SWAP1 PUSH2 0x1686 SWAP2 SWAP1 PUSH2 0x2C5F JUMP JUMPDEST SWAP1 POP PUSH1 0x0 PUSH2 0x1696 DUP3 PUSH1 0x6 SLOAD PUSH2 0x1D7B JUMP JUMPDEST SWAP4 SWAP3 POP POP POP JUMP JUMPDEST PUSH2 0x16A5 PUSH2 0x198D JUMP JUMPDEST PUSH20 0xFFFFFFFFFFFFFFFFFFFFFFFFFFFFFFFFFFFFFFFF DUP2 AND PUSH2 0x1748 JUMPI PUSH1 0x40 MLOAD PUSH32 0x8C379A000000000000000000000000000000000000000000000000000000000 DUP2 MSTORE PUSH1 0x20 PUSH1 0x4 DUP3 ADD MSTORE PUSH1 0x26 PUSH1 0x24 DUP3 ADD MSTORE PUSH32 0x4F776E61626C653A206E6577206F776E657220697320746865207A65726F2061 PUSH1 0x44 DUP3 ADD MSTORE PUSH32 0x6464726573730000000000000000000000000000000000000000000000000000 PUSH1 0x64 DUP3 ADD MSTORE PUSH1 0x84 ADD PUSH2 0x277 JUMP JUMPDEST PUSH2 0x1751 DUP2 PUSH2 0x1AA9 JUMP JUMPDEST POP JUMP JUMPDEST PUSH2 0x175C PUSH2 0x198D JUMP JUMPDEST PUSH1 0x0 PUSH2 0x1769 DUP3 PUSH1 0x5 PUSH2 0x1D90 JUMP JUMPDEST SWAP1 POP PUSH1 0x0 TIMESTAMP PUSH1 0x44 SLOAD PUSH1 0x46 SLOAD PUSH1 0x45 SLOAD DUP7 DUP7 NUMBER PUSH2 0x1784 SWAP2 SWAP1 PUSH2 0x2CAD JUMP JUMPDEST BLOCKHASH DIFFICULTY PUSH2 0x178F PUSH1 0x2 SLOAD SWAP1 JUMP JUMPDEST PUSH1 0x40 DUP1 MLOAD PUSH1 0x20 DUP2 ADD SWAP10 SWAP1 SWAP10 MSTORE DUP9 ADD SWAP7 SWAP1 SWAP7 MSTORE PUSH1 0x60 DUP8 ADD SWAP5 SWAP1 SWAP5 MSTORE PUSH1 0x80 DUP7 ADD SWAP3 SWAP1 SWAP3 MSTORE PUSH1 0xA0 DUP6 ADD MSTORE PUSH1 0xC0 DUP5 ADD MSTORE PUSH1 0xE0 DUP4 ADD MSTORE PUSH2 0x100 DUP3 ADD MSTORE PUSH2 0x120 ADD PUSH1 0x40 DUP1 MLOAD PUSH32 0xFFFFFFFFFFFFFFFFFFFFFFFFFFFFFFFFFFFFFFFFFFFFFFFFFFFFFFFFFFFFFFE0 DUP2 DUP5 SUB ADD DUP2 MSTORE SWAP2 SWAP1 MSTORE DUP1 MLOAD PUSH1 0x20 SWAP1 SWAP2 ADD KECCAK256 PUSH1 0x45 DUP1 SLOAD PUSH1 0x46 SSTORE SSTORE POP POP POP JUMP JUMPDEST PUSH2 0x1815 PUSH2 0x198D JUMP JUMPDEST PUSH1 0x5 SLOAD PUSH20 0xFFFFFFFFFFFFFFFFFFFFFFFFFFFFFFFFFFFFFFFF AND PUSH2 0x185E JUMPI PUSH1 0x40 MLOAD CALLER SWAP1 SELFBALANCE DUP1 ISZERO PUSH2 0x8FC MUL SWAP2 PUSH1 0x0 DUP2 DUP2 DUP2 DUP6 DUP9 DUP9 CALL SWAP4 POP POP POP POP ISZERO DUP1 ISZERO PUSH2 0x1751 JUMPI RETURNDATASIZE PUSH1 0x0 DUP1 RETURNDATACOPY RETURNDATASIZE PUSH1 0x0 REVERT JUMPDEST PUSH1 0x5 SLOAD PUSH1 0x40 MLOAD PUSH32 0x70A0823100000000000000000000000000000000000000000000000000000000 DUP2 MSTORE ADDRESS PUSH1 0x4 DUP3 ADD MSTORE PUSH1 0x0 SWAP2 PUSH20 0xFFFFFFFFFFFFFFFFFFFFFFFFFFFFFFFFFFFFFFFF AND SWAP1 PUSH4 0x70A08231 SWAP1 PUSH1 0x24 ADD PUSH1 0x20 PUSH1 0x40 MLOAD DUP1 DUP4 SUB DUP2 DUP7 GAS STATICCALL ISZERO DUP1 ISZERO PUSH2 0x18CD JUMPI RETURNDATASIZE PUSH1 0x0 DUP1 RETURNDATACOPY RETURNDATASIZE PUSH1 0x0 REVERT JUMPDEST POP POP POP POP PUSH1 0x40 MLOAD RETURNDATASIZE PUSH1 0x1F NOT PUSH1 0x1F DUP3 ADD AND DUP3 ADD DUP1 PUSH1 0x40 MSTORE POP DUP2 ADD SWAP1 PUSH2 0x18F1 SWAP2 SWAP1 PUSH2 0x2C5F JUMP JUMPDEST PUSH1 0x5 SLOAD PUSH1 0x40 MLOAD PUSH32 0xA9059CBB00000000000000000000000000000000000000000000000000000000 DUP2 MSTORE CALLER PUSH1 0x4 DUP3 ADD MSTORE PUSH1 0x24 DUP2 ADD DUP4 SWAP1 MSTORE SWAP2 SWAP3 POP PUSH20 0xFFFFFFFFFFFFFFFFFFFFFFFFFFFFFFFFFFFFFFFF AND SWAP1 PUSH4 0xA9059CBB SWAP1 PUSH1 0x44 ADD PUSH1 0x20 PUSH1 0x40 MLOAD DUP1 DUP4 SUB DUP2 PUSH1 0x0 DUP8 GAS CALL ISZERO DUP1 ISZERO PUSH2 0x1969 JUMPI RETURNDATASIZE PUSH1 0x0 DUP1 RETURNDATACOPY RETURNDATASIZE PUSH1 0x0 REVERT JUMPDEST POP POP POP POP PUSH1 0x40 MLOAD RETURNDATASIZE PUSH1 0x1F NOT PUSH1 0x1F DUP3 ADD AND DUP3 ADD DUP1 PUSH1 0x40 MSTORE POP DUP2 ADD SWAP1 PUSH2 0xB67 SWAP2 SWAP1 PUSH2 0x2C8B JUMP JUMPDEST PUSH1 0x0 SLOAD PUSH20 0xFFFFFFFFFFFFFFFFFFFFFFFFFFFFFFFFFFFFFFFF AND CALLER EQ PUSH2 0xB7D JUMPI PUSH1 0x40 MLOAD PUSH32 0x8C379A000000000000000000000000000000000000000000000000000000000 DUP2 MSTORE PUSH1 0x20 PUSH1 0x4 DUP3 ADD DUP2 SWAP1 MSTORE PUSH1 0x24 DUP3 ADD MSTORE PUSH32 0x4F776E61626C653A2063616C6C6572206973206E6F7420746865206F776E6572 PUSH1 0x44 DUP3 ADD MSTORE PUSH1 0x64 ADD PUSH2 0x277 JUMP JUMPDEST PUSH1 0x40 DUP1 MLOAD PUSH20 0xFFFFFFFFFFFFFFFFFFFFFFFFFFFFFFFFFFFFFFFF DUP6 DUP2 AND PUSH1 0x24 DUP4 ADD MSTORE DUP5 AND PUSH1 0x44 DUP3 ADD MSTORE PUSH1 0x64 DUP1 DUP3 ADD DUP5 SWAP1 MSTORE DUP3 MLOAD DUP1 DUP4 SUB SWAP1 SWAP2 ADD DUP2 MSTORE PUSH1 0x84 SWAP1 SWAP2 ADD SWAP1 SWAP2 MSTORE PUSH1 0x20 DUP2 ADD DUP1 MLOAD PUSH28 0xFFFFFFFFFFFFFFFFFFFFFFFFFFFFFFFFFFFFFFFFFFFFFFFFFFFFFFFF AND PUSH32 0x23B872DD00000000000000000000000000000000000000000000000000000000 OR SWAP1 MSTORE PUSH2 0x1AA3 SWAP1 DUP6 SWAP1 PUSH2 0x1DB3 JUMP JUMPDEST POP POP POP POP JUMP JUMPDEST PUSH1 0x0 DUP1 SLOAD PUSH20 0xFFFFFFFFFFFFFFFFFFFFFFFFFFFFFFFFFFFFFFFF DUP4 DUP2 AND PUSH32 0xFFFFFFFFFFFFFFFFFFFFFFFF0000000000000000000000000000000000000000 DUP4 AND DUP2 OR DUP5 SSTORE PUSH1 0x40 MLOAD SWAP2 SWAP1 SWAP3 AND SWAP3 DUP4 SWAP2 PUSH32 0x8BE0079C531659141344CD1FD0A4F28419497F9722A3DAAFE3B4186F6B6457E0 SWAP2 SWAP1 LOG3 POP POP JUMP JUMPDEST PUSH1 0x0 DUP1 PUSH2 0x1B2A DUP4 PUSH2 0x1EC4 JUMP JUMPDEST SWAP1 POP PUSH1 0x0 DUP1 PUSH1 0x0 PUSH2 0x1B39 PUSH2 0x2756 JUMP JUMPDEST PUSH2 0x1B41 PUSH2 0x2756 JUMP JUMPDEST PUSH1 0x0 DUP1 JUMPDEST DUP11 DUP2 LT ISZERO PUSH2 0x1BCE JUMPI PUSH1 0x0 DUP1 PUSH2 0x1B5A DUP4 DUP12 PUSH2 0x212E JUMP JUMPDEST SWAP1 SWAP3 POP SWAP1 POP PUSH2 0x1B69 DUP15 DUP4 PUSH2 0x2C48 JUMP JUMPDEST SWAP2 POP PUSH2 0x1B75 DUP3 DUP6 PUSH2 0x2C78 JUMP JUMPDEST SWAP4 POP DUP2 DUP7 DUP5 PUSH1 0x14 DUP2 LT PUSH2 0x1B8A JUMPI PUSH2 0x1B8A PUSH2 0x2CC0 JUMP JUMPDEST PUSH1 0x20 MUL ADD MSTORE DUP1 DUP6 DUP5 PUSH1 0x14 DUP2 LT PUSH2 0x1BA2 JUMPI PUSH2 0x1BA2 PUSH2 0x2CC0 JUMP JUMPDEST PUSH1 0x20 MUL ADD MSTORE DUP8 DUP3 GT ISZERO PUSH2 0x1BB9 JUMPI DUP3 SWAP9 POP DUP2 SWAP8 POP DUP1 SWAP7 POP JUMPDEST POP POP DUP1 DUP1 PUSH2 0x1BC6 SWAP1 PUSH2 0x2CEF JUMP JUMPDEST SWAP2 POP POP PUSH2 0x1B45 JUMP JUMPDEST POP PUSH1 0x1 PUSH1 0x0 CALLER PUSH20 0xFFFFFFFFFFFFFFFFFFFFFFFFFFFFFFFFFFFFFFFF AND PUSH20 0xFFFFFFFFFFFFFFFFFFFFFFFFFFFFFFFFFFFFFFFF AND DUP2 MSTORE PUSH1 0x20 ADD SWAP1 DUP2 MSTORE PUSH1 0x20 ADD PUSH1 0x0 KECCAK256 PUSH1 0x40 MLOAD DUP1 PUSH1 0xE0 ADD PUSH1 0x40 MSTORE DUP1 DUP15 DUP2 MSTORE PUSH1 0x20 ADD CALLER PUSH20 0xFFFFFFFFFFFFFFFFFFFFFFFFFFFFFFFFFFFFFFFF AND DUP2 MSTORE PUSH1 0x20 ADD DUP14 DUP2 MSTORE PUSH1 0x20 ADD TIMESTAMP DUP2 MSTORE PUSH1 0x20 ADD DUP13 DUP2 MSTORE PUSH1 0x20 ADD DUP10 PUSH1 0x1 PUSH1 0x3 DUP2 LT PUSH2 0x1C60 JUMPI PUSH2 0x1C60 PUSH2 0x2CC0 JUMP JUMPDEST PUSH1 0x20 SWAP1 DUP2 MUL SWAP2 SWAP1 SWAP2 ADD MLOAD DUP3 MSTORE SWAP1 DUP2 ADD DUP5 SWAP1 MSTORE DUP3 SLOAD PUSH1 0x1 DUP1 DUP3 ADD DUP6 SSTORE PUSH1 0x0 SWAP5 DUP6 MSTORE SWAP4 DUP3 SWAP1 KECCAK256 DUP4 MLOAD PUSH1 0xB SWAP1 SWAP3 MUL ADD SWAP1 DUP2 SSTORE SWAP1 DUP3 ADD MLOAD SWAP3 DUP2 ADD DUP1 SLOAD PUSH32 0xFFFFFFFFFFFFFFFFFFFFFFFF0000000000000000000000000000000000000000 AND PUSH20 0xFFFFFFFFFFFFFFFFFFFFFFFFFFFFFFFFFFFFFFFF SWAP1 SWAP5 AND SWAP4 SWAP1 SWAP4 OR SWAP1 SWAP3 SSTORE PUSH1 0x40 DUP2 ADD MLOAD PUSH1 0x2 DUP4 ADD SSTORE PUSH1 0x60 DUP2 ADD MLOAD PUSH1 0x3 DUP4 ADD SSTORE PUSH1 0x80 DUP2 ADD MLOAD PUSH1 0x4 DUP4 ADD SSTORE PUSH1 0xA0 DUP2 ADD MLOAD SWAP1 SWAP2 SWAP1 PUSH2 0x1D0F SWAP1 PUSH1 0x5 DUP1 DUP5 ADD SWAP2 SWAP1 PUSH2 0x2775 JUMP JUMPDEST POP PUSH1 0xC0 SWAP2 SWAP1 SWAP2 ADD MLOAD PUSH1 0xA SWAP1 SWAP2 ADD SSTORE PUSH1 0x20 DUP8 ADD MLOAD PUSH1 0x40 MLOAD PUSH32 0x6C98C6AD5E22111183C867670BEAD07208DBD3ABA882D6BD87ADBBBDB645D59A SWAP2 PUSH2 0x1D62 SWAP2 CALLER SWAP2 DUP16 SWAP2 DUP16 SWAP2 DUP8 SWAP2 DUP11 SWAP1 DUP11 SWAP1 DUP16 SWAP1 DUP16 SWAP1 DUP16 SWAP1 PUSH2 0x2D4A JUMP JUMPDEST PUSH1 0x40 MLOAD DUP1 SWAP2 SUB SWAP1 LOG1 SWAP7 POP POP POP POP POP POP POP JUMPDEST SWAP5 SWAP4 POP POP POP POP JUMP JUMPDEST PUSH1 0x0 PUSH2 0x1D87 DUP3 DUP5 PUSH2 0x2E17 JUMP JUMPDEST SWAP1 POP JUMPDEST SWAP3 SWAP2 POP POP JUMP JUMPDEST PUSH1 0x0 DUP1 PUSH2 0x1D9C DUP5 PUSH2 0x2443 JUMP JUMPDEST SWAP1 POP PUSH1 0x0 PUSH2 0x1DAA DUP5 DUP4 PUSH2 0x2E2B JUMP JUMPDEST SWAP6 SWAP5 POP POP POP POP POP JUMP JUMPDEST PUSH1 0x0 PUSH2 0x1E15 DUP3 PUSH1 0x40 MLOAD DUP1 PUSH1 0x40 ADD PUSH1 0x40 MSTORE DUP1 PUSH1 0x20 DUP2 MSTORE PUSH1 0x20 ADD PUSH32 0x5361666545524332303A206C6F772D6C6576656C2063616C6C206661696C6564 DUP2 MSTORE POP DUP6 PUSH20 0xFFFFFFFFFFFFFFFFFFFFFFFFFFFFFFFFFFFFFFFF AND PUSH2 0x2522 SWAP1 SWAP3 SWAP2 SWAP1 PUSH4 0xFFFFFFFF AND JUMP JUMPDEST DUP1 MLOAD SWAP1 SWAP2 POP ISZERO PUSH2 0x1EBF JUMPI DUP1 DUP1 PUSH1 0x20 ADD SWAP1 MLOAD DUP2 ADD SWAP1 PUSH2 0x1E33 SWAP2 SWAP1 PUSH2 0x2C8B JUMP JUMPDEST PUSH2 0x1EBF JUMPI PUSH1 0x40 MLOAD PUSH32 0x8C379A000000000000000000000000000000000000000000000000000000000 DUP2 MSTORE PUSH1 0x20 PUSH1 0x4 DUP3 ADD MSTORE PUSH1 0x2A PUSH1 0x24 DUP3 ADD MSTORE PUSH32 0x5361666545524332303A204552433230206F7065726174696F6E20646964206E PUSH1 0x44 DUP3 ADD MSTORE PUSH32 0x6F74207375636365656400000000000000000000000000000000000000000000 PUSH1 0x64 DUP3 ADD MSTORE PUSH1 0x84 ADD PUSH2 0x277 JUMP JUMPDEST POP POP POP JUMP JUMPDEST PUSH2 0x1ECC PUSH2 0x27AF JUMP JUMPDEST PUSH1 0x0 PUSH2 0x1ED7 DUP4 PUSH2 0x2443 JUMP JUMPDEST SWAP1 POP PUSH1 0x0 PUSH2 0x1EE8 PUSH3 0x186A0 DUP4 PUSH2 0x2E2B JUMP JUMPDEST PUSH2 0x1EF5 SWAP1 PUSH3 0x186A0 PUSH2 0x2C78 JUMP JUMPDEST SWAP1 POP PUSH1 0x0 DUP1 PUSH1 0x0 PUSH1 0x40 MLOAD DUP1 PUSH1 0x60 ADD PUSH1 0x40 MSTORE DUP1 PUSH1 0x40 MLOAD DUP1 PUSH1 0xA0 ADD PUSH1 0x40 MSTORE DUP1 PUSH1 0x0 DUP2 MSTORE PUSH1 0x20 ADD PUSH1 0x0 DUP2 MSTORE PUSH1 0x20 ADD PUSH1 0x0 DUP2 MSTORE PUSH1 0x20 ADD PUSH1 0x0 DUP2 MSTORE PUSH1 0x20 ADD PUSH1 0x0 DUP2 MSTORE POP DUP2 MSTORE PUSH1 0x20 ADD PUSH1 0x40 MLOAD DUP1 PUSH1 0xA0 ADD PUSH1 0x40 MSTORE DUP1 PUSH1 0x3F PUSH1 0x0 PUSH1 0x5 DUP2 LT PUSH2 0x1F57 JUMPI PUSH2 0x1F57 PUSH2 0x2CC0 JUMP JUMPDEST ADD SLOAD PUSH1 0x3A SLOAD PUSH2 0x1F6C SWAP1 PUSH4 0xFFFFFFFF DUP12 AND PUSH2 0x2E2B JUMP JUMPDEST PUSH2 0x1F76 SWAP2 SWAP1 PUSH2 0x2E17 JUMP JUMPDEST DUP2 MSTORE PUSH1 0x40 SLOAD PUSH1 0x3B SLOAD PUSH1 0x20 SWAP1 SWAP3 ADD SWAP2 PUSH2 0x1F94 SWAP1 PUSH4 0xFFFFFFFF DUP12 AND PUSH2 0x2E2B JUMP JUMPDEST PUSH2 0x1F9E SWAP2 SWAP1 PUSH2 0x2E17 JUMP JUMPDEST DUP2 MSTORE PUSH1 0x41 SLOAD PUSH1 0x3C SLOAD PUSH1 0x20 SWAP1 SWAP3 ADD SWAP2 PUSH2 0x1FBC SWAP1 PUSH4 0xFFFFFFFF DUP12 AND PUSH2 0x2E2B JUMP JUMPDEST PUSH2 0x1FC6 SWAP2 SWAP1 PUSH2 0x2E17 JUMP JUMPDEST DUP2 MSTORE PUSH1 0x42 SLOAD PUSH1 0x3D SLOAD PUSH1 0x20 SWAP1 SWAP3 ADD SWAP2 PUSH2 0x1FE4 SWAP1 PUSH4 0xFFFFFFFF DUP12 AND PUSH2 0x2E2B JUMP JUMPDEST PUSH2 0x1FEE SWAP2 SWAP1 PUSH2 0x2E17 JUMP JUMPDEST DUP2 MSTORE PUSH1 0x43 SLOAD PUSH1 0x3E SLOAD PUSH1 0x20 SWAP1 SWAP3 ADD SWAP2 PUSH2 0x200C SWAP1 PUSH4 0xFFFFFFFF DUP12 AND PUSH2 0x2E2B JUMP JUMPDEST PUSH2 0x2016 SWAP2 SWAP1 PUSH2 0x2E17 JUMP JUMPDEST DUP2 MSTORE POP DUP2 MSTORE PUSH1 0x20 ADD PUSH1 0x40 MLOAD DUP1 PUSH1 0xA0 ADD PUSH1 0x40 MSTORE DUP1 PUSH1 0x0 DUP2 MSTORE PUSH1 0x20 ADD PUSH1 0x0 DUP2 MSTORE PUSH1 0x20 ADD PUSH1 0x0 DUP2 MSTORE PUSH1 0x20 ADD PUSH1 0x0 DUP2 MSTORE PUSH1 0x20 ADD PUSH1 0x0 DUP2 MSTORE POP DUP2 MSTORE POP SWAP1 POP PUSH1 0x0 SWAP3 POP JUMPDEST PUSH1 0x3 SLOAD PUSH4 0xFFFFFFFF AND DUP4 LT ISZERO PUSH2 0x2124 JUMPI PUSH1 0x20 DUP2 ADD MLOAD DUP4 PUSH1 0x5 DUP2 LT PUSH2 0x207A JUMPI PUSH2 0x207A PUSH2 0x2CC0 JUMP JUMPDEST PUSH1 0x20 MUL ADD MLOAD SWAP2 POP DUP2 PUSH1 0x9 SUB PUSH2 0x208E JUMPI PUSH1 0x0 SWAP2 POP JUMPDEST PUSH1 0x20 DUP2 ADD MLOAD DUP3 SWAP1 DUP5 PUSH1 0x5 DUP2 LT PUSH2 0x20A6 JUMPI PUSH2 0x20A6 PUSH2 0x2CC0 JUMP JUMPDEST PUSH1 0x20 MUL ADD MSTORE DUP2 ISZERO PUSH2 0x20C1 JUMPI PUSH2 0x20BC PUSH1 0x1 DUP4 PUSH2 0x2CAD JUMP JUMPDEST PUSH2 0x20C4 JUMP JUMPDEST PUSH1 0x8 JUMPDEST DUP2 MLOAD DUP5 PUSH1 0x5 DUP2 LT PUSH2 0x20D7 JUMPI PUSH2 0x20D7 PUSH2 0x2CC0 JUMP JUMPDEST PUSH1 0x20 MUL ADD MSTORE PUSH1 0x8 DUP3 EQ PUSH2 0x20F4 JUMPI PUSH2 0x20EF DUP3 PUSH1 0x1 PUSH2 0x2C78 JUMP JUMPDEST PUSH2 0x20F7 JUMP JUMPDEST PUSH1 0x0 JUMPDEST PUSH1 0x40 DUP3 ADD MLOAD DUP5 PUSH1 0x5 DUP2 LT PUSH2 0x210D JUMPI PUSH2 0x210D PUSH2 0x2CC0 JUMP JUMPDEST PUSH1 0x20 MUL ADD MSTORE DUP3 PUSH2 0x211C DUP2 PUSH2 0x2CEF JUMP JUMPDEST SWAP4 POP POP PUSH2 0x2054 JUMP JUMPDEST SWAP7 SWAP6 POP POP POP POP POP POP JUMP JUMPDEST PUSH1 0x0 DUP1 DUP1 DUP1 DUP1 DUP1 JUMPDEST PUSH1 0x5 DUP2 LT ISZERO PUSH2 0x21CE JUMPI PUSH1 0x7 SLOAD DUP8 PUSH1 0xC DUP11 DUP2 SLOAD DUP2 LT PUSH2 0x2156 JUMPI PUSH2 0x2156 PUSH2 0x2CC0 JUMP JUMPDEST SWAP1 PUSH1 0x0 MSTORE PUSH1 0x20 PUSH1 0x0 KECCAK256 SWAP1 PUSH1 0x5 MUL ADD DUP4 PUSH1 0x5 DUP2 LT PUSH2 0x2175 JUMPI PUSH2 0x2175 PUSH2 0x2CC0 JUMP JUMPDEST ADD SLOAD PUSH1 0x3 DUP2 LT PUSH2 0x2187 JUMPI PUSH2 0x2187 PUSH2 0x2CC0 JUMP JUMPDEST PUSH1 0x20 MUL ADD MLOAD DUP3 PUSH1 0x5 DUP2 LT PUSH2 0x219D JUMPI PUSH2 0x219D PUSH2 0x2CC0 JUMP JUMPDEST PUSH1 0x20 MUL ADD MLOAD EQ PUSH2 0x21AF JUMPI DUP1 SWAP3 POP PUSH2 0x21CE JUMP JUMPDEST DUP4 PUSH2 0x21B9 DUP2 PUSH2 0x2CEF JUMP JUMPDEST SWAP5 POP POP DUP1 PUSH2 0x21C6 DUP2 PUSH2 0x2CEF JUMP JUMPDEST SWAP2 POP POP PUSH2 0x2136 JUMP JUMPDEST POP PUSH1 0x0 DUP4 GT DUP1 ISZERO PUSH2 0x2214 JUMPI POP PUSH1 0x0 PUSH1 0xD PUSH1 0x7 SLOAD PUSH1 0x9 DUP2 LT PUSH2 0x21F1 JUMPI PUSH2 0x21F1 PUSH2 0x2CC0 JUMP JUMPDEST PUSH1 0x5 MUL ADD PUSH2 0x2200 PUSH1 0x1 DUP7 PUSH2 0x2CAD JUMP JUMPDEST PUSH1 0x5 DUP2 LT PUSH2 0x2210 JUMPI PUSH2 0x2210 PUSH2 0x2CC0 JUMP JUMPDEST ADD SLOAD GT JUMPDEST ISZERO PUSH2 0x2263 JUMPI PUSH1 0x0 PUSH1 0xD PUSH1 0x7 SLOAD PUSH1 0x9 DUP2 LT PUSH2 0x2230 JUMPI PUSH2 0x2230 PUSH2 0x2CC0 JUMP JUMPDEST PUSH1 0x5 MUL ADD PUSH2 0x223F PUSH1 0x1 DUP7 PUSH2 0x2CAD JUMP JUMPDEST PUSH1 0x5 DUP2 LT PUSH2 0x224F JUMPI PUSH2 0x224F PUSH2 0x2CC0 JUMP JUMPDEST ADD SLOAD PUSH1 0x7 SLOAD SWAP1 SWAP7 POP SWAP5 POP PUSH2 0x243C SWAP4 POP POP POP POP JUMP JUMPDEST DUP3 PUSH2 0x226D DUP2 PUSH2 0x2CEF JUMP JUMPDEST SWAP4 POP POP DUP6 PUSH1 0xC DUP9 DUP2 SLOAD DUP2 LT PUSH2 0x2284 JUMPI PUSH2 0x2284 PUSH2 0x2CC0 JUMP JUMPDEST SWAP1 PUSH1 0x0 MSTORE PUSH1 0x20 PUSH1 0x0 KECCAK256 SWAP1 PUSH1 0x5 MUL ADD DUP4 PUSH1 0x5 DUP2 LT PUSH2 0x22A3 JUMPI PUSH2 0x22A3 PUSH2 0x2CC0 JUMP JUMPDEST ADD SLOAD PUSH1 0x3 DUP2 LT PUSH2 0x22B5 JUMPI PUSH2 0x22B5 PUSH2 0x2CC0 JUMP JUMPDEST PUSH1 0x20 MUL ADD MLOAD DUP3 PUSH1 0x5 DUP2 LT PUSH2 0x22CB JUMPI PUSH2 0x22CB PUSH2 0x2CC0 JUMP JUMPDEST PUSH1 0x20 MUL ADD MLOAD SWAP1 POP PUSH1 0x0 PUSH2 0x22DF DUP4 PUSH1 0x1 PUSH2 0x2C78 JUMP JUMPDEST SWAP1 POP JUMPDEST PUSH1 0x5 DUP2 LT ISZERO PUSH2 0x23E6 JUMPI DUP2 DUP8 PUSH1 0xC DUP11 DUP2 SLOAD DUP2 LT PUSH2 0x2300 JUMPI PUSH2 0x2300 PUSH2 0x2CC0 JUMP JUMPDEST SWAP1 PUSH1 0x0 MSTORE PUSH1 0x20 PUSH1 0x0 KECCAK256 SWAP1 PUSH1 0x5 MUL ADD DUP4 PUSH1 0x5 DUP2 LT PUSH2 0x231F JUMPI PUSH2 0x231F PUSH2 0x2CC0 JUMP JUMPDEST ADD SLOAD PUSH1 0x3 DUP2 LT PUSH2 0x2331 JUMPI PUSH2 0x2331 PUSH2 0x2CC0 JUMP JUMPDEST PUSH1 0x20 MUL ADD MLOAD DUP3 PUSH1 0x5 DUP2 LT PUSH2 0x2347 JUMPI PUSH2 0x2347 PUSH2 0x2CC0 JUMP JUMPDEST PUSH1 0x20 MUL ADD MLOAD EQ DUP1 PUSH2 0x23B8 JUMPI POP PUSH1 0x7 SLOAD DUP8 PUSH1 0xC DUP11 DUP2 SLOAD DUP2 LT PUSH2 0x236A JUMPI PUSH2 0x236A PUSH2 0x2CC0 JUMP JUMPDEST SWAP1 PUSH1 0x0 MSTORE PUSH1 0x20 PUSH1 0x0 KECCAK256 SWAP1 PUSH1 0x5 MUL ADD DUP4 PUSH1 0x5 DUP2 LT PUSH2 0x2389 JUMPI PUSH2 0x2389 PUSH2 0x2CC0 JUMP JUMPDEST ADD SLOAD PUSH1 0x3 DUP2 LT PUSH2 0x239B JUMPI PUSH2 0x239B PUSH2 0x2CC0 JUMP JUMPDEST PUSH1 0x20 MUL ADD MLOAD DUP3 PUSH1 0x5 DUP2 LT PUSH2 0x23B1 JUMPI PUSH2 0x23B1 PUSH2 0x2CC0 JUMP JUMPDEST PUSH1 0x20 MUL ADD MLOAD EQ JUMPDEST ISZERO PUSH2 0x23CF JUMPI DUP4 PUSH2 0x23C7 DUP2 PUSH2 0x2CEF JUMP JUMPDEST SWAP5 POP POP PUSH2 0x23D4 JUMP JUMPDEST PUSH2 0x23E6 JUMP JUMPDEST DUP1 PUSH2 0x23DE DUP2 PUSH2 0x2CEF JUMP JUMPDEST SWAP2 POP POP PUSH2 0x22E2 JUMP JUMPDEST POP DUP3 ISZERO PUSH2 0x2431 JUMPI PUSH1 0x0 PUSH1 0xD DUP3 PUSH1 0x9 DUP2 LT PUSH2 0x2402 JUMPI PUSH2 0x2402 PUSH2 0x2CC0 JUMP JUMPDEST PUSH1 0x5 MUL ADD PUSH2 0x2411 PUSH1 0x1 DUP7 PUSH2 0x2CAD JUMP JUMPDEST PUSH1 0x5 DUP2 LT PUSH2 0x2421 JUMPI PUSH2 0x2421 PUSH2 0x2CC0 JUMP JUMPDEST ADD SLOAD SWAP6 POP SWAP1 SWAP4 POP PUSH2 0x243C SWAP3 POP POP POP JUMP JUMPDEST PUSH1 0x0 DUP1 SWAP5 POP SWAP5 POP POP POP POP JUMPDEST SWAP3 POP SWAP3 SWAP1 POP JUMP JUMPDEST PUSH1 0x0 DUP1 TIMESTAMP DUP4 PUSH1 0x44 SLOAD PUSH1 0x45 SLOAD PUSH1 0x46 SLOAD PUSH1 0x1 NUMBER PUSH2 0x245E SWAP2 SWAP1 PUSH2 0x2CAD JUMP JUMPDEST BLOCKHASH DIFFICULTY GASPRICE CALLER GAS PUSH1 0x2 SLOAD PUSH1 0x40 DUP1 MLOAD PUSH1 0x20 DUP2 ADD SWAP13 SWAP1 SWAP13 MSTORE DUP12 ADD SWAP10 SWAP1 SWAP10 MSTORE PUSH1 0x60 DUP1 DUP12 ADD SWAP9 SWAP1 SWAP9 MSTORE PUSH1 0x80 DUP11 ADD SWAP7 SWAP1 SWAP7 MSTORE PUSH1 0xA0 DUP10 ADD SWAP5 SWAP1 SWAP5 MSTORE PUSH1 0xC0 DUP9 ADD SWAP3 SWAP1 SWAP3 MSTORE PUSH1 0xE0 DUP8 ADD MSTORE PUSH2 0x100 DUP7 ADD MSTORE SWAP1 SWAP2 SHL PUSH32 0xFFFFFFFFFFFFFFFFFFFFFFFFFFFFFFFFFFFFFFFF000000000000000000000000 AND PUSH2 0x120 DUP5 ADD MSTORE PUSH2 0x134 DUP4 ADD MSTORE PUSH2 0x154 DUP3 ADD MSTORE PUSH2 0x174 ADD PUSH1 0x40 DUP1 MLOAD PUSH32 0xFFFFFFFFFFFFFFFFFFFFFFFFFFFFFFFFFFFFFFFFFFFFFFFFFFFFFFFFFFFFFFE0 DUP2 DUP5 SUB ADD DUP2 MSTORE SWAP2 SWAP1 MSTORE DUP1 MLOAD PUSH1 0x20 SWAP1 SWAP2 ADD KECCAK256 PUSH1 0x44 SWAP4 SWAP1 SWAP4 SSTORE POP SWAP1 SWAP2 SWAP1 POP JUMP JUMPDEST PUSH1 0x60 PUSH2 0x1D73 DUP5 DUP5 PUSH1 0x0 DUP6 DUP6 PUSH1 0x0 DUP1 DUP7 PUSH20 0xFFFFFFFFFFFFFFFFFFFFFFFFFFFFFFFFFFFFFFFF AND DUP6 DUP8 PUSH1 0x40 MLOAD PUSH2 0x2556 SWAP2 SWAP1 PUSH2 0x2E63 JUMP JUMPDEST PUSH1 0x0 PUSH1 0x40 MLOAD DUP1 DUP4 SUB DUP2 DUP6 DUP8 GAS CALL SWAP3 POP POP POP RETURNDATASIZE DUP1 PUSH1 0x0 DUP2 EQ PUSH2 0x2593 JUMPI PUSH1 0x40 MLOAD SWAP2 POP PUSH1 0x1F NOT PUSH1 0x3F RETURNDATASIZE ADD AND DUP3 ADD PUSH1 0x40 MSTORE RETURNDATASIZE DUP3 MSTORE RETURNDATASIZE PUSH1 0x0 PUSH1 0x20 DUP5 ADD RETURNDATACOPY PUSH2 0x2598 JUMP JUMPDEST PUSH1 0x60 SWAP2 POP JUMPDEST POP SWAP2 POP SWAP2 POP PUSH2 0x25A9 DUP8 DUP4 DUP4 DUP8 PUSH2 0x25B4 JUMP JUMPDEST SWAP8 SWAP7 POP POP POP POP POP POP POP JUMP JUMPDEST PUSH1 0x60 DUP4 ISZERO PUSH2 0x264A JUMPI DUP3 MLOAD PUSH1 0x0 SUB PUSH2 0x2643 JUMPI PUSH20 0xFFFFFFFFFFFFFFFFFFFFFFFFFFFFFFFFFFFFFFFF DUP6 AND EXTCODESIZE PUSH2 0x2643 JUMPI PUSH1 0x40 MLOAD PUSH32 0x8C379A000000000000000000000000000000000000000000000000000000000 DUP2 MSTORE PUSH1 0x20 PUSH1 0x4 DUP3 ADD MSTORE PUSH1 0x1D PUSH1 0x24 DUP3 ADD MSTORE PUSH32 0x416464726573733A2063616C6C20746F206E6F6E2D636F6E7472616374000000 PUSH1 0x44 DUP3 ADD MSTORE PUSH1 0x64 ADD PUSH2 0x277 JUMP JUMPDEST POP DUP2 PUSH2 0x1D73 JUMP JUMPDEST PUSH2 0x1D73 DUP4 DUP4 DUP2 MLOAD ISZERO PUSH2 0x265F JUMPI DUP2 MLOAD DUP1 DUP4 PUSH1 0x20 ADD REVERT JUMPDEST DUP1 PUSH1 0x40 MLOAD PUSH32 0x8C379A000000000000000000000000000000000000000000000000000000000 DUP2 MSTORE PUSH1 0x4 ADD PUSH2 0x277 SWAP2 SWAP1 PUSH2 0x2E7F JUMP JUMPDEST PUSH1 0x2D DUP4 ADD SWAP2 DUP4 SWAP1 DUP3 ISZERO PUSH2 0x26CE JUMPI SWAP2 PUSH1 0x20 MUL DUP3 ADD JUMPDEST DUP3 DUP2 GT ISZERO PUSH2 0x26CE JUMPI DUP3 MLOAD PUSH2 0x26BE SWAP1 DUP4 SWAP1 PUSH1 0x5 PUSH2 0x2775 JUMP JUMPDEST POP SWAP2 PUSH1 0x20 ADD SWAP2 SWAP1 PUSH1 0x5 ADD SWAP1 PUSH2 0x26A7 JUMP JUMPDEST POP PUSH2 0x26DA SWAP3 SWAP2 POP PUSH2 0x27DC JUMP JUMPDEST POP SWAP1 JUMP JUMPDEST DUP3 DUP1 SLOAD DUP3 DUP3 SSTORE SWAP1 PUSH1 0x0 MSTORE PUSH1 0x20 PUSH1 0x0 KECCAK256 SWAP1 PUSH1 0x5 MUL DUP2 ADD SWAP3 DUP3 ISZERO PUSH2 0x26CE JUMPI SWAP2 PUSH1 0x20 MUL DUP3 ADD JUMPDEST DUP3 DUP2 GT ISZERO PUSH2 0x26CE JUMPI DUP3 MLOAD PUSH2 0x2718 SWAP1 DUP4 SWAP1 PUSH1 0x5 PUSH2 0x2775 JUMP JUMPDEST POP SWAP2 PUSH1 0x20 ADD SWAP2 SWAP1 PUSH1 0x5 ADD SWAP1 PUSH2 0x2701 JUMP JUMPDEST PUSH1 0x40 MLOAD DUP1 PUSH2 0x120 ADD PUSH1 0x40 MSTORE DUP1 PUSH1 0x9 SWAP1 JUMPDEST PUSH2 0x2740 PUSH2 0x280B JUMP JUMPDEST DUP2 MSTORE PUSH1 0x20 ADD SWAP1 PUSH1 0x1 SWAP1 SUB SWAP1 DUP2 PUSH2 0x2738 JUMPI SWAP1 POP POP SWAP1 JUMP JUMPDEST PUSH1 0x40 MLOAD DUP1 PUSH2 0x280 ADD PUSH1 0x40 MSTORE DUP1 PUSH1 0x14 SWAP1 PUSH1 0x20 DUP3 MUL DUP1 CALLDATASIZE DUP4 CALLDATACOPY POP SWAP2 SWAP3 SWAP2 POP POP JUMP JUMPDEST DUP3 PUSH1 0x5 DUP2 ADD SWAP3 DUP3 ISZERO PUSH2 0x27A3 JUMPI SWAP2 PUSH1 0x20 MUL DUP3 ADD JUMPDEST DUP3 DUP2 GT ISZERO PUSH2 0x27A3 JUMPI DUP3 MLOAD DUP3 SSTORE SWAP2 PUSH1 0x20 ADD SWAP2 SWAP1 PUSH1 0x1 ADD SWAP1 PUSH2 0x2788 JUMP JUMPDEST POP PUSH2 0x26DA SWAP3 SWAP2 POP PUSH2 0x2829 JUMP JUMPDEST PUSH1 0x40 MLOAD DUP1 PUSH1 0x60 ADD PUSH1 0x40 MSTORE DUP1 PUSH1 0x3 SWAP1 JUMPDEST PUSH2 0x27C6 PUSH2 0x280B JUMP JUMPDEST DUP2 MSTORE PUSH1 0x20 ADD SWAP1 PUSH1 0x1 SWAP1 SUB SWAP1 DUP2 PUSH2 0x27BE JUMPI SWAP1 POP POP SWAP1 JUMP JUMPDEST DUP1 DUP3 GT ISZERO PUSH2 0x26DA JUMPI PUSH1 0x0 DUP1 DUP3 SSTORE PUSH1 0x1 DUP3 ADD DUP2 SWAP1 SSTORE PUSH1 0x2 DUP3 ADD DUP2 SWAP1 SSTORE PUSH1 0x3 DUP3 ADD DUP2 SWAP1 SSTORE PUSH1 0x4 DUP3 ADD SSTORE PUSH1 0x5 ADD PUSH2 0x27DC JUMP JUMPDEST PUSH1 0x40 MLOAD DUP1 PUSH1 0xA0 ADD PUSH1 0x40 MSTORE DUP1 PUSH1 0x5 SWAP1 PUSH1 0x20 DUP3 MUL DUP1 CALLDATASIZE DUP4 CALLDATACOPY POP SWAP2 SWAP3 SWAP2 POP POP JUMP JUMPDEST JUMPDEST DUP1 DUP3 GT ISZERO PUSH2 0x26DA JUMPI PUSH1 0x0 DUP2 SSTORE PUSH1 0x1 ADD PUSH2 0x282A JUMP JUMPDEST DUP1 CALLDATALOAD PUSH20 0xFFFFFFFFFFFFFFFFFFFFFFFFFFFFFFFFFFFFFFFF DUP2 AND DUP2 EQ PUSH2 0x2862 JUMPI PUSH1 0x0 DUP1 REVERT JUMPDEST SWAP2 SWAP1 POP JUMP JUMPDEST PUSH1 0x0 DUP1 PUSH1 0x40 DUP4 DUP6 SUB SLT ISZERO PUSH2 0x287A JUMPI PUSH1 0x0 DUP1 REVERT JUMPDEST PUSH2 0x2883 DUP4 PUSH2 0x283E JUMP JUMPDEST SWAP5 PUSH1 0x20 SWAP4 SWAP1 SWAP4 ADD CALLDATALOAD SWAP4 POP POP POP JUMP JUMPDEST PUSH1 0x0 PUSH1 0x20 DUP3 DUP5 SUB SLT ISZERO PUSH2 0x28A3 JUMPI PUSH1 0x0 DUP1 REVERT JUMPDEST PUSH2 0x1D87 DUP3 PUSH2 0x283E JUMP JUMPDEST PUSH1 0x0 PUSH1 0x20 DUP3 DUP5 SUB SLT ISZERO PUSH2 0x28BE JUMPI PUSH1 0x0 DUP1 REVERT JUMPDEST POP CALLDATALOAD SWAP2 SWAP1 POP JUMP JUMPDEST PUSH1 0x0 DUP3 DUP3 DUP3 JUMPDEST PUSH1 0x5 DUP2 LT ISZERO PUSH2 0x28EA JUMPI DUP2 MLOAD DUP4 MSTORE PUSH1 0x20 SWAP3 DUP4 ADD SWAP3 SWAP1 SWAP2 ADD SWAP1 PUSH1 0x1 ADD PUSH2 0x28CB JUMP JUMPDEST POP POP POP PUSH1 0xA0 DUP4 ADD SWAP1 POP SWAP3 SWAP2 POP POP JUMP JUMPDEST PUSH1 0x20 DUP1 DUP3 MSTORE DUP3 MLOAD DUP3 DUP3 ADD DUP2 SWAP1 MSTORE PUSH1 0x0 SWAP2 SWAP1 DUP5 DUP3 ADD SWAP1 PUSH1 0x40 DUP6 ADD SWAP1 DUP5 JUMPDEST DUP2 DUP2 LT ISZERO PUSH2 0x2936 JUMPI PUSH2 0x2928 DUP4 DUP6 MLOAD PUSH2 0x28C5 JUMP JUMPDEST SWAP4 DUP6 ADD SWAP4 SWAP3 POP PUSH1 0x1 ADD PUSH2 0x2915 JUMP JUMPDEST POP SWAP1 SWAP7 SWAP6 POP POP POP POP POP POP JUMP JUMPDEST PUSH32 0x4E487B7100000000000000000000000000000000000000000000000000000000 PUSH1 0x0 MSTORE PUSH1 0x41 PUSH1 0x4 MSTORE PUSH1 0x24 PUSH1 0x0 REVERT JUMPDEST PUSH1 0x40 MLOAD PUSH1 0x1F DUP3 ADD PUSH32 0xFFFFFFFFFFFFFFFFFFFFFFFFFFFFFFFFFFFFFFFFFFFFFFFFFFFFFFFFFFFFFFE0 AND DUP2 ADD PUSH8 0xFFFFFFFFFFFFFFFF DUP2 GT DUP3 DUP3 LT OR ISZERO PUSH2 0x29B8 JUMPI PUSH2 0x29B8 PUSH2 0x2942 JUMP JUMPDEST PUSH1 0x40 MSTORE SWAP2 SWAP1 POP JUMP JUMPDEST PUSH1 0x0 DUP3 PUSH1 0x1F DUP4 ADD SLT PUSH2 0x29D1 JUMPI PUSH1 0x0 DUP1 REVERT JUMPDEST PUSH1 0x40 MLOAD PUSH1 0xA0 DUP2 ADD DUP2 DUP2 LT PUSH8 0xFFFFFFFFFFFFFFFF DUP3 GT OR ISZERO PUSH2 0x29F4 JUMPI PUSH2 0x29F4 PUSH2 0x2942 JUMP JUMPDEST PUSH1 0x40 MSTORE DUP1 PUSH1 0xA0 DUP5 ADD DUP6 DUP2 GT ISZERO PUSH2 0x2A09 JUMPI PUSH1 0x0 DUP1 REVERT JUMPDEST DUP5 JUMPDEST DUP2 DUP2 LT ISZERO PUSH2 0x2A23 JUMPI DUP1 CALLDATALOAD DUP4 MSTORE PUSH1 0x20 SWAP3 DUP4 ADD SWAP3 ADD PUSH2 0x2A0B JUMP JUMPDEST POP SWAP2 SWAP6 SWAP5 POP POP POP POP POP JUMP JUMPDEST PUSH1 0x0 DUP3 PUSH1 0x1F DUP4 ADD SLT PUSH2 0x2A3F JUMPI PUSH1 0x0 DUP1 REVERT JUMPDEST PUSH1 0x40 MLOAD PUSH2 0x120 DUP2 ADD DUP2 DUP2 LT PUSH8 0xFFFFFFFFFFFFFFFF DUP3 GT OR ISZERO PUSH2 0x2A63 JUMPI PUSH2 0x2A63 PUSH2 0x2942 JUMP JUMPDEST PUSH1 0x40 MSTORE DUP1 PUSH2 0x5A0 DUP5 ADD DUP6 DUP2 GT ISZERO PUSH2 0x2A79 JUMPI PUSH1 0x0 DUP1 REVERT JUMPDEST DUP5 JUMPDEST DUP2 DUP2 LT ISZERO PUSH2 0x2A23 JUMPI PUSH2 0x2A8D DUP8 DUP3 PUSH2 0x29C0 JUMP JUMPDEST DUP4 MSTORE PUSH1 0x20 SWAP1 SWAP3 ADD SWAP2 PUSH1 0xA0 ADD PUSH2 0x2A7B JUMP JUMPDEST PUSH1 0x0 DUP1 PUSH1 0x0 DUP1 PUSH1 0x0 PUSH2 0x620 DUP7 DUP9 SUB SLT ISZERO PUSH2 0x2AB6 JUMPI PUSH1 0x0 DUP1 REVERT JUMPDEST DUP6 CALLDATALOAD SWAP5 POP PUSH1 0x20 DUP7 ADD CALLDATALOAD SWAP4 POP PUSH1 0x40 DUP7 ADD CALLDATALOAD SWAP3 POP PUSH1 0x60 DUP7 ADD CALLDATALOAD SWAP2 POP PUSH2 0x2ADC DUP8 PUSH1 0x80 DUP9 ADD PUSH2 0x2A2E JUMP JUMPDEST SWAP1 POP SWAP3 SWAP6 POP SWAP3 SWAP6 SWAP1 SWAP4 POP JUMP JUMPDEST PUSH1 0x0 PUSH1 0x20 DUP1 DUP4 DUP6 SUB SLT ISZERO PUSH2 0x2AFB JUMPI PUSH1 0x0 DUP1 REVERT JUMPDEST DUP3 CALLDATALOAD PUSH8 0xFFFFFFFFFFFFFFFF DUP1 DUP3 GT ISZERO PUSH2 0x2B13 JUMPI PUSH1 0x0 DUP1 REVERT JUMPDEST DUP2 DUP6 ADD SWAP2 POP DUP6 PUSH1 0x1F DUP4 ADD SLT PUSH2 0x2B27 JUMPI PUSH1 0x0 DUP1 REVERT JUMPDEST DUP2 CALLDATALOAD DUP2 DUP2 GT ISZERO PUSH2 0x2B39 JUMPI PUSH2 0x2B39 PUSH2 0x2942 JUMP JUMPDEST PUSH2 0x2B47 DUP5 DUP3 PUSH1 0x5 SHL ADD PUSH2 0x2971 JUMP JUMPDEST DUP2 DUP2 MSTORE DUP5 DUP2 ADD SWAP3 POP PUSH1 0xA0 SWAP2 DUP3 MUL DUP5 ADD DUP6 ADD SWAP2 DUP9 DUP4 GT ISZERO PUSH2 0x2B66 JUMPI PUSH1 0x0 DUP1 REVERT JUMPDEST SWAP4 DUP6 ADD SWAP4 JUMPDEST DUP3 DUP6 LT ISZERO PUSH2 0x2B8C JUMPI PUSH2 0x2B7D DUP10 DUP7 PUSH2 0x29C0 JUMP JUMPDEST DUP5 MSTORE SWAP4 DUP5 ADD SWAP4 SWAP3 DUP6 ADD SWAP3 PUSH2 0x2B6B JUMP JUMPDEST POP SWAP8 SWAP7 POP POP POP POP POP POP POP JUMP JUMPDEST PUSH1 0x0 PUSH2 0x5A0 DUP3 DUP5 SUB SLT ISZERO PUSH2 0x2BAB JUMPI PUSH1 0x0 DUP1 REVERT JUMPDEST PUSH2 0x1D87 DUP4 DUP4 PUSH2 0x2A2E JUMP JUMPDEST PUSH1 0x0 DUP1 PUSH1 0x0 PUSH1 0x60 DUP5 DUP7 SUB SLT ISZERO PUSH2 0x2BCA JUMPI PUSH1 0x0 DUP1 REVERT JUMPDEST POP POP DUP2 CALLDATALOAD SWAP4 PUSH1 0x20 DUP4 ADD CALLDATALOAD SWAP4 POP PUSH1 0x40 SWAP1 SWAP3 ADD CALLDATALOAD SWAP2 SWAP1 POP JUMP JUMPDEST PUSH2 0x5A0 DUP2 ADD DUP2 DUP4 PUSH1 0x0 JUMPDEST PUSH1 0x9 DUP2 LT ISZERO PUSH2 0x2C10 JUMPI PUSH2 0x2BFF DUP4 DUP4 MLOAD PUSH2 0x28C5 JUMP JUMPDEST SWAP3 POP PUSH1 0x20 SWAP2 SWAP1 SWAP2 ADD SWAP1 PUSH1 0x1 ADD PUSH2 0x2BEB JUMP JUMPDEST POP POP POP SWAP3 SWAP2 POP POP JUMP JUMPDEST PUSH32 0x4E487B7100000000000000000000000000000000000000000000000000000000 PUSH1 0x0 MSTORE PUSH1 0x11 PUSH1 0x4 MSTORE PUSH1 0x24 PUSH1 0x0 REVERT JUMPDEST DUP1 DUP3 MUL DUP2 ISZERO DUP3 DUP3 DIV DUP5 EQ OR PUSH2 0x1D8A JUMPI PUSH2 0x1D8A PUSH2 0x2C19 JUMP JUMPDEST PUSH1 0x0 PUSH1 0x20 DUP3 DUP5 SUB SLT ISZERO PUSH2 0x2C71 JUMPI PUSH1 0x0 DUP1 REVERT JUMPDEST POP MLOAD SWAP2 SWAP1 POP JUMP JUMPDEST DUP1 DUP3 ADD DUP1 DUP3 GT ISZERO PUSH2 0x1D8A JUMPI PUSH2 0x1D8A PUSH2 0x2C19 JUMP JUMPDEST PUSH1 0x0 PUSH1 0x20 DUP3 DUP5 SUB SLT ISZERO PUSH2 0x2C9D JUMPI PUSH1 0x0 DUP1 REVERT JUMPDEST DUP2 MLOAD DUP1 ISZERO ISZERO DUP2 EQ PUSH2 0x1696 JUMPI PUSH1 0x0 DUP1 REVERT JUMPDEST DUP2 DUP2 SUB DUP2 DUP2 GT ISZERO PUSH2 0x1D8A JUMPI PUSH2 0x1D8A PUSH2 0x2C19 JUMP JUMPDEST PUSH32 0x4E487B7100000000000000000000000000000000000000000000000000000000 PUSH1 0x0 MSTORE PUSH1 0x32 PUSH1 0x4 MSTORE PUSH1 0x24 PUSH1 0x0 REVERT JUMPDEST PUSH1 0x0 PUSH32 0xFFFFFFFFFFFFFFFFFFFFFFFFFFFFFFFFFFFFFFFFFFFFFFFFFFFFFFFFFFFFFFFF DUP3 SUB PUSH2 0x2D20 JUMPI PUSH2 0x2D20 PUSH2 0x2C19 JUMP JUMPDEST POP PUSH1 0x1 ADD SWAP1 JUMP JUMPDEST DUP1 PUSH1 0x0 JUMPDEST PUSH1 0x14 DUP2 LT ISZERO PUSH2 0x1AA3 JUMPI DUP2 MLOAD DUP5 MSTORE PUSH1 0x20 SWAP4 DUP5 ADD SWAP4 SWAP1 SWAP2 ADD SWAP1 PUSH1 0x1 ADD PUSH2 0x2D2B JUMP JUMPDEST PUSH1 0x0 PUSH2 0x680 DUP3 ADD SWAP1 POP PUSH20 0xFFFFFFFFFFFFFFFFFFFFFFFFFFFFFFFFFFFFFFFF DUP13 AND DUP3 MSTORE PUSH1 0x20 DUP12 DUP2 DUP5 ADD MSTORE DUP11 PUSH1 0x40 DUP5 ADD MSTORE DUP10 PUSH1 0x60 DUP5 ADD MSTORE PUSH1 0x80 DUP4 ADD DUP10 PUSH1 0x0 JUMPDEST PUSH1 0x5 DUP2 LT ISZERO PUSH2 0x2DA4 JUMPI DUP2 MLOAD DUP4 MSTORE SWAP2 DUP4 ADD SWAP2 SWAP1 DUP4 ADD SWAP1 PUSH1 0x1 ADD PUSH2 0x2D87 JUMP JUMPDEST POP POP POP POP PUSH2 0x2DB6 PUSH2 0x120 DUP4 ADD DUP9 PUSH2 0x2D27 JUMP JUMPDEST PUSH2 0x2DC4 PUSH2 0x3A0 DUP4 ADD DUP8 PUSH2 0x2D27 JUMP JUMPDEST DUP5 PUSH2 0x620 DUP4 ADD MSTORE DUP4 PUSH2 0x640 DUP4 ADD MSTORE DUP3 PUSH2 0x660 DUP4 ADD MSTORE SWAP12 SWAP11 POP POP POP POP POP POP POP POP POP POP POP JUMP JUMPDEST PUSH32 0x4E487B7100000000000000000000000000000000000000000000000000000000 PUSH1 0x0 MSTORE PUSH1 0x12 PUSH1 0x4 MSTORE PUSH1 0x24 PUSH1 0x0 REVERT JUMPDEST PUSH1 0x0 DUP3 PUSH2 0x2E26 JUMPI PUSH2 0x2E26 PUSH2 0x2DE8 JUMP JUMPDEST POP DIV SWAP1 JUMP JUMPDEST PUSH1 0x0 DUP3 PUSH2 0x2E3A JUMPI PUSH2 0x2E3A PUSH2 0x2DE8 JUMP JUMPDEST POP MOD SWAP1 JUMP JUMPDEST PUSH1 0x0 JUMPDEST DUP4 DUP2 LT ISZERO PUSH2 0x2E5A JUMPI DUP2 DUP2 ADD MLOAD DUP4 DUP3 ADD MSTORE PUSH1 0x20 ADD PUSH2 0x2E42 JUMP JUMPDEST POP POP PUSH1 0x0 SWAP2 ADD MSTORE JUMP JUMPDEST PUSH1 0x0 DUP3 MLOAD PUSH2 0x2E75 DUP2 DUP5 PUSH1 0x20 DUP8 ADD PUSH2 0x2E3F JUMP JUMPDEST SWAP2 SWAP1 SWAP2 ADD SWAP3 SWAP2 POP POP JUMP JUMPDEST PUSH1 0x20 DUP2 MSTORE PUSH1 0x0 DUP3 MLOAD DUP1 PUSH1 0x20 DUP5 ADD MSTORE PUSH2 0x2E9E DUP2 PUSH1 0x40 DUP6 ADD PUSH1 0x20 DUP8 ADD PUSH2 0x2E3F JUMP JUMPDEST PUSH1 0x1F ADD PUSH32 0xFFFFFFFFFFFFFFFFFFFFFFFFFFFFFFFFFFFFFFFFFFFFFFFFFFFFFFFFFFFFFFE0 AND SWAP2 SWAP1 SWAP2 ADD PUSH1 0x40 ADD SWAP3 SWAP2 POP POP JUMP INVALID LOG2 PUSH5 0x6970667358 0x22 SLT KECCAK256 BASEFEE 0xBC 0xBD JUMPDEST MSTORE ADDMOD SWAP14 DUP14 0xA7 SWAP12 0xD0 0x5E PUSH8 0xCF57E04CB60843FD 0xC0 SELFBALANCE PUSH11 0xF9A47BD0B0D0F3FD64736F PUSH13 0x63430008110033000000000000 "
		},
		"gasEstimates": {
			"creation": {
				"codeDepositCost": "2407600",
				"executionCost": "infinite",
				"totalCost": "infinite"
			},
			"external": {
				"buyTokens(uint256)": "infinite",
				"currency()": "2402",
				"doSpin(uint256,uint256,bytes32)": "infinite",
				"doSpinEth(uint256,uint256,bytes32)": "infinite",
				"flushRandom(bytes32)": "infinite",
				"getBankInTokens()": "infinite",
				"getCurrency()": "2341",
				"getMaxBet()": "2393",
				"getMaxLines()": "2317",
				"getMultiplers()": "infinite",
				"getMyBalance()": "2417",
				"getTokenPrice()": "2327",
				"getUserBalance(address)": "2596",
				"getWildSlot()": "2369",
				"getWinLines()": "infinite",
				"owner()": "2396",
				"playerSpins(address,uint256)": "15490",
				"renounceOwnership()": "infinite",
				"saveSettings(uint256,uint256,uint256,uint256,uint256[5][9])": "infinite",
				"setCurrency(address)": "26779",
				"setMaxBet(uint256)": "24521",
				"setMaxLines(uint256)": "24566",
				"setMultiplers(uint256[5][9])": "infinite",
				"setTokenPrice(uint256)": "24543",
				"setWildSlot(uint256)": "24543",
				"setWinLines(uint256[5][])": "infinite",
				"tokenPrice()": "2330",
				"transferOwnership(address)": "28318",
				"withdrawBank()": "infinite",
				"withdrawTokens()": "infinite"
			},
			"internal": {
				"_doSpin(uint256,uint256,uint256,bytes32)": "infinite",
				"checkLine(uint256,uint256[5] memory[3] memory)": "infinite",
				"getAllowance(address)": "infinite",
				"getRandom(bytes32,uint256)": "infinite",
				"getRandomBase(bytes32)": "infinite",
				"getWinLine(uint32)": "infinite",
				"spinReels(bytes32)": "infinite"
			}
		},
		"methodIdentifiers": {
			"buyTokens(uint256)": "3610724e",
			"currency()": "e5a6b10f",
			"doSpin(uint256,uint256,bytes32)": "a3e2e8ce",
			"doSpinEth(uint256,uint256,bytes32)": "81d9e78c",
			"flushRandom(bytes32)": "f7e944ee",
			"getBankInTokens()": "e9a4a03d",
			"getCurrency()": "6945c1fd",
			"getMaxBet()": "646668b6",
			"getMaxLines()": "09b9dd89",
			"getMultiplers()": "d3f0a7ce",
			"getMyBalance()": "4c738909",
			"getTokenPrice()": "4b94f50e",
			"getUserBalance(address)": "47734892",
			"getWildSlot()": "fda0ef89",
			"getWinLines()": "4282cf54",
			"owner()": "8da5cb5b",
			"playerSpins(address,uint256)": "17adaa03",
			"renounceOwnership()": "715018a6",
			"saveSettings(uint256,uint256,uint256,uint256,uint256[5][9])": "4afa1905",
			"setCurrency(address)": "2f84c391",
			"setMaxBet(uint256)": "881eff1e",
			"setMaxLines(uint256)": "6012cb19",
			"setMultiplers(uint256[5][9])": "81b87e54",
			"setTokenPrice(uint256)": "6a61e5fc",
			"setWildSlot(uint256)": "e3c7b05e",
			"setWinLines(uint256[5][])": "6f43022c",
			"tokenPrice()": "7ff9b596",
			"transferOwnership(address)": "f2fde38b",
			"withdrawBank()": "ff7f0cf9",
			"withdrawTokens()": "8d8f2adb"
		}
	},
	"abi": [
		{
			"inputs": [
				{
					"internalType": "address",
					"name": "_currency",
					"type": "address"
				},
				{
					"internalType": "uint256",
					"name": "_tokenPrice",
					"type": "uint256"
				}
			],
			"stateMutability": "nonpayable",
			"type": "constructor"
		},
		{
			"anonymous": false,
			"inputs": [
				{
					"indexed": false,
					"internalType": "string",
					"name": "desc",
					"type": "string"
				},
				{
					"indexed": false,
					"internalType": "uint256[5]",
					"name": "value",
					"type": "uint256[5]"
				}
			],
			"name": "LogLine",
			"type": "event"
		},
		{
			"anonymous": false,
			"inputs": [
				{
					"indexed": false,
					"internalType": "string",
					"name": "desc",
					"type": "string"
				},
				{
					"indexed": false,
					"internalType": "uint256[5][3]",
					"name": "value",
					"type": "uint256[5][3]"
				}
			],
			"name": "LogSlots",
			"type": "event"
		},
		{
			"anonymous": false,
			"inputs": [
				{
					"indexed": false,
					"internalType": "string",
					"name": "message",
					"type": "string"
				}
			],
			"name": "LogString",
			"type": "event"
		},
		{
			"anonymous": false,
			"inputs": [
				{
					"indexed": false,
					"internalType": "string",
					"name": "desc",
					"type": "string"
				},
				{
					"indexed": false,
					"internalType": "uint256",
					"name": "value",
					"type": "uint256"
				}
			],
			"name": "LogUint256",
			"type": "event"
		},
		{
			"anonymous": false,
			"inputs": [
				{
					"indexed": false,
					"internalType": "string",
					"name": "desc",
					"type": "string"
				},
				{
					"indexed": false,
					"internalType": "uint256[]",
					"name": "value",
					"type": "uint256[]"
				}
			],
			"name": "LogUint256Array",
			"type": "event"
		},
		{
			"anonymous": false,
			"inputs": [
				{
					"indexed": true,
					"internalType": "address",
					"name": "previousOwner",
					"type": "address"
				},
				{
					"indexed": true,
					"internalType": "address",
					"name": "newOwner",
					"type": "address"
				}
			],
			"name": "OwnershipTransferred",
			"type": "event"
		},
		{
			"anonymous": false,
			"inputs": [
				{
					"indexed": false,
					"internalType": "address",
					"name": "user",
					"type": "address"
				},
				{
					"indexed": false,
					"internalType": "uint256",
					"name": "bet",
					"type": "uint256"
				},
				{
					"indexed": false,
					"internalType": "uint256",
					"name": "lines",
					"type": "uint256"
				},
				{
					"indexed": false,
					"internalType": "uint256",
					"name": "winAmount",
					"type": "uint256"
				},
				{
					"indexed": false,
					"internalType": "uint256[5]",
					"name": "slots",
					"type": "uint256[5]"
				},
				{
					"indexed": false,
					"internalType": "uint256[20]",
					"name": "spinWinLines",
					"type": "uint256[20]"
				},
				{
					"indexed": false,
					"internalType": "uint256[20]",
					"name": "spinWinSlots",
					"type": "uint256[20]"
				},
				{
					"indexed": false,
					"internalType": "uint256",
					"name": "maxLine",
					"type": "uint256"
				},
				{
					"indexed": false,
					"internalType": "uint256",
					"name": "maxLineWin",
					"type": "uint256"
				},
				{
					"indexed": false,
					"internalType": "uint256",
					"name": "maxWinSlot",
					"type": "uint256"
				}
			],
			"name": "ReelsSpinned",
			"type": "event"
		},
		{
			"inputs": [
				{
					"internalType": "uint256",
					"name": "tokenAmount",
					"type": "uint256"
				}
			],
			"name": "buyTokens",
			"outputs": [],
			"stateMutability": "nonpayable",
			"type": "function"
		},
		{
			"inputs": [],
			"name": "currency",
			"outputs": [
				{
					"internalType": "contract IERC20",
					"name": "",
					"type": "address"
				}
			],
			"stateMutability": "view",
			"type": "function"
		},
		{
			"inputs": [
				{
					"internalType": "uint256",
					"name": "bet",
					"type": "uint256"
				},
				{
					"internalType": "uint256",
					"name": "lineCount",
					"type": "uint256"
				},
				{
					"internalType": "bytes32",
					"name": "_seed",
					"type": "bytes32"
				}
			],
			"name": "doSpin",
			"outputs": [],
			"stateMutability": "nonpayable",
			"type": "function"
		},
		{
			"inputs": [
				{
					"internalType": "uint256",
					"name": "bet",
					"type": "uint256"
				},
				{
					"internalType": "uint256",
					"name": "lineCount",
					"type": "uint256"
				},
				{
					"internalType": "bytes32",
					"name": "_seed",
					"type": "bytes32"
				}
			],
			"name": "doSpinEth",
			"outputs": [],
			"stateMutability": "payable",
			"type": "function"
		},
		{
			"inputs": [
				{
					"internalType": "bytes32",
					"name": "_flushSeed",
					"type": "bytes32"
				}
			],
			"name": "flushRandom",
			"outputs": [],
			"stateMutability": "nonpayable",
			"type": "function"
		},
		{
			"inputs": [],
			"name": "getBankInTokens",
			"outputs": [
				{
					"internalType": "uint256",
					"name": "",
					"type": "uint256"
				}
			],
			"stateMutability": "view",
			"type": "function"
		},
		{
			"inputs": [],
			"name": "getCurrency",
			"outputs": [
				{
					"internalType": "address",
					"name": "",
					"type": "address"
				}
			],
			"stateMutability": "view",
			"type": "function"
		},
		{
			"inputs": [],
			"name": "getMaxBet",
			"outputs": [
				{
					"internalType": "uint256",
					"name": "",
					"type": "uint256"
				}
			],
			"stateMutability": "view",
			"type": "function"
		},
		{
			"inputs": [],
			"name": "getMaxLines",
			"outputs": [
				{
					"internalType": "uint256",
					"name": "",
					"type": "uint256"
				}
			],
			"stateMutability": "view",
			"type": "function"
		},
		{
			"inputs": [],
			"name": "getMultiplers",
			"outputs": [
				{
					"internalType": "uint256[5][9]",
					"name": "",
					"type": "uint256[5][9]"
				}
			],
			"stateMutability": "view",
			"type": "function"
		},
		{
			"inputs": [],
			"name": "getMyBalance",
			"outputs": [
				{
					"internalType": "uint256",
					"name": "",
					"type": "uint256"
				}
			],
			"stateMutability": "view",
			"type": "function"
		},
		{
			"inputs": [],
			"name": "getTokenPrice",
			"outputs": [
				{
					"internalType": "uint256",
					"name": "",
					"type": "uint256"
				}
			],
			"stateMutability": "view",
			"type": "function"
		},
		{
			"inputs": [
				{
					"internalType": "address",
					"name": "user",
					"type": "address"
				}
			],
			"name": "getUserBalance",
			"outputs": [
				{
					"internalType": "uint256",
					"name": "",
					"type": "uint256"
				}
			],
			"stateMutability": "view",
			"type": "function"
		},
		{
			"inputs": [],
			"name": "getWildSlot",
			"outputs": [
				{
					"internalType": "uint256",
					"name": "",
					"type": "uint256"
				}
			],
			"stateMutability": "view",
			"type": "function"
		},
		{
			"inputs": [],
			"name": "getWinLines",
			"outputs": [
				{
					"internalType": "uint256[5][]",
					"name": "",
					"type": "uint256[5][]"
				}
			],
			"stateMutability": "view",
			"type": "function"
		},
		{
			"inputs": [],
			"name": "owner",
			"outputs": [
				{
					"internalType": "address",
					"name": "",
					"type": "address"
				}
			],
			"stateMutability": "view",
			"type": "function"
		},
		{
			"inputs": [
				{
					"internalType": "address",
					"name": "",
					"type": "address"
				},
				{
					"internalType": "uint256",
					"name": "",
					"type": "uint256"
				}
			],
			"name": "playerSpins",
			"outputs": [
				{
					"internalType": "uint256",
					"name": "spinId",
					"type": "uint256"
				},
				{
					"internalType": "address",
					"name": "player",
					"type": "address"
				},
				{
					"internalType": "uint256",
					"name": "bet",
					"type": "uint256"
				},
				{
					"internalType": "uint256",
					"name": "utx",
					"type": "uint256"
				},
				{
					"internalType": "uint256",
					"name": "lines",
					"type": "uint256"
				},
				{
					"internalType": "uint256",
					"name": "winAmount",
					"type": "uint256"
				}
			],
			"stateMutability": "view",
			"type": "function"
		},
		{
			"inputs": [],
			"name": "renounceOwnership",
			"outputs": [],
			"stateMutability": "nonpayable",
			"type": "function"
		},
		{
			"inputs": [
				{
					"internalType": "uint256",
					"name": "newTokenPrice",
					"type": "uint256"
				},
				{
					"internalType": "uint256",
					"name": "newMaxBet",
					"type": "uint256"
				},
				{
					"internalType": "uint256",
					"name": "newMaxLines",
					"type": "uint256"
				},
				{
					"internalType": "uint256",
					"name": "newWildSlot",
					"type": "uint256"
				},
				{
					"internalType": "uint256[5][9]",
					"name": "newWinCombinations",
					"type": "uint256[5][9]"
				}
			],
			"name": "saveSettings",
			"outputs": [],
			"stateMutability": "nonpayable",
			"type": "function"
		},
		{
			"inputs": [
				{
					"internalType": "address",
					"name": "newCurrency",
					"type": "address"
				}
			],
			"name": "setCurrency",
			"outputs": [],
			"stateMutability": "nonpayable",
			"type": "function"
		},
		{
			"inputs": [
				{
					"internalType": "uint256",
					"name": "newMaxBet",
					"type": "uint256"
				}
			],
			"name": "setMaxBet",
			"outputs": [],
			"stateMutability": "nonpayable",
			"type": "function"
		},
		{
			"inputs": [
				{
					"internalType": "uint256",
					"name": "newMaxLines",
					"type": "uint256"
				}
			],
			"name": "setMaxLines",
			"outputs": [],
			"stateMutability": "nonpayable",
			"type": "function"
		},
		{
			"inputs": [
				{
					"internalType": "uint256[5][9]",
					"name": "_slotMult",
					"type": "uint256[5][9]"
				}
			],
			"name": "setMultiplers",
			"outputs": [],
			"stateMutability": "nonpayable",
			"type": "function"
		},
		{
			"inputs": [
				{
					"internalType": "uint256",
					"name": "newTokenPrice",
					"type": "uint256"
				}
			],
			"name": "setTokenPrice",
			"outputs": [],
			"stateMutability": "nonpayable",
			"type": "function"
		},
		{
			"inputs": [
				{
					"internalType": "uint256",
					"name": "_newWildSlot",
					"type": "uint256"
				}
			],
			"name": "setWildSlot",
			"outputs": [],
			"stateMutability": "nonpayable",
			"type": "function"
		},
		{
			"inputs": [
				{
					"internalType": "uint256[5][]",
					"name": "_winLines",
					"type": "uint256[5][]"
				}
			],
			"name": "setWinLines",
			"outputs": [],
			"stateMutability": "nonpayable",
			"type": "function"
		},
		{
			"inputs": [],
			"name": "tokenPrice",
			"outputs": [
				{
					"internalType": "uint256",
					"name": "",
					"type": "uint256"
				}
			],
			"stateMutability": "view",
			"type": "function"
		},
		{
			"inputs": [
				{
					"internalType": "address",
					"name": "newOwner",
					"type": "address"
				}
			],
			"name": "transferOwnership",
			"outputs": [],
			"stateMutability": "nonpayable",
			"type": "function"
		},
		{
			"inputs": [],
			"name": "withdrawBank",
			"outputs": [],
			"stateMutability": "nonpayable",
			"type": "function"
		},
		{
			"inputs": [],
			"name": "withdrawTokens",
			"outputs": [],
			"stateMutability": "nonpayable",
			"type": "function"
		},
		{
			"stateMutability": "payable",
			"type": "receive"
		}
	]
}