{
	"data": {
		"bytecode": {
			"linkReferences": {},
			"object": "6002805463ffffffff1916600517815560016006819055610300818152610320829052610340829052610360829052610380829052608090815260006103a08181526103c08290526103e082905261040082905261042082905260a0526104408481526104608590526104808590526104a08590526104c085905260c0526104e083815261050084905261052082905261054084905261056085905260e0526105808381526105a08490526105c08590526105e0849052610600829052610100526106208381526106408290526106608490526106808590526106a0849052610120526106c08381526106e0829052610700849052610720859052610740859052610140526107608381526107808290526107a08290526107c08490526107e085905261016052610800838152610820859052610840849052610860829052610880849052610180526108a08381526108c08590526108e08590526109008490526109208290526101a0526109408381526109608590526109808490526109a08290526109c08290526101c0526109e0818152610a00849052610a20859052610a40849052610a608290526101e052610a80818152610aa0849052610ac0849052610ae0849052610b0085905261020052610b20818152610b40829052610b60849052610b80859052610ba085905261022052610bc0818152610be0829052610c00849052610c20859052610c4084905261024052610c60818152610c80829052610ca0829052610cc0849052610ce085905261026052610d00848152610d20849052610d40829052610d60849052610d8085905261028052610da0848152610dc0849052610de0849052610e00849052610e208290526102a052610e40848152610e60859052610e80849052610ea0829052610ec08290526102c052610f80604052610ee0848152610f0094909452610f20839052610f4052610f60919091526102e091909152620002d7906007906014620005f6565b506040518061012001604052806040518060a001604052806000815260200160008152602001601481526020016050815260200160c881525081526020016040518060a0016040528060008152602001600081526020016028815260200161019081526020016107d081525081526020016040518060a001604052806000815260200160088152602001600f8152602001607881526020016101f481525081526020016040518060a0016040528060008152602001600281526020016008815260200160148152602001605081525081526020016040518060a0016040528060008152602001600081526020016008815260200160148152602001605081525081526020016040518060a001604052806000815260200160008152602001601481526020016050815260200160c881525081526020016040518060a0016040528060008152602001600081526020016008815260200160148152602001605081525081526020016040518060a0016040528060008152602001600081526020016014815260200160c881526020016103e881525081526020016040518060a0016040528060008152602001600081526020016002815260200160058152602001600f8152508152506009906009620004b192919062000657565b506040805160a081018252620186a0815261271060208201526103e89181019190915260646060820152600a6080820152620004f290603690600562000697565b506040805160a08101825261271081526103e8602082015260649181018290526060810191909152600160808201526200053190603b906005620006dd565b506000604081905560418190556042553480156200054e57600080fd5b506040516200263d3803806200263d8339810160408190526200057191620007c3565b6200057c33620005a6565b600580546001600160a01b0319166001600160a01b039390931692909217909155600655620007ff565b600080546001600160a01b038381166001600160a01b0319831681178455604051919092169283917f8be0079c531659141344cd1fd0a4f28419497f9722a3daafe3b4186f6b6457e09190a35050565b82805482825590600052602060002090600502810192821562000645579160200282015b828111156200064557825162000634908390600562000714565b50916020019190600501906200061a565b50620006539291506200074a565b5090565b602d8301918390821562000645579160200282015b82811115620006455782516200068690839060056200077b565b50916020019190600501906200066c565b8260058101928215620006cf579160200282015b82811115620006cf578251829062ffffff16905591602001919060010190620006ab565b5062000653929150620007ac565b8260058101928215620006cf579160200282015b82811115620006cf578251829061ffff16905591602001919060010190620006f1565b8260058101928215620006cf579160200282015b82811115620006cf578251829060ff1690559160200191906001019062000728565b808211156200065357600080825560018201819055600282018190556003820181905560048201556005016200074a565b8260058101928215620006cf579160200282015b82811115620006cf5782518255916020019190600101906200078f565b5b80821115620006535760008155600101620007ad565b60008060408385031215620007d757600080fd5b82516001600160a01b0381168114620007ef57600080fd5b6020939093015192949293505050565b611e2e806200080f6000396000f3fe608060405234801561001057600080fd5b50600436106101375760003560e01c80637ff9b596116100b8578063b7013dc11161007c578063b7013dc114610286578063d3f0a7ce1461029b578063e5a6b10f146102b0578063e9a4a03d146102c3578063f2fde38b146102cb578063f7e944ee146102de57600080fd5b80637ff9b5961461023e57806381b87e54146102475780638d8f2adb1461025a5780638da5cb5b14610262578063a3e2e8ce1461027357600080fd5b80634b94f50e116100ff5780634b94f50e146101d95780636945c1fd146101eb5780636a61e5fc146102105780636f43022c14610223578063715018a61461023657600080fd5b806317adaa031461013c57806322526328146101895780632f84c3911461019e5780633610724e146101b15780634282cf54146101c4575b600080fd5b61014f61014a366004611926565b6102f1565b604080519687526001600160a01b039095166020870152938501929092526060840152608083015260a082015260c0015b60405180910390f35b61019c610197366004611ac1565b61034f565b005b61019c6101ac36600461190b565b610376565b61019c6101bf366004611ac1565b6103a0565b6101cc6105e1565b6040516101809190611c31565b6006545b604051908152602001610180565b6005546001600160a01b03165b6040516001600160a01b039091168152602001610180565b61019c61021e366004611ac1565b61065f565b61019c6102313660046119e5565b61066c565b61019c61068b565b6101dd60065481565b61019c610255366004611950565b61069f565b61019c6106b3565b6000546001600160a01b03166101f8565b61019c610281366004611af3565b610898565b336000908152600460205260409020546101dd565b6102a3610b82565b6040516101809190611bf4565b6005546101f8906001600160a01b031681565b6101dd610be4565b61019c6102d936600461190b565b610c7b565b61019c6102ec366004611ac1565b610cf4565b6008602052816000526040600020818154811061030d57600080fd5b60009182526020909120600b9091020180546001820154600283015460038401546004850154600a909501549396506001600160a01b03909216945092909186565b336000908152600460205260408120805483929061036e908490611ce3565b909155505050565b61037e610d62565b600580546001600160a01b0319166001600160a01b0392909216919091179055565b6000600654826103b09190611d0f565b6005546040516370a0823160e01b81523360048201529192506000916001600160a01b03909116906370a082319060240160206040518083038186803b1580156103f957600080fd5b505afa15801561040d573d6000803e3d6000fd5b505050506040513d601f19601f820116820180604052508101906104319190611ada565b9050818110156104a55760405162461bcd60e51b815260206004820152603460248201527f596f7520646f206e6f74206861766520656e6f75676820746f6b656e73206f6e60448201527320796f75722062616c616e636520746f2070617960601b60648201526084015b60405180910390fd5b600554604051636eb1769f60e11b81523360048201523060248201526000916001600160a01b03169063dd62ed3e9060440160206040518083038186803b1580156104ef57600080fd5b505afa158015610503573d6000803e3d6000fd5b505050506040513d601f19601f820116820180604052508101906105279190611ada565b90508281101561059f5760405162461bcd60e51b815260206004820152603a60248201527f596f7520646964206e6f7420616c6c6f772074686520636f6e7472616374207460448201527f6f2073656e642074686520707572636861736520616d6f756e74000000000000606482015260840161049c565b6005546105b7906001600160a01b0316333086610dbc565b33600090815260046020526040812080548692906105d6908490611ce3565b909155505050505050565b60606007805480602002602001604051908101604052809291908181526020016000905b82821015610656576000848152602090206040805160a08101918290529160058581029091019182845b81548152602001906001019080831161062f57505050505081526020019060010190610605565b50505050905090565b610667610d62565b600655565b610674610d62565b80516106879060079060208401906116ce565b5050565b610693610d62565b61069d6000610e1c565b565b6106a7610d62565b61068760098281611728565b3360009081526004602052604090205461070f5760405162461bcd60e51b815260206004820152601e60248201527f4e6f7420656e6f75746820746f6b656e7320666f722077697468647261770000604482015260640161049c565b60065433600090815260046020526040812054909161072d91611d0f565b6005546040516370a0823160e01b81523060048201529192506000916001600160a01b03909116906370a082319060240160206040518083038186803b15801561077657600080fd5b505afa15801561078a573d6000803e3d6000fd5b505050506040513d601f19601f820116820180604052508101906107ae9190611ada565b90508181116107ff5760405162461bcd60e51b815260206004820152601960248201527f4e6f7420656e6f75746820746f6b656e7320696e2062616e6b00000000000000604482015260640161049c565b60055460405163a9059cbb60e01b8152336004820152602481018490526001600160a01b039091169063a9059cbb90604401602060405180830381600087803b15801561084b57600080fd5b505af115801561085f573d6000803e3d6000fd5b505050506040513d601f19601f820116820180604052508101906108839190611a9f565b50503360009081526004602052604081205550565b60006108a5836001611ce3565b6108af9085611d0f565b336000908152600460205260409020549091508111156109075760405162461bcd60e51b815260206004820152601360248201527210985b185b98d9481b9bdd08195b9bdd59da1d606a1b604482015260640161049c565b60075483106109495760405162461bcd60e51b815260206004820152600e60248201526d546f6f206d616e79206c696e657360901b604482015260640161049c565b610957600180546001019055565b600061096260015490565b9050600061096f84610e6c565b9050600080600061097e611763565b610986611763565b6000805b8b811015610a135760008061099f838b6110d7565b90925090506109ae8f83611d0f565b91506109ba8285611ce3565b9350818684601481106109cf576109cf611dcc565b6020020152808584601481106109e7576109e7611dcc565b6020020152878211156109fe578298508197508096505b50508080610a0b90611d71565b91505061098a565b50336000908152600460205260409020548190610a31908b90611d2e565b610a3b9190611ce3565b336000818152600460209081526040808320949094556008815290839020835160e0810185528c8152918201929092529182018e9052426060830152608082018d90529060a081018960016020908102919091015182529081018490528254600180820185556000948552938290208351600b909202019081559082015192810180546001600160a01b0319166001600160a01b039094169390931790925560408101516002830155606081015160038301556080810151600483015560a0810151909190610b109060058084019190611782565b5060c09190910151600a909101557f6c98c6ad5e22111183c867670bead07208dbd3aba882d6bd87adbbbdb645d59a338d610b4c8e6001611ce3565b60208b0151604051610b6c9493929187918a908a908f908f908f90611b81565b60405180910390a1505050505050505050505050565b610b8a6117bc565b6040805161012081019091526009806000835b82821015610656576040805160a081019182905290600584810287019182845b815481526020019060010190808311610bbd57505050505081526020019060010190610b9d565b6005546040516370a0823160e01b815230600482015260009182916001600160a01b03909116906370a082319060240160206040518083038186803b158015610c2c57600080fd5b505afa158015610c40573d6000803e3d6000fd5b505050506040513d601f19601f82011682018060405250810190610c649190611ada565b90506000610c74826006546113a3565b9392505050565b610c83610d62565b6001600160a01b038116610ce85760405162461bcd60e51b815260206004820152602660248201527f4f776e61626c653a206e6577206f776e657220697320746865207a65726f206160448201526564647265737360d01b606482015260840161049c565b610cf181610e1c565b50565b610cfc610d62565b60004260405460425460415485610d1260015490565b6040805160208101979097528601949094526060850192909252608084015260a083015260c082015260e00160408051601f19818403018152919052805160209091012060418054604255555050565b6000546001600160a01b0316331461069d5760405162461bcd60e51b815260206004820181905260248201527f4f776e61626c653a2063616c6c6572206973206e6f7420746865206f776e6572604482015260640161049c565b604080516001600160a01b0385811660248301528416604482015260648082018490528251808303909101815260849091019091526020810180516001600160e01b03166323b872dd60e01b179052610e169085906113af565b50505050565b600080546001600160a01b038381166001600160a01b0319831681178455604051919092169283917f8be0079c531659141344cd1fd0a4f28419497f9722a3daafe3b4186f6b6457e09190a35050565b610e746117ea565b6000610e7f83611486565b90506000610e90620186a083611d8c565b610e9d90620186a0611ce3565b9050600080600060405180606001604052806040518060a0016040528060008152602001600081526020016000815260200160008152602001600081525081526020016040518060a00160405280603b600060058110610eff57610eff611dcc565b0154603654610f149063ffffffff8b16611d8c565b610f1e9190611cfb565b8152603c54603754602090920191610f3c9063ffffffff8b16611d8c565b610f469190611cfb565b8152603d54603854602090920191610f649063ffffffff8b16611d8c565b610f6e9190611cfb565b8152603e54603954602090920191610f8c9063ffffffff8b16611d8c565b610f969190611cfb565b8152603f54603a54602090920191610fb49063ffffffff8b16611d8c565b610fbe9190611cfb565b81525081526020016040518060a001604052806000815260200160008152602001600081526020016000815260200160008152508152509050600092505b60025463ffffffff168310156110cd576020810151836005811061102257611022611dcc565b60200201519150816009141561103757600091505b60208101518290846005811061104f5761104f611dcc565b6020020152811561106a57611065600183611d2e565b61106d565b60085b8151846005811061108057611080611dcc565b60200201526008821461109d57611098826001611ce3565b6110a0565b60005b604082015184600581106110b6576110b6611dcc565b6020020152826110c581611d71565b935050610ffc565b9695505050505050565b600080808080805b60058110156111765760018760078a815481106110fe576110fe611dcc565b9060005260206000209060050201836005811061111d5761111d611dcc565b01546003811061112f5761112f611dcc565b6020020151826005811061114557611145611dcc565b60200201511461115757809250611176565b8361116181611d71565b9450508061116e81611d71565b9150506110df565b506000831180156111a557506000600e611191600186611d2e565b600581106111a1576111a1611dcc565b0154115b156111db576000600e6111b9600186611d2e565b600581106111c9576111c9611dcc565b015495506001945061139c9350505050565b85600788815481106111ef576111ef611dcc565b9060005260206000209060050201836005811061120e5761120e611dcc565b01546003811061122057611220611dcc565b6020020151826005811061123657611236611dcc565b60200201519050600061124a836001611ce3565b90505b600581101561135057818760078a8154811061126b5761126b611dcc565b9060005260206000209060050201836005811061128a5761128a611dcc565b01546003811061129c5761129c611dcc565b602002015182600581106112b2576112b2611dcc565b60200201511480611322575060018760078a815481106112d4576112d4611dcc565b906000526020600020906005020183600581106112f3576112f3611dcc565b01546003811061130557611305611dcc565b6020020151826005811061131b5761131b611dcc565b6020020151145b15611339578361133181611d71565b94505061133e565b611350565b8061134881611d71565b91505061124d565b5082156113915760006009826009811061136c5761136c611dcc565b60050201846005811061138157611381611dcc565b0154955090935061139c92505050565b600080945094505050505b9250929050565b6000610c748284611cfb565b6000611404826040518060400160405280602081526020017f5361666545524332303a206c6f772d6c6576656c2063616c6c206661696c6564815250856001600160a01b03166115419092919063ffffffff16565b80519091501561148157808060200190518101906114229190611a9f565b6114815760405162461bcd60e51b815260206004820152602a60248201527f5361666545524332303a204552433230206f7065726174696f6e20646964206e6044820152691bdd081cdd58d8d9595960b21b606482015260840161049c565b505050565b600080428360405460415460425443404144453a335a60015460408051602081019e909e528d019b909b526060808d019a909a5260808c019890985260a08b019690965260c08a01949094526bffffffffffffffffffffffff1992871b831660e08a015260f4890191909152610114880152610134870191909152921b9091166101548401526101688301526101888201526101a80160408051601f1981840301815291815281516020909201919091209390555090919050565b60606115508484600085611558565b949350505050565b6060824710156115b95760405162461bcd60e51b815260206004820152602660248201527f416464726573733a20696e73756666696369656e742062616c616e636520666f6044820152651c8818d85b1b60d21b606482015260840161049c565b600080866001600160a01b031685876040516115d59190611b65565b60006040518083038185875af1925050503d8060008114611612576040519150601f19603f3d011682016040523d82523d6000602084013e611617565b606091505b509150915061162887838387611633565b979650505050505050565b6060831561169f578251611698576001600160a01b0385163b6116985760405162461bcd60e51b815260206004820152601d60248201527f416464726573733a2063616c6c20746f206e6f6e2d636f6e7472616374000000604482015260640161049c565b5081611550565b61155083838151156116b45781518083602001fd5b8060405162461bcd60e51b815260040161049c9190611c7f565b828054828255906000526020600020906005028101928215611718579160200282015b828111156117185782516117089083906005611782565b50916020019190600501906116f1565b50611724929150611817565b5090565b602d83019183908215611718579160200282015b828111156117185782516117539083906005611782565b509160200191906005019061173c565b6040518061028001604052806014906020820280368337509192915050565b82600581019282156117b0579160200282015b828111156117b0578251825591602001919060010190611795565b50611724929150611846565b6040518061012001604052806009905b6117d461185b565b8152602001906001900390816117cc5790505090565b60405180606001604052806003905b61180161185b565b8152602001906001900390816117f95790505090565b808211156117245760008082556001820181905560028201819055600382018190556004820155600501611817565b5b808211156117245760008155600101611847565b6040518060a001604052806005906020820280368337509192915050565b80356001600160a01b038116811461189057600080fd5b919050565b600082601f8301126118a657600080fd5b60405160a0810181811067ffffffffffffffff821117156118c9576118c9611de2565b604052808360a081018610156118de57600080fd5b60005b60058110156119005781358352602092830192909101906001016118e1565b509195945050505050565b60006020828403121561191d57600080fd5b610c7482611879565b6000806040838503121561193957600080fd5b61194283611879565b946020939093013593505050565b60006105a080838503121561196457600080fd5b83601f84011261197357600080fd5b604051610120810181811067ffffffffffffffff8211171561199757611997611de2565b60405280848381018710156119ab57600080fd5b600093505b60098410156119da576119c38782611895565b82526001939093019260209091019060a0016119b0565b509095945050505050565b600060208083850312156119f857600080fd5b823567ffffffffffffffff80821115611a1057600080fd5b818501915085601f830112611a2457600080fd5b813581811115611a3657611a36611de2565b611a44848260051b01611cb2565b818152848101925083850160a0808402860187018a1015611a6457600080fd5b600095505b83861015611a9157611a7b8a83611895565b8552600195909501949386019390810190611a69565b509098975050505050505050565b600060208284031215611ab157600080fd5b81518015158114610c7457600080fd5b600060208284031215611ad357600080fd5b5035919050565b600060208284031215611aec57600080fd5b5051919050565b600080600060608486031215611b0857600080fd5b505081359360208301359350604090920135919050565b8060005b6014811015610e16578151845260209384019390910190600101611b23565b8060005b6005811015610e16578151845260209384019390910190600101611b46565b60008251611b77818460208701611d45565b9190910192915050565b6001600160a01b038b168152602081018a905260408101899052606081018890526106808101611bb46080830189611b42565b611bc2610120830188611b1f565b611bd06103a0830187611b1f565b8461062083015283610640830152826106608301529b9a5050505050505050505050565b6105a08101818360005b6009811015611c2857611c12838351611b42565b60a0929092019160209190910190600101611bfe565b50505092915050565b6020808252825182820181905260009190848201906040850190845b81811015611c7357611c60838551611b42565b9284019260a09290920191600101611c4d565b50909695505050505050565b6020815260008251806020840152611c9e816040850160208701611d45565b601f01601f19169190910160400192915050565b604051601f8201601f1916810167ffffffffffffffff81118282101715611cdb57611cdb611de2565b604052919050565b60008219821115611cf657611cf6611da0565b500190565b600082611d0a57611d0a611db6565b500490565b6000816000190483118215151615611d2957611d29611da0565b500290565b600082821015611d4057611d40611da0565b500390565b60005b83811015611d60578181015183820152602001611d48565b83811115610e165750506000910152565b6000600019821415611d8557611d85611da0565b5060010190565b600082611d9b57611d9b611db6565b500690565b634e487b7160e01b600052601160045260246000fd5b634e487b7160e01b600052601260045260246000fd5b634e487b7160e01b600052603260045260246000fd5b634e487b7160e01b600052604160045260246000fdfea264697066735822122007cdef6608757f79ad45ff11b889987b5f26b5202ba9e5a6b17667e511ab62e964736f6c63430008070033",
			"opcodes": "PUSH1 0x2 DUP1 SLOAD PUSH4 0xFFFFFFFF NOT AND PUSH1 0x5 OR DUP2 SSTORE PUSH1 0x1 PUSH1 0x6 DUP2 SWAP1 SSTORE PUSH2 0x300 DUP2 DUP2 MSTORE PUSH2 0x320 DUP3 SWAP1 MSTORE PUSH2 0x340 DUP3 SWAP1 MSTORE PUSH2 0x360 DUP3 SWAP1 MSTORE PUSH2 0x380 DUP3 SWAP1 MSTORE PUSH1 0x80 SWAP1 DUP2 MSTORE PUSH1 0x0 PUSH2 0x3A0 DUP2 DUP2 MSTORE PUSH2 0x3C0 DUP3 SWAP1 MSTORE PUSH2 0x3E0 DUP3 SWAP1 MSTORE PUSH2 0x400 DUP3 SWAP1 MSTORE PUSH2 0x420 DUP3 SWAP1 MSTORE PUSH1 0xA0 MSTORE PUSH2 0x440 DUP5 DUP2 MSTORE PUSH2 0x460 DUP6 SWAP1 MSTORE PUSH2 0x480 DUP6 SWAP1 MSTORE PUSH2 0x4A0 DUP6 SWAP1 MSTORE PUSH2 0x4C0 DUP6 SWAP1 MSTORE PUSH1 0xC0 MSTORE PUSH2 0x4E0 DUP4 DUP2 MSTORE PUSH2 0x500 DUP5 SWAP1 MSTORE PUSH2 0x520 DUP3 SWAP1 MSTORE PUSH2 0x540 DUP5 SWAP1 MSTORE PUSH2 0x560 DUP6 SWAP1 MSTORE PUSH1 0xE0 MSTORE PUSH2 0x580 DUP4 DUP2 MSTORE PUSH2 0x5A0 DUP5 SWAP1 MSTORE PUSH2 0x5C0 DUP6 SWAP1 MSTORE PUSH2 0x5E0 DUP5 SWAP1 MSTORE PUSH2 0x600 DUP3 SWAP1 MSTORE PUSH2 0x100 MSTORE PUSH2 0x620 DUP4 DUP2 MSTORE PUSH2 0x640 DUP3 SWAP1 MSTORE PUSH2 0x660 DUP5 SWAP1 MSTORE PUSH2 0x680 DUP6 SWAP1 MSTORE PUSH2 0x6A0 DUP5 SWAP1 MSTORE PUSH2 0x120 MSTORE PUSH2 0x6C0 DUP4 DUP2 MSTORE PUSH2 0x6E0 DUP3 SWAP1 MSTORE PUSH2 0x700 DUP5 SWAP1 MSTORE PUSH2 0x720 DUP6 SWAP1 MSTORE PUSH2 0x740 DUP6 SWAP1 MSTORE PUSH2 0x140 MSTORE PUSH2 0x760 DUP4 DUP2 MSTORE PUSH2 0x780 DUP3 SWAP1 MSTORE PUSH2 0x7A0 DUP3 SWAP1 MSTORE PUSH2 0x7C0 DUP5 SWAP1 MSTORE PUSH2 0x7E0 DUP6 SWAP1 MSTORE PUSH2 0x160 MSTORE PUSH2 0x800 DUP4 DUP2 MSTORE PUSH2 0x820 DUP6 SWAP1 MSTORE PUSH2 0x840 DUP5 SWAP1 MSTORE PUSH2 0x860 DUP3 SWAP1 MSTORE PUSH2 0x880 DUP5 SWAP1 MSTORE PUSH2 0x180 MSTORE PUSH2 0x8A0 DUP4 DUP2 MSTORE PUSH2 0x8C0 DUP6 SWAP1 MSTORE PUSH2 0x8E0 DUP6 SWAP1 MSTORE PUSH2 0x900 DUP5 SWAP1 MSTORE PUSH2 0x920 DUP3 SWAP1 MSTORE PUSH2 0x1A0 MSTORE PUSH2 0x940 DUP4 DUP2 MSTORE PUSH2 0x960 DUP6 SWAP1 MSTORE PUSH2 0x980 DUP5 SWAP1 MSTORE PUSH2 0x9A0 DUP3 SWAP1 MSTORE PUSH2 0x9C0 DUP3 SWAP1 MSTORE PUSH2 0x1C0 MSTORE PUSH2 0x9E0 DUP2 DUP2 MSTORE PUSH2 0xA00 DUP5 SWAP1 MSTORE PUSH2 0xA20 DUP6 SWAP1 MSTORE PUSH2 0xA40 DUP5 SWAP1 MSTORE PUSH2 0xA60 DUP3 SWAP1 MSTORE PUSH2 0x1E0 MSTORE PUSH2 0xA80 DUP2 DUP2 MSTORE PUSH2 0xAA0 DUP5 SWAP1 MSTORE PUSH2 0xAC0 DUP5 SWAP1 MSTORE PUSH2 0xAE0 DUP5 SWAP1 MSTORE PUSH2 0xB00 DUP6 SWAP1 MSTORE PUSH2 0x200 MSTORE PUSH2 0xB20 DUP2 DUP2 MSTORE PUSH2 0xB40 DUP3 SWAP1 MSTORE PUSH2 0xB60 DUP5 SWAP1 MSTORE PUSH2 0xB80 DUP6 SWAP1 MSTORE PUSH2 0xBA0 DUP6 SWAP1 MSTORE PUSH2 0x220 MSTORE PUSH2 0xBC0 DUP2 DUP2 MSTORE PUSH2 0xBE0 DUP3 SWAP1 MSTORE PUSH2 0xC00 DUP5 SWAP1 MSTORE PUSH2 0xC20 DUP6 SWAP1 MSTORE PUSH2 0xC40 DUP5 SWAP1 MSTORE PUSH2 0x240 MSTORE PUSH2 0xC60 DUP2 DUP2 MSTORE PUSH2 0xC80 DUP3 SWAP1 MSTORE PUSH2 0xCA0 DUP3 SWAP1 MSTORE PUSH2 0xCC0 DUP5 SWAP1 MSTORE PUSH2 0xCE0 DUP6 SWAP1 MSTORE PUSH2 0x260 MSTORE PUSH2 0xD00 DUP5 DUP2 MSTORE PUSH2 0xD20 DUP5 SWAP1 MSTORE PUSH2 0xD40 DUP3 SWAP1 MSTORE PUSH2 0xD60 DUP5 SWAP1 MSTORE PUSH2 0xD80 DUP6 SWAP1 MSTORE PUSH2 0x280 MSTORE PUSH2 0xDA0 DUP5 DUP2 MSTORE PUSH2 0xDC0 DUP5 SWAP1 MSTORE PUSH2 0xDE0 DUP5 SWAP1 MSTORE PUSH2 0xE00 DUP5 SWAP1 MSTORE PUSH2 0xE20 DUP3 SWAP1 MSTORE PUSH2 0x2A0 MSTORE PUSH2 0xE40 DUP5 DUP2 MSTORE PUSH2 0xE60 DUP6 SWAP1 MSTORE PUSH2 0xE80 DUP5 SWAP1 MSTORE PUSH2 0xEA0 DUP3 SWAP1 MSTORE PUSH2 0xEC0 DUP3 SWAP1 MSTORE PUSH2 0x2C0 MSTORE PUSH2 0xF80 PUSH1 0x40 MSTORE PUSH2 0xEE0 DUP5 DUP2 MSTORE PUSH2 0xF00 SWAP5 SWAP1 SWAP5 MSTORE PUSH2 0xF20 DUP4 SWAP1 MSTORE PUSH2 0xF40 MSTORE PUSH2 0xF60 SWAP2 SWAP1 SWAP2 MSTORE PUSH2 0x2E0 SWAP2 SWAP1 SWAP2 MSTORE PUSH3 0x2D7 SWAP1 PUSH1 0x7 SWAP1 PUSH1 0x14 PUSH3 0x5F6 JUMP JUMPDEST POP PUSH1 0x40 MLOAD DUP1 PUSH2 0x120 ADD PUSH1 0x40 MSTORE DUP1 PUSH1 0x40 MLOAD DUP1 PUSH1 0xA0 ADD PUSH1 0x40 MSTORE DUP1 PUSH1 0x0 DUP2 MSTORE PUSH1 0x20 ADD PUSH1 0x0 DUP2 MSTORE PUSH1 0x20 ADD PUSH1 0x14 DUP2 MSTORE PUSH1 0x20 ADD PUSH1 0x50 DUP2 MSTORE PUSH1 0x20 ADD PUSH1 0xC8 DUP2 MSTORE POP DUP2 MSTORE PUSH1 0x20 ADD PUSH1 0x40 MLOAD DUP1 PUSH1 0xA0 ADD PUSH1 0x40 MSTORE DUP1 PUSH1 0x0 DUP2 MSTORE PUSH1 0x20 ADD PUSH1 0x0 DUP2 MSTORE PUSH1 0x20 ADD PUSH1 0x28 DUP2 MSTORE PUSH1 0x20 ADD PUSH2 0x190 DUP2 MSTORE PUSH1 0x20 ADD PUSH2 0x7D0 DUP2 MSTORE POP DUP2 MSTORE PUSH1 0x20 ADD PUSH1 0x40 MLOAD DUP1 PUSH1 0xA0 ADD PUSH1 0x40 MSTORE DUP1 PUSH1 0x0 DUP2 MSTORE PUSH1 0x20 ADD PUSH1 0x8 DUP2 MSTORE PUSH1 0x20 ADD PUSH1 0xF DUP2 MSTORE PUSH1 0x20 ADD PUSH1 0x78 DUP2 MSTORE PUSH1 0x20 ADD PUSH2 0x1F4 DUP2 MSTORE POP DUP2 MSTORE PUSH1 0x20 ADD PUSH1 0x40 MLOAD DUP1 PUSH1 0xA0 ADD PUSH1 0x40 MSTORE DUP1 PUSH1 0x0 DUP2 MSTORE PUSH1 0x20 ADD PUSH1 0x2 DUP2 MSTORE PUSH1 0x20 ADD PUSH1 0x8 DUP2 MSTORE PUSH1 0x20 ADD PUSH1 0x14 DUP2 MSTORE PUSH1 0x20 ADD PUSH1 0x50 DUP2 MSTORE POP DUP2 MSTORE PUSH1 0x20 ADD PUSH1 0x40 MLOAD DUP1 PUSH1 0xA0 ADD PUSH1 0x40 MSTORE DUP1 PUSH1 0x0 DUP2 MSTORE PUSH1 0x20 ADD PUSH1 0x0 DUP2 MSTORE PUSH1 0x20 ADD PUSH1 0x8 DUP2 MSTORE PUSH1 0x20 ADD PUSH1 0x14 DUP2 MSTORE PUSH1 0x20 ADD PUSH1 0x50 DUP2 MSTORE POP DUP2 MSTORE PUSH1 0x20 ADD PUSH1 0x40 MLOAD DUP1 PUSH1 0xA0 ADD PUSH1 0x40 MSTORE DUP1 PUSH1 0x0 DUP2 MSTORE PUSH1 0x20 ADD PUSH1 0x0 DUP2 MSTORE PUSH1 0x20 ADD PUSH1 0x14 DUP2 MSTORE PUSH1 0x20 ADD PUSH1 0x50 DUP2 MSTORE PUSH1 0x20 ADD PUSH1 0xC8 DUP2 MSTORE POP DUP2 MSTORE PUSH1 0x20 ADD PUSH1 0x40 MLOAD DUP1 PUSH1 0xA0 ADD PUSH1 0x40 MSTORE DUP1 PUSH1 0x0 DUP2 MSTORE PUSH1 0x20 ADD PUSH1 0x0 DUP2 MSTORE PUSH1 0x20 ADD PUSH1 0x8 DUP2 MSTORE PUSH1 0x20 ADD PUSH1 0x14 DUP2 MSTORE PUSH1 0x20 ADD PUSH1 0x50 DUP2 MSTORE POP DUP2 MSTORE PUSH1 0x20 ADD PUSH1 0x40 MLOAD DUP1 PUSH1 0xA0 ADD PUSH1 0x40 MSTORE DUP1 PUSH1 0x0 DUP2 MSTORE PUSH1 0x20 ADD PUSH1 0x0 DUP2 MSTORE PUSH1 0x20 ADD PUSH1 0x14 DUP2 MSTORE PUSH1 0x20 ADD PUSH1 0xC8 DUP2 MSTORE PUSH1 0x20 ADD PUSH2 0x3E8 DUP2 MSTORE POP DUP2 MSTORE PUSH1 0x20 ADD PUSH1 0x40 MLOAD DUP1 PUSH1 0xA0 ADD PUSH1 0x40 MSTORE DUP1 PUSH1 0x0 DUP2 MSTORE PUSH1 0x20 ADD PUSH1 0x0 DUP2 MSTORE PUSH1 0x20 ADD PUSH1 0x2 DUP2 MSTORE PUSH1 0x20 ADD PUSH1 0x5 DUP2 MSTORE PUSH1 0x20 ADD PUSH1 0xF DUP2 MSTORE POP DUP2 MSTORE POP PUSH1 0x9 SWAP1 PUSH1 0x9 PUSH3 0x4B1 SWAP3 SWAP2 SWAP1 PUSH3 0x657 JUMP JUMPDEST POP PUSH1 0x40 DUP1 MLOAD PUSH1 0xA0 DUP2 ADD DUP3 MSTORE PUSH3 0x186A0 DUP2 MSTORE PUSH2 0x2710 PUSH1 0x20 DUP3 ADD MSTORE PUSH2 0x3E8 SWAP2 DUP2 ADD SWAP2 SWAP1 SWAP2 MSTORE PUSH1 0x64 PUSH1 0x60 DUP3 ADD MSTORE PUSH1 0xA PUSH1 0x80 DUP3 ADD MSTORE PUSH3 0x4F2 SWAP1 PUSH1 0x36 SWAP1 PUSH1 0x5 PUSH3 0x697 JUMP JUMPDEST POP PUSH1 0x40 DUP1 MLOAD PUSH1 0xA0 DUP2 ADD DUP3 MSTORE PUSH2 0x2710 DUP2 MSTORE PUSH2 0x3E8 PUSH1 0x20 DUP3 ADD MSTORE PUSH1 0x64 SWAP2 DUP2 ADD DUP3 SWAP1 MSTORE PUSH1 0x60 DUP2 ADD SWAP2 SWAP1 SWAP2 MSTORE PUSH1 0x1 PUSH1 0x80 DUP3 ADD MSTORE PUSH3 0x531 SWAP1 PUSH1 0x3B SWAP1 PUSH1 0x5 PUSH3 0x6DD JUMP JUMPDEST POP PUSH1 0x0 PUSH1 0x40 DUP2 SWAP1 SSTORE PUSH1 0x41 DUP2 SWAP1 SSTORE PUSH1 0x42 SSTORE CALLVALUE DUP1 ISZERO PUSH3 0x54E JUMPI PUSH1 0x0 DUP1 REVERT JUMPDEST POP PUSH1 0x40 MLOAD PUSH3 0x263D CODESIZE SUB DUP1 PUSH3 0x263D DUP4 CODECOPY DUP2 ADD PUSH1 0x40 DUP2 SWAP1 MSTORE PUSH3 0x571 SWAP2 PUSH3 0x7C3 JUMP JUMPDEST PUSH3 0x57C CALLER PUSH3 0x5A6 JUMP JUMPDEST PUSH1 0x5 DUP1 SLOAD PUSH1 0x1 PUSH1 0x1 PUSH1 0xA0 SHL SUB NOT AND PUSH1 0x1 PUSH1 0x1 PUSH1 0xA0 SHL SUB SWAP4 SWAP1 SWAP4 AND SWAP3 SWAP1 SWAP3 OR SWAP1 SWAP2 SSTORE PUSH1 0x6 SSTORE PUSH3 0x7FF JUMP JUMPDEST PUSH1 0x0 DUP1 SLOAD PUSH1 0x1 PUSH1 0x1 PUSH1 0xA0 SHL SUB DUP4 DUP2 AND PUSH1 0x1 PUSH1 0x1 PUSH1 0xA0 SHL SUB NOT DUP4 AND DUP2 OR DUP5 SSTORE PUSH1 0x40 MLOAD SWAP2 SWAP1 SWAP3 AND SWAP3 DUP4 SWAP2 PUSH32 0x8BE0079C531659141344CD1FD0A4F28419497F9722A3DAAFE3B4186F6B6457E0 SWAP2 SWAP1 LOG3 POP POP JUMP JUMPDEST DUP3 DUP1 SLOAD DUP3 DUP3 SSTORE SWAP1 PUSH1 0x0 MSTORE PUSH1 0x20 PUSH1 0x0 KECCAK256 SWAP1 PUSH1 0x5 MUL DUP2 ADD SWAP3 DUP3 ISZERO PUSH3 0x645 JUMPI SWAP2 PUSH1 0x20 MUL DUP3 ADD JUMPDEST DUP3 DUP2 GT ISZERO PUSH3 0x645 JUMPI DUP3 MLOAD PUSH3 0x634 SWAP1 DUP4 SWAP1 PUSH1 0x5 PUSH3 0x714 JUMP JUMPDEST POP SWAP2 PUSH1 0x20 ADD SWAP2 SWAP1 PUSH1 0x5 ADD SWAP1 PUSH3 0x61A JUMP JUMPDEST POP PUSH3 0x653 SWAP3 SWAP2 POP PUSH3 0x74A JUMP JUMPDEST POP SWAP1 JUMP JUMPDEST PUSH1 0x2D DUP4 ADD SWAP2 DUP4 SWAP1 DUP3 ISZERO PUSH3 0x645 JUMPI SWAP2 PUSH1 0x20 MUL DUP3 ADD JUMPDEST DUP3 DUP2 GT ISZERO PUSH3 0x645 JUMPI DUP3 MLOAD PUSH3 0x686 SWAP1 DUP4 SWAP1 PUSH1 0x5 PUSH3 0x77B JUMP JUMPDEST POP SWAP2 PUSH1 0x20 ADD SWAP2 SWAP1 PUSH1 0x5 ADD SWAP1 PUSH3 0x66C JUMP JUMPDEST DUP3 PUSH1 0x5 DUP2 ADD SWAP3 DUP3 ISZERO PUSH3 0x6CF JUMPI SWAP2 PUSH1 0x20 MUL DUP3 ADD JUMPDEST DUP3 DUP2 GT ISZERO PUSH3 0x6CF JUMPI DUP3 MLOAD DUP3 SWAP1 PUSH3 0xFFFFFF AND SWAP1 SSTORE SWAP2 PUSH1 0x20 ADD SWAP2 SWAP1 PUSH1 0x1 ADD SWAP1 PUSH3 0x6AB JUMP JUMPDEST POP PUSH3 0x653 SWAP3 SWAP2 POP PUSH3 0x7AC JUMP JUMPDEST DUP3 PUSH1 0x5 DUP2 ADD SWAP3 DUP3 ISZERO PUSH3 0x6CF JUMPI SWAP2 PUSH1 0x20 MUL DUP3 ADD JUMPDEST DUP3 DUP2 GT ISZERO PUSH3 0x6CF JUMPI DUP3 MLOAD DUP3 SWAP1 PUSH2 0xFFFF AND SWAP1 SSTORE SWAP2 PUSH1 0x20 ADD SWAP2 SWAP1 PUSH1 0x1 ADD SWAP1 PUSH3 0x6F1 JUMP JUMPDEST DUP3 PUSH1 0x5 DUP2 ADD SWAP3 DUP3 ISZERO PUSH3 0x6CF JUMPI SWAP2 PUSH1 0x20 MUL DUP3 ADD JUMPDEST DUP3 DUP2 GT ISZERO PUSH3 0x6CF JUMPI DUP3 MLOAD DUP3 SWAP1 PUSH1 0xFF AND SWAP1 SSTORE SWAP2 PUSH1 0x20 ADD SWAP2 SWAP1 PUSH1 0x1 ADD SWAP1 PUSH3 0x728 JUMP JUMPDEST DUP1 DUP3 GT ISZERO PUSH3 0x653 JUMPI PUSH1 0x0 DUP1 DUP3 SSTORE PUSH1 0x1 DUP3 ADD DUP2 SWAP1 SSTORE PUSH1 0x2 DUP3 ADD DUP2 SWAP1 SSTORE PUSH1 0x3 DUP3 ADD DUP2 SWAP1 SSTORE PUSH1 0x4 DUP3 ADD SSTORE PUSH1 0x5 ADD PUSH3 0x74A JUMP JUMPDEST DUP3 PUSH1 0x5 DUP2 ADD SWAP3 DUP3 ISZERO PUSH3 0x6CF JUMPI SWAP2 PUSH1 0x20 MUL DUP3 ADD JUMPDEST DUP3 DUP2 GT ISZERO PUSH3 0x6CF JUMPI DUP3 MLOAD DUP3 SSTORE SWAP2 PUSH1 0x20 ADD SWAP2 SWAP1 PUSH1 0x1 ADD SWAP1 PUSH3 0x78F JUMP JUMPDEST JUMPDEST DUP1 DUP3 GT ISZERO PUSH3 0x653 JUMPI PUSH1 0x0 DUP2 SSTORE PUSH1 0x1 ADD PUSH3 0x7AD JUMP JUMPDEST PUSH1 0x0 DUP1 PUSH1 0x40 DUP4 DUP6 SUB SLT ISZERO PUSH3 0x7D7 JUMPI PUSH1 0x0 DUP1 REVERT JUMPDEST DUP3 MLOAD PUSH1 0x1 PUSH1 0x1 PUSH1 0xA0 SHL SUB DUP2 AND DUP2 EQ PUSH3 0x7EF JUMPI PUSH1 0x0 DUP1 REVERT JUMPDEST PUSH1 0x20 SWAP4 SWAP1 SWAP4 ADD MLOAD SWAP3 SWAP5 SWAP3 SWAP4 POP POP POP JUMP JUMPDEST PUSH2 0x1E2E DUP1 PUSH3 0x80F PUSH1 0x0 CODECOPY PUSH1 0x0 RETURN INVALID PUSH1 0x80 PUSH1 0x40 MSTORE CALLVALUE DUP1 ISZERO PUSH2 0x10 JUMPI PUSH1 0x0 DUP1 REVERT JUMPDEST POP PUSH1 0x4 CALLDATASIZE LT PUSH2 0x137 JUMPI PUSH1 0x0 CALLDATALOAD PUSH1 0xE0 SHR DUP1 PUSH4 0x7FF9B596 GT PUSH2 0xB8 JUMPI DUP1 PUSH4 0xB7013DC1 GT PUSH2 0x7C JUMPI DUP1 PUSH4 0xB7013DC1 EQ PUSH2 0x286 JUMPI DUP1 PUSH4 0xD3F0A7CE EQ PUSH2 0x29B JUMPI DUP1 PUSH4 0xE5A6B10F EQ PUSH2 0x2B0 JUMPI DUP1 PUSH4 0xE9A4A03D EQ PUSH2 0x2C3 JUMPI DUP1 PUSH4 0xF2FDE38B EQ PUSH2 0x2CB JUMPI DUP1 PUSH4 0xF7E944EE EQ PUSH2 0x2DE JUMPI PUSH1 0x0 DUP1 REVERT JUMPDEST DUP1 PUSH4 0x7FF9B596 EQ PUSH2 0x23E JUMPI DUP1 PUSH4 0x81B87E54 EQ PUSH2 0x247 JUMPI DUP1 PUSH4 0x8D8F2ADB EQ PUSH2 0x25A JUMPI DUP1 PUSH4 0x8DA5CB5B EQ PUSH2 0x262 JUMPI DUP1 PUSH4 0xA3E2E8CE EQ PUSH2 0x273 JUMPI PUSH1 0x0 DUP1 REVERT JUMPDEST DUP1 PUSH4 0x4B94F50E GT PUSH2 0xFF JUMPI DUP1 PUSH4 0x4B94F50E EQ PUSH2 0x1D9 JUMPI DUP1 PUSH4 0x6945C1FD EQ PUSH2 0x1EB JUMPI DUP1 PUSH4 0x6A61E5FC EQ PUSH2 0x210 JUMPI DUP1 PUSH4 0x6F43022C EQ PUSH2 0x223 JUMPI DUP1 PUSH4 0x715018A6 EQ PUSH2 0x236 JUMPI PUSH1 0x0 DUP1 REVERT JUMPDEST DUP1 PUSH4 0x17ADAA03 EQ PUSH2 0x13C JUMPI DUP1 PUSH4 0x22526328 EQ PUSH2 0x189 JUMPI DUP1 PUSH4 0x2F84C391 EQ PUSH2 0x19E JUMPI DUP1 PUSH4 0x3610724E EQ PUSH2 0x1B1 JUMPI DUP1 PUSH4 0x4282CF54 EQ PUSH2 0x1C4 JUMPI JUMPDEST PUSH1 0x0 DUP1 REVERT JUMPDEST PUSH2 0x14F PUSH2 0x14A CALLDATASIZE PUSH1 0x4 PUSH2 0x1926 JUMP JUMPDEST PUSH2 0x2F1 JUMP JUMPDEST PUSH1 0x40 DUP1 MLOAD SWAP7 DUP8 MSTORE PUSH1 0x1 PUSH1 0x1 PUSH1 0xA0 SHL SUB SWAP1 SWAP6 AND PUSH1 0x20 DUP8 ADD MSTORE SWAP4 DUP6 ADD SWAP3 SWAP1 SWAP3 MSTORE PUSH1 0x60 DUP5 ADD MSTORE PUSH1 0x80 DUP4 ADD MSTORE PUSH1 0xA0 DUP3 ADD MSTORE PUSH1 0xC0 ADD JUMPDEST PUSH1 0x40 MLOAD DUP1 SWAP2 SUB SWAP1 RETURN JUMPDEST PUSH2 0x19C PUSH2 0x197 CALLDATASIZE PUSH1 0x4 PUSH2 0x1AC1 JUMP JUMPDEST PUSH2 0x34F JUMP JUMPDEST STOP JUMPDEST PUSH2 0x19C PUSH2 0x1AC CALLDATASIZE PUSH1 0x4 PUSH2 0x190B JUMP JUMPDEST PUSH2 0x376 JUMP JUMPDEST PUSH2 0x19C PUSH2 0x1BF CALLDATASIZE PUSH1 0x4 PUSH2 0x1AC1 JUMP JUMPDEST PUSH2 0x3A0 JUMP JUMPDEST PUSH2 0x1CC PUSH2 0x5E1 JUMP JUMPDEST PUSH1 0x40 MLOAD PUSH2 0x180 SWAP2 SWAP1 PUSH2 0x1C31 JUMP JUMPDEST PUSH1 0x6 SLOAD JUMPDEST PUSH1 0x40 MLOAD SWAP1 DUP2 MSTORE PUSH1 0x20 ADD PUSH2 0x180 JUMP JUMPDEST PUSH1 0x5 SLOAD PUSH1 0x1 PUSH1 0x1 PUSH1 0xA0 SHL SUB AND JUMPDEST PUSH1 0x40 MLOAD PUSH1 0x1 PUSH1 0x1 PUSH1 0xA0 SHL SUB SWAP1 SWAP2 AND DUP2 MSTORE PUSH1 0x20 ADD PUSH2 0x180 JUMP JUMPDEST PUSH2 0x19C PUSH2 0x21E CALLDATASIZE PUSH1 0x4 PUSH2 0x1AC1 JUMP JUMPDEST PUSH2 0x65F JUMP JUMPDEST PUSH2 0x19C PUSH2 0x231 CALLDATASIZE PUSH1 0x4 PUSH2 0x19E5 JUMP JUMPDEST PUSH2 0x66C JUMP JUMPDEST PUSH2 0x19C PUSH2 0x68B JUMP JUMPDEST PUSH2 0x1DD PUSH1 0x6 SLOAD DUP2 JUMP JUMPDEST PUSH2 0x19C PUSH2 0x255 CALLDATASIZE PUSH1 0x4 PUSH2 0x1950 JUMP JUMPDEST PUSH2 0x69F JUMP JUMPDEST PUSH2 0x19C PUSH2 0x6B3 JUMP JUMPDEST PUSH1 0x0 SLOAD PUSH1 0x1 PUSH1 0x1 PUSH1 0xA0 SHL SUB AND PUSH2 0x1F8 JUMP JUMPDEST PUSH2 0x19C PUSH2 0x281 CALLDATASIZE PUSH1 0x4 PUSH2 0x1AF3 JUMP JUMPDEST PUSH2 0x898 JUMP JUMPDEST CALLER PUSH1 0x0 SWAP1 DUP2 MSTORE PUSH1 0x4 PUSH1 0x20 MSTORE PUSH1 0x40 SWAP1 KECCAK256 SLOAD PUSH2 0x1DD JUMP JUMPDEST PUSH2 0x2A3 PUSH2 0xB82 JUMP JUMPDEST PUSH1 0x40 MLOAD PUSH2 0x180 SWAP2 SWAP1 PUSH2 0x1BF4 JUMP JUMPDEST PUSH1 0x5 SLOAD PUSH2 0x1F8 SWAP1 PUSH1 0x1 PUSH1 0x1 PUSH1 0xA0 SHL SUB AND DUP2 JUMP JUMPDEST PUSH2 0x1DD PUSH2 0xBE4 JUMP JUMPDEST PUSH2 0x19C PUSH2 0x2D9 CALLDATASIZE PUSH1 0x4 PUSH2 0x190B JUMP JUMPDEST PUSH2 0xC7B JUMP JUMPDEST PUSH2 0x19C PUSH2 0x2EC CALLDATASIZE PUSH1 0x4 PUSH2 0x1AC1 JUMP JUMPDEST PUSH2 0xCF4 JUMP JUMPDEST PUSH1 0x8 PUSH1 0x20 MSTORE DUP2 PUSH1 0x0 MSTORE PUSH1 0x40 PUSH1 0x0 KECCAK256 DUP2 DUP2 SLOAD DUP2 LT PUSH2 0x30D JUMPI PUSH1 0x0 DUP1 REVERT JUMPDEST PUSH1 0x0 SWAP2 DUP3 MSTORE PUSH1 0x20 SWAP1 SWAP2 KECCAK256 PUSH1 0xB SWAP1 SWAP2 MUL ADD DUP1 SLOAD PUSH1 0x1 DUP3 ADD SLOAD PUSH1 0x2 DUP4 ADD SLOAD PUSH1 0x3 DUP5 ADD SLOAD PUSH1 0x4 DUP6 ADD SLOAD PUSH1 0xA SWAP1 SWAP6 ADD SLOAD SWAP4 SWAP7 POP PUSH1 0x1 PUSH1 0x1 PUSH1 0xA0 SHL SUB SWAP1 SWAP3 AND SWAP5 POP SWAP3 SWAP1 SWAP2 DUP7 JUMP JUMPDEST CALLER PUSH1 0x0 SWAP1 DUP2 MSTORE PUSH1 0x4 PUSH1 0x20 MSTORE PUSH1 0x40 DUP2 KECCAK256 DUP1 SLOAD DUP4 SWAP3 SWAP1 PUSH2 0x36E SWAP1 DUP5 SWAP1 PUSH2 0x1CE3 JUMP JUMPDEST SWAP1 SWAP2 SSTORE POP POP POP JUMP JUMPDEST PUSH2 0x37E PUSH2 0xD62 JUMP JUMPDEST PUSH1 0x5 DUP1 SLOAD PUSH1 0x1 PUSH1 0x1 PUSH1 0xA0 SHL SUB NOT AND PUSH1 0x1 PUSH1 0x1 PUSH1 0xA0 SHL SUB SWAP3 SWAP1 SWAP3 AND SWAP2 SWAP1 SWAP2 OR SWAP1 SSTORE JUMP JUMPDEST PUSH1 0x0 PUSH1 0x6 SLOAD DUP3 PUSH2 0x3B0 SWAP2 SWAP1 PUSH2 0x1D0F JUMP JUMPDEST PUSH1 0x5 SLOAD PUSH1 0x40 MLOAD PUSH4 0x70A08231 PUSH1 0xE0 SHL DUP2 MSTORE CALLER PUSH1 0x4 DUP3 ADD MSTORE SWAP2 SWAP3 POP PUSH1 0x0 SWAP2 PUSH1 0x1 PUSH1 0x1 PUSH1 0xA0 SHL SUB SWAP1 SWAP2 AND SWAP1 PUSH4 0x70A08231 SWAP1 PUSH1 0x24 ADD PUSH1 0x20 PUSH1 0x40 MLOAD DUP1 DUP4 SUB DUP2 DUP7 DUP1 EXTCODESIZE ISZERO DUP1 ISZERO PUSH2 0x3F9 JUMPI PUSH1 0x0 DUP1 REVERT JUMPDEST POP GAS STATICCALL ISZERO DUP1 ISZERO PUSH2 0x40D JUMPI RETURNDATASIZE PUSH1 0x0 DUP1 RETURNDATACOPY RETURNDATASIZE PUSH1 0x0 REVERT JUMPDEST POP POP POP POP PUSH1 0x40 MLOAD RETURNDATASIZE PUSH1 0x1F NOT PUSH1 0x1F DUP3 ADD AND DUP3 ADD DUP1 PUSH1 0x40 MSTORE POP DUP2 ADD SWAP1 PUSH2 0x431 SWAP2 SWAP1 PUSH2 0x1ADA JUMP JUMPDEST SWAP1 POP DUP2 DUP2 LT ISZERO PUSH2 0x4A5 JUMPI PUSH1 0x40 MLOAD PUSH3 0x461BCD PUSH1 0xE5 SHL DUP2 MSTORE PUSH1 0x20 PUSH1 0x4 DUP3 ADD MSTORE PUSH1 0x34 PUSH1 0x24 DUP3 ADD MSTORE PUSH32 0x596F7520646F206E6F74206861766520656E6F75676820746F6B656E73206F6E PUSH1 0x44 DUP3 ADD MSTORE PUSH20 0x20796F75722062616C616E636520746F20706179 PUSH1 0x60 SHL PUSH1 0x64 DUP3 ADD MSTORE PUSH1 0x84 ADD JUMPDEST PUSH1 0x40 MLOAD DUP1 SWAP2 SUB SWAP1 REVERT JUMPDEST PUSH1 0x5 SLOAD PUSH1 0x40 MLOAD PUSH4 0x6EB1769F PUSH1 0xE1 SHL DUP2 MSTORE CALLER PUSH1 0x4 DUP3 ADD MSTORE ADDRESS PUSH1 0x24 DUP3 ADD MSTORE PUSH1 0x0 SWAP2 PUSH1 0x1 PUSH1 0x1 PUSH1 0xA0 SHL SUB AND SWAP1 PUSH4 0xDD62ED3E SWAP1 PUSH1 0x44 ADD PUSH1 0x20 PUSH1 0x40 MLOAD DUP1 DUP4 SUB DUP2 DUP7 DUP1 EXTCODESIZE ISZERO DUP1 ISZERO PUSH2 0x4EF JUMPI PUSH1 0x0 DUP1 REVERT JUMPDEST POP GAS STATICCALL ISZERO DUP1 ISZERO PUSH2 0x503 JUMPI RETURNDATASIZE PUSH1 0x0 DUP1 RETURNDATACOPY RETURNDATASIZE PUSH1 0x0 REVERT JUMPDEST POP POP POP POP PUSH1 0x40 MLOAD RETURNDATASIZE PUSH1 0x1F NOT PUSH1 0x1F DUP3 ADD AND DUP3 ADD DUP1 PUSH1 0x40 MSTORE POP DUP2 ADD SWAP1 PUSH2 0x527 SWAP2 SWAP1 PUSH2 0x1ADA JUMP JUMPDEST SWAP1 POP DUP3 DUP2 LT ISZERO PUSH2 0x59F JUMPI PUSH1 0x40 MLOAD PUSH3 0x461BCD PUSH1 0xE5 SHL DUP2 MSTORE PUSH1 0x20 PUSH1 0x4 DUP3 ADD MSTORE PUSH1 0x3A PUSH1 0x24 DUP3 ADD MSTORE PUSH32 0x596F7520646964206E6F7420616C6C6F772074686520636F6E74726163742074 PUSH1 0x44 DUP3 ADD MSTORE PUSH32 0x6F2073656E642074686520707572636861736520616D6F756E74000000000000 PUSH1 0x64 DUP3 ADD MSTORE PUSH1 0x84 ADD PUSH2 0x49C JUMP JUMPDEST PUSH1 0x5 SLOAD PUSH2 0x5B7 SWAP1 PUSH1 0x1 PUSH1 0x1 PUSH1 0xA0 SHL SUB AND CALLER ADDRESS DUP7 PUSH2 0xDBC JUMP JUMPDEST CALLER PUSH1 0x0 SWAP1 DUP2 MSTORE PUSH1 0x4 PUSH1 0x20 MSTORE PUSH1 0x40 DUP2 KECCAK256 DUP1 SLOAD DUP7 SWAP3 SWAP1 PUSH2 0x5D6 SWAP1 DUP5 SWAP1 PUSH2 0x1CE3 JUMP JUMPDEST SWAP1 SWAP2 SSTORE POP POP POP POP POP POP JUMP JUMPDEST PUSH1 0x60 PUSH1 0x7 DUP1 SLOAD DUP1 PUSH1 0x20 MUL PUSH1 0x20 ADD PUSH1 0x40 MLOAD SWAP1 DUP2 ADD PUSH1 0x40 MSTORE DUP1 SWAP3 SWAP2 SWAP1 DUP2 DUP2 MSTORE PUSH1 0x20 ADD PUSH1 0x0 SWAP1 JUMPDEST DUP3 DUP3 LT ISZERO PUSH2 0x656 JUMPI PUSH1 0x0 DUP5 DUP2 MSTORE PUSH1 0x20 SWAP1 KECCAK256 PUSH1 0x40 DUP1 MLOAD PUSH1 0xA0 DUP2 ADD SWAP2 DUP3 SWAP1 MSTORE SWAP2 PUSH1 0x5 DUP6 DUP2 MUL SWAP1 SWAP2 ADD SWAP2 DUP3 DUP5 JUMPDEST DUP2 SLOAD DUP2 MSTORE PUSH1 0x20 ADD SWAP1 PUSH1 0x1 ADD SWAP1 DUP1 DUP4 GT PUSH2 0x62F JUMPI POP POP POP POP POP DUP2 MSTORE PUSH1 0x20 ADD SWAP1 PUSH1 0x1 ADD SWAP1 PUSH2 0x605 JUMP JUMPDEST POP POP POP POP SWAP1 POP SWAP1 JUMP JUMPDEST PUSH2 0x667 PUSH2 0xD62 JUMP JUMPDEST PUSH1 0x6 SSTORE JUMP JUMPDEST PUSH2 0x674 PUSH2 0xD62 JUMP JUMPDEST DUP1 MLOAD PUSH2 0x687 SWAP1 PUSH1 0x7 SWAP1 PUSH1 0x20 DUP5 ADD SWAP1 PUSH2 0x16CE JUMP JUMPDEST POP POP JUMP JUMPDEST PUSH2 0x693 PUSH2 0xD62 JUMP JUMPDEST PUSH2 0x69D PUSH1 0x0 PUSH2 0xE1C JUMP JUMPDEST JUMP JUMPDEST PUSH2 0x6A7 PUSH2 0xD62 JUMP JUMPDEST PUSH2 0x687 PUSH1 0x9 DUP3 DUP2 PUSH2 0x1728 JUMP JUMPDEST CALLER PUSH1 0x0 SWAP1 DUP2 MSTORE PUSH1 0x4 PUSH1 0x20 MSTORE PUSH1 0x40 SWAP1 KECCAK256 SLOAD PUSH2 0x70F JUMPI PUSH1 0x40 MLOAD PUSH3 0x461BCD PUSH1 0xE5 SHL DUP2 MSTORE PUSH1 0x20 PUSH1 0x4 DUP3 ADD MSTORE PUSH1 0x1E PUSH1 0x24 DUP3 ADD MSTORE PUSH32 0x4E6F7420656E6F75746820746F6B656E7320666F722077697468647261770000 PUSH1 0x44 DUP3 ADD MSTORE PUSH1 0x64 ADD PUSH2 0x49C JUMP JUMPDEST PUSH1 0x6 SLOAD CALLER PUSH1 0x0 SWAP1 DUP2 MSTORE PUSH1 0x4 PUSH1 0x20 MSTORE PUSH1 0x40 DUP2 KECCAK256 SLOAD SWAP1 SWAP2 PUSH2 0x72D SWAP2 PUSH2 0x1D0F JUMP JUMPDEST PUSH1 0x5 SLOAD PUSH1 0x40 MLOAD PUSH4 0x70A08231 PUSH1 0xE0 SHL DUP2 MSTORE ADDRESS PUSH1 0x4 DUP3 ADD MSTORE SWAP2 SWAP3 POP PUSH1 0x0 SWAP2 PUSH1 0x1 PUSH1 0x1 PUSH1 0xA0 SHL SUB SWAP1 SWAP2 AND SWAP1 PUSH4 0x70A08231 SWAP1 PUSH1 0x24 ADD PUSH1 0x20 PUSH1 0x40 MLOAD DUP1 DUP4 SUB DUP2 DUP7 DUP1 EXTCODESIZE ISZERO DUP1 ISZERO PUSH2 0x776 JUMPI PUSH1 0x0 DUP1 REVERT JUMPDEST POP GAS STATICCALL ISZERO DUP1 ISZERO PUSH2 0x78A JUMPI RETURNDATASIZE PUSH1 0x0 DUP1 RETURNDATACOPY RETURNDATASIZE PUSH1 0x0 REVERT JUMPDEST POP POP POP POP PUSH1 0x40 MLOAD RETURNDATASIZE PUSH1 0x1F NOT PUSH1 0x1F DUP3 ADD AND DUP3 ADD DUP1 PUSH1 0x40 MSTORE POP DUP2 ADD SWAP1 PUSH2 0x7AE SWAP2 SWAP1 PUSH2 0x1ADA JUMP JUMPDEST SWAP1 POP DUP2 DUP2 GT PUSH2 0x7FF JUMPI PUSH1 0x40 MLOAD PUSH3 0x461BCD PUSH1 0xE5 SHL DUP2 MSTORE PUSH1 0x20 PUSH1 0x4 DUP3 ADD MSTORE PUSH1 0x19 PUSH1 0x24 DUP3 ADD MSTORE PUSH32 0x4E6F7420656E6F75746820746F6B656E7320696E2062616E6B00000000000000 PUSH1 0x44 DUP3 ADD MSTORE PUSH1 0x64 ADD PUSH2 0x49C JUMP JUMPDEST PUSH1 0x5 SLOAD PUSH1 0x40 MLOAD PUSH4 0xA9059CBB PUSH1 0xE0 SHL DUP2 MSTORE CALLER PUSH1 0x4 DUP3 ADD MSTORE PUSH1 0x24 DUP2 ADD DUP5 SWAP1 MSTORE PUSH1 0x1 PUSH1 0x1 PUSH1 0xA0 SHL SUB SWAP1 SWAP2 AND SWAP1 PUSH4 0xA9059CBB SWAP1 PUSH1 0x44 ADD PUSH1 0x20 PUSH1 0x40 MLOAD DUP1 DUP4 SUB DUP2 PUSH1 0x0 DUP8 DUP1 EXTCODESIZE ISZERO DUP1 ISZERO PUSH2 0x84B JUMPI PUSH1 0x0 DUP1 REVERT JUMPDEST POP GAS CALL ISZERO DUP1 ISZERO PUSH2 0x85F JUMPI RETURNDATASIZE PUSH1 0x0 DUP1 RETURNDATACOPY RETURNDATASIZE PUSH1 0x0 REVERT JUMPDEST POP POP POP POP PUSH1 0x40 MLOAD RETURNDATASIZE PUSH1 0x1F NOT PUSH1 0x1F DUP3 ADD AND DUP3 ADD DUP1 PUSH1 0x40 MSTORE POP DUP2 ADD SWAP1 PUSH2 0x883 SWAP2 SWAP1 PUSH2 0x1A9F JUMP JUMPDEST POP POP CALLER PUSH1 0x0 SWAP1 DUP2 MSTORE PUSH1 0x4 PUSH1 0x20 MSTORE PUSH1 0x40 DUP2 KECCAK256 SSTORE POP JUMP JUMPDEST PUSH1 0x0 PUSH2 0x8A5 DUP4 PUSH1 0x1 PUSH2 0x1CE3 JUMP JUMPDEST PUSH2 0x8AF SWAP1 DUP6 PUSH2 0x1D0F JUMP JUMPDEST CALLER PUSH1 0x0 SWAP1 DUP2 MSTORE PUSH1 0x4 PUSH1 0x20 MSTORE PUSH1 0x40 SWAP1 KECCAK256 SLOAD SWAP1 SWAP2 POP DUP2 GT ISZERO PUSH2 0x907 JUMPI PUSH1 0x40 MLOAD PUSH3 0x461BCD PUSH1 0xE5 SHL DUP2 MSTORE PUSH1 0x20 PUSH1 0x4 DUP3 ADD MSTORE PUSH1 0x13 PUSH1 0x24 DUP3 ADD MSTORE PUSH19 0x10985B185B98D9481B9BDD08195B9BDD59DA1D PUSH1 0x6A SHL PUSH1 0x44 DUP3 ADD MSTORE PUSH1 0x64 ADD PUSH2 0x49C JUMP JUMPDEST PUSH1 0x7 SLOAD DUP4 LT PUSH2 0x949 JUMPI PUSH1 0x40 MLOAD PUSH3 0x461BCD PUSH1 0xE5 SHL DUP2 MSTORE PUSH1 0x20 PUSH1 0x4 DUP3 ADD MSTORE PUSH1 0xE PUSH1 0x24 DUP3 ADD MSTORE PUSH14 0x546F6F206D616E79206C696E6573 PUSH1 0x90 SHL PUSH1 0x44 DUP3 ADD MSTORE PUSH1 0x64 ADD PUSH2 0x49C JUMP JUMPDEST PUSH2 0x957 PUSH1 0x1 DUP1 SLOAD PUSH1 0x1 ADD SWAP1 SSTORE JUMP JUMPDEST PUSH1 0x0 PUSH2 0x962 PUSH1 0x1 SLOAD SWAP1 JUMP JUMPDEST SWAP1 POP PUSH1 0x0 PUSH2 0x96F DUP5 PUSH2 0xE6C JUMP JUMPDEST SWAP1 POP PUSH1 0x0 DUP1 PUSH1 0x0 PUSH2 0x97E PUSH2 0x1763 JUMP JUMPDEST PUSH2 0x986 PUSH2 0x1763 JUMP JUMPDEST PUSH1 0x0 DUP1 JUMPDEST DUP12 DUP2 LT ISZERO PUSH2 0xA13 JUMPI PUSH1 0x0 DUP1 PUSH2 0x99F DUP4 DUP12 PUSH2 0x10D7 JUMP JUMPDEST SWAP1 SWAP3 POP SWAP1 POP PUSH2 0x9AE DUP16 DUP4 PUSH2 0x1D0F JUMP JUMPDEST SWAP2 POP PUSH2 0x9BA DUP3 DUP6 PUSH2 0x1CE3 JUMP JUMPDEST SWAP4 POP DUP2 DUP7 DUP5 PUSH1 0x14 DUP2 LT PUSH2 0x9CF JUMPI PUSH2 0x9CF PUSH2 0x1DCC JUMP JUMPDEST PUSH1 0x20 MUL ADD MSTORE DUP1 DUP6 DUP5 PUSH1 0x14 DUP2 LT PUSH2 0x9E7 JUMPI PUSH2 0x9E7 PUSH2 0x1DCC JUMP JUMPDEST PUSH1 0x20 MUL ADD MSTORE DUP8 DUP3 GT ISZERO PUSH2 0x9FE JUMPI DUP3 SWAP9 POP DUP2 SWAP8 POP DUP1 SWAP7 POP JUMPDEST POP POP DUP1 DUP1 PUSH2 0xA0B SWAP1 PUSH2 0x1D71 JUMP JUMPDEST SWAP2 POP POP PUSH2 0x98A JUMP JUMPDEST POP CALLER PUSH1 0x0 SWAP1 DUP2 MSTORE PUSH1 0x4 PUSH1 0x20 MSTORE PUSH1 0x40 SWAP1 KECCAK256 SLOAD DUP2 SWAP1 PUSH2 0xA31 SWAP1 DUP12 SWAP1 PUSH2 0x1D2E JUMP JUMPDEST PUSH2 0xA3B SWAP2 SWAP1 PUSH2 0x1CE3 JUMP JUMPDEST CALLER PUSH1 0x0 DUP2 DUP2 MSTORE PUSH1 0x4 PUSH1 0x20 SWAP1 DUP2 MSTORE PUSH1 0x40 DUP1 DUP4 KECCAK256 SWAP5 SWAP1 SWAP5 SSTORE PUSH1 0x8 DUP2 MSTORE SWAP1 DUP4 SWAP1 KECCAK256 DUP4 MLOAD PUSH1 0xE0 DUP2 ADD DUP6 MSTORE DUP13 DUP2 MSTORE SWAP2 DUP3 ADD SWAP3 SWAP1 SWAP3 MSTORE SWAP2 DUP3 ADD DUP15 SWAP1 MSTORE TIMESTAMP PUSH1 0x60 DUP4 ADD MSTORE PUSH1 0x80 DUP3 ADD DUP14 SWAP1 MSTORE SWAP1 PUSH1 0xA0 DUP2 ADD DUP10 PUSH1 0x1 PUSH1 0x20 SWAP1 DUP2 MUL SWAP2 SWAP1 SWAP2 ADD MLOAD DUP3 MSTORE SWAP1 DUP2 ADD DUP5 SWAP1 MSTORE DUP3 SLOAD PUSH1 0x1 DUP1 DUP3 ADD DUP6 SSTORE PUSH1 0x0 SWAP5 DUP6 MSTORE SWAP4 DUP3 SWAP1 KECCAK256 DUP4 MLOAD PUSH1 0xB SWAP1 SWAP3 MUL ADD SWAP1 DUP2 SSTORE SWAP1 DUP3 ADD MLOAD SWAP3 DUP2 ADD DUP1 SLOAD PUSH1 0x1 PUSH1 0x1 PUSH1 0xA0 SHL SUB NOT AND PUSH1 0x1 PUSH1 0x1 PUSH1 0xA0 SHL SUB SWAP1 SWAP5 AND SWAP4 SWAP1 SWAP4 OR SWAP1 SWAP3 SSTORE PUSH1 0x40 DUP2 ADD MLOAD PUSH1 0x2 DUP4 ADD SSTORE PUSH1 0x60 DUP2 ADD MLOAD PUSH1 0x3 DUP4 ADD SSTORE PUSH1 0x80 DUP2 ADD MLOAD PUSH1 0x4 DUP4 ADD SSTORE PUSH1 0xA0 DUP2 ADD MLOAD SWAP1 SWAP2 SWAP1 PUSH2 0xB10 SWAP1 PUSH1 0x5 DUP1 DUP5 ADD SWAP2 SWAP1 PUSH2 0x1782 JUMP JUMPDEST POP PUSH1 0xC0 SWAP2 SWAP1 SWAP2 ADD MLOAD PUSH1 0xA SWAP1 SWAP2 ADD SSTORE PUSH32 0x6C98C6AD5E22111183C867670BEAD07208DBD3ABA882D6BD87ADBBBDB645D59A CALLER DUP14 PUSH2 0xB4C DUP15 PUSH1 0x1 PUSH2 0x1CE3 JUMP JUMPDEST PUSH1 0x20 DUP12 ADD MLOAD PUSH1 0x40 MLOAD PUSH2 0xB6C SWAP5 SWAP4 SWAP3 SWAP2 DUP8 SWAP2 DUP11 SWAP1 DUP11 SWAP1 DUP16 SWAP1 DUP16 SWAP1 DUP16 SWAP1 PUSH2 0x1B81 JUMP JUMPDEST PUSH1 0x40 MLOAD DUP1 SWAP2 SUB SWAP1 LOG1 POP POP POP POP POP POP POP POP POP POP POP POP JUMP JUMPDEST PUSH2 0xB8A PUSH2 0x17BC JUMP JUMPDEST PUSH1 0x40 DUP1 MLOAD PUSH2 0x120 DUP2 ADD SWAP1 SWAP2 MSTORE PUSH1 0x9 DUP1 PUSH1 0x0 DUP4 JUMPDEST DUP3 DUP3 LT ISZERO PUSH2 0x656 JUMPI PUSH1 0x40 DUP1 MLOAD PUSH1 0xA0 DUP2 ADD SWAP2 DUP3 SWAP1 MSTORE SWAP1 PUSH1 0x5 DUP5 DUP2 MUL DUP8 ADD SWAP2 DUP3 DUP5 JUMPDEST DUP2 SLOAD DUP2 MSTORE PUSH1 0x20 ADD SWAP1 PUSH1 0x1 ADD SWAP1 DUP1 DUP4 GT PUSH2 0xBBD JUMPI POP POP POP POP POP DUP2 MSTORE PUSH1 0x20 ADD SWAP1 PUSH1 0x1 ADD SWAP1 PUSH2 0xB9D JUMP JUMPDEST PUSH1 0x5 SLOAD PUSH1 0x40 MLOAD PUSH4 0x70A08231 PUSH1 0xE0 SHL DUP2 MSTORE ADDRESS PUSH1 0x4 DUP3 ADD MSTORE PUSH1 0x0 SWAP2 DUP3 SWAP2 PUSH1 0x1 PUSH1 0x1 PUSH1 0xA0 SHL SUB SWAP1 SWAP2 AND SWAP1 PUSH4 0x70A08231 SWAP1 PUSH1 0x24 ADD PUSH1 0x20 PUSH1 0x40 MLOAD DUP1 DUP4 SUB DUP2 DUP7 DUP1 EXTCODESIZE ISZERO DUP1 ISZERO PUSH2 0xC2C JUMPI PUSH1 0x0 DUP1 REVERT JUMPDEST POP GAS STATICCALL ISZERO DUP1 ISZERO PUSH2 0xC40 JUMPI RETURNDATASIZE PUSH1 0x0 DUP1 RETURNDATACOPY RETURNDATASIZE PUSH1 0x0 REVERT JUMPDEST POP POP POP POP PUSH1 0x40 MLOAD RETURNDATASIZE PUSH1 0x1F NOT PUSH1 0x1F DUP3 ADD AND DUP3 ADD DUP1 PUSH1 0x40 MSTORE POP DUP2 ADD SWAP1 PUSH2 0xC64 SWAP2 SWAP1 PUSH2 0x1ADA JUMP JUMPDEST SWAP1 POP PUSH1 0x0 PUSH2 0xC74 DUP3 PUSH1 0x6 SLOAD PUSH2 0x13A3 JUMP JUMPDEST SWAP4 SWAP3 POP POP POP JUMP JUMPDEST PUSH2 0xC83 PUSH2 0xD62 JUMP JUMPDEST PUSH1 0x1 PUSH1 0x1 PUSH1 0xA0 SHL SUB DUP2 AND PUSH2 0xCE8 JUMPI PUSH1 0x40 MLOAD PUSH3 0x461BCD PUSH1 0xE5 SHL DUP2 MSTORE PUSH1 0x20 PUSH1 0x4 DUP3 ADD MSTORE PUSH1 0x26 PUSH1 0x24 DUP3 ADD MSTORE PUSH32 0x4F776E61626C653A206E6577206F776E657220697320746865207A65726F2061 PUSH1 0x44 DUP3 ADD MSTORE PUSH6 0x646472657373 PUSH1 0xD0 SHL PUSH1 0x64 DUP3 ADD MSTORE PUSH1 0x84 ADD PUSH2 0x49C JUMP JUMPDEST PUSH2 0xCF1 DUP2 PUSH2 0xE1C JUMP JUMPDEST POP JUMP JUMPDEST PUSH2 0xCFC PUSH2 0xD62 JUMP JUMPDEST PUSH1 0x0 TIMESTAMP PUSH1 0x40 SLOAD PUSH1 0x42 SLOAD PUSH1 0x41 SLOAD DUP6 PUSH2 0xD12 PUSH1 0x1 SLOAD SWAP1 JUMP JUMPDEST PUSH1 0x40 DUP1 MLOAD PUSH1 0x20 DUP2 ADD SWAP8 SWAP1 SWAP8 MSTORE DUP7 ADD SWAP5 SWAP1 SWAP5 MSTORE PUSH1 0x60 DUP6 ADD SWAP3 SWAP1 SWAP3 MSTORE PUSH1 0x80 DUP5 ADD MSTORE PUSH1 0xA0 DUP4 ADD MSTORE PUSH1 0xC0 DUP3 ADD MSTORE PUSH1 0xE0 ADD PUSH1 0x40 DUP1 MLOAD PUSH1 0x1F NOT DUP2 DUP5 SUB ADD DUP2 MSTORE SWAP2 SWAP1 MSTORE DUP1 MLOAD PUSH1 0x20 SWAP1 SWAP2 ADD KECCAK256 PUSH1 0x41 DUP1 SLOAD PUSH1 0x42 SSTORE SSTORE POP POP JUMP JUMPDEST PUSH1 0x0 SLOAD PUSH1 0x1 PUSH1 0x1 PUSH1 0xA0 SHL SUB AND CALLER EQ PUSH2 0x69D JUMPI PUSH1 0x40 MLOAD PUSH3 0x461BCD PUSH1 0xE5 SHL DUP2 MSTORE PUSH1 0x20 PUSH1 0x4 DUP3 ADD DUP2 SWAP1 MSTORE PUSH1 0x24 DUP3 ADD MSTORE PUSH32 0x4F776E61626C653A2063616C6C6572206973206E6F7420746865206F776E6572 PUSH1 0x44 DUP3 ADD MSTORE PUSH1 0x64 ADD PUSH2 0x49C JUMP JUMPDEST PUSH1 0x40 DUP1 MLOAD PUSH1 0x1 PUSH1 0x1 PUSH1 0xA0 SHL SUB DUP6 DUP2 AND PUSH1 0x24 DUP4 ADD MSTORE DUP5 AND PUSH1 0x44 DUP3 ADD MSTORE PUSH1 0x64 DUP1 DUP3 ADD DUP5 SWAP1 MSTORE DUP3 MLOAD DUP1 DUP4 SUB SWAP1 SWAP2 ADD DUP2 MSTORE PUSH1 0x84 SWAP1 SWAP2 ADD SWAP1 SWAP2 MSTORE PUSH1 0x20 DUP2 ADD DUP1 MLOAD PUSH1 0x1 PUSH1 0x1 PUSH1 0xE0 SHL SUB AND PUSH4 0x23B872DD PUSH1 0xE0 SHL OR SWAP1 MSTORE PUSH2 0xE16 SWAP1 DUP6 SWAP1 PUSH2 0x13AF JUMP JUMPDEST POP POP POP POP JUMP JUMPDEST PUSH1 0x0 DUP1 SLOAD PUSH1 0x1 PUSH1 0x1 PUSH1 0xA0 SHL SUB DUP4 DUP2 AND PUSH1 0x1 PUSH1 0x1 PUSH1 0xA0 SHL SUB NOT DUP4 AND DUP2 OR DUP5 SSTORE PUSH1 0x40 MLOAD SWAP2 SWAP1 SWAP3 AND SWAP3 DUP4 SWAP2 PUSH32 0x8BE0079C531659141344CD1FD0A4F28419497F9722A3DAAFE3B4186F6B6457E0 SWAP2 SWAP1 LOG3 POP POP JUMP JUMPDEST PUSH2 0xE74 PUSH2 0x17EA JUMP JUMPDEST PUSH1 0x0 PUSH2 0xE7F DUP4 PUSH2 0x1486 JUMP JUMPDEST SWAP1 POP PUSH1 0x0 PUSH2 0xE90 PUSH3 0x186A0 DUP4 PUSH2 0x1D8C JUMP JUMPDEST PUSH2 0xE9D SWAP1 PUSH3 0x186A0 PUSH2 0x1CE3 JUMP JUMPDEST SWAP1 POP PUSH1 0x0 DUP1 PUSH1 0x0 PUSH1 0x40 MLOAD DUP1 PUSH1 0x60 ADD PUSH1 0x40 MSTORE DUP1 PUSH1 0x40 MLOAD DUP1 PUSH1 0xA0 ADD PUSH1 0x40 MSTORE DUP1 PUSH1 0x0 DUP2 MSTORE PUSH1 0x20 ADD PUSH1 0x0 DUP2 MSTORE PUSH1 0x20 ADD PUSH1 0x0 DUP2 MSTORE PUSH1 0x20 ADD PUSH1 0x0 DUP2 MSTORE PUSH1 0x20 ADD PUSH1 0x0 DUP2 MSTORE POP DUP2 MSTORE PUSH1 0x20 ADD PUSH1 0x40 MLOAD DUP1 PUSH1 0xA0 ADD PUSH1 0x40 MSTORE DUP1 PUSH1 0x3B PUSH1 0x0 PUSH1 0x5 DUP2 LT PUSH2 0xEFF JUMPI PUSH2 0xEFF PUSH2 0x1DCC JUMP JUMPDEST ADD SLOAD PUSH1 0x36 SLOAD PUSH2 0xF14 SWAP1 PUSH4 0xFFFFFFFF DUP12 AND PUSH2 0x1D8C JUMP JUMPDEST PUSH2 0xF1E SWAP2 SWAP1 PUSH2 0x1CFB JUMP JUMPDEST DUP2 MSTORE PUSH1 0x3C SLOAD PUSH1 0x37 SLOAD PUSH1 0x20 SWAP1 SWAP3 ADD SWAP2 PUSH2 0xF3C SWAP1 PUSH4 0xFFFFFFFF DUP12 AND PUSH2 0x1D8C JUMP JUMPDEST PUSH2 0xF46 SWAP2 SWAP1 PUSH2 0x1CFB JUMP JUMPDEST DUP2 MSTORE PUSH1 0x3D SLOAD PUSH1 0x38 SLOAD PUSH1 0x20 SWAP1 SWAP3 ADD SWAP2 PUSH2 0xF64 SWAP1 PUSH4 0xFFFFFFFF DUP12 AND PUSH2 0x1D8C JUMP JUMPDEST PUSH2 0xF6E SWAP2 SWAP1 PUSH2 0x1CFB JUMP JUMPDEST DUP2 MSTORE PUSH1 0x3E SLOAD PUSH1 0x39 SLOAD PUSH1 0x20 SWAP1 SWAP3 ADD SWAP2 PUSH2 0xF8C SWAP1 PUSH4 0xFFFFFFFF DUP12 AND PUSH2 0x1D8C JUMP JUMPDEST PUSH2 0xF96 SWAP2 SWAP1 PUSH2 0x1CFB JUMP JUMPDEST DUP2 MSTORE PUSH1 0x3F SLOAD PUSH1 0x3A SLOAD PUSH1 0x20 SWAP1 SWAP3 ADD SWAP2 PUSH2 0xFB4 SWAP1 PUSH4 0xFFFFFFFF DUP12 AND PUSH2 0x1D8C JUMP JUMPDEST PUSH2 0xFBE SWAP2 SWAP1 PUSH2 0x1CFB JUMP JUMPDEST DUP2 MSTORE POP DUP2 MSTORE PUSH1 0x20 ADD PUSH1 0x40 MLOAD DUP1 PUSH1 0xA0 ADD PUSH1 0x40 MSTORE DUP1 PUSH1 0x0 DUP2 MSTORE PUSH1 0x20 ADD PUSH1 0x0 DUP2 MSTORE PUSH1 0x20 ADD PUSH1 0x0 DUP2 MSTORE PUSH1 0x20 ADD PUSH1 0x0 DUP2 MSTORE PUSH1 0x20 ADD PUSH1 0x0 DUP2 MSTORE POP DUP2 MSTORE POP SWAP1 POP PUSH1 0x0 SWAP3 POP JUMPDEST PUSH1 0x2 SLOAD PUSH4 0xFFFFFFFF AND DUP4 LT ISZERO PUSH2 0x10CD JUMPI PUSH1 0x20 DUP2 ADD MLOAD DUP4 PUSH1 0x5 DUP2 LT PUSH2 0x1022 JUMPI PUSH2 0x1022 PUSH2 0x1DCC JUMP JUMPDEST PUSH1 0x20 MUL ADD MLOAD SWAP2 POP DUP2 PUSH1 0x9 EQ ISZERO PUSH2 0x1037 JUMPI PUSH1 0x0 SWAP2 POP JUMPDEST PUSH1 0x20 DUP2 ADD MLOAD DUP3 SWAP1 DUP5 PUSH1 0x5 DUP2 LT PUSH2 0x104F JUMPI PUSH2 0x104F PUSH2 0x1DCC JUMP JUMPDEST PUSH1 0x20 MUL ADD MSTORE DUP2 ISZERO PUSH2 0x106A JUMPI PUSH2 0x1065 PUSH1 0x1 DUP4 PUSH2 0x1D2E JUMP JUMPDEST PUSH2 0x106D JUMP JUMPDEST PUSH1 0x8 JUMPDEST DUP2 MLOAD DUP5 PUSH1 0x5 DUP2 LT PUSH2 0x1080 JUMPI PUSH2 0x1080 PUSH2 0x1DCC JUMP JUMPDEST PUSH1 0x20 MUL ADD MSTORE PUSH1 0x8 DUP3 EQ PUSH2 0x109D JUMPI PUSH2 0x1098 DUP3 PUSH1 0x1 PUSH2 0x1CE3 JUMP JUMPDEST PUSH2 0x10A0 JUMP JUMPDEST PUSH1 0x0 JUMPDEST PUSH1 0x40 DUP3 ADD MLOAD DUP5 PUSH1 0x5 DUP2 LT PUSH2 0x10B6 JUMPI PUSH2 0x10B6 PUSH2 0x1DCC JUMP JUMPDEST PUSH1 0x20 MUL ADD MSTORE DUP3 PUSH2 0x10C5 DUP2 PUSH2 0x1D71 JUMP JUMPDEST SWAP4 POP POP PUSH2 0xFFC JUMP JUMPDEST SWAP7 SWAP6 POP POP POP POP POP POP JUMP JUMPDEST PUSH1 0x0 DUP1 DUP1 DUP1 DUP1 DUP1 JUMPDEST PUSH1 0x5 DUP2 LT ISZERO PUSH2 0x1176 JUMPI PUSH1 0x1 DUP8 PUSH1 0x7 DUP11 DUP2 SLOAD DUP2 LT PUSH2 0x10FE JUMPI PUSH2 0x10FE PUSH2 0x1DCC JUMP JUMPDEST SWAP1 PUSH1 0x0 MSTORE PUSH1 0x20 PUSH1 0x0 KECCAK256 SWAP1 PUSH1 0x5 MUL ADD DUP4 PUSH1 0x5 DUP2 LT PUSH2 0x111D JUMPI PUSH2 0x111D PUSH2 0x1DCC JUMP JUMPDEST ADD SLOAD PUSH1 0x3 DUP2 LT PUSH2 0x112F JUMPI PUSH2 0x112F PUSH2 0x1DCC JUMP JUMPDEST PUSH1 0x20 MUL ADD MLOAD DUP3 PUSH1 0x5 DUP2 LT PUSH2 0x1145 JUMPI PUSH2 0x1145 PUSH2 0x1DCC JUMP JUMPDEST PUSH1 0x20 MUL ADD MLOAD EQ PUSH2 0x1157 JUMPI DUP1 SWAP3 POP PUSH2 0x1176 JUMP JUMPDEST DUP4 PUSH2 0x1161 DUP2 PUSH2 0x1D71 JUMP JUMPDEST SWAP5 POP POP DUP1 PUSH2 0x116E DUP2 PUSH2 0x1D71 JUMP JUMPDEST SWAP2 POP POP PUSH2 0x10DF JUMP JUMPDEST POP PUSH1 0x0 DUP4 GT DUP1 ISZERO PUSH2 0x11A5 JUMPI POP PUSH1 0x0 PUSH1 0xE PUSH2 0x1191 PUSH1 0x1 DUP7 PUSH2 0x1D2E JUMP JUMPDEST PUSH1 0x5 DUP2 LT PUSH2 0x11A1 JUMPI PUSH2 0x11A1 PUSH2 0x1DCC JUMP JUMPDEST ADD SLOAD GT JUMPDEST ISZERO PUSH2 0x11DB JUMPI PUSH1 0x0 PUSH1 0xE PUSH2 0x11B9 PUSH1 0x1 DUP7 PUSH2 0x1D2E JUMP JUMPDEST PUSH1 0x5 DUP2 LT PUSH2 0x11C9 JUMPI PUSH2 0x11C9 PUSH2 0x1DCC JUMP JUMPDEST ADD SLOAD SWAP6 POP PUSH1 0x1 SWAP5 POP PUSH2 0x139C SWAP4 POP POP POP POP JUMP JUMPDEST DUP6 PUSH1 0x7 DUP9 DUP2 SLOAD DUP2 LT PUSH2 0x11EF JUMPI PUSH2 0x11EF PUSH2 0x1DCC JUMP JUMPDEST SWAP1 PUSH1 0x0 MSTORE PUSH1 0x20 PUSH1 0x0 KECCAK256 SWAP1 PUSH1 0x5 MUL ADD DUP4 PUSH1 0x5 DUP2 LT PUSH2 0x120E JUMPI PUSH2 0x120E PUSH2 0x1DCC JUMP JUMPDEST ADD SLOAD PUSH1 0x3 DUP2 LT PUSH2 0x1220 JUMPI PUSH2 0x1220 PUSH2 0x1DCC JUMP JUMPDEST PUSH1 0x20 MUL ADD MLOAD DUP3 PUSH1 0x5 DUP2 LT PUSH2 0x1236 JUMPI PUSH2 0x1236 PUSH2 0x1DCC JUMP JUMPDEST PUSH1 0x20 MUL ADD MLOAD SWAP1 POP PUSH1 0x0 PUSH2 0x124A DUP4 PUSH1 0x1 PUSH2 0x1CE3 JUMP JUMPDEST SWAP1 POP JUMPDEST PUSH1 0x5 DUP2 LT ISZERO PUSH2 0x1350 JUMPI DUP2 DUP8 PUSH1 0x7 DUP11 DUP2 SLOAD DUP2 LT PUSH2 0x126B JUMPI PUSH2 0x126B PUSH2 0x1DCC JUMP JUMPDEST SWAP1 PUSH1 0x0 MSTORE PUSH1 0x20 PUSH1 0x0 KECCAK256 SWAP1 PUSH1 0x5 MUL ADD DUP4 PUSH1 0x5 DUP2 LT PUSH2 0x128A JUMPI PUSH2 0x128A PUSH2 0x1DCC JUMP JUMPDEST ADD SLOAD PUSH1 0x3 DUP2 LT PUSH2 0x129C JUMPI PUSH2 0x129C PUSH2 0x1DCC JUMP JUMPDEST PUSH1 0x20 MUL ADD MLOAD DUP3 PUSH1 0x5 DUP2 LT PUSH2 0x12B2 JUMPI PUSH2 0x12B2 PUSH2 0x1DCC JUMP JUMPDEST PUSH1 0x20 MUL ADD MLOAD EQ DUP1 PUSH2 0x1322 JUMPI POP PUSH1 0x1 DUP8 PUSH1 0x7 DUP11 DUP2 SLOAD DUP2 LT PUSH2 0x12D4 JUMPI PUSH2 0x12D4 PUSH2 0x1DCC JUMP JUMPDEST SWAP1 PUSH1 0x0 MSTORE PUSH1 0x20 PUSH1 0x0 KECCAK256 SWAP1 PUSH1 0x5 MUL ADD DUP4 PUSH1 0x5 DUP2 LT PUSH2 0x12F3 JUMPI PUSH2 0x12F3 PUSH2 0x1DCC JUMP JUMPDEST ADD SLOAD PUSH1 0x3 DUP2 LT PUSH2 0x1305 JUMPI PUSH2 0x1305 PUSH2 0x1DCC JUMP JUMPDEST PUSH1 0x20 MUL ADD MLOAD DUP3 PUSH1 0x5 DUP2 LT PUSH2 0x131B JUMPI PUSH2 0x131B PUSH2 0x1DCC JUMP JUMPDEST PUSH1 0x20 MUL ADD MLOAD EQ JUMPDEST ISZERO PUSH2 0x1339 JUMPI DUP4 PUSH2 0x1331 DUP2 PUSH2 0x1D71 JUMP JUMPDEST SWAP5 POP POP PUSH2 0x133E JUMP JUMPDEST PUSH2 0x1350 JUMP JUMPDEST DUP1 PUSH2 0x1348 DUP2 PUSH2 0x1D71 JUMP JUMPDEST SWAP2 POP POP PUSH2 0x124D JUMP JUMPDEST POP DUP3 ISZERO PUSH2 0x1391 JUMPI PUSH1 0x0 PUSH1 0x9 DUP3 PUSH1 0x9 DUP2 LT PUSH2 0x136C JUMPI PUSH2 0x136C PUSH2 0x1DCC JUMP JUMPDEST PUSH1 0x5 MUL ADD DUP5 PUSH1 0x5 DUP2 LT PUSH2 0x1381 JUMPI PUSH2 0x1381 PUSH2 0x1DCC JUMP JUMPDEST ADD SLOAD SWAP6 POP SWAP1 SWAP4 POP PUSH2 0x139C SWAP3 POP POP POP JUMP JUMPDEST PUSH1 0x0 DUP1 SWAP5 POP SWAP5 POP POP POP POP JUMPDEST SWAP3 POP SWAP3 SWAP1 POP JUMP JUMPDEST PUSH1 0x0 PUSH2 0xC74 DUP3 DUP5 PUSH2 0x1CFB JUMP JUMPDEST PUSH1 0x0 PUSH2 0x1404 DUP3 PUSH1 0x40 MLOAD DUP1 PUSH1 0x40 ADD PUSH1 0x40 MSTORE DUP1 PUSH1 0x20 DUP2 MSTORE PUSH1 0x20 ADD PUSH32 0x5361666545524332303A206C6F772D6C6576656C2063616C6C206661696C6564 DUP2 MSTORE POP DUP6 PUSH1 0x1 PUSH1 0x1 PUSH1 0xA0 SHL SUB AND PUSH2 0x1541 SWAP1 SWAP3 SWAP2 SWAP1 PUSH4 0xFFFFFFFF AND JUMP JUMPDEST DUP1 MLOAD SWAP1 SWAP2 POP ISZERO PUSH2 0x1481 JUMPI DUP1 DUP1 PUSH1 0x20 ADD SWAP1 MLOAD DUP2 ADD SWAP1 PUSH2 0x1422 SWAP2 SWAP1 PUSH2 0x1A9F JUMP JUMPDEST PUSH2 0x1481 JUMPI PUSH1 0x40 MLOAD PUSH3 0x461BCD PUSH1 0xE5 SHL DUP2 MSTORE PUSH1 0x20 PUSH1 0x4 DUP3 ADD MSTORE PUSH1 0x2A PUSH1 0x24 DUP3 ADD MSTORE PUSH32 0x5361666545524332303A204552433230206F7065726174696F6E20646964206E PUSH1 0x44 DUP3 ADD MSTORE PUSH10 0x1BDD081CDD58D8D95959 PUSH1 0xB2 SHL PUSH1 0x64 DUP3 ADD MSTORE PUSH1 0x84 ADD PUSH2 0x49C JUMP JUMPDEST POP POP POP JUMP JUMPDEST PUSH1 0x0 DUP1 TIMESTAMP DUP4 PUSH1 0x40 SLOAD PUSH1 0x41 SLOAD PUSH1 0x42 SLOAD NUMBER BLOCKHASH COINBASE DIFFICULTY GASLIMIT GASPRICE CALLER GAS PUSH1 0x1 SLOAD PUSH1 0x40 DUP1 MLOAD PUSH1 0x20 DUP2 ADD SWAP15 SWAP1 SWAP15 MSTORE DUP14 ADD SWAP12 SWAP1 SWAP12 MSTORE PUSH1 0x60 DUP1 DUP14 ADD SWAP11 SWAP1 SWAP11 MSTORE PUSH1 0x80 DUP13 ADD SWAP9 SWAP1 SWAP9 MSTORE PUSH1 0xA0 DUP12 ADD SWAP7 SWAP1 SWAP7 MSTORE PUSH1 0xC0 DUP11 ADD SWAP5 SWAP1 SWAP5 MSTORE PUSH12 0xFFFFFFFFFFFFFFFFFFFFFFFF NOT SWAP3 DUP8 SHL DUP4 AND PUSH1 0xE0 DUP11 ADD MSTORE PUSH1 0xF4 DUP10 ADD SWAP2 SWAP1 SWAP2 MSTORE PUSH2 0x114 DUP9 ADD MSTORE PUSH2 0x134 DUP8 ADD SWAP2 SWAP1 SWAP2 MSTORE SWAP3 SHL SWAP1 SWAP2 AND PUSH2 0x154 DUP5 ADD MSTORE PUSH2 0x168 DUP4 ADD MSTORE PUSH2 0x188 DUP3 ADD MSTORE PUSH2 0x1A8 ADD PUSH1 0x40 DUP1 MLOAD PUSH1 0x1F NOT DUP2 DUP5 SUB ADD DUP2 MSTORE SWAP2 DUP2 MSTORE DUP2 MLOAD PUSH1 0x20 SWAP1 SWAP3 ADD SWAP2 SWAP1 SWAP2 KECCAK256 SWAP4 SWAP1 SSTORE POP SWAP1 SWAP2 SWAP1 POP JUMP JUMPDEST PUSH1 0x60 PUSH2 0x1550 DUP5 DUP5 PUSH1 0x0 DUP6 PUSH2 0x1558 JUMP JUMPDEST SWAP5 SWAP4 POP POP POP POP JUMP JUMPDEST PUSH1 0x60 DUP3 SELFBALANCE LT ISZERO PUSH2 0x15B9 JUMPI PUSH1 0x40 MLOAD PUSH3 0x461BCD PUSH1 0xE5 SHL DUP2 MSTORE PUSH1 0x20 PUSH1 0x4 DUP3 ADD MSTORE PUSH1 0x26 PUSH1 0x24 DUP3 ADD MSTORE PUSH32 0x416464726573733A20696E73756666696369656E742062616C616E636520666F PUSH1 0x44 DUP3 ADD MSTORE PUSH6 0x1C8818D85B1B PUSH1 0xD2 SHL PUSH1 0x64 DUP3 ADD MSTORE PUSH1 0x84 ADD PUSH2 0x49C JUMP JUMPDEST PUSH1 0x0 DUP1 DUP7 PUSH1 0x1 PUSH1 0x1 PUSH1 0xA0 SHL SUB AND DUP6 DUP8 PUSH1 0x40 MLOAD PUSH2 0x15D5 SWAP2 SWAP1 PUSH2 0x1B65 JUMP JUMPDEST PUSH1 0x0 PUSH1 0x40 MLOAD DUP1 DUP4 SUB DUP2 DUP6 DUP8 GAS CALL SWAP3 POP POP POP RETURNDATASIZE DUP1 PUSH1 0x0 DUP2 EQ PUSH2 0x1612 JUMPI PUSH1 0x40 MLOAD SWAP2 POP PUSH1 0x1F NOT PUSH1 0x3F RETURNDATASIZE ADD AND DUP3 ADD PUSH1 0x40 MSTORE RETURNDATASIZE DUP3 MSTORE RETURNDATASIZE PUSH1 0x0 PUSH1 0x20 DUP5 ADD RETURNDATACOPY PUSH2 0x1617 JUMP JUMPDEST PUSH1 0x60 SWAP2 POP JUMPDEST POP SWAP2 POP SWAP2 POP PUSH2 0x1628 DUP8 DUP4 DUP4 DUP8 PUSH2 0x1633 JUMP JUMPDEST SWAP8 SWAP7 POP POP POP POP POP POP POP JUMP JUMPDEST PUSH1 0x60 DUP4 ISZERO PUSH2 0x169F JUMPI DUP3 MLOAD PUSH2 0x1698 JUMPI PUSH1 0x1 PUSH1 0x1 PUSH1 0xA0 SHL SUB DUP6 AND EXTCODESIZE PUSH2 0x1698 JUMPI PUSH1 0x40 MLOAD PUSH3 0x461BCD PUSH1 0xE5 SHL DUP2 MSTORE PUSH1 0x20 PUSH1 0x4 DUP3 ADD MSTORE PUSH1 0x1D PUSH1 0x24 DUP3 ADD MSTORE PUSH32 0x416464726573733A2063616C6C20746F206E6F6E2D636F6E7472616374000000 PUSH1 0x44 DUP3 ADD MSTORE PUSH1 0x64 ADD PUSH2 0x49C JUMP JUMPDEST POP DUP2 PUSH2 0x1550 JUMP JUMPDEST PUSH2 0x1550 DUP4 DUP4 DUP2 MLOAD ISZERO PUSH2 0x16B4 JUMPI DUP2 MLOAD DUP1 DUP4 PUSH1 0x20 ADD REVERT JUMPDEST DUP1 PUSH1 0x40 MLOAD PUSH3 0x461BCD PUSH1 0xE5 SHL DUP2 MSTORE PUSH1 0x4 ADD PUSH2 0x49C SWAP2 SWAP1 PUSH2 0x1C7F JUMP JUMPDEST DUP3 DUP1 SLOAD DUP3 DUP3 SSTORE SWAP1 PUSH1 0x0 MSTORE PUSH1 0x20 PUSH1 0x0 KECCAK256 SWAP1 PUSH1 0x5 MUL DUP2 ADD SWAP3 DUP3 ISZERO PUSH2 0x1718 JUMPI SWAP2 PUSH1 0x20 MUL DUP3 ADD JUMPDEST DUP3 DUP2 GT ISZERO PUSH2 0x1718 JUMPI DUP3 MLOAD PUSH2 0x1708 SWAP1 DUP4 SWAP1 PUSH1 0x5 PUSH2 0x1782 JUMP JUMPDEST POP SWAP2 PUSH1 0x20 ADD SWAP2 SWAP1 PUSH1 0x5 ADD SWAP1 PUSH2 0x16F1 JUMP JUMPDEST POP PUSH2 0x1724 SWAP3 SWAP2 POP PUSH2 0x1817 JUMP JUMPDEST POP SWAP1 JUMP JUMPDEST PUSH1 0x2D DUP4 ADD SWAP2 DUP4 SWAP1 DUP3 ISZERO PUSH2 0x1718 JUMPI SWAP2 PUSH1 0x20 MUL DUP3 ADD JUMPDEST DUP3 DUP2 GT ISZERO PUSH2 0x1718 JUMPI DUP3 MLOAD PUSH2 0x1753 SWAP1 DUP4 SWAP1 PUSH1 0x5 PUSH2 0x1782 JUMP JUMPDEST POP SWAP2 PUSH1 0x20 ADD SWAP2 SWAP1 PUSH1 0x5 ADD SWAP1 PUSH2 0x173C JUMP JUMPDEST PUSH1 0x40 MLOAD DUP1 PUSH2 0x280 ADD PUSH1 0x40 MSTORE DUP1 PUSH1 0x14 SWAP1 PUSH1 0x20 DUP3 MUL DUP1 CALLDATASIZE DUP4 CALLDATACOPY POP SWAP2 SWAP3 SWAP2 POP POP JUMP JUMPDEST DUP3 PUSH1 0x5 DUP2 ADD SWAP3 DUP3 ISZERO PUSH2 0x17B0 JUMPI SWAP2 PUSH1 0x20 MUL DUP3 ADD JUMPDEST DUP3 DUP2 GT ISZERO PUSH2 0x17B0 JUMPI DUP3 MLOAD DUP3 SSTORE SWAP2 PUSH1 0x20 ADD SWAP2 SWAP1 PUSH1 0x1 ADD SWAP1 PUSH2 0x1795 JUMP JUMPDEST POP PUSH2 0x1724 SWAP3 SWAP2 POP PUSH2 0x1846 JUMP JUMPDEST PUSH1 0x40 MLOAD DUP1 PUSH2 0x120 ADD PUSH1 0x40 MSTORE DUP1 PUSH1 0x9 SWAP1 JUMPDEST PUSH2 0x17D4 PUSH2 0x185B JUMP JUMPDEST DUP2 MSTORE PUSH1 0x20 ADD SWAP1 PUSH1 0x1 SWAP1 SUB SWAP1 DUP2 PUSH2 0x17CC JUMPI SWAP1 POP POP SWAP1 JUMP JUMPDEST PUSH1 0x40 MLOAD DUP1 PUSH1 0x60 ADD PUSH1 0x40 MSTORE DUP1 PUSH1 0x3 SWAP1 JUMPDEST PUSH2 0x1801 PUSH2 0x185B JUMP JUMPDEST DUP2 MSTORE PUSH1 0x20 ADD SWAP1 PUSH1 0x1 SWAP1 SUB SWAP1 DUP2 PUSH2 0x17F9 JUMPI SWAP1 POP POP SWAP1 JUMP JUMPDEST DUP1 DUP3 GT ISZERO PUSH2 0x1724 JUMPI PUSH1 0x0 DUP1 DUP3 SSTORE PUSH1 0x1 DUP3 ADD DUP2 SWAP1 SSTORE PUSH1 0x2 DUP3 ADD DUP2 SWAP1 SSTORE PUSH1 0x3 DUP3 ADD DUP2 SWAP1 SSTORE PUSH1 0x4 DUP3 ADD SSTORE PUSH1 0x5 ADD PUSH2 0x1817 JUMP JUMPDEST JUMPDEST DUP1 DUP3 GT ISZERO PUSH2 0x1724 JUMPI PUSH1 0x0 DUP2 SSTORE PUSH1 0x1 ADD PUSH2 0x1847 JUMP JUMPDEST PUSH1 0x40 MLOAD DUP1 PUSH1 0xA0 ADD PUSH1 0x40 MSTORE DUP1 PUSH1 0x5 SWAP1 PUSH1 0x20 DUP3 MUL DUP1 CALLDATASIZE DUP4 CALLDATACOPY POP SWAP2 SWAP3 SWAP2 POP POP JUMP JUMPDEST DUP1 CALLDATALOAD PUSH1 0x1 PUSH1 0x1 PUSH1 0xA0 SHL SUB DUP2 AND DUP2 EQ PUSH2 0x1890 JUMPI PUSH1 0x0 DUP1 REVERT JUMPDEST SWAP2 SWAP1 POP JUMP JUMPDEST PUSH1 0x0 DUP3 PUSH1 0x1F DUP4 ADD SLT PUSH2 0x18A6 JUMPI PUSH1 0x0 DUP1 REVERT JUMPDEST PUSH1 0x40 MLOAD PUSH1 0xA0 DUP2 ADD DUP2 DUP2 LT PUSH8 0xFFFFFFFFFFFFFFFF DUP3 GT OR ISZERO PUSH2 0x18C9 JUMPI PUSH2 0x18C9 PUSH2 0x1DE2 JUMP JUMPDEST PUSH1 0x40 MSTORE DUP1 DUP4 PUSH1 0xA0 DUP2 ADD DUP7 LT ISZERO PUSH2 0x18DE JUMPI PUSH1 0x0 DUP1 REVERT JUMPDEST PUSH1 0x0 JUMPDEST PUSH1 0x5 DUP2 LT ISZERO PUSH2 0x1900 JUMPI DUP2 CALLDATALOAD DUP4 MSTORE PUSH1 0x20 SWAP3 DUP4 ADD SWAP3 SWAP1 SWAP2 ADD SWAP1 PUSH1 0x1 ADD PUSH2 0x18E1 JUMP JUMPDEST POP SWAP2 SWAP6 SWAP5 POP POP POP POP POP JUMP JUMPDEST PUSH1 0x0 PUSH1 0x20 DUP3 DUP5 SUB SLT ISZERO PUSH2 0x191D JUMPI PUSH1 0x0 DUP1 REVERT JUMPDEST PUSH2 0xC74 DUP3 PUSH2 0x1879 JUMP JUMPDEST PUSH1 0x0 DUP1 PUSH1 0x40 DUP4 DUP6 SUB SLT ISZERO PUSH2 0x1939 JUMPI PUSH1 0x0 DUP1 REVERT JUMPDEST PUSH2 0x1942 DUP4 PUSH2 0x1879 JUMP JUMPDEST SWAP5 PUSH1 0x20 SWAP4 SWAP1 SWAP4 ADD CALLDATALOAD SWAP4 POP POP POP JUMP JUMPDEST PUSH1 0x0 PUSH2 0x5A0 DUP1 DUP4 DUP6 SUB SLT ISZERO PUSH2 0x1964 JUMPI PUSH1 0x0 DUP1 REVERT JUMPDEST DUP4 PUSH1 0x1F DUP5 ADD SLT PUSH2 0x1973 JUMPI PUSH1 0x0 DUP1 REVERT JUMPDEST PUSH1 0x40 MLOAD PUSH2 0x120 DUP2 ADD DUP2 DUP2 LT PUSH8 0xFFFFFFFFFFFFFFFF DUP3 GT OR ISZERO PUSH2 0x1997 JUMPI PUSH2 0x1997 PUSH2 0x1DE2 JUMP JUMPDEST PUSH1 0x40 MSTORE DUP1 DUP5 DUP4 DUP2 ADD DUP8 LT ISZERO PUSH2 0x19AB JUMPI PUSH1 0x0 DUP1 REVERT JUMPDEST PUSH1 0x0 SWAP4 POP JUMPDEST PUSH1 0x9 DUP5 LT ISZERO PUSH2 0x19DA JUMPI PUSH2 0x19C3 DUP8 DUP3 PUSH2 0x1895 JUMP JUMPDEST DUP3 MSTORE PUSH1 0x1 SWAP4 SWAP1 SWAP4 ADD SWAP3 PUSH1 0x20 SWAP1 SWAP2 ADD SWAP1 PUSH1 0xA0 ADD PUSH2 0x19B0 JUMP JUMPDEST POP SWAP1 SWAP6 SWAP5 POP POP POP POP POP JUMP JUMPDEST PUSH1 0x0 PUSH1 0x20 DUP1 DUP4 DUP6 SUB SLT ISZERO PUSH2 0x19F8 JUMPI PUSH1 0x0 DUP1 REVERT JUMPDEST DUP3 CALLDATALOAD PUSH8 0xFFFFFFFFFFFFFFFF DUP1 DUP3 GT ISZERO PUSH2 0x1A10 JUMPI PUSH1 0x0 DUP1 REVERT JUMPDEST DUP2 DUP6 ADD SWAP2 POP DUP6 PUSH1 0x1F DUP4 ADD SLT PUSH2 0x1A24 JUMPI PUSH1 0x0 DUP1 REVERT JUMPDEST DUP2 CALLDATALOAD DUP2 DUP2 GT ISZERO PUSH2 0x1A36 JUMPI PUSH2 0x1A36 PUSH2 0x1DE2 JUMP JUMPDEST PUSH2 0x1A44 DUP5 DUP3 PUSH1 0x5 SHL ADD PUSH2 0x1CB2 JUMP JUMPDEST DUP2 DUP2 MSTORE DUP5 DUP2 ADD SWAP3 POP DUP4 DUP6 ADD PUSH1 0xA0 DUP1 DUP5 MUL DUP7 ADD DUP8 ADD DUP11 LT ISZERO PUSH2 0x1A64 JUMPI PUSH1 0x0 DUP1 REVERT JUMPDEST PUSH1 0x0 SWAP6 POP JUMPDEST DUP4 DUP7 LT ISZERO PUSH2 0x1A91 JUMPI PUSH2 0x1A7B DUP11 DUP4 PUSH2 0x1895 JUMP JUMPDEST DUP6 MSTORE PUSH1 0x1 SWAP6 SWAP1 SWAP6 ADD SWAP5 SWAP4 DUP7 ADD SWAP4 SWAP1 DUP2 ADD SWAP1 PUSH2 0x1A69 JUMP JUMPDEST POP SWAP1 SWAP9 SWAP8 POP POP POP POP POP POP POP POP JUMP JUMPDEST PUSH1 0x0 PUSH1 0x20 DUP3 DUP5 SUB SLT ISZERO PUSH2 0x1AB1 JUMPI PUSH1 0x0 DUP1 REVERT JUMPDEST DUP2 MLOAD DUP1 ISZERO ISZERO DUP2 EQ PUSH2 0xC74 JUMPI PUSH1 0x0 DUP1 REVERT JUMPDEST PUSH1 0x0 PUSH1 0x20 DUP3 DUP5 SUB SLT ISZERO PUSH2 0x1AD3 JUMPI PUSH1 0x0 DUP1 REVERT JUMPDEST POP CALLDATALOAD SWAP2 SWAP1 POP JUMP JUMPDEST PUSH1 0x0 PUSH1 0x20 DUP3 DUP5 SUB SLT ISZERO PUSH2 0x1AEC JUMPI PUSH1 0x0 DUP1 REVERT JUMPDEST POP MLOAD SWAP2 SWAP1 POP JUMP JUMPDEST PUSH1 0x0 DUP1 PUSH1 0x0 PUSH1 0x60 DUP5 DUP7 SUB SLT ISZERO PUSH2 0x1B08 JUMPI PUSH1 0x0 DUP1 REVERT JUMPDEST POP POP DUP2 CALLDATALOAD SWAP4 PUSH1 0x20 DUP4 ADD CALLDATALOAD SWAP4 POP PUSH1 0x40 SWAP1 SWAP3 ADD CALLDATALOAD SWAP2 SWAP1 POP JUMP JUMPDEST DUP1 PUSH1 0x0 JUMPDEST PUSH1 0x14 DUP2 LT ISZERO PUSH2 0xE16 JUMPI DUP2 MLOAD DUP5 MSTORE PUSH1 0x20 SWAP4 DUP5 ADD SWAP4 SWAP1 SWAP2 ADD SWAP1 PUSH1 0x1 ADD PUSH2 0x1B23 JUMP JUMPDEST DUP1 PUSH1 0x0 JUMPDEST PUSH1 0x5 DUP2 LT ISZERO PUSH2 0xE16 JUMPI DUP2 MLOAD DUP5 MSTORE PUSH1 0x20 SWAP4 DUP5 ADD SWAP4 SWAP1 SWAP2 ADD SWAP1 PUSH1 0x1 ADD PUSH2 0x1B46 JUMP JUMPDEST PUSH1 0x0 DUP3 MLOAD PUSH2 0x1B77 DUP2 DUP5 PUSH1 0x20 DUP8 ADD PUSH2 0x1D45 JUMP JUMPDEST SWAP2 SWAP1 SWAP2 ADD SWAP3 SWAP2 POP POP JUMP JUMPDEST PUSH1 0x1 PUSH1 0x1 PUSH1 0xA0 SHL SUB DUP12 AND DUP2 MSTORE PUSH1 0x20 DUP2 ADD DUP11 SWAP1 MSTORE PUSH1 0x40 DUP2 ADD DUP10 SWAP1 MSTORE PUSH1 0x60 DUP2 ADD DUP9 SWAP1 MSTORE PUSH2 0x680 DUP2 ADD PUSH2 0x1BB4 PUSH1 0x80 DUP4 ADD DUP10 PUSH2 0x1B42 JUMP JUMPDEST PUSH2 0x1BC2 PUSH2 0x120 DUP4 ADD DUP9 PUSH2 0x1B1F JUMP JUMPDEST PUSH2 0x1BD0 PUSH2 0x3A0 DUP4 ADD DUP8 PUSH2 0x1B1F JUMP JUMPDEST DUP5 PUSH2 0x620 DUP4 ADD MSTORE DUP4 PUSH2 0x640 DUP4 ADD MSTORE DUP3 PUSH2 0x660 DUP4 ADD MSTORE SWAP12 SWAP11 POP POP POP POP POP POP POP POP POP POP POP JUMP JUMPDEST PUSH2 0x5A0 DUP2 ADD DUP2 DUP4 PUSH1 0x0 JUMPDEST PUSH1 0x9 DUP2 LT ISZERO PUSH2 0x1C28 JUMPI PUSH2 0x1C12 DUP4 DUP4 MLOAD PUSH2 0x1B42 JUMP JUMPDEST PUSH1 0xA0 SWAP3 SWAP1 SWAP3 ADD SWAP2 PUSH1 0x20 SWAP2 SWAP1 SWAP2 ADD SWAP1 PUSH1 0x1 ADD PUSH2 0x1BFE JUMP JUMPDEST POP POP POP SWAP3 SWAP2 POP POP JUMP JUMPDEST PUSH1 0x20 DUP1 DUP3 MSTORE DUP3 MLOAD DUP3 DUP3 ADD DUP2 SWAP1 MSTORE PUSH1 0x0 SWAP2 SWAP1 DUP5 DUP3 ADD SWAP1 PUSH1 0x40 DUP6 ADD SWAP1 DUP5 JUMPDEST DUP2 DUP2 LT ISZERO PUSH2 0x1C73 JUMPI PUSH2 0x1C60 DUP4 DUP6 MLOAD PUSH2 0x1B42 JUMP JUMPDEST SWAP3 DUP5 ADD SWAP3 PUSH1 0xA0 SWAP3 SWAP1 SWAP3 ADD SWAP2 PUSH1 0x1 ADD PUSH2 0x1C4D JUMP JUMPDEST POP SWAP1 SWAP7 SWAP6 POP POP POP POP POP POP JUMP JUMPDEST PUSH1 0x20 DUP2 MSTORE PUSH1 0x0 DUP3 MLOAD DUP1 PUSH1 0x20 DUP5 ADD MSTORE PUSH2 0x1C9E DUP2 PUSH1 0x40 DUP6 ADD PUSH1 0x20 DUP8 ADD PUSH2 0x1D45 JUMP JUMPDEST PUSH1 0x1F ADD PUSH1 0x1F NOT AND SWAP2 SWAP1 SWAP2 ADD PUSH1 0x40 ADD SWAP3 SWAP2 POP POP JUMP JUMPDEST PUSH1 0x40 MLOAD PUSH1 0x1F DUP3 ADD PUSH1 0x1F NOT AND DUP2 ADD PUSH8 0xFFFFFFFFFFFFFFFF DUP2 GT DUP3 DUP3 LT OR ISZERO PUSH2 0x1CDB JUMPI PUSH2 0x1CDB PUSH2 0x1DE2 JUMP JUMPDEST PUSH1 0x40 MSTORE SWAP2 SWAP1 POP JUMP JUMPDEST PUSH1 0x0 DUP3 NOT DUP3 GT ISZERO PUSH2 0x1CF6 JUMPI PUSH2 0x1CF6 PUSH2 0x1DA0 JUMP JUMPDEST POP ADD SWAP1 JUMP JUMPDEST PUSH1 0x0 DUP3 PUSH2 0x1D0A JUMPI PUSH2 0x1D0A PUSH2 0x1DB6 JUMP JUMPDEST POP DIV SWAP1 JUMP JUMPDEST PUSH1 0x0 DUP2 PUSH1 0x0 NOT DIV DUP4 GT DUP3 ISZERO ISZERO AND ISZERO PUSH2 0x1D29 JUMPI PUSH2 0x1D29 PUSH2 0x1DA0 JUMP JUMPDEST POP MUL SWAP1 JUMP JUMPDEST PUSH1 0x0 DUP3 DUP3 LT ISZERO PUSH2 0x1D40 JUMPI PUSH2 0x1D40 PUSH2 0x1DA0 JUMP JUMPDEST POP SUB SWAP1 JUMP JUMPDEST PUSH1 0x0 JUMPDEST DUP4 DUP2 LT ISZERO PUSH2 0x1D60 JUMPI DUP2 DUP2 ADD MLOAD DUP4 DUP3 ADD MSTORE PUSH1 0x20 ADD PUSH2 0x1D48 JUMP JUMPDEST DUP4 DUP2 GT ISZERO PUSH2 0xE16 JUMPI POP POP PUSH1 0x0 SWAP2 ADD MSTORE JUMP JUMPDEST PUSH1 0x0 PUSH1 0x0 NOT DUP3 EQ ISZERO PUSH2 0x1D85 JUMPI PUSH2 0x1D85 PUSH2 0x1DA0 JUMP JUMPDEST POP PUSH1 0x1 ADD SWAP1 JUMP JUMPDEST PUSH1 0x0 DUP3 PUSH2 0x1D9B JUMPI PUSH2 0x1D9B PUSH2 0x1DB6 JUMP JUMPDEST POP MOD SWAP1 JUMP JUMPDEST PUSH4 0x4E487B71 PUSH1 0xE0 SHL PUSH1 0x0 MSTORE PUSH1 0x11 PUSH1 0x4 MSTORE PUSH1 0x24 PUSH1 0x0 REVERT JUMPDEST PUSH4 0x4E487B71 PUSH1 0xE0 SHL PUSH1 0x0 MSTORE PUSH1 0x12 PUSH1 0x4 MSTORE PUSH1 0x24 PUSH1 0x0 REVERT JUMPDEST PUSH4 0x4E487B71 PUSH1 0xE0 SHL PUSH1 0x0 MSTORE PUSH1 0x32 PUSH1 0x4 MSTORE PUSH1 0x24 PUSH1 0x0 REVERT JUMPDEST PUSH4 0x4E487B71 PUSH1 0xE0 SHL PUSH1 0x0 MSTORE PUSH1 0x41 PUSH1 0x4 MSTORE PUSH1 0x24 PUSH1 0x0 REVERT INVALID LOG2 PUSH5 0x6970667358 0x22 SLT KECCAK256 SMOD 0xCD 0xEF PUSH7 0x8757F79AD45FF GT 0xB8 DUP10 SWAP9 PUSH28 0x5F26B5202BA9E5A6B17667E511AB62E964736F6C6343000807003300 "
		},
		"gasEstimates": {
			"creation": {
				"codeDepositCost": "1545200",
				"executionCost": "infinite",
				"totalCost": "infinite"
			},
			"external": {
				"addUserBalance(uint256)": "24635",
				"buyTokens(uint256)": "infinite",
				"currency()": "2403",
				"doSpin(uint256,uint256,bytes32)": "infinite",
				"flushRandom(bytes32)": "57526",
				"getBankInTokens()": "infinite",
				"getCurrency()": "2365",
				"getMultiplers()": "infinite",
				"getTokenPrice()": "2304",
				"getUserBalance()": "2382",
				"getWinLines()": "infinite",
				"owner()": "2420",
				"playerSpins(address,uint256)": "15470",
				"renounceOwnership()": "infinite",
				"setCurrency(address)": "26803",
				"setMultiplers(uint256[5][9])": "infinite",
				"setTokenPrice(uint256)": "24555",
				"setWinLines(uint256[5][])": "infinite",
				"tokenPrice()": "2318",
				"transferOwnership(address)": "28443",
				"withdrawTokens()": "infinite"
			},
			"internal": {
				"checkLine(uint256,uint256[5] memory[3] memory)": "infinite",
				"getAllowance(address)": "infinite",
				"getRandom(bytes32,uint256)": "infinite",
				"getRandomBase(bytes32)": "infinite",
				"getWinLine(uint32)": "infinite",
				"spinReels(bytes32)": "infinite"
			}
		},
		"methodIdentifiers": {
			"addUserBalance(uint256)": "22526328",
			"buyTokens(uint256)": "3610724e",
			"currency()": "e5a6b10f",
			"doSpin(uint256,uint256,bytes32)": "a3e2e8ce",
			"flushRandom(bytes32)": "f7e944ee",
			"getBankInTokens()": "e9a4a03d",
			"getCurrency()": "6945c1fd",
			"getMultiplers()": "d3f0a7ce",
			"getTokenPrice()": "4b94f50e",
			"getUserBalance()": "b7013dc1",
			"getWinLines()": "4282cf54",
			"owner()": "8da5cb5b",
			"playerSpins(address,uint256)": "17adaa03",
			"renounceOwnership()": "715018a6",
			"setCurrency(address)": "2f84c391",
			"setMultiplers(uint256[5][9])": "81b87e54",
			"setTokenPrice(uint256)": "6a61e5fc",
			"setWinLines(uint256[5][])": "6f43022c",
			"tokenPrice()": "7ff9b596",
			"transferOwnership(address)": "f2fde38b",
			"withdrawTokens()": "8d8f2adb"
		}
	},
	"abi": [
		{
			"inputs": [
				{
					"internalType": "address",
					"name": "_currency",
					"type": "address"
				},
				{
					"internalType": "uint256",
					"name": "_tokenPrice",
					"type": "uint256"
				}
			],
			"stateMutability": "nonpayable",
			"type": "constructor"
		},
		{
			"anonymous": false,
			"inputs": [
				{
					"indexed": false,
					"internalType": "string",
					"name": "desc",
					"type": "string"
				},
				{
					"indexed": false,
					"internalType": "uint256[5]",
					"name": "value",
					"type": "uint256[5]"
				}
			],
			"name": "LogLine",
			"type": "event"
		},
		{
			"anonymous": false,
			"inputs": [
				{
					"indexed": false,
					"internalType": "string",
					"name": "desc",
					"type": "string"
				},
				{
					"indexed": false,
					"internalType": "uint256[5][3]",
					"name": "value",
					"type": "uint256[5][3]"
				}
			],
			"name": "LogSlots",
			"type": "event"
		},
		{
			"anonymous": false,
			"inputs": [
				{
					"indexed": false,
					"internalType": "string",
					"name": "message",
					"type": "string"
				}
			],
			"name": "LogString",
			"type": "event"
		},
		{
			"anonymous": false,
			"inputs": [
				{
					"indexed": false,
					"internalType": "string",
					"name": "desc",
					"type": "string"
				},
				{
					"indexed": false,
					"internalType": "uint256",
					"name": "value",
					"type": "uint256"
				}
			],
			"name": "LogUint256",
			"type": "event"
		},
		{
			"anonymous": false,
			"inputs": [
				{
					"indexed": false,
					"internalType": "string",
					"name": "desc",
					"type": "string"
				},
				{
					"indexed": false,
					"internalType": "uint256[]",
					"name": "value",
					"type": "uint256[]"
				}
			],
			"name": "LogUint256Array",
			"type": "event"
		},
		{
			"anonymous": false,
			"inputs": [
				{
					"indexed": true,
					"internalType": "address",
					"name": "previousOwner",
					"type": "address"
				},
				{
					"indexed": true,
					"internalType": "address",
					"name": "newOwner",
					"type": "address"
				}
			],
			"name": "OwnershipTransferred",
			"type": "event"
		},
		{
			"anonymous": false,
			"inputs": [
				{
					"indexed": false,
					"internalType": "address",
					"name": "user",
					"type": "address"
				},
				{
					"indexed": false,
					"internalType": "uint256",
					"name": "bet",
					"type": "uint256"
				},
				{
					"indexed": false,
					"internalType": "uint256",
					"name": "lines",
					"type": "uint256"
				},
				{
					"indexed": false,
					"internalType": "uint256",
					"name": "winAmount",
					"type": "uint256"
				},
				{
					"indexed": false,
					"internalType": "uint256[5]",
					"name": "slots",
					"type": "uint256[5]"
				},
				{
					"indexed": false,
					"internalType": "uint256[20]",
					"name": "spinWinLines",
					"type": "uint256[20]"
				},
				{
					"indexed": false,
					"internalType": "uint256[20]",
					"name": "spinWinSlots",
					"type": "uint256[20]"
				},
				{
					"indexed": false,
					"internalType": "uint256",
					"name": "maxLine",
					"type": "uint256"
				},
				{
					"indexed": false,
					"internalType": "uint256",
					"name": "maxLineWin",
					"type": "uint256"
				},
				{
					"indexed": false,
					"internalType": "uint256",
					"name": "maxWinSlot",
					"type": "uint256"
				}
			],
			"name": "ReelsSpinned",
			"type": "event"
		},
		{
			"inputs": [
				{
					"internalType": "uint256",
					"name": "bets",
					"type": "uint256"
				}
			],
			"name": "addUserBalance",
			"outputs": [],
			"stateMutability": "nonpayable",
			"type": "function"
		},
		{
			"inputs": [
				{
					"internalType": "uint256",
					"name": "tokenAmount",
					"type": "uint256"
				}
			],
			"name": "buyTokens",
			"outputs": [],
			"stateMutability": "nonpayable",
			"type": "function"
		},
		{
			"inputs": [],
			"name": "currency",
			"outputs": [
				{
					"internalType": "contract IERC20",
					"name": "",
					"type": "address"
				}
			],
			"stateMutability": "view",
			"type": "function"
		},
		{
			"inputs": [
				{
					"internalType": "uint256",
					"name": "bet",
					"type": "uint256"
				},
				{
					"internalType": "uint256",
					"name": "lineCount",
					"type": "uint256"
				},
				{
					"internalType": "bytes32",
					"name": "_seed",
					"type": "bytes32"
				}
			],
			"name": "doSpin",
			"outputs": [],
			"stateMutability": "nonpayable",
			"type": "function"
		},
		{
			"inputs": [
				{
					"internalType": "bytes32",
					"name": "_flushSeed",
					"type": "bytes32"
				}
			],
			"name": "flushRandom",
			"outputs": [],
			"stateMutability": "nonpayable",
			"type": "function"
		},
		{
			"inputs": [],
			"name": "getBankInTokens",
			"outputs": [
				{
					"internalType": "uint256",
					"name": "",
					"type": "uint256"
				}
			],
			"stateMutability": "view",
			"type": "function"
		},
		{
			"inputs": [],
			"name": "getCurrency",
			"outputs": [
				{
					"internalType": "address",
					"name": "",
					"type": "address"
				}
			],
			"stateMutability": "view",
			"type": "function"
		},
		{
			"inputs": [],
			"name": "getMultiplers",
			"outputs": [
				{
					"internalType": "uint256[5][9]",
					"name": "",
					"type": "uint256[5][9]"
				}
			],
			"stateMutability": "view",
			"type": "function"
		},
		{
			"inputs": [],
			"name": "getTokenPrice",
			"outputs": [
				{
					"internalType": "uint256",
					"name": "",
					"type": "uint256"
				}
			],
			"stateMutability": "view",
			"type": "function"
		},
		{
			"inputs": [],
			"name": "getUserBalance",
			"outputs": [
				{
					"internalType": "uint256",
					"name": "",
					"type": "uint256"
				}
			],
			"stateMutability": "view",
			"type": "function"
		},
		{
			"inputs": [],
			"name": "getWinLines",
			"outputs": [
				{
					"internalType": "uint256[5][]",
					"name": "",
					"type": "uint256[5][]"
				}
			],
			"stateMutability": "view",
			"type": "function"
		},
		{
			"inputs": [],
			"name": "owner",
			"outputs": [
				{
					"internalType": "address",
					"name": "",
					"type": "address"
				}
			],
			"stateMutability": "view",
			"type": "function"
		},
		{
			"inputs": [
				{
					"internalType": "address",
					"name": "",
					"type": "address"
				},
				{
					"internalType": "uint256",
					"name": "",
					"type": "uint256"
				}
			],
			"name": "playerSpins",
			"outputs": [
				{
					"internalType": "uint256",
					"name": "spinId",
					"type": "uint256"
				},
				{
					"internalType": "address",
					"name": "player",
					"type": "address"
				},
				{
					"internalType": "uint256",
					"name": "bet",
					"type": "uint256"
				},
				{
					"internalType": "uint256",
					"name": "utx",
					"type": "uint256"
				},
				{
					"internalType": "uint256",
					"name": "lines",
					"type": "uint256"
				},
				{
					"internalType": "uint256",
					"name": "winAmount",
					"type": "uint256"
				}
			],
			"stateMutability": "view",
			"type": "function"
		},
		{
			"inputs": [],
			"name": "renounceOwnership",
			"outputs": [],
			"stateMutability": "nonpayable",
			"type": "function"
		},
		{
			"inputs": [
				{
					"internalType": "address",
					"name": "newCurrency",
					"type": "address"
				}
			],
			"name": "setCurrency",
			"outputs": [],
			"stateMutability": "nonpayable",
			"type": "function"
		},
		{
			"inputs": [
				{
					"internalType": "uint256[5][9]",
					"name": "_slotMult",
					"type": "uint256[5][9]"
				}
			],
			"name": "setMultiplers",
			"outputs": [],
			"stateMutability": "nonpayable",
			"type": "function"
		},
		{
			"inputs": [
				{
					"internalType": "uint256",
					"name": "newTokenPrice",
					"type": "uint256"
				}
			],
			"name": "setTokenPrice",
			"outputs": [],
			"stateMutability": "nonpayable",
			"type": "function"
		},
		{
			"inputs": [
				{
					"internalType": "uint256[5][]",
					"name": "_winLines",
					"type": "uint256[5][]"
				}
			],
			"name": "setWinLines",
			"outputs": [],
			"stateMutability": "nonpayable",
			"type": "function"
		},
		{
			"inputs": [],
			"name": "tokenPrice",
			"outputs": [
				{
					"internalType": "uint256",
					"name": "",
					"type": "uint256"
				}
			],
			"stateMutability": "view",
			"type": "function"
		},
		{
			"inputs": [
				{
					"internalType": "address",
					"name": "newOwner",
					"type": "address"
				}
			],
			"name": "transferOwnership",
			"outputs": [],
			"stateMutability": "nonpayable",
			"type": "function"
		},
		{
			"inputs": [],
			"name": "withdrawTokens",
			"outputs": [],
			"stateMutability": "nonpayable",
			"type": "function"
		}
	]
}